:0C2FCB00245265763A2039313120240070
:10183500E47880F6122FE275E10175E24075A45057
:1018450075B287E4F5A9122F89E4F53DF53E7D01D2
:10185500AF3E122EB7053EE53E7002053DC394022C
:10186500E53D940040E8E4F520C213C211C217C259
:1018750016C2157880F6C28608F67885F618F678C9
:101885008AF6F53DF53E748C253EF8E4F6053EE511
:101895003E7002053D6414453D70EBE4F53DF53EB3
:1018A50074A0253EF8E4F6053EE53E7002053D646C
:1018B50008453D70EBE5EF20E10CE5EF5408D394C6
:1018C500004003D38001C392037D08E4FF122F2853
:1018D500E47889F67882F6AB70AA71A9727882E607
:1018E500FF75F010A4F58285F083120580FE7889D6
:1018F50026F6EE600578820680DDEFD39400403051
:10190500AB70AA71A97290000D12071D120567FF31
:1019150074551205AD12056764556002D21574AA97
:101925001205AD12056764AA6002D215EF1205AD66
:10193500E5EF5402D3940040047F018002E4FF12D6
:10194500232F8F3CE53C20E035C21274FFF508F5E6
:1019550009F50AF50B7E007F107D007B007A007982
:101965000E1207737542FF75431F75447D7545005B
:101975007546107B007A00790E122C678002D21210
:10198500902FD2E493FF3395E0FEEF24D0FFEE34A1
:10199500FFFE7C007D641205E1AA06AB07902FD1FE
:1019A500E493FF3395E0FEEF24D0FFEE34FFFE7C99
:1019B500037DE81205E1EF2BFBEE3AFA902FD3E415
:1019C50093FF3395E0FEEF24D0FFEE34FFFE7C005D
:1019D5007D0A1205E1EF2BFFEE3AFEA3E493FD33FA
:1019E50095E0FCED24D0FDEC34FFCD2FF50DED3E5B
:1019F500F50CE53C30E103021AADE4F53DF53EE5B5
:101A05003EC4F8540FC868FFE53DC454F048FEAB2A
:101A150070AA71A9728F82F5831205807003021A6C
:101A2500A4E92FF9EA3EFA90000412058020E26449
:101A3500E4F53BE53BC378B1965059E53EC4F8540F
:101A45000FC868FFE53DC454F048AB70AA71A97290
:101A55008F82F583120580FF7E00C006C0077D00DA
:101A6500E53EC4F8540FC868FFE53DC454F048FE90
:101A7500E92FF9EA3EFA90000D12071D7889E685EF
:101A85003BF0A429F9EA35F0FAD007D0061207731E
:101A9500053B809F053EE53E7002053D021A047F29
:101AA50001121D0FC2148007E4FF121D0FD214E4AA
:101AB500F53DF53E7A007B967D03AF3E1229340550
:101AC5003EE53E7002053DC39402E53D940040E4C9
:011AD50022EE
:0300230002214374
:10214300C0E0C0F0C083C082C0D075D000C000C062
:1021530001C002C003C004C005C006C00730993ADD
:10216300C2997885067985E77881667016F6788551
:01217300F675
:0E21740075240A0075250300D525FCD524F539
:04218200C28680177A
:0E2186007524140075250300D525FCD524F51D
:102194007885E624A0F8E6F59920980302222C20FD
:1021A4009A07201304C298807BC29A7884E6062496
:1021B4008CF8A699C2987884E6FFB40113788CE66B
:1021C400FE70057884F68060EE54072402788BF65E
:1021D400EFB4020E788BE6B40908788DE62403790F
:1021E4008BF77884E6FFB414047600803BEFC37861
:1021F4008B9640347884E624FFFDE434FFFC7B00B6
:102204007A00798C12271A7884E6248BF8E66F60BA
:0322140002801134
:0E2217007524140075250300D525FCD524F58B
:1022250012083178847600D007D006D005D004D0C6
:1022350003D002D001D000D0D0D082D083D0F0D04E
:02224500E03285
:1029AD00788DE675F010A4AB702572F9E57135F0F0
:1029BD00FA90000D12071D788AE6FF18E68FF0A435
:1029CD002528F582E435F0F583120580FF7B007A2A
:0329DD0000792658
:1029E0008F358B368A378938EA494B60161205676E
:1029F000FFE535FD7C00120003AB36AA37A938EF9E
:032A00001205AD0F
:0E2A030075391400753A0300D53AFCD539F543
:0E2A11008535997F01122E8E3099FDC29922D3
:062FA4007881EFF6D286F1
:0E2FAA007535140075360300D536FCD535F5A7
:062FB80078A0E6F5992265
:102D0600C9EFC9E964017028EDC39B403478B1E688
:102D1600FFEB2FFFE433FEEDC39FEE6480F8748073
:102D260098501ED213C3ED9B788AF67886760122D8
:102D3600B90214ED6B700AD213788AF67886760299
:082D460022C213E47886F62294
:102B5A00C9EFC9BAFF15BBFF12ED6B7002EC6A70C0
:102B6A0049D213788AF67886E9F622E96401702553
:102B7A00C3ED9BEC9A401C78B1E62BFFE43AFEC306
:102B8A00ED9FEC9E500DD213C3ED9B788AF67886A2
:102B9A007601228015B90218ED6B7002EC6A700A90
:102BAA00D213788AF67886760222C213E47886F6F9
:012BBA0022F8
:10083100788CE6FF54F8F527EF12074D087A09087E
:10084100850A089410089D1108AC1208BF1908D335
:100851001A08F22008F8280998290A9C330ACB378C
:100861000AF1390B0A410B13490B1C500B60610A49
:1008710062700B589800000B8B788DE6FDE509FB43
:100881007F018021788DE6FC08E6FDAB09AA087F8F
:10089100018025D21378867603020B8B788DE6FDD5
:1008A100E50BFB7F02122D06020B8B788DE6FC080F
:1008B100E6FDAB0BAA0A7F02122B5A020B8B788D35
:1008C100E6FDE509FB7F01122D06201303020B8BC8
:1008D1008016788DE6FC08E6FDAB09AA087F0112B7
:1008E1002B5A201303020B8B78A076787F01020B21
:1008F1008875EF12020B8BC2ACE4F526D286FB7A27
:100901000079267F7F1229E07B007A0079267F1803
:100911001229E07B007A0079267F051229E078828E
:10092100E61229D97B007A007926AF081229E07BEB
:10093100007A007926AF091229E07B007A00792636
:10094100AF0A1229E07B007A007926AF0B1229E069
:100951007B007A007926AF0C1229E07B007A0079BE
:1009610026AF0D1229E0E4F528740E2528F8E612C9
:1009710029D90528E528C3941040EE7B007A007937
:0609810000AF261229E080
:0E09870075330A0075340300D534FCD533F502
:10099500020A4F788DE6FFC37882964003020A5615
:1009A500EF75F010A42572F9E57135F0857030F515
:1009B500318932C2ACE4F526D286FB7A0079267FEE
:1009C5007F1229E07B007A0079267F0D1229E0ABA2
:1009D50030AA31A9321205671229D9AB30AA31A93B
:1009E500329000011229D6AB30AA31A9329000020B
:1009F5001229D6AB30AA31A9329000031229D6AB01
:100A050030AA31A9329000041229D6E4F528AB307A
:100A1500E5322405F9E43531FA7E00E92528F9EEB9
:100A25003AFA1205671229D90528E528C394084022
:0C0A3500DD7B007A007900AF261229E07A
:0E0A410075330A0075340300D534FCD533F547
:100A4F00C286D2AC020B8B78A07678E408F67F02D0
:100A5F00020B88122FBE78751206C478A0767C78A8
:100A6F0075E678A1F67876E678A2F67877E678A339
:100A7F00F67878E678A4F67C007D057B007A00791D
:100A8F00A012271A78A5EFF67F06020B88788DE65D
:100A9F00FFB4010B08E6F50808E6F509020B58EF5D
:100AAF00B40208788EE6F508020B58788DE6B40389
:100ABF000808E6F50A08E6F50B020B58E4F528E5F9
:100ACF0028C3788D965016748E2528F8E6FF740E7D
:100ADF002528F8C6EFC60528E528B410E2E4F51D71
:100AEF0080677A007B327D01788AE6FF122934789D
:100AFF008DE6FDE4FF122F28020B8B788DE624FF85
:100B0F0092028078788DE624FF9201806F788AE6D2
:100B1F006005752A02800B201605752A0380037560
:100B2F002A0178A0767908A62A7C007D027B007ABC
:100B3F000079A012271A78A2EFF67F03122FA4E5EF
:100B4F002A64017037D2178002D211788076F18033
:100B5F002B7A007B327D017F0012293478A07679C1
:100B6F00788DE678A1F67C007D027B007A0079A073
:100B7F0012271A78A2EFF67F03122FA4E52764A09D
:100B8F006003020D89788CE664A16003020C8379FF
:100B9F008DE7C37882964003020C7AAB70AA71A9D5
:100BAF0072788DE6FF75F010A4F58285F08312053B
:100BBF0080F52AEF75F010A429F9EA35F0FA9000C4
:100BCF000412058030E230788DE6FF12001B8F2A69
:100BDF0078A0767F08A62AE52A2402FDE433FC7B61
:100BEF00007A0079A012271A74A2252AF8EFF6E5E9
:100BFF002A2403FF020D86788DE6FF12001BC2AC7C
:100C0F00E4F526D286E52AD39406402B7B007A00A2
:100C1F0079267F7F1229E07B007A007926AF2A128E
:100C2F0029E0E4F528E528C3952A50071229AD05D8
:100C3F002880F2052A8018E52A24781229D9E4F5AC
:100C4F0028E528C3952A50071229AD052880F27B85
:0A0C5F00007A007900AF261229E0A8
:0E0C690075330A0075340300D534FCD533F51D
:100C7700020D7A78A076787F01020D86788CE6647B
:100C8700A26003020D897882E6FF788DE6FEC39F96
:100C97004003020D8008E6FDC39F4003020D80EE6E
:100CA7009D4003020D8018E6F528E4F52EF52FE5A3
:100CB70028D3788E965026AF2812001BAB70AA71E6
:100CC700A97275F010E528A4F58285F083120580D6
:100CD700252FF52FE4352EF52E052880D2C2ACE45A
:100CE700F526D286FB7A0079267F7F1229E0C3E5B5
:100CF7002F9480E52E940050028007E52E44801241
:100D070029D9AF2F1229DA788DE6F528E528D37887
:100D17008E965046E4F529AB70AA71A97275F0104A
:100D2700E528A4F58285F083120580FFE529C39F96
:100D37005024E52875F010A429F9EA35F0FA900057
:100D47000D12071D788AE6FF18E68FF0A4252912F1
:100D570029CF052980C1052880B27B007A00790058
:050D6700AF261229E097
:0E0D6C0075330A0075340300D534FCD533F519
:100D7A00C286D2AC800978A076787F01122FA4E5CA
:100D8A002764587047FA7B327D01788AE6FF122978
:100D9A0034753800753900753AA17B007A00798D6F
:100DAA00122E368F2AE52A247878A0F6E52A24011D
:100DBA00FDE433FC7B007A0079A012271A74A1257E
:100DCA002AF8EFF6E52A2402FF122FA4E527648009
:100DDA006009E52764886003020F707886E6B4012B
:100DEA000F7A007B327D01788AE6FF122934801A55
:100DFA00E4F528E528C378B196500F7A007B327D56
:100E0A0001AF28122934052880E9788CE65407F5C1
:100E1A002AB4070A75290108E6F52A088005E4F5C7
:100E2A0029788DE6F52B152AE52BC378829640039F
:100E3A00020F4EAB70AA71A97275F010E52BA4F5DA
:100E4A008285F083120580FFE52AD39F40028F2A0C
:100E5A007886E6B40109788AE6F52DF52C8009E44E
:100E6A00F52C78B1E614F52D788AA62C788AE6D383
:100E7A00952D4003020F42E4F528E528C3952A4040
:100E8A0003020F37E52B75F010A4AB702572F9E554
:100E9A007135F0FA90000412058030E203020F3235
:100EAA0090000112058064387031E52AD394044019
:100EBA000BE5292528248EF8E6FD804E7884E6C3C2
:100ECA009528FF748A2FF8E6FDE52B75F010A4AB80
:100EDA00702572F9E57135F0FA802FAB70AA71A905
:100EEA007275F010E52BA4F58285F083120580FF58
:100EFA00C37884E69F25282529248BF8E6FDE52B6F
:100F0A0075F010A429F9EA35F0FA90000D12071DC0
:100F1A00788AE6FF18E68FF0A4FFE5282FF582E429
:100F2A0035F0F583ED1205BF0528020E84AF2B12AA
:100F3A0025F3788A06020E76788AA62CE527648835
:100F4A007024800FE52BB4FF1D788EE6F520E52787
:100F5A00B4881378A076787884E6248BF8E678A1AA
:060F6A00F67F02122FA425
:010F7000225E
:106800007880E664F16003026E13E4F55AF55B7874
:0468100081E660209D
:0E68140075600A0075610300D561FCD560F562
:10682200055BE55B7002055A64107004E55A642743
:1068320070DBC2AFE4F5D9F556F55520982FE4F593
:106842005AF55B209823C3E55B9488E55A9413506C
:01685200182D
:0E68530075600A0075610300D561FCD560F523
:10686100055BE55B70DE055A80DAB28780CE8599DB
:1068710055C298E555641A6003026946F55AF55BFD
:0E688100209823C3E55B9488E55A94135018C1
:0E688F0075600A0075610300D561FCD560F5E7
:10689D00055BE55B70DE055A80DA30989385995675
:1068AD00C298E4F55AF55B209823C3E55B9488E51F
:0568BD005A941350186D
:0E68C20075600A0075610300D561FCD560F5B4
:1068D000055BE55B70DE055A80DA20980302683DAF
:1068E000859956C298E4F55AF55B209823C3E55B79
:0868F0009488E55A9413501836
:0E68F80075600A0075610300D561FCD560F57E
:10690600055BE55B70DE055A80DA20980302683D78
:09691600859956C298D286C299F7
:0E691F007560140075610300D561FCD560F54C
:06692D007599783099FD18
:0E69330075600A0075610300D561FCD560F542
:10694100C286026E05E555645060030269DBF55AA3
:10695100F55B209823C3E55B9488E55A941350189E
:0E69610075600A0075610300D561FCD560F514
:10696F00055BE55B70DE055A80DA20980302683D0F
:09697F00859956C298D286C2998E
:0E6988007560140075610300D561FCD560F5E3
:086996007599793099FDC29951
:0E699E007560140075610300D561FCD560F5CD
:0869AC007599013099FDC299B3
:0E69B4007560140075610300D561FCD560F5B7
:0669C200E4F5993099FD97
:0E69C80075600A0075610300D561FCD560F5AD
:0F69D600C286026E05E55564017041D286C299F2
:0E69E5007560140075610300D561FCD560F586
:0869F3007599783099FDC299F5
:0E69FB007560140075610300D561FCD560F570
:066A0900E4F5993099FD4F
:0E6A0F0075600A0075610300D561FCD560F565
:106A1D00C286026E05E55564026003026AE2F55A0C
:106A2D00F55B209823C3E55B9488E55A94135018C1
:0E6A3D0075600A0075610300D561FCD560F537
:106A4B00055BE55B70DE055A80DA20980302683D32
:106A5B00859956C298E4F557E55613B39287E556D8
:106A6B0025E0FEC3E49400EE94685027E5567F00C2
:106A7B0025E0FEC39460501B758F038E5C8F5D7594
:106A8B00B7A57880E6F5B7855D82855C83E4F0F584
:0A6A9B008F80037557FFD286C29961
:0E6AA5007560140075610300D561FCD560F5C5
:086AB3007599783099FDC29934
:0E6ABB007560140075610300D561FCD560F5AF
:066AC9008557993099FD8C
:0E6ACF0075600A0075610300D561FCD560F5A5
:106ADD00C286026E05E55564036003026C2CF55AFF
:106AED00F55B209823C3E55B9488E55A9413501801
:0E6AFD0075600A0075610300D561FCD560F577
:106B0B00055BE55B70DE055A80DA20980302683D71
:106B1B00859956C298E4F55AF55B209823C3E55B3B
:086B2B009488E55A94135018F8
:0E6B330075600A0075610300D561FCD560F540
:106B4100055BE55B70DE055A80DA20980302683D3B
:106B5100859958C298E556139287E55625E0FEC3FC
:106B6100E49400EE9468400302683DE5567D0025FB
:106B7100E0FCC39460400302683D758F01E55875E0
:106B8100F020A42DFFE5F03CF55C8F5DE4F559E5BF
:106B910059C394205051E4F55AF55B209823C3E57D
:096BA1005B9488E55A9413501826
:0E6BAA0075600A0075610300D561FCD560F5C9
:106BB800055BE55B70DE055A80DA20980302683DC4
:106BC80075B7A57880E6F5B7055DE55DAE5C700242
:106BD800055C14F5828E83E599F0C298055980A862
:076BE800E4F58FD286C2998B
:0E6BEF007560140075610300D561FCD560F57A
:086BFD007599783099FDC299E9
:0E6C05007560140075610300D561FCD560F563
:066C1300E4F5993099FD43
:0E6C190075600A0075610300D561FCD560F559
:106C2700C286026E05E55564046003026CE0F55AFE
:106C3700F55B209823C3E55B9488E55A94135018B5
:0E6C470075600A0075610300D561FCD560F52B
:106C5500055BE55B70DE055A80DA20980302683D26
:106C6500859956C298E55625E0F55E755F00E4F511
:106C750057F55AF55B055FE55FAE5E7002055E147C
:106C8500F5828E83E4932557F557055BE55B700226
:0E6C9500055A7004E55A640270DBD286C2997B
:0E6CA3007560140075610300D561FCD560F5C5
:086CB1007599783099FDC29934
:0E6CB9007560140075610300D561FCD560F5AF
:066CC7008557993099FD8C
:0E6CCD0075600A0075610300D561FCD560F5A5
:106CDB00C286026E05E55564056003026DFDF55A2B
:106CEB00F55B209823C3E55B9488E55A9413501801
:0E6CFB0075600A0075610300D561FCD560F577
:106D0900055BE55B70DE055A80DA20980302683D71
:106D1900859956C298E4F55AF55B209823C3E55B3B
:086D29009488E55A94135018F8
:0E6D310075600A0075610300D561FCD560F540
:106D3F00055BE55B70DE055A80DA20980302683D3B
:096D4F00859958C298D286C299B8
:0E6D58007560140075610300D561FCD560F50F
:086D660075997F3099FDC29977
:0E6D6E007560140075610300D561FCD560F5F9
:106D7C007599203099FDE55625E0FCE55875F02015
:106D8C00A42400FFE5F03CF55E8F5FE4F557F55960
:026D9C00C2999A
:0E6D9E007560140075610300D561FCD560F5C9
:106DAC00855F82855E83E493F5993099FD055FE5F7
:106DBC005FAE5E7002055E14F5828E83E4932557F8
:0B6DCC00F5570559E559B420C7C299DE
:0E6DD7007560140075610300D561FCD560F590
:066DE5008557993099FD6D
:0E6DEB0075600A0075610300D561FCD560F586
:106DF900C2868008E555B4060375EF12E5556407A8
:0A6E0900600302683D7880F6D2AF06
:016E1300225C
:102A1F007F00122E8E20120B7A007B327D017F00F9
:102A2F0012293430150B7A007B1E7D017F0012298D
:102A3F00343011173016147A007B327D01788AE614
:102A4F00FF122934C2111224B4D21220140C3016E2
:102A5F0009788076F11224B4D21430170830160595
:102A6F00C21712680020161212000EE47B2C7A0196
:0B2A7F00F9F8C312069A5002D216228A
:0B2FD700121835122A1F122DCD80F8B1
:10203900005EBCE2613FDD83C29C7E20A3FD1F419F
:102049009DC3217FFCA2401E5F01E3BD3E6082DC8F
:10205900237D9FC1421CFEA0E1BF5D0380DE3C627F
:10206900BEE0025CDF81633D7C22C09E1D43A1FF6F
:102079004618FAA427799BC584DA3866E5BB59075F
:10208900DB856739BAE406581947A5FB7826C49A4F
:10209900653BD987045AB8E6A7F91B45C6987A243F
:1020A900F8A6441A99C7257B3A6486D85B05E7B92F
:1020B9008CD2306EEDB3510F4E10F2AC2F7193CD1F
:1020C900114FADF3702ECC92D38D6F31B2EC0E500F
:1020D900AFF1134DCE90722C6D33D18F0C52B0EEFF
:1020E900326C8ED0530DEFB1F0AE4C1291CF2D73EF
:1020F900CA947628ABF517490856B4EA6937D58BDF
:102109005709EBB536688AD495CB2977F4AA4816CE
:10211900E9B7550B88D6346A2B7597C94A14F6A8BE
:10212900742AC896154BA9F7B6E80A54D7896B35AE
:0A2139000000000000002B96B9DD45
:032F050001650A59
:10271A00151E151EA81EECF608EDF6151E151E153B
:10272A001EA81EC6EBC608C6EAC608C6E9C6E51E46
:04273A0024FCF51E68
:10273E00F80808E4F6A81EF608F6E51E2407F9A820
:10274E001EE6FE08E6FFC3099719E76480F8EE64FB
:10275E0080985037E51E2404F8CBE6CB08E6FA083D
:10276E00E6F98F828E83120580A81E080866FFE5A3
:10277E001E2403F8EFF6E690203993A81E0808F6FB
:10278E00A81E0806E61870B20680AFA81E0808E656
:01279E00FF3B
:07279F00E51E2409F51E22CE
:07000300ED6F90203993FF1F
:01000A0022D3
:102F2800EF701B7598D0E589540F4420F589438EBE
:102F380008ED90213893F58DD28ED2ACC2BCD2AFB9
:012F48002266
:102D4E00E4F56BF56AF569F568F56FF56EF56DF5F9
:102D5E006C756464FFEF25E025E024A8F8E4F6EF37
:102D6E0025E025E024A9F8E4F6EF25E025E024AAE5
:102D7E00F8E4F6EF25E025E024ABF8E4F60FBF0209
:012D8E00D470
:012D8F002221
:102F8900D2AFD2A9C2BBE589540F4401F589E4F552
:0B2F99008E758CAFF58AD28C022D4E95
:02255700151E4F
:10255900A81EE4F6A81EE6FFC3940240030225F074
:10256900EF25E025E024ABF8E6FFD394004052A81C
:102579001EE625E025E024A9F8E67045EF30E015D0
:10258900A81EE6FF25E025E024ABF8E6D394014038
:10259900047D0180067D00A81EE6FF122CB9A81E45
:1025A900E6FF25E025E024ABF816E66014EF25E008
:1025B90025E024AAF8E6FEEF25E025E024A9F8EEB7
:1025C900F6A81EE625E025E024A9F8E6600116A88C
:1025D9001EE6FF25E025E024ABF8E67004FD122C89
:0725E900B9A81E0602255DE2
:0325F000051E22A3
:03000B000228B612
:1028B600C0E0C0F0C083C082C0D0E8C0E0E9C0E09C
:1028C600EAC0E0EBC0E0ECC0E0EDC0E0EEC0E0EF57
:1028D600C0E0758CAFE56B2401F56BE4356AF56AEB
:1028E600E43569F569E43568F568D56418E56F245B
:1028F60001F56FE4356EF56EE4356DF56DE4356C16
:10290600F56C756464122557122F69D0E0FFD0E08C
:10291600FED0E0FDD0E0FCD0E0FBD0E0FAD0E0F95C
:0E292600D0E0F8D0D0D082D083D0F0D0E03214
:102EB700151EA81EEDF6151EA81EEFF6A81EE6FFA6
:102EC700C39402500D08E6FEEF25E025E024A8F89C
:072ED700EEF6051E051E22A8
:10293400151E151EA81EEAF608EBF6151EA81EEDB8
:10294400F6151EA81EEFF6A81EE6FFC39402505209
:10295400EF25E025E024ABF8E67047A81EE6FB254A
:10296400E025E024A9F8E67039A81E08E625E0046D
:10297400FFA81EE6FA25E025E024ABF8EFF6A81E32
:102984000808E6FE08E6FF7C007D0A1205F3EA2546
:10299400E025E024AAF8EFF6EB25E025E024A9F8E9
:0929A400E4F6E51E2404F51E22F0
:102CB900151EA81EEDF6151EA81EEFF6A81EE6FFA6
:102CC900C39402501CEF25E025E024A8F8E6601122
:102CD900A81E08E670047F0180027F00A81E08EF85
:102CE900F6A81EE6700608E624FF9287A81EE6B439
:0D2CF900010608E624FF9282051E051E223A
:0C000E00C2AFAF6BAE6AAD69AC68D2AF98
:01001A0022C3
:0C2FBE00C2AFAF6FAE6EAD6DAC6CD2AFA9
:012FCA0022E4
:102E8E00151EA81EEFF6A81EE67004F566F567304F
:102E9E001814E56575F064A4FFC3E5679FE56695B4
:092EAE00F05003E4F5D3051E22E7
:102F4900D218E4F566F567EF6004F56580037565E9
:102F59000AE4F5D975D2FF75D940F5D375EF062284
:0A2FE200C218E4F566F567F5D92280
:102F69000567E56770020566301814E56575F06454
:102F7900A4FFC3E5679FE56695F05003E4F5D32206
:042E63008E408F41CD
:102E6700E4F542F543C3E5439541E54295405016E5
:102E77007FE87E03122BBB7F01122E8E0543E543AD
:062E870070E3054280DF4C
:012E8D002222
:042BBB008E578F584A
:102BBF00D3E55894FAE5579400500FEFD3940040A3
:102BCF0041007E0300DEFD1F80F185575985585A5D
:102BDF00D3E55A94FAE559940040157FFA7E001216
:102BEF002BBB7406255AF55A74FF3559F55980E0F9
:102BFF00D3E5589400E55794004007AF5AAE5912E9
:022C0F002BBBDD
:012C110022A0
:102A8A00754A00754B00754C447B007A0079427D8B
:012A9A000239
:082A9B008B468A4789488D49EA
:102AA3007F01122E8EAB4AAA4BA94C120629240091
:102AB300FFE5F03460FE85464D85474E85484FE47B
:102AC300FDEDC39549501BEF2DF582E43EF583E4FC
:102AD30093AB4DAA4EA94F8D827583001205BF0D8E
:0F2AE30080DFAB4AAA4BA94CE48549F0020654A8
:1023F800755712755834755F007560007561597BA3
:07240800007A0079577D0204
:08240F008B5B8A5C895D8D5E28
:102417007880E664F160030224B3122FE2C2AF753D
:10242700EF06758F01AB5FAA60A961120629240028
:10243700FFE5F034607879F608EFF6AA5CA95D78D5
:102447007DA65B08C6EAC608C6E9C6E4787BF678C7
:102457007BE6C3955E503C787DCBE6CB080806E665
:1024670018CAE6CA70010614F9120567787CF67572
:10247700B7A57880E6F5B7787CE6FF78790806E6B1
:1024870018CCE6CC70010614F5828C83EFF0787BCC
:102497000680BCE4F58F53B6F0AB5FAA60A96185EF
:0C24A7005EF0120654D2AFE4FF122F4981
:0124B3002206
:102C12007880E664F1704DC2AF122FE275EF06754F
:102C22008F03787A7660087600E47879F675B7A52E
:102C32007880E6F5B7787AE6FE08E6F5828E83E4D8
:102C4200F07F01122E8E787BE426F618740236F697
:102C52001806E6C3940240D5E4F58F53B6F0D2AF1E
:042C6200FF122F49E5
:012C6600224B
:1024B400122C12E4F559F55AF55F756000756159EF
:1024C400FB7A0079087D1612240F1223F8E4F556DE
:1024D400E556C378B1965073E4F555AB70AA71A96B
:1024E4007275F010E555A4F58285F08312058060BD
:1024F40056E55575F010A429F9EA35F0FA90000D67
:1025040012071D7889E68556F0A429F9EA35F0FA10
:10251400EBC0E0EAC0E0E9C0E0AB70AA71A9727553
:10252400F010E555A4F58285F083120580FD755FF2
:1025340000756000756159D0E0F9D0E0FAD0E0FB95
:1025440012240F05558094055680851223F8E478EB
:0225540080F60F
:012556002262
:03232F00CCEFCC24
:10233200E4F544F545F541F54A754B00754C44FB0F
:102342007A0079087D16122A9B122A8AE5436434A0
:102352007004E54264127003434101EC70030223EE
:10236200F2E4F540E540C378B1965073E4F53FAB33
:1023720070AA71A97275F010E53FA4F58285F08309
:102382001205806056E53F75F010A429F9EA35F090
:10239200FA90000D12071D7889E68540F0A429F90C
:1023A200EA35F0FAEBC0E0EAC0E0E9C0E0AB70AABF
:1023B20071A97275F010E53FA4F58285F0831205CC
:1023C20080FD754A00754B00754C44D0E0F9D0E0B1
:1023D200FAD0E0FB122A9B053F80940540808512CB
:1023E2002A8AE54364347004E54264127005800071
:0523F200434102AF4170
:0123F70022C3
:101EF7004F4532004F4330005345300053433000C5
:101F070063757272656E74204F4B004C2530362E08
:101F170033664B47004C2530362E33665547005005
:101F27002530362E33664B47005430005761726EAA
:101F3700696E67212043757272656E74204C696DF6
:101F47006974206279706173736564005761726E9A
:101F5700696E6720486967682049202825362E332F
:101F67006629005761726E2D4C6F7720492028250E
:101F7700362E33662900434342455254414E34318D
:101F87003000013400000053746174757300000160
:101F9700001104180000015564656D616E6400014D
:101FA70000120418000001556D65617300000001FF
:101FB70000160406FA0001496D656173000000010F
:101FC700001A021800000052616D70557000000180
:101FD700001E021800000052616D70446F776E0199
:101FE70000200418000001556C696D697400000138
:101FF70000220406FA0001496C696D69740000014A
:10200700002620380000007761726E696E67000154
:10201700002A0134000008475049422041647201F8
:102027000062000000000000000000000000000047
:022037000000A7
:102F080001B1014D0000245265763A203133393938
:0F2F180020240001B000027300000370FF1F8926
:021D0F008F3F04
:101D1100E490008FF090008FE0FFC36480948450C2
:101D21002CEF3395E0FE74062FF58274003EF583A7
:101D3100E0C3648094B0500D74062FF58274003EA8
:101D4100F5837430F090008FE004F080C8900007B4
:101D5100E0FF3395E0FEEF24D0FFEE34FFFE7C0080
:101D61007D641205E1AA06AB07900006E0FF3395FA
:101D7100E0FEEF24D0FFEE34FFFE7C037DE8120588
:101D8100E1EF2BFBEE3AFA900008E0FF3395E0FE1D
:101D9100EF24D0FFEE34FFFE7C007D0A1205E1EF57
:101DA1002BFFEE3AFEA3E0FD3395E0FCED24D0FDE0
:101DB100EC34FFCD2FF50DED3EF50C75A418E4F5CF
:101DC100A575A6FF7580037590FF75A0FF75A0FF2F
:101DD100D291D292D293D294D295D296D297D290D6
:101DE100C280C283C2957F01FE122E63D295C29733
:101DF1007F14122836D2979000627404F0754BFF5D
:101E0100754C1E754DF77B017A00796F120FCD125B
:101E11002AF2754BFF754C1E754DFB7B017A0079DB
:101E21006F120FCD122AF2754BFF754C1E754DFFC7
:101E31007B017A00796F120FCD122AF2754BFF7573
:101E41004C1F754D037B017A00796F120FCD122A59
:101E5100F2E4900011F0E53F602290001EE4F0A34F
:101E6100740AF0A3E4F0A3740AF0A31206DC46DAC4
:101E7100C0009000261206DC42960000754BFF75EB
:101E81004C1F754D077B017A00792A120FCD122D57
:101E910090122E031213E0E4FFFE7D207C4190009E
:101EA10016E0F8A3E0F9A3E0FAA3E0FB1202C450A4
:101EB1001C9000121206DC0000000090006B12065C
:101EC100DC00000000E4FFFEFDFC02269A900016F3
:101ED100E0FCA3E0FDA3E0FEA3E0FF9000121206E8
:101EE100D0900016E0FCA3E0FDA3E0FEA3E0FF908C
:051EF100006B1206D099
:011EF60022C9
:1025F300151EA81EEFF6A81EE6FFB4010678B0E686
:102603004401F6EF701B900011E0B48014E574648C
:102613000145737004FEFF80047E007F018E738F7B
:1026230074A81EE6B4062D7F007EC07DDA7C46903A
:102633000022E0F8A3E0F9A3E0FAA3E0FB1202C44E
:10264300600C400A9000221206DC46DAC00078B023
:10265300E64408F6A81EE6B4072CE4FFFE7D967C4C
:1026630042900026E0F8A3E0F9A3E0FAA3E0FB120E
:1026730002C4600C400A9000261206DC4296000059
:0926830078B0E64410F6051E22B1
:05001B008F357F00227B
:102E36008B358A368937120567AB38AA39A93A1213
:102E460005ADAB35AA36A937900001120580AB381F
:0D2E5600AA39A93A9000011205BF7F02229F
:04283200C2977F3F8B
:10283600E4F555F5562093120556E55670020555F2
:1028460064E87004E555640370EB2093037F00226F
:10285600EFF4F5A07F0A7E00122BBBC292E4F55579
:10286600F5567F0A7E00122BBB2094110556E556BD
:1028760070020555C394E8E555940340E520940895
:10288600D29275A0FF7F0022D29275A0FFE4F55583
:10289600F5562093120556E5567002055564E87004
:0F28A60004E555640370EB2093037F00227F014C
:0128B5002200
:0B2AF200900062E0FF7B017A00796F2A
:082AFD008F488B498A4A894B7E
:102B05001228327F5F122836E5484420FF12283606
:102B15007F55122836D297E4F54CF54DAB49AA4AB4
:102B2500A94B854D82854C83120580FFD364809423
:102B3500804014122836D290EF7002FF22054DE531
:102B45004D70D9054C80D5C2917F0A122836D29195
:042B5500D290AF4D1E
:012B59002259
:082247008F488B498A4A894B3C
:10224F001228327F5F1228367F35122836E5484430
:10225F0040FF122836D297C294E4F551E551C39549
:10226F004C5014AB49AA4AA94B855182758300E49F
:10227F001205BF055180E5E4F551E551C3954C407A
:10228F000302231C122A1FD29312000E8F508E4F5F
:10229F008D4E8C4D309223122A1F12000EC3EF95D4
:1022AF0050FFEE954FFEED954EFDEC954DFCE47B0A
:1022BF0064FAF9F8D312069A50DA309209D294D20E
:1022CF0093D2907F0022C293E5A0F4AB49AA4AA90A
:1022DF004B8551827583001205BFA291E433F552ED
:1022EF00D294E4F553F5547F0A7E00122BBB209253
:1022FF00110554E55470020553C394E8E553940354
:10230F0040E5C294E55260050551022289D294D26C
:0F231F00931228327F5F122836D297D290AF5197
:01232E00228C
:0E2D9000900022E0FCA3E0FDA3E0FEA3E0FF24
:102D9E00754BFF754C1F754D12E4FBFA797A78442A
:102DAE001202278F518E508D4F8C4E7B017A0079F7
:0F2DBE006F120FCD122AF27F027E00122E6322B7
:0E2E0300900026E0FCA3E0FDA3E0FEA3E0FFAC
:102E1100754BFF754C1F754D1C8F518E508D4F8C0E
:102E21004E7B017A00796F120FCD122AF27F027E5A
:052E310000122E6322D7
:0E268C0090006BE0FCA3E0FDA3E0FEA3E0FFE6
:10269A00E51E24FCF51EF81206C4900022E0FCA3F5
:1026AA00E0FDA3E0FEA3E0FFA81E1206B71202C4D3
:1026BA00601E401C900022E0FCA3E0FDA3E0FEA304
:1026CA00E0FFA81E1206C4900011E04404F080073F
:1026DA00900011E054FBF0754BFF754C1F754D26A9
:1026EA00E4FBFA797A7844E8C0E0A81E1206ABD077
:1026FA00E0F81202278F518E508D4F8C4E7B017A53
:10270A0000796F120FCD122AF2E51E2404F51E225B
:1013E000754BFF754C1F754D307B017A00796F127C
:1013F0000FCD122AF2900062E0FF7B017A00796F34
:10140000754C2012224790006AEFF0E57445736036
:1014100017C2AF754BFF754C1F754D337B017A00BA
:10142000792A120FCDD2AF22900077E0FF3395E0FA
:10143000FEEF24D0FDEE34FFFC1203428F438E42B8
:101440008D418C40AB43AA42A941A840E8C0E0E9E5
:10145000C0E0EAC0E0EBC0E0900076E0FF3395E04A
:10146000FEEF24D0FFEE34FFFE7C007D0A1205E182
:10147000CCEECCCDEFCDEC120342D0E0FBD0E0FAC5
:10148000D0E0F9D0E0F812002D8F438E428D418CD0
:1014900040AB43AA42A941A840E8C0E0E9C0E0EA65
:1014A000C0E0EBC0E0900075E0FF3395E0FEEF2474
:1014B000D0FFEE34FFFE7C007D641205E1CCEECC63
:1014C000CDEFCDEC120342D0E0FBD0E0FAD0E0F952
:1014D000D0E0F812002D8F438E428D418C40AB43FB
:1014E000AA42A941A840E8C0E0E9C0E0EAC0E0EBB8
:1014F000C0E0900073E0FF3395E0FEEF24D0FFEEF4
:1015000034FFFE7C037DE81205E1CCEECCCDEFCDBF
:10151000EC120342D0E0FBD0E0FAD0E0F9D0E0F8E2
:1015200012002D8F438E428D418C40AB43AA42A9BD
:1015300041A840E8C0E0E9C0E0EAC0E0EBC0E090CC
:101540000072E0FF3395E0FEEF24D0FFEE34FFFEA3
:101550007C277D101205E1CCEECCCDEFCDEC120353
:1015600042D0E0FBD0E0FAD0E0F9D0E0F812002D54
:101570008F438E428D418C40900080E0FF3395E098
:10158000FEEF24D0FDEE34FFFC120342E4FBFA79B7
:10159000C878421202278F478E468D458C44AB4750
:1015A000AA46A945A844E8C0E0E9C0E0EAC0E0EBEB
:1015B000C0E090007FE0FF3395E0FEEF24D0FDEE29
:1015C00034FFFC120342E4FBFA792078411202272F
:1015D000D0E0FBD0E0FAD0E0F9D0E0F812002D8F97
:1015E000478E468D458C44AB47AA46A945A844E89A
:1015F000C0E0E9C0E0EAC0E0EBC0E090007DE0FFC1
:101600003395E0FEEF24D0FDEE34FFFC120342D010
:10161000E0FBD0E0FAD0E0F9D0E0F812002D8F47DF
:101620008E468D458C44AB47AA46A945A844E8C0E0
:10163000E0E9C0E0EAC0E0EBC0E090007CE0FF330E
:1016400095E0FEEF24D0FFEE34FFFE7C007D0A1211
:1016500005E1CCEECCCDEFCDEC120342D0E0FBD0D7
:10166000E0FAD0E0F9D0E0F812002D8F478E468DD9
:10167000458C44AB47AA46A945A844E8C0E0E9C068
:10168000E0EAC0E0EBC0E090007BE0FF3395E0FED5
:10169000EF24D0FFEE34FFFE7C007D641205E1CC28
:1016A000EECCCDEFCDEC120342D0E0FBD0E0FAD08F
:1016B000E0F9D0E0F812002D8F478E468D458C441E
:1016C000E4FFFEFDFCAB43AA42A941A8401202C4BC
:1016D0005009E4F543F542F541F540E4FFFEFDFC19
:1016E000AB47AA46A945A8441202C45009E4F547ED
:1016F000F546F545F54490006AE07003021834C2DF
:10170000AFAF43AE42AD41AC409000161206D0AF31
:1017100047AE46AD45AC4490001A1206D0D2AFAFEA
:1017200043AE42AD41AC4090006B1206D090002613
:10173000E0FCA3E0FDA3E0FEA3E0FFAB47AA46A9BF
:1017400045A8441202C4900011E040054408F0800E
:101750000354F7F07FCD7ECC7D8C7C3FAB43AA4217
:10176000A941A84012011E7B337AB379C478431291
:1017700002277B577AEC792F78BE12002DAB47AA4F
:1017800046A945A8441202C4602A4028754BFF753B
:101790004C1F754D5385475185465085454F8544AF
:1017A0004E7B017A00792A120FCDC2AF900011E072
:1017B0004420807A7466FFFEFD7C3FAB43AA42A9B9
:1017C00041A84012011E7B337AB379C478431202D8
:1017D000277B577AEC792F78BE12002DAB47AA46AB
:1017E000A945A8441202C4502B754BFF754C1F75B8
:1017F0004D6A85475185465085454F85444E7B014E
:101800007A00792A120FCDC2AF900011E04410F097
:1018100054DF801D754BFF754C1F754D077B017A9A
:1018200000792A120FCDC2AF900011E054DFF054BE
:04183000EFF0D2AF54
:011834002291
:101AD600900011E030E303021D0E78B0E620E0032B
:101AE600021B8490006BE0FCA3E0FDA3E0FEA3E0F4
:101AF600FF900012E0F8A3E0F9A3E0FAA3E0FB12DE
:101B060002C460294027D390001FE0940090001E75
:101B1600E09400401878B0E64402F654FBF6FD90D7
:101B26000011E04401F054FDF0ED54FEF690006B18
:101B3600E0FCA3E0FDA3E0FEA3E0FF900012E0F8C6
:101B4600A3E0F9A3E0FAA3E0FB1202C45027900039
:101B560021E09400900020E09400401978B0E6540B
:101B6600FDF64404FFF6FD900011E054FEF0440239
:101B7600F0ED54FEF612000E90000D1206D078B06D
:101B8600E620E103021C4212000ECBEFCBCAEECADE
:101B960090000DA3A3E0FEA3E0FFC3EB9FF53CEA94
:101BA6009EF53BD3E53C9464E53B6480948050030A
:101BB600021C4290006BE0F8A3E0F9A3E0FAA3E070
:101BC600FBE8C0E0E9C0E0EAC0E0EBC0E090001E40
:101BD600E0FCA3E0FDE4120342D0E0FBD0E0FAD043
:101BE600E0F9D0E0F812002D90006B1206D09000BC
:101BF60012E0FCA3E0FDA3E0FEA3E0FF90006BE093
:101C0600F8A3E0F9A3E0FAA3E0FB1202C440219096
:101C16000012E0FCA3E0FDA3E0FEA3E0FF90006B52
:101C26001206D078B0E654FDF6900011E054FEF0AE
:101C360012268C12000E90000D1206D078B0E62007
:101C4600E203021D0E12000ECBEFCBCAEECA9000C5
:101C56000DA3A3E0FEA3E0FFC3EB9FF53CEA9EF5D0
:101C66003BD3E53C9464E53B648094805003021DBD
:101C76000E90006BE0FCA3E0FDA3E0FEA3E0FFEC0A
:101C8600C0E0EDC0E0EEC0E0EFC0E0900020E0FC78
:101C9600A3E0FDE4120342C8ECC8C9EDC9CAEECA06
:101CA600CBEFCBD0E0FFD0E0FED0E0FDD0E0FC12E1
:101CB600002990006B1206D0900012E0FCA3E0FD14
:101CC600A3E0FEA3E0FF90006BE0F8A3E0F9A3E039
:101CD600FAA3E0FB1202C460025021900012E0FC5D
:101CE600A3E0FDA3E0FEA3E0FF90006B1206D07810
:101CF600B0E654FBF6900011E054FDF012268C126B
:081D0600000E90000D1206D042
:011D0E0022B2
:102DCD0078B0E630E309122D9078B0E654F7F67836
:102DDD00B0E630E409122E0378B0E654EFF6121384
:102DED00E0121AD67F647E00122E637A007B327D4C
:062DFD00017F00022934F1
:100026000203B0E86480F8E933E83360110460F055
:10003600ED33EC337009E8FCE9FDEAFEEBFF220440
:1000460060DED3EB9FEA9EE99DE8C2E78CF0C2F73B
:1000560095F0400CE8CCF8E9CDF9EACEFAEBCFFB07
:1000660012037B85D0F05804700320D5B3E80470E2
:10007600075002B2D50203BA92D5EC0460F7E4CC7D
:10008600C0E0C398F8603B94186008400DD0E0FBD0
:10009600020392E4FBFAC9FC8028E830E406E4C9CE
:1000A600FBE4CAFCE830E305E4C9CACBFCE8540724
:1000B6006010F8C3E913F9EA13FAEB13FBEC13FC2F
:1000C600D8F130F52FC3E49CFCEF9BFFEE9AFEEDD2
:1000D60099FDD0E0FBEF4E4D4C701222DB0302037C
:1000E600B7EC2CFCEF33FFEE33FEED33FDED30E7DE
:1000F600EB020392EF2BFFEE3AFEED39FDD0E0FB6B
:1001060050130BBB00030203BAED13FDEE13FEEF13
:0801160013FFEC13FC0203923D
:10011E00EC4D6011E8497017ED33EC3304600DE4DB
:10012E00FCFFFEFD22E933E8330470F80203B0123F
:10013E00037B58046009E4CC248150062850090240
:10014E0003BA2840030203B7C0E0EB4A7044B980FB
:10015E0006D0E0FB0203A6EF4E701CBD8008EBFF3D
:10016E00EAFEE9FD80EBE98DF0A4FEE5F002020760
:10017E00E9CDF9EAFEEBFFEF89F0A4FCE5F0CE89BC
:10018E00F0A42EFFE435F0CD89F0A42DFEE435F079
:10019E008067EF4E7005BD80D780C3EF8BF0A4ACA7
:1001AE00F0EE8BF0A42CFCE435F0F8EF8AF0A42CE2
:1001BE00E5F038FCE433CB8DF0A42CFCE5F03BF8F5
:1001CE00EE8AF0A42CFCE5F038F8E433CF89F0A4E5
:1001DE002CFCE5F038CF3400CE89F0A42FFFE5F0EB
:1001EE003EFEE433C98DF0A42EFEE5F039CD8AF043
:1001FE00A42FFFE5F03EFEE43DFD33D0E0FB5007BB
:10020E000BBB000F0203BAEC2CFCEF33FFEE33FEF8
:06021E00ED33FD02039226
:100224000203BAEC5D046005E8590470030203B0EC
:1002340012037B580460F6EC4860F2EC7004FDFE97
:10024400FF22C860DB2481C85009C39860025006AD
:100254000203B79850CAF582E9294B4A7005AB826C
:100264000203A675F0007C1A7880C3EF9BEE9AED2A
:1002740099400DC3EF9BFFEE9AFEED99FDE842F025
:10028400DC23ACF0D0E0FFD0E0FED0E0FDAB822078
:10029400E7101BEB60BAEC2CFCEF33FFEE33FEED02
:1002A40033FD020392E803F830E705C0F075F0006F
:1002B400EF2FFFEE33FEED33FD40B830E7C280AAE6
:1002C40074F8CC6480CCC86480C8F58204604FC3E1
:1002D400EB9FF5F0EA9E42F0E99D42F0E89C45F080
:1002E400603C501DE5825FFFE582D313CB5BCBF40A
:1002F4002B5582FB50280ABA002409B90020088033
:100304001DE5825BFBE582D313CF5FCFF4C3132FCC
:100314005582FF50090EBE00050DBD00010CC3EB54
:100324009FF5F0EA9E42F0E99D42F0E89C45F060BA
:0903340007CC4820E701B3EC22DC
:10033D0075F020800E75F010800575F0087D007E3B
:10034D00007F003392D530D50312068CEC3340106C
:10035D00EF33FFEE33FEED33FDEC33FCD5F0ED2244
:0E036D00E5F0247EA2D513CC92E7CDCEFF2280
:100F7100E55F244BF8E6055F227848300F02784B95
:100F8100E475F00112070D0205672008EB7F2ED2F0
:100F9100088018EF540F2490D43440D4FF300C0B48
:100FA100EF24BFB41A0050032461FFE5606002150D
:100FB100600563E56370020562300F0D7848E475E2
:100FC100F00112070DEF0205AD022EDE7403D20F00
:100FD1008003E4C20FF55F8B488A49894AE4F560D2
:100FE100F562F563E56060077F20120FAC80F5754F
:100FF10061FFC209C208C20AC20BC20DC20EC210F1
:10100100120F7AFF700D300F057F00120FBDAF6315
:10101100AE6222B4255FC2D5C20C120F7AFF24D072
:10102100B40A00501A75F00A786030D50508B6FF89
:101031000106C6A426F620D5047002D20B80D9245D
:10104100CFB41A00EF5004C2E5D20C0212AAD209A1
:1010510080C6D20880C0D20A80BCD2D580BAD20D57
:1010610080B47F20120FAC200A077401B5600040E4
:10107100F1120F71FF120FAC020FE5D210D20E80E8
:1010810095120F71FB120F71FA120F71F94A4B7021
:101091000679A17A137BFF200A2EE560602A7E0083
:1010A1008E8275830012058060060EEE656170F018
:1010B100C2D5EBC0E0EAC0E0E9C0E0EE12130AD00D
:1010C100E0F9D0E0FAD0E0FB120567FF60AAEBC0BF
:1010D100E0EAC0E0E9C0E0120FACD0E02401F9D0B1
:1010E100E03400FAD0E0FBE5610460DCD561D98031
:1010F10087D20A80A21212ED60F7E5617001041235
:1011010003C5A961600DE561600914F561121394CD
:10111100EF60F3EA30E702F404C3995077EAF4256B
:10112100610430E701E404F561800D1212ED60C144
:10113100EA056125611203C5EA785EF630E701E44C
:10114100256104D56104200D011412130AE4C0E0E5
:10115100121394785EE6601320E70714F6120F94D9
:10116100802204F6D0E014C0E07F00120F94E56104
:101171006007120F8B1561800B300D03120F8BD09E
:10118100E0020FE5D0E00480C51212ED60A0E56138
:10119100041203C5785EEAF6E561200D02600104E0
:0511A100240412130AF2
:1011A60074FF04C0E0121394120F94E561200D023F
:1011B6006003120F8BD0E0B561E87F45120F9E7871
:1011C6005EE67F2B30E7047F2DF404C0E0120FACFF
:1011D600D0E075F00A84C0F0120F95D0E0120F959A
:1011E600020FE5791080027908C20EC2108008D27B
:1011F600D5790A8004790AC2D5E561047002F561E1
:10120600E4FAFDFEFF120F71FC7B08200913120F92
:1012160071FD7B1030080A120F71FE120F71FF7BF1
:1012260020EC3382D592D55013C3E43008069FFFD5
:10123600E49EFEE42009039DFDE49CFCE4CBF8C299
:1012460009EC700CCFCECDCCE824F8F870F38017FB
:10125600C3EF33FFEE33FEED33FDEC33FCEB33FB34
:10126600994002FB0FD8E9EB300905F8D0E0C448F5
:10127600B209C0E00AEC4D4E4F78207B0070C2EAFE
:10128600B5610040BCC0E012130CD0F0D0E02009DC
:1012960004C4C0E0C4B209C0F0120F95D0F0D5F076
:1012A600EB020FE512074D10825311E95810534C0B
:1012B600104F4211ED4F11F54411F54910684311D5
:1012C600FB55112C46118A4510F64713C15010578D
:1012D6002D105B2E107E2B105F23107C2013AA2A64
:1012E60010174800001076E561B4FF037561061219
:1012F6000F71FC120F71FD120F71FE120F71FF7844
:10130600570203F4790AA2D5200B14300D09B9103F
:10131600020404B9080104A2D5200E0250010420DB
:101326000A68920AB560005034C0E07F20300B197D
:101336007F30A20A720E720D500F121363C20AC2D8
:101346000EC20DC2107F30800F300D03E9C0E012CF
:101356000FAC300D03D0E0F9D0E0B560CC300D17FE
:101366007F30B9100C120FAC7F58300C077F788095
:1013760003B90803120FAC300A057F2D020FAC7FAC
:10138600202010F87F2B200EF322920A80CF7F00B8
:10139600B4070050052457F8E6FF22286E756C6CDA
:1013A6002900D209120F713009F8C209786030D5C8
:1013B6000108F60210172D50434958120F712403E5
:1013C600B405004001E49013BC93120F9D743A12C9
:0A13D6000F9DD20B7560040211E9AF
:10037B00E9D2E7C933E833F892D5EDD2E7CD33ECC8
:07038B0033FC5002B2D52241
:10039200EC30E7100FBF000C0EBE00080DBD0004CC
:1003A2000BEB6014A2D5EB13FCED92E7FD2274FF78
:1003B200FCFDFEFF22E480F8A2D574FF13FC7D80D1
:0303C200E480EFE5
:1003C500F920E72824F950037907E4F42402FB18FF
:1003D500DBFDE624FB5014E9600DE4F618E604F6AF
:0F03E500B40A08E4F6D9F57401F60A22C2D5224B
:1003F400ED33EC3392D5FA602AB4FF33EDC2E77BD8
:10040400FF60067A047919E4227A04792220D5045B
:100414007A04791D224E614E002B494E46002D4927
:100424004E4600E47A08F608DAFC7B00740722E8FA
:10043400C0E0ECC0E0EDC0E0EEC0E0EFC0E0EA7583
:10044400F010A4CAABF075F04DA42BFBE435F0FC1E
:10045400EA2410FAEB34C5FBEC34D9FCEDC2E7FF17
:1004640075F056A4F42411C5F0F434C58FF0A42A11
:10047400E5F03BE43CF620E714120527D0E0FFD07A
:10048400E0FED0E0FDD0E0FC1202278014F4041258
:100494000527D0E0FFD0E0FED0E0FDD0E0FC120163
:1004A4001ED0E0F8E6FAEDD2E7CD33EC332482FB3C
:1004B400E4C3CF33CFCE33CECD33CD33DBF37B07A1
:1004C40075F00A846004F6081B0AE5F0F6088FF05C
:1004D400740AA4FFACF08EF0740AA42CFEACF050A5
:1004E400010C8DF0740AA42CFDE435F0F608DBDE73
:0304F40074072268
:1004F7003F8000004120000042C80000447A00000D
:10050700461C400047C35000497424004B1896808E
:100517004CBEBC205A0E1BCA6753C21C749DC5AE85
:10052700FB60065407601C2323120555EB54386003
:100537000912054112055012011EECF8EDF9EEFA09
:10054700EFCB22EB12055080F1543803241C9004A2
:10055700F7FE93FC0EEE93FD0EEE930ECE93FF2265
:030000000227A62E
:0C27A600787FE4F6D8FD7581B10227EDC4
:10056700BB010689828A83E0225002E722BBFE0292
:09057700E32289828A83E49322C5
:10058000BB010CE58229F582E5833AF583E0225030
:1005900006E92582F8E622BBFE06E92582F8E2227A
:0D05A000E58229F582E5833AF583E4932294
:1005AD00BB010689828A83F0225002F722BBFE012D
:0205BD00F32227
:1005BF00F8BB010DE58229F582E5833AF583E8F072
:1005CF00225006E92582C8F622BBFE05E92582C81E
:0205DF00F22206
:1005E100EF8DF0A4A8F0CF8CF0A428CE8DF0A42E2E
:0205F100FE22E8
:1005F300C2D5EC30E709B2D5E4C39DFDE49CFCEE23
:1006030030E715B2D5E4C39FFFE49EFE12079FC3F4
:10061300E49DFDE49CFC800312079F30D507C3E4EF
:060623009FFFE49EFE2291
:10062900BB010A89828A83E0F5F0A3E0225006879C
:10063900F009E71922BBFE07E3F5F009E31922895E
:0B064900828A83E493F5F07401932291
:10065400BB010789828A830207F4500B09C5F0277E
:10066400F7C5F01937F722BBFE0D09F8E325F0F3BF
:10067400C5F019E338F322F889828A83740193253B
:08068400F0C5F0F8E493382200
:0E068C00C3E49FFFE49EFEE49DFDE49CFC227F
:10069A00EB9FF5F0EA9E42F0E99D42F0E89C45F0B6
:0106AA00222D
:0C06AB00E6FC08E6FD08E6FE08E6FF227B
:0D06B700E6FB08E6F908E6FA08E6CBF822B3
:0C06C400ECF608EDF608EEF608EFF62262
:0C06D000ECF0A3EDF0A3EEF0A3EFF0229D
:1006DC00A8828583F0D083D0821206F31206F3121F
:1006EC0006F31206F3E473E493A3C583C5F0C58344
:1006FC00C8C582C8F0A3C583C5F0C583C8C582C868
:01070C0022CA
:10070D00FAE6FB0808E6F925F0F618E6CA3AF622ED
:10071D00BB010DE58229F582E5833AF583020813C5
:10072D005007E92582F802080ABBFE07E92582F881
:10073D0002081CE58229F582E5833AF58302082536
:10074D00D083D082F8E4937012740193700DA3A33B
:10075D0093F8740193F5828883E47374029368604F
:06076D00EFA3A3A380DF4F
:102EDE00EFB40A07740D122EE9740A309811A899EE
:102EEE00B8130CC2983098FDA899C298B811F63054
:072EFE0099FDC299F599222C
:102C67008B3F8A408941E4F547F548E5461546AE6E
:102C770045700215454E6033AB42AA43A94412057D
:102C870067FFAB3FAA40A9410548E548AC4770023A
:102C9700054714F5828C83EF1205BFEF60CD7401F1
:102CA7002544F544E43543F54380C0AB3FAA40A92A
:022CB7004122B8
:10077300EF4E6012EF60010EEDBB010B89828A839D
:10078300F0A3DFFCDEFA2289F05007F709DFFCA9AA
:0C079300F022BBFEFCF309DFFCA9F02201
:1027B200022FD7E493A3F8E493A34003F68001F237
:1027C20008DFF48029E493A3F85407240CC8C33328
:1027D200C4540F4420C8834004F456800146F6DFF7
:1027E200E4800B0102040810204080902F05E47E53
:1027F200019360BCA3FF543F30E509541FFEE493EC
:10280200A360010ECF54C025E060A840B8E493A3B2
:10281200FAE493A3F8E493A3C8C582C8CAC583CADD
:10282200F0A3C8C582C8CAC583CADFE9DEE780BE95
:012F270000A9
:10079F00BC000BBE0029EF8DF084FFADF022E4CC3E
:1007AF00F875F008EF2FFFEE33FEEC33FCEE9DEC07
:1007BF00984005FCEE9DFE0FD5F0E9E4CEFD22ED4D
:1007CF00F8F5F0EE8420D21CFEADF075F008EF2F97
:1007DF00FFED33FD4007985006D5F0F222C398FD88
:0507EF000FD5F0EA2225
:1007F400C5F0F8A3E028F0C5F0F8E5821582700290
:060804001583E038F0222C
:09080A00E6FB08E6FA08E6F92213
:09081300E0FBA3E0FAA3E0F922E6
:09081C00E2FB08E2FA08E2F9220D
:0C082500E493FB740193FA740293F9222F
:00000001FF
