:0D337300E4F58475E8C075BC8075D10722B3
:10304D00E4F584EF540FF5BBE5BC54F84DF5BCE445
:10305D00F5BAC2AFC2EDD2ECC2EDD2EC20ECFDD28E
:10306D00AFE5BF5403FEADBE7C00E42DFFEC3EFE8C
:01307D002230
:101A49003FF353F8400000003FB6872B3FB6872B82
:101A59003F8000003F8000003FB6872B3FB6872BB1
:101A6900000000000000000000000000000000006D
:101A7900000000000000000000000000000000005D
:101A8900636D6200043400000053657269616C4E35
:101A99000001006902340000004572726F72000093
:101AA9000001006D0134000000436F6E74726F6CA9
:101AB9000001006F013400000053746174757300F4
:101AC9000001007001340000004545506167650060
:101AD900000100710134000000537061726500005B
:101AE900000100720406000001704449344D6F6E14
:101AF900000100730418000001704456344D6F6EE4
:101B090000010077041800000170415633334D6F0E
:101B19006E01007B041800000170415632354D6F8B
:101B29006E01007F041800000170445631354D6F75
:101B39006E010083041800000170445631384D6F5E
:101B49006E010087041800000170445632354D6F4C
:101B59006E01008B041800000170445633334D6F39
:101B69006E01008F0408000001754354656D700013
:101B79000001009304080000014670676154656D17
:101B89007001009704080000015672673154656DB1
:101B99007001009B04080000015672673254656D9C
:101BA9007001009F0234000000724449344D6F6E89
:101BB900000100A30234000000724456344D6F6ED8
:101BC900000100A5023400000072415633334D6F05
:101BD9006E0100A7023400000072413235564D6F84
:101BE9006E0100A9023400000072445631354D6F70
:101BF9006E0100AB023400000072445631384D6F5B
:101C09006E0100AD023400000072445632354D6F4A
:101C19006E0100AF023400000072445633334D6F39
:101C29006E0100B1043400000965657056616C7578
:101C3900650100B304340000086565437472536597
:101C4900740100B70000000000000000000000005F
:041C59000000000087
:10278A0048012D0000020004000600606800C10034
:10279A00000000006E007B00000000404000004086
:1027AA00400000400000003F99999A3FC000004055
:1027BA0000000040400000408000004090000040BF
:1027CA006CCCCD402CCCCD3FD9999A40000000402A
:1027DA002CCCCD406CCCCD412000004248000041B9
:1027EA002000004248000000000000000000000035
:1027FA00000000000000000C6D245265763A203576
:10280A0034392024000179014400BC00000000444E
:0F281A00012900000000036AFF1A8D4100000031
:10301500EF6401702A75840F53A6F7C2A3F522F554
:1030250023900070E0F521D208C20EC20FC2AFE5B1
:1030350021F090006DE522F0A3E523F0D2AF22EF59
:08304500700575840FD2A3226F
:081FB4008F3E8B3F8A408941FA
:101FBC009001D61207B600000000E49001CEF0A309
:101FCC00F0AD42AF3E12304D9001D4EEF0A3EFF0E5
:101FDC00A3E0F8A3E0F9A3E0FAA3E0FB9001D4E0BE
:101FEC00FEA3E0FFE4FCFDEB2FFFEA3EFEED39FD26
:101FFC00EC38FCA31207AA122BF79001CFE004F0E7
:10200C0070069001CEE004F0C39001CFE0940A90EA
:10201C0001CEE0940040AAE47B0AFAF9F89001D6CC
:10202C00E0FCA3E0FDA3E0FEA3E0FF120639AB3F0A
:10203C00AA40A941EE8FF0120562AB3FAA40A9411C
:10204C001204B2FDACF0E41203369001D01207AAD0
:10205C00E4FBFA798078449001D0E0FCA3E0FDA386
:10206C00E0FEA3E0FF1202277BB87A1E791D7840B0
:10207C0012011E9001D01207AAE53E6408603EE5ED
:10208C003E25E025E02449F582E4341AF583120755
:10209C005E9001D0E0F8A3E0F9A3E0FAA3E0FB1214
:1020AC00011EE53E25E025E02469F582E4341AF5AD
:1020BC008312076E12002D9001D01207AA9001D046
:0B20CC00E0FCA3E0FDA3E0FEA3E0FFAA
:0120D70022E6
:021C5D008F42B4
:101C5F00E49001B6F0A3F0A3F0A3F0A3F09001B5C8
:101C6F00F09001B5E0FFC364809484501A74732F11
:101C7F00F9C3E7648094B05006E02473F87630908F
:101C8F0001B5E004F080DA7874E6FF3395E0FEEFFB
:101C9F0024D0FFEE34FFFE7C007D6412046AAA0696
:101CAF00AB077873E6FF3395E0FEEF24D0FFEE34F9
:101CBF00FFFE7C037DE812046AEF2BFBEE3AFA7805
:101CCF0075E6FF3395E0FEEF24D0FFEE34FFFE7C88
:101CDF00007D0A12046AEF2BFFEE3AFE7876E6FDDE
:101CEF003395E0FCED24D0FDEC34FFCD2FF50DED59
:101CFF003EF50C1233BC9001B9E4F0A3EFF0E542CE
:101D0F0060379000971207B60000000090009B12FA
:101D1F0007B60000000090009F1207B600000000F9
:101D2F00E490006DF0A3F09000691207B600000078
:101D3F00001233BC7508008F09E490006FF0A3F018
:101D4F0090006DF0A3F0900072F090006FE0F5241A
:101D5F00A3E0F521750A01750B9075840F43A4203C
:101D6F0075840F12337375840F43A5017584024375
:101D7F0088807589037F017E001233C975840FE453
:101D8F00F5A775B0FF9001B6E5B0F0E0FF3395E031
:101D9F00FEEFF4FFEEF4FEEF7803C333CE33CED86D
:101DAF00F9FFEE5401FEEF54F8FF9001B7EEF0A3E8
:101DBF00EFF0EE5401FEEF54FC4404FFA3EEF0A34A
:101DCF00EFF08E08F50975840F43A58043A50653E0
:101DDF00A5DF1233C17B017A0079C17548007549BF
:101DEF00047F007E06122CCA9000C1E0FCA3E0FD28
:101DFF00A3E0FEA3E0FF9000691207AA90012DE077
:101E0F00FEA3E0FF7B017A0079C175480075496830
:101E1F00122CCAC2AFD2AF75840F53A47FD209D28E
:101E2F008775840F53A6EF53A6FD43A601E4FF1257
:101E3F003015C20FC208C227C2AF90006FE524F061
:061E4F00A3E521F0D2AF73
:011E5500226A
:10325D00151FA81FEFF6900070E0F521A81FE6FFDF
:10326D00B4020690006FE0F524EFB41B02D2010505
:02327D001F220E
:0533B7008F387F0022A9
:10310C008B388A39893A1203F0AB3BAA3CA93D12A1
:10311C000436AB38AA39A93A900001120409AB3B2A
:0D312C00AA3CA93D9000011204487F022238
:10110F003020107F011230157F647E00123166D2BD
:10111F0000C22030271F900070E0F521D20FE4FFAE
:10112F00123015C208C227C2AF90006FE524F0A39A
:10113F00E521F0D2AF302123900070E0F521300986
:10114F0006C209C2878004D209D287C221C2AF90DA
:10115F00006FE524F0A3E521F0D2AF302214D2A026
:10116F007F017E00122D8EC2A07F0A7E00122D8E6F
:10117F00C2222001030212639000B7E0FCE4FFFEDD
:10118F00FDEC543CFC70030212539000B7E0FCA33B
:10119F00E0FDA3E0FEA3E0FFC3EF94027480948010
:1011AF0050030212439000B7A3A3A3E4FEFDFC7B00
:1011BF0004FAF9F81205AE7B0174C12FF974003EE1
:1011CF00FAEB3D9001C0F0A3EAF0A3E9F09000B76D
:1011DF00A3E0FDED5422FDED601E9000B3E0FCA3F3
:1011EF00E0FDA3E0FEA3E0FF9001C0E0FBA3E0FA67
:1011FF00A3E0F9120720805A9000B7A3E0FDE4FFA7
:10120F00FEED5411FDE4FCED601AC2AF9001C0E099
:10121F00FBA3E0FAA3E0F91207009000B31207AAAC
:10122F00D2AF802EC2AF9000B71207B6FF000000FA
:10123F00D2AF801EC2AF9000B71207B60000FF00FA
:10124F00D2AF800EC2AF9000B71207B600FF0000FA
:10125F00D2AFC201202403021304900000E0702DCE
:10126F00900070E0F521A3E0540725E0242DF582CE
:10127F00E43401F583E0FFA3E09001C3CFF0A3EFC7
:10128F00F0A37401F0A37400F0A374C1F03026072B
:10129F00E49001C8F080069001C87401F09001C37A
:1012AF00E0FEA3E0FF7543007544689001C8E0F5C8
:1012BF00457546017547007548007B017A0179C570
:1012CF001224049000BBEFF0BF011AD20CE490007F
:1012DF0000F0C224900071E0FF5407C43354E0FEC5
:1012EF00EF4EF08002C20CC2AF90006FE524F0A366
:1012FF00E521F0D2AF302547900070E0F521A3E053
:10130F00540725E0242DF582E43401F583E0FEA394
:10131F00E0FF7B017A0079C1754800754968122C8E
:10132F00CA9000C0EFF0BF0106C225D20D8002C2E5
:10133F000DC2AF90006FE524F0A3E521F0D2AF20EE
:10134F00002D12338D9000BCE0F8A3E0F9A3E0FA72
:10135F00A3E0FBC3EF9BFFEE9AFEED99FDEC98FC2B
:10136F00E47B02FAF9F8C31206EF4003021503906B
:10137F0001BD7401F0A37400F0A37473F09001C960
:10138F007401F0A37400F0A374A3F0E49000C0F014
:10139F009000C0E0FFC39408506D7B017A0179CCB7
:1013AF00E4F542121FB49001B51207AAC2AF900123
:1013BF00B5E0FCA3E0FDA3E0FEA3E0FF9001BDE0DC
:1013CF00FBA3E0FAA3E0F99000C0E075F004A4F5E8
:1013DF008285F08312073A9001CCE0FEA3E0FF90E4
:1013EF0001C9E0FBA3E0FAA3E0F99000C0E075F0BB
:1013FF0002A4F58285F083EE8FF0120581D2AF90B3
:10140F0000C0E004F080897B017A0179CCE4F542D9
:10141F007F08121FB49001B51207AA7FF07EA77D37
:10142F00467CBF9001B5E0F8A3E0F9A3E0FAA3E092
:10143F00FB12002DE4FBFA797A784412011E7B3DF2
:10144F007A0A793778401202279001B91207AAE475
:10145F00FFFE7D207C419001B9E0F8A3E0F9A3E005
:10146F00FAA3E0FB12011EE4FBFAF9783F12002DFC
:10147F0012036FCDEFCDCCEECCEC120336E4FBFABA
:10148F00792078411202279001B91207AAC2AF90B2
:10149F0001B9E0FCA3E0FDA3E0FEA3E0FF90009301
:1014AF001207AAD2AF900109E0FCA3E0FDA3E0FE72
:1014BF00A3E0FF9001B9E0F8A3E0F9A3E0FAA3E0FD
:1014CF00FB1202C4402390010DE0FCA3E0FDA3E05A
:1014DF00FEA3E0FF9001B9E0F8A3E0F9A3E0FAA3BF
:1014EF00E0FB1202C460044002D21012338D900050
:1014FF00BC1207AA122BF720002D12338D90012951
:10150F00E0F8A3E0F9A3E0FAA3E0FBC3EF9BFFEE43
:10151F009AFEED99FDEC98FCE47B01FAF9F8C31201
:10152F0006EF40030216F2754102E4F542F543F56A
:10153F00447545017546017547017548B97B01FD35
:10154F007F48121E56EF705E900111E0FCA3E0FD84
:10155F00A3E0FEA3E0FF9001B9E0F8A3E0F9A3E058
:10156F00FAA3E0FB1202C44023900115E0FCA3E0B4
:10157F00FDA3E0FEA3E0FF9001B9E0F8A3E0F9A31B
:10158F00E0FAA3E0FB1202C460044002D212C2AF21
:10159F009001B9E0FCA3E0FDA3E0FEA3E0FF900003
:1015AF009B1207AA8004C2AFD21290006DE522F001
:1015BF00A3E523F0D2AF754102E4F542F543F544BC
:1015CF007545017546017547017548B97B017D0168
:1015DF007F48121E56EF705E900111E0FCA3E0FDF4
:1015EF00A3E0FEA3E0FF9001B9E0F8A3E0F9A3E0C8
:1015FF00FAA3E0FB1202C44023900115E0FCA3E024
:10160F00FDA3E0FEA3E0FF9001B9E0F8A3E0F9A38A
:10161F00E0FAA3E0FB1202C460044002D213C2AF8F
:10162F009001B9E0FCA3E0FDA3E0FEA3E0FF900072
:10163F009F1207AA8004C2AFD21390006DE522F06B
:10164F00A3E523F0D2AF754102E4F542F543F5442B
:10165F007545017546017547017548B97B017D02D6
:10166F007F48121E56EF7062900109E0FCA3E0FD67
:10167F00A3E0FEA3E0FF9001B9E0F8A3E0F9A3E037
:10168F00FAA3E0FB1202C4402790010DE0FCA3E097
:10169F00FDA3E0FEA3E0FF9001B9E0F8A3E0F9A3FA
:1016AF00E0FAA3E0FB1202C460025004C2118002F0
:1016BF00D211C2AF9001B9E0FCA3E0FDA3E0FEA3FD
:1016CF00E0FF9000971207AA8004C2AFD2119000DA
:1016DF006DE522F0A3E523F0D2AF12338D900129EF
:1016EF001207AA300811E522540F600BE4FF1230E5
:1016FF0015C208D20E800B300008C200C20FC20EF6
:10170F00D208A2A1920B20A403D38001C39217C2C7
:10171F00AF90006FE524F090006DE522F0A3E52374
:09172F00F0900070E521F0D2AF4A
:01173800228E
:0C339A00245265763A203534322024009D
:10173900E47880F612335775840F75E104E4F5E215
:1017490075E34475E104F5E275E340F58475B7B0D6
:1017590075840F758A83F597438901758D01758F96
:1017690001758E04F540F5410541E54170020540DA
:10177900640F454070F2438902E4F540F541AE40FB
:10178900AF41E4FCFD7B507AC3F9F8D31206D94086
:101799000FE58920E40A0541E54170E2054080DE54
:1017A90075970212329FE4F540F5417D01AF411270
:1017B90032360541E54170020540C39401E5409484
:1017C9000040E8E4F525C232C230C236C235C2341F
:1017D9007880F6C28508F67890F618F67895F6F5C9
:1017E90040F54174352541F582E43401F583E4F08F
:1017F9000541E541700205406440454070E5E4F566
:1018090040F54174752541F582E43401F583E4F02E
:101819000541E541700205406440454070E5E4F545
:1018290084E5EF20E10CE5EF5408D394004003D39D
:101839008001C3922B7D08E4FF1231BBE47894F652
:10184900788DF6AB6AAA6BA96C788DE6FF75F010F6
:10185900A4F58285F083120409FE789426F6EE60D9
:1018690005788D0680DDEFD394004030AB6AAA6B12
:10187900A96C90000D1208071203F0FF74551204A9
:10188900361203F064556002D23474AA1204361277
:1018990003F064AA6002D234EF120436E4F584E559
:1018A900EF5402D3940040047F018002E4FF122622
:1018B9000C8F3FE53F20E035C23174FFF508F5098B
:1018C900F50AF50B7E007F107D007B007A00790E0A
:1018D90012085D7545FF75461A7547897548007583
:1018E90049107B007A00790E122DE48002D23190E2
:1018F90033A1E493FF3395E0FEEF24D0FFEE34FFEC
:10190900FE7C007D6412046AAA06AB079033A0E44A
:1019190093FF3395E0FEEF24D0FFEE34FFFE7C0306
:101929007DE812046AEF2BFBEE3AFA9033A2E493B6
:10193900FF3395E0FEEF24D0FFEE34FFFE7C007DFF
:101949000A12046AEF2BFFEE3AFEA3E493FD3395E6
:10195900E0FCED24D0FDEC34FFCD2FF50DED3EF587
:101969000CE53F30E103021A20E4F540F541E54179
:10197900C4F8540FC868FFE540C454F048FEAB6A88
:10198900AA6BA96C8F82F5831204097003021A17D6
:10199900E92FF9EA3EFA90000412040920E264E40E
:1019A900F53EE53EC37879965059E541C4F8540FA0
:1019B900C868FFE540C454F048AB6AAA6BA96C8FAC
:1019C90082F583120409FF7E00C006C0077D00E589
:1019D90041C4F8540FC868FFE540C454F048FEE913
:1019E9002FF9EA3EFA90000D1208077894E6853E31
:1019F900F0A429F9EA35F0FAD007D00612085D05F6
:101A09003E809F0541E541700205400219777F013B
:101A1900121C5DC2338007E4FF121C5DD233E4F56A
:101A290040F5417A007B967D03AF41122B7E05413B
:0F1A3900E54170020540C39401E540940040E48C
:011A4800227B
:0533BC007895E6FF22F8
:030023000220D8E0
:1020D800C0E0C0F0C083C082C0D075D000C000C0CE
:1020E80001C002C003C004C005C006C00730993E45
:1020F800C2997890067990E77881667015F678909D
:01210800F6E0
:0D21090075270A75281300D528FCD527F688
:04211600C285801CE2
:0D211A0075271475281300D528FCD527F66D
:102127007890E62475F582E43401F583E0F599208B
:1021370098030221D0209A08203205C2980221CCA8
:10214700C29A788FE6062435F582E43401F583E5F3
:1021570099F0C298E6FFB40112900135E0FE7003D2
:10216700F68066EE540724027896F6EFB4020D78EF
:1021770096E6B40907900136E02403F6788FE6FF68
:10218700B4400476008042EFC3789696403B788F40
:10219700E624FFFDE434FFFC7B017A01793512293F
:1021A7006D788FE62434F582E43401F583E06F60BF
:0521B700047600801415
:0D21BC0075271475281300D528FCD527F6CB
:1021C900120971788F7600D007D006D005D004D0D7
:1021D90003D002D001D000D0D0D082D083D0F0D0AB
:0221E900E032E2
:102B0300900136E075F010A4AB6A256CF9E56B35DE
:102B1300F0FA90000D1208077895E6FF18E68FF09B
:102B2300A4252BF582E435F0F583120409FF7B001D
:042B33007A00792982
:102B37008F388B398A3A893BE4F584EA494B601C24
:102B4700AB39AA3AA93B1203F0FFE538FD7C001226
:0C2B57000003AB39AA3AA93BEF12043688
:0D2B6300753C14753D1300D53DFCD53CF6C6
:0E2B70008538997F011231E43099FDC2992217
:0932FB00E4F5847881EFF6D28538
:0D33040075381475391300D539FCD538F62D
:07331100900175E0F599221F
:102ED000C9EFC9E964017028EDC39B40347879E6F5
:102EE000FFEB2FFFE433FEEDC39FEE6480F87480A8
:102EF00098501ED232C3ED9B7895F67891760122D8
:102F0000B90214ED6B700AD2327895F67891760298
:082F100022C232E47891F6229E
:102D2D00C9EFC9BAFF15BBFF12ED6B7002EC6A70EB
:102D3D0049D2327895F67891E9F622E96401702549
:102D4D00C3ED9BEC9A401C7879E62BFFE43AFEC369
:102D5D00ED9FEC9E500DD232C3ED9B7895F6789198
:102D6D007601228015B90218ED6B7002EC6A700ABB
:102D7D00D2327895F67891760222C232E47891F6C5
:012D8D002223
:10097100900135E0FF54F8F52AE4F584EF120837C9
:1009810009BE0909CA0A09DA1009E31109F3120AB1
:1009910007190A1C1A0A3E200A47280AE6290BE809
:1009A100330C1A370C49390C63410C6E490C7850E1
:1009B1000CC0610BB2700CB89800000CF0900136BD
:1009C100E0FDE509FB7F018023900136E0FCA3E017
:1009D100FDAB09AA087F018027D232789176030204
:1009E1000CF0900136E0FDE50BFB7F02122ED002E8
:1009F1000CF0900136E0FCA3E0FDAB0BAA0A7F02EC
:100A0100122D2D020CF0900136E0FDE509FB7F016E
:100A1100122ED0203203020CF08017900136E0FC38
:100A2100A3E0FDAB09AA087F01122D2D203203029C
:100A31000CF09001757478F07F01020CEDE4F584FF
:100A410075EF10020CF0C2ACE4F529D285FB7A00F7
:100A510079297F7F122B377B007A0079297F181241
:100A61002B377B007A0079297F05122B37788DE6A9
:100A7100122B307B007A007929AF08122B377B00CB
:100A81007A007929AF09122B377B007A007929AFD7
:100A91000A122B377B007A007929AF0B122B377B97
:100AA100007A007929AF0C122B377B007A00792963
:100AB100AF0D122B37E4F52B740E252BF8E6122B14
:100AC10030052BE52BC3941040EE7B007A007900B2
:050AD100AF29122B37D4
:0D0AD60075360A75371300D537FCD536F696
:100AE300020B9D900136E0FFC3788D964003020B05
:100AF300A4EF75F010A4256CF9E56B35F0856A3326
:100B0300F5348935C2ACE4F529D285FB7A0079291D
:100B13007F7F122B377B007A0079297F0D122B37C9
:100B2300AB33AA34A9351203F0122B30AB33AA34FA
:100B3300A935900001122B2DAB33AA34A9359000AF
:100B430002122B2DAB33AA34A935900003122B2D9F
:100B5300AB33AA34A935900004122B2DE4F52BAB4B
:100B630033E5352405F9E43534FA7E00E9252BF91C
:100B7300EE3AFA1203F0122B30052BE52BC394083F
:0D0B830040DD7B007A007900AF29122B378E
:0D0B900075360A75371300D537FCD536F6DB
:100B9D00C285D2AC020CF09001757478F0E4A3F02C
:100BAD007F02020CED12338D788212079E90017533
:100BBD00747CF07882E6A3F008E6A3F008E6A3F0D3
:100BCD0008E6A3F07C007D057B017A017975122979
:100BDD006D90017AEFF07F06020CED900136E0FF8B
:100BED00B4010BA3E0F508A3E0F509020CB8EFB4CE
:100BFD000209900137E0F508020CB8900136E0B417
:100C0D000308A3E0F50AA3E0F50B020CB8E4F52BFD
:100C1D00900136E0FFE52BC39F501C7437252BF553
:100C2D0082E43401F583E0FF740E252BF8C6EFC680
:100C3D00052BE52BB410D9E4F51D806F7A007B32BE
:100C4D007D017895E6FF122B7E900136E0FDE4FFE5
:100C5D001231BB020CF0900136E024FF922A020CF7
:100C6D00F0900136E024FF922980787895E66005B2
:100C7D00752D02800B203505752D038003752D0113
:100C8D009001757479F0A3E52DF07C007D027B0158
:100C9D007A01797512296D900177EFF07F03123289
:100CAD00FBE52D6401703CD2368002D2307880761F
:100CBD00F180307A007B327D017F00122B7E900116
:100CCD00757479F0900136E0900176F07C007D022C
:100CDD007B017A01797512296D900177EFF07F0311
:100CED001232FBE52A64A06003020EFF900135E08D
:100CFD0064A16003020DEFA3E0C3788D964003025B
:100D0D000DE4AB6AAA6BA96CE0FF75F010A4F58237
:100D1D0085F083120409F52DEF75F010A429F9EA79
:100D2D0035F0FA90000412040930E237900136E0F4
:100D3D001233B78F2D900175747FF0A3E52DF0243C
:100D4D0002FDE433FC7B017A01797512296D74770C
:100D5D00252DF582E43401F583EFF0E52D2403FF15
:100D6D00020EFC900136E0FF1233B7C2ACE4F52958
:100D7D00D285E52DD39406402B7B007A0079297F0F
:100D8D007F122B377B007A007929AF2D122B37E498
:100D9D00F52BE52BC3952D5007122B03052B80F258
:100DAD00052D8018E52D2478122B30E4F52BE52B3D
:100DBD00C3952D5007122B03052B80F27B007A0073
:070DCD007900AF29122B375A
:0D0DD40075360A75371300D537FCD536F695
:100DE100020EEE9001757478F07F01020EFC900105
:100DF10035E064A26003020EFF788DE6FFA3E0FEFA
:100E0100C39F4003020EF4A3E0FDC39F4003020E03
:100E1100F4EE9D4003020EF4900136E0F52BE4F56B
:100E210031F532900137E0FFE52BD39F5026AF2BF0
:100E31001233B7AB6AAA6BA96C75F010E52BA4F558
:100E41008285F0831204092532F532E43531F5311A
:100E5100052B80CFC2ACE4F529D285FB7A00792934
:100E61007F7F122B37C3E5329480E5319400500225
:100E71008007E5314480122B30AF32122B319001C3
:100E810036E0F52B900137E0FFE52BD39F5046E488
:100E9100F52CAB6AAA6BA96C75F010E52BA4F58251
:100EA10085F083120409FFE52CC39F5024E52B75BF
:100EB100F010A429F9EA35F0FA90000D120807782C
:100EC10095E6FF18E68FF0A4252C122B26052C8021
:100ED100C1052B80AF7B007A007900AF29122B3737
:0D0EE10075360A75371300D537FCD536F687
:100EEE00C285D2AC800B9001757478F07F011232FE
:100EFE00FBE52A6458704DFA7B327D017895E6FF4A
:100F0E00122B7E753B01753C01753D767B017A0196
:100F1E00793612310C8F2DE52D2478900175F0EF76
:100F2E002401FDE433FC7B017A01797512296D747D
:100F3E0076252DF582E43401F583EFF0E52D2402BC
:100F4E00FF1232FBE52A64806009E52A648860039B
:100F5E0002110E7891E6B4010F7A007B327D017892
:100F6E0095E6FF122B7E801AE4F52BE52BC37879DC
:100F7E0096500F7A007B327D01AF2B122B7E052B04
:100F8E0080E9900135E05407F52DB4070A752C0160
:100F9E00A3E0F52DA38006E4F52C900136E0F52EA6
:100FAE00152DE52EC3788D9640030210E2AB6AAA8A
:100FBE006BA96C75F010E52EA4F58285F0831204F2
:100FCE0009FFE52DD39F40028F2D7891E6B40109DC
:100FDE007895E6F530F52F8009E4F52F7879E6144B
:100FEE00F5307895A62F7895E6D39530400302100C
:100FFE00D6E4F52BE52BC3952D40030210CBE52E41
:10100E0075F010A4AB6A256CF9E56B35F0FA90001B
:10101E000412040930E2030210C690000112040902
:10102E0064387041E52DD394044011E52C252B2412
:10103E0037F582E43401F583E0FD805E788FE6C3F8
:10104E00952BFFE49400FE74332FF58274013EF568
:10105E0083E0FDE52E75F010A4AB6A256CF9E56B07
:10106E0035F0FA8035AB6AAA6BA96C75F010E52ED7
:10107E00A4F58285F083120409FFC3788FE69F25BD
:10108E002B252C2434F582E43401F583E0FDE52E86
:10109E0075F010A429F9EA35F0FA90000D12080740
:1010AE007895E6FF18E68FF0A4FFE52B2FF582E486
:1010BE0035F0F583ED120448052B021002AF2E1207
:1010CE00325D789506020FF47895A62FE52A64888E
:1010DE00702E8010E52EB4FF27900137E0F525E540
:1010EE002AB4881C9001757478F0788FE62434F554
:1010FE0082E43401F583E0900176F07F021232FB38
:01110E0022BE
:10D000007880E664F1600302D60CE4F548F54978CF
:04D0100081E6601F36
:0DD01400754E0A754F1300D54FFCD54EF632
:10D021000549E5497002054864107004E548642724
:10D0310070DCC2AF7584015398FC75FFDE75FFADDE
:10D04100E4F544F543E4F58420982EE4F548F549E8
:0ED05100209822C3E5499488E54894135017AF
:0DD05F00754E0A754F1300D54FFCD54EF6E7
:10D06C000549E54970DF054880DBB2A780CF85997B
:10D07C0043C298E543641A600302D14CF548F54964
:0ED08C00209822C3E5499488E5489413501774
:0DD09A00754E0A754F1300D54FFCD54EF6AC
:10D0A7000549E54970DF054880DB3098928599444A
:10D0B700C298E4F548F549209822C3E5499488E5E4
:05D0C70048941350170E
:0DD0CC00754E0A754F1300D54FFCD54EF67A
:10D0D9000549E54970DF054880DB20980302D04601
:10D0E900859944C298E4F548F549209822C3E54951
:08D0F9009488E54894135017D8
:0DD10100754E0A754F1300D54FFCD54EF644
:10D10E000549E54970DF054880DB20980302D046CB
:09D11E00859944C298D285C2999A
:0DD12700754E14754F1300D54FFCD54EF614
:06D134007599783099FDA9
:0DD13A00754E0A754F1300D54FFCD54EF60B
:10D14700C28502D5FEE5436450600302D1DCF54891
:10D15700F549209822C3E5499488E5489413501768
:0DD16700754E0A754F1300D54FFCD54EF6DE
:10D174000549E54970DF054880DB20980302D04665
:09D18400859944C298D285C29934
:0DD18D00754E14754F1300D54FFCD54EF6AE
:08D19A007599793099FDC299E5
:0DD1A200754E14754F1300D54FFCD54EF699
:08D1AF007599013099FDC29948
:0DD1B700754E14754F1300D54FFCD54EF684
:06D1C400E4F5993099FD2D
:0DD1CA00754E0A754F1300D54FFCD54EF67B
:0FD1D700C28502D5FEE5436401703ED285C29940
:0DD1E600754E14754F1300D54FFCD54EF655
:08D1F3007599783099FDC2998D
:0DD1FB00754E14754F1300D54FFCD54EF640
:06D20800E4F5993099FDE8
:0DD20E00754E0A754F1300D54FFCD54EF636
:10D21B00C28502D5FEE5436402600302D2E2F54803
:10D22B00F549209822C3E5499488E5489413501793
:0DD23B00754E0A754F1300D54FFCD54EF609
:10D248000549E54970DF054880DB20980302D04690
:10D25800859944C298E4F545E54413B392A7E5449B
:10D2680025E0FEC3E49400EE94D0502AE5447F0004
:10D2780025E0FEC394E0501EE54420E01FE4F58459
:10D2880043B701758F038E4A8F4B8F828E83F0537D
:10D29800B7F0F58F80037545FFE4F584D285C29910
:0DD2A800754E14754F1300D54FFCD54EF692
:08D2B5007599783099FDC299CA
:0DD2BD00754E14754F1300D54FFCD54EF67D
:06D2CA008545993099FD35
:0DD2D000754E0A754F1300D54FFCD54EF674
:10D2DD00C28502D5FEE5436403600302D42DF548F3
:10D2ED00F549209822C3E5499488E54894135017D1
:0DD2FD00754E0A754F1300D54FFCD54EF647
:10D30A000549E54970DF054880DB20980302D046CD
:10D31A00859944C298E4F548F549209822C3E5491D
:08D32A009488E54894135017A4
:0DD33200754E0A754F1300D54FFCD54EF611
:10D33F000549E54970DF054880DB20980302D04698
:10D34F00859946C298E5441392A7E54425E0FEC3AC
:10D35F00E49400EE94D0400302D046E5447D0025CE
:10D36F00E0FCC394E0400302D046E4F58443B701E8
:10D37F00758F01E54675F020A42DFFE5F03CF54AC9
:10D38F008F4BE4F584F547E547C394205048E4F507
:10D39F0048F549209822C3E5499488E548941350ED
:01D3AF001766
:0DD3B000754E0A754F1300D54FFCD54EF693
:10D3BD000549E54970DF054880DB20980302D0461A
:10D3CD00054BE54BAE4A7002054A14F5828E83E596
:10D3DD0099F0C298054780B1E4F58453B7F0F58F05
:06D3ED00F584D285C2990F
:0DD3F300754E14754F1300D54FFCD54EF646
:08D400007599783099FDC2997D
:0DD40800754E14754F1300D54FFCD54EF630
:06D41500E4F5993099FDD9
:0DD41B00754E0A754F1300D54FFCD54EF627
:10D42800C28502D5FEE5436404600302D4DDF548F5
:10D43800F549209822C3E5499488E5489413501784
:0DD44800754E0A754F1300D54FFCD54EF6FA
:10D455000549E54970DF054880DB20980302D04681
:10D46500859944C298E54425E0F54C754D00E4F5F1
:10D4750045F548F549054DE54DAE4C7002054C1492
:10D48500F5828E83E4932545F5450549E549700206
:0ED4950005487004E548640270DBD285C29938
:0DD4A300754E14754F1300D54FFCD54EF695
:08D4B0007599783099FDC299CD
:0DD4B800754E14754F1300D54FFCD54EF680
:06D4C5008545993099FD38
:0DD4CB00754E0A754F1300D54FFCD54EF677
:10D4D800C28502D5FEE5436405600302D5F3F5482D
:10D4E800F549209822C3E5499488E54894135017D4
:0DD4F800754E0A754F1300D54FFCD54EF64A
:10D505000549E54970DF054880DB20980302D046D0
:10D51500859944C298E4F548F549209822C3E54920
:08D525009488E54894135017A7
:0DD52D00754E0A754F1300D54FFCD54EF614
:10D53A000549E54970DF054880DB20980302D0469B
:09D54A00859946C298D285C29968
:0DD55300754E14754F1300D54FFCD54EF6E4
:08D5600075997F3099FDC29915
:0DD56800754E14754F1300D54FFCD54EF6CF
:10D575007599203099FDE54425E0FCE54675F020D8
:10D58500A42400FFE5F03CF54C8F4DE4F545F54747
:02D59500C29939
:0DD59700754E14754F1300D54FFCD54EF6A0
:10D5A400854D82854C83E493F5993099FD054DE5CD
:10D5B4004DAE4C7002054C14F5828E83E4932545E0
:0BD5C400F5450547E547B420C8C299B3
:0DD5CF00754E14754F1300D54FFCD54EF668
:06D5DC008545993099FD20
:0DD5E200754E0A754F1300D54FFCD54EF65F
:10D5EF00C285800BE543B40606E4F58475EF10E5BC
:0DD5FF00436407600302D0467880F6D2AF87
:01D60C0022FB
:102BF7007F001231E420310B7A007B327D017F00A8
:102C0700122B7E30340B7A007B1E7D017F00122B46
:102C17007E3030173035147A007B327D017895E6A7
:102C2700FF122B7EC23012282DD23120330C3035C3
:102C370009788076F112282DD233303608303505E1
:102C4700C23612D000203512123380E47B2C7A0171
:0B2C5700F9F8C31206EF5002D235223C
:0B33A600121739122BF712110F80F8DC
:1022FA00005EBCE2613FDD83C29C7E20A3FD1F41DC
:10230A009DC3217FFCA2401E5F01E3BD3E6082DCCB
:10231A00237D9FC1421CFEA0E1BF5D0380DE3C62BB
:10232A00BEE0025CDF81633D7C22C09E1D43A1FFAB
:10233A004618FAA427799BC584DA3866E5BB59079B
:10234A00DB856739BAE406581947A5FB7826C49A8B
:10235A00653BD987045AB8E6A7F91B45C6987A247B
:10236A00F8A6441A99C7257B3A6486D85B05E7B96B
:10237A008CD2306EEDB3510F4E10F2AC2F7193CD5B
:10238A00114FADF3702ECC92D38D6F31B2EC0E504B
:10239A00AFF1134DCE90722C6D33D18F0C52B0EE3B
:1023AA00326C8ED0530DEFB1F0AE4C1291CF2D732B
:1023BA00CA947628ABF517490856B4EA6937D58B1B
:1023CA005709EBB536688AD495CB2977F4AA48160B
:1023DA00E9B7550B88D6346A2B7597C94A14F6A8FB
:1023EA00742AC896154BA9F7B6E80A54D7896B35EB
:0A23FA00000000002B6096CBDDEE22
:03282900015F0A42
:10296D00151F151FA81FECF608EDF6151F151F15E1
:10297D001FA81FC6EBC608C6EAC608C6E9C6E51FEE
:04298D0024FCF51F12
:10299100F80808E4F6A81FF608F6E51F2407F9A8C9
:1029A1001FE6FE08E6FFC3099719E76480F8EE64A5
:1029B10080985037E51F2404F8CBE6CB08E6FA08E7
:1029C100E6F98F828E83120409A81F080866FFE5C5
:1029D1001F2403F8EFF6E69022FA93A81F0808F6E1
:1029E100A81F0806E61870B20680AFA81F0808E6FF
:0129F100FFE6
:0729F200E51F2409F51F2277
:07000300ED6F9022FA93FF5C
:01000A0022D3
:1031BB00EF7023F5847598D0F584759115F58475AA
:1031CB00C90875CBFFED9023F993F5CA75C804E4D4
:0831DB00F584D2ACC2BCD2AFF6
:0131E30022C9
:102F1800E4F565F564F563F562F569F568F567F557
:102F280066755E64FFEF25E025E0247AF8E4F6EFA5
:102F380025E025E0247BF8E4F6EF25E025E0247C75
:102F4800F8E4F6EF25E025E0247DF8E4F60FBF016C
:012F5800D4A4
:012F59002255
:10329F00D2AFD2A9C2BBE4F584E589540F4401F53E
:0F32AF0089758E02758CAFE4F58AD28C022F18C8
:0228D000151FD2
:1028D200A81FE4F6A81FE6FFC39401400302296A79
:1028E200EF25E025E0247DF8E6FFD394004052A8CE
:1028F2001FE625E025E0247BF8E67045EF30E01581
:10290200A81FE6FF25E025E0247DF8E6D3940140E8
:10291200047D0080067D01A81FE6FF122F5AA81F22
:10292200E6FF25E025E0247DF816E66014EF25E0B9
:1029320025E0247CF8E6FEEF25E025E0247BF8EE96
:10294200F6A81FE625E025E0247BF8E6600116A83C
:102952001FE6FF25E025E0247DF8E670057D0112E3
:082962002F5AA81F060228D617
:03296A00051F2224
:03000B00022A8541
:102A8500C0E0C0F0C083C082C0D0E8C0E0E9C0E0CB
:102A9500EAC0E0EBC0E0ECC0E0EDC0E0EEC0E0EF86
:102AA500C0E0758CAFE5652401F565E43564F56432
:102AB500E43563F563E43562F562D55E18E56924AE
:102AC50001F569E43568F568E43567F567E4356669
:102AD500F566755E641228D012327FD0E0FFD0E033
:102AE500FED0E0FDD0E0FCD0E0FBD0E0FAD0E0F98C
:0E2AF500D0E0F8D0D0D082D083D0F0D0E03244
:10323600151FA81FEDF6151FA81FEFF6A81FE6FF1E
:10324600C39401500D08E6FEEF25E025E0247AF848
:07325600EEF6051F051F2223
:102B7E00151F151FA81FEAF608EBF6151FA81FED67
:102B8E00F6151FA81FEFF6A81FE6FFC394015052BB
:102B9E00EF25E025E0247DF8E67047A81FE6FB252B
:102BAE00E025E0247BF8E67039A81F08E625E0044E
:102BBE00FFA81FE6FA25E025E0247DF8EFF6A81F12
:102BCE000808E6FE08E6FF7C007D0A12047CEA2572
:102BDE00E025E0247CF8EFF6EB25E025E0247BF8F9
:092BEE00E4F6E51F2404F51F22A2
:102F5A00151FA81FEDF6151FA81FEFF6A81FE6FFFD
:102F6A00C39401501CEF25E025E0247AF8E66011AD
:102F7A00A81F08E670047F0180027F00A81F08EFDF
:102F8A00F6A81FE6700608E624FF92A7051F051F8C
:012F9A002214
:0C338000C2AFAF65AE64AD63AC62D2AF0B
:01338C00221E
:0C338D00C2AFAF69AE68AD67AC66D2AFEE
:013399002211
:1031E400151FA81FEFF6A81FE67004F560F56130FF
:1031F4003714E55F75F064A4FFC3E5619FE560954E
:09320400F0500375FFA5051F221F
:1032DD00D237E4F560F561EF6004F55F8003755F4B
:0E32ED000A75FF0775FFA5E4F58475EF04224E
:0E335700C237E4F560F56175FFDE75FFAD224B
:10327F000561E56170020560303714E55F75F06434
:10328F00A4FFC3E5619FE56095F0500375FFA5228C
:043166008E438F44C1
:10316A00E4F545F546C3E5469544E54595435016CD
:10317A007FE87E03122D8E7F011231E40546E54673
:06318A0070E3054580DF43
:01319000221C
:042D8E008E5A8F5B6F
:102D9200D3E55B94FAE55A9400500EEFD3940040C9
:102DA200407E1600DEFD1F80F2855A5C855B5DD396
:102DB200E55D94FAE55C940040157FFA7E00122DE1
:102DC2008E7406255DF55D74FF355CF55C80E0D39D
:102DD200E55B9400E55A94004007AF5DAE5C122DAE
:012DE2008E62
:012DE30022CD
:102C6200754D00754E00754F477B007A0079457DA2
:012C7200025F
:082C73008B498A4A894B8D4C04
:102C7B007F011231E4AB4DAA4EA94F1204B22400CE
:102C8B00FFE5F034E0FE854950854A51854B52E40F
:102C9B00FDEDC3954C501BEF2DF582E43EF583E41F
:102CAB0093AB50AA51A9528D827583001204480D23
:0F2CBB0080DFAB4DAA4EA94FE4854CF00204DD3B
:1026D500754512754634754D00754E00754F477B2F
:0726E500007A0079457D0237
:0826EC008B498A4A894B8D4C91
:1026F4007880E664F16003022789123357C2AFE49D
:10270400F58443B701758F01AB4DAA4EA94F12044E
:10271400B22400FFE5F034E07886F608EFF6AA4A22
:10272400A94B788AA64908C6EAC608C6E9C6E47869
:1027340088F67888E6C3954C5032788ACBE6CB0885
:102744000806E618CAE6CA70010614F91203F078FE
:1027540089F6E6FF78860806E618CCE6CC70010612
:1027640014F5828C83EFF078880680C6E4F58F53E5
:10277400B7F0AB4DAA4EA94F854CF01204DDD2AF91
:05278400E4FF1232DD4C
:01278900222D
:102E36007880E664F17046C2AF123357E4F58443F6
:102E4600B701758F03788776E008F67886F6788777
:102E5600E6FE08E6F5828E83E4F07F011231E4781F
:102E660088E426F618740236F61806E6C394084077
:0D2E7600DDE4F58F53B7F0D2AFFF1232DD6F
:012E8300222C
:10282D00122E36E4F547F548F54D754E00754F47B8
:10283D00FB7A0079087D161226EC1226D5E4F544B4
:10284D00E544C37879965073E4F543AB6AAA6BA956
:10285D006C75F010E543A4F58285F08312040960D0
:10286D0056E54375F010A429F9EA35F0FA90000DFC
:10287D001208077894E68544F0A429F9EA35F0FAB0
:10288D00EBC0E0EAC0E0E9C0E0AB6AAA6BA96C75E9
:10289D00F010E543A4F58285F083120409FD754D12
:1028AD0000754E00754F47D0E0F9D0E0FAD0E0FB4F
:1028BD001226EC05438094054480851226D5E478D4
:0228CD0080F693
:0128CF0022E6
:03260C00CCEFCC44
:10260F00E4F547F548F544F54D754E00754F47FB1A
:10261F007A0079087D16122C73122C62E546643409
:10262F007004E54564127003434401EC7003022605
:10263F00CFE4F543E543C37879965073E4F542ABA5
:10264F006AAA6BA96C75F010E542A4F58285F08338
:10265F001204096056E54275F010A429F9EA35F025
:10266F00FA90000D1208077894E68543F0A429F933
:10267F00EA35F0FAEBC0E0EAC0E0E9C0E0AB6AAAE5
:10268F006BA96C75F010E542A4F58285F0831204F6
:10269F0009FD754D00754E00754F47D0E0F9D0E03C
:1026AF00FAD0E0FB122C730542809405438085120B
:1026BF002C62E54664347004E545641270058000B1
:0526CF00434402AF448A
:0126D40022E3
:0533C100D2970233B1B8
:0A2CCA008E438F448B458A468947EC
:102CD400E4F54AF54BD295123191BF03037F0322E9
:102CE400C2977F0312320DAF44AE431230DEC3E508
:102CF4004B9549E54A95485022122F9BAB45AA466D
:102D0400A947EF12043674012547F547E43546F523
:102D140046054BE54B70D7054A80D37F197E0012D8
:082D24002D8ED297C2957F01AC
:012D2C002284
:0A2404008E3E8F3F8B408A418942D3
:10240E00754F00755020E53F2544E53E3543C39496
:10241E000640037F0222D295E544AE437805CEC333
:10242E0013CE13D8F9F54E8E4DAB46AA47A94812D6
:10243E0003F0754900F54AD3E54A954EE549954DA9
:10244E004003022507123365BF0302802FE54AAE13
:10245E00497805C333CE33CED8F9253FF53FEE3557
:10246E003EF53EE54AB54E0EE549B54D09754F00B0
:10247E00E544541FF550123191BF030EAB46AA47E7
:10248E00A948E54A1204367F0322C2977F02123210
:10249E000DAF3FAE3E1230DEE4F54BF54CC3E54CCE
:1024AE009550E54B954F5036E545B40122AB40AA09
:1024BE0041A9421207E71203F0FF12320DAB40AAF8
:1024CE0041A942900001E475F0011205158005E462
:1024DE00FF12320D054CE54C70C3054B80BF7F19C2
:1024EE007E00122D8ED2977F197E00122D8E054AF8
:0D24FE00E54A70020549022445C2957F01A0
:01250B0022AD
:10319100C2977F197E00122D8E7F0612320D7F1984
:1031A1007E00122D8ED2977F197E00122D8E123342
:0A31B10065BF03037F03227F0122A4
:103139008F1E123191C2977F0112320DAF1E1232CA
:103149000D7F197E00122D8ED2977F197E00122DC8
:0D3159008E123365BF03037F03227F012226
:1032BE00C2977F0512320D122F9B8F517F197E0000
:0E32CE00122D8ED2977F197E00122D8EAF51D9
:0132DC0022CF
:0D3365001232BEEF547160037F03227F011E
:013372002238
:0633B100E4F584D2912234
:10000E00E4F5847F32FE122D8ED2927F327E001264
:05001E002D8EC29222AC
:02320D008F52DE
:10320F00E4F584755307AF53E552A807088002C34E
:10321F0013D8FC13929112000E1553C3E55364801B
:06322F00948050E2C29100
:013235002276
:0430DE008E518F522E
:1030E200E4F58475530FE552AE51A853088005CE1E
:1030F200C313CE13D8F913929112000E1553C3E5E0
:09310200536480948050DFC291F7
:01310B0022A1
:102F9B00E4F552F553F554F5847552077F327E00F4
:102FAB00122D8EA296E433F553AF52A80708800278
:102FBB00C333D8FC4254D2927F327E00122D8EC284
:0E2FCB00921552C3E5526480948050D0AF54EA
:012FD90022D5
:10250C0000070E091C1B1215383F363124232A2DC7
:10251C0070777E796C6B6265484F464154535A5DB7
:10252C00E0E7EEE9FCFBF2F5D8DFD6D1C4C3CACDA7
:10253C0090979E998C8B8285A8AFA6A1B4B3BABD97
:10254C00C7C0C9CEDBDCD5D2FFF8F1F6E3E4EDEA87
:10255C00B7B0B9BEABACA5A28F88818693949D9A77
:10256C002720292E3B3C35321F18111603040D0A67
:10257C005750595E4B4C45426F68616673747D7A57
:10258C00898E878095929B9CB1B6BFB8ADAAA3A447
:10259C00F9FEF7F0E5E2EBECC1C6CFC8DDDAD3D437
:1025AC00696E676075727B7C51565F584D4A434427
:1025BC00191E171005020B0C21262F283D3A333417
:1025CC004E49404752555C5B7671787F6A6D646307
:1025DC003E39303722252C2B0601080F1A1D1413F7
:1025EC00AEA9A0A7B2B5BCBB9691989F8A8D8483E7
:1025FC00DED9D0D7C2C5CCCBE6E1E8EFFAFDF4F3D7
:10307E00151FA81FA605151F151FA81FA60608A613
:10308E0007A81F0808E6FFA81FE6FE08E66F240C37
:10309E00F58274253EF583E493FF051F051F051F7A
:0130AE0022FF
:0333C60002334887
:0F334800EF64014E7002C2907F027E0002316678
:10331800EF64014E7011D2907F0CFE122D8EC29078
:083328007F047E00122D8E22AD
:10333000EF64014E7011D2907F04FE122D8EC29068
:083340007F0C7E00122D8E228D
:102FDA00EF64014E7034D2907F01FE122D8EC290A2
:102FEA007F087E00122D8E758402E5885440C41332
:102FFA00135403FFBF010A7F087E00122D8E7F0142
:0B300A00227F087E00122D8E7F002226
:062E84008F4C8C4D8D4EB9
:102E8A00E4F54FF550F551F550755107AF51E54C42
:102E9A00A807088002C313D8FC5401F54F7009AF84
:102EAA004EAE4D123330800CE54FB40118AF4EAE22
:102EBA004D123318E551155170021550C3E550648F
:052ECA0080948050C758
:012ECF0022E0
:0430AF008E568F5753
:1030B300E4F558F559755907AF57AE56122FDAAEE6
:1030C30059EFA806088002C333D8FC42581559C3E8
:0A30D300E5596480948050E0AF5886
:0130DD0022D0
:0333C9000233C606
:061E56008F3E8D3F8B4022
:101E5C009001CF1207B6000000007D00AF3E7E005F
:101E6C0012307EAD07AF407E0012307EAD07AF4121
:101E7C007E0012307EAD07AF3F7E0012307E9001A7
:101E8C00CEEFF0E54064037021FDAF43FE12307ECF
:101E9C00AD07AF427E0012307EAD079001CEE0FF61
:101EAC007E0012307E9001CEEFF0754901754B1417
:101EBC00E5497003021FB1E54B7003021FB1AF453A
:101ECC00AE44123330AF45AE44123330AD45AC4462
:101EDC00AF3E122E84AF45AE44123330AD45AC4408
:101EEC00AF40122E84AD45AC44AF41122E84E54078
:101EFC0070028028AD45AC44AF3F122E84E53FB450
:101F0C00F6028018E54064037029AD45AC44AF433C
:101F1C00122E84AD45AC44AF42122E849001CEE01B
:101F2C00FF854650854751854852AB45AA447DFFF5
:101F3C000221EBE54064017067E54164027061E5E4
:101F4C0049603F9001CEE0FF85465085475185485A
:101F5C0052AB45AA44E4FD1221EB8F4AE54A7022AC
:101F6C009001CFE0FCA3E0FDA3E0FEA3E0FFAB46B5
:101F7C00AA47A94812077E12002D9001CF1207AA7A
:101F8C001549E549701A9001CFE0FCA3E0FDA3E0F0
:101F9C00FEA3E0FFAB46AA47A9481207207F002208
:071FAC00154B021EBCAF4AF9
:011FB300220B
:0821EB008F4C8D4D8A4E8B4F85
:1021F300E4F555AF4FAE4E1230AFE54C6F60037F41
:10220300FF22EFF4B54C037FFD22E54DB4FF037FBE
:102213000122E54D60030222F7AF4FAE4E1230AFFD
:102223008F53AF4FAE4E1230AF8F54AF4FAE4E12EF
:1022330030AF8F557D00AF537E0012307EAD07AFB8
:10224300547E0012307EEF655560037FFE22E55415
:1022530030E7096354FFE553F404F553E554FE7C7A
:1022630000E42553FFEC3EFE9001D3F0A3EFF0FD15
:10227300AC06EC120336E4FBFA79807842120227AB
:10228300AB50AA51A952120720AB50AA51A952C070
:1022930003C002C0011207007BCC7A5D795B783FF3
:1022A300120029D001D002D003120720AB50AA514B
:1022B300A952120700E4FBFA79C878421202C4401B
:1022C30017AB50AA51A952120700E4FBFA79207800
:1022D300C11202C4600540037FFA22AB50AA51A980
:1022E300521207007BCC7A5D795B78BF1202C4700F
:0622F300037FFB227F00C7
:0122F90022C2
:100026000203DBE86480F8E933E83360110460F02A
:10003600ED33EC337009E8FCE9FDEAFEEBFF220440
:1000460060DED3EB9FEA9EE99DE8C2E78CF0C2F73B
:1000560095F0400CE8CCF8E9CDF9EACEFAEBCFFB07
:100066001203A685D0F05804700320D5B3E80470B7
:10007600075002B2D50203E592D5EC0460F7E4CC52
:10008600C0E0C398F8603B94186008400DD0E0FBD0
:100096000203BDE4FBFAC9FC8028E830E406E4C9A3
:1000A600FBE4CAFCE830E305E4C9CACBFCE8540724
:1000B6006010F8C3E913F9EA13FAEB13FBEC13FC2F
:1000C600D8F130F52FC3E49CFCEF9BFFEE9AFEEDD2
:1000D60099FDD0E0FBEF4E4D4C701222DB0302037C
:1000E600E2EC2CFCEF33FFEE33FEED33FDED30E7B3
:1000F600EB0203BDEF2BFFEE3AFEED39FDD0E0FB40
:1001060050130BBB00030203E5ED13FDEE13FEEFE8
:0801160013FFEC13FC0203BD12
:10011E00EC4D6011E8497017ED33EC3304600DE4DB
:10012E00FCFFFEFD22E933E8330470F80203DB1214
:10013E0003A658046009E4CC248150062850090215
:10014E0003E52840030203E2C0E0EB4A7044B980A5
:10015E0006D0E0FB0203D1EF4E701CBD8008EBFF12
:10016E00EAFEE9FD80EBE98DF0A4FEE5F002020760
:10017E00E9CDF9EAFEEBFFEF89F0A4FCE5F0CE89BC
:10018E00F0A42EFFE435F0CD89F0A42DFEE435F079
:10019E008067EF4E7005BD80D780C3EF8BF0A4ACA7
:1001AE00F0EE8BF0A42CFCE435F0F8EF8AF0A42CE2
:1001BE00E5F038FCE433CB8DF0A42CFCE5F03BF8F5
:1001CE00EE8AF0A42CFCE5F038F8E433CF89F0A4E5
:1001DE002CFCE5F038CF3400CE89F0A42FFFE5F0EB
:1001EE003EFEE433C98DF0A42EFEE5F039CD8AF043
:1001FE00A42FFFE5F03EFEE43DFD33D0E0FB5007BB
:10020E000BBB000F0203E5EC2CFCEF33FFEE33FECD
:06021E00ED33FD0203BDFB
:100224000203E5EC5D046005E8590470030203DB96
:100234001203A6580460F6EC4860F2EC7004FDFE6C
:10024400FF22C860DB2481C85009C39860025006AD
:100254000203E29850CAF582E9294B4A7005AB8241
:100264000203D175F0007C1A7880C3EF9BEE9AEDFF
:1002740099400DC3EF9BFFEE9AFEED99FDE842F025
:10028400DC23ACF0D0E0FFD0E0FED0E0FDAB822078
:10029400E7101BEB60BAEC2CFCEF33FFEE33FEED02
:1002A40033FD0203BDE803F830E705C0F075F00044
:1002B400EF2FFFEE33FEED33FD40B830E7C280AAE6
:1002C40074F8CC6480CCC86480C8F582046043C3ED
:1002D400EB9FF5F0EA9E42F0E99D42F0E89C45F080
:1002E40060305018E5825FFFE582F42B5582FB50A5
:1002F400210ABA001D09B90019088016E5825BFBC2
:10030400E582F42F5582FF50090EBE00050DBD0095
:10031400010CC3EB9FF5F0EA9E42F0E99D42F0E840
:0D0324009C45F06007CC4820E701B3EC22B7
:1003310075F020800E75F010800575F0087D007E47
:10034100007F003392D530D5031206CBEC33401039
:10035100EF33FFEE33FEED33FDEC33FCD5F0ED2250
:0E036100E5F0247EA2D513CC92E7CDCEFF228C
:10036F00EDD2E7CD33EC3392D524814006E4FFFE86
:10037F00FDFC22FCE4CFCECDCC24E0501174FF80E5
:10038F00EDC3CC13CCCD13CDCE13CECF13CF047082
:07039F00F030D5DE0206CBB1
:1003A600E9D2E7C933E833F892D5EDD2E7CD33EC9D
:0703B60033FC5002B2D52216
:1003BD00EC30E7100FBF000C0EBE00080DBD0004A1
:1003CD000BEB6014A2D5EB13FCED92E7FD2274FF4D
:1003DD00FCFDFEFF22E480F8A2D574FF13FC7D80A6
:0303ED00E480EFBA
:030000000229F9D9
:0C29F900787FE4F6D8FD758196022A4034
:1003F000BB010689828A83E0225002E722BBFE020B
:09040000E32289828A83E493223D
:10040900BB010CE58229F582E5833AF583E02250A8
:1004190006E92582F8E622BBFE06E92582F8E222F2
:0D042900E58229F582E5833AF583E493220C
:10043600BB010689828A83F0225002F722BBFE01A5
:02044600F3229F
:10044800F8BB010DE58229F582E5833AF583E8F0EA
:10045800225006E92582C8F622BBFE05E92582C896
:02046800F2227E
:10046A00EF8DF0A4A8F0CF8CF0A428CE8DF0A42EA6
:02047A00FE2260
:10047C00C2D5EC30E709B2D5E4C39DFDE49CFCEE9B
:10048C0030E715B2D5E4C39FFFE49EFE120889C382
:10049C00E49DFDE49CFC800312088930D507C3E47D
:0604AC009FFFE49EFE220A
:1004B200BB010A89828A83E0F5F0A3E02250068715
:1004C200F009E71922BBFE07E3F5F009E3192289D7
:0B04D200828A83E493F5F0740193220A
:1004DD00BB010789828A830208DE500B09C5F0270C
:1004ED00F7C5F01937F722BBFE0D09F8E325F0F338
:1004FD00C5F019E338F322F889828A8374019325B4
:08050D00F0C5F0F8E493382278
:10051500BB010DC58229C582C5833AC5830208DEA4
:100525005011C58229F808E5F026F618F5F0E582A0
:1005350036F622BBFE11C58229F808E225F0F5F052
:10054500F218E23582F222F8E58229F582E5832A5E
:0D055500F58374019325F0F5F0E49338224E
:10056200BB010A89828A83F0E5F0A3F0225006F7E4
:0F05720009A7F01922BBFE06F3E5F009F31922E1
:10058100F8BB0111E58229F582E5833AF583E8F0AC
:10059100E5F0A3F0225009E92582C8F608A6F02269
:0D05A100BBFE09E92582C8F2E5F008F22250
:1005AE00E88FF0A4CC8BF0A42CFCE98EF0A42CFCEC
:1005BE008AF0EDA42CFCEA8EF0A4CDA8F08BF0A46A
:1005CE002DCC3825F0FDE98FF0A42CCD35F0FCEBC9
:1005DE008EF0A4FEA9F0EB8FF0A4CFC5F02ECD398E
:0F05EE00FEE43CFCEAA42DCE35F0FDE43CFC22FB
:1005FD0075F008758200EF2FFFEE33FECD33CDCCB5
:10060D0033CCC58233C5829BED9AEC99E582984037
:10061D000CF582EE9BFEED9AFDEC99FC0FD5F0D614
:10062D00E4CEFBE4CDFAE4CCF9A88222B800C1B93E
:10063D000059BA002DEC8BF084CFCECDFCE5F0CB7C
:10064D00F97818EF2FFFEE33FEED33FDEC33FCEBB5
:10065D0033FB10D703994004EB99FB0FD8E5E4F970
:10066D00FA227818EF2FFFEE33FEED33FDEC33FC5D
:10067D00C933C910D7059BE99A4007EC9BFCE99A51
:10068D00F90FD8E0E4C9FAE4CCFB2275F010EF2F96
:10069D00FFEE33FEED33FDCC33CCC833C810D70796
:1006AD009BEC9AE899400AED9BFDEC9AFCE899F8D1
:0E06BD000FD5F0DAE4CDFBE4CCFAE4C8F92264
:0E06CB00C3E49FFFE49EFEE49DFDE49CFC2240
:1006D900EB9FF5F0EA9E42F0E99D42F0EC6480C898
:0606E90064809845F02238
:1006EF00EB9FF5F0EA9E42F0E99D42F0E89C45F061
:0106FF0022D8
:10070000BB010789828A830209005005E9F80208C3
:10071000F4BBFE05E9F802090C89828A8302075EB0
:10072000BB010789828A830207AA5005E9F80207FC
:0A0730009EBBFE05E9F802093E2217
:10073A00BB010DE58229F582E5833AF5830207AA12
:10074A005007E92582F802079EBBFE07E92582F8D1
:04075A0002093E2230
:10075E00E493FC740193FD740293FE740393FF22E1
:10076E00E493F8740193F9740293FA740393FB22E1
:10077E00BB010789828A830209255005E9F802091F
:10078E0018BBFE05E9F802093189828A8302076ED9
:0C079E00ECF608EDF608EEF608EFF62287
:0C07AA00ECF0A3EDF0A3EEF0A3EFF022C2
:1007B600A8828583F0D083D0821207CD1207CD128E
:1007C60007CD1207CDE473E493A3C583C5F0C583B3
:1007D600C8C582C8F0A3C583C5F0C583C8C582C88D
:0107E60022F0
:1007E700BB010789828A830209535005E9F8020988
:1007F7004ABBFE05E9F802095C89828A830209651A
:10080700BB010DE58229F582E5833AF58302095399
:100817005007E92582F802094ABBFE07E92582F855
:1008270002095CE58229F582E5833AF583020965C9
:10083700D083D082F8E4937012740193700DA3A350
:1008470093F8740193F5828883E473740293686064
:06085700EFA3A3A380DF64
:102DE4008B428A438944E4F54AF54BE5491549AEDB
:102DF40048700215484E6033AB45AA46A9471203F2
:102E0400F0FFAB42AA43A944054BE54BAC4A700220
:102E1400054A14F5828C83EF120448EF60CD7401E7
:102E24002547F547E43546F54680C0AB42AA43A999
:022E3400442236
:10085D00EF4E6012EF60010EEDBB010B89828A83B2
:10086D00F0A3DFFCDEFA2289F05007F709DFFCA9BF
:0C087D00F022BBFEFCF309DFFCA9F02216
:102A05000233A6E493A3F8E493A34003F68001F20E
:102A150008DFF48029E493A3F85407240CC8C333D2
:102A2500C4540F4420C8834004F456800146F6DFA1
:102A3500E4800B010204081020408090278AE47E80
:102A4500019360BCA3FF543F30E509541FFEE49396
:102A5500A360010ECF54C025E060A840B8E493A35D
:102A6500FAE493A3F8E493A3C8C582C8CAC583CA88
:102A7500F0A3C8C582C8CAC583CADFE9DEE780BE40
:01282C0000AB
:10088900BC000BBE0029EF8DF084FFADF022E4CC53
:10089900F875F008EF2FFFEE33FEEC33FCEE9DEC1C
:1008A900984005FCEE9DFE0FD5F0E9E4CEFD22ED62
:1008B900F8F5F0EE8420D21CFEADF075F008EF2FAC
:1008C900FFED33FD4007985006D5F0F222C398FD9D
:0508D9000FD5F0EA223A
:1008DE00C5F0F8A3E028F0C5F0F8E58215827002A5
:0608EE001583E038F02242
:0C08F400E6FC08E6FD08E6FE08E6FF2230
:0C090000E0FCA3E0FDA3E0FEA3E0FF226A
:0C090C00E2FC08E2FD08E2FE08E2FF2227
:0D091800E6FB08E6F908E6FA08E6CBF8224F
:0C092500E0F8A3E0F9A3E0FAA3E0FB2255
:0D093100E2FB08E2F908E2FA08E2CBF82246
:0C093E00ECF208EDF208EEF208EFF222F5
:09094A00E6FB08E6FA08E6F922D2
:09095300E0FBA3E0FAA3E0F922A5
:09095C00E2FB08E2FA08E2F922CC
:0C096500E493FB740193FA740293F922EE
:00000001FF
