:0D360600E4F58475E8C075BC8075D107221D
:10328F00E4F584EF540FF5BBE5BC54F84DF5BCE401
:10329F00F5BAC2AFC2EDD2ECC2EDD2EC20ECFDD24A
:1032AF00AFE5BF5403FEADBE7C00E42DFFEC3EFE48
:0132BF0022EC
:101B9C003FF353F8400000003FB6872B3FB6872B2E
:101BAC003F8000003F8000003FB6872B3FB6872B5D
:101BBC000000000000000000000000000000000019
:101BCC000000000000000000000000000000000009
:101BDC00636D6200043400000053657269616C4EE1
:101BEC000001006C02340000004572726F7200003C
:101BFC00000100700134000000436F6E74726F6C52
:101C0C00000100720134000000537461747573009C
:101C1C000001007301340000004545506167650008
:101C2C000001007401340000005370617265000003
:101C3C00000100750406000001704449344D6F6EBC
:101C4C00000100760418000001704456344D6F6E8C
:101C5C000001007A041800000170415633334D6FB7
:101C6C006E01007E041800000170415632354D6F34
:101C7C006E010082041800000170445631354D6F1E
:101C8C006E010086041800000170445631384D6F07
:101C9C006E01008A041800000170445632354D6FF5
:101CAC006E01008E041800000170445633334D6FE2
:101CBC006E0100920408000001754354656D7000BC
:101CCC000001009604080000014670676154656DC0
:101CDC007001009A04080000015672673154656D5A
:101CEC007001009E04080000015672673254656D45
:101CFC00700100A20234000000724449344D6F6E32
:101D0C00000100A60234000000724456344D6F6E80
:101D1C00000100A8023400000072415633334D6FAD
:101D2C006E0100AA023400000072413235564D6F2C
:101D3C006E0100AC023400000072445631354D6F18
:101D4C006E0100AE023400000072445631384D6F03
:101D5C006E0100B0023400000072445632354D6FF3
:101D6C006E0100B2023400000072445633334D6FE2
:101D7C006E0100B4043400000965657056616C7521
:101D8C00650100B604340000086565437472536540
:101D9C00740100BA00000000000000000000000008
:041DAC000000000033
:102890004801320000020004000600606800C60023
:1028A000000000006E007B0000000040400000407F
:1028B000400000400000003F99999A3FC00000404E
:1028C00000000040400000408000004090000040B8
:1028D0006CCCCD402CCCCD3FD9999A400000004023
:1028E0002CCCCD406CCCCD412000004248000041B2
:1028F000200000424800000000000000000000002E
:10290000000000000000000C6C245265763A20366E
:1029100039372024000178014400C1000000004440
:10292000012E0000000041006B0042000100004247
:0D29300000BE00000369FF1BE04100000035
:0F35CC00C2AF900072E524F0A3E521F0D2AF2248
:04000E00A21492386E
:10001200C2AFD238900070E522F0A3E523F0D2AF50
:0100220022BB
:10358D00900072E524F0A3E521F0900070E522F0A3
:07359D00A3E523F0D2AF22E9
:093545009000BEA3E0F4FD7F013B
:0F354E008D45C2A1123443AF45123443D2A1229E
:0A363900C2A1123443123217D2A1CD
:013643002264
:10348B008F828E83C2AFAF44AE43AD42AC411207C5
:10349B00DA30380A900070E522F0A3E523F0D2AFC2
:0134AB0022FE
:1031110075840FE4F5A775B0FFAFB09000BEF0A3C2
:10312100EFF09000BEE0FEA3E0F4FFEEF4FEEF78D6
:1031310003C333CE33CED8F9FFEE5401FEEF54F87A
:10314100FF900001EEF0A3EFF0EE5401FEEF54FC0E
:043151004404FF2211
:102B99008F44E5446401707475840F53A6F7C2A38A
:102BA900F522F523900073E0F521D208C20EC20F79
:102BB900C2AFE521F0900070E522F0A3E523F0D241
:102BC900AF43A62043A64053A67F43A60243A601CE
:102BD900D2A11236557FE87E0312334C1235457F58
:102BE900647E00122F8C7F02123639900074EFF048
:102BF9007F647E00122F8C1235457F647E00122F70
:102C09008C7F02123639900075EFF022E544700787
:082C190075840FF5A6D2A32279
:0820BA008F3F8B408A418942EF
:1020C2009001DF1207E600000000E49001D7F0A3C0
:1020D200F0AD43AF3F12328F9001DDEEF0A3EFF08F
:1020E200A3E0F8A3E0F9A3E0FAA3E0FB9001DDE0AE
:1020F200FEA3E0FFE4FCFDEB2FFFEA3EFEED39FD1F
:10210200EC38FCA31207DA122D939001D8E004F008
:1021120070069001D7E004F0C39001D8E0940A90D1
:1021220001D7E0940040AAE47B0AFAF9F89001DFB3
:10213200E0FCA3E0FDA3E0FEA3E0FF120639AB4002
:10214200AA41A942EE8FF0120562AB40AA41A94210
:102152001204B2FDACF0E41203369001D91207DA90
:10216200E4FBFA798078449001D9E0FCA3E0FDA376
:10217200E0FEA3E0FF1202277BB87A1E791D7840A9
:1021820012011E9001D91207DAE53F6408603EE5AC
:102192003F25E025E0249CF582E4341BF5831207F9
:1021A2008E9001D9E0F8A3E0F9A3E0FAA3E0FB12D4
:1021B200011EE53F25E025E024BCF582E4341BF551
:1021C2008312079E12002D9001D91207DA9001D9CD
:0B21D200E0FCA3E0FDA3E0FEA3E0FFA3
:0121DD0022DF
:021DB0008F435F
:101DB200E49001BAF09001BAE0FFC36480948450C9
:101DC2001A74722FF9C3E7648094B05006E024724B
:101DD200F876309001BAE004F080DA7873E6FF33E7
:101DE20095E0FEEF24D0FFEE34FFFE7C007D64120E
:101DF200046AAA06AB077872E6FF3395E0FEEF2489
:101E0200D0FFEE34FFFE7C037DE812046AEF2BFB69
:101E1200EE3AFA7874E6FF3395E0FEEF24D0FFEE57
:101E220034FFFE7C007D0A12046AEF2BFFEE3AFEBD
:101E32007875E6FD3395E0FCED24D0FDEC34FFCD62
:101E42002FF50DED3EF50C1236609001BAEFF0E57C
:101E520043603790009A1207E60000000090009E4F
:101E62001207E6000000009000A21207E600000040
:101E720000E4900070F0A3F090006C1207E60000FE
:101E820000001236607508008F09E4900072F0A31A
:101E9200F0900070F0A3F0900075F0900074F09054
:101EA2000072E0F524A3E0F521750A01750B90C2DA
:101EB2000275840F43A42075840F12360675840FB1
:101EC20043A5017584024388807589037F017E00E2
:101ED20012366D75840F43A58043A50653A5DF1204
:101EE20036657B017A0079C6754900754A047F0020
:101EF2007E06122E669000C6E0FCA3E0FDA3E0FE83
:101F0200A3E0FF90006C1207DA900132E0FEA3E03A
:101F1200FF7B017A0079C6754900754A68122E6600
:101F2200C2AFD2AF1231118E088F0975840F53A43C
:101F32007FD209D28775840F53A6EF43A601E4FF2F
:101F4200122B99C20FC208C227C223C2AF900072DD
:091F5200E524F0A3E521F0D2AF73
:011F5B002263
:10346900151EA81EEFF6900073E0F521A81EE6FFD1
:10347900B40206900072E0F524EFB41B02D20105F4
:023489001E2201
:05365B008F397F002201
:10331F008B398A3A893B1203F0AB3CAA3DA93E1286
:10332F000436AB39AA3AA93B900001120409AB3C11
:0D333F00AA3DA93E9000011204487F022221
:10113F0090006BE07016123620EC4D4E4F600D1282
:10114F0031118E088F0990006B7401F03020157FDC
:10115F0001122B997F647E0012334CD200C220E41F
:10116F00F522F523302714900073E0F521D20FE418
:10117F00FF122B99C208C2271235CC3021189000CC
:10118F0073E0F521300906C209C2878004D209D263
:10119F0087C2211235CC30223FE49001D3F0A3F067
:1011AF00D2A07F017E00122F8CC2A07F017E001281
:1011BF002F8C9001D4E004F070069001D3E004F07E
:1011CF00C39001D4E094049001D3E0940040D17F08
:1011DF000A7E00122F8CC2223023161235457F69EA
:1011EF007E00122F8C7F02123639900075EFF0C2FD
:1011FF00232001030212E29000BAE0FCE4FFFEFD9F
:10120F00EC543CFC70030212D29000BAE0FCA3E055
:10121F00FDA3E0FEA3E0FFC3EF940274809480501F
:10122F00030212C29000BAA3A3A3E4FEFDFC7B0449
:10123F00FAF9F81205AE7B0174C62FF974003EFA65
:10124F00EB3D9001C5F0A3EAF0A3E9F09000BAA33B
:10125F00E0FDED5422FDED601E9000B6E0FCA3E032
:10126F00FDA3E0FEA3E0FF9001C5E0FBA3E0FAA31E
:10127F00E0F9120750805A9000BAA3E0FDE4FFFE98
:10128F00ED5411FDE4FCED601AC2AF9001C5E0FB17
:10129F00A3E0FAA3E0F91207009000B61207DAD222
:1012AF00AF802EC2AF9000BA1207E6FF000000D247
:1012BF00AF801EC2AF9000BA1207E60000FF00D247
:1012CF00AF800EC2AF9000BA1207E600FF0000D247
:1012DF00AFC201202403021378900000E0702D901C
:1012EF000073E0F521A3E0540725E02432F582E4F2
:1012FF003401F583E0FFA3E09001C8CFF0A3EFF036
:10130F00A37401F0A37400F0A374C6F0302607E4B1
:10131F009001CDF080069001CD7401F09001C8E0EE
:10132F00FEA3E0FF7544007545689001CDE0F546DA
:10133F007547017548007549007B017A0179CA121A
:10134F00250A9000C0EFF0BF011AD20CE490000004
:10135F00F0C224900074E0FF5407C43354E0FEEF52
:10136F004EF08002C20C1235CC30253C900073E059
:10137F00F521A3E0540725E02432F582E43401F58A
:10138F0083E0FEA3E0FF7B017A0079C67549007503
:10139F004A68122E669000C5EFF0BF0106C225D233
:1013AF000D8002C20D1235CC20002D123620900078
:1013BF00C1E0F8A3E0F9A3E0FAA3E0FBC3EF9BFFC2
:1013CF00EE9AFEED99FDEC98FCE47B02FAF9F8C376
:1013DF001206EF400302157C9001C27401F0A37452
:1013EF0000F0A37476F09001D07401F0A37400F0B4
:1013FF00A374A6F0E49000C5F09000C5E0FFC3947D
:10140F0008506D7B017A0179D5E4F5431220BA902B
:10141F0001BA1207DAC2AF9001BAE0FCA3E0FDA354
:10142F00E0FEA3E0FF9001C2E0FBA3E0FAA3E0F926
:10143F009000C5E075F004A4F58285F08312076A69
:10144F009001D5E0FEA3E0FF9001D0E0FBA3E0FA0E
:10145F00A3E0F99000C5E075F002A4F58285F08352
:10146F00EE8FF0120581D2AF9000C5E004F08089B5
:10147F007B017A0179D5E4F5437F081220BA9001F8
:10148F00BA1207DA7FF07EA77D467CBF9001BAE0E3
:10149F00F8A3E0F9A3E0FAA3E0FB12002DE4FBFAB6
:1014AF00797A784412011E7B3D7A0A793778401297
:1014BF0002279001BE1207DAE4FFFE7D207C4190E7
:1014CF0001BEE0F8A3E0F9A3E0FAA3E0FB12011ECE
:1014DF00E4FBFAF9783F12002D12036FCDEFCDCC5C
:1014EF00EECCEC120336E4FBFA7920784112022796
:1014FF009001BE1207DA90010EE0FCA3E0FDA3E01D
:10150F00FEA3E0FF9001BEE0F8A3E0F9A3E0FAA389
:10151F00E0FB1202C44023900112E0FCA3E0FDA304
:10152F00E0FEA3E0FF9001BEE0F8A3E0F9A3E0FA2C
:10153F00A3E0FB1202C460044002D2107E007F962B
:10154F00EEC0E09001BEE0FCA3E0FDA3E0FEA3E04F
:10155F00F5448E438D428C41A2109238D0E0FE129A
:10156F00348B1236209000C11207DAD202122D935B
:10157F0020002D12362090012EE0F8A3E0F9A3E011
:10158F00FAA3E0FBC3EF9BFFEE9AFEED99FDEC98FB
:10159F00FCE47B01FAF9F8C31206EF40030217705F
:1015AF00754202E4F543F544F5457546017547016B
:1015BF007548017549BE7B01FD7F48121F5CEF70B6
:1015CF006E900116E0FCA3E0FDA3E0FEA3E0FF9008
:1015DF0001BEE0F8A3E0F9A3E0FAA3E0FB1202C416
:1015EF00402390011AE0FCA3E0FDA3E0FEA3E0FF7F
:1015FF009001BEE0F8A3E0F9A3E0FAA3E0FB12022A
:10160F00C460044002D2127E007F9EEEC0E09001C3
:10161F00BEE0FCA3E0FDA3E0FEA3E0F5448E438D06
:10162F00428C41A2129238D0E0FE12348B8003120A
:10163F00000E754202E4F543F544F5457546017514
:10164F0047017548017549BE7B017D017F48121F17
:10165F005CEF706E900116E0FCA3E0FDA3E0FEA32B
:10166F00E0FF9001BEE0F8A3E0F9A3E0FAA3E0FBEE
:10167F001202C4402390011AE0FCA3E0FDA3E0FE98
:10168F00A3E0FF9001BEE0F8A3E0F9A3E0FAA3E026
:10169F00FB1202C460044002D2137E007FA2EEC090
:1016AF00E09001BEE0FCA3E0FDA3E0FEA3E0F54463
:1016BF008E438D428C41A2139238D0E0FE12348BB0
:1016CF00800312000E754202E4F543F544F54575AB
:1016DF0046017547017548017549BE7B017D027F43
:1016EF0048121F5CEF706E90010EE0FCA3E0FDA3AB
:1016FF00E0FEA3E0FF9001BEE0F8A3E0F9A3E0FA5B
:10170F00A3E0FB1202C44023900112E0FCA3E0FD12
:10171F00A3E0FEA3E0FF9001BEE0F8A3E0F9A3E091
:10172F00FAA3E0FB1202C460044002D2117E007FD4
:10173F009AEEC0E09001BEE0FCA3E0FDA3E0FEA3A3
:10174F00E0F5448E438D428C41A2119238D0E0FED9
:10175F0012348B800312000E12362090012E1207C6
:10176F00DA20020302182C9001C27401F0A3740056
:10177F00F0A37476F0E49000C5F09001C2E0FBA3F3
:10178F00E0FAA3E0F99000C5E075F004A4F58285B6
:10179F00F0831207209000C5E025E025E024CEF568
:1017AF0082E43400F583E0F8A3E0F9A3E0FAA3E0C4
:1017BF00FB1202C46002503C9001C2E0FBA3E0FAAE
:1017CF00A3E0F99000C5E075F004A4F58285F083DD
:1017DF001207209000C5E025E025E024EEF582E415
:1017EF003400F583E0F8A3E0F9A3E0FAA3E0FB12DD
:1017FF0002C4501B9000C5E0FF74017E00C8EFC803
:10180F00088005C333CE33CED8F94223EE4222905F
:10181F0000C5E004F0E0640860030217897F051239
:10182F0036399001CEEFF030E003C38001D3920A36
:10183F009001CEE0C4540F70047F0180027F0090AE
:10184F0001CFEFF020A403D38001C39217C2AF9052
:10185F000070E522F0A3E523F0D2AF300811E522A6
:10186F00540F600BE4FF122B99C208D20E800B307D
:0D187F000008C200C20FC20ED20802358D53
:0C362D00245265763A2035343220240007
:10188C00E47880F61235EA75840F75E104E4F5E22C
:10189C0075E34475E104F5E275E340F58475B7B082
:1018AC0075840F758A83F597438901758D01758F42
:1018BC0001758E04F541F5420542E5427002054181
:1018CC00640F454170F2438902E4F541F542AE41A3
:1018DC00AF42E4FCFD7B507AC3F9F8D31206D94031
:1018EC000FE58920E40A0542E54270E2054180DEFD
:1018FC007597021234CCE4F541F5427D01AF4212EA
:10190C00341C0542E54270020541C39401E5419443
:10191C000040E8E4F525C232C230C236C235C234CA
:10192C007880F6C28508F67890F618F67895F6F574
:10193C0041F542743A2542F582E43401F583E4F032
:10194C000542E542700205416440454170E5E4F50D
:10195C0041F542747A2542F582E43401F583E4F0D2
:10196C000542E542700205416440454170E5E4F5ED
:10197C0084E5EF20E10CE5EF5408D394004003D349
:10198C008001C3922B7D08E4FF1233A1E47894F616
:10199C00788DF6AB69AA6AA96B788DE6FF75F010A5
:1019AC00A4F58285F083120409FE789426F6EE6085
:1019BC0005788D0680DDEFD394004030AB69AA6AC0
:1019CC00A96B90000D1208371203F0FF7455120426
:1019DC00361203F064556002D23474AA1204361223
:1019EC0003F064AA6002D234EF120436E4F584E505
:1019FC00EF5402D3940040047F018002E4FF1227CD
:101A0C00128F40E54020E035C23174FFF508F5092E
:101A1C00F50AF50B7E007F107D007B007A00790EB5
:101A2C0012088D7546FF75471B7548DC75490075A6
:101A3C004A107B007A00790E122FE28002D231908C
:101A4C003634E493FF3395E0FEEF24D0FFEE34FF01
:101A5C00FE7C007D6412046AAA06AB07903633E460
:101A6C0093FF3395E0FEEF24D0FFEE34FFFE7C03B2
:101A7C007DE812046AEF2BFBEE3AFA903635E493CC
:101A8C00FF3395E0FEEF24D0FFEE34FFFE7C007DAB
:101A9C000A12046AEF2BFFEE3AFEA3E493FD339592
:101AAC00E0FCED24D0FDEC34FFCD2FF50DED3EF533
:101ABC000CE54030E103021B73E4F541F542E542CD
:101ACC00C4F8540FC868FFE541C454F048FEAB6934
:101ADC00AA6AA96B8F82F5831204097003021B6A30
:101AEC00E92FF9EA3EFA90000412040920E264E4BA
:101AFC00F53FE53FC37878965059E542C4F8540F4A
:101B0C00C868FFE541C454F048AB69AA6AA96B8F59
:101B1C0082F583120409FF7E00C006C0077D00E534
:101B2C0042C4F8540FC868FFE541C454F048FEE9BC
:101B3C002FF9EA3EFA90000D1208377894E6853FAB
:101B4C00F0A429F9EA35F0FAD007D00612088D0571
:101B5C003F809F0542E54270020541021ACA7F018F
:101B6C00121DB0C2338007E4FF121DB0D233E4F56E
:101B7C0041F5427A007B967D03AF42122D1A054245
:0F1B8C00E54270020541C39401E541940040E435
:011B9B002227
:053660007895E6FF2251
:030023000221DED9
:1021DE00C0E0C0F0C083C082C0D075D000C000C0C7
:1021EE0001C002C003C004C005C006C00730993E3E
:1021FE00C2997890067990E77881667015F6789096
:01220E00F6D9
:0D220F0075280A75291300D529FCD528F67D
:04221C00C285801CDB
:0D22200075281475291300D529FCD528F662
:10222D007890E6247AF582E43401F583E0F599207F
:10223D0098030222D6209A08203205C2980222D293
:10224D00C29A788FE606243AF582E43401F583E5E7
:10225D0099F0C298E6FFB4011290013AE0FE7003C6
:10226D00F68066EE540724027896F6EFB4020D78E8
:10227D0096E6B4090790013BE02403F6788FE6FF5C
:10228D00B4400476008042EFC3789696403B788F39
:10229D00E624FFFDE434FFFC7B017A01793A122A32
:1022AD0081788FE62439F582E43401F583E06F609F
:0522BD0004760080140E
:0D22C20075281475291300D529FCD528F6C0
:1022CF001209A1788F7600D007D006D005D004D0A0
:1022DF0003D002D001D000D0D0D082D083D0F0D0A4
:0222EF00E032DB
:102C9F0090013BE075F010A4AB69256BF9E56A353F
:102CAF00F0FA90000D1208377895E6FF18E68FF0CE
:102CBF00A4252CF582E435F0F583120409FF7B007F
:042CCF007A00792AE4
:102CD3008F398B3A8A3B893CE4F584EA494B601C83
:102CE300AB3AAA3BA93C1203F0FFE539FD7C001285
:0C2CF3000003AB3AAA3BA93CEF120436E8
:0D2CFF00753D14753E1300D53EFCD53DF625
:0E2D0C008539997F011233CA3099FDC2992290
:09352800E4F5847881EFF6D28508
:0D353100753914753A1300D53AFCD539F6FA
:07353E0090017AE0F59922EB
:10308200C9EFC9E964017028EDC39B40347878E642
:10309200FFEB2FFFE433FEEDC39FEE6480F87480F4
:1030A20098501ED232C3ED9B7895F6789176012224
:1030B200B90214ED6B700AD2327895F678917602E5
:0830C20022C232E47891F622EB
:102F2B00C9EFC9BAFF15BBFF12ED6B7002EC6A70EB
:102F3B0049D2327895F67891E9F622E96401702549
:102F4B00C3ED9BEC9A401C7878E62BFFE43AFEC36A
:102F5B00ED9FEC9E500DD232C3ED9B7895F6789198
:102F6B007601228015B90218ED6B7002EC6A700ABB
:102F7B00D2327895F67891760222C232E47891F6C5
:012F8B002223
:1009A10090013AE0FF54F8F52BE4F584EF12086763
:1009B10009EE0909FA0A0A0A100A13110A23120A8E
:1009C10037190A4C1A0A6E200A77280B16290C18B7
:1009D100330C4A370C79390C93410C9E490CA850C1
:1009E1000CF0610BE2700CE89800000D2090013BC7
:1009F100E0FDE509FB7F01802390013BE0FCA3E0E2
:100A0100FDAB09AA087F018027D2327891760302D3
:100A11000D2090013BE0FDE50BFB7F0212308202CD
:100A21000D2090013BE0FCA3E0FDAB0BAA0A7F0285
:100A3100122F2B020D2090013BE0FDE509FB7F0108
:100A4100123082203203020D20801790013BE0FC1E
:100A5100A3E0FDAB09AA087F01122F2B203203026C
:100A61000D2090017A7478F07F01020D1DE4F58468
:100A710075EF10020D20C2ACE4F52AD285FB7A0095
:100A8100792A7F7F122CD37B007A00792A7F181272
:100A91002CD37B007A00792A7F05122CD3788DE63E
:100AA100122CCC7B007A00792AAF08122CD37B0060
:100AB1007A00792AAF09122CD37B007A00792AAF08
:100AC1000A122CD37B007A00792AAF0B122CD37B2C
:100AD100007A00792AAF0C122CD37B007A00792A94
:100AE100AF0D122CD3E4F52C740E252CF8E6122C44
:100AF100CC052CE52CC3941040EE7B007A007900E4
:050B0100AF2A122CD305
:0D0B060075370A75381300D538FCD537F661
:100B1300020BCD90013BE0FFC3788D964003020B9F
:100B2300D4EF75F010A4256BF9E56A35F0856934C7
:100B3300F5358936C2ACE4F52AD285FB7A00792AE9
:100B43007F7F122CD37B007A00792A7F0D122CD35E
:100B5300AB34AA35A9361203F0122CCCAB34AA3528
:100B6300A936900001122CC9AB34AA35A9369000DE
:100B730002122CC9AB34AA35A936900003122CC932
:100B8300AB34AA35A936900004122CC9E4F52CAB7A
:100B930034E5362405F9E43535FA7E00E9252CF9E8
:100BA300EE3AFA1203F0122CCC052CE52CC3940870
:0D0BB30040DD7B007A007900AF2A122CD3C0
:0D0BC00075370A75381300D538FCD537F6A7
:100BCD00C285D2AC020D2090017A7478F0E4A3F0C6
:100BDD007F02020D1D12362078821207CE90017A07
:100BED00747CF07882E6A3F008E6A3F008E6A3F0A3
:100BFD0008E6A3F07C007D057B017A01797A122A43
:100C0D008190017FEFF07F06020D1D90013BE0FF0B
:100C1D00B4010BA3E0F508A3E0F509020CE8EFB46D
:100C2D00020990013CE0F508020CE890013BE0B4AC
:100C3D000308A3E0F50AA3E0F50B020CE8E4F52C9C
:100C4D0090013BE0FFE52CC39F501C743C252CF517
:100C5D0082E43401F583E0FF740E252CF8C6EFC64F
:100C6D00052CE52CB410D9E4F51D806F7A007B328C
:100C7D007D017895E6FF122D1A90013BE0FDE4FF12
:100C8D001233A1020D2090013BE024FF922A020DA8
:100C9D002090013BE024FF922980787895E660054D
:100CAD00752E02800B203505752E038003752E01E0
:100CBD0090017A7479F0A3E52EF07C007D027B0122
:100CCD007A01797A122A8190017CEFF07F03123537
:100CDD0028E52E6401703CD2368002D230788076C1
:100CED00F180307A007B327D017F00122D1A900148
:100CFD007A7479F090013BE090017BF07C007D02ED
:100D0D007B017A01797A122A8190017CEFF07F03C1
:100D1D00123528E52B64A06003020F2F90013AE0F5
:100D2D0064A16003020E1FA3E0C3788D96400302F9
:100D3D000E14AB69AA6AA96BE0FF75F010A4F582D9
:100D4D0085F083120409F52EEF75F010A429F9EA48
:100D5D0035F0FA90000412040930E23790013BE0BF
:100D6D0012365B8F2E90017A747FF0A3E52EF0245E
:100D7D0002FDE433FC7B017A01797A122A81747CBD
:100D8D00252EF582E43401F583EFF0E52E2403FFE3
:100D9D00020F2C90013BE0FF12365BC2ACE4F52A4A
:100DAD00D285E52ED39406402B7B007A00792A7FDD
:100DBD007F122CD37B007A00792AAF2E122CD3E42C
:100DCD00F52CE52CC3952E5007122C9F052C80F287
:100DDD00052E8018E52E2478122CCCE4F52CE52C6C
:100DED00C3952E5007122C9F052C80F27B007A00A4
:070DFD007900AF2A122CD38C
:0D0E040075370A75381300D538FCD537F660
:100E1100020F1E90017A7478F07F01020F2C90016D
:100E21003AE064A26003020F2F788DE6FFA3E0FE93
:100E3100C39F4003020F24A3E0FDC39F4003020FA1
:100E410024EE9D4003020F2490013BE0F52CE4F5D4
:100E510032F53390013CE0FFE52CD39F5026AF2CB7
:100E610012365BAB69AA6AA96B75F010E52CA4F583
:100E71008285F0831204092533F533E43532F532E6
:100E8100052C80CFC2ACE4F52AD285FB7A00792A01
:100E91007F7F122CD3C3E5339480E5329400500256
:100EA1008007E5324480122CCCAF33122CCD900157
:100EB1003BE0F52C90013CE0FFE52CD39F5046E44C
:100EC100F52DAB69AA6AA96B75F010E52CA4F58222
:100ED10085F083120409FFE52DC39F5024E52C758D
:100EE100F010A429F9EA35F0FA90000D12083778CC
:100EF10095E6FF18E68FF0A4252D122CC2052D8052
:100F0100C1052C80AF7B007A007900AF2A122CD367
:0D0F110075370A75381300D538FCD537F652
:100F1E00C285D2AC800B90017A7478F07F011235C5
:100F2E0028E52B6458704DFA7B327D017895E6FFEB
:100F3E00122D1A753C01753D01753E7B7B017A01C0
:100F4E00793B12331F8F2EE52E247890017AF0EF25
:100F5E002401FDE433FC7B017A01797A122A817433
:100F6E007B252EF582E43401F583EFF0E52E240285
:100F7E00FF123528E52B64806009E52B6488600339
:100F8E0002113E7891E6B4010F7A007B327D017832
:100F9E0095E6FF122D1A801AE4F52CE52CC378780D
:100FAE0096500F7A007B327D01AF2C122D1A052C34
:100FBE0080E990013AE05407F52EB4070A752D0129
:100FCE00A3E0F52EA38006E4F52D90013BE0F52F6E
:100FDE00152EE52FC3788D964003021112AB69AA28
:100FEE006AA96B75F010E52FA4F58285F0831204C3
:100FFE0009FFE52ED39F40028F2E7891E6B40109AA
:10100E007895E6F531F5308009E4F5307878E61418
:10101E00F5317895A6307895E6D3953140030211D7
:10102E0006E4F52CE52CC3952E40030210FBE52FAC
:10103E0075F010A4AB69256BF9E56A35F0FA9000EE
:10104E000412040930E2030210F6900001120409A2
:10105E0064387041E52ED394044011E52D252C24DF
:10106E003CF582E43401F583E0FD805E788FE6C3C3
:10107E00952CFFE49400FE74382FF58274013EF532
:10108E0083E0FDE52F75F010A4AB69256BF9E56AD9
:10109E0035F0FA8035AB69AA6AA96B75F010E52FA9
:1010AE00A4F58285F083120409FFC3788FE69F258D
:1010BE002C252D2439F582E43401F583E0FDE52F4E
:1010CE0075F010A429F9EA35F0FA90000D120837E0
:1010DE007895E6FF18E68FF0A4FFE52C2FF582E455
:1010EE0035F0F583ED120448052C021032AF2F12A5
:1010FE0034697895060210247895A630E52B64881D
:10110E00702E8010E52FB4FF2790013CE0F525E509
:10111E002BB4881C90017A7478F0788FE62439F518
:10112E0082E43401F583E090017BF07F02123528D2
:01113E00228E
:10D000007880E664F1600302D60CE4F549F54A78CD
:04D0100081E6601F36
:0DD01400754F0A75501300D550FCD54FF62E
:10D02100054AE54A7002054964107004E549642720
:10D0310070DCC2AF7584015398FC75FFDE75FFADDE
:10D04100E4F545F544E4F58420982EE4F549F54AE4
:0ED05100209822C3E54A9488E54994135017AD
:0DD05F00754F0A75501300D550FCD54FF6E3
:10D06C00054AE54A70DF054980DBB2A780CF859978
:10D07C0044C298E544641A600302D14CF549F54A60
:0ED08C00209822C3E54A9488E5499413501772
:0DD09A00754F0A75501300D550FCD54FF6A8
:10D0A700054AE54A70DF054980DB30989285994546
:10D0B700C298E4F549F54A209822C3E54A9488E5E1
:05D0C70049941350170D
:0DD0CC00754F0A75501300D550FCD54FF676
:10D0D900054AE54A70DF054980DB20980302D046FE
:10D0E900859945C298E4F549F54A209822C3E54A4D
:08D0F9009488E54994135017D7
:0DD10100754F0A75501300D550FCD54FF640
:10D10E00054AE54A70DF054980DB20980302D046C8
:09D11E00859945C298D285C29999
:0DD12700754F1475501300D550FCD54FF610
:06D134007599783099FDA9
:0DD13A00754F0A75501300D550FCD54FF607
:10D14700C28502D5FEE5446450600302D1DCF5498F
:10D15700F54A209822C3E54A9488E5499413501765
:0DD16700754F0A75501300D550FCD54FF6DA
:10D17400054AE54A70DF054980DB20980302D04662
:09D18400859945C298D285C29933
:0DD18D00754F1475501300D550FCD54FF6AA
:08D19A007599793099FDC299E5
:0DD1A200754F1475501300D550FCD54FF695
:08D1AF007599013099FDC29948
:0DD1B700754F1475501300D550FCD54FF680
:06D1C400E4F5993099FD2D
:0DD1CA00754F0A75501300D550FCD54FF677
:0FD1D700C28502D5FEE5446401703ED285C2993F
:0DD1E600754F1475501300D550FCD54FF651
:08D1F3007599783099FDC2998D
:0DD1FB00754F1475501300D550FCD54FF63C
:06D20800E4F5993099FDE8
:0DD20E00754F0A75501300D550FCD54FF632
:10D21B00C28502D5FEE5446402600302D2E2F54901
:10D22B00F54A209822C3E54A9488E5499413501790
:0DD23B00754F0A75501300D550FCD54FF605
:10D24800054AE54A70DF054980DB20980302D0468D
:10D25800859945C298E4F546E54513B392A7E54597
:10D2680025E0FEC3E49400EE94D0502AE5457F0003
:10D2780025E0FEC394E0501EE54520E01FE4F58458
:10D2880043B701758F038E4B8F4C8F828E83F0537B
:10D29800B7F0F58F80037546FFE4F584D285C2990F
:0DD2A800754F1475501300D550FCD54FF68E
:08D2B5007599783099FDC299CA
:0DD2BD00754F1475501300D550FCD54FF679
:06D2CA008546993099FD34
:0DD2D000754F0A75501300D550FCD54FF670
:10D2DD00C28502D5FEE5446403600302D42DF549F1
:10D2ED00F54A209822C3E54A9488E54994135017CE
:0DD2FD00754F0A75501300D550FCD54FF643
:10D30A00054AE54A70DF054980DB20980302D046CA
:10D31A00859945C298E4F549F54A209822C3E54A19
:08D32A009488E54994135017A3
:0DD33200754F0A75501300D550FCD54FF60D
:10D33F00054AE54A70DF054980DB20980302D04695
:10D34F00859947C298E5451392A7E54525E0FEC3A9
:10D35F00E49400EE94D0400302D046E5457D0025CD
:10D36F00E0FCC394E0400302D046E4F58443B701E8
:10D37F00758F01E54775F020A42DFFE5F03CF54BC7
:10D38F008F4CE4F584F548E548C394205048E4F504
:10D39F0049F54A209822C3E54A9488E549941350E9
:01D3AF001766
:0DD3B000754F0A75501300D550FCD54FF68F
:10D3BD00054AE54A70DF054980DB20980302D04617
:10D3CD00054CE54CAE4B7002054B14F5828E83E592
:10D3DD0099F0C298054880B1E4F58453B7F0F58F04
:06D3ED00F584D285C2990F
:0DD3F300754F1475501300D550FCD54FF642
:08D400007599783099FDC2997D
:0DD40800754F1475501300D550FCD54FF62C
:06D41500E4F5993099FDD9
:0DD41B00754F0A75501300D550FCD54FF623
:10D42800C28502D5FEE5446404600302D4DDF549F3
:10D43800F54A209822C3E54A9488E5499413501781
:0DD44800754F0A75501300D550FCD54FF6F6
:10D45500054AE54A70DF054980DB20980302D0467E
:10D46500859945C298E54525E0F54D754E00E4F5ED
:10D4750046F549F54A054EE54EAE4D7002054D148B
:10D48500F5828E83E4932546F546054AE54A700202
:0ED4950005497004E549640270DBD285C29936
:0DD4A300754F1475501300D550FCD54FF691
:08D4B0007599783099FDC299CD
:0DD4B800754F1475501300D550FCD54FF67C
:06D4C5008546993099FD37
:0DD4CB00754F0A75501300D550FCD54FF673
:10D4D800C28502D5FEE5446405600302D5F3F5492B
:10D4E800F54A209822C3E54A9488E54994135017D1
:0DD4F800754F0A75501300D550FCD54FF646
:10D50500054AE54A70DF054980DB20980302D046CD
:10D51500859945C298E4F549F54A209822C3E54A1C
:08D525009488E54994135017A6
:0DD52D00754F0A75501300D550FCD54FF610
:10D53A00054AE54A70DF054980DB20980302D04698
:09D54A00859947C298D285C29967
:0DD55300754F1475501300D550FCD54FF6E0
:08D5600075997F3099FDC29915
:0DD56800754F1475501300D550FCD54FF6CB
:10D575007599203099FDE54525E0FCE54775F020D6
:10D58500A42400FFE5F03CF54D8F4EE4F546F54843
:02D59500C29939
:0DD59700754F1475501300D550FCD54FF69C
:10D5A400854E82854D83E493F5993099FD054EE5CA
:10D5B4004EAE4D7002054D14F5828E83E4932546DC
:0BD5C400F5460548E548B420C8C299B0
:0DD5CF00754F1475501300D550FCD54FF664
:06D5DC008546993099FD1F
:0DD5E200754F0A75501300D550FCD54FF65B
:10D5EF00C285800BE544B40606E4F58475EF10E5BB
:0DD5FF00446407600302D0467880F6D2AF86
:01D60C0022FB
:102D93007F001233CA20310B7A007B327D017F0022
:102DA300122D1A30340B7A007B1E7D017F00122D09
:102DB3001A3030173035147A007B327D017895E66E
:102DC300FF122D1AC230122941D23120330C303573
:102DD30009788076F1122941D2333036083035052F
:102DE300C23612D000203512123613E47B2C7A013E
:0B2DF300F9F8C31206EF5002D235229F
:0B36440012188C122D9312113F80F819
:10240000005EBCE2613FDD83C29C7E20A3FD1F41D4
:102410009DC3217FFCA2401E5F01E3BD3E6082DCC4
:10242000237D9FC1421CFEA0E1BF5D0380DE3C62B4
:10243000BEE0025CDF81633D7C22C09E1D43A1FFA4
:102440004618FAA427799BC584DA3866E5BB590794
:10245000DB856739BAE406581947A5FB7826C49A84
:10246000653BD987045AB8E6A7F91B45C6987A2474
:10247000F8A6441A99C7257B3A6486D85B05E7B964
:102480008CD2306EEDB3510F4E10F2AC2F7193CD54
:10249000114FADF3702ECC92D38D6F31B2EC0E5044
:1024A000AFF1134DCE90722C6D33D18F0C52B0EE34
:1024B000326C8ED0530DEFB1F0AE4C1291CF2D7324
:1024C000CA947628ABF517490856B4EA6937D58B14
:1024D0005709EBB536688AD495CB2977F4AA481604
:1024E000E9B7550B88D6346A2B7597C94A14F6A8F4
:1024F000742AC896154BA9F7B6E80A54D7896B35E4
:0A250000000000002B6096CBDDEE1A
:03293D00015E0A2E
:102A8100151E151EA81EECF608EDF6151E151E15D1
:102A91001EA81EC6EBC608C6EAC608C6E9C6E51EDC
:042AA10024FCF51EFE
:102AA500F80808E4F6A81EF608F6E51E2407F9A8B6
:102AB5001EE6FE08E6FFC3099719E76480F8EE6491
:102AC50080985037E51E2404F8CBE6CB08E6FA08D3
:102AD500E6F98F828E83120409A81E080866FFE5B1
:102AE5001E2403F8EFF6E690240093A81E0808F6C6
:102AF500A81E0806E61870B20680AFA81E0808E6EC
:012B0500FFD0
:072B0600E51E2409F51E2263
:07000300ED6F90240093FF54
:01000A0022D3
:1033A100EF7023F5847598D0F584759115F58475C2
:1033B100C90875CBFFED9024FF93F5CA75C804E4E5
:0833C100F584D2ACC2BCD2AF0E
:0133C90022E1
:10315500E4F564F563F562F561F568F567F566F51F
:1031650065755D64FFEF25E025E02479F8E4F6EF69
:1031750025E025E0247AF8E4F6EF25E025E0247B38
:10318500F8E4F6EF25E025E0247CF8E4F60FBF012E
:01319500D465
:013196002216
:1034CC00D2AFD2A9C2BBE4F584E589540F4401F50F
:0F34DC0089758E02758CAFE4F58AD28C0231555A
:0229E400151EBE
:1029E600A81EE4F6A81EE6FFC394014003022A7E51
:1029F600EF25E025E0247CF8E6FFD394004052A8BA
:102A06001EE625E025E0247AF8E67045EF30E0156D
:102A1600A81EE6FF25E025E0247CF8E6D3940140D5
:102A2600047D0080067D01A81EE6FF123197A81ED0
:102A3600E6FF25E025E0247CF816E66014EF25E0A5
:102A460025E0247BF8E6FEEF25E025E0247AF8EE83
:102A5600F6A81EE625E025E0247AF8E6600116A829
:102A66001EE6FF25E025E0247CF8E670057D0112D0
:082A76003197A81E060229EAAF
:032A7E00051E2210
:03000B00022C21A3
:102C2100C0E0C0F0C083C082C0D0E8C0E0E9C0E02D
:102C3100EAC0E0EBC0E0ECC0E0EDC0E0EEC0E0EFE8
:102C4100C0E0758CAFE5642401F564E43563F56398
:102C5100E43562F562E43561F561D55D18E5682416
:102C610001F568E43567F567E43566F566E43565D1
:102C7100F565755D641229E41234ACD0E0FFD0E053
:102C8100FED0E0FDD0E0FCD0E0FBD0E0FAD0E0F9EE
:0E2C9100D0E0F8D0D0D082D083D0F0D0E032A6
:10341C00151EA81EEDF6151EA81EEFF6A81EE6FF3B
:10342C00C39401500D08E6FEEF25E025E02479F861
:07343C00EEF6051E051E223D
:102D1A00151E151EA81EEAF608EBF6151EA81EEDCE
:102D2A00F6151EA81EEFF6A81EE6FFC39401505220
:102D3A00EF25E025E0247CF8E67047A81EE6FB258F
:102D4A00E025E0247AF8E67039A81E08E625E004B2
:102D5A00FFA81EE6FA25E025E0247CF8EFF6A81E77
:102D6A000808E6FE08E6FF7C007D0A12047CEA25D4
:102D7A00E025E0247BF8EFF6EB25E025E0247AF85D
:092D8A00E4F6E51E2404F51E2206
:10319700151EA81EEDF6151EA81EEFF6A81EE6FFC3
:1031A700C39401501CEF25E025E02479F8E660116F
:1031B700A81E08E670047F0180027F00A81E08EFA2
:1031C700F6A81EE6700608E624FF92A7051E051E50
:0131D70022D5
:0C361300C2AFAF64AE63AD62AC61D2AF79
:01361F002288
:0C362000C2AFAF68AE67AD66AC65D2AF5C
:01362C00227B
:1033CA00151EA81EEFF6A81EE67004F55FF560301C
:1033DA003714E55E75F064A4FFC3E5609FE55F9569
:0933EA00F0500375FFA5051E2239
:10350A00D237E4F55FF560EF6004F55E8003755E1F
:0E351A000A75FF0775FFA5E4F58475EF04221E
:0E35EA00C237E4F55FF56075FFDE75FFAD22B8
:1034AC000560E5607002055F303714E55E75F06409
:1034BC00A4FFC3E5609FE55F95F0500375FFA5225F
:04334C008E458F46D5
:10335000E4F547F548C3E5489546E54795455016D9
:103360007FE87E03122F8C7F011233CA0548E5489F
:0633700070E3054780DF59
:013376002234
:042F8C008E598F5A71
:102F9000D3E55A94FAE5599400500EEFD3940040CB
:102FA000407E1600DEFD1F80F285595B855A5CD39A
:102FB000E55C94FAE55B940040157FFA7E00122FE1
:102FC0008C7406255CF55C74FF355BF55B80E0D3A3
:102FD000E55A9400E55994004007AF5CAE5B122FB0
:012FE0008C64
:012FE10022CD
:102DFE00754E00754F007550487B007A0079467D00
:012E0E0002C1
:082E0F008B4A8A4B894C8D4D62
:102E17007F011233CAAB4EAA4FA9501204B2240045
:102E2700FFE5F034E0FE854A51854B52854C53E46B
:102E3700FDEDC3954D501BEF2DF582E43EF583E480
:102E470093AB51AA52A9538D827583001204480D82
:0F2E570080DFAB4EAA4FA950E4854DF00204DD99
:1027DB00754612754734754E00754F007550487B22
:0727EB00007A0079467D022F
:0827F2008B4A8A4B894C8D4D86
:1027FA007880E664F1600302288F1235EAC2AFE4FA
:10280A00F58443B701758F01AB4EAA4FA950120444
:10281A00B22400FFE5F034E07886F608EFF6AA4B1A
:10282A00A94C788AA64A08C6EAC608C6E9C6E47860
:10283A0088F67888E6C3954D5032788ACBE6CB087D
:10284A000806E618CAE6CA70010614F91203F078F7
:10285A0089F6E6FF78860806E618CCE6CC7001060B
:10286A0014F5828C83EFF078880680C6E4F58F53DE
:10287A00B7F0AB4EAA4FA950854DF01204DDD2AF86
:05288A00E4FF12350A15
:01288F002226
:103034007880E664F17046C2AF1235EAE4F5844361
:10304400B701758F03788776E008F67886F6788777
:10305400E6FE08E6F5828E83E4F07F011233CA7837
:1030640088E426F618740236F61806E6C394084077
:0D307400DDE4F58F53B7F0D2AFFF12350A3F
:01308100222C
:10294100123034E4F548F549F54E754F007550489D
:10295100FB7A0079087D161227F21227DBE4F54590
:10296100E545C37878965073E4F544AB69AA6AA942
:102971006B75F010E544A4F58285F08312040960BB
:1029810056E54475F010A429F9EA35F0FA90000DE6
:102991001208377894E68545F0A429F9EA35F0FA6A
:1029A100EBC0E0EAC0E0E9C0E0AB69AA6AA96B75D7
:1029B100F010E544A4F58285F083120409FD754EFB
:1029C10000754F00755048D0E0F9D0E0FAD0E0FB37
:1029D1001227F205448094054580851227DBE478AF
:0229E10080F67E
:0129E30022D1
:03271200CCEFCC3D
:10271500E4F548F549F545F54E754F00755048FB0C
:102725007A0079087D16122E0F122DFEE5476434C6
:102735007004E54664127003434501EC70030227FB
:10274500D5E4F544E544C37878965073E4F543AB96
:1027550069AA6AA96B75F010E543A4F58285F08333
:102765001204096056E54375F010A429F9EA35F01D
:10277500FA90000D1208377894E68544F0A429F9FB
:10278500EA35F0FAEBC0E0EAC0E0E9C0E0AB69AADF
:102795006AA96B75F010E543A4F58285F0831204F0
:1027A50009FD754E00754F00755048D0E0F9D0E031
:1027B500FAD0E0FB122E0F05438094054480851264
:1027C5002DFEE54764347004E5466412700580000B
:0527D500434502AF4581
:0127DA0022DC
:05366500D29702364F70
:0A2E66008E448F458B468A47894849
:102E7000E4F54BF54CD295123377BF03037F032261
:102E8000C2977F031233F3AF45AE441232F1C3E56C
:102E90004C954AE54B954950221231D8AB46AA478A
:102EA000A948EF12043674012548F548E43547F582
:102EB00047054CE54C70D7054B80D37F197E001237
:082EC0002F8CD297C2957F010F
:012EC80022E7
:0A250A008E3F8F408B418A428943C7
:10251400755000755120E5402545E53F3544C39489
:102524000640037F0222D295E545AE447805CEC32A
:1025340013CE13D8F9F54F8E4EAB47AA48A94912CA
:1025440003F0754A00F54BD3E54B954FE54A954E9C
:10255400400302260D1235F8BF0302802FE54BAE6F
:102564004A7805C333CE33CED8F92540F540EE354D
:102574003FF53FE54BB54F0EE54AB54E09755000A2
:10258400E545541FF551123377BF030EAB47AA48F4
:10259400A949E54B1204367F0322C2977F02123306
:1025A400F3AF40AE3F1232F1E4F54CF54DC3E54DC7
:1025B4009551E54C95505036E546B40122AB41AAFD
:1025C40042A9431208171203F0FF1233F3AB41AAD6
:1025D40042A943900001E475F0011205158005E459
:1025E400FF1233F3054DE54D70C3054C80BF7F19D1
:1025F4007E00122F8CD2977F197E00122F8C054BF0
:0D260400E54B7002054A02254BC2957F018F
:0126110022A6
:10337700C2977F197E00122F8C7F061233F37F19B5
:103387007E00122F8CD2977F197E00122F8C123558
:0A339700F8BF03037F03227F012229
:1034EB00C2977F051233F31231D88F527F197E00AA
:0E34FB00122F8CD2977F197E00122F8CAF52A9
:01350900229F
:0D35F8001234EBEF547160037F03227F015A
:0136050022A2
:06364F00E4F584D2912293
:1035A400E4F5847F32FE122F8CD2927F327E001299
:0535B4002F8CC29222E1
:0233F3008F53F6
:1033F500E4F584755407AF54E553A807088002C364
:1034050013D8FC1392911235A41554C3E554648066
:06341500948050E2C29118
:01341B00228E
:0432F1008E528F5317
:1032F500E4F58475540FE553AE52A854088005CE05
:10330500C313CE13D8F91392911235A41554C3E5FE
:09331500546480948050DFC291E1
:01331E00228C
:1031D800E4F553F554F555F5847553077F327E00B1
:1031E800122F8CA296E433F554AF53A80708800237
:1031F800C333D8FC4255D2927F327E00122F8CC244
:0E320800921553C3E5536480948050D0AF55A7
:013216002295
:1026120000070E091C1B1215383F363124232A2DC0
:1026220070777E796C6B6265484F464154535A5DB0
:10263200E0E7EEE9FCFBF2F5D8DFD6D1C4C3CACDA0
:1026420090979E998C8B8285A8AFA6A1B4B3BABD90
:10265200C7C0C9CEDBDCD5D2FFF8F1F6E3E4EDEA80
:10266200B7B0B9BEABACA5A28F88818693949D9A70
:102672002720292E3B3C35321F18111603040D0A60
:102682005750595E4B4C45426F68616673747D7A50
:10269200898E878095929B9CB1B6BFB8ADAAA3A440
:1026A200F9FEF7F0E5E2EBECC1C6CFC8DDDAD3D430
:1026B200696E676075727B7C51565F584D4A434420
:1026C200191E171005020B0C21262F283D3A333410
:1026D2004E49404752555C5B7671787F6A6D646300
:1026E2003E39303722252C2B0601080F1A1D1413F0
:1026F200AEA9A0A7B2B5BCBB9691989F8A8D8483E0
:10270200DED9D0D7C2C5CCCBE6E1E8EFFAFDF4F3CF
:1032C000151EA81EA605151E151EA81EA60608A6D4
:1032D00007A81E0808E6FFA81EE6FE08E66F2412EF
:1032E000F58274263EF583E493FF051E051E051E38
:0132F00022BB
:03366A000235DB4B
:0F35DB00EF64014E7002C2907F027E0002334CFB
:10355D00EF64014E7011D2907F0CFE122F8CC29031
:08356D007F047E00122F8C2266
:10357500EF64014E7011D2907F04FE122F8CC29021
:083585007F0C7E00122F8C2246
:10325400EF64014E7034D2907F01FE122F8CC29025
:103264007F087E00122F8C758402E5885440C413B5
:10327400135403FFBF010A7F087E00122F8C7F01C5
:0B328400227F087E00122F8C7F0022AA
:062EC9008F4D8C4E8D4F71
:102ECF00E49001DCF0A3F0A3F09001DDF0A3740710
:102EDF00F09001DDE0FEA3E0FFC3EE64809480403C
:102EEF003AE54DA807088002C313D8FC540190019E
:102EFF00DCF07009AF4FAE4E123575800E9001DCCD
:102F0F00E0B40117AF4FAE4E12355D9001DEE024F5
:0B2F1F00FFF09001DDE034FFF080B611
:012F2A002284
:0430CA008E578F5836
:1030CE00E49001DEF0A3F0A3F07407F0AF58AE5712
:1030DE001232549001DEEFF0A3E0FFA3E0FE900168
:1030EE00DEE0FDA806088002C333D8FC4F9001DF56
:1030FE00F0A3E014F0E0C36480948050CF9001DF21
:02310E00E0FFE0
:01311000229C
:03366D0002366AB8
:061F5C008F3F8D408B4118
:101F62009001D81207E6000000007D00AF3F7E001E
:101F72001232C0AD07AF417E001232C0AD07AF4290
:101F82007E001232C0AD07AF407E001232C0900117
:101F9200D7EFF0E54164037021FDAF44FE1232C079
:101FA200AD07AF437E001232C0AD079001D7E0FF0C
:101FB2007E001232C09001D7EFF0754A01754C14C1
:101FC200E54A70030220B7E54C70030220B7AF4622
:101FD200AE45123575AF46AE45123575AD46AC45C8
:101FE200AF3F122EC9AF46AE45123575AD46AC4570
:101FF200AF41122EC9AD46AC45AF42122EC9E541E2
:1020020070028028AD46AC45AF40122EC9E540B4FF
:10201200F6028018E54164037029AD46AC45AF4431
:10202200122EC9AD46AC45AF43122EC99001D7E07E
:10203200FF854751854852854953AB46AA457DFFE6
:102042000222F1E54164017067E54264027061E5D4
:102052004A603F9001D7E0FF854751854852854944
:1020620053AB46AA45E4FD1222F18F4BE54B702299
:102072009001D8E0FCA3E0FDA3E0FEA3E0FFAB47A4
:10208200AA48A9491207AE12002D9001D81207DA08
:10209200154AE54A701A9001D8E0FCA3E0FDA3E0DE
:1020A200FEA3E0FFAB47AA48A9491207507F0022CE
:0720B200154C021FC2AF4BE9
:0120B9002204
:0822F1008F4D8D4E8A4F8B507A
:1022F900E4F556AF50AE4F1230CAE54D6F60037F1B
:10230900FF22EFF4B54D037FFD22E54EB4FF037FB5
:102319000122E54E60030223FDAF50AE4F1230CAD1
:102329008F54AF50AE4F1230CA8F55AF50AE4F12C7
:1023390030CA8F567D00AF547E001232C0AD07AF50
:10234900557E001232C0EF655660037FFE22E555C7
:1023590030E7096355FFE554F404F554E555FE7C6F
:1023690000E42554FFEC3EFE9001DCF0A3EFF0FD04
:10237900AC06EC120336E4FBFA79807842120227A4
:10238900AB51AA52A953120750AB51AA52A953C033
:1023990003C002C0011207007BCC7A5D795B783FEC
:1023A900120029D001D002D003120750AB51AA5212
:1023B900A953120700E4FBFA79C878421202C44013
:1023C90017AB51AA52A953120700E4FBFA792078F6
:1023D900C11202C4600540037FFA22AB51AA52A977
:1023E900531207007BCC7A5D795B78BF1202C47007
:0623F900037FFB227F00C0
:0123FF0022BB
:06365500E4F584D2A62278
:1035B9007F327E00122F8CD2A57F327E00122F8C93
:0335C900C2A52276
:023443008F46B2
:10344500754707AF47E546A807088002C313D8FCB0
:103455001392A61235B91547C3E547648094805089
:03346500E2C2A61A
:013468002241
:10321700E4F545F546F5477545077F327E00122FE1
:103227008CA2A7E433F546AF45A807088002C3334D
:10323700D8FC4247D2A57F327E00122F8CC2A5153B
:0C32470045C3E5456480948050D0AF473B
:013253002258
:100026000203DBE86480F8E933E83360110460F02A
:10003600ED33EC337009E8FCE9FDEAFEEBFF220440
:1000460060DED3EB9FEA9EE99DE8C2E78CF0C2F73B
:1000560095F0400CE8CCF8E9CDF9EACEFAEBCFFB07
:100066001203A685D0F05804700320D5B3E80470B7
:10007600075002B2D50203E592D5EC0460F7E4CC52
:10008600C0E0C398F8603B94186008400DD0E0FBD0
:100096000203BDE4FBFAC9FC8028E830E406E4C9A3
:1000A600FBE4CAFCE830E305E4C9CACBFCE8540724
:1000B6006010F8C3E913F9EA13FAEB13FBEC13FC2F
:1000C600D8F130F52FC3E49CFCEF9BFFEE9AFEEDD2
:1000D60099FDD0E0FBEF4E4D4C701222DB0302037C
:1000E600E2EC2CFCEF33FFEE33FEED33FDED30E7B3
:1000F600EB0203BDEF2BFFEE3AFEED39FDD0E0FB40
:1001060050130BBB00030203E5ED13FDEE13FEEFE8
:0801160013FFEC13FC0203BD12
:10011E00EC4D6011E8497017ED33EC3304600DE4DB
:10012E00FCFFFEFD22E933E8330470F80203DB1214
:10013E0003A658046009E4CC248150062850090215
:10014E0003E52840030203E2C0E0EB4A7044B980A5
:10015E0006D0E0FB0203D1EF4E701CBD8008EBFF12
:10016E00EAFEE9FD80EBE98DF0A4FEE5F002020760
:10017E00E9CDF9EAFEEBFFEF89F0A4FCE5F0CE89BC
:10018E00F0A42EFFE435F0CD89F0A42DFEE435F079
:10019E008067EF4E7005BD80D780C3EF8BF0A4ACA7
:1001AE00F0EE8BF0A42CFCE435F0F8EF8AF0A42CE2
:1001BE00E5F038FCE433CB8DF0A42CFCE5F03BF8F5
:1001CE00EE8AF0A42CFCE5F038F8E433CF89F0A4E5
:1001DE002CFCE5F038CF3400CE89F0A42FFFE5F0EB
:1001EE003EFEE433C98DF0A42EFEE5F039CD8AF043
:1001FE00A42FFFE5F03EFEE43DFD33D0E0FB5007BB
:10020E000BBB000F0203E5EC2CFCEF33FFEE33FECD
:06021E00ED33FD0203BDFB
:100224000203E5EC5D046005E8590470030203DB96
:100234001203A6580460F6EC4860F2EC7004FDFE6C
:10024400FF22C860DB2481C85009C39860025006AD
:100254000203E29850CAF582E9294B4A7005AB8241
:100264000203D175F0007C1A7880C3EF9BEE9AEDFF
:1002740099400DC3EF9BFFEE9AFEED99FDE842F025
:10028400DC23ACF0D0E0FFD0E0FED0E0FDAB822078
:10029400E7101BEB60BAEC2CFCEF33FFEE33FEED02
:1002A40033FD0203BDE803F830E705C0F075F00044
:1002B400EF2FFFEE33FEED33FD40B830E7C280AAE6
:1002C40074F8CC6480CCC86480C8F582046043C3ED
:1002D400EB9FF5F0EA9E42F0E99D42F0E89C45F080
:1002E40060305018E5825FFFE582F42B5582FB50A5
:1002F400210ABA001D09B90019088016E5825BFBC2
:10030400E582F42F5582FF50090EBE00050DBD0095
:10031400010CC3EB9FF5F0EA9E42F0E99D42F0E840
:0D0324009C45F06007CC4820E701B3EC22B7
:1003310075F020800E75F010800575F0087D007E47
:10034100007F003392D530D5031206CBEC33401039
:10035100EF33FFEE33FEED33FDEC33FCD5F0ED2250
:0E036100E5F0247EA2D513CC92E7CDCEFF228C
:10036F00EDD2E7CD33EC3392D524814006E4FFFE86
:10037F00FDFC22FCE4CFCECDCC24E0501174FF80E5
:10038F00EDC3CC13CCCD13CDCE13CECF13CF047082
:07039F00F030D5DE0206CBB1
:1003A600E9D2E7C933E833F892D5EDD2E7CD33EC9D
:0703B60033FC5002B2D52216
:1003BD00EC30E7100FBF000C0EBE00080DBD0004A1
:1003CD000BEB6014A2D5EB13FCED92E7FD2274FF4D
:1003DD00FCFDFEFF22E480F8A2D574FF13FC7D80A6
:0303ED00E480EFBA
:03000000022B0DC3
:0C2B0D00787FE4F6D8FD758196022B5409
:1003F000BB010689828A83E0225002E722BBFE020B
:09040000E32289828A83E493223D
:10040900BB010CE58229F582E5833AF583E02250A8
:1004190006E92582F8E622BBFE06E92582F8E222F2
:0D042900E58229F582E5833AF583E493220C
:10043600BB010689828A83F0225002F722BBFE01A5
:02044600F3229F
:10044800F8BB010DE58229F582E5833AF583E8F0EA
:10045800225006E92582C8F622BBFE05E92582C896
:02046800F2227E
:10046A00EF8DF0A4A8F0CF8CF0A428CE8DF0A42EA6
:02047A00FE2260
:10047C00C2D5EC30E709B2D5E4C39DFDE49CFCEE9B
:10048C0030E715B2D5E4C39FFFE49EFE1208B9C352
:10049C00E49DFDE49CFC80031208B930D507C3E44D
:0604AC009FFFE49EFE220A
:1004B200BB010A89828A83E0F5F0A3E02250068715
:1004C200F009E71922BBFE07E3F5F009E3192289D7
:0B04D200828A83E493F5F0740193220A
:1004DD00BB010789828A8302090E500B09C5F027DB
:1004ED00F7C5F01937F722BBFE0D09F8E325F0F338
:1004FD00C5F019E338F322F889828A8374019325B4
:08050D00F0C5F0F8E493382278
:10051500BB010DC58229C582C5833AC58302090E73
:100525005011C58229F808E5F026F618F5F0E582A0
:1005350036F622BBFE11C58229F808E225F0F5F052
:10054500F218E23582F222F8E58229F582E5832A5E
:0D055500F58374019325F0F5F0E49338224E
:10056200BB010A89828A83F0E5F0A3F0225006F7E4
:0F05720009A7F01922BBFE06F3E5F009F31922E1
:10058100F8BB0111E58229F582E5833AF583E8F0AC
:10059100E5F0A3F0225009E92582C8F608A6F02269
:0D05A100BBFE09E92582C8F2E5F008F22250
:1005AE00E88FF0A4CC8BF0A42CFCE98EF0A42CFCEC
:1005BE008AF0EDA42CFCEA8EF0A4CDA8F08BF0A46A
:1005CE002DCC3825F0FDE98FF0A42CCD35F0FCEBC9
:1005DE008EF0A4FEA9F0EB8FF0A4CFC5F02ECD398E
:0F05EE00FEE43CFCEAA42DCE35F0FDE43CFC22FB
:1005FD0075F008758200EF2FFFEE33FECD33CDCCB5
:10060D0033CCC58233C5829BED9AEC99E582984037
:10061D000CF582EE9BFEED9AFDEC99FC0FD5F0D614
:10062D00E4CEFBE4CDFAE4CCF9A88222B800C1B93E
:10063D000059BA002DEC8BF084CFCECDFCE5F0CB7C
:10064D00F97818EF2FFFEE33FEED33FDEC33FCEBB5
:10065D0033FB10D703994004EB99FB0FD8E5E4F970
:10066D00FA227818EF2FFFEE33FEED33FDEC33FC5D
:10067D00C933C910D7059BE99A4007EC9BFCE99A51
:10068D00F90FD8E0E4C9FAE4CCFB2275F010EF2F96
:10069D00FFEE33FEED33FDCC33CCC833C810D70796
:1006AD009BEC9AE899400AED9BFDEC9AFCE899F8D1
:0E06BD000FD5F0DAE4CDFBE4CCFAE4C8F92264
:0E06CB00C3E49FFFE49EFEE49DFDE49CFC2240
:1006D900EB9FF5F0EA9E42F0E99D42F0EC6480C898
:0606E90064809845F02238
:1006EF00EB9FF5F0EA9E42F0E99D42F0E89C45F061
:0106FF0022D8
:10070000BB010789828A830209305005E9F8020992
:1007100024BBFE05E9F802093C89828A8302078E20
:10072000BB010DE58229F582E5833AF583020930A4
:100730005007E92582F8020924BBFE07E92582F863
:1007400002093CE58229F582E5833AF58302078EAA
:10075000BB010789828A830207DA5005E9F802079C
:0A076000CEBBFE05E9F802096E2287
:10076A00BB010DE58229F582E5833AF5830207DAB2
:10077A005007E92582F80207CEBBFE07E92582F871
:04078A0002096E22D0
:10078E00E493FC740193FD740293FE740393FF22B1
:10079E00E493F8740193F9740293FA740393FB22B1
:1007AE00BB010789828A830209555005E9F80209BF
:1007BE0048BBFE05E9F802096189828A8302079E19
:0C07CE00ECF608EDF608EEF608EFF62257
:0C07DA00ECF0A3EDF0A3EEF0A3EFF02292
:1007E600A8828583F0D083D0821207FD1207FD12FE
:1007F60007FD1207FDE473E493A3C583C5F0C58323
:10080600C8C582C8F0A3C583C5F0C583C8C582C85C
:0108160022BF
:10081700BB010789828A830209835005E9F8020927
:100827007ABBFE05E9F802098C89828A8302099559
:10083700BB010DE58229F582E5833AF58302098339
:100847005007E92582F802097ABBFE07E92582F8F5
:1008570002098CE58229F582E5833AF58302099539
:10086700D083D082F8E4937012740193700DA3A320
:1008770093F8740193F5828883E473740293686034
:06088700EFA3A3A380DF34
:102FE2008B438A448945E4F54BF54CE54A154AAED4
:102FF20049700215494E6033AB46AA47A9481203ED
:10300200F0FFAB43AA44A945054CE54CAC4B70021A
:10301200054B14F5828C83EF120448EF60CD7401E6
:103022002548F548E43547F54780C0AB43AA44A993
:02303200452235
:10088D00EF4E6012EF60010EEDBB010B89828A8382
:10089D00F0A3DFFCDEFA2289F05007F709DFFCA98F
:0C08AD00F022BBFEFCF309DFFCA9F022E6
:102B1900023644E493A3F8E493A34003F68001F258
:102B290008DFF48029E493A3F85407240CC8C333BD
:102B3900C4540F4420C8834004F456800146F6DF8C
:102B4900E4800B0102040810204080902890E47E64
:102B5900019360BCA3FF543F30E509541FFEE49381
:102B6900A360010ECF54C025E060A840B8E493A348
:102B7900FAE493A3F8E493A3C8C582C8CAC583CA73
:102B8900F0A3C8C582C8CAC583CADFE9DEE780BE2B
:012940000096
:1008B900BC000BBE0029EF8DF084FFADF022E4CC23
:1008C900F875F008EF2FFFEE33FEEC33FCEE9DECEC
:1008D900984005FCEE9DFE0FD5F0E9E4CEFD22ED32
:1008E900F8F5F0EE8420D21CFEADF075F008EF2F7C
:1008F900FFED33FD4007985006D5F0F222C398FD6D
:050909000FD5F0EA2209
:10090E00C5F0F8A3E028F0C5F0F8E5821582700274
:06091E001583E038F02211
:0C092400E6FC08E6FD08E6FE08E6FF22FF
:0C093000E0FCA3E0FDA3E0FEA3E0FF223A
:0C093C00E2FC08E2FD08E2FE08E2FF22F7
:0D094800E6FB08E6F908E6FA08E6CBF8221F
:0C095500E0F8A3E0F9A3E0FAA3E0FB2225
:0D096100E2FB08E2F908E2FA08E2CBF82216
:0C096E00ECF208EDF208EEF208EFF222C5
:09097A00E6FB08E6FA08E6F922A2
:09098300E0FBA3E0FAA3E0F92275
:09098C00E2FB08E2FA08E2F9229C
:0C099500E493FB740193FA740293F922BE
:00000001FF
