:0D35B700E4F58475E8C075BC8075D107226D
:10324000E4F584EF540FF5BBE5BC54F84DF5BCE450
:10325000F5BAC2AFC2EDD2ECC2EDD2EC20ECFDD299
:10326000AFE5BF5403FEADBE7C00E42DFFEC3EFE97
:01327000223B
:101B4F003FF353F8400000003FB6872B3FB6872B7B
:101B5F003F8000003F8000003FB6872B3FB6872BAA
:101B6F000000000000000000000000000000000066
:101B7F000000000000000000000000000000000056
:101B8F00636D6200043400000053657269616C4E2E
:101B9F000001006B02340000004572726F7200008A
:101BAF000001006F0134000000436F6E74726F6CA0
:101BBF0000010071013400000053746174757300EB
:101BCF000001007201340000004545506167650057
:101BDF000001007301340000005370617265000052
:101BEF00000100740406000001704449344D6F6E0B
:101BFF00000100750418000001704456344D6F6EDB
:101C0F0000010079041800000170415633334D6F05
:101C1F006E01007D041800000170415632354D6F82
:101C2F006E010081041800000170445631354D6F6C
:101C3F006E010085041800000170445631384D6F55
:101C4F006E010089041800000170445632354D6F43
:101C5F006E01008D041800000170445633334D6F30
:101C6F006E0100910408000001754354656D70000A
:101C7F000001009504080000014670676154656D0E
:101C8F007001009904080000015672673154656DA8
:101C9F007001009D04080000015672673254656D93
:101CAF00700100A10234000000724449344D6F6E80
:101CBF00000100A50234000000724456344D6F6ECF
:101CCF00000100A7023400000072415633334D6FFC
:101CDF006E0100A9023400000072413235564D6F7B
:101CEF006E0100AB023400000072445631354D6F67
:101CFF006E0100AD023400000072445631384D6F52
:101D0F006E0100AF023400000072445632354D6F41
:101D1F006E0100B1023400000072445633334D6F30
:101D2F006E0100B3043400000965657056616C756F
:101D3F00650100B50434000008656543747253658E
:101D4F00740100B900000000000000000000000056
:041D5F000000000080
:102892004801310000020004000600606800C50023
:1028A200000000006E007B0000000040400000407D
:1028B200400000400000003F99999A3FC00000404C
:1028C20000000040400000408000004090000040B6
:1028D2006CCCCD402CCCCD3FD9999A400000004021
:1028E2002CCCCD406CCCCD412000004248000041B0
:1028F200200000424800000000000000000000002C
:10290200000000000000000C6C245265763A20356D
:1029120037342024000178014400C0000000004444
:10292200012D0000000042000100004200BD000035
:092932000369FF1B934100000042
:0F357D00C2AF900071E524F0A3E521F0D2AF2298
:04000E00A21492386E
:10001200C2AFD23890006FE522F0A3E523F0D2AF51
:0100220022BB
:10353E00900071E524F0A3E521F090006FE522F0F4
:07354E00A3E523F0D2AF2238
:0734F6009000BDA3E0F4FF0C
:1034FD008F45C2A17F011233F4AF451233F4D2A12F
:01350D00229B
:0C35C400C2A17F021233F41231C8D2A160
:0135D00022D8
:10343C008F828E83C2AFAF44AE43AD42AC41120714
:10344C00DA30380A90006FE522F0A3E523F0D2AF12
:01345C00224D
:102B97008F44E5446401706D75840F53A6F7C2A393
:102BA700F522F523900072E0F521D208C20EC20F7C
:102BB700C2AFE521F090006FE522F0A3E523F0D244
:102BC700AF43A62043A64053A67F43A602D2A11235
:102BD70036087FE87E031232FD1234F67F647E00EA
:102BE700122F811235C4900073EFF07F647E0012BC
:102BF7002F811234F67F647E00122F811235C49024
:0F2C07000074EFF022E544700575840FD2A3220C
:0820BC008F3F8B408A418942ED
:1020C4009001DC1207E600000000E49001D4F0A3C4
:1020D400F0AD43AF3F1232409001DAEEF0A3EFF0DF
:1020E400A3E0F8A3E0F9A3E0FAA3E0FB9001DAE0AF
:1020F400FEA3E0FFE4FCFDEB2FFFEA3EFEED39FD1D
:10210400EC38FCA31207DA122D889001D5E004F014
:1021140070069001D4E004F0C39001D5E0940A90D5
:1021240001D4E0940040AAE47B0AFAF9F89001DCB7
:10213400E0FCA3E0FDA3E0FEA3E0FF120639AB4000
:10214400AA41A942EE8FF0120562AB40AA41A9420E
:102154001204B2FDACF0E41203369001D61207DA91
:10216400E4FBFA798078449001D6E0FCA3E0FDA377
:10217400E0FEA3E0FF1202277BB87A1E791D7840A7
:1021840012011E9001D61207DAE53F6408603EE5AD
:102194003F25E025E0244FF582E4341BF583120744
:1021A4008E9001D6E0F8A3E0F9A3E0FAA3E0FB12D5
:1021B400011EE53F25E025E0246FF582E4341BF59C
:1021C4008312079E12002D9001D61207DA9001D6D1
:0B21D400E0FCA3E0FDA3E0FEA3E0FFA1
:0121DF0022DD
:021D63008F43AC
:101D6500E49001BAF0A3F09001B9F09001B9E0FF59
:101D7500C364809484501A74722FF9C3E764809405
:101D8500B05006E02472F876309001B9E004F08096
:101D9500DA7873E6FF3395E0FEEF24D0FFEE34FFEB
:101DA500FE7C007D6412046AAA06AB077872E6FF22
:101DB5003395E0FEEF24D0FFEE34FFFE7C037DE893
:101DC50012046AEF2BFBEE3AFA7874E6FF3395E0DE
:101DD500FEEF24D0FFEE34FFFE7C007D0A12046A7C
:101DE500EF2BFFEE3AFE7875E6FD3395E0FCED242A
:101DF500D0FDEC34FFCD2FF50DED3EF50C1236136D
:101E05009001BAE4F0A3EFF0E54360379000991232
:101E150007E60000000090009D1207E600000000A4
:101E25009000A11207E600000000E490006FF0A307
:101E3500F090006B1207E6000000001236137508DB
:101E4500008F09E4900071F0A3F090006FF0A3F00B
:101E5500900074F0900073F0900071E0F524A3E019
:101E6500F521750A01750B9075840F43A4207584BF
:101E75000F1235B775840F43A50175840243888019
:101E85007589037F017E0012362075840FE4F5A75E
:101E950075B0FFAFB09000BDF0A3EFF09000BDE0CE
:101EA500FEA3E0F4FFEEF4FEEF7803C333CE33CEAA
:101EB500D8F9FFEE5401FEEF54F8FF900001EEF063
:101EC500A3EFF0EE5401FEEF54FC4404FF9001BA79
:101ED500EEF0A3EFF08E08F50975840F43A5804356
:101EE500A50653A5DF1236187B017A0079C5754919
:101EF50000754A047F007E06122E5B9000C5E0FC4B
:101F0500A3E0FDA3E0FEA3E0FF90006B1207DA90CB
:101F15000131E0FEA3E0FF7B017A0079C575490038
:101F2500754A68122E5BC2AFD2AF75840F53A47F7A
:101F3500D209D28775840F53A6EF43A601E4FF1299
:101F45002B97C20FC208C227C223C2AF900071E50A
:081F550024F0A3E521F0D2AF56
:011F5D002261
:10341A00151EA81EEFF6900072E0F521A81EE6FF21
:10342A00B40206900071E0F524EFB41B02D2010544
:02343A001E2250
:05360E008F397F00224E
:1032D0008B398A3A893B1203F0AB3CAA3DA93E12D6
:1032E0000436AB39AA3AA93B900001120409AB3C61
:0D32F000AA3DA93E9000011204487F022271
:10113F003020157F01122B977F647E001232FDD273
:10114F0000C220E4F522F523302714900072E0F559
:10115F0021D20FE4FF122B97C208C22712357D3020
:10116F002118900072E0F521300906C209C287806C
:10117F0004D209D287C22112357D30223FE490017B
:10118F00D0F0A3F0D2A07F017E00122F81C2A07FEA
:10119F00017E00122F819001D1E004F070069001C2
:1011AF00D0E004F0C39001D1E094039001D0E0941B
:1011BF000040D17F097E00122F81C22230231412EA
:1011CF0034F67F697E00122F811235C4900074EFC0
:1011DF00F0C2232001030212C49000B9E0FCE4FF27
:1011EF00FEFDEC543CFC70030212B49000B9E0FC1D
:1011FF00A3E0FDA3E0FEA3E0FFC3EF94027480948D
:10120F008050030212A49000B9A3A3A3E4FEFDFC37
:10121F007B04FAF9F81205AE7B0174C52FF974003F
:10122F003EFAEB3D9001C4F0A3EAF0A3E9F0900081
:10123F00B9A3E0FDED5422FDED601E9000B5E0FC7A
:10124F00A3E0FDA3E0FEA3E0FF9001C4E0FBA3E059
:10125F00FAA3E0F9120750805A9000B9A3E0FDE419
:10126F00FFFEED5411FDE4FCED601AC2AF9001C416
:10127F00E0FBA3E0FAA3E0F91207009000B5120714
:10128F00DAD2AF802EC2AF9000B91207E6FF00008E
:10129F0000D2AF801EC2AF9000B91207E60000FF68
:1012AF0000D2AF800EC2AF9000B91207E600FF0068
:1012BF0000D2AFC20120240302135A900000E07045
:1012CF002D900072E0F521A3E0540725E02431F5BD
:1012DF0082E43401F583E0FFA3E09001C7CFF0A3D0
:1012EF00EFF0A37401F0A37400F0A374C5F03026DF
:1012FF0007E49001CCF080069001CC7401F09001CE
:10130F00C7E0FEA3E0FF7544007545689001CCE08F
:10131F00F5467547017548007549007B017A0179DB
:10132F00C912250C9000BFEFF0BF011AD20CE49048
:10133F000000F0C224900073E0FF5407C43354E060
:10134F00FEEF4EF08002C20C12357D30253C90002E
:10135F0072E0F521A3E0540725E02431F582E4344F
:10136F0001F583E0FEA3E0FF7B017A0079C57549A3
:10137F0000754A68122E5B9000C4EFF0BF0106C2E1
:10138F0025D20D8002C20D12357D20002D1235DEC3
:10139F009000C0E0F8A3E0F9A3E0FAA3E0FBC3EFED
:1013AF009BFFEE9AFEED99FDEC98FCE47B02FAF9B7
:1013BF00F8C31206EF400302155C9001C17401F0EF
:1013CF00A37400F0A37475F09001CD7401F0A374B1
:1013DF0000F0A374A5F0E49000C4F09000C4E0FF07
:1013EF00C39408506D7B017A0179D2E4F543122042
:1013FF00BC9001B91207DAC2AF9001B9E0FCA3E0CB
:10140F00FDA3E0FEA3E0FF9001C1E0FBA3E0FAA380
:10141F00E0F99000C4E075F004A4F58285F0831222
:10142F00076A9001D2E0FEA3E0FF9001CDE0FBA39D
:10143F00E0FAA3E0F99000C4E075F002A4F582850C
:10144F00F083EE8FF0120581D2AF9000C4E004F06C
:10145F0080897B017A0179D2E4F5437F081220BCA1
:10146F009001B91207DA7FF07EA77D467CBF90010D
:10147F00B9E0F8A3E0F9A3E0FAA3E0FB12002DE432
:10148F00FBFA797A784412011E7B3D7A0A79377814
:10149F00401202279001BD1207DAE4FFFE7D207C87
:1014AF00419001BDE0F8A3E0F9A3E0FAA3E0FB123D
:1014BF00011EE4FBFAF9783F12002D12036FCDEFF6
:1014CF00CDCCEECCEC120336E4FBFA792078411246
:1014DF0002279001BD1207DA90010DE0FCA3E0FD99
:1014EF00A3E0FEA3E0FF9001BDE0F8A3E0F9A3E0C5
:1014FF00FAA3E0FB1202C44023900111E0FCA3E029
:10150F00FDA3E0FEA3E0FF9001BDE0F8A3E0F9A387
:10151F00E0FAA3E0FB1202C460044002D2107E0086
:10152F007F95EEC0E09001BDE0FCA3E0FDA3E0FEDF
:10153F00A3E0F5448E438D428C41A2109238D0E047
:10154F00FE12343C1235DE9000C01207DA122D88DD
:10155F0020002D1235DE90012DE0F8A3E0F9A3E075
:10156F00FAA3E0FBC3EF9BFFEE9AFEED99FDEC981B
:10157F00FCE47B01FAF9F8C31206EF40030217509F
:10158F00754202E4F543F544F5457546017547018B
:10159F007548017549BD7B01FD7F48121F5EEF70D5
:1015AF006E900115E0FCA3E0FDA3E0FEA3E0FF9029
:1015BF0001BDE0F8A3E0F9A3E0FAA3E0FB1202C437
:1015CF004023900119E0FCA3E0FDA3E0FEA3E0FFA0
:1015DF009001BDE0F8A3E0F9A3E0FAA3E0FB12024B
:1015EF00C460044002D2127E007F9DEEC0E09001E5
:1015FF00BDE0FCA3E0FDA3E0FEA3E0F5448E438D28
:10160F00428C41A2129238D0E0FE12343C80031279
:10161F00000E754202E4F543F544F5457546017534
:10162F0047017548017549BD7B017D017F48121F38
:10163F005EEF706E900115E0FCA3E0FDA3E0FEA34A
:10164F00E0FF9001BDE0F8A3E0F9A3E0FAA3E0FB0F
:10165F001202C44023900119E0FCA3E0FDA3E0FEB9
:10166F00A3E0FF9001BDE0F8A3E0F9A3E0FAA3E047
:10167F00FB1202C460044002D2137E007FA1EEC0B1
:10168F00E09001BDE0FCA3E0FDA3E0FEA3E0F54484
:10169F008E438D428C41A2139238D0E0FE12343C1F
:1016AF00800312000E754202E4F543F544F54575CB
:1016BF0046017547017548017549BD7B017D027F64
:1016CF0048121F5EEF706E90010DE0FCA3E0FDA3CA
:1016DF00E0FEA3E0FF9001BDE0F8A3E0F9A3E0FA7C
:1016EF00A3E0FB1202C44023900111E0FCA3E0FD34
:1016FF00A3E0FEA3E0FF9001BDE0F8A3E0F9A3E0B3
:10170F00FAA3E0FB1202C460044002D2117E007FF4
:10171F0099EEC0E09001BDE0FCA3E0FDA3E0FEA3C5
:10172F00E0F5448E438D428C41A2119238D0E0FEF9
:10173F0012343C800312000E1235DE90012D120779
:10174F00DA9001C17401F0A37400F0A37475F0E492
:10175F009000C4F09001C1E0FBA3E0FAA3E0F99080
:10176F0000C4E075F004A4F58285F0831207209081
:10177F0000C4E025E025E024CDF582E43400F583B4
:10178F00E0F8A3E0F9A3E0FAA3E0FB1202C46002C1
:10179F00503C9001C1E0FBA3E0FAA3E0F99000C434
:1017AF00E075F004A4F58285F0831207209000C441
:1017BF00E025E025E024EDF582E43400F583E0F840
:1017CF00A3E0F9A3E0FAA3E0FB1202C4501B9000C0
:1017DF00C4E0FF74017E00C8EFC8088005C333CE94
:1017EF0033CED8F94223EE42229000C4E004F0E059
:1017FF0064086003021763C2AF90006FE522F0A385
:10180F00E523F0D2AF20A403D38001C39217300891
:10181F0011E522540F600BE4FF122B97C208D20E72
:10182F00800B300008C200C20FC20ED20802357DF5
:0C35EB00245265763A203534322024004A
:10183F00E47880F612359B75840F75E104E4F5E2C8
:10184F0075E34475E104F5E275E340F58475B7B0CF
:10185F0075840F758A83F597438901758D01758F8F
:10186F0001758E04F541F5420542E54270020541CE
:10187F00640F454170F2438902E4F541F542AE41F0
:10188F00AF42E4FCFD7B507AC3F9F8D31206D9407E
:10189F000FE58920E40A0542E54270E2054180DE4A
:1018AF0075970212347DE4F541F5427D01AF421286
:1018BF0033CD0542E54270020541C39401E54194E1
:1018CF000040E8E4F525C232C230C236C235C23418
:1018DF007880F6C28508F67890F618F67895F6F5C2
:1018EF0041F54274392542F582E43401F583E4F081
:1018FF000542E542700205416440454170E5E4F55B
:10190F0041F54274792542F582E43401F583E4F020
:10191F000542E542700205416440454170E5E4F53A
:10192F0084E5EF20E10CE5EF5408D394004003D396
:10193F008001C3922B7D08E4FF123352E47894F6B2
:10194F00788DF6AB69AA6AA96B788DE6FF75F010F2
:10195F00A4F58285F083120409FE789426F6EE60D2
:10196F0005788D0680DDEFD394004030AB69AA6A0D
:10197F00A96B90000D1208371203F0FF7455120473
:10198F00361203F064556002D23474AA1204361270
:10199F0003F064AA6002D234EF120436E4F584E552
:1019AF00EF5402D3940040047F018002E4FF12271A
:1019BF00148F40E54020E035C23174FFF508F5097A
:1019CF00F50AF50B7E007F107D007B007A00790E03
:1019DF0012088D7546FF75471B75488F7549007541
:1019EF004A107B007A00790E122FD78002D23190E5
:1019FF0035F2E493FF3395E0FEEF24D0FFEE34FF92
:101A0F00FE7C007D6412046AAA06AB079035F1E4F0
:101A1F0093FF3395E0FEEF24D0FFEE34FFFE7C03FF
:101A2F007DE812046AEF2BFBEE3AFA9035F3E4935C
:101A3F00FF3395E0FEEF24D0FFEE34FFFE7C007DF8
:101A4F000A12046AEF2BFFEE3AFEA3E493FD3395DF
:101A5F00E0FCED24D0FDEC34FFCD2FF50DED3EF580
:101A6F000CE54030E103021B26E4F541F542E54267
:101A7F00C4F8540FC868FFE541C454F048FEAB6981
:101A8F00AA6AA96B8F82F5831204097003021B1DCA
:101A9F00E92FF9EA3EFA90000412040920E264E407
:101AAF00F53FE53FC37878965059E542C4F8540F97
:101ABF00C868FFE541C454F048AB69AA6AA96B8FA7
:101ACF0082F583120409FF7E00C006C0077D00E582
:101ADF0042C4F8540FC868FFE541C454F048FEE90A
:101AEF002FF9EA3EFA90000D1208377894E6853FF9
:101AFF00F0A429F9EA35F0FAD007D00612088D05BF
:101B0F003F809F0542E54270020541021A7D7F0129
:101B1F00121D63C2338007E4FF121D63D233E4F555
:101B2F0041F5427A007B967D03AF42122D0F05429D
:0F1B3F00E54270020541C39401E541940040E482
:011B4E002274
:053613007895E6FF229E
:030023000221E0D7
:1021E000C0E0C0F0C083C082C0D075D000C000C0C5
:1021F00001C002C003C004C005C006C00730993E3C
:10220000C2997890067990E77881667015F6789093
:01221000F6D7
:0D22110075280A75291300D529FCD528F67B
:04221E00C285801CD9
:0D22220075281475291300D529FCD528F660
:10222F007890E62479F582E43401F583E0F599207E
:10223F0098030222D8209A08203205C2980222D48D
:10224F00C29A788FE6062439F582E43401F583E5E6
:10225F0099F0C298E6FFB40112900139E0FE7003C5
:10226F00F68066EE540724027896F6EFB4020D78E6
:10227F0096E6B4090790013AE02403F6788FE6FF5B
:10228F00B4400476008042EFC3789696403B788F37
:10229F00E624FFFDE434FFFC7B017A017939122A31
:1022AF007F788FE62438F582E43401F583E06F60A0
:0522BF0004760080140C
:0D22C40075281475291300D529FCD528F6BE
:1022D1001209A1788F7600D007D006D005D004D09E
:1022E10003D002D001D000D0D0D082D083D0F0D0A2
:0222F100E032D9
:102C940090013AE075F010A4AB69256BF9E56A354B
:102CA400F0FA90000D1208377895E6FF18E68FF0D9
:102CB400A4252CF582E435F0F583120409FF7B008A
:042CC4007A00792AEF
:102CC8008F398B3A8A3B893CE4F584EA494B601C8E
:102CD800AB3AAA3BA93C1203F0FFE539FD7C001290
:0C2CE8000003AB3AAA3BA93CEF120436F3
:0D2CF400753D14753E1300D53EFCD53DF630
:0E2D01008539997F0112337B3099FDC29922EA
:0934D900E4F5847881EFF6D28558
:0D34E200753914753A1300D53AFCD539F64A
:0734EF00900179E0F599223C
:10307700C9EFC9E964017028EDC39B40347878E64D
:10308700FFEB2FFFE433FEEDC39FEE6480F87480FF
:1030970098501ED232C3ED9B7895F678917601222F
:1030A700B90214ED6B700AD2327895F678917602F0
:0830B70022C232E47891F622F6
:102F2000C9EFC9BAFF15BBFF12ED6B7002EC6A70F6
:102F300049D2327895F67891E9F622E96401702554
:102F4000C3ED9BEC9A401C7878E62BFFE43AFEC375
:102F5000ED9FEC9E500DD232C3ED9B7895F67891A3
:102F60007601228015B90218ED6B7002EC6A700AC6
:102F7000D2327895F67891760222C232E47891F6D0
:012F8000222E
:1009A100900139E0FF54F8F52BE4F584EF12086764
:1009B10009EE0909FA0A0A0A100A13110A23120A8E
:1009C10037190A4C1A0A6E200A77280B16290C18B7
:1009D100330C4A370C79390C93410C9E490CA850C1
:1009E1000CF0610BE2700CE89800000D2090013AC8
:1009F100E0FDE509FB7F01802390013AE0FCA3E0E3
:100A0100FDAB09AA087F018027D2327891760302D3
:100A11000D2090013AE0FDE50BFB7F0212307702D9
:100A21000D2090013AE0FCA3E0FDAB0BAA0A7F0286
:100A3100122F20020D2090013AE0FDE509FB7F0114
:100A4100123077203203020D20801790013AE0FC2A
:100A5100A3E0FDAB09AA087F01122F202032030277
:100A61000D209001797478F07F01020D1DE4F58469
:100A710075EF10020D20C2ACE4F52AD285FB7A0095
:100A8100792A7F7F122CC87B007A00792A7F18127D
:100A91002CC87B007A00792A7F05122CC8788DE654
:100AA100122CC17B007A00792AAF08122CC87B0076
:100AB1007A00792AAF09122CC87B007A00792AAF13
:100AC1000A122CC87B007A00792AAF0B122CC87B42
:100AD100007A00792AAF0C122CC87B007A00792A9F
:100AE100AF0D122CC8E4F52C740E252CF8E6122C4F
:100AF100C1052CE52CC3941040EE7B007A007900EF
:050B0100AF2A122CC810
:0D0B060075370A75381300D538FCD537F661
:100B1300020BCD90013AE0FFC3788D964003020BA0
:100B2300D4EF75F010A4256BF9E56A35F0856934C7
:100B3300F5358936C2ACE4F52AD285FB7A00792AE9
:100B43007F7F122CC87B007A00792A7F0D122CC874
:100B5300AB34AA35A9361203F0122CC1AB34AA3533
:100B6300A936900001122CBEAB34AA35A9369000E9
:100B730002122CBEAB34AA35A936900003122CBE48
:100B8300AB34AA35A936900004122CBEE4F52CAB85
:100B930034E5362405F9E43535FA7E00E9252CF9E8
:100BA300EE3AFA1203F0122CC1052CE52CC394087B
:0D0BB30040DD7B007A007900AF2A122CC8CB
:0D0BC00075370A75381300D538FCD537F6A7
:100BCD00C285D2AC020D209001797478F0E4A3F0C7
:100BDD007F02020D1D1235DE78821207CE9001794B
:100BED00747CF07882E6A3F008E6A3F008E6A3F0A3
:100BFD0008E6A3F07C007D057B017A017979122A44
:100C0D007F90017EEFF07F06020D1D90013AE0FF0F
:100C1D00B4010BA3E0F508A3E0F509020CE8EFB46D
:100C2D00020990013BE0F508020CE890013AE0B4AE
:100C3D000308A3E0F50AA3E0F50B020CE8E4F52C9C
:100C4D0090013AE0FFE52CC39F501C743B252CF519
:100C5D0082E43401F583E0FF740E252CF8C6EFC64F
:100C6D00052CE52CB410D9E4F51D806F7A007B328C
:100C7D007D017895E6FF122D0F90013AE0FDE4FF1E
:100C8D00123352020D2090013AE024FF922A020DF8
:100C9D002090013AE024FF922980787895E660054E
:100CAD00752E02800B203505752E038003752E01E0
:100CBD009001797479F0A3E52EF07C007D027B0123
:100CCD007A017979122A7F90017BEFF07F0312343C
:100CDD00D9E52E6401703CD2368002D23078807610
:100CED00F180307A007B327D017F00122D0F900153
:100CFD00797479F090013AE090017AF07C007D02F0
:100D0D007B017A017979122A7F90017BEFF07F03C5
:100D1D001234D9E52B64A06003020F2F900139E046
:100D2D0064A16003020E1FA3E0C3788D96400302F9
:100D3D000E14AB69AA6AA96BE0FF75F010A4F582D9
:100D4D0085F083120409F52EEF75F010A429F9EA48
:100D5D0035F0FA90000412040930E23790013AE0C0
:100D6D0012360E8F2E900179747FF0A3E52EF024AC
:100D7D0002FDE433FC7B017A017979122A7F747BC1
:100D8D00252EF582E43401F583EFF0E52E2403FFE3
:100D9D00020F2C90013AE0FF12360EC2ACE4F52A98
:100DAD00D285E52ED39406402B7B007A00792A7FDD
:100DBD007F122CC87B007A00792AAF2E122CC8E442
:100DCD00F52CE52CC3952E5007122C94052C80F292
:100DDD00052E8018E52E2478122CC1E4F52CE52C77
:100DED00C3952E5007122C94052C80F27B007A00AF
:070DFD007900AF2A122CC897
:0D0E040075370A75381300D538FCD537F660
:100E1100020F1E9001797478F07F01020F2C90016E
:100E210039E064A26003020F2F788DE6FFA3E0FE94
:100E3100C39F4003020F24A3E0FDC39F4003020FA1
:100E410024EE9D4003020F2490013AE0F52CE4F5D5
:100E510032F53390013BE0FFE52CD39F5026AF2CB8
:100E610012360EAB69AA6AA96B75F010E52CA4F5D0
:100E71008285F0831204092533F533E43532F532E6
:100E8100052C80CFC2ACE4F52AD285FB7A00792A01
:100E91007F7F122CC8C3E5339480E5329400500261
:100EA1008007E5324480122CC1AF33122CC290016D
:100EB1003AE0F52C90013BE0FFE52CD39F5046E44E
:100EC100F52DAB69AA6AA96B75F010E52CA4F58222
:100ED10085F083120409FFE52DC39F5024E52C758D
:100EE100F010A429F9EA35F0FA90000D12083778CC
:100EF10095E6FF18E68FF0A4252D122CB7052D805D
:100F0100C1052C80AF7B007A007900AF2A122CC872
:0D0F110075370A75381300D538FCD537F652
:100F1E00C285D2AC800B9001797478F07F011234C7
:100F2E00D9E52B6458704DFA7B327D017895E6FF3A
:100F3E00122D0F753C01753D01753E7A7B017A01CC
:100F4E00793A1232D08F2EE52E2478900179F0EF77
:100F5E002401FDE433FC7B017A017979122A7F7436
:100F6E007A252EF582E43401F583EFF0E52E240286
:100F7E00FF1234D9E52B64806009E52B6488600389
:100F8E0002113E7891E6B4010F7A007B327D017832
:100F9E0095E6FF122D0F801AE4F52CE52CC3787818
:100FAE0096500F7A007B327D01AF2C122D0F052C3F
:100FBE0080E9900139E05407F52EB4070A752D012A
:100FCE00A3E0F52EA38006E4F52D90013AE0F52F6F
:100FDE00152EE52FC3788D964003021112AB69AA28
:100FEE006AA96B75F010E52FA4F58285F0831204C3
:100FFE0009FFE52ED39F40028F2E7891E6B40109AA
:10100E007895E6F531F5308009E4F5307878E61418
:10101E00F5317895A6307895E6D3953140030211D7
:10102E0006E4F52CE52CC3952E40030210FBE52FAC
:10103E0075F010A4AB69256BF9E56A35F0FA9000EE
:10104E000412040930E2030210F6900001120409A2
:10105E0064387041E52ED394044011E52D252C24DF
:10106E003BF582E43401F583E0FD805E788FE6C3C4
:10107E00952CFFE49400FE74372FF58274013EF533
:10108E0083E0FDE52F75F010A4AB69256BF9E56AD9
:10109E0035F0FA8035AB69AA6AA96B75F010E52FA9
:1010AE00A4F58285F083120409FFC3788FE69F258D
:1010BE002C252D2438F582E43401F583E0FDE52F4F
:1010CE0075F010A429F9EA35F0FA90000D120837E0
:1010DE007895E6FF18E68FF0A4FFE52C2FF582E455
:1010EE0035F0F583ED120448052C021032AF2F12A5
:1010FE00341A7895060210247895A630E52B64886C
:10110E00702E8010E52FB4FF2790013BE0F525E50A
:10111E002BB4881C9001797478F0788FE62438F51A
:10112E0082E43401F583E090017AF07F021234D923
:01113E00228E
:10D000007880E664F1600302D60CE4F549F54A78CD
:04D0100081E6601F36
:0DD01400754F0A75501300D550FCD54FF62E
:10D02100054AE54A7002054964107004E549642720
:10D0310070DCC2AF7584015398FC75FFDE75FFADDE
:10D04100E4F545F544E4F58420982EE4F549F54AE4
:0ED05100209822C3E54A9488E54994135017AD
:0DD05F00754F0A75501300D550FCD54FF6E3
:10D06C00054AE54A70DF054980DBB2A780CF859978
:10D07C0044C298E544641A600302D14CF549F54A60
:0ED08C00209822C3E54A9488E5499413501772
:0DD09A00754F0A75501300D550FCD54FF6A8
:10D0A700054AE54A70DF054980DB30989285994546
:10D0B700C298E4F549F54A209822C3E54A9488E5E1
:05D0C70049941350170D
:0DD0CC00754F0A75501300D550FCD54FF676
:10D0D900054AE54A70DF054980DB20980302D046FE
:10D0E900859945C298E4F549F54A209822C3E54A4D
:08D0F9009488E54994135017D7
:0DD10100754F0A75501300D550FCD54FF640
:10D10E00054AE54A70DF054980DB20980302D046C8
:09D11E00859945C298D285C29999
:0DD12700754F1475501300D550FCD54FF610
:06D134007599783099FDA9
:0DD13A00754F0A75501300D550FCD54FF607
:10D14700C28502D5FEE5446450600302D1DCF5498F
:10D15700F54A209822C3E54A9488E5499413501765
:0DD16700754F0A75501300D550FCD54FF6DA
:10D17400054AE54A70DF054980DB20980302D04662
:09D18400859945C298D285C29933
:0DD18D00754F1475501300D550FCD54FF6AA
:08D19A007599793099FDC299E5
:0DD1A200754F1475501300D550FCD54FF695
:08D1AF007599013099FDC29948
:0DD1B700754F1475501300D550FCD54FF680
:06D1C400E4F5993099FD2D
:0DD1CA00754F0A75501300D550FCD54FF677
:0FD1D700C28502D5FEE5446401703ED285C2993F
:0DD1E600754F1475501300D550FCD54FF651
:08D1F3007599783099FDC2998D
:0DD1FB00754F1475501300D550FCD54FF63C
:06D20800E4F5993099FDE8
:0DD20E00754F0A75501300D550FCD54FF632
:10D21B00C28502D5FEE5446402600302D2E2F54901
:10D22B00F54A209822C3E54A9488E5499413501790
:0DD23B00754F0A75501300D550FCD54FF605
:10D24800054AE54A70DF054980DB20980302D0468D
:10D25800859945C298E4F546E54513B392A7E54597
:10D2680025E0FEC3E49400EE94D0502AE5457F0003
:10D2780025E0FEC394E0501EE54520E01FE4F58458
:10D2880043B701758F038E4B8F4C8F828E83F0537B
:10D29800B7F0F58F80037546FFE4F584D285C2990F
:0DD2A800754F1475501300D550FCD54FF68E
:08D2B5007599783099FDC299CA
:0DD2BD00754F1475501300D550FCD54FF679
:06D2CA008546993099FD34
:0DD2D000754F0A75501300D550FCD54FF670
:10D2DD00C28502D5FEE5446403600302D42DF549F1
:10D2ED00F54A209822C3E54A9488E54994135017CE
:0DD2FD00754F0A75501300D550FCD54FF643
:10D30A00054AE54A70DF054980DB20980302D046CA
:10D31A00859945C298E4F549F54A209822C3E54A19
:08D32A009488E54994135017A3
:0DD33200754F0A75501300D550FCD54FF60D
:10D33F00054AE54A70DF054980DB20980302D04695
:10D34F00859947C298E5451392A7E54525E0FEC3A9
:10D35F00E49400EE94D0400302D046E5457D0025CD
:10D36F00E0FCC394E0400302D046E4F58443B701E8
:10D37F00758F01E54775F020A42DFFE5F03CF54BC7
:10D38F008F4CE4F584F548E548C394205048E4F504
:10D39F0049F54A209822C3E54A9488E549941350E9
:01D3AF001766
:0DD3B000754F0A75501300D550FCD54FF68F
:10D3BD00054AE54A70DF054980DB20980302D04617
:10D3CD00054CE54CAE4B7002054B14F5828E83E592
:10D3DD0099F0C298054880B1E4F58453B7F0F58F04
:06D3ED00F584D285C2990F
:0DD3F300754F1475501300D550FCD54FF642
:08D400007599783099FDC2997D
:0DD40800754F1475501300D550FCD54FF62C
:06D41500E4F5993099FDD9
:0DD41B00754F0A75501300D550FCD54FF623
:10D42800C28502D5FEE5446404600302D4DDF549F3
:10D43800F54A209822C3E54A9488E5499413501781
:0DD44800754F0A75501300D550FCD54FF6F6
:10D45500054AE54A70DF054980DB20980302D0467E
:10D46500859945C298E54525E0F54D754E00E4F5ED
:10D4750046F549F54A054EE54EAE4D7002054D148B
:10D48500F5828E83E4932546F546054AE54A700202
:0ED4950005497004E549640270DBD285C29936
:0DD4A300754F1475501300D550FCD54FF691
:08D4B0007599783099FDC299CD
:0DD4B800754F1475501300D550FCD54FF67C
:06D4C5008546993099FD37
:0DD4CB00754F0A75501300D550FCD54FF673
:10D4D800C28502D5FEE5446405600302D5F3F5492B
:10D4E800F54A209822C3E54A9488E54994135017D1
:0DD4F800754F0A75501300D550FCD54FF646
:10D50500054AE54A70DF054980DB20980302D046CD
:10D51500859945C298E4F549F54A209822C3E54A1C
:08D525009488E54994135017A6
:0DD52D00754F0A75501300D550FCD54FF610
:10D53A00054AE54A70DF054980DB20980302D04698
:09D54A00859947C298D285C29967
:0DD55300754F1475501300D550FCD54FF6E0
:08D5600075997F3099FDC29915
:0DD56800754F1475501300D550FCD54FF6CB
:10D575007599203099FDE54525E0FCE54775F020D6
:10D58500A42400FFE5F03CF54D8F4EE4F546F54843
:02D59500C29939
:0DD59700754F1475501300D550FCD54FF69C
:10D5A400854E82854D83E493F5993099FD054EE5CA
:10D5B4004EAE4D7002054D14F5828E83E4932546DC
:0BD5C400F5460548E548B420C8C299B0
:0DD5CF00754F1475501300D550FCD54FF664
:06D5DC008546993099FD1F
:0DD5E200754F0A75501300D550FCD54FF65B
:10D5EF00C285800BE544B40606E4F58475EF10E5BB
:0DD5FF00446407600302D0467880F6D2AF86
:01D60C0022FB
:102D88007F0012337B20310B7A007B327D017F007C
:102D9800122D0F30340B7A007B1E7D017F00122D1F
:102DA8000F3030173035147A007B327D017895E684
:102DB800FF122D0FC23012293FD23120330C30358B
:102DC80009788076F112293FD2333036083035053C
:102DD800C23612D0002035121235D1E47B2C7A018C
:0B2DE800F9F8C31206EF5002D23522AA
:0B35F70012183F122D8812113F80F8BF
:10240200005EBCE2613FDD83C29C7E20A3FD1F41D2
:102412009DC3217FFCA2401E5F01E3BD3E6082DCC2
:10242200237D9FC1421CFEA0E1BF5D0380DE3C62B2
:10243200BEE0025CDF81633D7C22C09E1D43A1FFA2
:102442004618FAA427799BC584DA3866E5BB590792
:10245200DB856739BAE406581947A5FB7826C49A82
:10246200653BD987045AB8E6A7F91B45C6987A2472
:10247200F8A6441A99C7257B3A6486D85B05E7B962
:102482008CD2306EEDB3510F4E10F2AC2F7193CD52
:10249200114FADF3702ECC92D38D6F31B2EC0E5042
:1024A200AFF1134DCE90722C6D33D18F0C52B0EE32
:1024B200326C8ED0530DEFB1F0AE4C1291CF2D7322
:1024C200CA947628ABF517490856B4EA6937D58B12
:1024D2005709EBB536688AD495CB2977F4AA481602
:1024E200E9B7550B88D6346A2B7597C94A14F6A8F2
:1024F200742AC896154BA9F7B6E80A54D7896B35E2
:0A250200000000002B6096CBDDEE18
:03293B00015E0A30
:102A7F00151E151EA81EECF608EDF6151E151E15D3
:102A8F001EA81EC6EBC608C6EAC608C6E9C6E51EDE
:042A9F0024FCF51E00
:102AA300F80808E4F6A81EF608F6E51E2407F9A8B8
:102AB3001EE6FE08E6FFC3099719E76480F8EE6493
:102AC30080985037E51E2404F8CBE6CB08E6FA08D5
:102AD300E6F98F828E83120409A81E080866FFE5B3
:102AE3001E2403F8EFF6E690240293A81E0808F6C6
:102AF300A81E0806E61870B20680AFA81E0808E6EE
:012B0300FFD2
:072B0400E51E2409F51E2265
:07000300ED6F90240293FF52
:01000A0022D3
:10335200EF7023F5847598D0F584759115F5847511
:10336200C90875CBFFED90250193F5CA75C804E431
:08337200F584D2ACC2BCD2AF5D
:01337A002230
:10310600E4F564F563F562F561F568F567F566F56E
:1031160065755D64FFEF25E025E02479F8E4F6EFB8
:1031260025E025E0247AF8E4F6EF25E025E0247B87
:10313600F8E4F6EF25E025E0247CF8E4F60FBF017D
:01314600D4B4
:013147002265
:10347D00D2AFD2A9C2BBE4F584E589540F4401F55E
:0F348D0089758E02758CAFE4F58AD28C023106F8
:0229E200151EC0
:1029E400A81EE4F6A81EE6FFC394014003022A7C55
:1029F400EF25E025E0247CF8E6FFD394004052A8BC
:102A04001EE625E025E0247AF8E67045EF30E0156F
:102A1400A81EE6FF25E025E0247CF8E6D3940140D7
:102A2400047D0080067D01A81EE6FF123148A81E21
:102A3400E6FF25E025E0247CF816E66014EF25E0A7
:102A440025E0247BF8E6FEEF25E025E0247AF8EE85
:102A5400F6A81EE625E025E0247AF8E6600116A82B
:102A64001EE6FF25E025E0247CF8E670057D0112D2
:082A74003148A81E060229E802
:032A7C00051E2212
:03000B00022C16AE
:102C1600C0E0C0F0C083C082C0D0E8C0E0E9C0E038
:102C2600EAC0E0EBC0E0ECC0E0EDC0E0EEC0E0EFF3
:102C3600C0E0758CAFE5642401F564E43563F563A3
:102C4600E43562F562E43561F561D55D18E5682421
:102C560001F568E43567F567E43566F566E43565DC
:102C6600F565755D641229E212345DD0E0FFD0E0AF
:102C7600FED0E0FDD0E0FCD0E0FBD0E0FAD0E0F9F9
:0E2C8600D0E0F8D0D0D082D083D0F0D0E032B1
:1033CD00151EA81EEDF6151EA81EEFF6A81EE6FF8B
:1033DD00C39401500D08E6FEEF25E025E02479F8B1
:0733ED00EEF6051E051E228D
:102D0F00151E151EA81EEAF608EBF6151EA81EEDD9
:102D1F00F6151EA81EEFF6A81EE6FFC3940150522B
:102D2F00EF25E025E0247CF8E67047A81EE6FB259A
:102D3F00E025E0247AF8E67039A81E08E625E004BD
:102D4F00FFA81EE6FA25E025E0247CF8EFF6A81E82
:102D5F000808E6FE08E6FF7C007D0A12047CEA25DF
:102D6F00E025E0247BF8EFF6EB25E025E0247AF868
:092D7F00E4F6E51E2404F51E2211
:10314800151EA81EEDF6151EA81EEFF6A81EE6FF12
:10315800C39401501CEF25E025E02479F8E66011BE
:10316800A81E08E670047F0180027F00A81E08EFF1
:10317800F6A81EE6700608E624FF92A7051E051E9F
:013188002224
:0C35D100C2AFAF64AE63AD62AC61D2AFBC
:0135DD0022CB
:0C35DE00C2AFAF68AE67AD66AC65D2AF9F
:0135EA0022BE
:10337B00151EA81EEFF6A81EE67004F55FF560306B
:10338B003714E55E75F064A4FFC3E5609FE55F95B8
:09339B00F0500375FFA5051E2288
:1034BB00D237E4F55FF560EF6004F55E8003755E6F
:0E34CB000A75FF0775FFA5E4F58475EF04226E
:0E359B00C237E4F55FF56075FFDE75FFAD2207
:10345D000560E5607002055F303714E55E75F06458
:10346D00A4FFC3E5609FE55F95F0500375FFA522AE
:0432FD008E458F4625
:10330100E4F547F548C3E5489546E5479545501628
:103311007FE87E03122F817F0112337B0548E54848
:0633210070E3054780DFA8
:013327002283
:042F81008E598F5A7C
:102F8500D3E55A94FAE5599400500EEFD3940040D6
:102F9500407E1600DEFD1F80F285595B855A5CD3A5
:102FA500E55C94FAE55B940040157FFA7E00122FEC
:102FB500817406255CF55C74FF355BF55B80E0D3B9
:102FC500E55A9400E55994004007AF5CAE5B122FBB
:012FD500817A
:012FD60022D8
:102DF300754E00754F007550487B007A0079467D0B
:012E030002CC
:082E04008B4A8A4B894C8D4D6D
:102E0C007F0112337BAB4EAA4FA9501204B224009F
:102E1C00FFE5F034E0FE854A51854B52854C53E476
:102E2C00FDEDC3954D501BEF2DF582E43EF583E48B
:102E3C0093AB51AA52A9538D827583001204480D8D
:0F2E4C0080DFAB4EAA4FA950E4854DF00204DDA4
:1027DD00754612754734754E00754F007550487B20
:0727ED00007A0079467D022D
:0827F4008B4A8A4B894C8D4D84
:1027FC007880E664F1600302289112359BC2AFE445
:10280C00F58443B701758F01AB4EAA4FA950120442
:10281C00B22400FFE5F034E07886F608EFF6AA4B18
:10282C00A94C788AA64A08C6EAC608C6E9C6E4785E
:10283C0088F67888E6C3954D5032788ACBE6CB087B
:10284C000806E618CAE6CA70010614F91203F078F5
:10285C0089F6E6FF78860806E618CCE6CC70010609
:10286C0014F5828C83EFF078880680C6E4F58F53DC
:10287C00B7F0AB4EAA4FA950854DF01204DDD2AF84
:05288C00E4FF1234BB63
:012891002224
:103029007880E664F17046C2AF12359BE4F58443BB
:10303900B701758F03788776E008F67886F6788782
:10304900E6FE08E6F5828E83E4F07F0112337B7891
:1030590088E426F618740236F61806E6C394084082
:0D306900DDE4F58F53B7F0D2AFFF1234BB9A
:013076002237
:10293F00123029E4F548F549F54E754F00755048AA
:10294F00FB7A0079087D161227F41227DDE4F5458E
:10295F00E545C37878965073E4F544AB69AA6AA944
:10296F006B75F010E544A4F58285F08312040960BD
:10297F0056E54475F010A429F9EA35F0FA90000DE8
:10298F001208377894E68545F0A429F9EA35F0FA6C
:10299F00EBC0E0EAC0E0E9C0E0AB69AA6AA96B75D9
:1029AF00F010E544A4F58285F083120409FD754EFD
:1029BF0000754F00755048D0E0F9D0E0FAD0E0FB39
:1029CF001227F405448094054580851227DDE478AD
:0229DF0080F680
:0129E10022D3
:03271400CCEFCC3B
:10271700E4F548F549F545F54E754F00755048FB0A
:102727007A0079087D16122E04122DF3E5476434DA
:102737007004E54664127003434501EC70030227F9
:10274700D7E4F544E544C37878965073E4F543AB92
:1027570069AA6AA96B75F010E543A4F58285F08331
:102767001204096056E54375F010A429F9EA35F01B
:10277700FA90000D1208377894E68544F0A429F9F9
:10278700EA35F0FAEBC0E0EAC0E0E9C0E0AB69AADD
:102797006AA96B75F010E543A4F58285F0831204EE
:1027A70009FD754E00754F00755048D0E0F9D0E02F
:1027B700FAD0E0FB122E040543809405448085126D
:1027C7002DF3E54764347004E54664127005800014
:0527D700434502AF457F
:0127DC0022DA
:05361800D2970236020A
:0A2E5B008E448F458B468A47894854
:102E6500E4F54BF54CD295123328BF03037F0322BB
:102E7500C2977F031233A4AF45AE441232A2C3E515
:102E85004C954AE54B95495022123189AB46AA47E4
:102E9500A948EF12043674012548F548E43547F58D
:102EA50047054CE54C70D7054B80D37F197E001242
:082EB5002F81D297C2957F0125
:012EBD0022F2
:0A250C008E3F8F408B418A428943C5
:10251600755000755120E5402545E53F3544C39487
:102526000640037F0222D295E545AE447805CEC328
:1025360013CE13D8F9F54F8E4EAB47AA48A94912C8
:1025460003F0754A00F54BD3E54B954FE54A954E9A
:10255600400302260F1235A9BF0302802FE54BAEBA
:102566004A7805C333CE33CED8F92540F540EE354B
:102576003FF53FE54BB54F0EE54AB54E09755000A0
:10258600E545541FF551123328BF030EAB47AA4841
:10259600A949E54B1204367F0322C2977F02123304
:1025A600A4AF40AE3F1232A2E4F54CF54DC3E54D63
:1025B6009551E54C95505036E546B40122AB41AAFB
:1025C60042A9431208171203F0FF1233A4AB41AA23
:1025D60042A943900001E475F0011205158005E457
:1025E600FF1233A4054DE54D70C3054C80BF7F191E
:1025F6007E00122F81D2977F197E00122F81054B04
:0D260600E54B7002054A02254DC2957F018B
:0126130022A4
:10332800C2977F197E00122F817F061233A47F195E
:103338007E00122F81D2977F197E00122F811235BD
:0A334800A9BF03037F03227F0122C7
:10349C00C2977F051233A41231898F527F197E0097
:0E34AC00122F81D2977F197E00122F81AF520E
:0134BA0022EF
:0D35A90012349CEF547160037F03227F01F8
:0135B60022F2
:06360200E4F584D29122E0
:10355500E4F5847F32FE122F81D2927F327E0012F3
:053565002F81C292223B
:0233A4008F5345
:1033A600E4F584755407AF54E553A807088002C3B3
:1033B60013D8FC1392911235551554C3E554648005
:0633C600948050E2C29168
:0133CC0022DE
:0432A2008E528F5366
:1032A600E4F58475540FE553AE52A854088005CE54
:1032B600C313CE13D8F91392911235551554C3E59D
:0932C600546480948050DFC29131
:0132CF0022DC
:10318900E4F553F554F555F5847553077F327E0000
:10319900122F81A296E433F554AF53A80708800291
:1031A900C333D8FC4255D2927F327E00122F81C29E
:0E31B900921553C3E5536480948050D0AF55F7
:0131C70022E5
:1026140000070E091C1B1215383F363124232A2DBE
:1026240070777E796C6B6265484F464154535A5DAE
:10263400E0E7EEE9FCFBF2F5D8DFD6D1C4C3CACD9E
:1026440090979E998C8B8285A8AFA6A1B4B3BABD8E
:10265400C7C0C9CEDBDCD5D2FFF8F1F6E3E4EDEA7E
:10266400B7B0B9BEABACA5A28F88818693949D9A6E
:102674002720292E3B3C35321F18111603040D0A5E
:102684005750595E4B4C45426F68616673747D7A4E
:10269400898E878095929B9CB1B6BFB8ADAAA3A43E
:1026A400F9FEF7F0E5E2EBECC1C6CFC8DDDAD3D42E
:1026B400696E676075727B7C51565F584D4A43441E
:1026C400191E171005020B0C21262F283D3A33340E
:1026D4004E49404752555C5B7671787F6A6D6463FE
:1026E4003E39303722252C2B0601080F1A1D1413EE
:1026F400AEA9A0A7B2B5BCBB9691989F8A8D8483DE
:10270400DED9D0D7C2C5CCCBE6E1E8EFFAFDF4F3CD
:10327100151EA81EA605151E151EA81EA60608A623
:1032810007A81E0808E6FFA81EE6FE08E66F24143C
:10329100F58274263EF583E493FF051E051E051E87
:0132A100220A
:03361D0002358CE7
:0F358C00EF64014E7002C2907F027E000232FD9A
:10350E00EF64014E7011D2907F0CFE122F81C2908B
:08351E007F047E00122F8122C0
:10352600EF64014E7011D2907F04FE122F81C2907B
:083536007F0C7E00122F8122A0
:10320500EF64014E7034D2907F01FE122F81C2907F
:103215007F087E00122F81758402E5885440C4130F
:10322500135403FFBF010A7F087E00122F817F011F
:0B323500227F087E00122F817F002204
:062EBE008F4D8C4E8D4F7C
:102EC400E49001D9F0A3F0A3F09001DAF0A3740721
:102ED400F09001DAE0FEA3E0FFC3EE64809480404A
:102EE4003AE54DA807088002C313D8FC54019001A9
:102EF400D9F07009AF4FAE4E123526800E9001D92D
:102F0400E0B40117AF4FAE4E12350E9001DBE02452
:0B2F1400FFF09001DAE034FFF080B61F
:012F1F00228F
:0430BF008E578F5841
:1030C300E49001DBF0A3F0A3F07407F0AF58AE5720
:1030D3001232059001DBEFF0A3E0FFA3E0FE9001C5
:1030E300DBE0FDA806088002C333D8FC4F9001DC67
:1030F300F0A3E014F0E0C36480948050CF9001DC2F
:02310300E0FFEB
:0131050022A7
:0336200002361D52
:061F5E008F3F8D408B4116
:101F64009001D51207E6000000007D00AF3F7E001F
:101F7400123271AD07AF417E00123271AD07AF422C
:101F84007E00123271AD07AF407E001232719001B3
:101F9400D4EFF0E54164037021FDAF44FE123271C9
:101FA400AD07AF437E00123271AD079001D4E0FF5C
:101FB4007E001232719001D4EFF0754A01754C1411
:101FC400E54A70030220B9E54C70030220B9AF461C
:101FD400AE45123526AF46AE45123526AD46AC4564
:101FE400AF3F122EBEAF46AE45123526AD46AC45C8
:101FF400AF41122EBEAD46AC45AF42122EBEE541F6
:1020040070028028AD46AC45AF40122EBEE540B408
:10201400F6028018E54164037029AD46AC45AF442F
:10202400122EBEAD46AC45AF43122EBE9001D4E095
:10203400FF854751854852854953AB46AA457DFFE4
:102044000222F3E54164017067E54264027061E5D0
:102054004A603F9001D4E0FF854751854852854945
:1020640053AB46AA45E4FD1222F38F4BE54B702295
:102074009001D5E0FCA3E0FDA3E0FEA3E0FFAB47A5
:10208400AA48A9491207AE12002D9001D51207DA09
:10209400154AE54A701A9001D5E0FCA3E0FDA3E0DF
:1020A400FEA3E0FFAB47AA48A9491207507F0022CC
:0720B400154C021FC4AF4BE5
:0120BB002202
:0822F3008F4D8D4E8A4F8B5078
:1022FB00E4F556AF50AE4F1230BFE54D6F60037F24
:10230B00FF22EFF4B54D037FFD22E54EB4FF037FB3
:10231B000122E54E60030223FFAF50AE4F1230BFD8
:10232B008F54AF50AE4F1230BF8F55AF50AE4F12D0
:10233B0030BF8F567D00AF547E00123271AD07AFA8
:10234B00557E00123271EF655660037FFE22E55514
:10235B0030E7096355FFE554F404F554E555FE7C6D
:10236B0000E42554FFEC3EFE9001D9F0A3EFF0FD05
:10237B00AC06EC120336E4FBFA79807842120227A2
:10238B00AB51AA52A953120750AB51AA52A953C031
:10239B0003C002C0011207007BCC7A5D795B783FEA
:1023AB00120029D001D002D003120750AB51AA5210
:1023BB00A953120700E4FBFA79C878421202C44011
:1023CB0017AB51AA52A953120700E4FBFA792078F4
:1023DB00C11202C4600540037FFA22AB51AA52A975
:1023EB00531207007BCC7A5D795B78BF1202C47005
:0623FB00037FFB227F00BE
:0124010022B8
:06360800E4F584D2A622C5
:10356A007F327E00122F81D2A57F327E00122F81F8
:03357A00C2A522C5
:0233F4008F4602
:1033F600754707AF47E546A807088002C313D8FC00
:103406001392A612356A1547C3E547648094805027
:03341600E2C2A669
:013419002290
:1031C800E4F545F546F5477545077F327E00122F31
:1031D80081A2A7E433F546AF45A807088002C333A8
:1031E800D8FC4247D2A57F327E00122F81C2A51596
:0C31F80045C3E5456480948050D0AF478B
:0132040022A7
:100026000203DBE86480F8E933E83360110460F02A
:10003600ED33EC337009E8FCE9FDEAFEEBFF220440
:1000460060DED3EB9FEA9EE99DE8C2E78CF0C2F73B
:1000560095F0400CE8CCF8E9CDF9EACEFAEBCFFB07
:100066001203A685D0F05804700320D5B3E80470B7
:10007600075002B2D50203E592D5EC0460F7E4CC52
:10008600C0E0C398F8603B94186008400DD0E0FBD0
:100096000203BDE4FBFAC9FC8028E830E406E4C9A3
:1000A600FBE4CAFCE830E305E4C9CACBFCE8540724
:1000B6006010F8C3E913F9EA13FAEB13FBEC13FC2F
:1000C600D8F130F52FC3E49CFCEF9BFFEE9AFEEDD2
:1000D60099FDD0E0FBEF4E4D4C701222DB0302037C
:1000E600E2EC2CFCEF33FFEE33FEED33FDED30E7B3
:1000F600EB0203BDEF2BFFEE3AFEED39FDD0E0FB40
:1001060050130BBB00030203E5ED13FDEE13FEEFE8
:0801160013FFEC13FC0203BD12
:10011E00EC4D6011E8497017ED33EC3304600DE4DB
:10012E00FCFFFEFD22E933E8330470F80203DB1214
:10013E0003A658046009E4CC248150062850090215
:10014E0003E52840030203E2C0E0EB4A7044B980A5
:10015E0006D0E0FB0203D1EF4E701CBD8008EBFF12
:10016E00EAFEE9FD80EBE98DF0A4FEE5F002020760
:10017E00E9CDF9EAFEEBFFEF89F0A4FCE5F0CE89BC
:10018E00F0A42EFFE435F0CD89F0A42DFEE435F079
:10019E008067EF4E7005BD80D780C3EF8BF0A4ACA7
:1001AE00F0EE8BF0A42CFCE435F0F8EF8AF0A42CE2
:1001BE00E5F038FCE433CB8DF0A42CFCE5F03BF8F5
:1001CE00EE8AF0A42CFCE5F038F8E433CF89F0A4E5
:1001DE002CFCE5F038CF3400CE89F0A42FFFE5F0EB
:1001EE003EFEE433C98DF0A42EFEE5F039CD8AF043
:1001FE00A42FFFE5F03EFEE43DFD33D0E0FB5007BB
:10020E000BBB000F0203E5EC2CFCEF33FFEE33FECD
:06021E00ED33FD0203BDFB
:100224000203E5EC5D046005E8590470030203DB96
:100234001203A6580460F6EC4860F2EC7004FDFE6C
:10024400FF22C860DB2481C85009C39860025006AD
:100254000203E29850CAF582E9294B4A7005AB8241
:100264000203D175F0007C1A7880C3EF9BEE9AEDFF
:1002740099400DC3EF9BFFEE9AFEED99FDE842F025
:10028400DC23ACF0D0E0FFD0E0FED0E0FDAB822078
:10029400E7101BEB60BAEC2CFCEF33FFEE33FEED02
:1002A40033FD0203BDE803F830E705C0F075F00044
:1002B400EF2FFFEE33FEED33FD40B830E7C280AAE6
:1002C40074F8CC6480CCC86480C8F582046043C3ED
:1002D400EB9FF5F0EA9E42F0E99D42F0E89C45F080
:1002E40060305018E5825FFFE582F42B5582FB50A5
:1002F400210ABA001D09B90019088016E5825BFBC2
:10030400E582F42F5582FF50090EBE00050DBD0095
:10031400010CC3EB9FF5F0EA9E42F0E99D42F0E840
:0D0324009C45F06007CC4820E701B3EC22B7
:1003310075F020800E75F010800575F0087D007E47
:10034100007F003392D530D5031206CBEC33401039
:10035100EF33FFEE33FEED33FDEC33FCD5F0ED2250
:0E036100E5F0247EA2D513CC92E7CDCEFF228C
:10036F00EDD2E7CD33EC3392D524814006E4FFFE86
:10037F00FDFC22FCE4CFCECDCC24E0501174FF80E5
:10038F00EDC3CC13CCCD13CDCE13CECF13CF047082
:07039F00F030D5DE0206CBB1
:1003A600E9D2E7C933E833F892D5EDD2E7CD33EC9D
:0703B60033FC5002B2D52216
:1003BD00EC30E7100FBF000C0EBE00080DBD0004A1
:1003CD000BEB6014A2D5EB13FCED92E7FD2274FF4D
:1003DD00FCFDFEFF22E480F8A2D574FF13FC7D80A6
:0303ED00E480EFBA
:03000000022B0BC5
:0C2B0B00787FE4F6D8FD758196022B520D
:1003F000BB010689828A83E0225002E722BBFE020B
:09040000E32289828A83E493223D
:10040900BB010CE58229F582E5833AF583E02250A8
:1004190006E92582F8E622BBFE06E92582F8E222F2
:0D042900E58229F582E5833AF583E493220C
:10043600BB010689828A83F0225002F722BBFE01A5
:02044600F3229F
:10044800F8BB010DE58229F582E5833AF583E8F0EA
:10045800225006E92582C8F622BBFE05E92582C896
:02046800F2227E
:10046A00EF8DF0A4A8F0CF8CF0A428CE8DF0A42EA6
:02047A00FE2260
:10047C00C2D5EC30E709B2D5E4C39DFDE49CFCEE9B
:10048C0030E715B2D5E4C39FFFE49EFE1208B9C352
:10049C00E49DFDE49CFC80031208B930D507C3E44D
:0604AC009FFFE49EFE220A
:1004B200BB010A89828A83E0F5F0A3E02250068715
:1004C200F009E71922BBFE07E3F5F009E3192289D7
:0B04D200828A83E493F5F0740193220A
:1004DD00BB010789828A8302090E500B09C5F027DB
:1004ED00F7C5F01937F722BBFE0D09F8E325F0F338
:1004FD00C5F019E338F322F889828A8374019325B4
:08050D00F0C5F0F8E493382278
:10051500BB010DC58229C582C5833AC58302090E73
:100525005011C58229F808E5F026F618F5F0E582A0
:1005350036F622BBFE11C58229F808E225F0F5F052
:10054500F218E23582F222F8E58229F582E5832A5E
:0D055500F58374019325F0F5F0E49338224E
:10056200BB010A89828A83F0E5F0A3F0225006F7E4
:0F05720009A7F01922BBFE06F3E5F009F31922E1
:10058100F8BB0111E58229F582E5833AF583E8F0AC
:10059100E5F0A3F0225009E92582C8F608A6F02269
:0D05A100BBFE09E92582C8F2E5F008F22250
:1005AE00E88FF0A4CC8BF0A42CFCE98EF0A42CFCEC
:1005BE008AF0EDA42CFCEA8EF0A4CDA8F08BF0A46A
:1005CE002DCC3825F0FDE98FF0A42CCD35F0FCEBC9
:1005DE008EF0A4FEA9F0EB8FF0A4CFC5F02ECD398E
:0F05EE00FEE43CFCEAA42DCE35F0FDE43CFC22FB
:1005FD0075F008758200EF2FFFEE33FECD33CDCCB5
:10060D0033CCC58233C5829BED9AEC99E582984037
:10061D000CF582EE9BFEED9AFDEC99FC0FD5F0D614
:10062D00E4CEFBE4CDFAE4CCF9A88222B800C1B93E
:10063D000059BA002DEC8BF084CFCECDFCE5F0CB7C
:10064D00F97818EF2FFFEE33FEED33FDEC33FCEBB5
:10065D0033FB10D703994004EB99FB0FD8E5E4F970
:10066D00FA227818EF2FFFEE33FEED33FDEC33FC5D
:10067D00C933C910D7059BE99A4007EC9BFCE99A51
:10068D00F90FD8E0E4C9FAE4CCFB2275F010EF2F96
:10069D00FFEE33FEED33FDCC33CCC833C810D70796
:1006AD009BEC9AE899400AED9BFDEC9AFCE899F8D1
:0E06BD000FD5F0DAE4CDFBE4CCFAE4C8F92264
:0E06CB00C3E49FFFE49EFEE49DFDE49CFC2240
:1006D900EB9FF5F0EA9E42F0E99D42F0EC6480C898
:0606E90064809845F02238
:1006EF00EB9FF5F0EA9E42F0E99D42F0E89C45F061
:0106FF0022D8
:10070000BB010789828A830209305005E9F8020992
:1007100024BBFE05E9F802093C89828A8302078E20
:10072000BB010DE58229F582E5833AF583020930A4
:100730005007E92582F8020924BBFE07E92582F863
:1007400002093CE58229F582E5833AF58302078EAA
:10075000BB010789828A830207DA5005E9F802079C
:0A076000CEBBFE05E9F802096E2287
:10076A00BB010DE58229F582E5833AF5830207DAB2
:10077A005007E92582F80207CEBBFE07E92582F871
:04078A0002096E22D0
:10078E00E493FC740193FD740293FE740393FF22B1
:10079E00E493F8740193F9740293FA740393FB22B1
:1007AE00BB010789828A830209555005E9F80209BF
:1007BE0048BBFE05E9F802096189828A8302079E19
:0C07CE00ECF608EDF608EEF608EFF62257
:0C07DA00ECF0A3EDF0A3EEF0A3EFF02292
:1007E600A8828583F0D083D0821207FD1207FD12FE
:1007F60007FD1207FDE473E493A3C583C5F0C58323
:10080600C8C582C8F0A3C583C5F0C583C8C582C85C
:0108160022BF
:10081700BB010789828A830209835005E9F8020927
:100827007ABBFE05E9F802098C89828A8302099559
:10083700BB010DE58229F582E5833AF58302098339
:100847005007E92582F802097ABBFE07E92582F8F5
:1008570002098CE58229F582E5833AF58302099539
:10086700D083D082F8E4937012740193700DA3A320
:1008770093F8740193F5828883E473740293686034
:06088700EFA3A3A380DF34
:102FD7008B438A448945E4F54BF54CE54A154AAEDF
:102FE70049700215494E6033AB46AA47A9481203F8
:102FF700F0FFAB43AA44A945054CE54CAC4B700226
:10300700054B14F5828C83EF120448EF60CD7401F1
:103017002548F548E43547F54780C0AB43AA44A99E
:02302700452240
:10088D00EF4E6012EF60010EEDBB010B89828A8382
:10089D00F0A3DFFCDEFA2289F05007F709DFFCA98F
:0C08AD00F022BBFEFCF309DFFCA9F022E6
:102B17000235F7E493A3F8E493A34003F68001F2A8
:102B270008DFF48029E493A3F85407240CC8C333BF
:102B3700C4540F4420C8834004F456800146F6DF8E
:102B4700E4800B0102040810204080902892E47E64
:102B5700019360BCA3FF543F30E509541FFEE49383
:102B6700A360010ECF54C025E060A840B8E493A34A
:102B7700FAE493A3F8E493A3C8C582C8CAC583CA75
:102B8700F0A3C8C582C8CAC583CADFE9DEE780BE2D
:01293E000098
:1008B900BC000BBE0029EF8DF084FFADF022E4CC23
:1008C900F875F008EF2FFFEE33FEEC33FCEE9DECEC
:1008D900984005FCEE9DFE0FD5F0E9E4CEFD22ED32
:1008E900F8F5F0EE8420D21CFEADF075F008EF2F7C
:1008F900FFED33FD4007985006D5F0F222C398FD6D
:050909000FD5F0EA2209
:10090E00C5F0F8A3E028F0C5F0F8E5821582700274
:06091E001583E038F02211
:0C092400E6FC08E6FD08E6FE08E6FF22FF
:0C093000E0FCA3E0FDA3E0FEA3E0FF223A
:0C093C00E2FC08E2FD08E2FE08E2FF22F7
:0D094800E6FB08E6F908E6FA08E6CBF8221F
:0C095500E0F8A3E0F9A3E0FAA3E0FB2225
:0D096100E2FB08E2F908E2FA08E2CBF82216
:0C096E00ECF208EDF208EEF208EFF222C5
:09097A00E6FB08E6FA08E6F922A2
:09098300E0FBA3E0FAA3E0F92275
:09098C00E2FB08E2FA08E2F9229C
:0C099500E493FB740193FA740293F922BE
:00000001FF
