:0D35F300E4F58475E8C075BC8075D1072231
:10327C00E4F584EF540FF5BBE5BC54F84DF5BCE414
:10328C00F5BAC2AFC2EDD2ECC2EDD2EC20ECFDD25D
:10329C00AFE5BF5403FEADBE7C00E42DFFEC3EFE5B
:0132AC0022FF
:101B8C003FF353F8400000003FB6872B3FB6872B3E
:101B9C003F8000003F8000003FB6872B3FB6872B6D
:101BAC000000000000000000000000000000000029
:101BBC000000000000000000000000000000000019
:101BCC00636D6200043400000053657269616C4EF1
:101BDC000001006C02340000004572726F7200004C
:101BEC00000100700134000000436F6E74726F6C62
:101BFC0000010072013400000053746174757300AD
:101C0C000001007301340000004545506167650018
:101C1C000001007401340000005370617265000013
:101C2C00000100750406000001704449344D6F6ECC
:101C3C00000100760418000001704456344D6F6E9C
:101C4C000001007A041800000170415633334D6FC7
:101C5C006E01007E041800000170415632354D6F44
:101C6C006E010082041800000170445631354D6F2E
:101C7C006E010086041800000170445631384D6F17
:101C8C006E01008A041800000170445632354D6F05
:101C9C006E01008E041800000170445633334D6FF2
:101CAC006E0100920408000001754354656D7000CC
:101CBC000001009604080000014670676154656DD0
:101CCC007001009A04080000015672673154656D6A
:101CDC007001009E04080000015672673254656D55
:101CEC00700100A20234000000724449344D6F6E42
:101CFC00000100A60234000000724456344D6F6E91
:101D0C00000100A8023400000072415633334D6FBD
:101D1C006E0100AA023400000072413235564D6F3C
:101D2C006E0100AC023400000072445631354D6F28
:101D3C006E0100AE023400000072445631384D6F13
:101D4C006E0100B0023400000072445632354D6F03
:101D5C006E0100B2023400000072445633334D6FF2
:101D6C006E0100B4043400000965657056616C7531
:101D7C00650100B604340000086565437472536550
:101D8C00740100BA00000000000000000000000018
:041D9C000000000043
:102880004801320000020004000600606800C60033
:10289000000000006E007B0000000040400000408F
:1028A000400000400000003F99999A3FC00000405E
:1028B00000000040400000408000004090000040C8
:1028C0006CCCCD402CCCCD3FD9999A400000004033
:1028D0002CCCCD406CCCCD412000004248000041C2
:1028E000200000424800000000000000000000003E
:1028F000000000000000000C6C245265763A20367F
:1029000038362024000178014400C1000000004452
:10291000012E0000000041006B0042000100004257
:0D29200000BE00000369FF1BD04100000055
:0F35B900C2AF900072E524F0A3E521F0D2AF225B
:04000E00A21492386E
:10001200C2AFD238900070E522F0A3E523F0D2AF50
:0100220022BB
:10357A00900072E524F0A3E521F0900070E522F0B6
:07358A00A3E523F0D2AF22FC
:093532009000BEA3E0F4FD7F014E
:0F353B008D45C2A1123430AF45123430D2A122D7
:0A362600C2A1123430123204D2A106
:013630002277
:103478008F828E83C2AFAF44AE43AD42AC411207D8
:10348800DA30380A900070E522F0A3E523F0D2AFD5
:013498002211
:1030FE0075840FE4F5A775B0FFAFB09000BEF0A3D6
:10310E00EFF09000BEE0FEA3E0F4FFEEF4FEEF78E9
:10311E0003C333CE33CED8F9FFEE5401FEEF54F88D
:10312E00FF900001EEF0A3EFF0EE5401FEEF54FC21
:04313E004404FF2224
:102B89008F44E5446401707175840F53A6F7C2A39D
:102B9900F522F523900073E0F521D208C20EC20F89
:102BA900C2AFE521F0900070E522F0A3E523F0D251
:102BB900AF43A62043A64053A67F43A602D2A11243
:102BC90036427FE87E031233391235327F647E0044
:102BD900122F797F02123626900074EFF07F647EFF
:102BE90000122F791235327F647E00122F797F020D
:102BF900123626900075EFF022E544700775840FB0
:052C0900F5A6D2A32294
:0820AA008F3F8B408A418942FF
:1020B2009001DF1207E600000000E49001D7F0A3D0
:1020C200F0AD43AF3F12327C9001DDEEF0A3EFF0B2
:1020D200A3E0F8A3E0F9A3E0FAA3E0FB9001DDE0BE
:1020E200FEA3E0FFE4FCFDEB2FFFEA3EFEED39FD2F
:1020F200EC38FCA31207DA122D809001D8E004F02C
:1021020070069001D7E004F0C39001D8E0940A90E1
:1021120001D7E0940040AAE47B0AFAF9F89001DFC3
:10212200E0FCA3E0FDA3E0FEA3E0FF120639AB4012
:10213200AA41A942EE8FF0120562AB40AA41A94220
:102142001204B2FDACF0E41203369001D91207DAA0
:10215200E4FBFA798078449001D9E0FCA3E0FDA386
:10216200E0FEA3E0FF1202277BB87A1E791D7840B9
:1021720012011E9001D91207DAE53F6408603EE5BC
:102182003F25E025E0248CF582E4341BF583120719
:102192008E9001D9E0F8A3E0F9A3E0FAA3E0FB12E4
:1021A200011EE53F25E025E024ACF582E4341BF571
:1021B2008312079E12002D9001D91207DA9001D9DD
:0B21C200E0FCA3E0FDA3E0FEA3E0FFB3
:0121CD0022EF
:021DA0008F436F
:101DA200E49001BAF09001BAE0FFC36480948450D9
:101DB2001A74722FF9C3E7648094B05006E024725B
:101DC200F876309001BAE004F080DA7873E6FF33F7
:101DD20095E0FEEF24D0FFEE34FFFE7C007D64121E
:101DE200046AAA06AB077872E6FF3395E0FEEF2499
:101DF200D0FFEE34FFFE7C037DE812046AEF2BFB7A
:101E0200EE3AFA7874E6FF3395E0FEEF24D0FFEE67
:101E120034FFFE7C007D0A12046AEF2BFFEE3AFECD
:101E22007875E6FD3395E0FCED24D0FDEC34FFCD72
:101E32002FF50DED3EF50C12364D9001BAEFF0E59F
:101E420043603790009A1207E60000000090009E5F
:101E52001207E6000000009000A21207E600000050
:101E620000E4900070F0A3F090006C1207E600000E
:101E7200000012364D7508008F09E4900072F0A33D
:101E8200F0900070F0A3F0900075F0900074F09064
:101E92000072E0F524A3E0F521750A01750B90C2EA
:101EA2000275840F43A42075840F1235F375840FD5
:101EB20043A5017584024388807589037F017E00F2
:101EC20012365A75840F43A58043A50653A5DF1227
:101ED20036527B017A0079C6754900754A047F0043
:101EE2007E06122E539000C6E0FCA3E0FDA3E0FEA6
:101EF200A3E0FF90006C1207DA900132E0FEA3E04B
:101F0200FF7B017A0079C6754900754A68122E5323
:101F1200C2AFD2AF1230FE8E088F0975840F53A460
:101F22007FD20AD28775840F53A6EF43A601E4FF3E
:101F3200122B89C20FC208C227C223C2AF900072FD
:091F4200E524F0A3E521F0D2AF83
:011F4B002273
:10345600151EA81EEFF6900073E0F521A81EE6FFE4
:10346600B40206900072E0F524EFB41B02D2010507
:023476001E2214
:053648008F397F002214
:10330C008B398A3A893B1203F0AB3CAA3DA93E1299
:10331C000436AB39AA3AA93B900001120409AB3C24
:0D332C00AA3DA93E9000011204487F022234
:10113F0090006BE0701612360DEC4D4E4F600D1295
:10114F0030FE8E088F0990006B7401F03020157FF0
:10115F0001122B897F647E00123339D200C220E442
:10116F00F522F523302714900073E0F521D20FE418
:10117F00FF122B89C208C2271235B93021189000EF
:10118F0073E0F521300A06C20AC2878004D20AD260
:10119F0087C2211235B930223FE49001D3F0A3F07A
:1011AF00D2A07F017E00122F79C2A07F017E001294
:1011BF002F799001D4E004F070069001D3E004F091
:1011CF00C39001D4E094039001D3E0940040D17F09
:1011DF00097E00122F79C2223023161235327F6911
:1011EF007E00122F797F02123626900075EFF0C223
:1011FF00232001030212E29000BAE0FCE4FFFEFD9F
:10120F00EC543CFC70030212D29000BAE0FCA3E055
:10121F00FDA3E0FEA3E0FFC3EF940274809480501F
:10122F00030212C29000BAA3A3A3E4FEFDFC7B0449
:10123F00FAF9F81205AE7B0174C62FF974003EFA65
:10124F00EB3D9001C5F0A3EAF0A3E9F09000BAA33B
:10125F00E0FDED5422FDED601E9000B6E0FCA3E032
:10126F00FDA3E0FEA3E0FF9001C5E0FBA3E0FAA31E
:10127F00E0F9120750805A9000BAA3E0FDE4FFFE98
:10128F00ED5411FDE4FCED601AC2AF9001C5E0FB17
:10129F00A3E0FAA3E0F91207009000B61207DAD222
:1012AF00AF802EC2AF9000BA1207E6FF000000D247
:1012BF00AF801EC2AF9000BA1207E60000FF00D247
:1012CF00AF800EC2AF9000BA1207E600FF0000D247
:1012DF00AFC201202403021378900000E0702D901C
:1012EF000073E0F521A3E0540725E02432F582E4F2
:1012FF003401F583E0FFA3E09001C8CFF0A3EFF036
:10130F00A37401F0A37400F0A374C6F0302607E4B1
:10131F009001CDF080069001CD7401F09001C8E0EE
:10132F00FEA3E0FF7544007545689001CDE0F546DA
:10133F007547017548007549007B017A0179CA121A
:10134F0024FA9000C0EFF0BF011AD20CE490000015
:10135F00F0C224900074E0FF5407C43354E0FEEF52
:10136F004EF08002C20C1235B930253C900073E06C
:10137F00F521A3E0540725E02432F582E43401F58A
:10138F0083E0FEA3E0FF7B017A0079C67549007503
:10139F004A68122E539000C5EFF0BF0106C225D246
:1013AF000D8002C20D1235B920002D12360D90009E
:1013BF00C1E0F8A3E0F9A3E0FAA3E0FBC3EF9BFFC2
:1013CF00EE9AFEED99FDEC98FCE47B02FAF9F8C376
:1013DF001206EF400302157C9001C27401F0A37452
:1013EF0000F0A37476F09001D07401F0A37400F0B4
:1013FF00A374A6F0E49000C5F09000C5E0FFC3947D
:10140F0008506D7B017A0179D5E4F5431220AA903B
:10141F0001BA1207DAC2AF9001BAE0FCA3E0FDA354
:10142F00E0FEA3E0FF9001C2E0FBA3E0FAA3E0F926
:10143F009000C5E075F004A4F58285F08312076A69
:10144F009001D5E0FEA3E0FF9001D0E0FBA3E0FA0E
:10145F00A3E0F99000C5E075F002A4F58285F08352
:10146F00EE8FF0120581D2AF9000C5E004F08089B5
:10147F007B017A0179D5E4F5437F081220AA900108
:10148F00BA1207DA7FF07EA77D467CBF9001BAE0E3
:10149F00F8A3E0F9A3E0FAA3E0FB12002DE4FBFAB6
:1014AF00797A784412011E7B3D7A0A793778401297
:1014BF0002279001BE1207DAE4FFFE7D207C4190E7
:1014CF0001BEE0F8A3E0F9A3E0FAA3E0FB12011ECE
:1014DF00E4FBFAF9783F12002D12036FCDEFCDCC5C
:1014EF00EECCEC120336E4FBFA7920784112022796
:1014FF009001BE1207DA90010EE0FCA3E0FDA3E01D
:10150F00FEA3E0FF9001BEE0F8A3E0F9A3E0FAA389
:10151F00E0FB1202C44023900112E0FCA3E0FDA304
:10152F00E0FEA3E0FF9001BEE0F8A3E0F9A3E0FA2C
:10153F00A3E0FB1202C460044002D2107E007F962B
:10154F00EEC0E09001BEE0FCA3E0FDA3E0FEA3E04F
:10155F00F5448E438D428C41A2109238D0E0FE129A
:10156F00347812360D9000C11207DAD202122D8094
:10157F0020002D12360D90012EE0F8A3E0F9A3E024
:10158F00FAA3E0FBC3EF9BFFEE9AFEED99FDEC98FB
:10159F00FCE47B01FAF9F8C31206EF40030217705F
:1015AF00754202E4F543F544F5457546017547016B
:1015BF007548017549BE7B01FD7F48121F4CEF70C6
:1015CF006E900116E0FCA3E0FDA3E0FEA3E0FF9008
:1015DF0001BEE0F8A3E0F9A3E0FAA3E0FB1202C416
:1015EF00402390011AE0FCA3E0FDA3E0FEA3E0FF7F
:1015FF009001BEE0F8A3E0F9A3E0FAA3E0FB12022A
:10160F00C460044002D2127E007F9EEEC0E09001C3
:10161F00BEE0FCA3E0FDA3E0FEA3E0F5448E438D06
:10162F00428C41A2129238D0E0FE1234788003121D
:10163F00000E754202E4F543F544F5457546017514
:10164F0047017548017549BE7B017D017F48121F17
:10165F004CEF706E900116E0FCA3E0FDA3E0FEA33B
:10166F00E0FF9001BEE0F8A3E0F9A3E0FAA3E0FBEE
:10167F001202C4402390011AE0FCA3E0FDA3E0FE98
:10168F00A3E0FF9001BEE0F8A3E0F9A3E0FAA3E026
:10169F00FB1202C460044002D2137E007FA2EEC090
:1016AF00E09001BEE0FCA3E0FDA3E0FEA3E0F54463
:1016BF008E438D428C41A2139238D0E0FE123478C3
:1016CF00800312000E754202E4F543F544F54575AB
:1016DF0046017547017548017549BE7B017D027F43
:1016EF0048121F4CEF706E90010EE0FCA3E0FDA3BB
:1016FF00E0FEA3E0FF9001BEE0F8A3E0F9A3E0FA5B
:10170F00A3E0FB1202C44023900112E0FCA3E0FD12
:10171F00A3E0FEA3E0FF9001BEE0F8A3E0F9A3E091
:10172F00FAA3E0FB1202C460044002D2117E007FD4
:10173F009AEEC0E09001BEE0FCA3E0FDA3E0FEA3A3
:10174F00E0F5448E438D428C41A2119238D0E0FED9
:10175F00123478800312000E12360D90012E1207EC
:10176F00DA20020302182C9001C27401F0A3740056
:10177F00F0A37476F0E49000C5F09001C2E0FBA3F3
:10178F00E0FAA3E0F99000C5E075F004A4F58285B6
:10179F00F0831207209000C5E025E025E024CEF568
:1017AF0082E43400F583E0F8A3E0F9A3E0FAA3E0C4
:1017BF00FB1202C46002503C9001C2E0FBA3E0FAAE
:1017CF00A3E0F99000C5E075F004A4F58285F083DD
:1017DF001207209000C5E025E025E024EEF582E415
:1017EF003400F583E0F8A3E0F9A3E0FAA3E0FB12DD
:1017FF0002C4501B9000C5E0FF74017E00C8EFC803
:10180F00088005C333CE33CED8F94223EE4222905F
:10181F0000C5E004F0E064086003021789C2AF90CE
:10182F000070E522F0A3E523F0D2AF7F0512362634
:10183F009001CEEFF0139209EFC4540F6004A3741C
:10184F0001F020A403D38001C39217300811E522C1
:10185F00540F600BE4FF122B89C208D20E800B309D
:0D186F000008C200C20FC20ED2080235B937
:0C361A00245265763A203534322024001A
:10187C00E47880F61235D775840F75E104E4F5E24F
:10188C0075E34475E104F5E275E340F58475B7B092
:10189C0075840F758A83F597438901758D01758F52
:1018AC0001758E04F541F5420542E5427002054191
:1018BC00640F454170F2438902E4F541F542AE41B3
:1018CC00AF42E4FCFD7B507AC3F9F8D31206D94041
:1018DC000FE58920E40A0542E54270E2054180DE0D
:1018EC007597021234B9E4F541F5427D01AF42120D
:1018FC0034090542E54270020541C39401E5419467
:10190C000040E8E4F525C232C230C236C235C234DA
:10191C007880F6C28508F67890F618F67895F6F584
:10192C0041F542743A2542F582E43401F583E4F042
:10193C000542E542700205416440454170E5E4F51D
:10194C0041F542747A2542F582E43401F583E4F0E2
:10195C000542E542700205416440454170E5E4F5FD
:10196C0084E5EF20E10CE5EF5408D394004003D359
:10197C008001C3922B7D08E4FF12338EE47894F639
:10198C00788DF6AB69AA6AA96B788DE6FF75F010B5
:10199C00A4F58285F083120409FE789426F6EE6095
:1019AC0005788D0680DDEFD394004030AB69AA6AD0
:1019BC00A96B90000D1208371203F0FF7455120436
:1019CC00361203F064556002D23474AA1204361233
:1019DC0003F064AA6002D234EF120436E4F584E515
:1019EC00EF5402D3940040047F018002E4FF1227DD
:1019FC00028F40E54020E035C23174FFF508F5094F
:101A0C00F50AF50B7E007F107D007B007A00790EC5
:101A1C0012088D7546FF75471B7548CC75490075C6
:101A2C004A107B007A00790E122FCF8002D23190AF
:101A3C003621E493FF3395E0FEEF24D0FFEE34FF24
:101A4C00FE7C007D6412046AAA06AB07903620E483
:101A5C0093FF3395E0FEEF24D0FFEE34FFFE7C03C2
:101A6C007DE812046AEF2BFBEE3AFA903622E493EF
:101A7C00FF3395E0FEEF24D0FFEE34FFFE7C007DBB
:101A8C000A12046AEF2BFFEE3AFEA3E493FD3395A2
:101A9C00E0FCED24D0FDEC34FFCD2FF50DED3EF543
:101AAC000CE54030E103021B63E4F541F542E542ED
:101ABC00C4F8540FC868FFE541C454F048FEAB6944
:101ACC00AA6AA96B8F82F5831204097003021B5A50
:101ADC00E92FF9EA3EFA90000412040920E264E4CA
:101AEC00F53FE53FC37878965059E542C4F8540F5A
:101AFC00C868FFE541C454F048AB69AA6AA96B8F6A
:101B0C0082F583120409FF7E00C006C0077D00E544
:101B1C0042C4F8540FC868FFE541C454F048FEE9CC
:101B2C002FF9EA3EFA90000D1208377894E6853FBB
:101B3C00F0A429F9EA35F0FAD007D00612088D0581
:101B4C003F809F0542E54270020541021ABA7F01AF
:101B5C00121DA0C2338007E4FF121DA0D233E4F59E
:101B6C0041F5427A007B967D03AF42122D07054268
:0F1B7C00E54270020541C39401E541940040E445
:011B8B002237
:05364D007895E6FF2264
:030023000221CEE9
:1021CE00C0E0C0F0C083C082C0D075D000C000C0D7
:1021DE0001C002C003C004C005C006C00730993E4E
:1021EE00C2997890067990E77881667015F67890A6
:0121FE00F6EA
:0D21FF0075280A75291300D529FCD528F68E
:04220C00C285801CEB
:0D22100075281475291300D529FCD528F672
:10221D007890E6247AF582E43401F583E0F599208F
:10222D0098030222C6209A08203205C2980222C2C3
:10223D00C29A788FE606243AF582E43401F583E5F7
:10224D0099F0C298E6FFB4011290013AE0FE7003D6
:10225D00F68066EE540724027896F6EFB4020D78F8
:10226D0096E6B4090790013BE02403F6788FE6FF6C
:10227D00B4400476008042EFC3789696403B788F49
:10228D00E624FFFDE434FFFC7B017A01793A122A42
:10229D0071788FE62439F582E43401F583E06F60BF
:0522AD0004760080141E
:0D22B20075281475291300D529FCD528F6D0
:1022BF001209A1788F7600D007D006D005D004D0B0
:1022CF0003D002D001D000D0D0D082D083D0F0D0B4
:0222DF00E032EB
:102C8C0090013BE075F010A4AB69256BF9E56A3552
:102C9C00F0FA90000D1208377895E6FF18E68FF0E1
:102CAC00A4252CF582E435F0F583120409FF7B0092
:042CBC007A00792AF7
:102CC0008F398B3A8A3B893CE4F584EA494B601C96
:102CD000AB3AAA3BA93C1203F0FFE539FD7C001298
:0C2CE0000003AB3AAA3BA93CEF120436FB
:0D2CEC00753D14753E1300D53EFCD53DF638
:0E2CF9008539997F011233B73099FDC29922B7
:09351500E4F5847881EFF6D2851B
:0D351E00753914753A1300D53AFCD539F60D
:07352B0090017AE0F59922FE
:10306F00C9EFC9E964017028EDC39B40347878E655
:10307F00FFEB2FFFE433FEEDC39FEE6480F8748007
:10308F0098501ED232C3ED9B7895F6789176012237
:10309F00B90214ED6B700AD2327895F678917602F8
:0830AF0022C232E47891F622FE
:102F1800C9EFC9BAFF15BBFF12ED6B7002EC6A70FE
:102F280049D2327895F67891E9F622E9640170255C
:102F3800C3ED9BEC9A401C7878E62BFFE43AFEC37D
:102F4800ED9FEC9E500DD232C3ED9B7895F67891AB
:102F58007601228015B90218ED6B7002EC6A700ACE
:102F6800D2327895F67891760222C232E47891F6D8
:012F78002236
:1009A10090013AE0FF54F8F52BE4F584EF12086763
:1009B10009EE0909FA0A0A0A100A13110A23120A8E
:1009C10037190A4C1A0A6E200A77280B16290C18B7
:1009D100330C4A370C79390C93410C9E490CA850C1
:1009E1000CF0610BE2700CE89800000D2090013BC7
:1009F100E0FDE509FB7F01802390013BE0FCA3E0E2
:100A0100FDAB09AA087F018027D2327891760302D3
:100A11000D2090013BE0FDE50BFB7F0212306F02E0
:100A21000D2090013BE0FCA3E0FDAB0BAA0A7F0285
:100A3100122F18020D2090013BE0FDE509FB7F011B
:100A410012306F203203020D20801790013BE0FC31
:100A5100A3E0FDAB09AA087F01122F18203203027F
:100A61000D2090017A7478F07F01020D1DE4F58468
:100A710075EF10020D20C2ACE4F52AD285FB7A0095
:100A8100792A7F7F122CC07B007A00792A7F181285
:100A91002CC07B007A00792A7F05122CC0788DE664
:100AA100122CB97B007A00792AAF08122CC07B0086
:100AB1007A00792AAF09122CC07B007A00792AAF1B
:100AC1000A122CC07B007A00792AAF0B122CC07B52
:100AD100007A00792AAF0C122CC07B007A00792AA7
:100AE100AF0D122CC0E4F52C740E252CF8E6122C57
:100AF100B9052CE52CC3941040EE7B007A007900F7
:050B0100AF2A122CC018
:0D0B060075370A75381300D538FCD537F661
:100B1300020BCD90013BE0FFC3788D964003020B9F
:100B2300D4EF75F010A4256BF9E56A35F0856934C7
:100B3300F5358936C2ACE4F52AD285FB7A00792AE9
:100B43007F7F122CC07B007A00792A7F0D122CC084
:100B5300AB34AA35A9361203F0122CB9AB34AA353B
:100B6300A936900001122CB6AB34AA35A9369000F1
:100B730002122CB6AB34AA35A936900003122CB658
:100B8300AB34AA35A936900004122CB6E4F52CAB8D
:100B930034E5362405F9E43535FA7E00E9252CF9E8
:100BA300EE3AFA1203F0122CB9052CE52CC3940883
:0D0BB30040DD7B007A007900AF2A122CC0D3
:0D0BC00075370A75381300D538FCD537F6A7
:100BCD00C285D2AC020D2090017A7478F0E4A3F0C6
:100BDD007F02020D1D12360D78821207CE90017A1A
:100BED00747CF07882E6A3F008E6A3F008E6A3F0A3
:100BFD0008E6A3F07C007D057B017A01797A122A43
:100C0D007190017FEFF07F06020D1D90013BE0FF1B
:100C1D00B4010BA3E0F508A3E0F509020CE8EFB46D
:100C2D00020990013CE0F508020CE890013BE0B4AC
:100C3D000308A3E0F50AA3E0F50B020CE8E4F52C9C
:100C4D0090013BE0FFE52CC39F501C743C252CF517
:100C5D0082E43401F583E0FF740E252CF8C6EFC64F
:100C6D00052CE52CB410D9E4F51D806F7A007B328C
:100C7D007D017895E6FF122D0790013BE0FDE4FF25
:100C8D0012338E020D2090013BE024FF922A020DBB
:100C9D002090013BE024FF922980787895E660054D
:100CAD00752E02800B203505752E038003752E01E0
:100CBD0090017A7479F0A3E52EF07C007D027B0122
:100CCD007A01797A122A7190017CEFF07F03123547
:100CDD0015E52E6401703CD2368002D230788076D4
:100CED00F180307A007B327D017F00122D0790015B
:100CFD007A7479F090013BE090017BF07C007D02ED
:100D0D007B017A01797A122A7190017CEFF07F03D1
:100D1D00123515E52B64A06003020F2F90013AE008
:100D2D0064A16003020E1FA3E0C3788D96400302F9
:100D3D000E14AB69AA6AA96BE0FF75F010A4F582D9
:100D4D0085F083120409F52EEF75F010A429F9EA48
:100D5D0035F0FA90000412040930E23790013BE0BF
:100D6D001236488F2E90017A747FF0A3E52EF02471
:100D7D0002FDE433FC7B017A01797A122A71747CCD
:100D8D00252EF582E43401F583EFF0E52E2403FFE3
:100D9D00020F2C90013BE0FF123648C2ACE4F52A5D
:100DAD00D285E52ED39406402B7B007A00792A7FDD
:100DBD007F122CC07B007A00792AAF2E122CC0E452
:100DCD00F52CE52CC3952E5007122C8C052C80F29A
:100DDD00052E8018E52E2478122CB9E4F52CE52C7F
:100DED00C3952E5007122C8C052C80F27B007A00B7
:070DFD007900AF2A122CC09F
:0D0E040075370A75381300D538FCD537F660
:100E1100020F1E90017A7478F07F01020F2C90016D
:100E21003AE064A26003020F2F788DE6FFA3E0FE93
:100E3100C39F4003020F24A3E0FDC39F4003020FA1
:100E410024EE9D4003020F2490013BE0F52CE4F5D4
:100E510032F53390013CE0FFE52CD39F5026AF2CB7
:100E6100123648AB69AA6AA96B75F010E52CA4F596
:100E71008285F0831204092533F533E43532F532E6
:100E8100052C80CFC2ACE4F52AD285FB7A00792A01
:100E91007F7F122CC0C3E5339480E5329400500269
:100EA1008007E5324480122CB9AF33122CBA90017D
:100EB1003BE0F52C90013CE0FFE52CD39F5046E44C
:100EC100F52DAB69AA6AA96B75F010E52CA4F58222
:100ED10085F083120409FFE52DC39F5024E52C758D
:100EE100F010A429F9EA35F0FA90000D12083778CC
:100EF10095E6FF18E68FF0A4252D122CAF052D8065
:100F0100C1052C80AF7B007A007900AF2A122CC07A
:0D0F110075370A75381300D538FCD537F652
:100F1E00C285D2AC800B90017A7478F07F011235C5
:100F2E0015E52B6458704DFA7B327D017895E6FFFE
:100F3E00122D07753C01753D01753E7B7B017A01D3
:100F4E00793B12330C8F2EE52E247890017AF0EF38
:100F5E002401FDE433FC7B017A01797A122A717443
:100F6E007B252EF582E43401F583EFF0E52E240285
:100F7E00FF123515E52B64806009E52B648860034C
:100F8E0002113E7891E6B4010F7A007B327D017832
:100F9E0095E6FF122D07801AE4F52CE52CC3787820
:100FAE0096500F7A007B327D01AF2C122D07052C47
:100FBE0080E990013AE05407F52EB4070A752D0129
:100FCE00A3E0F52EA38006E4F52D90013BE0F52F6E
:100FDE00152EE52FC3788D964003021112AB69AA28
:100FEE006AA96B75F010E52FA4F58285F0831204C3
:100FFE0009FFE52ED39F40028F2E7891E6B40109AA
:10100E007895E6F531F5308009E4F5307878E61418
:10101E00F5317895A6307895E6D3953140030211D7
:10102E0006E4F52CE52CC3952E40030210FBE52FAC
:10103E0075F010A4AB69256BF9E56A35F0FA9000EE
:10104E000412040930E2030210F6900001120409A2
:10105E0064387041E52ED394044011E52D252C24DF
:10106E003CF582E43401F583E0FD805E788FE6C3C3
:10107E00952CFFE49400FE74382FF58274013EF532
:10108E0083E0FDE52F75F010A4AB69256BF9E56AD9
:10109E0035F0FA8035AB69AA6AA96B75F010E52FA9
:1010AE00A4F58285F083120409FFC3788FE69F258D
:1010BE002C252D2439F582E43401F583E0FDE52F4E
:1010CE0075F010A429F9EA35F0FA90000D120837E0
:1010DE007895E6FF18E68FF0A4FFE52C2FF582E455
:1010EE0035F0F583ED120448052C021032AF2F12A5
:1010FE0034567895060210247895A630E52B648830
:10110E00702E8010E52FB4FF2790013CE0F525E509
:10111E002BB4881C90017A7478F0788FE62439F518
:10112E0082E43401F583E090017BF07F02123515E5
:01113E00228E
:10D000007880E664F1600302D60CE4F549F54A78CD
:04D0100081E6601F36
:0DD01400754F0A75501300D550FCD54FF62E
:10D02100054AE54A7002054964107004E549642720
:10D0310070DCC2AF7584015398FC75FFDE75FFADDE
:10D04100E4F545F544E4F58420982EE4F549F54AE4
:0ED05100209822C3E54A9488E54994135017AD
:0DD05F00754F0A75501300D550FCD54FF6E3
:10D06C00054AE54A70DF054980DBB2A780CF859978
:10D07C0044C298E544641A600302D14CF549F54A60
:0ED08C00209822C3E54A9488E5499413501772
:0DD09A00754F0A75501300D550FCD54FF6A8
:10D0A700054AE54A70DF054980DB30989285994546
:10D0B700C298E4F549F54A209822C3E54A9488E5E1
:05D0C70049941350170D
:0DD0CC00754F0A75501300D550FCD54FF676
:10D0D900054AE54A70DF054980DB20980302D046FE
:10D0E900859945C298E4F549F54A209822C3E54A4D
:08D0F9009488E54994135017D7
:0DD10100754F0A75501300D550FCD54FF640
:10D10E00054AE54A70DF054980DB20980302D046C8
:09D11E00859945C298D285C29999
:0DD12700754F1475501300D550FCD54FF610
:06D134007599783099FDA9
:0DD13A00754F0A75501300D550FCD54FF607
:10D14700C28502D5FEE5446450600302D1DCF5498F
:10D15700F54A209822C3E54A9488E5499413501765
:0DD16700754F0A75501300D550FCD54FF6DA
:10D17400054AE54A70DF054980DB20980302D04662
:09D18400859945C298D285C29933
:0DD18D00754F1475501300D550FCD54FF6AA
:08D19A007599793099FDC299E5
:0DD1A200754F1475501300D550FCD54FF695
:08D1AF007599013099FDC29948
:0DD1B700754F1475501300D550FCD54FF680
:06D1C400E4F5993099FD2D
:0DD1CA00754F0A75501300D550FCD54FF677
:0FD1D700C28502D5FEE5446401703ED285C2993F
:0DD1E600754F1475501300D550FCD54FF651
:08D1F3007599783099FDC2998D
:0DD1FB00754F1475501300D550FCD54FF63C
:06D20800E4F5993099FDE8
:0DD20E00754F0A75501300D550FCD54FF632
:10D21B00C28502D5FEE5446402600302D2E2F54901
:10D22B00F54A209822C3E54A9488E5499413501790
:0DD23B00754F0A75501300D550FCD54FF605
:10D24800054AE54A70DF054980DB20980302D0468D
:10D25800859945C298E4F546E54513B392A7E54597
:10D2680025E0FEC3E49400EE94D0502AE5457F0003
:10D2780025E0FEC394E0501EE54520E01FE4F58458
:10D2880043B701758F038E4B8F4C8F828E83F0537B
:10D29800B7F0F58F80037546FFE4F584D285C2990F
:0DD2A800754F1475501300D550FCD54FF68E
:08D2B5007599783099FDC299CA
:0DD2BD00754F1475501300D550FCD54FF679
:06D2CA008546993099FD34
:0DD2D000754F0A75501300D550FCD54FF670
:10D2DD00C28502D5FEE5446403600302D42DF549F1
:10D2ED00F54A209822C3E54A9488E54994135017CE
:0DD2FD00754F0A75501300D550FCD54FF643
:10D30A00054AE54A70DF054980DB20980302D046CA
:10D31A00859945C298E4F549F54A209822C3E54A19
:08D32A009488E54994135017A3
:0DD33200754F0A75501300D550FCD54FF60D
:10D33F00054AE54A70DF054980DB20980302D04695
:10D34F00859947C298E5451392A7E54525E0FEC3A9
:10D35F00E49400EE94D0400302D046E5457D0025CD
:10D36F00E0FCC394E0400302D046E4F58443B701E8
:10D37F00758F01E54775F020A42DFFE5F03CF54BC7
:10D38F008F4CE4F584F548E548C394205048E4F504
:10D39F0049F54A209822C3E54A9488E549941350E9
:01D3AF001766
:0DD3B000754F0A75501300D550FCD54FF68F
:10D3BD00054AE54A70DF054980DB20980302D04617
:10D3CD00054CE54CAE4B7002054B14F5828E83E592
:10D3DD0099F0C298054880B1E4F58453B7F0F58F04
:06D3ED00F584D285C2990F
:0DD3F300754F1475501300D550FCD54FF642
:08D400007599783099FDC2997D
:0DD40800754F1475501300D550FCD54FF62C
:06D41500E4F5993099FDD9
:0DD41B00754F0A75501300D550FCD54FF623
:10D42800C28502D5FEE5446404600302D4DDF549F3
:10D43800F54A209822C3E54A9488E5499413501781
:0DD44800754F0A75501300D550FCD54FF6F6
:10D45500054AE54A70DF054980DB20980302D0467E
:10D46500859945C298E54525E0F54D754E00E4F5ED
:10D4750046F549F54A054EE54EAE4D7002054D148B
:10D48500F5828E83E4932546F546054AE54A700202
:0ED4950005497004E549640270DBD285C29936
:0DD4A300754F1475501300D550FCD54FF691
:08D4B0007599783099FDC299CD
:0DD4B800754F1475501300D550FCD54FF67C
:06D4C5008546993099FD37
:0DD4CB00754F0A75501300D550FCD54FF673
:10D4D800C28502D5FEE5446405600302D5F3F5492B
:10D4E800F54A209822C3E54A9488E54994135017D1
:0DD4F800754F0A75501300D550FCD54FF646
:10D50500054AE54A70DF054980DB20980302D046CD
:10D51500859945C298E4F549F54A209822C3E54A1C
:08D525009488E54994135017A6
:0DD52D00754F0A75501300D550FCD54FF610
:10D53A00054AE54A70DF054980DB20980302D04698
:09D54A00859947C298D285C29967
:0DD55300754F1475501300D550FCD54FF6E0
:08D5600075997F3099FDC29915
:0DD56800754F1475501300D550FCD54FF6CB
:10D575007599203099FDE54525E0FCE54775F020D6
:10D58500A42400FFE5F03CF54D8F4EE4F546F54843
:02D59500C29939
:0DD59700754F1475501300D550FCD54FF69C
:10D5A400854E82854D83E493F5993099FD054EE5CA
:10D5B4004EAE4D7002054D14F5828E83E4932546DC
:0BD5C400F5460548E548B420C8C299B0
:0DD5CF00754F1475501300D550FCD54FF664
:06D5DC008546993099FD1F
:0DD5E200754F0A75501300D550FCD54FF65B
:10D5EF00C285800BE544B40606E4F58475EF10E5BB
:0DD5FF00446407600302D0467880F6D2AF86
:01D60C0022FB
:102D80007F001233B720310B7A007B327D017F0048
:102D9000122D0730340B7A007B1E7D017F00122D2F
:102DA000073030173035147A007B327D017895E694
:102DB000FF122D07C230122931D23120330C3035A9
:102DC00009788076F1122931D23330360830350552
:102DD000C23612D000203512123600E47B2C7A0164
:0B2DE000F9F8C31206EF5002D23522B2
:0B36310012187C122D8012113F80F84F
:1023F000005EBCE2613FDD83C29C7E20A3FD1F41E5
:102400009DC3217FFCA2401E5F01E3BD3E6082DCD4
:10241000237D9FC1421CFEA0E1BF5D0380DE3C62C4
:10242000BEE0025CDF81633D7C22C09E1D43A1FFB4
:102430004618FAA427799BC584DA3866E5BB5907A4
:10244000DB856739BAE406581947A5FB7826C49A94
:10245000653BD987045AB8E6A7F91B45C6987A2484
:10246000F8A6441A99C7257B3A6486D85B05E7B974
:102470008CD2306EEDB3510F4E10F2AC2F7193CD64
:10248000114FADF3702ECC92D38D6F31B2EC0E5054
:10249000AFF1134DCE90722C6D33D18F0C52B0EE44
:1024A000326C8ED0530DEFB1F0AE4C1291CF2D7334
:1024B000CA947628ABF517490856B4EA6937D58B24
:1024C0005709EBB536688AD495CB2977F4AA481614
:1024D000E9B7550B88D6346A2B7597C94A14F6A804
:1024E000742AC896154BA9F7B6E80A54D7896B35F4
:0A24F000000000002B6096CBDDEE2B
:03292D00015E0A3E
:102A7100151E151EA81EECF608EDF6151E151E15E1
:102A81001EA81EC6EBC608C6EAC608C6E9C6E51EEC
:042A910024FCF51E0E
:102A9500F80808E4F6A81EF608F6E51E2407F9A8C6
:102AA5001EE6FE08E6FFC3099719E76480F8EE64A1
:102AB50080985037E51E2404F8CBE6CB08E6FA08E3
:102AC500E6F98F828E83120409A81E080866FFE5C1
:102AD5001E2403F8EFF6E69023F093A81E0808F6E7
:102AE500A81E0806E61870B20680AFA81E0808E6FC
:012AF500FFE1
:072AF600E51E2409F51E2274
:07000300ED6F9023F093FF65
:01000A0022D3
:10338E00EF7023F5847598D0F584759115F58475D5
:10339E00C90875CBFFED9024EF93F5CA75C804E408
:0833AE00F584D2ACC2BCD2AF21
:0133B60022F4
:10314200E4F564F563F562F561F568F567F566F532
:1031520065755D64FFEF25E025E02479F8E4F6EF7C
:1031620025E025E0247AF8E4F6EF25E025E0247B4B
:10317200F8E4F6EF25E025E0247CF8E4F60FBF0141
:01318200D478
:013183002229
:1034B900D2AFD2A9C2BBE4F584E589540F4401F522
:0F34C90089758E02758CAFE4F58AD28C02314280
:0229D400151ECE
:1029D600A81EE4F6A81EE6FFC394014003022A6E71
:1029E600EF25E025E0247CF8E6FFD394004052A8CA
:1029F6001EE625E025E0247AF8E67045EF30E0157E
:102A0600A81EE6FF25E025E0247CF8E6D3940140E5
:102A1600047D0080067D01A81EE6FF123184A81EF3
:102A2600E6FF25E025E0247CF816E66014EF25E0B5
:102A360025E0247BF8E6FEEF25E025E0247AF8EE93
:102A4600F6A81EE625E025E0247AF8E6600116A839
:102A56001EE6FF25E025E0247CF8E670057D0112E0
:082A66003184A81E060229DAE2
:032A6E00051E2220
:03000B00022C0EB6
:102C0E00C0E0C0F0C083C082C0D0E8C0E0E9C0E040
:102C1E00EAC0E0EBC0E0ECC0E0EDC0E0EEC0E0EFFB
:102C2E00C0E0758CAFE5642401F564E43563F563AB
:102C3E00E43562F562E43561F561D55D18E5682429
:102C4E0001F568E43567F567E43566F566E43565E4
:102C5E00F565755D641229D4123499D0E0FFD0E089
:102C6E00FED0E0FDD0E0FCD0E0FBD0E0FAD0E0F901
:0E2C7E00D0E0F8D0D0D082D083D0F0D0E032B9
:10340900151EA81EEDF6151EA81EEFF6A81EE6FF4E
:10341900C39401500D08E6FEEF25E025E02479F874
:07342900EEF6051E051E2250
:102D0700151E151EA81EEAF608EBF6151EA81EEDE1
:102D1700F6151EA81EEFF6A81EE6FFC39401505233
:102D2700EF25E025E0247CF8E67047A81EE6FB25A2
:102D3700E025E0247AF8E67039A81E08E625E004C5
:102D4700FFA81EE6FA25E025E0247CF8EFF6A81E8A
:102D57000808E6FE08E6FF7C007D0A12047CEA25E7
:102D6700E025E0247BF8EFF6EB25E025E0247AF870
:092D7700E4F6E51E2404F51E2219
:10318400151EA81EEDF6151EA81EEFF6A81EE6FFD6
:10319400C39401501CEF25E025E02479F8E6601182
:1031A400A81E08E670047F0180027F00A81E08EFB5
:1031B400F6A81EE6700608E624FF92A7051E051E63
:0131C40022E8
:0C360000C2AFAF64AE63AD62AC61D2AF8C
:01360C00229B
:0C360D00C2AFAF68AE67AD66AC65D2AF6F
:01361900228E
:1033B700151EA81EEFF6A81EE67004F55FF560302F
:1033C7003714E55E75F064A4FFC3E5609FE55F957C
:0933D700F0500375FFA5051E224C
:1034F700D237E4F55FF560EF6004F55E8003755E33
:0E3507000A75FF0775FFA5E4F58475EF042231
:0E35D700C237E4F55FF56075FFDE75FFAD22CB
:103499000560E5607002055F303714E55E75F0641C
:1034A900A4FFC3E5609FE55F95F0500375FFA52272
:043339008E458F46E8
:10333D00E4F547F548C3E5489546E54795455016EC
:10334D007FE87E03122F797F011233B70548E548D8
:06335D0070E3054780DF6C
:013363002247
:042F79008E598F5A84
:102F7D00D3E55A94FAE5599400500EEFD3940040DE
:102F8D00407E1600DEFD1F80F285595B855A5CD3AD
:102F9D00E55C94FAE55B940040157FFA7E00122FF4
:102FAD00797406255CF55C74FF355BF55B80E0D3C9
:102FBD00E55A9400E55994004007AF5CAE5B122FC3
:012FCD00798A
:012FCE0022E0
:102DEB00754E00754F007550487B007A0079467D13
:012DFB0002D5
:082DFC008B4A8A4B894C8D4D76
:102E04007F011233B7AB4EAA4FA9501204B224006B
:102E1400FFE5F034E0FE854A51854B52854C53E47E
:102E2400FDEDC3954D501BEF2DF582E43EF583E493
:102E340093AB51AA52A9538D827583001204480D95
:0F2E440080DFAB4EAA4FA950E4854DF00204DDAC
:1027CB00754612754734754E00754F007550487B32
:0727DB00007A0079467D023F
:0827E2008B4A8A4B894C8D4D96
:1027EA007880E664F1600302287F1235D7C2AFE42D
:1027FA00F58443B701758F01AB4EAA4FA950120455
:10280A00B22400FFE5F034E07886F608EFF6AA4B2A
:10281A00A94C788AA64A08C6EAC608C6E9C6E47870
:10282A0088F67888E6C3954D5032788ACBE6CB088D
:10283A000806E618CAE6CA70010614F91203F07807
:10284A0089F6E6FF78860806E618CCE6CC7001061B
:10285A0014F5828C83EFF078880680C6E4F58F53EE
:10286A00B7F0AB4EAA4FA950854DF01204DDD2AF96
:05287A00E4FF1234F739
:01287F002236
:103021007880E664F17046C2AF1235D7E4F5844387
:10303100B701758F03788776E008F67886F678878A
:10304100E6FE08E6F5828E83E4F07F011233B7785D
:1030510088E426F618740236F61806E6C39408408A
:0D306100DDE4F58F53B7F0D2AFFF1234F766
:01306E00223F
:10293100123021E4F548F549F54E754F00755048C0
:10294100FB7A0079087D161227E21227CBE4F545C0
:10295100E545C37878965073E4F544AB69AA6AA952
:102961006B75F010E544A4F58285F08312040960CB
:1029710056E54475F010A429F9EA35F0FA90000DF6
:102981001208377894E68545F0A429F9EA35F0FA7A
:10299100EBC0E0EAC0E0E9C0E0AB69AA6AA96B75E7
:1029A100F010E544A4F58285F083120409FD754E0B
:1029B10000754F00755048D0E0F9D0E0FAD0E0FB47
:1029C1001227E205448094054580851227CBE478DF
:0229D10080F68E
:0129D30022E1
:03270200CCEFCC4D
:10270500E4F548F549F545F54E754F00755048FB1C
:102715007A0079087D16122DFC122DEBE5476434FD
:102725007004E54664127003434501EC700302270B
:10273500C5E4F544E544C37878965073E4F543ABB6
:1027450069AA6AA96B75F010E543A4F58285F08343
:102755001204096056E54375F010A429F9EA35F02D
:10276500FA90000D1208377894E68544F0A429F90B
:10277500EA35F0FAEBC0E0EAC0E0E9C0E0AB69AAEF
:102785006AA96B75F010E543A4F58285F083120400
:1027950009FD754E00754F00755048D0E0F9D0E041
:1027A500FAD0E0FB122DFC05438094054480851288
:1027B5002DEBE54764347004E5466412700580002E
:0527C500434502AF4591
:0127CA0022EC
:05365200D29702363C96
:0A2E53008E448F458B468A4789485C
:102E5D00E4F54BF54CD295123364BF03037F032287
:102E6D00C2977F031233E0AF45AE441232DEC3E5A5
:102E7D004C954AE54B954950221231C5AB46AA47B0
:102E8D00A948EF12043674012548F548E43547F595
:102E9D0047054CE54C70D7054B80D37F197E00124A
:082EAD002F79D297C2957F0135
:012EB50022FA
:0A24FA008E3F8F408B418A428943D8
:10250400755000755120E5402545E53F3544C39499
:102514000640037F0222D295E545AE447805CEC33A
:1025240013CE13D8F9F54F8E4EAB47AA48A94912DA
:1025340003F0754A00F54BD3E54B954FE54A954EAC
:1025440040030225FD1235E5BF0302802FE54BAEA3
:102554004A7805C333CE33CED8F92540F540EE355D
:102564003FF53FE54BB54F0EE54AB54E09755000B2
:10257400E545541FF551123364BF030EAB47AA4817
:10258400A949E54B1204367F0322C2977F02123316
:10259400E0AF40AE3F1232DEE4F54CF54DC3E54DFD
:1025A4009551E54C95505036E546B40122AB41AA0D
:1025B40042A9431208171203F0FF1233E0AB41AAF9
:1025C40042A943900001E475F0011205158005E469
:1025D400FF1233E0054DE54D70C3054C80BF7F19F4
:1025E4007E00122F79D2977F197E00122F79054B26
:0D25F400E54B7002054A02253BC2957F01B0
:0126010022B6
:10336400C2977F197E00122F797F061233E07F19EE
:103374007E00122F79D2977F197E00122F79123591
:0A338400E5BF03037F03227F01224F
:1034D800C2977F051233E01231C58F527F197E00E3
:0E34E800122F79D2977F197E00122F79AF52E2
:0134F60022B3
:0D35E5001234D8EF547160037F03227F0180
:0135F20022B6
:06363C00E4F584D29122A6
:10359100E4F5847F32FE122F79D2927F327E0012BF
:0535A1002F79C2922207
:0233E0008F5309
:1033E200E4F584755407AF54E553A807088002C377
:1033F20013D8FC1392911235911554C3E55464808D
:06340200948050E2C2912B
:0134080022A1
:0432DE008E528F532A
:1032E200E4F58475540FE553AE52A854088005CE18
:1032F200C313CE13D8F91392911235911554C3E525
:09330200546480948050DFC291F4
:01330B00229F
:1031C500E4F553F554F555F5847553077F327E00C4
:1031D500122F79A296E433F554AF53A8070880025D
:1031E500C333D8FC4255D2927F327E00122F79C26A
:0E31F500921553C3E5536480948050D0AF55BB
:0132030022A8
:1026020000070E091C1B1215383F363124232A2DD0
:1026120070777E796C6B6265484F464154535A5DC0
:10262200E0E7EEE9FCFBF2F5D8DFD6D1C4C3CACDB0
:1026320090979E998C8B8285A8AFA6A1B4B3BABDA0
:10264200C7C0C9CEDBDCD5D2FFF8F1F6E3E4EDEA90
:10265200B7B0B9BEABACA5A28F88818693949D9A80
:102662002720292E3B3C35321F18111603040D0A70
:102672005750595E4B4C45426F68616673747D7A60
:10268200898E878095929B9CB1B6BFB8ADAAA3A450
:10269200F9FEF7F0E5E2EBECC1C6CFC8DDDAD3D440
:1026A200696E676075727B7C51565F584D4A434430
:1026B200191E171005020B0C21262F283D3A333420
:1026C2004E49404752555C5B7671787F6A6D646310
:1026D2003E39303722252C2B0601080F1A1D141300
:1026E200AEA9A0A7B2B5BCBB9691989F8A8D8483F0
:1026F200DED9D0D7C2C5CCCBE6E1E8EFFAFDF4F3E0
:1032AD00151EA81EA605151E151EA81EA60608A6E7
:1032BD0007A81E0808E6FFA81EE6FE08E66F240212
:1032CD00F58274263EF583E493FF051E051E051E4B
:0132DD0022CE
:033657000235C871
:0F35C800EF64014E7002C2907F027E0002333921
:10354A00EF64014E7011D2907F0CFE122F79C29057
:08355A007F047E00122F79228C
:10356200EF64014E7011D2907F04FE122F79C29047
:083572007F0C7E00122F79226C
:10324100EF64014E7034D2907F01FE122F79C2904B
:103251007F087E00122F79758402E5885440C413DB
:10326100135403FFBF010A7F087E00122F797F01EB
:0B327100227F087E00122F797F0022D0
:062EB6008F4D8C4E8D4F84
:102EBC00E49001DCF0A3F0A3F09001DDF0A3740723
:102ECC00F09001DDE0FEA3E0FFC3EE64809480404F
:102EDC003AE54DA807088002C313D8FC54019001B1
:102EEC00DCF07009AF4FAE4E123562800E9001DCF3
:102EFC00E0B40117AF4FAE4E12354A9001DEE0241C
:0B2F0C00FFF09001DDE034FFF080B624
:012F17002297
:0430B7008E578F5849
:1030BB00E49001DEF0A3F0A3F07407F0AF58AE5725
:1030CB001232419001DEEFF0A3E0FFA3E0FE90018E
:1030DB00DEE0FDA806088002C333D8FC4F9001DF69
:1030EB00F0A3E014F0E0C36480948050CF9001DF34
:0230FB00E0FFF4
:0130FD0022B0
:03365A00023657DE
:061F4C008F3F8D408B4128
:101F52009001D81207E6000000007D00AF3F7E002E
:101F62001232ADAD07AF417E001232ADAD07AF42C6
:101F72007E001232ADAD07AF407E001232AD90014D
:101F8200D7EFF0E54164037021FDAF44FE1232AD9C
:101F9200AD07AF437E001232ADAD079001D7E0FF2F
:101FA2007E001232AD9001D7EFF0754A01754C14E4
:101FB200E54A70030220A7E54C70030220A7AF4652
:101FC200AE45123562AF46AE45123562AD46AC45FE
:101FD200AF3F122EB6AF46AE45123562AD46AC45A6
:101FE200AF41122EB6AD46AC45AF42122EB6E54118
:101FF20070028028AD46AC45AF40122EB6E540B423
:10200200F6028018E54164037029AD46AC45AF4441
:10201200122EB6AD46AC45AF43122EB69001D7E0B4
:10202200FF854751854852854953AB46AA457DFFF6
:102032000222E1E54164017067E54264027061E5F4
:102042004A603F9001D7E0FF854751854852854954
:1020520053AB46AA45E4FD1222E18F4BE54B7022B9
:102062009001D8E0FCA3E0FDA3E0FEA3E0FFAB47B4
:10207200AA48A9491207AE12002D9001D81207DA18
:10208200154AE54A701A9001D8E0FCA3E0FDA3E0EE
:10209200FEA3E0FFAB47AA48A9491207507F0022DE
:0720A200154C021FB2AF4B09
:0120A9002214
:0822E1008F4D8D4E8A4F8B508A
:1022E900E4F556AF50AE4F1230B7E54D6F60037F3E
:1022F900FF22EFF4B54D037FFD22E54EB4FF037FC6
:102309000122E54E60030223EDAF50AE4F1230B704
:102319008F54AF50AE4F1230B78F55AF50AE4F12EA
:1023290030B78F567D00AF547E001232ADAD07AF86
:10233900557E001232ADEF655660037FFE22E555EA
:1023490030E7096355FFE554F404F554E555FE7C7F
:1023590000E42554FFEC3EFE9001DCF0A3EFF0FD14
:10236900AC06EC120336E4FBFA79807842120227B4
:10237900AB51AA52A953120750AB51AA52A953C043
:1023890003C002C0011207007BCC7A5D795B783FFC
:10239900120029D001D002D003120750AB51AA5222
:1023A900A953120700E4FBFA79C878421202C44023
:1023B90017AB51AA52A953120700E4FBFA79207806
:1023C900C11202C4600540037FFA22AB51AA52A987
:1023D900531207007BCC7A5D795B78BF1202C47017
:0623E900037FFB227F00D0
:0123EF0022CB
:06364200E4F584D2A6228B
:1035A6007F327E00122F79D2A57F327E00122F79CC
:0335B600C2A52289
:023430008F46C5
:10343200754707AF47E546A807088002C313D8FCC3
:103442001392A61235A61547C3E5476480948050AF
:03345200E2C2A62D
:013455002254
:10320400E4F545F546F5477545077F327E00122FF4
:1032140079A2A7E433F546AF45A807088002C33373
:10322400D8FC4247D2A57F327E00122F79C2A51561
:0C32340045C3E5456480948050D0AF474E
:01324000226B
:100026000203DBE86480F8E933E83360110460F02A
:10003600ED33EC337009E8FCE9FDEAFEEBFF220440
:1000460060DED3EB9FEA9EE99DE8C2E78CF0C2F73B
:1000560095F0400CE8CCF8E9CDF9EACEFAEBCFFB07
:100066001203A685D0F05804700320D5B3E80470B7
:10007600075002B2D50203E592D5EC0460F7E4CC52
:10008600C0E0C398F8603B94186008400DD0E0FBD0
:100096000203BDE4FBFAC9FC8028E830E406E4C9A3
:1000A600FBE4CAFCE830E305E4C9CACBFCE8540724
:1000B6006010F8C3E913F9EA13FAEB13FBEC13FC2F
:1000C600D8F130F52FC3E49CFCEF9BFFEE9AFEEDD2
:1000D60099FDD0E0FBEF4E4D4C701222DB0302037C
:1000E600E2EC2CFCEF33FFEE33FEED33FDED30E7B3
:1000F600EB0203BDEF2BFFEE3AFEED39FDD0E0FB40
:1001060050130BBB00030203E5ED13FDEE13FEEFE8
:0801160013FFEC13FC0203BD12
:10011E00EC4D6011E8497017ED33EC3304600DE4DB
:10012E00FCFFFEFD22E933E8330470F80203DB1214
:10013E0003A658046009E4CC248150062850090215
:10014E0003E52840030203E2C0E0EB4A7044B980A5
:10015E0006D0E0FB0203D1EF4E701CBD8008EBFF12
:10016E00EAFEE9FD80EBE98DF0A4FEE5F002020760
:10017E00E9CDF9EAFEEBFFEF89F0A4FCE5F0CE89BC
:10018E00F0A42EFFE435F0CD89F0A42DFEE435F079
:10019E008067EF4E7005BD80D780C3EF8BF0A4ACA7
:1001AE00F0EE8BF0A42CFCE435F0F8EF8AF0A42CE2
:1001BE00E5F038FCE433CB8DF0A42CFCE5F03BF8F5
:1001CE00EE8AF0A42CFCE5F038F8E433CF89F0A4E5
:1001DE002CFCE5F038CF3400CE89F0A42FFFE5F0EB
:1001EE003EFEE433C98DF0A42EFEE5F039CD8AF043
:1001FE00A42FFFE5F03EFEE43DFD33D0E0FB5007BB
:10020E000BBB000F0203E5EC2CFCEF33FFEE33FECD
:06021E00ED33FD0203BDFB
:100224000203E5EC5D046005E8590470030203DB96
:100234001203A6580460F6EC4860F2EC7004FDFE6C
:10024400FF22C860DB2481C85009C39860025006AD
:100254000203E29850CAF582E9294B4A7005AB8241
:100264000203D175F0007C1A7880C3EF9BEE9AEDFF
:1002740099400DC3EF9BFFEE9AFEED99FDE842F025
:10028400DC23ACF0D0E0FFD0E0FED0E0FDAB822078
:10029400E7101BEB60BAEC2CFCEF33FFEE33FEED02
:1002A40033FD0203BDE803F830E705C0F075F00044
:1002B400EF2FFFEE33FEED33FD40B830E7C280AAE6
:1002C40074F8CC6480CCC86480C8F582046043C3ED
:1002D400EB9FF5F0EA9E42F0E99D42F0E89C45F080
:1002E40060305018E5825FFFE582F42B5582FB50A5
:1002F400210ABA001D09B90019088016E5825BFBC2
:10030400E582F42F5582FF50090EBE00050DBD0095
:10031400010CC3EB9FF5F0EA9E42F0E99D42F0E840
:0D0324009C45F06007CC4820E701B3EC22B7
:1003310075F020800E75F010800575F0087D007E47
:10034100007F003392D530D5031206CBEC33401039
:10035100EF33FFEE33FEED33FDEC33FCD5F0ED2250
:0E036100E5F0247EA2D513CC92E7CDCEFF228C
:10036F00EDD2E7CD33EC3392D524814006E4FFFE86
:10037F00FDFC22FCE4CFCECDCC24E0501174FF80E5
:10038F00EDC3CC13CCCD13CDCE13CECF13CF047082
:07039F00F030D5DE0206CBB1
:1003A600E9D2E7C933E833F892D5EDD2E7CD33EC9D
:0703B60033FC5002B2D52216
:1003BD00EC30E7100FBF000C0EBE00080DBD0004A1
:1003CD000BEB6014A2D5EB13FCED92E7FD2274FF4D
:1003DD00FCFDFEFF22E480F8A2D574FF13FC7D80A6
:0303ED00E480EFBA
:03000000022AFDD4
:0C2AFD00787FE4F6D8FD758196022B442A
:1003F000BB010689828A83E0225002E722BBFE020B
:09040000E32289828A83E493223D
:10040900BB010CE58229F582E5833AF583E02250A8
:1004190006E92582F8E622BBFE06E92582F8E222F2
:0D042900E58229F582E5833AF583E493220C
:10043600BB010689828A83F0225002F722BBFE01A5
:02044600F3229F
:10044800F8BB010DE58229F582E5833AF583E8F0EA
:10045800225006E92582C8F622BBFE05E92582C896
:02046800F2227E
:10046A00EF8DF0A4A8F0CF8CF0A428CE8DF0A42EA6
:02047A00FE2260
:10047C00C2D5EC30E709B2D5E4C39DFDE49CFCEE9B
:10048C0030E715B2D5E4C39FFFE49EFE1208B9C352
:10049C00E49DFDE49CFC80031208B930D507C3E44D
:0604AC009FFFE49EFE220A
:1004B200BB010A89828A83E0F5F0A3E02250068715
:1004C200F009E71922BBFE07E3F5F009E3192289D7
:0B04D200828A83E493F5F0740193220A
:1004DD00BB010789828A8302090E500B09C5F027DB
:1004ED00F7C5F01937F722BBFE0D09F8E325F0F338
:1004FD00C5F019E338F322F889828A8374019325B4
:08050D00F0C5F0F8E493382278
:10051500BB010DC58229C582C5833AC58302090E73
:100525005011C58229F808E5F026F618F5F0E582A0
:1005350036F622BBFE11C58229F808E225F0F5F052
:10054500F218E23582F222F8E58229F582E5832A5E
:0D055500F58374019325F0F5F0E49338224E
:10056200BB010A89828A83F0E5F0A3F0225006F7E4
:0F05720009A7F01922BBFE06F3E5F009F31922E1
:10058100F8BB0111E58229F582E5833AF583E8F0AC
:10059100E5F0A3F0225009E92582C8F608A6F02269
:0D05A100BBFE09E92582C8F2E5F008F22250
:1005AE00E88FF0A4CC8BF0A42CFCE98EF0A42CFCEC
:1005BE008AF0EDA42CFCEA8EF0A4CDA8F08BF0A46A
:1005CE002DCC3825F0FDE98FF0A42CCD35F0FCEBC9
:1005DE008EF0A4FEA9F0EB8FF0A4CFC5F02ECD398E
:0F05EE00FEE43CFCEAA42DCE35F0FDE43CFC22FB
:1005FD0075F008758200EF2FFFEE33FECD33CDCCB5
:10060D0033CCC58233C5829BED9AEC99E582984037
:10061D000CF582EE9BFEED9AFDEC99FC0FD5F0D614
:10062D00E4CEFBE4CDFAE4CCF9A88222B800C1B93E
:10063D000059BA002DEC8BF084CFCECDFCE5F0CB7C
:10064D00F97818EF2FFFEE33FEED33FDEC33FCEBB5
:10065D0033FB10D703994004EB99FB0FD8E5E4F970
:10066D00FA227818EF2FFFEE33FEED33FDEC33FC5D
:10067D00C933C910D7059BE99A4007EC9BFCE99A51
:10068D00F90FD8E0E4C9FAE4CCFB2275F010EF2F96
:10069D00FFEE33FEED33FDCC33CCC833C810D70796
:1006AD009BEC9AE899400AED9BFDEC9AFCE899F8D1
:0E06BD000FD5F0DAE4CDFBE4CCFAE4C8F92264
:0E06CB00C3E49FFFE49EFEE49DFDE49CFC2240
:1006D900EB9FF5F0EA9E42F0E99D42F0EC6480C898
:0606E90064809845F02238
:1006EF00EB9FF5F0EA9E42F0E99D42F0E89C45F061
:0106FF0022D8
:10070000BB010789828A830209305005E9F8020992
:1007100024BBFE05E9F802093C89828A8302078E20
:10072000BB010DE58229F582E5833AF583020930A4
:100730005007E92582F8020924BBFE07E92582F863
:1007400002093CE58229F582E5833AF58302078EAA
:10075000BB010789828A830207DA5005E9F802079C
:0A076000CEBBFE05E9F802096E2287
:10076A00BB010DE58229F582E5833AF5830207DAB2
:10077A005007E92582F80207CEBBFE07E92582F871
:04078A0002096E22D0
:10078E00E493FC740193FD740293FE740393FF22B1
:10079E00E493F8740193F9740293FA740393FB22B1
:1007AE00BB010789828A830209555005E9F80209BF
:1007BE0048BBFE05E9F802096189828A8302079E19
:0C07CE00ECF608EDF608EEF608EFF62257
:0C07DA00ECF0A3EDF0A3EEF0A3EFF02292
:1007E600A8828583F0D083D0821207FD1207FD12FE
:1007F60007FD1207FDE473E493A3C583C5F0C58323
:10080600C8C582C8F0A3C583C5F0C583C8C582C85C
:0108160022BF
:10081700BB010789828A830209835005E9F8020927
:100827007ABBFE05E9F802098C89828A8302099559
:10083700BB010DE58229F582E5833AF58302098339
:100847005007E92582F802097ABBFE07E92582F8F5
:1008570002098CE58229F582E5833AF58302099539
:10086700D083D082F8E4937012740193700DA3A320
:1008770093F8740193F5828883E473740293686034
:06088700EFA3A3A380DF34
:102FCF008B438A448945E4F54BF54CE54A154AAEE7
:102FDF0049700215494E6033AB46AA47A948120300
:102FEF00F0FFAB43AA44A945054CE54CAC4B70022E
:102FFF00054B14F5828C83EF120448EF60CD7401FA
:10300F002548F548E43547F54780C0AB43AA44A9A6
:02301F00452248
:10088D00EF4E6012EF60010EEDBB010B89828A8382
:10089D00F0A3DFFCDEFA2289F05007F709DFFCA98F
:0C08AD00F022BBFEFCF309DFFCA9F022E6
:102B0900023631E493A3F8E493A34003F68001F27B
:102B190008DFF48029E493A3F85407240CC8C333CD
:102B2900C4540F4420C8834004F456800146F6DF9C
:102B3900E4800B0102040810204080902880E47E84
:102B4900019360BCA3FF543F30E509541FFEE49391
:102B5900A360010ECF54C025E060A840B8E493A358
:102B6900FAE493A3F8E493A3C8C582C8CAC583CA83
:102B7900F0A3C8C582C8CAC583CADFE9DEE780BE3B
:0129300000A6
:1008B900BC000BBE0029EF8DF084FFADF022E4CC23
:1008C900F875F008EF2FFFEE33FEEC33FCEE9DECEC
:1008D900984005FCEE9DFE0FD5F0E9E4CEFD22ED32
:1008E900F8F5F0EE8420D21CFEADF075F008EF2F7C
:1008F900FFED33FD4007985006D5F0F222C398FD6D
:050909000FD5F0EA2209
:10090E00C5F0F8A3E028F0C5F0F8E5821582700274
:06091E001583E038F02211
:0C092400E6FC08E6FD08E6FE08E6FF22FF
:0C093000E0FCA3E0FDA3E0FEA3E0FF223A
:0C093C00E2FC08E2FD08E2FE08E2FF22F7
:0D094800E6FB08E6F908E6FA08E6CBF8221F
:0C095500E0F8A3E0F9A3E0FAA3E0FB2225
:0D096100E2FB08E2F908E2FA08E2CBF82216
:0C096E00ECF208EDF208EEF208EFF222C5
:09097A00E6FB08E6FA08E6F922A2
:09098300E0FBA3E0FAA3E0F92275
:09098C00E2FB08E2FA08E2F9229C
:0C099500E493FB740193FA740293F922BE
:00000001FF
