:0C58F200245265763A2035343220240020
:10332900E47880F61258AF75840F75E105E4F5E28B
:1033390075E34075A508F58475B7B075840F758A6E
:1033490083F597438901758D01758F01758E04F594
:1033590041F5420542E54270020541640F4541705D
:10336900F2438902E4F541F542AE41AF42E4FCFD86
:103379007B507AC3F9F8D3121A72400FE58920E419
:103389000A0542E54270E2054180DE75970212574F
:1033990092E4F541F5427D01AF421257250542E518
:1033A9004270020541C39401E541940040E8E4F507
:1033B90020C232C230C236C235C2347880F6C285E4
:1033C90008F6789DF618F678A2F6F541F542743EAE
:1033D9002542F582E43405F583E4F00542E54270BF
:1033E9000205416440454170E5E4F541F542747ECA
:1033F9002542F582E43405F583E4F00542E542709F
:103409000205416440454170E5E4F584E5EF20E1BA
:103419000CE5EF5408D394004003D38001C3920311
:103429007D08E4FF1256D3E478A1F6789AF6AB70DA
:10343900AA71A972789AE6FF75F010A4F58285F051
:10344900831217A2FE78A126F6EE6005789A068007
:10345900DDEFD394004030AB70AA71A97290000DD2
:10346900121BE6121789FF74551217CF12178964B8
:10347900556002D23474AA1217CF12178964AA6050
:1034890002D234EF1217CFE4F584E5EF5402D39456
:103499000040047F018002E4FF12460F8F40E5409F
:1034A90020E035C23174FFF508F509F50AF50B7E00
:1034B900007F107D007B007A00790E121C3C754656
:1034C900FF75471D754850754900754A107B007A8C
:1034D90000790E12519C8002D2319058F9E493FF81
:1034E9003395E0FEEF24D0FFEE34FFFE7C007D64CF
:1034F900121803AA06AB079058F8E493FF3395E036
:10350900FEEF24D0FFEE34FFFE7C037DE8121803A2
:10351900EF2BFBEE3AFA9058FAE493FF3395E0FE6D
:10352900EF24D0FFEE34FFFE7C007D0A121803EF72
:103539002BFFEE3AFEA3E493FD3395E0FCED24D096
:10354900FDEC34FFCD2FF50DED3EF50CE54030E1F6
:103559000302360BE4F541F542E542C4F8540FC8BD
:1035690068FFE541C454F048FEAB70AA71A9728F97
:1035790082F5831217A27003023602E92FF9EA3E97
:10358900FA9000041217A220E264E4F53FE53FC374
:10359900788E965059E542C4F8540FC868FFE54142
:1035A900C454F048AB70AA71A9728F82F5831217BF
:1035B900A2FF7E00C006C0077D00E542C4F8540F93
:1035C900C868FFE541C454F048FEE92FF9EA3EFA1C
:1035D90090000D121BE678A1E6853FF0A429F9EACF
:1035E90035F0FAD007D006121C3C053F809F0542F2
:1035F900E542700205410235627F01122E44C23351
:103609008007E4FF122E44D233E4F541F5427A00F3
:103619007B967D03AF42124DA00542E5427002053B
:0A36290041C39401E541940040E420
:013633002274
:0559210078A2E6FF2260
:03002300023EF6A4
:103EF600C0E0C0F0C083C082C0D075D000C000C092
:103F060001C002C003C004C005C006C00730993E08
:103F1600C299789D06799DE77881667015F6789D39
:013F2600F6A4
:0D3F270075280A75291300D529FCD528F648
:043F3400C285801CA6
:0D3F380075281475291300D529FCD528F62D
:103F4500789DE6247EF582E43405F583E0F5992035
:103F55009803023FEE209A08203205C298023FEAF4
:103F6500C29A789CE606243EF582E43405F583E59D
:103F750099F0C298E6FFB4011290053EE0FE700389
:103F8500F68066EE5407240278A3F6EFB4020D78A6
:103F9500A3E6B4090790053FE02403F6789CE6FF05
:103FA500B4400476008042EFC378A396403B789CEA
:103FB500E624FFFDE434FFFC7B017A05793E124BD4
:103FC5008F789CE6243DF582E43405F583E06F6047
:053FD5000476008014D9
:0D3FDA0075281475291300D529FCD528F68B
:103FE7001226A6789C7600D007D006D005D004D03C
:103FF70003D002D001D000D0D0D082D083D0F0D06F
:02400700E032A5
:104D250090053FE075F010A4AB702572F9E571357B
:104D3500F0FA90000D121BE678A2E6FF18E68FF058
:104D4500A4252CF582E435F0F5831217A2FF7B002C
:044D55007A00792A3D
:104D59008F398B3A8A3B893CE4F584EA494B601CDC
:104D6900AB3AAA3BA93C121789FFE539FD7C001231
:0C4D79000003AB3AAA3BA93CEF1217CF95
:0D4D8500753D14753E1300D53EFCD53DF67E
:0E4D92008539997F011256FC3099FDC2992295
:09580D00E4F5847881EFF6D28500
:0D581600753914753A1300D53AFCD539F6F2
:0758230090057EE0F59922DB
:10528B00C9EFC9E964017028EDC39B4034788EE601
:10529B00FFEB2FFFE433FEEDC39FEE6480F87480C9
:1052AB0098501ED232C3ED9B78A2F6789E760122DF
:1052BB00B90214ED6B700AD23278A2F6789E7602A0
:0852CB0022C232E4789EF622B3
:10509000C9EFC9BAFF15BBFF12ED6B7002EC6A7065
:1050A00049D23278A2F6789EE9F622E964017025A9
:1050B000C3ED9BEC9A401C788EE62BFFE43AFEC3CE
:1050C000ED9FEC9E500DD232C3ED9B78A2F6789EF8
:1050D0007601228015B90218ED6B7002EC6A700A35
:1050E000D23278A2F6789E760222C232E4789EF618
:0150F000229D
:1026A60090053EE0FF54F8F52BE4F584EF121C1676
:1026B60026F30926FF0A270F1027181127281227A5
:1026C6003C1927511A277320277C28281B29291DE6
:1026D60033294F37297E3929984129A34929AD50F5
:1026E60029F56128E77029ED9800002A2590053F15
:1026F600E0FDE509FB7F01802390053FE0FCA3E0B8
:10270600FDAB09AA087F018027D232789E760302A4
:102716002A2590053FE0FDE50BFB7F0212528B0256
:102726002A2590053FE0FCA3E0FDAB0BAA0A7F0239
:10273600125090022A2590053FE0FDE509FB7F0136
:1027460012528B203203022A25801790053FE0FCA7
:10275600A3E0FDAB09AA087F0112509020320302C4
:102766002A2590057E7478F07F01022A22E4F584FA
:1027760075EF10022A25C2ACE4F52AD285FB7A0051
:10278600792A7F7F124D597B007A00792A7F1812A9
:102796004D597B007A00792A7F05124D59789AE6C1
:1027A600124D527B007A00792AAF08124D597B00F0
:1027B6007A00792AAF09124D597B007A00792AAF3F
:1027C6000A124D597B007A00792AAF0B124D597BBC
:1027D600007A00792AAF0C124D597B007A00792ACB
:1027E600AF0D124D59E4F52C740E252CF8E6124D5A
:1027F60052052CE52CC3941040EE7B007A0079003C
:05280600AF2A124D593C
:0D280B0075370A75381300D538FCD537F63F
:102818000228D290053FE0FFC3789A964003022829
:10282800D9EF75F010A42572F9E57135F08570348B
:10283800F5358936C2ACE4F52AD285FB7A00792AC7
:102848007F7F124D597B007A00792A7F0D124D59EE
:10285800AB34AA35A936121789124D52AB34AA35B2
:10286800A936900001124D4FAB34AA35A936900015
:1028780002124D4FAB34AA35A936900003124D4FC2
:10288800AB34AA35A936900004124D4FE4F52CABB1
:1028980034E5362405F9E43535FA7E00E9252CF9C6
:1028A800EE3AFA121789124D52052CE52CC39408FA
:0D28B80040DD7B007A007900AF2A124D59F7
:0D28C50075370A75381300D538FCD537F685
:1028D200C285D2AC022A2590057E7478F0E4A3F07A
:1028E2007F02022A221258D8788F121B7190057E1D
:1028F200747CF0788FE6A3F008E6A3F008E6A3F074
:1029020008E6A3F07C007D057B017A05797E124BF7
:102912008F900583EFF07F06022A2290053FE0FFA9
:10292200B4010BA3E0F508A3E0F5090229EDEFB429
:102932000209900540E0F5080229ED90053FE0B458
:102942000308A3E0F50AA3E0F50B0229EDE4F52C58
:1029520090053FE0FFE52CC39F501C7440252CF5E9
:1029620082E43405F583E0FF740E252CF8C6EFC629
:10297200052CE52CB410D9E4F51D806F7A007B326A
:102982007D0178A2E6FF124DA090053FE0FDE4FF35
:102992001256D3022A2590053FE024FF9202022A12
:1029A2002590053FE024FF9201807878A2E6600539
:1029B200752E02800B203505752E038003752E01BE
:1029C20090057E7479F0A3E52EF07C007D027B01F8
:1029D2007A05797E124B8F900580EFF07F031258B3
:1029E2000DE52E6401703CD2368002D230788076BA
:1029F200F180307A007B327D017F00124DA090057C
:102A02007E7479F090053FE090057FF07C007D02B6
:102A12007B017A05797E124B8F900580EFF07F0360
:102A220012580DE52B64A06003022C3490053EE0A1
:102A320064A16003022B24A3E0C3789A96400302A8
:102A42002B19AB70AA71A972E0FF75F010A4F58280
:102A520085F0831217A2F52EEF75F010A429F9EA7A
:102A620035F0FA9000041217A230E23790053FE0E9
:102A720012592B8F2E90057E747FF0A3E52EF02441
:102A820002FDE433FC7B017A05797E124B8F748060
:102A9200252EF582E43405F583EFF0E52E2403FFBD
:102AA200022C3190053FE0FF12592BC2ACE4F52A0B
:102AB200D285E52ED39406402B7B007A00792A7FBB
:102AC2007F124D597B007A00792AAF2E124D59E4BC
:102AD200F52CE52CC3952E5007124D25052C80F2BE
:102AE200052E8018E52E2478124D52E4F52CE52CA3
:102AF200C3952E5007124D25052C80F27B007A00DB
:072B02007900AF2A124D59C2
:0D2B090075370A75381300D538FCD537F63E
:102B1600022C2390057E7478F07F01022C319005FB
:102B26003EE064A26003022C34789AE6FFA3E0FE3E
:102B3600C39F4003022C29A3E0FDC39F4003022C40
:102B460029EE9D4003022C2990053FE0F52CE4F583
:102B560032F533900540E0FFE52CD39F5026AF2C8D
:102B660012592BAB70AA71A97275F010E52CA4F559
:102B76008285F0831217A22533F533E43532F53218
:102B8600052C80CFC2ACE4F52AD285FB7A00792ADF
:102B96007F7F124D59C3E5339480E532940050028D
:102BA6008007E5324480124D52AF33124D539005E3
:102BB6003FE0F52C900540E0FFE52CD39F5046E41E
:102BC600F52DAB70AA71A97275F010E52CA4F582EB
:102BD60085F0831217A2FFE52DC39F5024E52C75BF
:102BE600F010A429F9EA35F0FA90000D121BE678E8
:102BF600A2E6FF18E68FF0A4252D124D48052D807C
:102C0600C1052C80AF7B007A007900AF2A124D599E
:0D2C160075370A75381300D538FCD537F630
:102C2300C285D2AC800B90057E7478F07F01125878
:102C33000DE52B6458704DFA7B327D0178A2E6FFD7
:102C4300124DA0753C01753D05753E7F7B017A05EC
:102C5300793F1255FC8F2EE52E247890057EF0EFF8
:102C63002401FDE433FC7B017A05797E124B8F74DA
:102C73007F252EF582E43405F583EFF0E52E24025B
:102C8300FF12580DE52B64806009E52B648860030F
:102C9300022E43789EE6B4010F7A007B327D0178E1
:102CA300A2E6FF124DA0801AE4F52CE52CC3788E22
:102CB30096500F7A007B327D01AF2C124DA0052C6C
:102CC30080E990053EE05407F52EB4070A752D01FF
:102CD300A3E0F52EA38006E4F52D90053FE0F52F44
:102CE300152EE52FC3789A964003022E17AB70AAD0
:102CF30071A97275F010E52FA4F58285F083121780
:102D0300A2FFE52ED39F40028F2E789EE6B40109E1
:102D130078A2E6F531F5308009E4F530788EE614D3
:102D2300F53178A2A63078A2E6D395314003022E7E
:102D33000BE4F52CE52CC3952E4003022E00E52F62
:102D430075F010A4AB702572F9E57135F0FA9000B7
:102D5300041217A230E203022DFB9000011217A206
:102D630064387041E52ED394044011E52D252C24BD
:102D730040F582E43405F583E0FD805E789CE6C38C
:102D8300952CFFE49400FE743C2FF58274053EF508
:102D930083E0FDE52F75F010A4AB702572F9E571A2
:102DA30035F0FA8035AB70AA71A97275F010E52F72
:102DB300A4F58285F0831217A2FFC3789CE69F25B2
:102DC3002C252D243DF582E43405F583E0FDE52F24
:102DD30075F010A429F9EA35F0FA90000D121BE6FC
:102DE30078A2E6FF18E68FF0A4FFE52C2FF582E426
:102DF30035F0F583ED1217E1052C022D37AF2F12B5
:102E030046D878A206022D2978A2A630E52B64883D
:102E1300702E8010E52FB4FF27900540E0F520E5E4
:102E23002BB4881C90057E7478F0789CE6243DF5DD
:102E330082E43405F583E090057FF07F0212580D9C
:012E4300226C
:10D000007880E664F1600302D60CE4F551F55278BD
:04D0100081E6601F36
:0DD0140075570A75581300D558FCD557F60E
:10D021000552E5527002055164107004E551642700
:10D0310070DCC2AF7584015398FC75FFDE75FFADDE
:10D04100E4F54DF54CE4F58420982EE4F551F552C4
:0ED05100209822C3E5529488E551941350179D
:0DD05F0075570A75581300D558FCD557F6C3
:10D06C000552E55270DF055180DBB2A780CF859960
:10D07C004CC298E54C641A600302D14CF551F55240
:0ED08C00209822C3E5529488E5519413501762
:0DD09A0075570A75581300D558FCD557F688
:10D0A7000552E55270DF055180DB30989285994D26
:10D0B700C298E4F551F552209822C3E5529488E5C9
:05D0C700519413501705
:0DD0CC0075570A75581300D558FCD557F656
:10D0D9000552E55270DF055180DB20980302D046E6
:10D0E90085994DC298E4F551F552209822C3E5522D
:08D0F9009488E55194135017CF
:0DD1010075570A75581300D558FCD557F620
:10D10E000552E55270DF055180DB20980302D046B0
:09D11E0085994DC298D285C29991
:0DD1270075571475581300D558FCD557F6F0
:06D134007599783099FDA9
:0DD13A0075570A75581300D558FCD557F6E7
:10D14700C28502D5FEE54C6450600302D1DCF5517F
:10D15700F552209822C3E5529488E551941350174D
:0DD1670075570A75581300D558FCD557F6BA
:10D174000552E55270DF055180DB20980302D0464A
:09D1840085994DC298D285C2992B
:0DD18D0075571475581300D558FCD557F68A
:08D19A007599793099FDC299E5
:0DD1A20075571475581300D558FCD557F675
:08D1AF007599013099FDC29948
:0DD1B70075571475581300D558FCD557F660
:06D1C400E4F5993099FD2D
:0DD1CA0075570A75581300D558FCD557F657
:0FD1D700C28502D5FEE54C6401703ED285C29937
:0DD1E60075571475581300D558FCD557F631
:08D1F3007599783099FDC2998D
:0DD1FB0075571475581300D558FCD557F61C
:06D20800E4F5993099FDE8
:0DD20E0075570A75581300D558FCD557F612
:10D21B00C28502D5FEE54C6402600302D2E2F551F1
:10D22B00F552209822C3E5529488E5519413501778
:0DD23B0075570A75581300D558FCD557F6E5
:10D248000552E55270DF055180DB20980302D04675
:10D2580085994DC298E4F54EE54D13B392A7E54D77
:10D2680025E0FEC3E49400EE94D0502AE54D7F00FB
:10D2780025E0FEC394E0501EE54D20E01FE4F58450
:10D2880043B701758F038E538F548F828E83F0536B
:10D29800B7F0F58F8003754EFFE4F584D285C29907
:0DD2A80075571475581300D558FCD557F66E
:08D2B5007599783099FDC299CA
:0DD2BD0075571475581300D558FCD557F659
:06D2CA00854E993099FD2C
:0DD2D00075570A75581300D558FCD557F650
:10D2DD00C28502D5FEE54C6403600302D42DF551E1
:10D2ED00F552209822C3E5529488E55194135017B6
:0DD2FD0075570A75581300D558FCD557F623
:10D30A000552E55270DF055180DB20980302D046B2
:10D31A0085994DC298E4F551F552209822C3E552F9
:08D32A009488E551941350179B
:0DD3320075570A75581300D558FCD557F6ED
:10D33F000552E55270DF055180DB20980302D0467D
:10D34F0085994FC298E54D1392A7E54D25E0FEC391
:10D35F00E49400EE94D0400302D046E54D7D0025C5
:10D36F00E0FCC394E0400302D046E4F58443B701E8
:10D37F00758F01E54F75F020A42DFFE5F03CF553B7
:10D38F008F54E4F584F550E550C394205048E4F5EC
:10D39F0051F552209822C3E5529488E551941350C9
:01D3AF001766
:0DD3B00075570A75581300D558FCD557F66F
:10D3BD000552E55270DF055180DB20980302D046FF
:10D3CD000554E554AE537002055314F5828E83E572
:10D3DD0099F0C298055080B1E4F58453B7F0F58FFC
:06D3ED00F584D285C2990F
:0DD3F30075571475581300D558FCD557F622
:08D400007599783099FDC2997D
:0DD4080075571475581300D558FCD557F60C
:06D41500E4F5993099FDD9
:0DD41B0075570A75581300D558FCD557F603
:10D42800C28502D5FEE54C6404600302D4DDF551E3
:10D43800F552209822C3E5529488E5519413501769
:0DD4480075570A75581300D558FCD557F6D6
:10D455000552E55270DF055180DB20980302D04666
:10D4650085994DC298E54D25E0F555755600E4F5CD
:10D475004EF551F5520556E556AE55700205551453
:10D48500F5828E83E493254EF54E0552E5527002E2
:0ED4950005517004E551640270DBD285C29926
:0DD4A30075571475581300D558FCD557F671
:08D4B0007599783099FDC299CD
:0DD4B80075571475581300D558FCD557F65C
:06D4C500854E993099FD2F
:0DD4CB0075570A75581300D558FCD557F653
:10D4D800C28502D5FEE54C6405600302D5F3F5511B
:10D4E800F552209822C3E5529488E55194135017B9
:0DD4F80075570A75581300D558FCD557F626
:10D505000552E55270DF055180DB20980302D046B5
:10D5150085994DC298E4F551F552209822C3E552FC
:08D525009488E551941350179E
:0DD52D0075570A75581300D558FCD557F6F0
:10D53A000552E55270DF055180DB20980302D04680
:09D54A0085994FC298D285C2995F
:0DD5530075571475581300D558FCD557F6C0
:08D5600075997F3099FDC29915
:0DD5680075571475581300D558FCD557F6AB
:10D575007599203099FDE54D25E0FCE54F75F020C6
:10D58500A42400FFE5F03CF5558F56E4F54EF55023
:02D59500C29939
:0DD5970075571475581300D558FCD557F67C
:10D5A400855682855583E493F5993099FD0556E5B2
:10D5B40056AE557002055514F5828E83E493254EBC
:0BD5C400F54E0550E550B420C8C29998
:0DD5CF0075571475581300D558FCD557F644
:06D5DC00854E993099FD17
:0DD5E20075570A75581300D558FCD557F63B
:10D5EF00C285800BE54CB40606E4F58475EF10E5B3
:0DD5FF004C6407600302D0467880F6D2AF7E
:01D60C0022FB
:104EF8007F001256FC20310B7A007B327D017F0047
:104F0800124DA030340B7A007B1E7D017F00124DBC
:104F1800A03030173035147A007B327D0178A2E654
:104F2800FF124DA0C2301249B5D23120330C3035B2
:104F380009788076F11249B5D23330360830350514
:104F4800C23612D0002035121258CBE47B2C7A01DD
:0B4F5800F9F8C3121A885002D235226B
:0B590A00123329124EF812007680F8CC
:06591500E4F584D2A42297
:10000E00E4F5847F32FE1250F1D2A37F327E0012CD
:05001E0050F1C2A32215
:0256AA008F531C
:1056AC00E4F584755407AF54E553A807088002C38A
:1056BC0013D8FC1392A412000E1554C3E554648045
:0656CC00948050E2C2A42C
:0156D20022B5
:0455A1008E528F5344
:1055A500E4F58475540FE553AE52A854088005CE32
:1055B500C313CE13D8F91392A412000E1554C3E5E4
:0955C500546480948050DFC2A4FC
:0155CE0022BA
:10539D00E4F553F554F555F5847553077F327E00CA
:1053AD001250F1A2A1E433F554AF53A807088002BF
:1053BD00C333D8FC4255D2A37F327E001250F1C2C6
:0E53CD00A31553C3E5536480948050D0AF55B0
:0153DB0022AF
:10443A0000070E091C1B1215383F363124232A2D7A
:10444A0070777E796C6B6265484F464154535A5D6A
:10445A00E0E7EEE9FCFBF2F5D8DFD6D1C4C3CACD5A
:10446A0090979E998C8B8285A8AFA6A1B4B3BABD4A
:10447A00C7C0C9CEDBDCD5D2FFF8F1F6E3E4EDEA3A
:10448A00B7B0B9BEABACA5A28F88818693949D9A2A
:10449A002720292E3B3C35321F18111603040D0A1A
:1044AA005750595E4B4C45426F68616673747D7A0A
:1044BA00898E878095929B9CB1B6BFB8ADAAA3A4FA
:1044CA00F9FEF7F0E5E2EBECC1C6CFC8DDDAD3D4EA
:1044DA00696E676075727B7C51565F584D4A4344DA
:1044EA00191E171005020B0C21262F283D3A3334CA
:1044FA004E49404752555C5B7671787F6A6D6463BA
:10450A003E39303722252C2B0601080F1A1D1413A9
:10451A00AEA9A0A7B2B5BCBB9691989F8A8D848399
:10452A00DED9D0D7C2C5CCCBE6E1E8EFFAFDF4F389
:1054B100157EA87EA605157E157EA87EA60608A6E1
:1054C10007A87E0808E6FFA87EE6FE08E66F243AF4
:1054D100F58274443EF583E493FF057E057E057EE7
:0154E10022A8
:03007000025845EE
:10584500EF64014E7004C2918008EF64024E70024D
:09585500C2937F027E0002565549
:10003E008E558F56E55664014555700CD2917F0C46
:10004E00FE1250F1C2918012E556640245557011B0
:10005E00D2937F0CFE1250F1C2937F047E00125099
:02006E00F1227D
:10544D008E558F56E55664014555700CD2917F04EB
:10545D00FE1250F1C2918012E5566402455570114D
:10546D00D2937F04FE1250F1C2937F0C7E00125036
:02547D00F1221A
:104E8A008E5E8F5FE55F6401455E7025D2917F017A
:104E9A00FE1250F1C2917F087E001250F175840211
:104EAA00E5885440C413135403FFBF0102802B80CA
:104EBA0033E55F6402455E7034D2937F01FE12507F
:104ECA00F1C2937F087E001250F1758401E588547F
:104EDA0040C413135403FFBF010A7F087E00125017
:0E4EEA00F17F01227F087E001250F17F00222E
:06502E008F528C538D54DB
:10503400E49005F2F0A3F0A3F09005F3F0A3740755
:10504400F09005F3E0FEA3E0FFC3EE64809480409B
:105054003AE552A807088002C313D8FC540190050E
:10506400F2F07009AF54AE5312544D800E9005F215
:10507400E0B40117AF54AE5312003E9005F4E0249F
:0B508400FFF09005F3E034FFF080B671
:01508F0022FE
:0452D3008E5C8F5D01
:1052D700E49005F4F0A3F0A3F07407F0AF5DAE5CC3
:1052E700124E8A9005F4EFF0A3E0FFA3E0FE9005CD
:1052F700F4E0FDA806088002C333D8FC4F9005F5FB
:10530700F0A3E014F0E0C36480948050CF9005F5DB
:02531700E0FFB5
:015319002271
:10422800005EBCE2613FDD83C29C7E20A3FD1F418E
:104238009DC3217FFCA2401E5F01E3BD3E6082DC7E
:10424800237D9FC1421CFEA0E1BF5D0380DE3C626E
:10425800BEE0025CDF81633D7C22C09E1D43A1FF5E
:104268004618FAA427799BC584DA3866E5BB59074E
:10427800DB856739BAE406581947A5FB7826C49A3E
:10428800653BD987045AB8E6A7F91B45C6987A242E
:10429800F8A6441A99C7257B3A6486D85B05E7B91E
:1042A8008CD2306EEDB3510F4E10F2AC2F7193CD0E
:1042B800114FADF3702ECC92D38D6F31B2EC0E50FE
:1042C800AFF1134DCE90722C6D33D18F0C52B0EEEE
:1042D800326C8ED0530DEFB1F0AE4C1291CF2D73DE
:1042E800CA947628ABF517490856B4EA6937D58BCE
:1042F8005709EBB536688AD495CB2977F4AA4816BE
:10430800E9B7550B88D6346A2B7597C94A14F6A8AD
:10431800742AC896154BA9F7B6E80A54D7896B359D
:0A432800000000002B6096CBDDEED4
:0336340001650A23
:104B8F00157E157EA87EECF608EDF6157E157E15C2
:104B9F007EA87EC6EBC608C6EAC608C6E9C6E57E8D
:044BAF0024FCF57E6F
:104BB300F80808E4F6A87EF608F6E57E2407F9A8C7
:104BC3007EE6FE08E6FFC3099719E76480F8EE6402
:104BD30080985037E57E2404F8CBE6CB08E6FA0844
:104BE300E6F98F828E831217A2A87E080866FFE576
:104BF3007E2403F8EFF6E690422893A87E0808F691
:104C0300A87E0806E61870B20680AFA87E0808E6FC
:014C1300FFA1
:074C1400E57E2409F57E2274
:07000300ED6F90422893FF0E
:01000A0022D3
:1056D300EF7023F5847598D0F584759115F584756D
:1056E300C90875CBFFED90432793F5CA75C804E449
:0856F300F584D2ACC2BCD2AFB9
:0156FB00228C
:10531A00E4F56BF56AF569F568F56FF56EF56DF507
:10532A006C756464FFEF25E025E024A4F8E4F6EF49
:10533A0025E025E024A5F8E4F6EF25E025E024A6FB
:10534A00F8E4F6EF25E025E024A7F8E4F60FBF011C
:01535A00D47E
:01535B00222F
:10579200D2AFD2A9C2BBE4F584E589540F4401F526
:0F57A20089758E02758CAFE4F58AD28C02531A8A
:024A5800157EC9
:104A5A00A87EE4F6A87EE6FFC394014003024AF268
:104A6A00EF25E025E024A7F8E6FFD394004052A8FA
:104A7A007EE625E025E024A5F8E67045EF30E0154E
:104A8A00A87EE6FF25E025E024A7F8E6D3940140B6
:104A9A00047D0080067D01A87EE6FF12535CA87E95
:104AAA00E6FF25E025E024A7F816E66014EF25E0E6
:104ABA0025E024A6F8E6FEEF25E025E024A5F8EE99
:104ACA00F6A87EE625E025E024A5F8E6600116A80A
:104ADA007EE6FF25E025E024A7F8E670057D0112B1
:084AEA00535CA87E06024A5E3F
:034AF200057E221C
:03000B00024CA7FD
:104CA700C0E0C0F0C083C082C0D0E8C0E0E9C0E087
:104CB700EAC0E0EBC0E0ECC0E0EDC0E0EEC0E0EF42
:104CC700C0E0758CAFE56B2401F56BE4356AF56AD6
:104CD700E43569F569E43568F568D56418E56F2446
:104CE70001F56FE4356EF56EE4356DF56DE4356C01
:104CF700F56C756464124A58125772D0E0FFD0E021
:104D0700FED0E0FDD0E0FCD0E0FBD0E0FAD0E0F947
:0E4D1700D0E0F8D0D0D082D083D0F0D0E032FF
:10572500157EA87EEDF6157EA87EEFF6A87EE6FF2F
:10573500C39401500D08E6FEEF25E025E024A4F80A
:07574500EEF6057E057E2251
:104DA000157E157EA87EEAF608EBF6157EA87EED48
:104DB000F6157EA87EEFF6A87EE6FFC3940150525A
:104DC000EF25E025E024A7F8E67047A87EE6FB255E
:104DD000E025E024A5F8E67039A87E08E625E00481
:104DE000FFA87EE6FA25E025E024A7F8EFF6A87EE6
:104DF0000808E6FE08E6FF7C007D0A121815EA2581
:104E0000E025E024A6F8EFF6EB25E025E024A5F860
:094E1000E4F6E57E2404F57E229F
:10535C00157EA87EEDF6157EA87EEFF6A87EE6FFFC
:10536C00C39401501CEF25E025E024A4F8E660115D
:10537C00A87E08E670047F0180027F00A87E08EFFB
:10538C00F6A87EE6700608E624FF92A7057E057E49
:01539C0022EE
:0C58CB00C2AFAF6BAE6AAD69AC68D2AF83
:0158D70022AE
:0C58D800C2AFAF6FAE6EAD6DAC6CD2AF66
:0158E40022A1
:1056FC00157EA87EEFF6A87EE67004F566F5673099
:10570C003C14E56575F064A4FFC3E5679FE56695F9
:09571C00F0500375FFA5057E2283
:1057EF00D23CE4F566F567EF6004F56580037565F7
:0E57FF000A75FF0775FFA5E4F58475EF042217
:0E58AF00C23CE4F566F56775FFDE75FFAD22BD
:105772000567E56770020566303C14E56575F064FF
:10578200A4FFC3E5679FE56695F0500375FFA52268
:045655008E4C8F4D9B
:10565900E4F54EF54FC3E54F954DE54E954C501683
:105669007FE87E031250F17F011256FC054FE54F8A
:0656790070E3054E80DF26
:01567F002208
:0450F1008E608F61DD
:1050F500D3E56194FAE5609400500EEFD394004037
:10510500407E1600DEFD1F80F2856062856163D3F7
:10511500E56394FAE562940040157FFA7E0012502B
:10512500F174062563F56374FF3562F56280E0D39B
:10513500E5619400E56094004007AF63AE621250EC
:01514500F178
:015146002246
:104F6300754E00754F007550487B007A0079467D79
:014F7300023B
:084F74008B4A8A4B894C8D4DDC
:104F7C007F011256FCAB4EAA4FA95012184B2400BD
:104F8C00FFE5F034E0FE854A51854B52854C53E4E5
:104F9C00FDEDC3954D501BEF2DF582E43EF583E4FA
:104FAC0093AB51AA52A9538D827583001217E10D50
:0F4FBC0080DFAB4EAA4FA950E4854DF002187666
:10484E00754E12754F347556007557007558507B5E
:07485E00007A00794E7D0293
:084865008B528A5389548D55D2
:10486D007880E664F160030249021258AFC2AFE4EA
:10487D00F58443B701758F01AB56AA57A958121885
:10488D004B2400FFE5F034E07893F608EFF6AA53D9
:10489D00A9547897A65208C6EAC608C6E9C6E478B0
:1048AD0095F67895E6C3955550327897CBE6CB08BB
:1048BD000806E618CAE6CA70010614F912178978B7
:1048CD0096F6E6FF78930806E618CCE6CC7001065E
:1048DD0014F5828C83EFF078950680C6E4F58F533E
:1048ED00B7F0AB56AA57A9588555F0121876D2AF26
:0548FD00E4FF1257EF7B
:014902002292
:10523D007880E664F17046C2AF1258AFE4F584434E
:10524D00B701758F03789476E008F67893F6789425
:10525D00E6FE08E6F5828E83E4F07F011256FC78B7
:10526D0095E426F618740236F61806E6C39408403F
:0D527D00DDE4F58F53B7F0D2AFFF1257EF0D
:01528A002201
:1049B50012523DE4F550F551F556755700755850AE
:1049C500FB7A0079087D1612486512484EE4F54DCC
:1049D500E54DC3788E965073E4F54CAB70AA71A97A
:1049E5007275F010E54CA4F58285F0831217A2606C
:1049F50056E54C75F010A429F9EA35F0FA90000D4A
:104A0500121BE678A1E6854DF0A429F9EA35F0FAFE
:104A1500EBC0E0EAC0E0E9C0E0AB70AA71A972752D
:104A2500F010E54CA4F58285F0831217A2FD7556AA
:104A350000755700755850D0E0F9D0E0FAD0E0FB8A
:104A4500124865054C8094054D808512484EE478E2
:024A550080F6E9
:014A5700223C
:03460F00CCEFCC21
:10461200E4F548F549F545F54E754F00755048FBF0
:104622007A0079087D16124F74124F63E54764349D
:104632007004E54664127003434501EC70030246C0
:10464200D2E4F544E544C3788E965073E4F543AB67
:1046520070AA71A97275F010E543A4F58285F08302
:104662001217A26056E54375F010A429F9EA35F055
:10467200FA90000D121BE678A1E68544F0A429F910
:10468200EA35F0FAEBC0E0EAC0E0E9C0E0AB70AABC
:1046920071A97275F010E543A4F58285F0831217B3
:1046A200A2FD754E00754F00755048D0E0F9D0E07C
:1046B200FAD0E0FB124F74054380940544808512C2
:1046C2004F63E54764347004E54664127005800068
:0546D200434502AF4565
:0146D70022C0
:10547F00BF011C75840F43A41075E10D75E340E463
:10548F00F58475D902F5FB75DA4675FC0A800FBFF6
:10549F000206E4F584F5D822BF0306E4F58475D837
:0254AF00402299
:035930000255CF4E
:025629008F45AB
:10562B008D468B477F001256FC1253DCAF45125947
:10563B001B7B007A0079467D021254167B007A00A0
:0A564B007900E4FD1258FE02574CEE
:105513008F448D458B468A4789487F001256FC127B
:1055230053DCAF4412591B7B007A0079457D01128D
:105533005416AB46AA47A948AD491258FE02574C28
:104E1900E49005EFF0121789FF30E0079005EFE005
:104E29004480F0EF30E1079005EFE04404F01217F9
:104E39008930E2079005EFE04410F0121789FF303E
:104E4900E3079005EFE04401F0EF30E4079005EF48
:104E5900E04440F012178930E5079005EFE0440877
:104E6900F0121789FF30E6079005EFE04420F0EFD4
:104E790030E7079005EFE04402F09005EFE00217F4
:014E8900CF59
:0D58E500E4F58475E8C075BC8075D107221C
:1054E200E4F584EF540FF5BBE5BC54F84DF5BCE48C
:1054F200F5BAC2AFC2EDD2ECC2EDD2EC20ECFDD2D5
:10550200AFE5BF5403FEADBE7C00E42DFFEC3EFED2
:015512002276
:03593300020070FF
:0638F1008F448D458B465B
:1038F7009005EE121B89000000007D00AF447E009A
:103907001254B1AD07AF467E001254B1AD07AF47B1
:103917007E001254B1AD07AF457E001254B1900539
:10392700EDEFF0E54664037021FDAF49FE1254B197
:10393700AD07AF487E001254B1AD079005EDE0FF2B
:103947007E001254B19005EDEFF0754F01755114DB
:10395700E54F7003023A4CE5517003023A4CAF4B06
:10396700AE4A12544DAF4BAE4A12544DAD4BAC4A12
:10397700AF4412502EAF4BAE4A12544DAD4BAC4A2A
:10398700AF4612502EAD4BAC4AAF4712502EE5460C
:1039970070028028AD4BAC4AAF4512502EE545B4B6
:1039A700F6028018E54664037029AD4BAC4AAF496F
:1039B70012502EAD4BAC4AAF4812502E9005EDE099
:1039C700FF854C56854D57854E58AB4BAA4A7DFF10
:1039D700024119E54664017067E54764027061E5D5
:1039E7004F603F9005EDE0FF854C56854D57854E5E
:1039F70058AB4BAA4AE4FD1241198F50E55070228B
:103A07009005EEE0FCA3E0FDA3E0FEA3E0FFAB4CD6
:103A1700AA4DA94E121B5112132C9005EE121B7DB5
:103A2700154FE54F701A9005EEE0FCA3E0FDA3E00B
:103A3700FEA3E0FFAB4CAA4DA94E121AF37F00225A
:073A47001551023957AF5081
:013A4E002255
:084119008F528D538A548B551F
:10412100E4F55BAF55AE541252D3E5526F60037F95
:10413100FF22EFF4B552037FFD22E553B4FF037F65
:104141000122E5536003024225AF55AE541252D30A
:104151008F59AF55AE541252D38F5AAF55AE541238
:1041610052D38F5B7D00AF597E001254B1AD07AFC2
:104171005A7E001254B1EF655B60037FFE22E55A5F
:1041810030E709635AFFE559F404F559E55AFE7C15
:1041910000E42559FFEC3EFE9005F2F0A3EFF0FD9F
:1041A100AC06EC121635E4FBFA798078421215263A
:1041B100AB56AA57A958121AF3AB56AA57A958C019
:1041C10003C002C001121AD37BCC7A5D795B783FC0
:1041D100121328D001D002D003121AF3AB56AA57FA
:1041E100A958121AD3E4FBFA79C878421215C340D0
:1041F10017AB56AA57A958121AD3E4FBFA792078BB
:10420100C11215C3600540037FFA22AB56AA57A914
:1042110058121AD37BCC7A5D795B78BF1215C370C3
:06422100037FFB227F0079
:014227002274
:10588C00125915D2A6D2A5D2B6D2B5D2B1D2B0D2B7
:04589C0087D2862207
:104903008B3FAC07C2A3E53FB40104C286803DE5FB
:104913003FB40204C2878034E53FB40304C2B080CD
:104923002BE53FB40404C2B18022E53FB40504C2C1
:10493300B58019E53FB40604C2B68010E53FB4075D
:1049430004C2A58007E53FB40802C2A6ED75F010C6
:10495300A4FBECC454F045F0FEEBFF1255A17F011C
:104963007E001250F1E53FB40104D286803DE53F5D
:10497300B40204D2878034E53FB40304D2B0802B61
:10498300E53FB40404D2B18022E53FB40504D2B5B7
:104993008019E53FB40604D2B68010E53FB407049E
:1049A300D2A58007E53FB40802D2A67F017E0002AC
:0249B30050F1C1
:035936000255CF48
:025543008F3F98
:105545008D40EBF5418A427F001256FC1253DCAFC9
:105555003F12591B7B007A0079407D031254167B5C
:0D556500007A007900E4FD1258FE02574C58
:03593900D29422E3
:10582A008A3F8B40C2A3C294EFC454F04DFF125674
:0B583A00AAAF40AE3F1255A1D294224D
:0336370001780017
:03593C00D238223C
:06591B009005F9EFF022F7
:065416008B4A8A4B894C11
:10541C00E4FFEFC39D5024EFC39408501EAB4AAA7F
:10542C004BA94C8F827583001217A2FE74FB2FF5CB
:10543C0082E43405F583EEF00F80D7900603EFF08D
:01544C00223D
:0C58FE008B7B8A7C897D9005FAEDF022FE
:1053DC00754A00754B64303725E54B454A601F759F
:1053EC00840F30B303C38001D392B37F0A7E0012C3
:1053FC005655C2B4E54B154B70DC154A80D8E54BBD
:09540C00454A700512585ED2B445
:015415002274
:10585E00757B00757C00757D00E49005FAF090066E
:07586E0003F0C237C238222B
:10574C00900603E0D394004004C239800B9005FA14
:10575C00E0D39400400FD239D237E4F584D2C5128D
:06576C0053DC12585E221E
:1055CF00E5787028757801758401F5C8F5C9F5CAB5
:1055DF00F5CBF5CCF5CD75C804F58475C04343F60E
:0C55EF000243E60243E701D2AF12585E0F
:0155FB00228D
:03003B00023A4F37
:103A4F00C0E0C083C082C0D075D000C000C001C02C
:053A5F0002C003C007D6
:103A6400C23AAFC1EF121C163A8E083A94103AA724
:103A7400183AB9203AC3283AFA303AFE403B0D4886
:103A84003B1A503B485800003B61757900757A0039
:103A94009005F9E025E0FFA239E4334FF5C2C2C531
:103AA400023B63900603E0FFE57AC39F5002801A4D
:103AB400D23A023B633038028052D23A023B6390DE
:103AC4000603E0FFE57AC39F5014AF7A057A74FBCE
:103AD4002FF582E43405F583E0F5C2023B639005DB
:103AE400FAE0FFE579C39F5008D239C2C4D2C58039
:103AF4006E30376B8061D2C480659005FAE0B40102
:103B040004C2C2805AD2C28056303806D2C4D2C54A
:103B1400804DD23A80499005FAE0FF14B57904C289
:103B2400C28002D2C2E579C39F5015AB7BAA7CA99F
:103B34007D857982758300E5C21217E10579801FBE
:103B4400D23A801BAB7BAA7CA97D857982758300E0
:103B5400E5C21217E10579D2C4C2378002D23A30E5
:103B64003A1053C0BF43C040C2C5C2C4C2C2C23768
:043B7400C23AC2C3CC
:103B7800D007D003D002D001D000D0D0D082D083DB
:033B8800D0E03258
:030073000257B180
:1057B100C0E0C083C08275840053C0BF43C0407540
:0F57C100840153C87F12585ED082D083D0E0326B
:05592600D2B702591583
:0A4FCB008E448F458B468A478948C3
:104FD500E4F54BF54CD2A0125680BF03037F0322A4
:104FE500C2B77F031256AAAF45AE441255A1C3E519
:104FF5004C954AE54B9549502212539DAB46AA471D
:10500500A948EF1217CF74012548F548E43547F54F
:1050150047054CE54C70D7054B80D37F197E0012B0
:0850250050F1D2B7C2A07F01D7
:01502D002260
:0A4332008E3F8F408B418A42894381
:10433C00755000755120E5402545E53F3544C39443
:10434C000640037F0222D2A0E545AE447805CEC3D9
:10435C0013CE13D8F9F54F8E4EAB47AA48A9491284
:10436C001789754A00F54BD3E54B954FE54A954EA9
:10437C0040030244351258BDBF0302802FE54BAEFB
:10438C004A7805C333CE33CED8F92540F540EE3507
:10439C003FF53FE54BB54F0EE54AB54E097550005C
:1043AC00E545541FF551125680BF030EAB47AA4882
:1043BC00A949E54B1217CF7F0322C2B77F021256D1
:1043CC00AAAF40AE3F1255A1E4F54CF54DC3E54DF7
:1043DC009551E54C95505036E546B40122AB41AAB7
:1043EC0042A943121BC6121789FF1256AAAB41AA47
:1043FC0042A943900001E475F0011218AE8005E467
:10440C00FF1256AA054DE54D70C3054C80BF7F19B0
:10441C007E001250F1D2B77F197E001250F1054B7D
:0D442C00E54B7002054A024373C2A07F01F8
:014439002260
:10568000C2B77F197E001250F17F061256AA7F1909
:105690007E001250F1D2B77F197E001250F11258DD
:0A56A000BDBF03037F03227F012238
:1057D000C2B77F051256AA12539D8F527F197E00C1
:0E57E0001250F1D2B77F197E001250F1AF5275
:0157EE002298
:0D58BD001257D0EF547160037F03227F016A
:0158CA0022BB
:03593F000255CF3F
:0651EE008F3F8D408B4154
:1051F4007F001256FCE540C31344B09005EDF0E582
:105204004030E004E04408F0E54144809005EEF0CD
:105214007F001256FC1253DCAF3F12591B7B017AFC
:105224000579ED7D021254167B007A007900E4FDC5
:095234001258FE12593C02574CBD
:0A453A008F3F8D408B418A42894378
:10454400754501E4F549F548F547F546FF1256FC73
:10455400E540C31344B09005EDF0E54030E004E0DD
:104564004408F0E54444809005EEF01253DCAF3F7C
:1045740012591B7B017A0579ED7D021254167B00DA
:104584007A0079467D031258FE12593C12574CE4C6
:10459400FFFEFDE54654C0FCE4FBFAF978C0C31203
:1045A4001A886011E4FFFEFDE54654C0FCE4F8C33C
:1045B400121A887003E4F545E5465480AF49AE48C5
:1045C400AD47AC46780E7017121AAC8F498E488DE1
:1045D400478C46E549F549E548F54874FF801412CF
:1045E4001AAC8F498E488D478C46E549F549E54814
:1045F400F548E4F547F546AF49AE48AD47AC46ABA0
:0A46040041AA42A943121AF3AF4580
:01460E002289
:101D50004645423634000434000000536572696120
:101D60006C4E000101D602340000004572726F72A1
:101D70000000000101DA0134000000436F6E74724C
:101D80006F6C000101DC0134000000537461747554
:101D90007300000101DD013400000045455061671A
:101DA0006500000101DE01340000007377426961C3
:101DB0007300000101DF0234000000725170756D84
:101DC0007000000101E004180000015642696173CF
:101DD0000000000101E40406FA0001494269617350
:101DE0000000000101E804180000017044564D6F26
:101DF0006E00000101EC04180000017041564D6FA7
:101E00006E00000101F004180000016E41564D6F94
:101E10006E00000101F404060000016E41494D6F9F
:101E20006E00000101F804060000017041494D6F89
:101E30006E00000101FC04060000017044494D6F72
:101E40006E00000102000408000001754354656D36
:101E5000700000010204040800000161646354651D
:101E60006D70000102080408000001616674546589
:101E70006D700001020C0408000001726567546572
:101E80006D70000102100408000001737354656D49
:101E90007030000102740408000001737354656D12
:101EA0007031000102780408000001737354656DFD
:101EB00070320001027C0408000001737354656DE8
:101EC000703300010280040800000154656D703019
:101ED000000000010214040800000154656D703117
:101EE000000000010218040800000154656D703202
:101EF00000000001021C040800000154656D7033ED
:101F0000000000010220040800000154656D7034D7
:101F1000000000010224040800000154656D7035C2
:101F2000000000010228040800000154656D7036AD
:101F300000000001022C040800000154656D703798
:101F4000000000010230041800000156424D6F6E7F
:101F5000300000010234041800000156424D6F6E3B
:101F6000310000010238041800000156424D6F6E26
:101F700032000001023C041800000156424D6F6E11
:101F8000330000010240041800000156424D6F6EFC
:101F9000340000010244041800000156424D6F6EE7
:101FA000350000010248041800000156424D6F6ED2
:101FB00036000001024C041800000156424D6F6EBD
:101FC0003700000102500406FA000149424D6F6ECD
:101FD0003000000102540406FA000149424D6F6EC0
:101FE0003100000102580406FA000149424D6F6EAB
:101FF00032000001025C0406FA000149424D6F6E96
:102000003300000102600406FA000149424D6F6E80
:102010003400000102640406FA000149424D6F6E6B
:102020003500000102680406FA000149424D6F6E56
:1020300036000001026C0406FA000149424D6F6E41
:102040003700000102700234000000724173756DA8
:102050003000000102840234000000724173756D8B
:102060003100000102860234000000724173756D78
:102070003200000102880234000000724173756D65
:1020800033000001028A0234000000724173756D52
:1020900034000001028C0234000000724173756D3F
:1020A00035000001028E0234000000724173756D2C
:1020B0003600000102900234000000724173756D19
:1020C0003700000102920134000008724269617316
:1020D00030300001029401340000087242696173DB
:1020E00030310001029501340000087242696173C9
:1020F00030320001029601340000087242696173B7
:1021000030330001029701340000087242696173A4
:102110003034000102980134000008724269617392
:102120003035000102990134000008724269617380
:1021300030360001029A013400000872426961736E
:1021400030370001029B013400000872426961735C
:1021500030380001029C013400000872426961734A
:1021600030390001029D0134000008724269617338
:1021700031300001029E013400000872426961732F
:1021800031310001029F013400000872426961731D
:102190003132000102A0013400000872426961730B
:1021A0003133000102A101340000087242696173F9
:1021B0003134000102A201340000087242696173E7
:1021C0003135000102A301340000087242696173D5
:1021D0003136000102A401340000087242696173C3
:1021E0003137000102A501340000087242696173B1
:1021F0003138000102A6013400000872426961739F
:102200003139000102A7013400000872426961738C
:102210003230000102A80134000008724269617383
:102220003231000102A90134000008724269617371
:102230003232000102AA013400000872426961735F
:102240003233000102AB013400000872426961734D
:102250003234000102AC013400000872426961733B
:102260003235000102AD0134000008724269617329
:102270003236000102AE0134000008724269617317
:102280003237000102AF0134000008724269617305
:102290003238000102B001340000087242696173F3
:1022A0003239000102B101340000087242696173E1
:1022B0003330000102B201340000087242696173D8
:1022C0003331000102B301340000087242696173C6
:1022D0003332000102B401340000087242696173B4
:1022E0003333000102B501340000087242696173A2
:1022F0003334000102B60134000008724269617390
:102300003335000102B7013400000872426961737D
:102310003336000102B8013400000872426961736B
:102320003337000102B90134000008724269617359
:102330003338000102BA0134000008724269617347
:102340003339000102BB0134000008724269617335
:102350003430000102BC013400000872426961732C
:102360003431000102BD013400000872426961731A
:102370003432000102BE0134000008724269617308
:102380003433000102BF01340000087242696173F6
:102390003434000102C001340000087242696173E4
:1023A0003435000102C101340000087242696173D2
:1023B0003436000102C201340000087242696173C0
:1023C0003437000102C301340000087242696173AE
:1023D0003438000102C4013400000872426961739C
:1023E0003439000102C5013400000872426961738A
:1023F0003530000102C60134000008724269617381
:102400003531000102C7013400000872426961736E
:102410003532000102C8013400000872426961735C
:102420003533000102C9013400000872426961734A
:102430003534000102CA0134000008724269617338
:102440003535000102CB0134000008724269617326
:102450003536000102CC0134000008724269617314
:102460003537000102CD0134000008724269617302
:102470003538000102CE01340000087242696173F0
:102480003539000102CF01340000087242696173DE
:102490003630000102D001340000087242696173D5
:1024A0003631000102D101340000087242696173C3
:1024B0003632000102D201340000087242696173B1
:1024C0003633000102D302340000007256426961C3
:1024D0007300000102D402340000007249426961B5
:1024E0007300000102D602340000007270445600EE
:1024F0000000000102D80234000000727041560052
:102500000000000102DA0234000000726E41560041
:102510000000000102DC0234000000726E4149003C
:102520000000000102DE0234000000727041490028
:102530000000000102E00234000000727044490013
:102540000000000102E204340000007256424D6FA8
:102550006E30000102E404340000007256424D6FF8
:102560006E31000102E804340000007256424D6FE3
:102570006E32000102EC04340000007256424D6FCE
:102580006E33000102F004340000007256424D6FB9
:102590006E34000102F404340000007256424D6FA4
:1025A0006E35000102F804340000007256424D6F8F
:1025B0006E36000102FC04340000007256424D6F7A
:1025C0006E370001030004340000007249424D6F71
:1025D0006E300001030404340000007249424D6F64
:1025E0006E310001030804340000007249424D6F4F
:1025F0006E320001030C04340000007249424D6F3A
:102600006E330001031004340000007249424D6F24
:102610006E340001031404340000007249424D6F0F
:102620006E350001031804340000007249424D6FFA
:102630006E360001031C04340000007249424D6FE5
:102640006E3700010320043400000965657056618F
:102650006C756501032404340000086565437472D9
:1026600053657401032804340000086173756D63B9
:10267000746C0001032C04340000087761746368F3
:10268000646F670103300434000008736D62646591
:1026900062756701033400000000000000000000C4
:0626A00000000000000034
:10363A0060C00475000400010001461C4000001629
:10364A00000400030001461C4000007F000400053E
:10365A000001461C40001C08000400070001461C2B
:10366A004000073000000007000042CA333300E67A
:10367A0000000005000042CA333300E600000003E0
:10368A00000042CA333300E600000001000042CACB
:10369A00333300E6000400000001461C40000C6AB7
:1036AA00000400020001461C400007080004000450
:1036BA000001461C4000039D000400060001461C50
:1036CA004000131F00000006000042CA33330018EE
:1036DA0000000004000042CA333300E60000000282
:1036EA00000042CA333300E100000000000042CA71
:1036FA00333300E66048000201424A00000000003D
:10370A000003449C40000000000000407EBA7C0098
:10371A0000000000407EBA7C000000000041080062
:10372A0000C196020C003DCCCCCD00000000003E4A
:10373A00CCCCCD00000000003DCCCCCD0000000078
:10374A00612C034500000000006EFFFFFFFFFFFF32
:10375A00FFFFFFFFFFFFFFFFFFFF00000000032046
:10376A00FFFFFFFFFFFFFFFFFFFFFFFFFFFFFFFF5F
:10377A00FFFFFFFFFFFFFFFFFFFFFFFFFFFFFFFF4F
:10378A00FFFFFFFFFFFFFFFFFFFFFFFFFFFFFFFF3F
:10379A00FFFFFFFFFFFFFFFFFFFFFFFFFFFFFFFF2F
:1037AA0041F000000000000040B0000040B00000FE
:1037BA00C0D000000000000000000000000000006F
:1037CA00429200003DCCCCCD40D0000040D0000059
:1037DA00C0B000003E4CCCCD3F4CCCCD3E4CCCCD05
:1037EA0041200000424800004120000041F0000052
:1037FA00BF8000003F800000BDCCCCCD3F800000E0
:10380A000000000042920000000000004120000079
:10381A00000000000000000000000000000000009E
:10382A00000000000000000000000000000000008E
:10383A00000000000000000000000000000000007E
:10384A00000000000000000000000000000000006E
:10385A00000000000000000000000000000000005E
:10386A00000000000000000000000000000000004E
:10387A0048053600000200040006000C8224526546
:10388A00763A20363733202400018E014201920015
:10389A00004201D40000440180412000004103415C
:1038AA000041004E00440050000000004404710032
:1038BA0000000044018400000000440338000000B6
:1038CA000044004A000000000370FF1D56047448BB
:1038DA00494A4B48018900010203040506074100D1
:0638EA0000004100010096
:0F58A000C2AF9001DCE525F0A3E524F0D2AF22E2
:04002600A20D923B5A
:10002A00C2AFD23B9001DAE521F0A3E522F0D2AFCC
:01003A0022A3
:105875009001DCE525F0A3E524F09001DAE521F0BF
:07588500A3E522F0D2AF22DF
:0E557200E4F544F543F5427541C3A20C923BAB
:105580008F828E83C2AFAF44AE43AD42AC41121B9B
:105590007D303B0A9001DAE521F0A3E522F0D2AF9D
:0155A00022E8
:10479400E4F544F54590047975F00CE545121BBA2F
:1047A400E54475F00CA42583F583E0FEA3E04E6098
:1047B4002F90047775F00CE545121BBAE54475F0AB
:1047C4000CA42583F583E0F546A3E0F547AE4678CF
:1047D40002C333CE33CED8F92431F5827404802D4C
:1047E40090047775F00CE545121BBAE54475F00C9E
:1047F400A42583F583E0F546A3E0F547AE467802A9
:10480400C333CE33CED8F92451F58274043EF583F4
:10481400E0FCA3E0FDA3E0FEA3E0FF12166E90040B
:104824007F75F00CE545121BBAE54475F00CA42520
:1048340083F583EEF0A3EFF00545E54570020544EA
:0948440064104544600302479929
:01484D002248
:105147008E1E8F1F90004AE0FCA3E0FDA3E0FEA3A4
:10515700E02401FFE43EFEE43DFDE43CFC90004A10
:10516700121B7DC2AF90004AE0FCA3E0FDA3E0FE66
:10517700A3E0FF7810121AC0A804A905AA06AB0776
:10518700EB451FFFEA451EFEE9FDE8FC90033012E0
:055197001B7DD2AF22D8
:084009008F3F8B408A41894280
:104011009005F5121B8900000000E49005EDF0A366
:10402100F0AD4BAF3F1254E29005F3EEF0A3EFF089
:10403100A3E0F8A3E0F9A3E0FAA3E0FB9005F3E025
:10404100FEA3E0FFE4FCFDEB2FFFEA3EFEED39FDB0
:10405100EC38FCA3121B7D124EF89005EEE004F043
:1040610070069005EDE004F0C39005EEE0940A902F
:1040710005EDE0940040AAE47B0AFAF9F89005F511
:10408100E0FCA3E0FDA3E0FEA3E0FF1219D2AB40E8
:10409100AA41A942EE8FF01218FBAB40AA41A942F6
:1040A10012184BFDACF0E41216359005EF121B7D92
:1040B100E4FBFA798078449005EFE0FCA3E0FDA3EE
:1040C100E0FEA3E0FF1215267BF67A28791C7840E2
:1040D10012141D9005EF121B7DE53F6408602AAFA5
:1040E10046AE45AD44AC439005EFE0F8A3E0F9A33B
:1040F100E0FAA3E0FB12141DAB4AAA49A948A8475C
:1041010012132C9005EF121B7D9005EFE0FCA3E04C
:07411100FDA3E0FEA3E0FFA7
:014118002284
:023CC0008F442F
:103CC200E54464016003023DB675840F43A704D244
:103CD200B243A5E0D2957FE87E03125655D2977F74
:103CE200647E001250F1D296C2977F0112547F7FF8
:103CF2000312547F75840F43A61843A4C043A763DD
:103D020043A66043A501D29012588C75840F43A636
:103D12001843A51012593975840F43A61843A7807A
:103D220053A6FE12592612593612593F43A5087559
:103D3200840F43A5081259307F0A7E001250F1E425
:103D4200FB7D067F741256297F0A7E001250F19085
:103D520001DFE09005EEF07B017A0579EE124E1953
:103D62009005EEE0F4FB7D027F741256297F0A7EF5
:103D7200001250F17BFF7D077F741256297F0A7E65
:103D8200001250F1D21DE49005EDF09005EDE0FF38
:103D9200C3648094C0501AEF3395E0FE74942FF5FB
:103DA2008274013EF58374FFF09005EDE004F0802B
:103DB200DAD21C22E54470247F0212547F75840FEC
:103DC20075A78053B080C2B253A61F53A00F53A54C
:0C3DD20006D29275900653A4E053803F87
:013DDE0022C2
:022E44008F43BA
:102E4600E49005BFF09005C4F0A3F0A3F0A3F0A3AF
:102E5600F09005BEF09005BEE0FFC36480948450F8
:102E66001A74882FF9C3E7648094B05006E024886A
:102E7600F876309005BEE004F080DA7889E6FF3314
:102E860095E0FEEF24D0FFEE34FFFE7C007D641259
:102E96001803AA06AB077888E6FF3395E0FEEF2411
:102EA600D0FFEE34FFFE7C037DE8121803EF2BFB08
:102EB600EE3AFA788AE6FF3395E0FEEF24D0FFEE8D
:102EC60034FFFE7C007D0A121803EF2BFFEE3AFE5C
:102ED600788BE6FD3395E0FCED24D0FDEC34FFCD98
:102EE6002FF50DED3EF50C1259219005C6E4F0A321
:102EF600EFF0E5437003022F9AE49001DCF0A3742F
:102F060080F0E49001DFF0A3F0A3F09005BEF0900E
:102F160005BEE0FFC3648094885041EFFD3395E021
:102F2600FCED25E0FFEC33FE74842FF58274023E3F
:102F3600F583E4F0A37480F0EDAE047802C333CEDB
:102F460033CED8F92414F58274023EF583121B8918
:102F5600000000009005BEE004F080B3E49005BEDA
:102F6600F09005BEE0FFC3648094C05027EF339510
:102F7600E0FE74942FF58274023EF58374FFF074BC
:102F8600942FF58274013EF58374FFF09005BEE040
:102F960004F080CD750A00750B64E4F52375840F83
:102FA60043A4201258E575840F43A61853A6FE4382
:102FB600A78012592675840F43A505D290D2927523
:102FC600840F1259307F0A7E001250F1E4FB7D0611
:102FD6007F741256297F0A7E001250F1E4FB7D02AF
:102FE6007F741256297F0A7E001250F17BFF7D07FF
:102FF6007F741256297F0A7E001250F17B017A05F2
:1030060079BF7549017D017F741255139005BFE0A4
:10301600FDFF3395E0FEEFF4FFEEF4FEEF25E0FF53
:10302600EE335401FEEF54F8FF9005C4EEF0A3EF23
:10303600F0ED5403FD3395E04EFEED4FFFA3EEF0A9
:10304600A3EFF08E08F5097B017A037945754900EF
:10305600754A047F007E06124FCB900345E0FCA321
:10306600E0FDA3E0FEA3E0FF9001D6121B7D9005D4
:1030760036E0FEA3E0FF7B017A03794575490175C9
:103086004A2C124FCBC2AFE49005BEF09005BEE0CD
:10309600FFC3648094885032EF3395E0FEEF25E05D
:1030A600FFEE33FE744B2FF58274033EF583E0FC8E
:1030B600A3E0FD74842FF58274023EF583ECF0A341
:1030C600EDF09005BEE004F080C2E49005BEF090FD
:1030D60005BEE0FFFD3395E0FC74612DF5827403B7
:1030E6003CF583E0FE74942DF58274023CF583EE84
:1030F600F0EF3395E0FE74612FF58274033EF5839D
:10310600E0FD74942FF58274013EF583EDF0900591
:10311600BEE004F0E0B440B790035BE05403FFA3C5
:10312600E09001E0CFF0A3EFF090035DA3E0900103
:10313600DFF0D2AF12479475840F43A50A75840257
:103146004388807589037584014388807589037F68
:10315600017E001259337F027E00125933E4900338
:1031660042F0900342E0FFC39404505975F004EF17
:10317600A42411F582E5F03404F583E0FCA3E0FD18
:10318600A3E0FEA3E0FF12166EAD07AC06ECFFC08F
:10319600078D49D048900342E02474F8E6FFE4F531
:1031A60047F54A754B01754C01754D05754EC07B4B
:1031B600037DE01238F17F647E001250F1900342E5
:1031C600E004F0809DE4900342F0900342E0FFC3E8
:1031D6009404505975F004EFA42421F582E5F034E7
:1031E60004F583E0FCA3E0FDA3E0FEA3E0FF1216D6
:1031F6006EAD07AC06ECFFC0078D49D04890034280
:10320600E02474F8E6FFE4F547F54A754B01754C82
:1032160001754D05754EC07B037DE11238F17F6463
:103226007E001250F1900342E004F0809DE4FF120C
:103236003CC0E4F521F522F573F525F5249001DA75
:10324600E521F0A3E522F09001DEE573F09001DDC3
:10325600E524F09001DC7480F0900330121B8900A5
:10326600000000E49005BEF09005BEE0F9C364805E
:1032760094884003023322E9FF3395E0FEEF78029B
:10328600C333CE33CED8F9FBAA062434F5827402B2
:103296003AF583121B890000000074542BF58274E2
:1032A600023AF583121B8900000000E9FF3395E01E
:1032B600FEEF7802C333CE33CED8F9FBAA0624E458
:1032C600F58274023AF583121B890000000074042B
:1032D6002BF58274033AF583121B8900000000E97E
:1032E600FF3395E0FEEF7802C333CE33CED8F92410
:1032F60014F58274023EF583121B89C30000009008
:103306000324121B8900000000900328121B890069
:103316000000009005BEE004F002326E43A6804332
:02332600A08085
:013328002282
:1046D800157EA87EEFF69001DDE0F524A87EE6FFC2
:1046E800B402129001DCE0F525302B09900192E428
:1046F800F0A3740AF0EFB40505202602D21AA87EAA
:10470800E6B49002D21EA87EE6FFC3942F4011EFB4
:104718009437500CEF24D190004FF0202602D21B82
:10472800A87EE6FFC39437400AEF94775005202609
:1047380002D21CA87EE6FFB40605202602D21DEF91
:104748006491704590032CA3A3A3E05401FFEF24C8
:10475800FF929790032CA3A3A3E05402FFE4FEFD6D
:10476800FC7801121A99EC4D4E4F24FF9296900353
:104778002CA3A3A3E05404FFE4FEFDFC7802121A64
:0C47880099EC4D4E4F24FF9295057E22C7
:05592B008F397F00220E
:1055FC008B398A3A893B121789AB3CAA3DA93E12DA
:10560C0017CFAB39AA3AA93B9000011217A2AB3CB9
:0D561C00AA3DA93E9000011217E17F022275
:10007600D2A7900001E0FDFF3395E0FE9004757570
:10008600F00CEF121BBAEE75F00CA42583F583A3D2
:10009600E0FB7F141251EE900001E0FDFF3395E086
:1000A600FE90047575F00CEF121BBAEE75F00CA4F9
:1000B6002583F583A3E0F5447B017A0579D87F147F
:1000C60012453AEF700A9005D8121B89000000000D
:1000D600900001E0FF3395E0FE90047F75F00CEF91
:1000E600121BBAEE75F00CA42583F583E0FEA3E09F
:1000F600FBCAEECAEA3395E0F9F89005D8E0FCA30E
:10010600E0FDA3E0FEA3E0C39BFFEE9AFEED99FDA2
:10011600EC98FC121630E4FBFA79A0783712141D1D
:100126009005C6121B7D9005C6E0FCA3E0FDA3E08A
:10013600FEA3E0FF900001E0FB3395E0FA90047B1C
:1001460075F00CEB121BBAEA75F00CA42583F58347
:10015600E0F8A3E0F9A3E0FAA3E0FB12141D900572
:10016600C6121B7D9005C6E0FCA3E0FDA3E0FEA33E
:10017600E0FFECC0E0EDC0E0EEC0E0EFC0E09000D4
:1001860001E0FF3395E0FE90047975F00CEF121B49
:10019600BAEE75F00CA42583F583E0FCA3E0FD9090
:1001A600047575F00CEF121BBAEE75F00CA42583DE
:1001B600F583E0FEA3E02DFDEE3CFC1216358F46DE
:1001C6008E458D448C437F007E007D007C40123D31
:1001D600DFC8ECC8C9EDC9CAEECACBEFCBD0E0FF89
:1001E600D0E0FED0E0FDD0E0FC1215269005C61248
:1001F6001B7DC2AF900001E0FF3395E0FE900479CD
:1002060075F00CEF121BBAEE75F00CA42583F5837E
:10021600E0FEA3E04E70030202C79005C6E0FCA311
:10022600E0FDA3E0FEA3E0FFECC0E0EDC0E0EEC021
:10023600E0EFC0E0900001E0FF3395E0FE90047728
:1002460075F00CEF121BBAEE75F00CA42583F5833E
:10025600E0FEA3E07802C333CE33CED8F92454F5BA
:100266008274023EF583D0E0FFD0E0FED0E0FDD000
:10027600E0FC121B7D9005D8E0FCA3E0FDA3E0FEA8
:10028600A3E0FFECC0E0EDC0E0EEC0E0EFC0E09020
:100296000001E0FF3395E0FE90047775F00CEF1255
:1002A6001BBAEE75F00CA42583F583E0FEA3E07877
:1002B60002C333CE33CED8F92404F5827403020385
:1002C6006B9005C6E0FCA3E0FDA3E0FEA3E0FFEC17
:1002D600C0E0EDC0E0EEC0E0EFC0E0900001E0FF5E
:1002E6003395E0FE90047775F00CEF121BBAEE75AD
:1002F600F00CA42583F583E0FEA3E07802C333CE99
:1003060033CED8F92434F58274023EF583D0E0FF6B
:10031600D0E0FED0E0FDD0E0FC121B7D9005D8E0D9
:10032600FCA3E0FDA3E0FEA3E0FFECC0E0EDC0E02F
:10033600EEC0E0EFC0E0900001E0FF3395E0FE90F4
:10034600047775F00CEF121BBAEE75F00CA425833A
:10035600F583E0FEA3E07802C333CE33CED8F9248A
:10036600E4F58274023EF583D0E0FFD0E0FED0E0F3
:10037600FDD0E0FC121B7DD2AF900001E004F0E05E
:10038600FF75F010121767AFF0900001EFF0301A0A
:10039600209001DFE09005E8F07B017A0579E8120C
:1003A6004E199005E8E0F4FB7D027F74125629C2CF
:1003B6001A301B2B90004FE0FF75F002A42484F541
:1003C60082E5F03402F583E0FAA3E0FB74892FF5A9
:1003D60082E43401F583E0FD7F0312582AC21B3004
:1003E6001D119001E0E0FAA3E0FB7D047F20125589
:1003F60043C21D30282E9001DDE0F524E4F521F5F9
:1004060022C226C2AFE524F09001DAE521F0A3E589
:1004160022F0D2AF7F01123CC07F647E0012565597
:10042600D218C22820182D1258D8900471E0F8A3CB
:10043600E0F9A3E0FAA3E0FBC3EF9BFFEE9AFEED23
:1004460099FDEC98FCE47B05FAF9F8C3121A88408A
:1004560003020528E4900342F0900342E0FFC394B0
:1004660004400302051F74742FF8E6FF754702E483
:10047600F548F549F54A754B01754C01754D0575FD
:100486004EC27B01FD1238F1EF6003020513C20D67
:100496009003E1E0FCA3E0FDA3E0FEA3E0FF9005EE
:1004A600C2E0F8A3E0F9A3E0FAA3E0FB1215C3400B
:1004B600239003E5E0FCA3E0FDA3E0FEA3E0FF90AC
:1004C60005C2E0F8A3E0F9A3E0FAA3E0FB1215C326
:1004D60060044002D209900342E075F004A424743B
:1004E600F582E5F03402AF82FEEEC0E09005C2E090
:1004F600FCA3E0FDA3E0FEA3E0F5448E438D428C11
:1005060041A209923BD0E0FE1255808003120026DC
:10051600900342E004F002045F1258D8900471126E
:100526001B7D124EF820182D1258D8900184E0F841
:10053600A3E0F9A3E0FAA3E0FBC3EF9BFFEE9AFE6C
:10054600ED99FDEC98FCE47B05FAF9F8C3121A88DC
:1005560040030208DFE4900342F0900342E0FFC349
:100566009404400302062174742FF8E6FF754702CF
:10057600E4F548F549F54A754B01754C01754D058D
:10058600754EC27B017D011238F1EF60030206153C
:10059600C20D9003E9E0FCA3E0FDA3E0FEA3E0FFAB
:1005A6009005C2E0F8A3E0F9A3E0FAA3E0FB121578
:1005B600C340239003EDE0FCA3E0FDA3E0FEA3E02F
:1005C600FF9005C2E0F8A3E0F9A3E0FAA3E0FB126E
:1005D60015C360044002D20A900342E075F008A4F5
:1005E6002414F582E5F03402AF82FEEEC0E09005F9
:1005F600C2E0FCA3E0FDA3E0FEA3E0F5448E438D3C
:10060600428C41A20A923BD0E0FE12558080031232
:100616000026900342E004F0020560E4900342F0F5
:10062600900342E0FFC3940440030206E774742F6C
:10063600F8E6FF754702E4F548F549F54A754B01BA
:10064600754C01754D05754EC27B017D021238F160
:10065600EF60030206DBC20D9003E9E0FCA3E0FDB8
:10066600A3E0FEA3E0FF9005C2E0F8A3E0F9A3E053
:10067600FAA3E0FB1215C340239003EDE0FCA3E0D0
:10068600FDA3E0FEA3E0FF9005C2E0F8A3E0F9A316
:10069600E0FAA3E0FB1215C360044002D20A9003FD
:1006A60042E075F008A42418F582E5F03402AF8222
:1006B600FEEEC0E09005C2E0FCA3E0FDA3E0FEA3D1
:1006C600E0F5448E438D428C41A20A923BD0E0FE77
:1006D6001255808003120026900342E004F00206C1
:1006E60026124EF89001DDE0F5242020030208B31F
:1006F600754702E4F548F549F54A754B02754C0114
:10070600754D05754EC27B017D017F481238F1EFAC
:100716007070C20D9003E1E0FCA3E0FDA3E0FEA330
:10072600E0FF9005C2E0F8A3E0F9A3E0FAA3E0FB3E
:100736001215C340239003E5E0FCA3E0FDA3E0FE11
:10074600A3E0FF9005C2E0F8A3E0F9A3E0FAA3E076
:10075600FB1215C360044002D20C7E027F0CEEC071
:10076600E09005C2E0FCA3E0FDA3E0FEA3E0F544B3
:100776008E438D428C41A20C923BD0E0FE125580F6
:100786008003120026754702E4F548F549F54A75D7
:100796004B02754C01754D05754EC27B017D027F7E
:1007A600481238F1EF7070C20D9003E1E0FCA3E04F
:1007B600FDA3E0FEA3E0FF9005C2E0F8A3E0F9A3E5
:1007C600E0FAA3E0FB1215C340239003E5E0FCA387
:1007D600E0FDA3E0FEA3E0FF9005C2E0F8A3E0F988
:1007E600A3E0FAA3E0FB1215C360044002D20C7E1C
:1007F600027F08EEC0E09005C2E0FCA3E0FDA3E0A6
:10080600FEA3E0F5448E438D428C41A20C923BD070
:10081600E0FE1255808003120026754702E4F54873
:10082600F549F54A754B02754C01754D05754EC275
:100836007B01FD7F481238F1EF706DC20D9003E128
:10084600E0FCA3E0FDA3E0FEA3E0FF9005C2E0F814
:10085600A3E0F9A3E0FAA3E0FB1215C3402390033B
:10086600E5E0FCA3E0FDA3E0FEA3E0FF9005C2E007
:10087600F8A3E0F9A3E0FAA3E0FB1215C360044075
:1008860002D20C7E027F10EEC0E09005C2E0FCA30F
:10089600E0FDA3E0FEA3E0F5448E438D428C41A229
:1008A6000C923BD0E0FE802512002680237E027F3C
:1008B600081255727E027F0C1255727E027F10E47A
:1008C600F544F543F5427541C3A20C923B1255809F
:1008D6001258D8900184121B7D20182D1258D890DA
:1008E6000050E0F8A3E0F9A3E0FAA3E0FBC3EF9B16
:1008F600FFEE9AFEED99FDEC98FCE47B01FAF9F81F
:10090600C3121A884003020BDF7B017A0579E1E402
:10091600F546F545F544F543F54AF549F548F547F5
:10092600F54B7F081240099005BE121B7D7FF07EB5
:10093600A77D467CBF9005BEE0F8A3E0F9A3E0FAE8
:10094600A3E0FB12132CE4FBFA797A784412141D07
:100956007B3D7A0A793778401215269005C2121B1C
:100966007DE4FFFE7D207C419005C2E0F8A3E0F91E
:10097600A3E0FAA3E0FB12141DE4FBFAF9783F1298
:10098600132C12166ECDEFCDCCEECCEC121635E450
:10099600FBFA792078411215269005C2121B7D902C
:1009A60003E1E0FCA3E0FDA3E0FEA3E0FF9005C2A7
:1009B600E0F8A3E0F9A3E0FAA3E0FB1215C3402395
:1009C6009003E5E0FCA3E0FDA3E0FEA3E0FF9005B5
:1009D600C2E0F8A3E0F9A3E0FAA3E0FB1215C360B6
:1009E600044002D2087E027F04EEC0E09005C2E019
:1009F600FCA3E0FDA3E0FEA3E0F5448E438D428C0C
:100A060041A208923BD0E0FE1255809005CE7401BB
:100A1600F0A37401F0A374E4F09005DE7401F0A372
:100A26007402F0A374D4F0E4900342F0900342E021
:100A3600FEFFEFC0E07B017A0579E1EE75F009A4CF
:100A46002403F582E43400F583E0FCA3E0FDA3E093
:100A5600FEA3E0F5468E458D448C43900342E07537
:100A6600F009A42407F582E43400F583E0FCA3E052
:100A7600FDA3E0FEA3E0F54A8E498D488C4790031E
:100A860042E075F009A42402F582E43400F583E01F
:100A9600F54BD0E0FF1240099005BE121B7DC2AF98
:100AA6009005BEE0FCA3E0FDA3E0FEA3E0FF9005F9
:100AB600CEE0FBA3E0FAA3E0F9900342E075F00470
:100AC600A4F58285F083121B0D9005E1E0FEA3E0FC
:100AD600FF9005DEE0FBA3E0FAA3E0F9900342E015
:100AE600FD75F002A4F58285F083EE8FF012191AD7
:100AF600D2AF74017E00C8EDC8088005C333CE337B
:100B0600CED8F9FFEE3395E0FDFC9005D4121B7D9F
:100B1600900342E0FF703375F004EFA424A1F58240
:100B2600E5F03403F583E0FCA3E0FDA3E0FEA3E0DB
:100B3600FF9005BEE0F8A3E0F9A3E0FAA3E0FB12FC
:100B460015C35004C2218002D221900342E0FFD394
:100B56009401406D75F004EFA424A1F582E5F0340C
:100B660003F583E0FCA3E0FDA3E0FEA3E0FF900510
:100B7600BEE0F8A3E0F9A3E0FAA3E0FB1215C34038
:100B860032900342E075F004A424C1F582E5F03406
:100B960003F583E0FCA3E0FDA3E0FEA3E0FF9005E0
:100BA600BEE0F8A3E0F9A3E0FAA3E0FB1215C360E8
:100BB60010400E9005D4A3A3E0FEA3E04222EE422D
:100BC60021900342E004F0E0C394085003020A3285
:100BD6001258D8900050121B7DE5215417FEE522CD
:100BE600541C4E600DC221C220E4FF123CC0D22626
:100BF600800D30180AC218C227C226D219D2201276
:100C060058759001DDE0F524202003020CB8201C65
:100C160003020CB8E49005EAF09005EAE0FFC3642D
:100C26008094C04003020CB420191FEF3395E0FEF8
:100C360074942FF58274023EF583E0FD74942FF5CB
:100C46008274013EF583E06D605B9005EAE0FF7516
:100C5600F00812176704FE9005EBF0FBEF75F0083D
:100C6600121767AFF0EF04FF9005ECF09005EAE08D
:100C7600FD3395E0FC74942DF58274023CF583E017
:100C8600FD1249039005EAE0FF3395E0FE74942FC8
:100C9600F58274023EF583E0FD74942FF5827401AB
:100CA6003EF583EDF09005EAE004F0020C1FC21C4D
:100CB600C219302F1B9001DDE0F524D2277F0212E6
:100CC600547FE4FF123CC0C221C220C22F1258A09A
:100CD600302A12309604C2968002D296A2969222AA
:100CE600C22A1258A0201E03020DCD900328E0FC54
:100CF600E4FFFEFDEC543CFC7003020DBD9003289E
:100D0600E0FCA3E0FDA3E0FEA3E0FFC3EF940674BE
:100D16008094805003020DAD900328A3A3A3E4FEA4
:100D2600FDFC7B04FAF9F81219477B0174452FF98B
:100D360074033EFAEB3D9005D1F0A3EAF0A3E9F087
:100D4600900328A3E0FDED5422FDED601E900324E0
:100D5600E0FCA3E0FDA3E0FEA3E0FF9005D1E0FBED
:100D6600A3E0FAA3E0F9121AF3805A900328A3E04D
:100D7600FDE4FFFEED5411FDE4FCED601AC2AF90F8
:100D860005D1E0FBA3E0FAA3E0F9121AD3900324FD
:100D9600121B7DD2AF802EC2AF900328121B89FF93
:100DA600000000D2AF801EC2AF900328121B89003C
:100DB60000FF00D2AF800EC2AF900328121B89003D
:100DC600FF0000D2AFC21E202C03020F09900000C4
:100DD600E06003020EB69001DDE0F524E49005E341
:100DE600F0A3F09005E3E0FEA3E0FFC39408EE94C1
:100DF600005035EF25E0FFEE33FE74842FF5827444
:100E0600023EF583E0FCA3E0FD744B2FF5827403EC
:100E16003EF583ECF0A3EDF09005E4E004F070C33A
:100E26009005E3E004F080BBE49005E3F0A3F090C6
:100E360005E3E0FEA3E0FFC39440EE94005028745F
:100E4600942FF582E43402F583E0FE74612FF58277
:100E5600E43403F583EEF09005E4E004F070D090FE
:100E660005E3E004F080C89001E0E05403FFA3E04E
:100E760090035BCFF0A3EFF09001DFE0FF90035DFE
:100E8600E4F0A3EFF09001DEE0540725E02436F508
:100E960082E43405F583E0FFA3E09005DCCFF0A300
:100EA600EFF09005E57401F0A37403F0A37445F028
:100EB6009005E97401F09005DCE0FEA3E0FF7544BF
:100EC6000175452C9005E9E0F54675470175480022
:100ED6007549007B017A0579E512433290033CEFB0
:100EE600F0BF011AD224E4900000F0C22C9001DE7B
:100EF600E0FF5407C43354E0FEEF4EF08002C224F4
:100F06001258A0202D0302100C9001DDE0F524A359
:100F1600E0540725E02436F582E43405F583E0FE47
:100F2600A3E0FF7B017A037945754901754A2C12C6
:100F36004FCB900342EFF064016003021005D22507
:100F4600C2AF9005E3F0A3F09005E3E0FEA3E0FF57
:100F5600C39408EE94005035EF25E0FFEE33FE749F
:100F66004B2FF58274033EF583E0FCA3E0FD748409
:100F76002FF58274023EF583ECF0A3EDF09005E4C4
:100F8600E004F070C39005E3E004F080BBE4900554
:100F9600E3F0A3F09005E3E0FEA3E0FFC39440EE88
:100FA60094005038CDEFCD74612DF582E43403F50D
:100FB60083E0FC74942DF582E43401F583ECF0FCB7
:100FC60074942FF582E43402F583ECF09005E4E0A6
:100FD60004F070C09005E3E004F080B890035BE095
:100FE6005403FFA3E09001E0CFF0A3EFF090035D80
:100FF600A3E09001DFF0D2AFD2191247948002C26B
:1010060025C22D1258A0202B03021304900192E052
:10101600FEA3E0FFEE60030212ECEF24F1605E2413
:10102600F170030210FB24F6700302113A24F670E5
:101036000302121A24F670030212CC243260030251
:1010460012EC9001DDE0F52430202230211F9001C2
:10105600DFE0B4FF18D223C2AF9001DDE524F0D261
:10106600AF900192E4F0A3740FF00212ECC224C216
:101076002BC223E4900192F0A3F00212E99001E062
:10108600A3E0900341F09001DFE090004EF0900362
:101096005FE0FAA3E0FB7D047F20125543E4900352
:1010A60043F0A3F0900343E0FEA3E0FFC39408EEF1
:1010B60064809480502AEF7802C333CE33CED8F9B9
:1010C6002431F58274043EF583121B89000000006A
:1010D600900344E004F070CC900343E004F080C435
:1010E600900192E4F0A3741EF01258D890033812BF
:1010F6001B7D0212EC1258D8900338E0F8A3E0F9F1
:10110600A3E0FAA3E0FBC3EF9BFFEE9AFEED99FD89
:10111600EC98FCE47B0AFAF9F8C3121A8840030239
:1011260012ECE49001D4F0A3F0900192F0A374289D
:10113600F00212EC9001D4E0FCA3E0FDEC121635AF
:10114600900180E0F8A3E0F9A3E0FAA3E0FB121512
:10115600C36002500302120E900001E06003021207
:10116600EC9001D5E004F070069001D4E004F0E4C0
:10117600900343F0A3F0900343E0FEA3E0FFC39483
:1011860008EE6480948040030212ECEF7802C333C9
:10119600CE33CED8F92431F58274043EF583C0836C
:1011A600C082E0F8A3E0F9A3E0FAA3E0FBE8C0E020
:1011B600E9C0E0EAC0E0EBC0E0900343E0FEA3E054
:1011C6007802C333CE33CED8F92404F58274033EB5
:1011D600F583E0FCA3E0FDA3E0FEA3E0FFEC12161E
:1011E60030D0E0FBD0E0FAD0E0F9D0E0F812132CD2
:1011F600D082D083121B7D900344E004F0700690E9
:101206000343E004F002117C900192E4F0A37432EF
:10121600F00212ECE4900343F0A3F0900343E0FEE7
:10122600A3E0FFC39408EE6480948040030212BEDC
:10123600EF7802C333CE33CED8F92431F582740465
:101246003EF583E0FCA3E0FDA3E0FEA3E0FF9001F2
:1012560080E0F8A3E0F9A3E0FAA3E0FB12152690DC
:1012660005CA121B7D9005CAE0FCA3E0FDA3E0FEC3
:10127600A3E0FFECC0E0EDC0E0EEC0E0EFC0E09020
:101286000343E0FEA3E07802C333CE33CED8F9247D
:1012960031F58274043EF583D0E0FFD0E0FED0E065
:1012A600FDD0E0FC121B7D900344E004F070069034
:1012B6000343E004F0021221124794900192E4F0F5
:1012C600A3743CF08020900341E0FB3395E0FA7D67
:1012D600047F20125543C22BE4900192F0A3F0C282
:1012E60023D22C1258A0C2AF900192E0FEA3E0FFD9
:1012F600EE3395E0FDFC900334121B7DD2AFC2AFF6
:1013060090033DE0FCA3E0FDA3E0FEA3E0FF900315
:0F13160034121B7DD2AFC2A77F0A7E000256554C
:101325000216DAE86480F8E933E83360110460F006
:10133500ED33EC337009E8FCE9FDEAFEEBFF22042E
:1013450060DED3EB9FEA9EE99DE8C2E78CF0C2F729
:1013550095F0400CE8CCF8E9CDF9EACEFAEBCFFBF5
:101365001216A585D0F05804700320D5B3E8047093
:10137500075002B2D50216E492D5EC0460F7E4CC2E
:10138500C0E0C398F8603B94186008400DD0E0FBBE
:101395000216BCE4FBFAC9FC8028E830E406E4C97F
:1013A500FBE4CAFCE830E305E4C9CACBFCE8540712
:1013B5006010F8C3E913F9EA13FAEB13FBEC13FC1D
:1013C500D8F130F52FC3E49CFCEF9BFFEE9AFEEDC0
:1013D50099FDD0E0FBEF4E4D4C701222DB03021657
:1013E500E1EC2CFCEF33FFEE33FEED33FDED30E7A2
:1013F500EB0216BCEF2BFFEE3AFEED39FDD0E0FB1C
:1014050050130BBB00030216E4ED13FDEE13FEEFC4
:0814150013FFEC13FC0216BCEE
:10141D00EC4D6011E8497017ED33EC3304600DE4C9
:10142D00FCFFFEFD22E933E8330470F80216DA12F0
:10143D0016A558046009E4CC2481500628500902F1
:10144D0016E42840030216E1C0E0EB4A7044B9806F
:10145D0006D0E0FB0216D0EF4E701CBD8008EBFFEE
:10146D00EAFEE9FD80EBE98DF0A4FEE5F00215063C
:10147D00E9CDF9EAFEEBFFEF89F0A4FCE5F0CE89AA
:10148D00F0A42EFFE435F0CD89F0A42DFEE435F067
:10149D008067EF4E7005BD80D780C3EF8BF0A4AC95
:1014AD00F0EE8BF0A42CFCE435F0F8EF8AF0A42CD0
:1014BD00E5F038FCE433CB8DF0A42CFCE5F03BF8E3
:1014CD00EE8AF0A42CFCE5F038F8E433CF89F0A4D3
:1014DD002CFCE5F038CF3400CE89F0A42FFFE5F0D9
:1014ED003EFEE433C98DF0A42EFEE5F039CD8AF031
:1014FD00A42FFFE5F03EFEE43DFD33D0E0FB5007A9
:10150D000BBB000F0216E4EC2CFCEF33FFEE33FEA9
:06151D00ED33FD0216BCD7
:101523000216E4EC5D046005E8590470030216DA60
:101533001216A5580460F6EC4860F2EC7004FDFE48
:10154300FF22C860DB2481C85009C398600250069B
:101553000216E19850CAF582E9294B4A7005AB821D
:101563000216D075F0007C1A7880C3EF9BEE9AEDDB
:1015730099400DC3EF9BFFEE9AFEED99FDE842F013
:10158300DC23ACF0D0E0FFD0E0FED0E0FDAB822066
:10159300E7101BEB60BAEC2CFCEF33FFEE33FEEDF0
:1015A30033FD0216BCE803F830E705C0F075F00020
:1015B300EF2FFFEE33FEED33FD40B830E7C280AAD4
:1015C30074F8CC6480CCC86480C8F582046043C3DB
:1015D300EB9FF5F0EA9E42F0E99D42F0E89C45F06E
:1015E30060305018E5825FFFE582F42B5582FB5093
:1015F300210ABA001D09B90019088016E5825BFBB0
:10160300E582F42F5582FF50090EBE00050DBD0083
:10161300010CC3EB9FF5F0EA9E42F0E99D42F0E82E
:0D1623009C45F06007CC4820E701B3EC22A5
:1016300075F020800E75F010800575F0087D007E35
:10164000007F003392D530D503121A64EC3340107A
:10165000EF33FFEE33FEED33FDEC33FCD5F0ED223E
:0E166000E5F0247EA2D513CC92E7CDCEFF227A
:10166E00EDD2E7CD33EC3392D524814006E4FFFE74
:10167E00FDFC22FCE4CFCECDCC24E0501174FF80D3
:10168E00EDC3CC13CCCD13CDCE13CECF13CF047070
:07169E00F030D5DE021A64F2
:103DDF008F428E418D408C3FE4FFFE7D807C3FAB58
:103DEF0042AA41A940A83F1215C37009AF42AE4184
:103DFF00AD40AC3F22AF42AE41AD40AC3F1216EFEB
:103E0F00FBAF46AE45AD44AC431216EFFFBF010802
:103E1F00E4FFFE7D807C3F22EF64046022EB6404AC
:103E2F00601DBB0127E4FFFEFDFCAB46AA45A9447C
:103E3F00A8431215C360084006E4FFFEFDFC227480
:103E4F00FFF546F545F544F543023EEDE4F547F53C
:103E5F0048FFFEFDFCAB42AA41A940A83F1215C383
:103E6F00504BAF46AE45AD44AC4312166E8E478FE6
:103E7F0048AC47AD48EC121635C8ECC8C9EDC9CAF5
:103E8F00EECACBEFCBAF46AE45AD44AC43121328D1
:103E9F00E4FBFAF9F81215C370A5AF42AE41AD407D
:103EAF00AC3F1217098F428E418D408C3FAF42AE0F
:103EBF0041AD40AC3F123BBFAB46AA45A944A84316
:103ECF0012141D124B2D8F468E458D448C43E548A1
:103EDF0030E00B1217098F468E458D448C43AF4649
:073EEF00AE45AD44AC4322D7
:1016A500E9D2E7C933E833F892D5EDD2E7CD33EC8B
:0716B50033FC5002B2D52204
:1016BC00EC30E7100FBF000C0EBE00080DBD00048F
:1016CC000BEB6014A2D5EB13FCED92E7FD2274FF3B
:1016DC00FCFDFEFF22E480F8A2D574FF13FC7D8094
:0316EC00E480EFA8
:1016EF00ED33EC33601004700FED547F700574020E
:0A16FF0092E0227404220422E42287
:10170900ED33EC33600A047003BD8004ECB2E7FCEE
:0117190022AD
:104AF50033DA929E35B16011377FE5FE392184891D
:104B05003AAEC3FF3C1D955B3D6358473E75FDF0CE
:104B15003F3172183F800000C2D50216E40216DA52
:104B2500BD80FA50F30216E1ED33EC330460F17BFE
:104B35003B7AAA79B8783F12141DED33EC3392D540
:104B4500247B5011A2D570DB500BED44802404501A
:104B550004A2D580CEEFFBEEFAEDF9ECF812166E55
:104B6500EFF582F404FC12163A12132CC082904A17
:104B7500F57409121729ED33CC33D0F092D525F011
:0A4B8500A2D57001C313CC13FD226A
:103B8B003E9248DA3ECCCCCD3F2AAAAB4000000097
:103B9B003F8000003F9837F03FB504F33FD744FC1C
:103BAB003E3172173EB172173F0515913EDE5BD960
:103BBB00D23B8002C23BEDD2E7F8CD33EC3304703D
:103BCB000BBD800592D50216E40216DA40FBD31426
:103BDB0060F2F5F07C3FEE7A00C39496C8948B406C
:103BEB00230AC89469C8941A401A0AC89468C894DE
:103BFB001F40110AC8945AC89425400805F07A0052
:103C0B00CDC2E7CDC0F08C498D4A8E4B8F4CEA2349
:103C1B0023C0E0249BF582E4343BF583121B411255
:103C2B00132CECC0E0EDC0E0EEC0E0EFC0E0121BE7
:103C3B0031A849A94AAA4BAB4C121328D0E0FBD0B0
:103C4B00E0FAD0E0F9D0E0B2E7F81215268C498DF6
:103C5B004A8E4B8F4C903B8B740312171AA849A9B1
:103C6B004AAA4BAB4C12141DD0E0600F24A7F5826F
:103C7B00E4343BF583121B4112132C8C498D4A8E75
:103C8B004B8F4CD0E0C3947FFDE49400FC121635AF
:103C9B007B187A727931783F12141DA849A94AAA68
:103CAB004BAB4C12132C303B0B7BD97A5B79DE7808
:053CBB003E12141D2261
:10171A00C0E0EFFBEEFAEDF9ECF812141DD0E0F59B
:10172A00F0EFFBEEFAEDF9ECF8121B31A3A3A3A339
:10173A00E8C0E0E9C0E0EAC0E0EBC0E0C0F01214A3
:10174A001D121B41A3A3A3A312132CD0F0D0E0FBBC
