:0C5ED900245265763A2039313120240033
:1038E300E47880F6125E9675840F75E105E4F5E2DF
:1038F30075E34075A508F58475B7B075840F758AAF
:1039030083F597438901758D01758F01758E04F5D4
:1039130042F5430543E54370020542640F45427097
:10392300F2438902E4F542F543AE42AF43E4FCFDC2
:103933007B507AC3F9F8D3121BF5400FE58920E4D5
:103943000A0543E54370E2054280DE759702125D86
:1039530079E4F542F5437D01AF43125CE50543E5A8
:103963004370020542C39401E542940040E8E4F544
:1039730020C23CC23AC240C23FC23E7880F6C285F2
:1039830008F6789DF618F678A2F6F542F543744DDD
:103993002543F582E43405F583E4F00543E54370FC
:1039A3000205426440454270E5E4F542F543748DF7
:1039B3002543F582E43405F583E4F00543E54370DC
:1039C3000205426440454270E5E4F584E5EF20E1F9
:1039D3000CE5EF5408D394004003D38001C3920352
:1039E3007D08E4FF125C93E478A1F6789AF6AB7055
:1039F300AA71A972789AE6FF75F010A4F58285F092
:103A030083121972FE78A126F6EE6005789A068075
:103A1300DDEFD394004030AB70AA71A97290000D12
:103A2300121D46121959FF745512199F1219596420
:103A3300556002D23E74AA12199F12195964AA60E2
:103A430002D23EEF12199FE4F584E5EF5402D394BA
:103A53000040047F018002E4FF124BD38F41E54114
:103A630020E035C23B74FFF508F509F50AF50B7E36
:103A7300007F107D007B007A00790E121D9C754734
:103A8300FF75481E7549CA754A00754B107B007A4D
:103A930000790E12570C8002D23B905EE0E493FF54
:103AA3003395E0FEEF24D0FFEE34FFFE7C007D640F
:103AB3001219D3AA06AB07905EDFE493FF3395E0B8
:103AC300FEEF24D0FFEE34FFFE7C037DE81219D312
:103AD300EF2BFBEE3AFA905EE1E493FF3395E0FEC1
:103AE300EF24D0FFEE34FFFE7C007D0A1219D3EFE2
:103AF3002BFFEE3AFEA3E493FD3395E0FCED24D0D7
:103B0300FDEC34FFCD2FF50DED3EF50CE54130E135
:103B130003023BC5E4F542F543E543C4F8540FC83B
:103B230068FFE542C454F048FEAB70AA71A9728FD6
:103B330082F5831219727003023BBCE92FF9EA3E46
:103B4300FA90000412197220E264E4F540E540C3E0
:103B5300788E965059E543C4F8540FC868FFE54280
:103B6300C454F048AB70AA71A9728F82F5831219FD
:103B730072FF7E00C006C0077D00E543C4F8540F02
:103B8300C868FFE542C454F048FEE92FF9EA3EFA5B
:103B930090000D121D4678A1E68540F0A429F9EAAC
:103BA30035F0FAD007D006121D9C0540809F0543CF
:103BB300E54370020542023B1C7F01122FCEC23D3A
:103BC3008007E4FF122FCED23DE4F542F5437A009D
:103BD3007B967D03AF431253680543E543700205AB
:0A3BE30042C39401E542940040E45F
:013BED0022B5
:055F080078A2E6FF2273
:030023000244E6AE
:1044E600C0E0C0F0C083C082C0D075D000C000C09C
:1044F60001C002C003C004C005C006C00730993E13
:10450600C299789D06799DE77881667015F6789D43
:01451600F6AE
:0D45170075290A752A1300D52AFCD529F64E
:04452400C285801CB0
:0D452800752914752A1300D52AFCD529F633
:10453500789DE6248DF582E43405F583E0F5992030
:1045450098030245DE209A08203C05C2980245DA08
:10455500C29A789CE606244DF582E43405F583E598
:1045650099F0C298E6FFB4011290054DE0FE700384
:10457500F68066EE5407240278A3F6EFB4020D78B0
:10458500A3E6B4090790054EE02403F6789CE6FF00
:10459500B4400476008042EFC378A396403B789CF4
:1045A500E624FFFDE434FFFC7B017A05794D1251C9
:1045B500E3789CE6244CF582E43405F583E06F60EE
:0545C5000476008014E3
:0D45CA00752914752A1300D52AFCD529F691
:1045D700122830789C7600D007D006D005D004D0BA
:1045E70003D002D001D000D0D0D082D083D0F0D079
:0245F700E032B0
:1052ED0090054EE075F010A4AB702572F9E571359F
:1052FD00F0FA90000D121D4678A2E6FF18E68FF029
:10530D00A4252DF582E435F0F583121972FF7B008B
:04531D007A00792B6E
:105321008F3A8B3B8A3C893DE4F584EA494B601C0A
:10533100AB3BAA3CA93D121959FFE53AFD7C00128D
:0C5341000003AB3BAA3CA93DEF12199FF2
:0D534D00753E14753F1300D53FFCD53EF6AC
:0E535A00853A997F01125CBC3099FDC2992200
:095DF400E4F5847881EFF6D28514
:0D5DFD00753A14753B1300D53BFCD53AF602
:075E0A0090058DE0F59922DF
:10584900C9EFC9E964017028EDC39B4034788EE63D
:10585900FFEB2FFFE433FEEDC39FEE6480F8748005
:1058690098501ED23CC3ED9B78A2F6789E76012211
:10587900B90214ED6B700AD23C78A2F6789E7602D2
:0858890022C23CE4789EF622E5
:1055F500C9EFC9BAFF15BBFF12ED6B7002EC6A70FB
:1056050049D23C78A2F6789EE9F622E96401702534
:10561500C3ED9BEC9A401C788EE62BFFE43AFEC363
:10562500ED9FEC9E500DD23CC3ED9B78A2F6789E83
:105635007601228015B90218ED6B7002EC6A700ACA
:10564500D23C78A2F6789E760222C23CE4789EF699
:015655002232
:1028300090054DE0FF54F8F52CE4F584EF121D7679
:10284000287D0928890A28991028A21128B212285F
:10285000C61928DB1A28FD2029062829A5292AA718
:10286000332AD9372B08392B22412B2D492B3750AE
:102870002B7F612A71702B779800002BAF90054E4B
:10288000E0FDE509FB7F01802390054EE0FCA3E01D
:10289000FDAB09AA087F018027D23C789E7603020F
:1028A0002BAF90054EE0FDE50BFB7F02125849026D
:1028B0002BAF90054EE0FCA3E0FDAB0BAA0A7F0214
:1028C0001255F5022BAF90054EE0FDE509FB7F01A7
:1028D000125849203C03022BAF801790054EE0FCB4
:1028E000A3E0FDAB09AA087F011255F5203C0302C5
:1028F0002BAF90058D7478F07F01022BACE4F5844A
:1029000075EF12022BAFC2ACE4F52BD285FB7A0037
:10291000792B7F7F1253217B007A00792B7F18124D
:1029200053217B007A00792B7F05125321789AE698
:1029300012531A7B007A00792BAF081253217B00C7
:102940007A00792BAF091253217B007A00792BAFE3
:102950000A1253217B007A00792BAF0B1253217B93
:10296000007A00792BAF0C1253217B007A00792B6F
:10297000AF0D125321E4F52D740E252DF8E61253F8
:102980001A052DE52DC3941040EE7B007A007900E6
:05299000AF2B125321E2
:0D29950075380A75391300D539FCD538F6B0
:1029A200022A5C90054EE0FFC3789A964003022A01
:1029B20063EF75F010A42572F9E57135F085703575
:1029C200F5368937C2ACE4F52BD285FB7A00792B38
:1029D2007F7F1253217B007A00792B7F0D125321C6
:1029E200AB35AA36A93712195912531AAB35AA3682
:1029F200A937900001125317AB35AA36A9379000B8
:102A020002125317AB35AA36A93790000312531797
:102A1200AB35AA36A937900004125317E4F52DAB53
:102A220035E5372405F9E43536FA7E00E9252DF936
:102A3200EE3AFA12195912531A052DE52DC39408CC
:0D2A420040DD7B007A007900AF2B1253219C
:0D2A4F0075380A75391300D539FCD538F6F5
:102A5C00C285D2AC022BAF90058D7478F0E4A3F054
:102A6C007F02022BAC125EBF788F121CE190058D99
:102A7C00747CF0788FE6A3F008E6A3F008E6A3F0E8
:102A8C0008E6A3F07C007D057B017A05798D125157
:102A9C00E3900592EFF07F06022BAC90054EE0FF21
:102AAC00B4010BA3E0F508A3E0F509022B77EFB412
:102ABC00020990054FE0F508022B7790054EE0B423
:102ACC000308A3E0F50AA3E0F50B022B77E4F52D40
:102ADC0090054EE0FFE52DC39F501C744F252DF53E
:102AEC0082E43405F583E0FF740E252DF8C6EFC69D
:102AFC00052DE52DB410D9E4F51D806F7A007B32DD
:102B0C007D0178A2E6FF12536890054EE0FDE4FFCC
:102B1C00125C93022BAF90054EE024FF9202022B25
:102B2C00AF90054EE024FF9201807878A2E6600514
:102B3C00752F02800B203F05752F038003752F0125
:102B4C0090058D7479F0A3E52FF07C007D027B015C
:102B5C007A05798D1251E390058FEFF07F03125DAA
:102B6C00F4E52F6401703CD2408002D23A78807632
:102B7C00F180307A007B327D017F00125368900522
:102B8C008D7479F090054EE090058EF07C007D02FE
:102B9C007B017A05798D1251E390058FEFF07F035D
:102BAC00125DF4E52C64A06003022DBE90054DE08F
:102BBC0064A16003022CAEA3E0C3789A9640030292
:102BCC002CA3AB70AA71A972E0FF75F010A4F5826A
:102BDC0085F083121972F52FEF75F010A429F9EA1C
:102BEC0035F0FA90000412197230E23790054EE07D
:102BFC00125F128F2F90058D747FF0A3E52FF024B8
:102C0C0002FDE433FC7B017A05798D1251E3748F5C
:102C1C00252FF582E43405F583EFF0E52F2403FF2F
:102C2C00022DBB90054EE0FF125F12C2ACE4F52BF7
:102C3C00D285E52FD39406402B7B007A00792B7F2D
:102C4C007F1253217B007A00792BAF2F125321E492
:102C5C00F52DE52DC3952F50071252ED052D80F261
:102C6C00052F8018E52F247812531AE4F52DE52D45
:102C7C00C3952F50071252ED052D80F27B007A0080
:072C8C007900AF2B12532168
:0D2C930075380A75391300D539FCD538F6AF
:102CA000022DAD90058D7478F07F01022DBB90054B
:102CB0004DE064A26003022DBE789AE6FFA3E0FE19
:102CC000C39F4003022DB3A3E0FDC39F4003022D29
:102CD000B3EE9D4003022DB390054EE0F52DE4F5D3
:102CE00033F53490054FE0FFE52DD39F5026AF2DEF
:102CF000125F12AB70AA71A97275F010E52DA4F5E0
:102D00008285F0831219722534F534E43533F533B6
:102D1000052D80CFC2ACE4F52BD285FB7A00792B50
:102D20007F7F125321C3E5349480E5339400500231
:102D30008007E533448012531AAF3412531B9005B9
:102D40004EE0F52D90054FE0FFE52DD39F5046E472
:102D5000F52EAB70AA71A97275F010E52DA4F5825D
:102D600085F083121972FFE52EC39F5024E52D755F
:102D7000F010A429F9EA35F0FA90000D121D4678FA
:102D8000A2E6FF18E68FF0A4252E125310052E8020
:102D9000C1052D80AF7B007A007900AF2B12532143
:0D2DA00075380A75391300D539FCD538F6A1
:102DAD00C285D2AC800B90058D7478F07F01125DD9
:102DBD00F4E52C6458704DFA7B327D0178A2E6FF64
:102DCD00125368753D01753E05753F8E7B017A0581
:102DDD00794E125BBC8F2FE52F247890058DF0EF87
:102DED002401FDE433FC7B017A05798D1251E374E6
:102DFD008E252FF582E43405F583EFF0E52F2402BF
:102E0D00FF125DF4E52C64806009E52C6488600395
:102E1D00022FCD789EE6B4010F7A007B327D0178CA
:102E2D00A2E6FF125368801AE4F52DE52DC3788EC6
:102E3D0096500F7A007B327D01AF2D125368052D10
:102E4D0080E990054DE05407F52FB4070A752E0162
:102E5D00A3E0F52FA38006E4F52E90054EE0F530A6
:102E6D00152FE530C3789A964003022FA1AB70AAB7
:102E7D0071A97275F010E530A4F58285F0831219F1
:102E8D0072FFE52FD39F40028F2F789EE6B4010984
:102E9D0078A2E6F532F5318009E4F531788EE61445
:102EAD00F53278A2A63178A2E6D395324003022FEF
:102EBD0095E4F52DE52DC3952F4003022F8AE530BE
:102ECD0075F010A4AB702572F9E57135F0FA90002C
:102EDD000412197230E203022F859000011219724B
:102EED0064387041E52FD394044011E52E252D242F
:102EFD004FF582E43405F583E0FD805E789CE6C3F2
:102F0D00952DFFE49400FE744B2FF58274053EF56C
:102F1D0083E0FDE53075F010A4AB702572F9E57115
:102F2D0035F0FA8035AB70AA71A97275F010E530E5
:102F3D00A4F58285F083121972FFC3789CE69F2554
:102F4D002D252E244CF582E43405F583E0FDE53086
:102F5D0075F010A429F9EA35F0FA90000D121D460E
:102F6D0078A2E6FF18E68FF0A4FFE52D2FF582E499
:102F7D0035F0F583ED1219B1052D022EC1AF3012CA
:102F8D004EC078A206022EB378A2A631E52C648835
:102F9D00702E8010E530B4FF2790054FE0F520E549
:102FAD002CB4881C90058D7478F0789CE6244CF533
:102FBD0082E43405F583E090058EF07F02125DF416
:012FCD0022E1
:10D000007880E664F1600302D60CE4F554F55578B7
:04D0100081E6601F36
:0DD01400755A0A755B1300D55BFCD55AF602
:10D021000555E5557002055464107004E5546427F4
:10D0310070DCC2AF7584015398FC75FFDE75FFADDE
:10D04100E4F550F54FE4F58420982EE4F554F555B8
:0ED05100209822C3E5559488E5549413501797
:0DD05F00755A0A755B1300D55BFCD55AF6B7
:10D06C000555E55570DF055480DBB2A780CF859957
:10D07C004FC298E54F641A600302D14CF554F55534
:0ED08C00209822C3E5559488E554941350175C
:0DD09A00755A0A755B1300D55BFCD55AF67C
:10D0A7000555E55570DF055480DB3098928599501A
:10D0B700C298E4F554F555209822C3E5559488E5C0
:05D0C700549413501702
:0DD0CC00755A0A755B1300D55BFCD55AF64A
:10D0D9000555E55570DF055480DB20980302D046DD
:10D0E900859950C298E4F554F555209822C3E55521
:08D0F9009488E55494135017CC
:0DD10100755A0A755B1300D55BFCD55AF614
:10D10E000555E55570DF055480DB20980302D046A7
:09D11E00859950C298D285C2998E
:0DD12700755A14755B1300D55BFCD55AF6E4
:06D134007599783099FDA9
:0DD13A00755A0A755B1300D55BFCD55AF6DB
:10D14700C28502D5FEE54F6450600302D1DCF55479
:10D15700F555209822C3E5559488E5549413501744
:0DD16700755A0A755B1300D55BFCD55AF6AE
:10D174000555E55570DF055480DB20980302D04641
:09D18400859950C298D285C29928
:0DD18D00755A14755B1300D55BFCD55AF67E
:08D19A007599793099FDC299E5
:0DD1A200755A14755B1300D55BFCD55AF669
:08D1AF007599013099FDC29948
:0DD1B700755A14755B1300D55BFCD55AF654
:06D1C400E4F5993099FD2D
:0DD1CA00755A0A755B1300D55BFCD55AF64B
:0FD1D700C28502D5FEE54F6401703ED285C29934
:0DD1E600755A14755B1300D55BFCD55AF625
:08D1F3007599783099FDC2998D
:0DD1FB00755A14755B1300D55BFCD55AF610
:06D20800E4F5993099FDE8
:0DD20E00755A0A755B1300D55BFCD55AF606
:10D21B00C28502D5FEE54F6402600302D2E2F554EB
:10D22B00F555209822C3E5559488E554941350176F
:0DD23B00755A0A755B1300D55BFCD55AF6D9
:10D248000555E55570DF055480DB20980302D0466C
:10D25800859950C298E4F551E55013B392A7E5506B
:10D2680025E0FEC3E49400EE94D0502AE5507F00F8
:10D2780025E0FEC394E0501EE55020E01FE4F5844D
:10D2880043B701758F038E568F578F828E83F05365
:10D29800B7F0F58F80037551FFE4F584D285C29904
:0DD2A800755A14755B1300D55BFCD55AF662
:08D2B5007599783099FDC299CA
:0DD2BD00755A14755B1300D55BFCD55AF64D
:06D2CA008551993099FD29
:0DD2D000755A0A755B1300D55BFCD55AF644
:10D2DD00C28502D5FEE54F6403600302D42DF554DB
:10D2ED00F555209822C3E5559488E55494135017AD
:0DD2FD00755A0A755B1300D55BFCD55AF617
:10D30A000555E55570DF055480DB20980302D046A9
:10D31A00859950C298E4F554F555209822C3E555ED
:08D32A009488E5549413501798
:0DD33200755A0A755B1300D55BFCD55AF6E1
:10D33F000555E55570DF055480DB20980302D04674
:10D34F00859952C298E5501392A7E55025E0FEC388
:10D35F00E49400EE94D0400302D046E5507D0025C2
:10D36F00E0FCC394E0400302D046E4F58443B701E8
:10D37F00758F01E55275F020A42DFFE5F03CF556B1
:10D38F008F57E4F584F553E553C394205048E4F5E3
:10D39F0054F555209822C3E5559488E554941350BD
:01D3AF001766
:0DD3B000755A0A755B1300D55BFCD55AF663
:10D3BD000555E55570DF055480DB20980302D046F6
:10D3CD000557E557AE567002055614F5828E83E566
:10D3DD0099F0C298055380B1E4F58453B7F0F58FF9
:06D3ED00F584D285C2990F
:0DD3F300755A14755B1300D55BFCD55AF616
:08D400007599783099FDC2997D
:0DD40800755A14755B1300D55BFCD55AF600
:06D41500E4F5993099FDD9
:0DD41B00755A0A755B1300D55BFCD55AF6F7
:10D42800C28502D5FEE54F6404600302D4DDF554DD
:10D43800F555209822C3E5559488E5549413501760
:0DD44800755A0A755B1300D55BFCD55AF6CA
:10D455000555E55570DF055480DB20980302D0465D
:10D46500859950C298E55025E0F558755900E4F5C1
:10D4750051F554F5550559E559AE5870020558143E
:10D48500F5828E83E4932551F5510555E5557002D6
:0ED4950005547004E554640270DBD285C29920
:0DD4A300755A14755B1300D55BFCD55AF665
:08D4B0007599783099FDC299CD
:0DD4B800755A14755B1300D55BFCD55AF650
:06D4C5008551993099FD2C
:0DD4CB00755A0A755B1300D55BFCD55AF647
:10D4D800C28502D5FEE54F6405600302D5F3F55415
:10D4E800F555209822C3E5559488E55494135017B0
:0DD4F800755A0A755B1300D55BFCD55AF61A
:10D505000555E55570DF055480DB20980302D046AC
:10D51500859950C298E4F554F555209822C3E555F0
:08D525009488E554941350179B
:0DD52D00755A0A755B1300D55BFCD55AF6E4
:10D53A000555E55570DF055480DB20980302D04677
:09D54A00859952C298D285C2995C
:0DD55300755A14755B1300D55BFCD55AF6B4
:08D5600075997F3099FDC29915
:0DD56800755A14755B1300D55BFCD55AF69F
:10D575007599203099FDE55025E0FCE55275F020C0
:10D58500A42400FFE5F03CF5588F59E4F551F55317
:02D59500C29939
:0DD59700755A14755B1300D55BFCD55AF670
:10D5A400855982855883E493F5993099FD0559E5A9
:10D5B40059AE587002055814F5828E83E4932551B0
:0BD5C400F5510553E553B420C8C2998F
:0DD5CF00755A14755B1300D55BFCD55AF638
:06D5DC008551993099FD14
:0DD5E200755A0A755B1300D55BFCD55AF62F
:10D5EF00C285800BE54FB40606E4F58475EF12E5AE
:0DD5FF004F6407600302D0467880F6D2AF7B
:01D60C0022FB
:1054C0007F00125CBC203B0B7A007B327D017F00A9
:1054D000125368303E0B7A007B1E7D017F00125311
:1054E00068303A17303F147A007B327D0178A2E6AB
:1054F000FF125368C23A124F6FD23B203D0C303F2F
:1055000009788076F1124F6FD23D304008303F0568
:10551000C24012D000203F12125EB2E47B2C7A010E
:0B552000F9F8C3121C0B5002D23F220E
:0B5EF1001238E31254C012007680F853
:065EFC00E4F584D2A422AB
:10000E00E4F5847F32FE1256B6D2A37F327E001202
:05001E0056B6C2A3224A
:025C6A008F5851
:105C6C00E4F584755907AF59E558A807088002C3B5
:105C7C0013D8FC1392A412000E1559C3E559648075
:065C8C00948050E2C2A466
:015C920022EF
:045B61008E578F5874
:105B6500E4F58475590FE558AE57A859088005CE58
:105B7500C313CE13D8F91392A412000E1559C3E519
:095B8500596480948050DFC2A431
:015B8E0022F4
:10595B00E4F558F559F55AF5847558077F327E00F2
:10596B001256B6A2A1E433F559AF58A80708800226
:10597B00C333D8FC425AD2A37F327E001256B6C232
:0E598B00A31558C3E5586480948050D0AF5ADD
:0159990022EB
:1049220000070E091C1B1215383F363124232A2D8D
:1049320070777E796C6B6265484F464154535A5D7D
:10494200E0E7EEE9FCFBF2F5D8DFD6D1C4C3CACD6D
:1049520090979E998C8B8285A8AFA6A1B4B3BABD5D
:10496200C7C0C9CEDBDCD5D2FFF8F1F6E3E4EDEA4D
:10497200B7B0B9BEABACA5A28F88818693949D9A3D
:104982002720292E3B3C35321F18111603040D0A2D
:104992005750595E4B4C45426F68616673747D7A1D
:1049A200898E878095929B9CB1B6BFB8ADAAA3A40D
:1049B200F9FEF7F0E5E2EBECC1C6CFC8DDDAD3D4FD
:1049C200696E676075727B7C51565F584D4A4344ED
:1049D200191E171005020B0C21262F283D3A3334DD
:1049E2004E49404752555C5B7671787F6A6D6463CD
:1049F2003E39303722252C2B0601080F1A1D1413BD
:104A0200AEA9A0A7B2B5BCBB9691989F8A8D8483AC
:104A1200DED9D0D7C2C5CCCBE6E1E8EFFAFDF4F39C
:105A6F00151EA81EA605151E151EA81EA60608A6FD
:105A7F0007A81E0808E6FFA81EE6FE08E66F242208
:105A8F00F58274493EF583E493FF051E051E051E3E
:015A9F0022E4
:03007000025E2C01
:105E2C00EF64014E7004C2918008EF64024E700260
:095E3C00C2937F027E00025C1596
:10003E008E558F56E55664014555700CD2917F0C46
:10004E00FE1256B6C2918012E556640245557011E5
:10005E00D2937F0CFE1256B6C2937F047E001256C8
:02006E00B622B8
:105A0B008E558F56E55664014555700CD2917F0427
:105A1B00FE1256B6C2918012E556640245557011BE
:105A2B00D2937F04FE1256B6C2937F0C7E001256A1
:025A3B00B62291
:105452008E5E8F5FE55F6401455E7025D2917F01AC
:10546200FE1256B6C2917F087E001256B6758402AD
:10547200E5885440C413135403FFBF0102802B80FC
:1054820033E55F6402455E7034D2937F01FE1256AB
:10549200B6C2937F087E001256B6758401E5885421
:1054A20040C413135403FFBF010A7F087E00125643
:0E54B200B67F01227F087E001256B67F0022D0
:065593008F528C538D5471
:10559900E490061FF0A3F0A3F0900620F0A374078F
:1055A900F0900620E0FEA3E0FFC3EE648094804003
:1055B9003AE552A807088002C313D8FC54019006A3
:1055C9001FF07009AF54AE53125A0B800E90061F8C
:1055D900E0B40117AF54AE5312003E900621E02407
:0B55E900FFF0900620E034FFF080B6D9
:0155F4002294
:045891008E5C8F5D3D
:10589500E4900621F0A3F0A3F07407F0AF5DAE5CD1
:1058A500125452900621EFF0A3E0FFA3E0FE90060C
:1058B50021E0FDA806088002C333D8FC4F900622DC
:1058C500F0A3E014F0E0C36480948050CF900622EA
:0258D500E0FFF2
:0158D70022AE
:10481800005EBCE2613FDD83C29C7E20A3FD1F4198
:104828009DC3217FFCA2401E5F01E3BD3E6082DC88
:10483800237D9FC1421CFEA0E1BF5D0380DE3C6278
:10484800BEE0025CDF81633D7C22C09E1D43A1FF68
:104858004618FAA427799BC584DA3866E5BB590758
:10486800DB856739BAE406581947A5FB7826C49A48
:10487800653BD987045AB8E6A7F91B45C6987A2438
:10488800F8A6441A99C7257B3A6486D85B05E7B928
:104898008CD2306EEDB3510F4E10F2AC2F7193CD18
:1048A800114FADF3702ECC92D38D6F31B2EC0E5008
:1048B800AFF1134DCE90722C6D33D18F0C52B0EEF8
:1048C800326C8ED0530DEFB1F0AE4C1291CF2D73E8
:1048D800CA947628ABF517490856B4EA6937D58BD8
:1048E8005709EBB536688AD495CB2977F4AA4816C8
:1048F800E9B7550B88D6346A2B7597C94A14F6A8B8
:10490800742AC896154BA9F7B6E80A54D7896B35A7
:0A491800000000002B6096CBDDEEDE
:033BEE0001650A64
:1051E300151E151EA81EECF608EDF6151E151E1548
:1051F3001EA81EC6EBC608C6EAC608C6E9C6E51E53
:0452030024FCF51E74
:10520700F80808E4F6A81EF608F6E51E2407F9A82C
:105217001EE6FE08E6FFC3099719E76480F8EE6407
:1052270080985037E51E2404F8CBE6CB08E6FA0849
:10523700E6F98F828E83121972A81E080866FFE5A9
:105247001E2403F8EFF6E690481893A81E0808F600
:10525700A81E0806E61870B20680AFA81E0808E662
:01526700FF47
:07526800E51E2409F51E22DA
:07000300ED6F90481893FF18
:01000A0022D3
:105C9300EF7023F5847598D0F584759115F58475A7
:105CA300C90875CBFFED90491793F5CA75C804E48D
:085CB300F584D2ACC2BCD2AFF3
:015CBB0022C6
:1058D800E4F56BF56AF569F568F56FF56EF56DF544
:1058E8006C756464FFEF25E025E024A4F8E4F6EF86
:1058F80025E025E024A5F8E4F6EF25E025E024A638
:10590800F8E4F6EF25E025E024A7F8E4F60FBF0158
:01591800D4BA
:01591900226B
:105D7900D2AFD2A9C2BBE4F584E589540F4401F539
:0F5D890089758E02758CAFE4F58AD28C0258D8DA
:02501200151E69
:10501400A81EE4F6A81EE6FFC3940140030250ACA8
:10502400EF25E025E024A7F8E6FFD394004052A83A
:105034001EE625E025E024A5F8E67045EF30E015EE
:10504400A81EE6FF25E025E024A7F8E6D394014056
:10505400047D0080067D01A81EE6FF12591AA81ED1
:10506400E6FF25E025E024A7F816E66014EF25E026
:1050740025E024A6F8E6FEEF25E025E024A5F8EED9
:10508400F6A81EE625E025E024A5F8E6600116A8AA
:105094001EE6FF25E025E024A7F8E670057D011251
:0850A400591AA81E060250185B
:0350AC00051E22BC
:03000B0002526F2F
:10526F00C0E0C0F0C083C082C0D0E8C0E0E9C0E0B9
:10527F00EAC0E0EBC0E0ECC0E0EDC0E0EEC0E0EF74
:10528F00C0E0758CAFE56B2401F56BE4356AF56A08
:10529F00E43569F569E43568F568D56418E56F2478
:1052AF0001F56FE4356EF56EE4356DF56DE4356C33
:1052BF00F56C756464125012125D59D0E0FFD0E0A6
:1052CF00FED0E0FDD0E0FCD0E0FBD0E0FAD0E0F97A
:0E52DF00D0E0F8D0D0D082D083D0F0D0E03232
:105CE500151EA81EEDF6151EA81EEFF6A81EE6FF4A
:105CF500C39401500D08E6FEEF25E025E024A4F845
:075D0500EEF6051E051E224B
:10536800151E151EA81EEAF608EBF6151EA81EED5A
:10537800F6151EA81EEFF6A81EE6FFC394015052AC
:10538800EF25E025E024A7F8E67047A81EE6FB25F0
:10539800E025E024A5F8E67039A81E08E625E00413
:1053A800FFA81EE6FA25E025E024A7F8EFF6A81ED8
:1053B8000808E6FE08E6FF7C007D0A1219E5EA25E2
:1053C800E025E024A6F8EFF6EB25E025E024A5F893
:0953D800E4F6E51E2404F51E2292
:10591A00151EA81EEDF6151EA81EEFF6A81EE6FF18
:10592A00C39401501CEF25E025E024A4F8E6601199
:10593A00A81E08E670047F0180027F00A81E08EFF7
:10594A00F6A81EE6700608E624FF92A7051E051EA5
:01595A00222A
:0C5EB200C2AFAF6BAE6AAD69AC68D2AF96
:015EBE0022C1
:0C5EBF00C2AFAF6FAE6EAD6DAC6CD2AF79
:015ECB0022B4
:105CBC00151EA81EEFF6A81EE67004F566F56730F3
:105CCC004414E56575F064A4FFC3E5679FE566952C
:095CDC00F0500375FFA5051E221E
:105DD600D244E4F566F567EF6004F5658003756502
:0E5DE6000A75FF0775FFA5E4F58475EF062228
:0E5E9600C244E4F566F56775FFDE75FFAD22C8
:105D59000567E56770020566304414E56575F0640A
:105D6900A4FFC3E5679FE56695F0500375FFA5227B
:045C15008E4F8F50CF
:105C1900E4F551F552C3E5529550E551954F5016AB
:105C29007FE87E031256B67F01125CBC0552E5522D
:065C390070E3055180DF5D
:015C3F002242
:0456B6008E608F6112
:1056BA00D3E56194FAE5609400500EEFD39400406C
:1056CA00407E1600DEFD1F80F2856062856163D32D
:1056DA00E56394FAE562940040157FFA7E0012565B
:1056EA00B674062563F56374FF3562F56280E0D30C
:1056FA00E5619400E56094004007AF63AE6212561C
:01570A00B6E8
:01570B00227B
:10552B00754F007550007551497B007A0079477DA6
:01553B00026D
:08553C008B4B8A4C894D8D4E0A
:105544007F01125CBCAB4FAA50A951121A1B240054
:10555400FFE5F034E0FE854B52854C53854D54E411
:10556400FDEDC3954E501BEF2DF582E43EF583E42B
:1055740093AB52AA53A9548D827583001219B10DAD
:0F55840080DFAB4FAA50A951E4854EF0021A46C2
:104D5600755112755234755900755A00755B537B3F
:074D6600007A0079517D0283
:084D6D008B558A5689578D58B9
:104D75007880E664F16003024E0D125E96C2AFE4E0
:104D8500F58475EF0643B701758F01AB59AA5AA98A
:104D95005B121A1B2400FFE5F034E07893F608EF68
:104DA500F6AA56A9577897A65508C6EAC608C6E9C9
:104DB500C6E47895F67895E6C3955850327897CB42
:104DC500E6CB080806E618CAE6CA70010614F91209
:104DD50019597896F6E6FF78930806E618CCE6CCDE
:104DE50070010614F5828C83EFF078950680C6E491
:104DF500F58F53B7F0AB59AA5AA95B8558F0121A2B
:084E050046D2AFE4FF125DD6B6
:014E0D002282
:10575E007880E664F17049C2AF125E96E4F5847506
:10576E00EF0643B701758F03789476E008F67893C9
:10577E00F67894E6FE08E6F5828E83E4F07F011259
:10578E005CBC7895E426F618740236F61806E6C365
:10579E00940840DDE4F58F53B7F0D2AFFF125DD61B
:0157AE0022D8
:104F6F0012575EE4F553F554F559755A00755B53B6
:104F7F00FB7A0079087D16124D6D124D56E4F550EF
:104F8F00E550C3788E965073E4F54FAB70AA71A9B4
:104F9F007275F010E54FA4F58285F08312197260D7
:104FAF0056E54F75F010A429F9EA35F0FA90000D87
:104FBF00121D4678A1E68550F0A429F9EA35F0FADA
:104FCF00EBC0E0EAC0E0E9C0E0AB70AA71A972756E
:104FDF00F010E54FA4F58285F083121972FD755913
:104FEF0000755A00755B53D0E0F9D0E0FAD0E0FBC2
:104FFF00124D6D054F809405508085124D56E47803
:02500F0080F629
:01501100227C
:034BD300CCEFCC58
:104BD600E4F549F54AF546F54F755000755149FB20
:104BE6007A0079087D1612553C12552BE548643437
:104BF6007004E54764127003434601EC7003024CEF
:104C060096E4F545E545C3788E965073E4F544ABD6
:104C160070AA71A97275F010E544A4F58285F08337
:104C26001219726056E54475F010A429F9EA35F0B8
:104C3600FA90000D121D4678A1E68545F0A429F9E3
:104C4600EA35F0FAEBC0E0EAC0E0E9C0E0AB70AAF2
:104C560071A97275F010E544A4F58285F0831219E6
:104C660072FD754F00755000755149D0E0F9D0E0DE
:104C7600FAD0E0FB12553C05448094054580851228
:104C8600552BE54864347004E547641270058000CE
:054C9600434602AF4699
:014C9B0022F6
:105A3D00BF011C75840F43A41075E10D75E340E49F
:105A4D00F58475D902F5FB75DA4675FC0A800FBF32
:105A5D000206E4F584F5D822BF0306E4F58475D873
:025A6D004022D5
:035F1700025B8F9B
:025BE9008F45E6
:105BEB008D468B477F00125CBC12599AAF45125FF2
:105BFB00027B007A0079467D021259D47B007A0031
:0A5C0B007900E4FD125EE5025D334E
:105B02008F428D438B448A4589467F00125CBC12CA
:105B1200599AAF42125F027B007A0079437D0112EB
:105B220059D4AB44AA45A946AD47125EE5025D339E
:1053E100E490061CF0121959FF30E00790061CE00A
:1053F1004480F0EF30E10790061CE04404F01219FC
:105401005930E20790061CE04410F0121959FF30A0
:10541100E30790061CE04401F0EF30E40790061C1E
:10542100E04440F012195930E50790061CE04408A9
:10543100F0121959FF30E60790061CE04420F0EF06
:1054410030E70790061CE04402F090061CE00219C8
:015451009FBB
:0D5ECC00E4F58475E8C075BC8075D107222F
:105AA000E4F584EF540FF5BBE5BC54F84DF5BCE4C8
:105AB000F5BAC2AFC2EDD2ECC2EDD2EC20ECFDD211
:105AC000AFE5BF5403FEADBE7C00E42DFFEC3EFE0F
:015AD00022B3
:035F1A0002007012
:063EA8008F448D458B469E
:103EAE0090061B121CF9000000007D00AF447E003E
:103EBE00125A6FAD07AF467E00125A6FAD07AF476D
:103ECE007E00125A6FAD07AF457E00125A6F9006F4
:103EDE001AEFF0E54664037021FDAF49FE125A6FEA
:103EEE00AD07AF487E00125A6FAD0790061AE0FF7D
:103EFE007E00125A6F90061AEFF0754F017551142D
:103F0E00E54F7003024003E5517003024003AF4BCF
:103F1E00AE4A125A0BAF4BAE4A125A0BAD4BAC4ACD
:103F2E00AF44125593AF4BAE4A125A0BAD4BAC4A3F
:103F3E00AF46125593AD4BAC4AAF47125593E5467B
:103F4E0070028028AD4BAC4AAF45125593E545B48F
:103F5E00F6028018E54664037029AD4BAC4AAF49B2
:103F6E00125593AD4BAC4AAF4812559390061AE0DA
:103F7E00FF854C56854D57854E58AB4BAA4A7DFF53
:103F8E00024709E54664017067E54764027061E522
:103F9E004F603F90061AE0FF854C56854D57854E73
:103FAE0058AB4BAA4AE4FD1247098F50E5507022D8
:103FBE0090061BE0FCA3E0FDA3E0FEA3E0FFAB4CEC
:103FCE00AA4DA94E121CC112135A90061B121CEDBB
:103FDE00154FE54F701A90061BE0FCA3E0FDA3E021
:103FEE00FEA3E0FFAB4CAA4DA94E121C637F00222C
:073FFE001551023F0EAF5008
:014005002298
:084709008F528D538A548B5529
:10471100E4F55BAF55AE54125891E5526F60037FDB
:10472100FF22EFF4B552037FFD22E553B4FF037F6F
:104731000122E5536003024815AF55AE541258915A
:104741008F59AF55AE541258918F5AAF55AE54127E
:1047510058918F5B7D00AF597E00125A6FAD07AF44
:104761005A7E00125A6FEF655B60037FFE22E55AA5
:1047710030E709635AFFE559F404F559E55AFE7C1F
:1047810000E42559FFEC3EFE90061FF0A3EFF0FD7B
:10479100AC06EC121663E4FBFA79807842121554E8
:1047A100AB56AA57A958121C63AB56AA57A958C0B1
:1047B10003C002C001121C437BCC7A5D795B783F58
:1047C100121356D001D002D003121C63AB56AA5764
:1047D100A958121C43E4FBFA79C878421215F1403A
:1047E10017AB56AA57A958121C43E4FBFA79207853
:1047F100C11215F1600540037FFA22AB56AA57A9F1
:1048010058121C437BCC7A5D795B78BF1215F1702D
:06481100037FFB227F0083
:01481700227E
:105E7300125EFCD2A6D2A5D2B6D2B5D2B1D2B0D2DE
:045E830087D286221A
:104E0E008B42AC07C2A3E542B40104C286803DE5E5
:104E1E0042B40204C2878034E542B40304C2B080B7
:104E2E002BE542B40404C2B18022E542B40504C2AB
:104E3E00B58019E542B40604C2B68010E542B40747
:104E4E0004C2A58007E542B40802C2A6ED75F010B3
:104E5E00A4FBECC454F045F0FEEBFF125B617F0146
:104E6E007E001256B6E542B40104D286803DE5427C
:104E7E00B40204D2878034E542B40304D2B0802B4E
:104E8E00E542B40404D2B18022E542B40504D2B5A1
:104E9E008019E542B40604D2B68010E542B4070488
:104EAE00D2A58007E542B40802D2A67F017E000299
:024EBE0056B6E6
:035F1D00025B8F95
:025B32008F42A0
:105B34008D43EBF5448A457F00125CBC12599AAF41
:105B440042125F027B007A0079437D031259D47BB1
:0D5B5400007A007900E4FD125EE5025D3389
:035F2000D29422F6
:105E11008A428B43C2A3C294EFC454F04DFF125C7B
:0B5E21006AAF43AE42125B61D29422D4
:033BF10001780058
:035F2300D2422245
:065F0200900626EFF022DC
:0659D4008B4D8A4E894F45
:1059DA00E4FFEFC39D5024EFC39408501EAB4DAAB9
:1059EA004EA94F8F82758300121972FE74282FF503
:1059FA0082E43406F583EEF00F80D7900630EFF09C
:015A0A002279
:0C5EE5008B7B8A7C897D900627EDF022E3
:10599A00754D00754E64304125E54E454D601F75C5
:1059AA00840F30B303C38001D392B37F0A7E0012FF
:1059BA005C15C2B4E54E154E70DC154D80D8E54E27
:0959CA00454D7005125E45D2B492
:0159D30022B1
:105E4500757B00757C00757D00E4900627F0900653
:075E550030F0C241C24222FD
:105D3300900630E0D394004004C243800B900627C2
:105D4300E0D39400400FD243D241E4F584D2C5128C
:065D5300599A125E452280
:105B8F00E5787028757801758401F5C8F5C9F5CAEF
:105B9F00F5CBF5CCF5CD75C804F58475C04343F648
:0C5BAF000243E60243E701D2AF125E455C
:015BBB0022C7
:03003B0002415E21
:10415E00C0E0C083C082C0D075D000C000C001C016
:05416E0002C003C007C0
:10417300C230AFC1EF121D76419D0841A31041B675
:104183001841C82041D228420930420D40421C4800
:1041930042295042575800004270757900757A00E1
:1041A300900626E025E0FFA243E4334FF5C2C2C5E3
:1041B300024272900630E0FFE57AC39F5002801AF4
:1041C300D2300242723042028052D23002427290A6
:1041D3000630E0FFE57AC39F5014AF7A057A74285E
:1041E3002FF582E43406F583E0F5C20242729006AD
:1041F30027E0FFE579C39F5008D243C2C4D2C580EC
:104203006E30416B8061D2C48065900627E0B401B3
:1042130004C2C2805AD2C28056304206D2C4D2C52A
:10422300804DD2308049900627E0FF14B57904C24F
:10423300C28002D2C2E579C39F5015AB7BAA7CA989
:104243007D857982758300E5C21219B10579801FD6
:10425300D230801BAB7BAA7CA97D857982758300D4
:10426300E5C21219B10579D2C4C2418002D23030FD
:10427300301053C0BF43C040C2C5C2C4C2C2C24152
:04428300C230C2C3C0
:10428700D007D003D002D001D000D0D0D082D083C5
:03429700D0E03242
:03007300025D9893
:105D9800C0E0C083C08275840053C0BF43C0407553
:0F5DA800840153C87F125E45D082D083D0E03291
:055F0D00D2B7025EFCAA
:0C5656008E448F458C468D478A488B4956
:10566200E4F54AF54BD2A0125C40BF03037F03224C
:10567200C2B77F03125C6AAF45AE44125B61C3E5F9
:105682004B9549E54A9548501D12595B85478285DD
:105692004683EFF00547E54770020546054BE54BAB
:1056A20070DC054A80D87F197E001256B6D2B7C286
:0356B200A07F01D5
:0156B50022D2
:044A22008E428F43EE
:104A2600755300755420121A1B85F055F556E5434B
:104A36002548E5423547C3940640037F0222D2A0AB
:104A4600E548AE477805CEC313CE13D8F9F5528E96
:104A560051E4F54DF54ED3E54E9552E54D95514051
:104A660003024AF9E54EAE4D7805C333CE33CED8B0
:104A7600F9F5438E42E54EB5520EE54DB551097531
:104A86005300E548541FF554125C40C2B77F02122A
:104A96005C6AAF43AE42125B61E4F54FF550C3E585
:104AA600509554E54F95535029E549B4011585565F
:104AB60082855583E0FF125C6A0556E55670090546
:104AC600558005E4FF125C6A0550E55070D0054F2D
:104AD60080CC7F197E001256B6D2B77F197E00129F
:104AE60056B6125EA4054EE54E6003024A5C054DBD
:074AF600024A5CC2A07F012F
:014AFD002296
:105C4000C2B77F197E001256B67F06125C6A7F19B2
:105C50007E001256B6D2B77F197E001256B6125E7B
:0A5C6000A4BF03037F03227F01228B
:105DB700C2B77F05125C6A12595B8F577F197E0045
:0E5DC7001256B6D2B77F197E001256B6AF57ED
:015DD50022AB
:0D5EA400125DB7EF547160037F03227F0190
:015EB10022CE
:035F2600025B8F8C
:0657AF008F428D438B4484
:1057B5007F00125CBCE543C31344B090061AF0E5C4
:1057C5004330E004E04408F0E544448090061BF0D3
:1057D5007F00125CBC12599AAF42125F027B017ABC
:1057E50006791A7D021259D47B007A007900E4FD0E
:0957F500125EE5125F23025D3330
:0A4AFE008F428D438B448A458946A0
:104B0800754801E4F54CF54BF54AF549FF125CBCD4
:104B1800E543C31344B090061AF0E54330E004E0DF
:104B28004408F0E547448090061BF012599AAF42BA
:104B3800125F027B017A06791A7D021259D47B0032
:104B48007A0079497D03125EE5125F23125D33E432
:104B5800FFFEFDE54954C0FCE4FBFAF978C0C31236
:104B68001C0B6011E4FFFEFDE54954C0FCE4F8C3EA
:104B7800121C0B7003E4F548E5495480AF4CAE4B6A
:104B8800AD4AAC49780E7017121C2F8F4C8E4B8D86
:104B98004A8C49E54CF54CE54BF54B74FF801412F3
:104BA8001C2F8F4C8E4B8D4A8C49E54CF54CE54BB0
:104BB800F54BE4F54AF549AF4CAE4BAD4AAC49ABC1
:0A4BC80044AA45A946121C63AF4839
:014BD20022C0
:101EB0004C61737420547269703A2025362E336653
:101EC000205B25362E3366202F00464542363400EF
:101ED000043400000053657269616C4E000101E436
:101EE00002340000004572726F720000000101E8C8
:101EF0000134000000436F6E74726F6C000101EAE0
:101F0000013400000053746174757300000101EB2B
:101F1000013400000045455061676500000101EC97
:101F2000013400000073774269617300000101ED24
:101F30000234000000725170756D7000000101EEF6
:101F4000041800000156426961730000000101F2AB
:101F50000406FA000149426961730000000101F6BC
:101F600004180000017044564D6F6E00000101FA24
:101F700004180000017041564D6F6E00000101FE13
:101F800004180000016E41564D6F6E000001020200
:101F900004060000016E41494D6F6E00000102060B
:101FA00004060000017041494D6F6E000001020AF5
:101FB00004060000017044494D6F6E000001020EDE
:101FC0000408000001754354656D700000010212A1
:101FD000040800000161646354656D70000102161D
:101FE000040800000161667454656D700001021AF6
:101FF000040800000172656754656D700001021EDF
:102000000408000001737354656D70300001028292
:102010000408000001737354656D7031000102867D
:102020000408000001737354656D70320001028A68
:102030000408000001737354656D70330001028E53
:10204000040800000154656D703000000001022298
:10205000040800000154656D703100000001022683
:10206000040800000154656D703200000001022A6E
:10207000040800000154656D703300000001022E59
:10208000040800000154656D703400000001023244
:10209000040800000154656D70350000000102362F
:1020A000040800000154656D703600000001023A1A
:1020B000040800000154656D703700000001023E05
:1020C000041800000156424D6F6E300000010242BC
:1020D000041800000156424D6F6E310000010246A7
:1020E000041800000156424D6F6E32000001024A92
:1020F000041800000156424D6F6E33000001024E7D
:10210000041800000156424D6F6E34000001025267
:10211000041800000156424D6F6E35000001025652
:10212000041800000156424D6F6E36000001025A3D
:10213000041800000156424D6F6E37000001025E28
:102140000406FA000149424D6F6E30000001026240
:102150000406FA000149424D6F6E3100000102662B
:102160000406FA000149424D6F6E32000001026A16
:102170000406FA000149424D6F6E33000001026E01
:102180000406FA000149424D6F6E340000010272EC
:102190000406FA000149424D6F6E350000010276D7
:1021A0000406FA000149424D6F6E36000001027AC2
:1021B0000406FA000149424D6F6E37000001027EAD
:1021C0000234000000724173756D3000000102920C
:1021D0000234000000724173756D310000010294F9
:1021E0000234000000724173756D320000010296E6
:1021F0000234000000724173756D330000010298D3
:102200000234000000724173756D34000001029ABF
:102210000234000000724173756D35000001029CAC
:102220000234000000724173756D36000001029E99
:102230000234000000724173756D3700000102A086
:10224000013400000872426961733030000102A25B
:10225000013400000872426961733031000102A349
:10226000013400000872426961733032000102A437
:10227000013400000872426961733033000102A525
:10228000013400000872426961733034000102A613
:10229000013400000872426961733035000102A701
:1022A000013400000872426961733036000102A8EF
:1022B000013400000872426961733037000102A9DD
:1022C000013400000872426961733038000102AACB
:1022D000013400000872426961733039000102ABB9
:1022E000013400000872426961733130000102ACB0
:1022F000013400000872426961733131000102AD9E
:10230000013400000872426961733132000102AE8B
:10231000013400000872426961733133000102AF79
:10232000013400000872426961733134000102B067
:10233000013400000872426961733135000102B155
:10234000013400000872426961733136000102B243
:10235000013400000872426961733137000102B331
:10236000013400000872426961733138000102B41F
:10237000013400000872426961733139000102B50D
:10238000013400000872426961733230000102B604
:10239000013400000872426961733231000102B7F2
:1023A000013400000872426961733232000102B8E0
:1023B000013400000872426961733233000102B9CE
:1023C000013400000872426961733234000102BABC
:1023D000013400000872426961733235000102BBAA
:1023E000013400000872426961733236000102BC98
:1023F000013400000872426961733237000102BD86
:10240000013400000872426961733238000102BE73
:10241000013400000872426961733239000102BF61
:10242000013400000872426961733330000102C058
:10243000013400000872426961733331000102C146
:10244000013400000872426961733332000102C234
:10245000013400000872426961733333000102C322
:10246000013400000872426961733334000102C410
:10247000013400000872426961733335000102C5FE
:10248000013400000872426961733336000102C6EC
:10249000013400000872426961733337000102C7DA
:1024A000013400000872426961733338000102C8C8
:1024B000013400000872426961733339000102C9B6
:1024C000013400000872426961733430000102CAAD
:1024D000013400000872426961733431000102CB9B
:1024E000013400000872426961733432000102CC89
:1024F000013400000872426961733433000102CD77
:10250000013400000872426961733434000102CE64
:10251000013400000872426961733435000102CF52
:10252000013400000872426961733436000102D040
:10253000013400000872426961733437000102D12E
:10254000013400000872426961733438000102D21C
:10255000013400000872426961733439000102D30A
:10256000013400000872426961733530000102D401
:10257000013400000872426961733531000102D5EF
:10258000013400000872426961733532000102D6DD
:10259000013400000872426961733533000102D7CB
:1025A000013400000872426961733534000102D8B9
:1025B000013400000872426961733535000102D9A7
:1025C000013400000872426961733536000102DA95
:1025D000013400000872426961733537000102DB83
:1025E000013400000872426961733538000102DC71
:1025F000013400000872426961733539000102DD5F
:10260000013400000872426961733630000102DE55
:10261000013400000872426961733631000102DF43
:10262000013400000872426961733632000102E031
:10263000013400000872426961733633000102E11F
:10264000023400000072564269617300000102E228
:10265000023400000072494269617300000102E423
:10266000023400000072704456000000000102E6CF
:10267000023400000072704156000000000102E8C0
:102680000234000000726E4156000000000102EAB0
:102690000234000000726E4149000000000102ECAB
:1026A000023400000072704149000000000102EE97
:1026B000023400000072704449000000000102F082
:1026C00004340000007256424D6F6E30000102F279
:1026D00004340000007256424D6F6E31000102F664
:1026E00004340000007256424D6F6E32000102FA4F
:1026F00004340000007256424D6F6E33000102FE3A
:1027000004340000007256424D6F6E340001030223
:1027100004340000007256424D6F6E35000103060E
:1027200004340000007256424D6F6E360001030AF9
:1027300004340000007256424D6F6E370001030EE4
:1027400004340000007249424D6F6E3000010312E4
:1027500004340000007249424D6F6E3100010316CF
:1027600004340000007249424D6F6E320001031ABA
:1027700004340000007249424D6F6E330001031EA5
:1027800004340000007249424D6F6E340001032290
:1027900004340000007249424D6F6E35000103267B
:1027A00004340000007249424D6F6E360001032A66
:1027B00004340000007249424D6F6E370001032E51
:1027C000043400000965657056616C75650103325B
:1027D0000434000008656543747253657401033660
:1027E00004340000086173756D63746C0001033A72
:1027F00004340000087761746368646F6701033E06
:102800000434000008736D626465627567010342F9
:10281000023400000047656F416464000001034614
:1028200000000000000000000000000000000000A8
:103BF40060C00484000400010001447A000000163F
:103C0400000400030001447A0000007F0004000562
:103C14000001447A00001C08000400070001447AF3
:103C24000000073000000007000042CA333300E6FA
:103C340000000005000042CA333300E60000000320
:103C4400000042CA333300E600000001000042CA0B
:103C5400333300E6000400000001447A00000C6ADB
:103C6400000400020001447A000007080004000474
:103C74000001447A0000039D000400060001447A18
:103C84000000131F00000006000042CA333300186E
:103C940000000004000042CA333300E600000002C2
:103CA400000042CA333300E100000000000042CAB1
:103CB400333300E66048000201424A00000000007D
:103CC4000003449C40000000000000407EBA7C00D9
:103CD40000000000407EBA7C0000000000410800A3
:103CE40000C196020C003DCCCCCD00000000003E8B
:103CF400CCCCCD00000000003DCCCCCD00000000B9
:103D0400612C035400000000006EFFFFFFFFFFFF63
:103D1400FFFFFFFFFFFFFFFFFFFF00000000032086
:103D2400FFFFFFFFFFFFFFFFFFFFFFFFFFFFFFFF9F
:103D3400FFFFFFFFFFFFFFFFFFFFFFFFFFFFFFFF8F
:103D4400FFFFFFFFFFFFFFFFFFFFFFFFFFFFFFFF7F
:103D5400FFFFFFFFFFFFFFFFFFFFFFFFFFFFFFFF6F
:103D640041F000000000000040B0000040B000003E
:103D7400C0D00000000000000000000000000000AF
:103D8400429200003DCCCCCD40D0000040D0000099
:103D9400C0B000003E4CCCCD3F4CCCCD3E4CCCCD45
:103DA40041200000424800004120000041F0000092
:103DB400BF8000003F800000BDCCCCCD3F80000020
:103DC40000000000429200000000000041200000BA
:103DD40000000000000000000000000000000000DF
:103DE40000000000000000000000000000000000CF
:103DF40000000000000000000000000000000000BF
:103E040000000000000000000000000000000000AE
:103E1400000000000000000000000000000000009E
:103E2400000000000000000000000000000000008E
:103E340048054500000200040006000C8224526577
:103E4400763A20393130202400018E014201A0004D
:103E5400004201E2000044017C4120000041035083
:103E64000041004A0044004C00000000440480006B
:103E740000000044018000000000440348000000EA
:103E840000410184000370FF1ED0047448494A4B6A
:103E940048019700010203040506074100000041A0
:033EA4000001001A
:0F5E8700C2AF9001EAE525F0A3E524F0D2AF22E7
:04002600A20D923164
:10002A00C2AFD2319001E8E521F0A3E522F0D2AFC8
:01003A0022A3
:105E5C009001EAE525F0A3E524F09001E8E521F0B6
:075E6C00A3E522F0D2AF22F2
:0E5AD100E4F547F546F5457544C3A20C923145
:105ADF008F828E83C2AFAF47AE46AD45AC44121C2A
:105AEF00ED30310A9001E8E521F0A3E522F0C23153
:035AFF00D2AF2201
:104C9C00E4F544F54590048875F00CE545121D2AA1
:104CAC00E54475F00CA42583F583E0FEA3E04E608B
:104CBC002F90048675F00CE545121D2AE54475F01D
:104CCC000CA42583F583E0F546A3E0F547AE4678C2
:104CDC0002C333CE33CED8F92440F5827404802D30
:104CEC0090048675F00CE545121D2AE54475F00C10
:104CFC00A42583F583E0F546A3E0F547AE4678029C
:104D0C00C333CE33CED8F92460F58274043EF583D8
:104D1C00E0FCA3E0FDA3E0FEA3E0FF12169C9004D0
:104D2C008E75F00CE545121D2AE54475F00CA42592
:104D3C0083F583EEF0A3EFF00545E54570020544DD
:094D4C00641045446003024CA10F
:014D5500223B
:1057FE00E490061AF0A3F0A3F07B017A06791C75EB
:10580E0047017D017F74125B0290061CE0FDFF33A1
:10581E0095E0FEEFF4FFEEF4FEEF25E0FFEE3354DD
:10582E0001FEEF54F8FF90061AEEF0A3EFF0ED54E0
:0A583E0003FD3395E04EFEED4FFF31
:01584800223D
:0845F9008F428B438A4489457F
:10460100900622121CF900000000E490061AF0A3A3
:10461100F0AD4EAF42125AA0900620EEF0A3EFF09B
:10462100A3E0F8A3E0F9A3E0FAA3E0FB900620E001
:10463100FEA3E0FFE4FCFDEB2FFFEA3EFEED39FDBA
:10464100EC38FCA3121CED1254C090061BE004F0E0
:10465100700690061AE004F0C390061BE0940A90DD
:10466100061AE0940040AAE47B0AFAF9F8900622BF
:10467100E0FCA3E0FDA3E0FEA3E0FF121B55AB436A
:10468100AA44A945EE8FF0121A7EAB43AA44A9456C
:10469100121A1BFDACF0E412166390061C121CEDFD
:1046A100E4FBFA7980784490061CE0FCA3E0FDA3CA
:1046B100E0FEA3E0FF1215547BF67A28791C7840BE
:1046C10012144B90061C121CEDE5426408602AAFDF
:1046D10049AE48AD47AC4690061CE0F8A3E0F9A30B
:1046E100E0FAA3E0FB12144BAB4DAA4CA94BA84A2C
:1046F10012135A90061C121CED90061CE0FCA3E05C
:07470100FDA3E0FEA3E0FFB1
:01470800228E
:024006008F44E5
:10400800E5446401600302413575840F43A704D277
:10401800B243A5E0D2957FE87E03125C15D2977F64
:10402800647E001256B6D296C2977F01125A3D7F1F
:1040380003125A3D75840F43A61843A4C043A763CF
:1040480043A66043A501D290125E7375840F43A600
:104058001843A510125F2075840F43A61843A78044
:1040680053A6FE125F0D125F1D125F2675840F4363
:10407800A50875840F43A504125F177F0A7E0012F6
:1040880056B6E4FB7D067F74125BE97F0A7E001258
:1040980056B69001EDE090061BF07B017A06791B7D
:1040A8001253E190061BE0F4FB7D027F74125BE97A
:1040B8007F0A7E001256B67BFF7D077F74125BE98C
:1040C8007F0A7E001256B6D21DE490061AF09006BA
:1040D8001AE0FFC3648094C0501AEF3395E0FE7471
:1040E800A22FF58274013EF58374FFF090061AE062
:1040F80004F080DAD21CE490061AF090061AE0FF69
:10410800C3648094885023EF3395E0FEEF25E0FFE9
:10411800EE33FE74872FF58274013EF58374FFF049
:10412800A3F090061AE004F080D1D21B22E5447077
:10413800247F02125A3D75840F75A78053B080C240
:10414800B253A61F53A00F53A506D292439006530D
:05415800A4E053803FCC
:01415D00223F
:022FCE00A90751
:102FD000E49005CDF09005CDE0FFC364809484506B
:102FE0001A74882FF8E6C3648094B05006E02488F1
:102FF000F876309005CDE004F080DA7889E6FF338A
:1030000095E0FEEF24D0FFEE34FFFE7C007D6412DD
:1030100019D3AA06AB077888E6FF3395E0FEEF24C4
:10302000D0FFEE34FFFE7C037DE81219D3EF2BFBBB
:10303000EE3AFA788AE6FF3395E0FEEF24D0FFEE11
:1030400034FFFE7C007D0A1219D3EF2BFFEE3AFE0F
:10305000788BE6FD3395E0FCED24D0FDEC34FFCD1C
:103060002FF50DED3EF50CE97003023108E49001F7
:10307000EAF0A37480F0E49001EDF0A3F0A3F090E7
:1030800005CDF09005CDE0FFC3648094885041EFFA
:10309000FD3395E0FCED25E0FFEC33FE74922FF557
:1030A0008274023EF583E4F0A37480F0EDAE047800
:1030B00002C333CE33CED8F92422F58274023EF512
:1030C00083121CF9000000009005CDE004F080B3ED
:1030D000E49005CDF09005CDE0FFC3648094C0502E
:1030E00027EF3395E0FE74A22FF58274023EF5833C
:1030F00074FFF074A22FF58274013EF58374FFF023
:103100009005CDE004F080CD750A00750B64E4F500
:103110002375840F43A420125ECC75840F43A61838
:1031200053A6FE43A780125F0D75840F43A505D2F9
:1031300090D29275840F125F177F0A7E001256B6E6
:10314000E4FB7D067F74125BE97F0A7E001256B6AF
:10315000E4FB7D027F74125BE97F0A7E001256B6A3
:103160007BFF7D077F74125BE97F0A7E001256B6F3
:103170007C037D547B047A007F007E0612565690B5
:103180000354E0FCA3E0FDA3E0FEA3E0FF9001E414
:10319000121CED900354A3A3E0FEA3E02414F50950
:1031A000EE34C3F508900545E0FEA3E0FF7C037D07
:1031B000547B2C7A01125656C2AFE49005CDF090A4
:1031C00005CDE0FFC3648094885050EF3395E0FE56
:1031D000EF25E0FFEE33FE745A2FF58274033EF5BF
:1031E00083E0FCA3E0FD74922FF58274023EF58328
:1031F000ECF0A3EDF0745A2FF58274033EF583E0F2
:10320000FCA3E0FD74872FF58274013EF583ECF09A
:10321000A3EDF09005CDE004F080A4E49005CDF09E
:103220009005CDE0FFFD3395E0FC74702DF58274C0
:10323000033CF583E0FE74A22DF58274023CF58315
:10324000EEF0EF3395E0FE74702FF58274033EF5D7
:1032500083E0FD74A22FF58274013EF583EDF090BA
:1032600005CDE004F0E0B440B790036AE05403FFFA
:10327000A3E09001EECFF0A3EFF090036CA3E090F9
:1032800001EDF0D2AF124C9C75840F43A50A7584F2
:10329000024388807589037584014388807589039A
:1032A0007F017E00125F1A7F027E00125F1AE49097
:1032B0000351F0900351E0FFC39404505975F0049A
:1032C000EFA42420F582E5F03404F583E0FCA3E0CC
:1032D000FDA3E0FEA3E0FF12169CAD07AC06ECFFD9
:1032E000C0078D49D048900351E02474F8E6FFE40C
:1032F000F547F54A754B01754C01754D05754ECE78
:103300007B037DE0123EA87F647E001256B69003D8
:1033100051E004F0809DE4900351F0900351E0FFF0
:10332000C39404505975F004EFA42430F582E5F0FD
:103330003404F583E0FCA3E0FDA3E0FEA3E0FF126C
:10334000169CAD07AC06ECFFC0078D49D048900332
:1033500051E02474F8E6FFE4F547F54A754B017532
:103360004C01754D05754ECE7B037DE1123EA87F65
:10337000647E001256B6900351E004F0809DE4FF95
:10338000124006E4F521F522F573F525F5249001A8
:10339000E8E521F0A3E522F09001ECE573F090015F
:1033A000EBE524F09001EA7480F090033E121CF9E2
:1033B00000000000E49005CDF09005CDE0F9C36475
:1033C000809488400302346DE9FF3395E0FEEF7886
:1033D00002C333CE33CED8F9FBAA062442F5827459
:1033E000023AF583121CF90000000074622BF5828A
:1033F00074023AF583121CF900000000E9FF3395CE
:10340000E0FEEF7802C333CE33CED8F9FBAA062410
:10341000F2F58274023AF583121CF9000000007480
:10342000122BF58274033AF583121CF90000000098
:10343000E9FF3395E0FEEF7802C333CE33CED8F9FF
:103440002422F58274023EF583121CF9C3000000A9
:10345000900332121CF900000000900336121CF990
:10346000000000009005CDE004F00233B943A680CF
:0334700043A080F6
:013473002236
:104EC000151EA81EEFF69001EBE0F524A81EE6FFE4
:104ED000B402129001EAE0F525302B099001A0E41C
:104EE000F0A3740AF0EFB40505202602D21AA81E1A
:104EF000E6B49002D21EA81EE6FFC3942F400AEF2C
:104F000094375005202602D21BEFC39437400AEF96
:104F100094775005202602D21CEFB4060520260205
:104F2000D21DEF6491704590033AA3A3A3E054010E
:104F3000FFEF24FF929790033AA3A3A3E05402FF4C
:104F4000E4FEFDFC7801121C1CEC4D4E4F24FF9238
:104F50009690033AA3A3A3E05404FFE4FEFDFC787B
:0F4F600002121C1CEC4D4E4F24FF9295051E2291
:055F12008F3A7F002220
:105BBC008B3A8A3B893C121959AB3DAA3EA93F123C
:105BCC00199FAB3AAA3BA93C900001121972AB3D4C
:0D5BDC00AA3EA93F9000011219B17F0222DC
:10007600D2A71257FE900346EEF0A3EFF0900001D0
:10008600E0FDFF3395E0FE90048475F00CEF121D41
:100096002AEE75F00CA42583F583A3E0FB7F1412EA
:1000A60057AF900001E0FDFF3395E0FE90048475A4
:1000B600F00CEF121D2AEE75F00CA42583F583A330
:1000C600E0F5477B017A0579E77F14124AFEEF7067
:1000D6000A9005E7121CF900000001900001E0FFFC
:1000E6003395E0FE90048E75F00CEF121D2AEE7526
:1000F600F00CA42583F583E0FEA3E0FBCAEECAEA72
:100106003395E0F9F89005E7E0FCA3E0FDA3E0FEF7
:10011600A3E0C39BFFEE9AFEED99FDEC98FC121648
:100126005EE4FBFA79A0783712144B9005D5121CC1
:10013600ED9005D5E0FCA3E0FDA3E0FEA3E0FF9073
:100146000001E0FB3395E0FA90048A75F00CEB129F
:100156001D2AEA75F00CA42583F583E0F8A3E0F9DF
:10016600A3E0FAA3E0FB12144B9005D5121CED9008
:1001760005D5E0FCA3E0FDA3E0FEA3E0FFECC0E0B4
:10018600EDC0E0EEC0E0EFC0E0900001E0FF339587
:10019600E0FE90048875F00CEF121D2AEE75F00C47
:1001A600A42583F583E0FCA3E0FD90048475F00CA0
:1001B600EF121D2AEE75F00CA42583F583E0FEA34D
:1001C600E02DFDEE3CFC1216638F498E488D478C60
:1001D600467F007E007D007C401243CFC8ECC8C934
:1001E600EDC9CAEECACBEFCBD0E0FFD0E0FED0E03F
:1001F600FDD0E0FC1215549005D5121CEDC2AF904F
:100206000001E0FF3395E0FE90048875F00CEF12D4
:100216001D2AEE75F00CA42583F583E0FEA3E04EBF
:1002260070030202D29005D5E0FCA3E0FDA3E0FE38
:10023600A3E0FFECC0E0EDC0E0EEC0E0EFC0E09070
:100246000001E0FF3395E0FE90048675F00CEF1296
:100256001D2AEE75F00CA42583F583E0FEA3E07855
:1002660002C333CE33CED8F92462F58274023EF54A
:1002760083D0E0FFD0E0FED0E0FDD0E0FC121CED24
:100286009005E7E0FCA3E0FDA3E0FEA3E0FFECC0E1
:10029600E0EDC0E0EEC0E0EFC0E0900001E0FF332B
:1002A60095E0FE90048675F00CEF121D2AEE75F0AF
:1002B6000CA42583F583E0FEA3E07802C333CE3396
:1002C600CED8F92412F58274030203769005D5E0A0
:1002D600FCA3E0FDA3E0FEA3E0FFECC0E0EDC0E080
:1002E600EEC0E0EFC0E0900001E0FF3395E0FE9045
:1002F600048675F00CEF121D2AEE75F00CA425830A
:10030600F583E0FEA3E07802C333CE33CED8F924DA
:1003160042F58274023EF583D0E0FFD0E0FED0E0E5
:10032600FDD0E0FC121CED9005E7E0FCA3E0FDA388
:10033600E0FEA3E0FFECC0E0EDC0E0EEC0E0EFC001
:10034600E0900001E0FF3395E0FE90048675F00C26
:10035600EF121D2AEE75F00CA42583F583E0FEA3AB
:10036600E07802C333CE33CED8F924F2F582740294
:100376003EF583D0E0FFD0E0FED0E0FDD0E0FC12F9
:100386001CEDD2AF900001E004F0E0FF75F0101212
:100396001937AFF0900001EFF0301A209001EDE030
:1003A6009005F4F07B017A0579F41253E19005F497
:1003B600E0F4FB7D027F74125BE9C21A301D1190D6
:1003C60001EEE0FAA3E0FB7D047F20125B32C21D42
:1003D60030282E9001EBE0F524E4F521F522C22623
:1003E600C2AFE524F09001E8E521F0A3E522F0D2C2
:1003F600AF7F011240067F647E00125C15D218C2E0
:100406002820182D125EBF900480E0F8A3E0F9A31F
:10041600E0FAA3E0FBC3EF9BFFEE9AFEED99FDEC3D
:1004260098FCE47B02FAF9F8C3121C0B40030204A1
:10043600E1E4900351F0900351E0FFC394044003BC
:100446000204D874742FF8E6FF754702E4F548F500
:1004560049F54A754B01754C01754D05754ED17BB5
:1004660001FD123EA8EF705EC20D9003F4E0FCA3FE
:10047600E0FDA3E0FEA3E0FF9005D1E0F8A3E0F9DC
:10048600A3E0FAA3E0FB1215F160044002D2099042
:100496000351E075F004A42482F582E5F03402AF3E
:1004A60082FEEEC0E09005D1E0FCA3E0FDA3E0FEF5
:1004B600A3E0F5478E468D458C44A2099231D0E0E3
:1004C600FE125ADF8003120026900351E004F00268
:1004D600043C125EBF900480121CED1254C020181A
:1004E6002D125EBF900180E0F8A3E0F9A3E0FAA325
:1004F600E0FBC3EF9BFFEE9AFEED99FDEC98FCE462
:100506007B02FAF9F8C3121C0B40030207EFE490D2
:100516000351F0900351E0FFC3940440030205B673
:1005260074742FF8E6FF754702E4F548F549F54A75
:10053600754B01754C01754D05754ED17B017D01DD
:10054600123EA8EF705EC20D9003FCE0FCA3E0FD36
:10055600A3E0FEA3E0FF9005D1E0F8A3E0F9A3E055
:10056600FAA3E0FB1215F160044002D20A9003518F
:10057600E075F008A42422F582E5F03402AF82FE8D
:10058600EEC0E09005D1E0FCA3E0FDA3E0FEA3E011
:10059600F5478E468D458C44A20A9231D0E0FE1274
:1005A6005ADF8003120026900351E004F002051979
:1005B600E4900351F0900351E0FFC394044003021A
:1005C600065874742FF8E6FF754702E4F548F549B6
:1005D600F54A754B01754C01754D05754ED17B017C
:1005E6007D02123EA8EF705EC20D9003FCE0FCA3F4
:1005F600E0FDA3E0FEA3E0FF9005D1E0F8A3E0F95B
:10060600A3E0FAA3E0FB1215F160044002D20A90BF
:100616000351E075F008A42426F582E5F03402AF14
:1006260082FEEEC0E09005D1E0FCA3E0FDA3E0FE73
:10063600A3E0F5478E468D458C44A20A9231D0E060
:10064600FE125ADF8003120026900351E004F002E6
:1006560005BB1254C09001EBE0F5242020030207ED
:10066600C3C20C754702E4F548F549F54A754B02D5
:10067600754C01754D05754ED17B017D017F481284
:100686003EA8EF704FC20D9003F4E0FCA3E0FDA37B
:10069600E0FEA3E0FF9005D1E0F8A3E0F9A3E0FABD
:1006A600A3E0FB1215F160044002D20C7E027F1A11
:1006B600EEC0E09005D1E0FCA3E0FDA3E0FEA3E0E0
:1006C600F5478E468D458C44A20C9231D0E0FE1241
:1006D6005ADF8003120026754702E4F548F549F50E
:1006E6004A754B02754C01754D05754ED17B017DE2
:1006F600027F48123EA8EF704FC20D9003F4E0FC53
:10070600A3E0FDA3E0FEA3E0FF9005D1E0F8A3E09F
:10071600F9A3E0FAA3E0FB1215F160044002D20C43
:100726007E027F16EEC0E09005D1E0FCA3E0FDA3BB
:10073600E0FEA3E0F5478E468D458C44A20C92312F
:10074600D0E0FE125ADF8003120026754702E4F558
:1007560048F549F54A754B02754C01754D05754EC0
:10076600D17B01FD7F48123EA8EF704CC20D90036D
:10077600F4E0FCA3E0FDA3E0FEA3E0FF9005D1E0DA
:10078600F8A3E0F9A3E0FAA3E0FB1215F160044038
:1007960002D20C7E027F1EEEC0E09005D1E0FCA3E3
:1007A600E0FDA3E0FEA3E0F5478E468D458C44A20E
:1007B6000C9231D0E0FE802512002680237E027F37
:1007C60016125AD17E027F1A125AD17E027F1EE479
:1007D600F547F546F5457544C3A20C9231125ADF2A
:1007E600125EBF900180121CED20182D125EBF9084
:1007F600004CE0F8A3E0F9A3E0FAA3E0FBC3EF9B0B
:10080600FFEE9AFEED99FDEC98FCE47B01FAF9F80F
:10081600C3121C0B4003020B3D7B017A0579F0E401
:10082600F549F548F547F546F54DF54CF54BF54ACE
:10083600F54E7F081245F99005CD121CED7FF07E2E
:10084600A77D467CBF9005CDE0F8A3E0F9A3E0FACA
:10085600A3E0FB12135AE4FBFA797A784412144B9C
:100866007B3D7A0A793778401215549005D1121CCF
:10087600EDE4FFFE7D207C419005D1E0F8A3E0F990
:10088600A3E0FAA3E0FB12144BE4FBFAF9783F125B
:10089600135A12169CCDEFCDCCEECCEC121663E4B7
:1008A600FBFA792078411215549005D1121CED906F
:1008B60003F0E0FCA3E0FDA3E0FEA3E0FF9005D17A
:1008C600E0F8A3E0F9A3E0FAA3E0FB1215F1402358
:1008D6009003F4E0FCA3E0FDA3E0FEA3E0FF900597
:1008E600D1E0F8A3E0F9A3E0FAA3E0FB1215F1606A
:1008F600044002D2087E027F12EEC0E09005D1E0ED
:10090600FCA3E0FDA3E0FEA3E0F5478E468D458CF3
:1009160044A2089231D0E0FE125ADF9005DD740140
:10092600F0A37401F0A374F2F09005ED7401F0A346
:100936007402F0A374E2F0E4900351F0900351E0E6
:10094600FEFFEFC0E07B017A0579F0EE75F009A4B1
:100956002403F582E43400F583E0FCA3E0FDA3E084
:10096600FEA3E0F5498E488D478C46900351E0750D
:10097600F009A42407F582E43400F583E0FCA3E043
:10098600FDA3E0FEA3E0F54D8E4C8D4B8C4A900303
:1009960051E075F009A42402F582E43400F583E001
:1009A600F54ED0E0FF1245F99005CD121CEDC2AF11
:1009B6009005CDE0FCA3E0FDA3E0FEA3E0FF9005DB
:1009C600DDE0FBA3E0FAA3E0F9900351E075F00443
:1009D600A4F58285F083121C7D9005F0E0FEA3E06D
:1009E600FF9005EDE0FBA3E0FAA3E0F9900351E0E8
:1009F600FD75F002A4F58285F083EE8FF0121A9D44
:100A0600D2AF74017E00C8EDC8088005C333CE336B
:100A1600CED8F9FFEE3395E0FDFC9005E3121CED10
:100A2600900351E0FF703375F004EFA424B0F58213
:100A3600E5F03403F583E0FCA3E0FDA3E0FEA3E0CC
:100A4600FF9005CDE0F8A3E0F9A3E0FAA3E0FB12DE
:100A560015F15004C2218002D221900351E0FFD348
:100A660094015003020B2575F004EFA424B0F5821F
:100A7600E5F03403F583E0FCA3E0FDA3E0FEA3E08C
:100A8600FF9005CDE0F8A3E0F9A3E0FAA3E0FB129E
:100A960015F14032900351E075F004A424D0F5829C
:100AA600E5F03403F583E0FCA3E0FDA3E0FEA3E05C
:100AB600FF9005CDE0F8A3E0F9A3E0FAA3E0FB126E
:100AC60015F1605B40599005E3A3A3E0FEA3E04265
:100AD60022EE42217545FF75461E7547B09005CD3D
:100AE600E0FCA3E0FDA3E0FEA3E0F54B8E4A8D49B2
:100AF6008C48900351E075F004A424B0F582E5F02B
:100B06003403F583E0FCA3E0FDA3E0FEA3E0F54F8C
:100B16008E4E8D4D8C4C7B017A0579FA1234D0902D
:100B26000351E004F0E0C394085003020942125E48
:100B3600BF90004C121CEDE5215410FEE522545CDA
:100B46004E600DC221C220E4FF124006D226800D5F
:100B560030180AC218C227C226D219D220125E5CE9
:100B66009001EBE0F524202003020C31201B030248
:100B76000C31E49005F9F09005F9E0FFC364809428
:100B8600884003020C2F201930EF3395E0FEEF2545
:100B9600E0FFEE33FE74922FF58274023EF583E099
:100BA600FCA3E0FD74872FF58274013EF583E0FE19
:100BB600A3E06D7002EE6C60679005F9E0FFFD330F
:100BC60095E0FC74972DF58274013CF583E0FDEF0A
:100BD6003395E0FEEF25E0FFEE33FE74922FF582AB
:100BE60074023EF583E0FAA3E0FB7F03125E1190E8
:100BF60005F9E0FFFD3395E0FC74A22DF582740241
:100C06003CF583E0FDEF3395E0FEEF25E0FFEE33A4
:100C1600FE74872FF58274013EF583E4F0A3EDF0B0
:100C26009005F9E004F0020B7DC21B9001EBE0F5A4
:100C360024202003020CDF201C03020CDFE49005B5
:100C4600F6F09005F6E0FFC3648094C04003020C02
:100C5600DD20191FEF3395E0FE74A22FF582740292
:100C66003EF583E0FD74A22FF58274013EF583E024
:100C76006D605B9005F6E0FF75F00812193704FE0B
:100C86009005F7F0FBEF75F008121937AFF0EF0497
:100C9600FF9005F8F09005F6E0FD3395E0FC74A2B0
:100CA6002DF58274023CF583E0FD124E0E9005F69A
:100CB600E0FF3395E0FE74A22FF58274023EF583C1
:100CC600E0FD74A22FF58274013EF583EDF09005E8
:100CD600F6E004F0020C48C21CC219302F1B90012A
:100CE600EBE0F524D2277F02125A3DE4FF124006BC
:100CF600C221C220C22F125E87302A12309604C249
:100D0600968002D296A2969222C22A125E87201E50
:100D160003020DF6900336E0FCE4FFFEFDEC543CC6
:100D2600FC7003020DE6900336E0FCA3E0FDA3E0B1
:100D3600FEA3E0FFC3EF9406748094805003020D77
:100D4600D6900336A3A3A3E4FEFDFC7B04FAF9F8D0
:100D5600121ACA7B0174542FF974033EFAEB3D90C4
:100D660005E0F0A3EAF0A3E9F0900336A3E0FDED79
:100D76005422FDED601E900332E0FCA3E0FDA3E0EB
:100D8600FEA3E0FF9005E0E0FBA3E0FAA3E0F91282
:100D96001C63805A900336A3E0FDE4FFFEED541178
:100DA600FDE4FCED601AC2AF9005E0E0FBA3E0FABB
:100DB600A3E0F9121C43900332121CEDD2AF802E31
:100DC600C2AF900336121CF9FF000000D2AF801E9E
:100DD600C2AF900336121CF90000FF00D2AF800E9E
:100DE600C2AF900336121CF900FF0000D2AFC21E3C
:100DF600202C03020F2A900000E06003020ED79019
:100E060001EBE0F524E49005F2F0A3F09005F2E0A2
:100E1600FEA3E0FFC39408EE94005035EF25E0FFF3
:100E2600EE33FE74922FF58274023EF583E0FCA346
:100E3600E0FD745A2FF58274033EF583ECF0A3EDC2
:100E4600F09005F3E004F070C39005F2E004F08042
:100E5600BBE49005F2F0A3F09005F2E0FEA3E0FFFC
:100E6600C39440EE9400502874A22FF582E4340215
:100E7600F583E0FE74702FF582E43403F583EEF01B
:100E86009005F3E004F070D09005F2E004F080C81D
:100E96009001EEE05403FFA3E090036ACFF0A3EFC6
:100EA600F09001EDE0FF90036CE4F0A3EFF0900109
:100EB600ECE0540725E02445F582E43405F583E0AB
:100EC600FFA3E09005EBCFF0A3EFF075400375416B
:100ED600549005F57401F09005EBE0FEA3E0FF7574
:100EE600470175482C9005F5E0F549754A01754BA3
:100EF60000754C007B007A007940124A22900186E8
:100F0600EFF0BF011AD224E4900000F0C22C900149
:100F1600ECE0FF5407C43354E0FEEF4EF08002C20B
:100F260024125E87202D0302103A9001EBE0F5248F
:100F3600A3E0540725E02445F582E43405F583E073
:100F4600FEA3E0FF7C037D547B2C7A01125656905B
:100F56000186EFF064016003021033D225C2AF9020
:100F660005F2F0A3F09005F2E0FEA3E0FFC39408BB
:100F7600EE94005046EF25E0FFEE33FE745A2FF54F
:100F86008274033EF583E0FCA3E0FD74872FF582AF
:100F960074013EF583ECF0FCA3EDF0FD74922FF5A1
:100FA6008274023EF583ECF0A3EDF09005F3E004C5
:100FB600F070B29005F2E004F080AAE49005F2F039
:100FC600A3F09005F2E0FEA3E0FFC39440EE940088
:100FD6005038CDEFCD74702DF582E43403F583E0FF
:100FE600FC74A22DF582E43401F583ECF0FC74A2C6
:100FF6002FF582E43402F583ECF09005F3E004F07B
:1010060070C09005F2E004F080B890036AE05403E3
:10101600FFA3E09001EECFF0A3EFF090036CA3E006
:101026009001EDF0D2AFD219124C9C8002C225C2BB
:101036002D125E87202B030213329001A0E0FEA33F
:10104600E0FFEE600302131AEF24F1605E24F170F4
:101056000302112924F6700302116824F6700302B4
:10106600124824F670030212FA2432600302131A9D
:101076009001EBE0F52430202230211F9001EDE0B5
:10108600B4FF18D223C2AF9001EBE524F0D2AF90A3
:1010960001A0E4F0A3740FF002131AC224C22BC2FB
:1010A60023E49001A0F0A3F00213179001EEA3E051
:1010B600900350F09001EDE090004AF090036EE04E
:1010C600FAA3E0FB7D047F20125B32E4900352F02A
:1010D600A3F0900352E0FEA3E0FFC39408EE648001
:1010E6009480502AEF7802C333CE33CED8F9244009
:1010F600F58274043EF583121CF90000000090038B
:1011060053E004F070CC900352E004F080C49001E8
:10111600A0E4F0A3741EF0125EBF900348121CED0B
:1011260002131A125EBF900348E0F8A3E0F9A3E0A9
:10113600FAA3E0FBC3EF9BFFEE9AFEED99FDEC9858
:10114600FCE47B0AFAF9F8C3121C0B400302131ADB
:10115600E49001E2F0A3F09001A0F0A37428F0025D
:10116600131A9001E2E0FCA3E0FDEC121663900175
:101176007CE0F8A3E0F9A3E0FAA3E0FB1215F16026
:1011860002500302123C900001E0600302131A9021
:1011960001E3E004F070069001E2E004F0E490035D
:1011A60052F0A3F0900352E0FEA3E0FFC39408EED2
:1011B60064809480400302131AEF7802C333CE335F
:1011C600CED8F92440F58274043EF583C083C082EC
:1011D600E0F8A3E0F9A3E0FAA3E0FBE8C0E0E9C089
:1011E600E0EAC0E0EBC0E0900352E0FEA3E0780244
:1011F600C333CE33CED8F92412F58274033EF58379
:10120600E0FCA3E0FDA3E0FEA3E0FFEC12165ED037
:10121600E0FBD0E0FAD0E0F9D0E0F812135AD08221
:10122600D083121CED900353E004F0700690035235
:10123600E004F00211AA9001A0E4F0A37432F002D7
:10124600131AE4900352F0A3F0900352E0FEA3E0D9
:10125600FFC39408EE6480948040030212ECEF789A
:1012660002C333CE33CED8F92440F58274043EF55A
:1012760083E0FCA3E0FDA3E0FEA3E0FF90017CE099
:10128600F8A3E0F9A3E0FAA3E0FB1215549005D900
:10129600121CED9005D9E0FCA3E0FDA3E0FEA3E05F
:1012A600FFECC0E0EDC0E0EEC0E0EFC0E09003521E
:1012B600E0FEA3E07802C333CE33CED8F92440F55E
:1012C6008274043EF583D0E0FFD0E0FED0E0FDD08E
:1012D600E0FC121CED900353E004F07006900352FC
:1012E600E004F002124F124C9C9001A0E4F0A374AB
:1012F6003CF08020900350E0FB3395E0FA7D047FBC
:1013060020125B32C22BE49001A0F0A3F0C223D2DC
:101316002C125E87C2AF9001A0E0FEA3E0FFEE3381
:1013260095E0FDFC900342121CEDD2AFC2AF9003D4
:101336004CE0FCA3E0FDA3E0FEA3E0FF9003421215
:0D1346001CEDD2AFC2A77F0A7E00025C152D
:030000000250AFFC
:1050AF0075EF02E5EF30E106438701858787787F4B
:0A50BF00E4F6D8FD7581A702510444
:10135300021708E86480F8E933E83360110460F0A9
:10136300ED33EC337009E8FCE9FDEAFEEBFF220400
:1013730060DED3EB9FEA9EE99DE8C2E78CF0C2F7FB
:1013830095F0400CE8CCF8E9CDF9EACEFAEBCFFBC7
:101393001216D385D0F05804700320D5B3E8047037
:1013A300075002B2D502171292D5EC0460F7E4CCD1
:1013B300C0E0C398F8603B94186008400DD0E0FB90
:1013C3000216EAE4FBFAC9FC8028E830E406E4C923
:1013D300FBE4CAFCE830E305E4C9CACBFCE85407E4
:1013E3006010F8C3E913F9EA13FAEB13FBEC13FCEF
:1013F300D8F130F52FC3E49CFCEF9BFFEE9AFEED92
:1014030099FDD0E0FBEF4E4D4C701222DB03021727
:101413000FEC2CFCEF33FFEE33FEED33FDED30E745
:10142300EB0216EAEF2BFFEE3AFEED39FDD0E0FBBF
:1014330050130BBB0003021712ED13FDEE13FEEF67
:0814430013FFEC13FC0216EA92
:10144B00EC4D6011E8497017ED33EC3304600DE49B
:10145B00FCFFFEFD22E933E8330470F80217081293
:10146B0016D358046009E4CC248150062850090295
:10147B00171228400302170FC0E0EB4A7044B980E3
:10148B0006D0E0FB0216FEEF4E701CBD8008EBFF92
:10149B00EAFEE9FD80EBE98DF0A4FEE5F0021534E0
:1014AB00E9CDF9EAFEEBFFEF89F0A4FCE5F0CE897C
:1014BB00F0A42EFFE435F0CD89F0A42DFEE435F039
:1014CB008067EF4E7005BD80D780C3EF8BF0A4AC67
:1014DB00F0EE8BF0A42CFCE435F0F8EF8AF0A42CA2
:1014EB00E5F038FCE433CB8DF0A42CFCE5F03BF8B5
:1014FB00EE8AF0A42CFCE5F038F8E433CF89F0A4A5
:10150B002CFCE5F038CF3400CE89F0A42FFFE5F0AA
:10151B003EFEE433C98DF0A42EFEE5F039CD8AF002
:10152B00A42FFFE5F03EFEE43DFD33D0E0FB50077A
:10153B000BBB000F021712EC2CFCEF33FFEE33FE4C
:06154B00ED33FD0216EA7B
:10155100021712EC5D046005E859047003021708D4
:101561001216D3580460F6EC4860F2EC7004FDFEEC
:10157100FF22C860DB2481C85009C398600250066D
:1015810002170F9850CAF582E9294B4A7005AB82C0
:101591000216FE75F0007C1A7880C3EF9BEE9AED7F
:1015A10099400DC3EF9BFFEE9AFEED99FDE842F0E5
:1015B100DC23ACF0D0E0FFD0E0FED0E0FDAB822038
:1015C100E7101BEB60BAEC2CFCEF33FFEE33FEEDC2
:1015D10033FD0216EAE803F830E705C0F075F000C4
:1015E100EF2FFFEE33FEED33FD40B830E7C280AAA6
:1015F10074F8CC6480CCC86480C8F582046043C3AD
:10160100EB9FF5F0EA9E42F0E99D42F0E89C45F03F
:1016110060305018E5825FFFE582F42B5582FB5064
:10162100210ABA001D09B90019088016E5825BFB81
:10163100E582F42F5582FF50090EBE00050DBD0055
:10164100010CC3EB9FF5F0EA9E42F0E99D42F0E800
:0D1651009C45F06007CC4820E701B3EC2277
:10165E0075F020800E75F010800575F0087D007E07
:10166E00007F003392D530D503121BE7EC334010C8
:10167E00EF33FFEE33FEED33FDEC33FCD5F0ED2210
:0E168E00E5F0247EA2D513CC92E7CDCEFF224C
:10169C00EDD2E7CD33EC3392D524814006E4FFFE46
:1016AC00FDFC22FCE4CFCECDCC24E0501174FF80A5
:1016BC00EDC3CC13CCCD13CDCE13CECF13CF047042
:0716CC00F030D5DE021BE740
:10347400E5592445F8E60559227842303802784562
:10348400E475F001121D360219592031EB7F2ED25A
:10349400318018EF540F2490D43440D4FF30350BCE
:1034A400EF24BFB41A0050032461FFE55A600215EB
:1034B4005A055DE55D7002055C30380D7842E475AF
:1034C400F001121D36EF02199F025D0C7403D2380D
:1034D4008003E4C238F5598B428A438944E4F55A9F
:1034E400F55CF55DE55A60077F201234AF80F57511
:1034F4005BFFC232C231C233C234C236C237C239B0
:1035040012347DFF700D3038057F001234C0AF5D7A
:10351400AE5C22B4255FC2D5C23512347DFF24D0FF
:10352400B40A00501A75F00A785A30D50508B6FF67
:103534000106C6A426F620D5047002D23480D9240C
:10354400CFB41A00EF5004C2E5D2350237ADD232FF
:1035540080C6D23180C0D23380BCD2D580BAD236B4
:1035640080B47F201234AF2033077401B55A004071
:10357400F1123474FF1234AF0234E8D239D23780F6
:1035840095123474FB123474FA123474F94A4B7081
:103594000679A47A387BFF20332EE55A602A7E0010
:1035A4008E8275830012197260060EEE655B70F0F0
:1035B400C2D5EBC0E0EAC0E0E9C0E0EE12380DD0BD
:1035C400E0F9D0E0FAD0E0FB121959FF60AAEBC091
:1035D400E0EAC0E0E9C0E01234AFD0E02401F9D061
:1035E400E03400FAD0E0FBE55B0460DCD55BD98015
:1035F40087D23380A21237F060F7E55B70010412C2
:103604001748A95B600DE55B600914F55B123897F8
:10361400EF60F3EA30E702F404C3995077EAF42543
:103624005B0430E701E404F55B800D1237F060C100
:10363400EA055B255B121748EA7858F630E701E49F
:10364400255B04D55B042036011412380DE4C0E078
:103654001238977858E6601320E70714F612349767
:10366400802204F6D0E014C0E07F00123497E55BBA
:10367400600712348E155B800B30360312348ED003
:10368400E00234E8D0E00480C51237F060A0E55BC6
:10369400041217487858EAF6E55B20360260010404
:0536A400240412380DA2
:1036A90074FF04C0E0123897123497E55B203602A4
:1036B900600312348ED0E0B55BE87F451234A178FF
:1036C90058E67F2B30E7047F2DF404C0E01234AFB5
:1036D900D0E075F00A84C0F0123498D0E012349822
:1036E9000234E8791080027908C237C2398008D2D9
:1036F900D5790A8004790AC2D5E55B047002F55BC5
:10370900E4FAFDFEFF123474FC7B082032131234F4
:1037190074FD7B1030310A123474FE123474FF7B4D
:1037290020EC3382D592D55013C3E43031069FFF84
:10373900E49EFEE42032039DFDE49CFCE4CBF8C248
:1037490032EC700CCFCECDCCE824F8F870F38017AA
:10375900C3EF33FFEE33FEED33FDEC33FCEB33FB0C
:10376900994002FB0FD8E9EB303205F8D0E0C448A4
:10377900B232C0E00AEC4D4E4F78207B0070C2EAAD
:10378900B55B0040BCC0E012380FD0F0D0E0203269
:1037990004C4C0E0C4B232C0F0123498D0F0D5F0FD
:1037A900EB0234E8121D7635855336EC5835564C04
:1037B90035524236F04F36F84436F849356B4336C0
:1037C900FE55362F46368D4535F94738C450355A9A
:1037D9002D355E2E35812B356223357F2038AD2A74
