:0C5E7800245265763A2039313120240094
:1038CF00E47880F6125E3575840F75E105E4F5E254
:1038DF0075E34075A508F58475B7B075840F758AC3
:1038EF0083F597438901758D01758F01758E04F5E9
:1038FF0042F5430543E54370020542640F454270AC
:10390F00F2438902E4F542F543AE42AF43E4FCFDD6
:10391F007B507AC3F9F8D3121BE1400FE58920E4FD
:10392F000A0543E54370E2054280DE759702125D9A
:10393F0018E4F542F5437D01AF43125C610543E5A1
:10394F004370020542C39401E542940040E8E4F558
:10395F0020C23CC23AC240C23FC23E7880F6C28506
:10396F0008F6789EF618F678A3F6F542F543744DEF
:10397F002543F582E43405F583E4F00543E5437010
:10398F000205426440454270E5E4F542F543748D0B
:10399F002543F582E43405F583E4F00543E54370F0
:1039AF000205426440454270E5E4F584E5EF20E10D
:1039BF000CE5EF5408D394004003D38001C3920366
:1039CF007D08E4FF125C0FE478A2F6789BF6AB71EA
:1039DF00AA72A973789BE6FF75F010A4F58285F0A3
:1039EF008312195EFE78A226F6EE6005789B06809C
:1039FF00DDEFD394004030AB71AA72A97390000D24
:103A0F00121D32121945FF745512198B1219456484
:103A1F00556002D23E74AA12198B12194564AA601E
:103A2F0002D23EEF12198BE4F584E5EF5402D394E2
:103A3F000040047F018002E4FF124BB68F41E54145
:103A4F0020E035C23B74FFF508F509F50AF50B7E4A
:103A5F00007F107D007B007A00790E121D8875475C
:103A6F00FF75481E7549B6754A00754B107B007A75
:103A7F0000790E1256EF8002D23B905E7FE493FFE7
:103A8F003395E0FEEF24D0FFEE34FFFE7C007D6423
:103A9F001219BFAA06AB07905E7EE493FF3395E041
:103AAF00FEEF24D0FFEE34FFFE7C037DE81219BF3A
:103ABF00EF2BFBEE3AFA905E80E493FF3395E0FE36
:103ACF00EF24D0FFEE34FFFE7C007D0A1219BFEF0A
:103ADF002BFFEE3AFEA3E493FD3395E0FCED24D0EB
:103AEF00FDEC34FFCD2FF50DED3EF50CE54130E14A
:103AFF0003023BB1E4F542F543E543C4F8540FC864
:103B0F0068FFE542C454F048FEAB71AA72A9738FE7
:103B1F0082F58312195E7003023BA8E92FF9EA3E82
:103B2F00FA90000412195E20E264E4F540E540C308
:103B3F00788F965059E543C4F8540FC868FFE54293
:103B4F00C454F048AB71AA72A9738F82F58312190E
:103B5F005EFF7E00C006C0077D00E543C4F8540F2A
:103B6F00C868FFE542C454F048FEE92FF9EA3EFA6F
:103B7F0090000D121D3278A2E68540F0A429F9EAD3
:103B8F0035F0FAD007D006121D880540809F0543F7
:103B9F00E54370020542023B087F01122FBAC23D76
:103BAF008007E4FF122FBAD23DE4F542F5437A00C5
:103BBF007B967D03AF4312534B0543E543700205DC
:0A3BCF0042C39401E542940040E473
:013BD90022C9
:030023000244C4D0
:1044C400C0E0C0F0C083C082C0D075D000C000C0BE
:1044D40001C002C003C004C005C006C00730993E35
:1044E400C299789E06799EE77881667015F6789E63
:0144F400F6D1
:0D44F50075290A752A1300D52AFCD529F671
:04450200C285801CD2
:0D450600752914752A1300D52AFCD529F655
:10451300789EE6248DF582E43405F583E0F5992051
:1045230098030245BC209A08203C05C2980245B86E
:10453300C29A789DE606244DF582E43405F583E5B9
:1045430099F0C298E6FFB4011290054DE0FE7003A6
:10455300F68066EE5407240278A4F6EFB4020D78D1
:10456300A4E6B4090790054EE02403F6789DE6FF20
:10457300B4400476008042EFC378A496403B789D14
:10458300E624FFFDE434FFFC7B017A05794D1251EB
:10459300C6789DE6244CF582E43405F583E06F602C
:0545A300047600801405
:0D45A800752914752A1300D52AFCD529F6B3
:1045B50012281C789D7600D007D006D005D004D0EF
:1045C50003D002D001D000D0D0D082D083D0F0D09B
:0245D500E032D2
:1052D00090054EE075F010A4AB712573F9E57235B9
:1052E000F0FA90000D121D3278A3E6FF18E68FF059
:1052F000A4252DF582E435F0F58312195EFF7B00BD
:045300007A00792B8B
:105304008F3A8B3B8A3C893DE4F584EA494B601C27
:10531400AB3BAA3CA93D121945FFE53AFD7C0012BE
:0C5324000003AB3BAA3CA93DEF12198B23
:0D533000753E14753F1300D53FFCD53EF6C9
:0E533D00853A997F01125C383099FDC29922A1
:095D9300E4F5847881EFF6D28575
:0D5D9C00753A14753B1300D53BFCD53AF663
:075DA90090058DE0F5992241
:10582C00C9EFC9E964017028EDC39B4034788FE659
:10583C00FFEB2FFFE433FEEDC39FEE6480F8748022
:10584C0098501ED23CC3ED9B78A3F6789F7601222C
:10585C00B90214ED6B700AD23C78A3F6789F7602ED
:08586C0022C23CE4789FF62201
:1055D800C9EFC9BAFF15BBFF12ED6B7002EC6A7018
:1055E80049D23C78A3F6789FE9F622E96401702550
:1055F800C3ED9BEC9A401C788FE62BFFE43AFEC380
:10560800ED9FEC9E500DD23CC3ED9B78A3F6789F9E
:105618007601228015B90218ED6B7002EC6A700AE7
:10562800D23C78A3F6789F760222C23CE4789FF6B3
:01563800224F
:10281C0090054DE0FF54F8F52CE4F584EF121D62A1
:10282C0028690928750A288510288E11289E1228D7
:10283C00B21928C71A28E92028F2282991292A93A5
:10284C00332AC5372AF4392B0E412B19492B235027
:10285C002B6B612A5D702B639800002B9B90054EAF
:10286C00E0FDE509FB7F01802390054EE0FCA3E031
:10287C00FDAB09AA087F018027D23C789F76030222
:10288C002B9B90054EE0FDE50BFB7F0212582C02B2
:10289C002B9B90054EE0FCA3E0FDAB0BAA0A7F023C
:1028AC001255D8022B9B90054EE0FDE509FB7F01EC
:1028BC0012582C203C03022B9B801790054EE0FCF9
:1028CC00A3E0FDAB09AA087F011255D8203C0302F6
:1028DC002B9B90058D7478F07F01022B98E4F58486
:1028EC0075EF12022B9BC2ACE4F52BD285FB7A0060
:1028FC00792B7F7F1253047B007A00792B7F18127F
:10290C0053047B007A00792B7F05125304789BE6E5
:10291C001252FD7B007A00792BAF081253047B0016
:10292C007A00792BAF091253047B007A00792BAF14
:10293C000A1253047B007A00792BAF0B1253047BE1
:10294C00007A00792BAF0C1253047B007A00792BA0
:10295C00AF0D125304E4F52D740E252DF8E612522A
:10296C00FD052DE52DC3941040EE7B007A00790017
:05297C00AF2B12530413
:0D29810075380A75391300D539FCD538F6C4
:10298E00022A4890054EE0FFC3789B964003022A28
:10299E004FEF75F010A42573F9E57235F08571359A
:1029AE00F5368937C2ACE4F52BD285FB7A00792B4C
:1029BE007F7F1253047B007A00792B7F0D12530414
:1029CE00AB35AA36A9371219451252FDAB35AA36C8
:1029DE00A9379000011252FAAB35AA36A9379000EA
:1029EE00021252FAAB35AA36A9379000031252FAE8
:1029FE00AB35AA36A9379000041252FAE4F52DAB86
:102A0E0035E5372405F9E43536FA7E00E9252DF94A
:102A1E00EE3AFA1219451252FD052DE52DC3940812
:0D2A2E0040DD7B007A007900AF2B125304CD
:0D2A3B0075380A75391300D539FCD538F609
:102A4800C285D2AC022B9B90058D7478F0E4A3F07C
:102A58007F02022B98125E5E7890121CCD90058D35
:102A6800747CF07890E6A3F008E6A3F008E6A3F0FB
:102A780008E6A3F07C007D057B017A05798D12516B
:102A8800C6900592EFF07F06022B9890054EE0FF66
:102A9800B4010BA3E0F508A3E0F509022B63EFB43A
:102AA800020990054FE0F508022B6390054EE0B44B
:102AB8000308A3E0F50AA3E0F50B022B63E4F52D68
:102AC80090054EE0FFE52DC39F501C744F252DF552
:102AD80082E43405F583E0FF740E252DF8C6EFC6B1
:102AE800052DE52DB410D9E4F51D806F7A007B32F1
:102AF8007D0178A3E6FF12534B90054EE0FDE4FFFD
:102B0800125C0F022B9B90054EE024FF9202022BD1
:102B18009B90054EE024FF9201807878A3E660053B
:102B2800752F02800B203F05752F038003752F0139
:102B380090058D7479F0A3E52FF07C007D027B0170
:102B48007A05798D1251C690058FEFF07F03125DDB
:102B580093E52F6401703CD2408002D23A788076A7
:102B6800F180307A007B327D017F0012534B900553
:102B78008D7479F090054EE090058EF07C007D0212
:102B88007B017A05798D1251C690058FEFF07F038E
:102B9800125D93E52C64A06003022DAA90054DE018
:102BA80064A16003022C9AA3E0C3789B96400302B9
:102BB8002C8FAB71AA72A973E0FF75F010A4F5828F
:102BC80085F08312195EF52FEF75F010A429F9EA44
:102BD80035F0FA90000412195E30E23790054EE0A5
:102BE800125EBB8F2F90058D747FF0A3E52FF02424
:102BF80002FDE433FC7B017A05798D1251C6748F8E
:102C0800252FF582E43405F583EFF0E52F2403FF43
:102C1800022DA790054EE0FF125EBBC2ACE4F52B77
:102C2800D285E52FD39406402B7B007A00792B7F41
:102C38007F1253047B007A00792BAF2F125304E4E0
:102C4800F52DE52DC3952F50071252D0052D80F292
:102C5800052F8018E52F24781252FDE4F52DE52D77
:102C6800C3952F50071252D0052D80F27B007A00B1
:072C78007900AF2B12530499
:0D2C7F0075380A75391300D539FCD538F6C3
:102C8C00022D9990058D7478F07F01022DA7900587
:102C9C004DE064A26003022DAA789BE6FFA3E0FE40
:102CAC00C39F4003022D9FA3E0FDC39F4003022D51
:102CBC009FEE9D4003022D9F90054EE0F52DE4F50F
:102CCC0033F53490054FE0FFE52DD39F5026AF2D03
:102CDC00125EBBAB71AA72A97375F010E52DA4F549
:102CEC008285F08312195E2534F534E43533F533DF
:102CFC00052D80CFC2ACE4F52BD285FB7A00792B65
:102D0C007F7F125304C3E5349480E5339400500262
:102D1C008007E53344801252FDAF341252FE900509
:102D2C004EE0F52D90054FE0FFE52DD39F5046E486
:102D3C00F52EAB71AA72A97375F010E52DA4F5826E
:102D4C0085F08312195EFFE52EC39F5024E52D7587
:102D5C00F010A429F9EA35F0FA90000D121D327822
:102D6C00A3E6FF18E68FF0A4252E1252F3052E8051
:102D7C00C1052D80AF7B007A007900AF2B12530474
:0D2D8C0075380A75391300D539FCD538F6B5
:102D9900C285D2AC800B90058D7478F07F01125DED
:102DA90093E52C6458704DFA7B327D0178A3E6FFD8
:102DB90012534B753D01753E05753F8E7B017A05B2
:102DC900794E125B388F2FE52F247890058DF0EF1F
:102DD9002401FDE433FC7B017A05798D1251C67417
:102DE9008E252FF582E43405F583EFF0E52F2402D3
:102DF900FF125D93E52C64806009E52C648860030B
:102E0900022FB9789FE6B4010F7A007B327D0178F1
:102E1900A3E6FF12534B801AE4F52DE52DC3788FF5
:102E290096500F7A007B327D01AF2D12534B052D41
:102E390080E990054DE05407F52FB4070A752E0176
:102E4900A3E0F52FA38006E4F52E90054EE0F530BA
:102E5900152FE530C3789B964003022F8DAB71AADD
:102E690072A97375F010E530A4F58285F083121903
:102E79005EFFE52FD39F40028F2F789FE6B40109AB
:102E890078A3E6F532F5318009E4F531788FE61457
:102E9900F53278A3A63178A3E6D395324003022F01
:102EA90081E4F52DE52DC3952F4003022F76E530FA
:102EB90075F010A4AB712573F9E57235F0FA90003D
:102EC9000412195E30E203022F7190000112195E9B
:102ED90064387041E52FD394044011E52E252D2443
:102EE9004FF582E43405F583E0FD805E789DE6C305
:102EF900952DFFE49400FE744B2FF58274053EF581
:102F090083E0FDE53075F010A4AB712573F9E57226
:102F190035F0FA8035AB71AA72A97375F010E530F6
:102F2900A4F58285F08312195EFFC3789DE69F257B
:102F39002D252E244CF582E43405F583E0FDE5309A
:102F490075F010A429F9EA35F0FA90000D121D3236
:102F590078A3E6FF18E68FF0A4FFE52D2FF582E4AC
:102F690035F0F583ED12199D052D022EADAF301206
:102F79004EA378A306022E9F78A3A631E52C648878
:102F8900702E8010E530B4FF2790054FE0F520E55D
:102F99002CB4881C90058D7478F0789DE6244CF546
:102FA90082E43405F583E090058EF07F02125D938B
:012FB90022F5
:10D000007880E664F1600302D60CE4F554F55578B7
:04D0100081E6601F36
:0DD01400755A0A755B1300D55BFCD55AF602
:10D021000555E5557002055464107004E5546427F4
:10D0310070DCC2AF7584015398FC75FFDE75FFADDE
:10D04100E4F550F54FE4F58420982EE4F554F555B8
:0ED05100209822C3E5559488E5549413501797
:0DD05F00755A0A755B1300D55BFCD55AF6B7
:10D06C000555E55570DF055480DBB2A780CF859957
:10D07C004FC298E54F641A600302D14CF554F55534
:0ED08C00209822C3E5559488E554941350175C
:0DD09A00755A0A755B1300D55BFCD55AF67C
:10D0A7000555E55570DF055480DB3098928599501A
:10D0B700C298E4F554F555209822C3E5559488E5C0
:05D0C700549413501702
:0DD0CC00755A0A755B1300D55BFCD55AF64A
:10D0D9000555E55570DF055480DB20980302D046DD
:10D0E900859950C298E4F554F555209822C3E55521
:08D0F9009488E55494135017CC
:0DD10100755A0A755B1300D55BFCD55AF614
:10D10E000555E55570DF055480DB20980302D046A7
:09D11E00859950C298D285C2998E
:0DD12700755A14755B1300D55BFCD55AF6E4
:06D134007599783099FDA9
:0DD13A00755A0A755B1300D55BFCD55AF6DB
:10D14700C28502D5FEE54F6450600302D1DCF55479
:10D15700F555209822C3E5559488E5549413501744
:0DD16700755A0A755B1300D55BFCD55AF6AE
:10D174000555E55570DF055480DB20980302D04641
:09D18400859950C298D285C29928
:0DD18D00755A14755B1300D55BFCD55AF67E
:08D19A007599793099FDC299E5
:0DD1A200755A14755B1300D55BFCD55AF669
:08D1AF007599013099FDC29948
:0DD1B700755A14755B1300D55BFCD55AF654
:06D1C400E4F5993099FD2D
:0DD1CA00755A0A755B1300D55BFCD55AF64B
:0FD1D700C28502D5FEE54F6401703ED285C29934
:0DD1E600755A14755B1300D55BFCD55AF625
:08D1F3007599783099FDC2998D
:0DD1FB00755A14755B1300D55BFCD55AF610
:06D20800E4F5993099FDE8
:0DD20E00755A0A755B1300D55BFCD55AF606
:10D21B00C28502D5FEE54F6402600302D2E2F554EB
:10D22B00F555209822C3E5559488E554941350176F
:0DD23B00755A0A755B1300D55BFCD55AF6D9
:10D248000555E55570DF055480DB20980302D0466C
:10D25800859950C298E4F551E55013B392A7E5506B
:10D2680025E0FEC3E49400EE94D0502AE5507F00F8
:10D2780025E0FEC394E0501EE55020E01FE4F5844D
:10D2880043B701758F038E568F578F828E83F05365
:10D29800B7F0F58F80037551FFE4F584D285C29904
:0DD2A800755A14755B1300D55BFCD55AF662
:08D2B5007599783099FDC299CA
:0DD2BD00755A14755B1300D55BFCD55AF64D
:06D2CA008551993099FD29
:0DD2D000755A0A755B1300D55BFCD55AF644
:10D2DD00C28502D5FEE54F6403600302D42DF554DB
:10D2ED00F555209822C3E5559488E55494135017AD
:0DD2FD00755A0A755B1300D55BFCD55AF617
:10D30A000555E55570DF055480DB20980302D046A9
:10D31A00859950C298E4F554F555209822C3E555ED
:08D32A009488E5549413501798
:0DD33200755A0A755B1300D55BFCD55AF6E1
:10D33F000555E55570DF055480DB20980302D04674
:10D34F00859952C298E5501392A7E55025E0FEC388
:10D35F00E49400EE94D0400302D046E5507D0025C2
:10D36F00E0FCC394E0400302D046E4F58443B701E8
:10D37F00758F01E55275F020A42DFFE5F03CF556B1
:10D38F008F57E4F584F553E553C394205048E4F5E3
:10D39F0054F555209822C3E5559488E554941350BD
:01D3AF001766
:0DD3B000755A0A755B1300D55BFCD55AF663
:10D3BD000555E55570DF055480DB20980302D046F6
:10D3CD000557E557AE567002055614F5828E83E566
:10D3DD0099F0C298055380B1E4F58453B7F0F58FF9
:06D3ED00F584D285C2990F
:0DD3F300755A14755B1300D55BFCD55AF616
:08D400007599783099FDC2997D
:0DD40800755A14755B1300D55BFCD55AF600
:06D41500E4F5993099FDD9
:0DD41B00755A0A755B1300D55BFCD55AF6F7
:10D42800C28502D5FEE54F6404600302D4DDF554DD
:10D43800F555209822C3E5559488E5549413501760
:0DD44800755A0A755B1300D55BFCD55AF6CA
:10D455000555E55570DF055480DB20980302D0465D
:10D46500859950C298E55025E0F558755900E4F5C1
:10D4750051F554F5550559E559AE5870020558143E
:10D48500F5828E83E4932551F5510555E5557002D6
:0ED4950005547004E554640270DBD285C29920
:0DD4A300755A14755B1300D55BFCD55AF665
:08D4B0007599783099FDC299CD
:0DD4B800755A14755B1300D55BFCD55AF650
:06D4C5008551993099FD2C
:0DD4CB00755A0A755B1300D55BFCD55AF647
:10D4D800C28502D5FEE54F6405600302D5F3F55415
:10D4E800F555209822C3E5559488E55494135017B0
:0DD4F800755A0A755B1300D55BFCD55AF61A
:10D505000555E55570DF055480DB20980302D046AC
:10D51500859950C298E4F554F555209822C3E555F0
:08D525009488E554941350179B
:0DD52D00755A0A755B1300D55BFCD55AF6E4
:10D53A000555E55570DF055480DB20980302D04677
:09D54A00859952C298D285C2995C
:0DD55300755A14755B1300D55BFCD55AF6B4
:08D5600075997F3099FDC29915
:0DD56800755A14755B1300D55BFCD55AF69F
:10D575007599203099FDE55025E0FCE55275F020C0
:10D58500A42400FFE5F03CF5588F59E4F551F55317
:02D59500C29939
:0DD59700755A14755B1300D55BFCD55AF670
:10D5A400855982855883E493F5993099FD0559E5A9
:10D5B40059AE587002055814F5828E83E4932551B0
:0BD5C400F5510553E553B420C8C2998F
:0DD5CF00755A14755B1300D55BFCD55AF638
:06D5DC008551993099FD14
:0DD5E200755A0A755B1300D55BFCD55AF62F
:10D5EF00C285800BE54FB40606E4F58475EF12E5AE
:0DD5FF004F6407600302D0467880F6D2AF7B
:01D60C0022FB
:1054A3007F00125C38203B0B7A007B327D017F004A
:1054B30012534B303E0B7A007B1E7D017F0012534B
:1054C3004B303A17303F147A007B327D0178A3E6E4
:1054D300FF12534BC23A124F52D23B203D0C303F86
:1054E30009788076F1124F52D23D304008303F05A3
:1054F300C24012D000203F12125E51E47B2C7A018D
:0B550300F9F8C3121BF75002D23F2240
:0B5E90001238CF1254A312007680F8E5
:065E9B00E4F584D2A4220C
:10000E00E4F5847F32FE125699D2A37F327E00121F
:05001E005699C2A32267
:025BE6008F5AD4
:105BE800E4F584755B07AF5BE55AA807088002C334
:105BF80013D8FC1392A412000E155BC3E55B6480F6
:065C0800948050E2C2A4EA
:015C0E002273
:045B0A008E598F5AC7
:105B0E00E4F584755B0FE55AAE59A85B088005CEA7
:105B1E00C313CE13D8F91392A412000E155BC3E56E
:095B2E005B6480948050DFC2A486
:015B3700224B
:10593E00E4F55AF55BF55CF584755A077F327E0007
:10594E00125699A2A1E433F55BAF5AA8070880025C
:10595E00C333D8FC425CD2A37F327E00125699C26A
:0E596E00A3155AC3E55A6480948050D0AF5CF4
:01597C002208
:1049000000070E091C1B1215383F363124232A2DAF
:1049100070777E796C6B6265484F464154535A5D9F
:10492000E0E7EEE9FCFBF2F5D8DFD6D1C4C3CACD8F
:1049300090979E998C8B8285A8AFA6A1B4B3BABD7F
:10494000C7C0C9CEDBDCD5D2FFF8F1F6E3E4EDEA6F
:10495000B7B0B9BEABACA5A28F88818693949D9A5F
:104960002720292E3B3C35321F18111603040D0A4F
:104970005750595E4B4C45426F68616673747D7A3F
:10498000898E878095929B9CB1B6BFB8ADAAA3A42F
:10499000F9FEF7F0E5E2EBECC1C6CFC8DDDAD3D41F
:1049A000696E676075727B7C51565F584D4A43440F
:1049B000191E171005020B0C21262F283D3A3334FF
:1049C0004E49404752555C5B7671787F6A6D6463EF
:1049D0003E39303722252C2B0601080F1A1D1413DF
:1049E000AEA9A0A7B2B5BCBB9691989F8A8D8483CF
:1049F000DED9D0D7C2C5CCCBE6E1E8EFFAFDF4F3BF
:105A1800151EA81EA605151E151EA81EA60608A654
:105A280007A81E0808E6FFA81EE6FE08E66F240081
:105A3800F58274493EF583E493FF051E051E051E95
:015A4800223B
:03007000025DCB63
:105DCB00EF64014E7004C2918008EF64024E7002C2
:095DDB00C2937F027E00025B917D
:10003E008E568F57E55764014556700CD2917F0C42
:10004E00FE125699C2918012E55764024556701100
:10005E00D2937F0CFE125699C2937F047E001256E5
:02006E009922D5
:1059B4008E568F57E55764014556700CD2917F047B
:1059C400FE125699C2918012E55764024556701131
:1059D400D2937F04FE125699C2937F0C7E00125616
:0259E400992206
:105435008E5F8F60E5606401455F7025D2917F01C5
:10544500FE125699C2917F087E0012569975840204
:10545500E5885440C413135403FFBF0102802B8019
:1054650033E5606402455F7034D2937F01FE1256C6
:1054750099C2937F087E00125699758401E5885478
:1054850040C413135403FFBF010A7F087E00125660
:0E549500997F01227F087E001256997F002227
:065576008F538C548D558B
:10557C00E490061EF0A3F0A3F090061FF0A37407AE
:10558C00F090061FE0FEA3E0FFC3EE648094804021
:10559C003AE553A807088002C313D8FC54019006BF
:1055AC001EF07009AF55AE541259B4800E90061E01
:1055BC00E0B40117AF55AE5412003E900620E02423
:0B55CC00FFF090061FE034FFF080B6F7
:0155D70022B1
:045874008E5D8F5E58
:10587800E4900620F0A3F0A3F07407F0AF5EAE5DED
:10588800125435900620EFF0A3E0FFA3E0FE900647
:1058980020E0FDA806088002C333D8FC4F900621FB
:1058A800F0A3E014F0E0C36480948050CF90062108
:0258B800E0FF0F
:0158BA0022CB
:1047F600005EBCE2613FDD83C29C7E20A3FD1F41BB
:104806009DC3217FFCA2401E5F01E3BD3E6082DCAA
:10481600237D9FC1421CFEA0E1BF5D0380DE3C629A
:10482600BEE0025CDF81633D7C22C09E1D43A1FF8A
:104836004618FAA427799BC584DA3866E5BB59077A
:10484600DB856739BAE406581947A5FB7826C49A6A
:10485600653BD987045AB8E6A7F91B45C6987A245A
:10486600F8A6441A99C7257B3A6486D85B05E7B94A
:104876008CD2306EEDB3510F4E10F2AC2F7193CD3A
:10488600114FADF3702ECC92D38D6F31B2EC0E502A
:10489600AFF1134DCE90722C6D33D18F0C52B0EE1A
:1048A600326C8ED0530DEFB1F0AE4C1291CF2D730A
:1048B600CA947628ABF517490856B4EA6937D58BFA
:1048C6005709EBB536688AD495CB2977F4AA4816EA
:1048D600E9B7550B88D6346A2B7597C94A14F6A8DA
:1048E600742AC896154BA9F7B6E80A54D7896B35CA
:0A48F600000000002B6096CBDDEE01
:033BDA0001660A77
:1051C600151E151EA81EECF608EDF6151E151E1565
:1051D6001EA81EC6EBC608C6EAC608C6E9C6E51E70
:0451E60024FCF51E92
:1051EA00F80808E4F6A81EF608F6E51E2407F9A84A
:1051FA001EE6FE08E6FFC3099719E76480F8EE6425
:10520A0080985037E51E2404F8CBE6CB08E6FA0866
:10521A00E6F98F828E8312195EA81E080866FFE5DA
:10522A001E2403F8EFF6E69047F693A81E0808F640
:10523A00A81E0806E61870B20680AFA81E0808E67F
:01524A00FF64
:07524B00E51E2409F51E22F7
:07000300ED6F9047F693FF3B
:01000A0022D3
:105C0F00EF7023F5847598D0F584759115F584752B
:105C1F00C90875CBFFED9048F593F5CA75C804E434
:085C2F00F584D2ACC2BCD2AF77
:015C3700224A
:1058BB00E4F56CF56BF56AF569F570F56FF56EF55A
:1058CB006D756564FFEF25E025E024A5F8E4F6EFA0
:1058DB0025E025E024A6F8E4F6EF25E025E024A753
:1058EB00F8E4F6EF25E025E024A8F8E4F60FBF0175
:0158FB00D4D8
:0158FC002289
:105D1800D2AFD2A9C2BBE4F584E589540F4401F59A
:0F5D280089758E02758CAFE4F58AD28C0258BB58
:024FF500151E87
:104FF700A81EE4F6A81EE6FFC39401400302508FE3
:10500700EF25E025E024A8F8E6FFD394004052A856
:105017001EE625E025E024A6F8E67045EF30E0150A
:10502700A81EE6FF25E025E024A8F8E6D394014072
:10503700047D0080067D01A81EE6FF1258FDA81E0C
:10504700E6FF25E025E024A8F816E66014EF25E042
:1050570025E024A7F8E6FEEF25E025E024A6F8EEF4
:10506700F6A81EE625E025E024A6F8E6600116A8C6
:105077001EE6FF25E025E024A8F8E670057D01126D
:0850870058FDA81E06024FFBB4
:03508F00051E22D9
:03000B000252524C
:10525200C0E0C0F0C083C082C0D0E8C0E0E9C0E0D6
:10526200EAC0E0EBC0E0ECC0E0EDC0E0EEC0E0EF91
:10527200C0E0758CAFE56C2401F56CE4356BF56B21
:10528200E4356AF56AE43569F569D56518E570248F
:1052920001F570E4356FF56FE4356EF56EE4356D4A
:1052A200F56D756564124FF5125CF8D0E0FFD0E041
:1052B200FED0E0FDD0E0FCD0E0FBD0E0FAD0E0F997
:0E52C200D0E0F8D0D0D082D083D0F0D0E0324F
:105C6100151EA81EEDF6151EA81EEFF6A81EE6FFCE
:105C7100C39401500D08E6FEEF25E025E024A5F8C8
:075C8100EEF6051E051E22D0
:10534B00151E151EA81EEAF608EBF6151EA81EED77
:10535B00F6151EA81EEFF6A81EE6FFC394015052C9
:10536B00EF25E025E024A8F8E67047A81EE6FB250C
:10537B00E025E024A6F8E67039A81E08E625E0042F
:10538B00FFA81EE6FA25E025E024A8F8EFF6A81EF4
:10539B000808E6FE08E6FF7C007D0A1219D1EA2513
:1053AB00E025E024A7F8EFF6EB25E025E024A6F8AE
:0953BB00E4F6E51E2404F51E22AF
:1058FD00151EA81EEDF6151EA81EEFF6A81EE6FF36
:10590D00C39401501CEF25E025E024A5F8E66011B5
:10591D00A81E08E670047F0180027F00A81E08EF14
:10592D00F6A81EE6700608E624FF92A7051E051EC2
:01593D002247
:0C5E5100C2AFAF6CAE6BAD6AAC69D2AFF3
:015E5D002222
:0C5E5E00C2AFAF70AE6FAD6EAC6DD2AFD6
:015E6A002215
:105C3800151EA81EEFF6A81EE67004F567F5683075
:105C48004414E56675F064A4FFC3E5689FE56795AD
:095C5800F0500375FFA5051E22A2
:105D7500D244E4F567F568EF6004F566800375665F
:0E5D85000A75FF0775FFA5E4F58475EF062289
:0E5E3500C244E4F567F56875FFDE75FFAD2227
:105CF8000568E56870020567304414E56675F06468
:105D0800A4FFC3E5689FE56795F0500375FFA522DA
:045B91008E458F4668
:105B9500E4F547F548C3E5489546E547954550166C
:105BA5007FE87E031256997F01125C380548E54867
:065BB50070E3054780DFEC
:015BBB0022C7
:045699008E618F622D
:10569D00D3E56294FAE5619400500EEFD394004087
:1056AD00407E1600DEFD1F80F2856163856264D346
:1056BD00E56494FAE563940040157FFA7E00125676
:1056CD009974062564F56474FF3563F56380E0D342
:1056DD00E5629400E56194004007AF64AE63125635
:0156ED009923
:0156EE002299
:10550E00754F007550007551497B007A0079477DC3
:01551E00028A
:08551F008B4B8A4C894D8D4E27
:105527007F01125C38AB4FAA50A951121A07240009
:10553700FFE5F034E0FE854B52854C53854D54E42E
:10554700FDEDC3954E501BEF2DF582E43EF583E448
:1055570093AB52AA53A9548D8275830012199D0DDE
:0F55670080DFAB4FAA50A951E4854EF0021A32F3
:104D3900755112755234755900755A00755B537B5C
:074D4900007A0079517D02A0
:084D50008B558A5689578D58D6
:104D58007880E664F16003024DF0125E35C2AFE47C
:104D6800F58475EF0643B701758F01AB59AA5AA9A7
:104D78005B121A072400FFE5F034E07894F608EF98
:104D8800F6AA56A9577898A65508C6EAC608C6E9E5
:104D9800C6E47896F67896E6C3955850327898CB5C
:104DA800E6CB080806E618CAE6CA70010614F91226
:104DB80019457897F6E6FF78940806E618CCE6CC0D
:104DC80070010614F5828C83EFF078960680C6E4AD
:104DD800F58F53B7F0AB59AA5AA95B8558F0121A48
:084DE80032D2AFE4FF125D7549
:014DF00022A0
:105741007880E664F17049C2AF125E35E4F5847584
:10575100EF0643B701758F03789576E008F67894E4
:10576100F67895E6FE08E6F5828E83E4F07F011275
:105771005C387896E426F618740236F61806E6C305
:10578100940840DDE4F58F53B7F0D2AFFF125D7599
:0157910022F5
:104F5200125741E4F553F554F559755A00755B53F0
:104F6200FB7A0079087D16124D50124D39E4F55046
:104F7200E550C3788F965073E4F54FAB71AA72A9CE
:104F82007375F010E54FA4F58285F08312195E6007
:104F920056E54F75F010A429F9EA35F0FA90000DA4
:104FA200121D3278A2E68550F0A429F9EA35F0FA0A
:104FB200EBC0E0EAC0E0E9C0E0AB71AA72A9737588
:104FC200F010E54FA4F58285F08312195EFD755944
:104FD20000755A00755B53D0E0F9D0E0FAD0E0FBDF
:104FE200124D50054F809405508085124D39E4785A
:024FF20080F647
:014FF400229A
:034BB600CCEFCC75
:104BB900E4F549F54AF546F54F755000755149FB3D
:104BC9007A0079087D1612551F12550EE54864348E
:104BD9007004E54764127003434601EC7003024C0C
:104BE90079E4F545E545C3788F965073E4F544AB10
:104BF90071AA72A97375F010E544A4F58285F08352
:104C090012195E6056E54475F010A429F9EA35F0E9
:104C1900FA90000D121D3278A2E68545F0A429F913
:104C2900EA35F0FAEBC0E0EAC0E0E9C0E0AB71AA0E
:104C390072A97375F010E544A4F58285F083121901
:104C49005EFD754F00755000755149D0E0F9D0E00F
:104C5900FAD0E0FB12551F05448094054580851262
:104C6900550EE54864347004E54764127005800008
:054C7900434602AF46B6
:014C7E002213
:1059E600BF011C75840F43A41075E10D75E340E4F7
:1059F600F58475D902F5FB75DA4675FC0A800FBF8A
:105A06000206E4F584F5D822BF0306E4F58475D8CA
:025A160040222C
:055EA700E4FF025A7A3D
:025B65008F456A
:105B67008D468B477F00125C38125EC0AF45125ED0
:105B7700A17B007A0079467D0212597D7B007A006D
:0A5B87007900E4FD125E84025CAFB9
:105AAB008F428D438B448A4589467F00125C3812A6
:105ABB005EC0AF42125EA17B007A0079437D01127A
:105ACB00597DAB44AA45A946AD47125E84025CAF33
:1053C400E490061CF0121945FF30E00790061CE03B
:1053D4004480F0EF30E10790061CE04404F0121919
:1053E4004530E20790061CE04410F0121945FF30E6
:1053F400E30790061CE04401F0EF30E40790061C3C
:10540400E04440F012194530E50790061CE04408DA
:10541400F0121945FF30E60790061CE04420F0EF37
:1054240030E70790061CE04402F090061CE00219E5
:015434008BEC
:0D5E6B00E4F58475E8C075BC8075D1072290
:105A4900E4F584EF540FF5BBE5BC54F84DF5BCE41F
:105A5900F5BAC2AFC2EDD2ECC2EDD2EC20ECFDD268
:105A6900AFE5BF5403FEADBE7C00E42DFFEC3EFE66
:015A7900220A
:035EC40002007069
:063FED008F448D458B4658
:103FF30090061A121CE5000000007D00AF447E000D
:10400300125A18AD07AF467E00125A18AD07AF47D4
:104013007E00125A18AD07AF457E00125A188F5210
:10402300E5466403701BFDAF49FE125A18AD07AF96
:10403300487E00125A18AD07AF527E00125A188FED
:1040430052754F01755114E54F7003024139E55123
:104053007003024139AF4BAE4A1259B4AF4BAE4A6B
:104063001259B4AD4BAC4AAF44125576AF4BAE4A7E
:104073001259B4AD4BAC4AAF46125576AD4BAC4A70
:10408300AF47125576E54670028028AD4BAC4AAF78
:1040930045125576E545B4F6028018E5466403708B
:1040A30026AD4BAC4AAF49125576AD4BAC4AAF483F
:1040B300125576854C57854D58854E59AB4BAA4AB8
:1040C3007DFFAF520246E7E54664017064E547644D
:1040D30002705EE54F603C854C57854D58854E59BF
:1040E300AB4BAA4AE4FDAF521246E78F50E550703E
:1040F3002290061AE0FCA3E0FDA3E0FEA3E0FFABE1
:104103004CAA4DA94E121CAD12133A90061A121C5A
:10411300D9154FE54F701A90061AE0FCA3E0FDA3F2
:10412300E0FEA3E0FFAB4CAA4DA94E121C4F7F004B
:0841330022155102404AAF5071
:01413B002261
:0846E7008F538D548A558B5648
:1046EF00E4F55CAF56AE55125874E5536F60037F17
:1046FF00FF22EFF4B553037FFD22E554B4FF037F90
:10470F000122E55460030247F3AF56AE55125874B9
:10471F008F5AAF56AE551258748F5BAF56AE5512B7
:10472F0058748F5C7D00AF5A7E00125A18AD07AFD8
:10473F005B7E00125A18EF655C60037FFE22E55B1B
:10474F0030E709635BFFE55AF404F55AE55BFE7C3D
:10475F0000E4255AFFEC3EFE90061EF0A3EFF0FD9D
:10476F00AC06EC12164FE4FBFA798078421215343E
:10477F00AB57AA58A959121C4FAB57AA58A959C0E1
:10478F0003C002C001121C2F7BCC7A5D795B783F8E
:10479F00121336D001D002D003121C4FAB57AA58B8
:1047AF00A959121C2FE4FBFA79C878421215D1408F
:1047BF0017AB57AA58A959121C2FE4FBFA79207886
:1047CF00C11215D1600540037FFA22AB57AA58A931
:1047DF0059121C2F7BCC7A5D795B78BF1215D17083
:0647EF00037FFB227F00A6
:0147F50022A1
:105E1200125E9BD2A6D2A5D2B6D2B5D2B1D2B0D2A0
:045E220087D286227B
:104DF1008B42AC07C2A3E542B40104C286803DE503
:104E010042B40204C2878034E542B40304C2B080D4
:104E11002BE542B40404C2B18022E542B40504C2C8
:104E2100B58019E542B40604C2B68010E542B40764
:104E310004C2A58007E542B40802C2A6ED75F010D0
:104E4100A4FBECC454F045F0FEEBFF125B0A7F01BA
:104E51007E00125699E542B40104D286803DE542B6
:104E6100B40204D2878034E542B40304D2B0802B6B
:104E7100E542B40404D2B18022E542B40504D2B5BE
:104E81008019E542B40604D2B68010E542B40704A5
:104E9100D2A58007E542B40802D2A67F017E0002B6
:024EA100569920
:055EAC00E4FF025A7A38
:025ADB008F42F8
:105ADD008D43EBF5448A457F00125C38125EC0AFF2
:105AED0042125EA17B007A0079437D0312597D7BC2
:0D5AFD00007A007900E4FD125E84025CAFC7
:035EC700D2942250
:105DB0008A428B43C2A3C294EFC454F04DFF125BDE
:0B5DC000E6AF43AE42125B0AD2942211
:033BDD000179006B
:035ECA00D242229F
:065EA100900626EFF0223E
:06597D008B4D8A4E894F9C
:10598300E4FFEFC39D5024EFC39408501EAB4DAA10
:105993004EA94F8F8275830012195EFE74282FF56E
:1059A30082E43406F583EEF00F80D7900630EFF0F3
:0159B30022D1
:0C5E84008B7C8A7D897E900627EDF02241
:045EC0002041FD225E
:105DE400757C00757D00757E00E4900627F09006B2
:075DF40030F0C241C242225F
:105CAF00900630E0D394004004C243800B90062747
:105CBF00E0D39400400FD243D241E4F584D2C51211
:065CCF005EC0125DE4223C
:105A7A00E5796003EF6029757901758401E4F5C859
:105A8A00F5C9F5CAF5CBF5CCF5CD75C804F584751D
:105A9A00C04343F60243E60243E701D2AF125DE494
:015AAA0022D9
:03003B0002413C43
:10413C00C0E0C083C082C0D075D000C000C001C038
:05414C0002C003C007E2
:10415100C230AFC1EF121D62417B08418110419411
:104161001841A62041B02841E73041EB4041FA48CF
:104171004207504235580000424E757A00757B0067
:10418100900626E025E0FFA243E4334FF5C2C2C505
:10419100024250900630E0FFE57BC39F5002801A37
:1041A100D2300242503042028052D230024250900C
:1041B1000630E0FFE57BC39F5014AF7B057B74287D
:1041C1002FF582E43406F583E0F5C20242509006F1
:1041D10027E0FFE57AC39F5008D243C2C4D2C5800D
:1041E1006E30416B8061D2C48065900627E0B401D6
:1041F10004C2C2805AD2C28056304206D2C4D2C54D
:10420100804DD2308049900627E0FF14B57A04C270
:10421100C28002D2C2E57AC39F5015AB7CAA7DA9A8
:104221007E857A82758300E5C212199D057A801F09
:10423100D230801BAB7CAA7DA97E857A82758300F2
:10424100E5C212199D057AD2C4C2418002D2303032
:10425100301053C0BF43C040C2C5C2C4C2C2C24174
:04426100C230C2C3E2
:10426500D007D003D002D001D000D0D0D082D083E7
:03427500D0E03264
:03007300025D37F4
:105D3700C0E0C083C08275840053C0BF43C04075B4
:0F5D4700840153C87F125DE4D082D083D0E03254
:055EB100D2B7025E9B68
:0C5639008E448F458C468D478A488B4973
:10564500E4F54AF54BD2A0125BBCBF03037F0322EE
:10565500C2B77F03125BE6AF45AE44125B0AC3E5F2
:105665004B9549E54A9548501D12593E8547828517
:105675004683EFF00547E54770020546054BE54BC8
:1056850070DC054A80D87F197E00125699D2B7C2C0
:03569500A07F01F2
:0156980022EF
:044A00008E428F4310
:104A0400755500755620121A0785F057F558E54379
:104A14002548E5423547C3940640037F0222D2A0CD
:104A2400E548AE477805CEC313CE13D8F9F5548EB6
:104A340053E4F54DF54ED3E54E9554E54D9553406D
:104A440003024ADCE54EAE4D7805C333CE33CED8EF
:104A5400F92543F552E5423EF551E54EB5540EE5D0
:104A64004DB55309755500E548541FF556125BBC06
:104A7400C2B77F02125BE6AF52AE51125B0AE4F595
:104A84004FF550C3E5509556E54F95555029E549E6
:104A9400B40115855882855783E0FF125BE60558FB
:104AA400E558700905578005E4FF125BE60550E5FB
:104AB4005070D0054F80CC7F197E00125699D2B722
:104AC4007F197E00125699125E43054EE54E60032F
:0C4AD400024A3A054D024A3AC2A07F0196
:014AE00022B3
:105BBC00C2B77F197E001256997F06125BE67F19D9
:105BCC007E00125699D2B77F197E00125699125E3A
:0A5BDC0043BF03037F03227F012271
:105D5600C2B77F05125BE612593E8F597F197E0046
:0E5D6600125699D2B77F197E00125699AF5986
:015D7400220C
:0D5E4300125D56EF547160037F03227F0152
:015E5000222F
:055EB600E4FF025A7A2E
:065792008F428D438B44A1
:105798007F00125C38E543C31344B090061AF0E565
:1057A8004330E004E04408F0E544448090061BF0F0
:1057B8007F00125C38125EC0AF42125EA17B017A94
:1057C80006791A7D0212597D7B007A007900E4FD82
:0957D800125E84125ECA025CAF8D
:0A4AE1008F428D438B448A458946BD
:104AEB00754801E4F54CF54BF54AF549FF125C3876
:104AFB00E543C31344B090061AF0E54330E004E0FD
:104B0B004408F0E547448090061BF0125EC0AF42AC
:104B1B00125EA17B017A06791A7D0212597D7B0008
:104B2B007A0079497D03125E84125ECA125CAFE48F
:104B3B00FFFEFDE54954C0FCE4FBFAF978C0C31253
:104B4B001BF76011E4FFFEFDE54954C0FCE4F8C31C
:104B5B00121BF77003E4F548E5495480AF4CAE4B9C
:104B6B00AD4AAC49780E7017121C1B8F4C8E4B8DB7
:104B7B004A8C49E54CF54CE54BF54B74FF80141210
:104B8B001C1B8F4C8E4B8D4A8C49E54CF54CE54BE1
:104B9B00F54BE4F54AF549AF4CAE4BAD4AAC49ABDE
:0A4BAB0044AA45A946121C4FAF486A
:014BB50022DD
:101E9C004C61737420547269703A2025362E336667
:101EAC00205B25362E3366202F0046454236340003
:101EBC00043400000053657269616C4E000101E44A
:101ECC0002340000004572726F720000000101E8DC
:101EDC000134000000436F6E74726F6C000101EAF4
:101EEC00013400000053746174757300000101EB40
:101EFC00013400000045455061676500000101ECAC
:101F0C00013400000073774269617300000101ED38
:101F1C000234000000725170756D7000000101EE0A
:101F2C00041800000156426961730000000101F2BF
:101F3C000406FA000149426961730000000101F6D0
:101F4C0004180000017044564D6F6E00000101FA38
:101F5C0004180000017041564D6F6E00000101FE27
:101F6C0004180000016E41564D6F6E000001020214
:101F7C0004060000016E41494D6F6E00000102061F
:101F8C0004060000017041494D6F6E000001020A09
:101F9C0004060000017044494D6F6E000001020EF2
:101FAC000408000001754354656D700000010212B5
:101FBC00040800000161646354656D700001021631
:101FCC00040800000161667454656D700001021A0A
:101FDC00040800000172656754656D700001021EF3
:101FEC000408000001737354656D703000010282A7
:101FFC000408000001737354656D70310001028692
:10200C000408000001737354656D70320001028A7C
:10201C000408000001737354656D70330001028E67
:10202C00040800000154656D7030000000010222AC
:10203C00040800000154656D703100000001022697
:10204C00040800000154656D703200000001022A82
:10205C00040800000154656D703300000001022E6D
:10206C00040800000154656D703400000001023258
:10207C00040800000154656D703500000001023643
:10208C00040800000154656D703600000001023A2E
:10209C00040800000154656D703700000001023E19
:1020AC00041800000156424D6F6E300000010242D0
:1020BC00041800000156424D6F6E310000010246BB
:1020CC00041800000156424D6F6E32000001024AA6
:1020DC00041800000156424D6F6E33000001024E91
:1020EC00041800000156424D6F6E3400000102527C
:1020FC00041800000156424D6F6E35000001025667
:10210C00041800000156424D6F6E36000001025A51
:10211C00041800000156424D6F6E37000001025E3C
:10212C000406FA000149424D6F6E30000001026254
:10213C000406FA000149424D6F6E3100000102663F
:10214C000406FA000149424D6F6E32000001026A2A
:10215C000406FA000149424D6F6E33000001026E15
:10216C000406FA000149424D6F6E34000001027200
:10217C000406FA000149424D6F6E350000010276EB
:10218C000406FA000149424D6F6E36000001027AD6
:10219C000406FA000149424D6F6E37000001027EC1
:1021AC000234000000724173756D30000001029220
:1021BC000234000000724173756D3100000102940D
:1021CC000234000000724173756D320000010296FA
:1021DC000234000000724173756D330000010298E7
:1021EC000234000000724173756D34000001029AD4
:1021FC000234000000724173756D35000001029CC1
:10220C000234000000724173756D36000001029EAD
:10221C000234000000724173756D3700000102A09A
:10222C00013400000872426961733030000102A26F
:10223C00013400000872426961733031000102A35D
:10224C00013400000872426961733032000102A44B
:10225C00013400000872426961733033000102A539
:10226C00013400000872426961733034000102A627
:10227C00013400000872426961733035000102A715
:10228C00013400000872426961733036000102A803
:10229C00013400000872426961733037000102A9F1
:1022AC00013400000872426961733038000102AADF
:1022BC00013400000872426961733039000102ABCD
:1022CC00013400000872426961733130000102ACC4
:1022DC00013400000872426961733131000102ADB2
:1022EC00013400000872426961733132000102AEA0
:1022FC00013400000872426961733133000102AF8E
:10230C00013400000872426961733134000102B07B
:10231C00013400000872426961733135000102B169
:10232C00013400000872426961733136000102B257
:10233C00013400000872426961733137000102B345
:10234C00013400000872426961733138000102B433
:10235C00013400000872426961733139000102B521
:10236C00013400000872426961733230000102B618
:10237C00013400000872426961733231000102B706
:10238C00013400000872426961733232000102B8F4
:10239C00013400000872426961733233000102B9E2
:1023AC00013400000872426961733234000102BAD0
:1023BC00013400000872426961733235000102BBBE
:1023CC00013400000872426961733236000102BCAC
:1023DC00013400000872426961733237000102BD9A
:1023EC00013400000872426961733238000102BE88
:1023FC00013400000872426961733239000102BF76
:10240C00013400000872426961733330000102C06C
:10241C00013400000872426961733331000102C15A
:10242C00013400000872426961733332000102C248
:10243C00013400000872426961733333000102C336
:10244C00013400000872426961733334000102C424
:10245C00013400000872426961733335000102C512
:10246C00013400000872426961733336000102C600
:10247C00013400000872426961733337000102C7EE
:10248C00013400000872426961733338000102C8DC
:10249C00013400000872426961733339000102C9CA
:1024AC00013400000872426961733430000102CAC1
:1024BC00013400000872426961733431000102CBAF
:1024CC00013400000872426961733432000102CC9D
:1024DC00013400000872426961733433000102CD8B
:1024EC00013400000872426961733434000102CE79
:1024FC00013400000872426961733435000102CF67
:10250C00013400000872426961733436000102D054
:10251C00013400000872426961733437000102D142
:10252C00013400000872426961733438000102D230
:10253C00013400000872426961733439000102D31E
:10254C00013400000872426961733530000102D415
:10255C00013400000872426961733531000102D503
:10256C00013400000872426961733532000102D6F1
:10257C00013400000872426961733533000102D7DF
:10258C00013400000872426961733534000102D8CD
:10259C00013400000872426961733535000102D9BB
:1025AC00013400000872426961733536000102DAA9
:1025BC00013400000872426961733537000102DB97
:1025CC00013400000872426961733538000102DC85
:1025DC00013400000872426961733539000102DD73
:1025EC00013400000872426961733630000102DE6A
:1025FC00013400000872426961733631000102DF58
:10260C00013400000872426961733632000102E045
:10261C00013400000872426961733633000102E133
:10262C00023400000072564269617300000102E23C
:10263C00023400000072494269617300000102E437
:10264C00023400000072704456000000000102E6E3
:10265C00023400000072704156000000000102E8D4
:10266C000234000000726E4156000000000102EAC4
:10267C000234000000726E4149000000000102ECBF
:10268C00023400000072704149000000000102EEAB
:10269C00023400000072704449000000000102F096
:1026AC0004340000007256424D6F6E30000102F28D
:1026BC0004340000007256424D6F6E31000102F678
:1026CC0004340000007256424D6F6E32000102FA63
:1026DC0004340000007256424D6F6E33000102FE4E
:1026EC0004340000007256424D6F6E340001030238
:1026FC0004340000007256424D6F6E350001030623
:10270C0004340000007256424D6F6E360001030A0D
:10271C0004340000007256424D6F6E370001030EF8
:10272C0004340000007249424D6F6E3000010312F8
:10273C0004340000007249424D6F6E3100010316E3
:10274C0004340000007249424D6F6E320001031ACE
:10275C0004340000007249424D6F6E330001031EB9
:10276C0004340000007249424D6F6E3400010322A4
:10277C0004340000007249424D6F6E35000103268F
:10278C0004340000007249424D6F6E360001032A7A
:10279C0004340000007249424D6F6E370001032E65
:1027AC00043400000965657056616C75650103326F
:1027BC000434000008656543747253657401033674
:1027CC0004340000086173756D63746C0001033A86
:1027DC0004340000087761746368646F6701033E1A
:1027EC000434000008736D6264656275670103420E
:1027FC00023400000047656F416464000001034629
:10280C0000000000000000000000000000000000BC
:103BE00060C00484000400010001447A0000001653
:103BF000000400030001447A0000007F0004000577
:103C00000001447A00001C08000400070001447A07
:103C10000000073000000007000042CA333300E60E
:103C200000000005000042CA333300E60000000334
:103C3000000042CA333300E600000001000042CA1F
:103C4000333300E6000400000001447A00000C6AEF
:103C5000000400020001447A000007080004000488
:103C60000001447A0000039D000400060001447A2C
:103C70000000131F00000006000042CA3333001882
:103C800000000004000042CA333300E600000002D6
:103C9000000042CA333300E100000000000042CAC5
:103CA000333300E66048000201424A000000000091
:103CB0000003449C40000000000000407EBA7C00ED
:103CC00000000000407EBA7C0000000000410800B7
:103CD00000C196020C003DCCCCCD00000000003E9F
:103CE000CCCCCD00000000003DCCCCCD00000000CD
:103CF000612C035400000000006EFFFFFFFFFFFF78
:103D0000FFFFFFFFFFFFFFFFFFFF0000000003209A
:103D1000FFFFFFFFFFFFFFFFFFFFFFFFFFFFFFFFB3
:103D2000FFFFFFFFFFFFFFFFFFFFFFFFFFFFFFFFA3
:103D3000FFFFFFFFFFFFFFFFFFFFFFFFFFFFFFFF93
:103D4000FFFFFFFFFFFFFFFFFFFFFFFFFFFFFFFF83
:103D500041F000000000000040B0000040B0000052
:103D6000C0D00000000000000000000000000000C3
:103D7000429200003DCCCCCD40D0000040D00000AD
:103D8000C0B000003E4CCCCD3F4CCCCD3E4CCCCD59
:103D900041200000424800004120000041F00000A6
:103DA000BF8000003F800000BDCCCCCD3F80000034
:103DB00000000000429200000000000041200000CE
:103DC00000000000000000000000000000000000F3
:103DD00000000000000000000000000000000000E3
:103DE00000000000000000000000000000000000D3
:103DF00000000000000000000000000000000000C3
:103E000000000000000000000000000000000000B2
:103E100000000000000000000000000000000000A2
:103E200048054500000200040006000D822452658A
:103E3000763A2031313835202400018F014201A02B
:103E400000004201E2000044017C412000004103E7
:103E5000500041004A0044004C000000004404802F
:103E600000000000440180000000004403480000FE
:103E70000000410184000371FF1EBC047548494ADB
:103E80004B480197000102030405060741000000AA
:043E900041000100EC
:0F5E2600C2AF9001EAE525F0A3E524F0D2AF2248
:04002600A20D923164
:10002A00C2AFD2319001E8E521F0A3E522F0D2AFC8
:01003A0022A3
:105DFB009001EAE525F0A3E524F09001E8E521F018
:075E0B00A3E522F0D2AF2253
:105CD5008F828E83C2AFAF47AE46AD45AC44121C32
:105CE500D930310A9001E8E521F0A3E522F0C2316F
:035CF500D2AF2209
:104C7F00E4F544F54590048875F00CE545121D16D2
:104C8F00E54475F00CA42583F583E0FEA3E04E60A8
:104C9F002F90048675F00CE545121D16E54475F04E
:104CAF000CA42583F583E0F546A3E0F547AE4678DF
:104CBF0002C333CE33CED8F92440F5827404802D4D
:104CCF0090048675F00CE545121D16E54475F00C41
:104CDF00A42583F583E0F546A3E0F547AE467802B9
:104CEF00C333CE33CED8F92460F58274043EF583F6
:104CFF00E0FCA3E0FDA3E0FEA3E0FF121688900402
:104D0F008E75F00CE545121D16E54475F00CA425C3
:104D1F0083F583EEF0A3EFF00545E54570020544FA
:094D2F00641045446003024C8449
:014D38002258
:1057E100E490061AF0A3F0A3F07B017A06791C7508
:1057F10047017D017F74125AAB90061CE0FDFF3317
:1058010095E0FEEFF4FFEEF4FEEF25E0FFEE3354FA
:1058110001FEEF54F8FF90061AEEF0A3EFF0ED54FD
:0A58210003FD3395E04EFEED4FFF4E
:01582B00225A
:0845D7008F428B438A448945A1
:1045DF00900622121CE500000000E490061AF0A3DA
:1045EF00F0AD4EAF42125A49900620EEF0A3EFF015
:1045FF00A3E0F8A3E0F9A3E0FAA3E0FB900620E024
:10460F00FEA3E0FFE4FCFDEB2FFFEA3EFEED39FDDC
:10461F00EC38FCA3121CD91254A390061BE004F033
:10462F00700690061AE004F0C390061BE0940A90FF
:10463F00061AE0940040AAE47B0AFAF9F8900622E1
:10464F00E0FCA3E0FDA3E0FEA3E0FF121B41AB43A0
:10465F00AA44A945EE8FF0121A6AAB43AA44A945A2
:10466F00121A07FDACF0E412164F90061C121CD95B
:10467F00E4FBFA7980784490061CE0FCA3E0FDA3EC
:10468F00E0FEA3E0FF1215347BF67A28791C784000
:10469F0012142B90061C121CD9E5426408602AAF35
:1046AF0049AE48AD47AC4690061CE0F8A3E0F9A32D
:1046BF00E0FAA3E0FB12142BAB4DAA4CA94BA84A6E
:1046CF0012133A90061C121CD990061CE0FCA3E0B2
:0746DF00FDA3E0FEA3E0FFD4
:0146E60022B1
:023E95008F4458
:103E9700E54464016003023FC475840F43A704D25D
:103EA700B243A5E0D2957FE87E03125B91D2977F5C
:103EB700647E00125699D296C2977F011259E67F07
:103EC700031259E675840F43A61843A4C043A7639A
:103ED70043A66043A501D290125E1275840F43A6D4
:103EE7001843A510125EC775840F43A61843A78011
:103EF70053A6FE125EB1125EAC125EB675840F4316
:103F0700A50875840F43A504125EA77F0A7E0012D9
:103F17005699E4FB7D067F74125B657F0A7E00126B
:103F270056999001EDE090061BF07B017A06791B0C
:103F37001253C490061BE0F4FB7D027F74125B658D
:103F47007F0A7E001256997BFF7D077F74125B659F
:103F57007F0A7E00125699D21DE490061AF0900649
:103F67001AE0FFC3648094C0501AEF3395E0FE74E3
:103F7700A22FF58274013EF58374FFF090061AE0D4
:103F870004F080DAD21CE490061AF090061AE0FFDB
:103F9700C3648094885023EF3395E0FEEF25E0FF5C
:103FA700EE33FE74872FF58274013EF58374FFF0BC
:103FB700A3F090061AE004F080D1D21B22E54470EA
:103FC700247F021259E675840F75A78053B080C20B
:103FD700B253A61F53A00F53A506D2924390065380
:053FE700A4E053803F3F
:013FEC0022B2
:022FBA00A90765
:102FBC00E49005CDF09005CDE0FFC364809484507F
:102FCC001A74882FF8E6C3648094B05006E0248805
:102FDC00F876309005CDE004F080DA7889E6FF339E
:102FEC0095E0FEEF24D0FFEE34FFFE7C007D6412F2
:102FFC0019BFAA06AB077888E6FF3395E0FEEF24ED
:10300C00D0FFEE34FFFE7C037DE81219BFEF2BFBE3
:10301C00EE3AFA788AE6FF3395E0FEEF24D0FFEE25
:10302C0034FFFE7C007D0A1219BFEF2BFFEE3AFE37
:10303C00788BE6FD3395E0FCED24D0FDEC34FFCD30
:10304C002FF50DED3EF50CE970030230F4E4900120
:10305C00EAF0A37480F0E49001EDF0A3F0A3F090FB
:10306C0005CDF09005CDE0FFC3648094885041EF0E
:10307C00FD3395E0FCED25E0FFEC33FE74922FF56B
:10308C008274023EF583E4F0A37480F0EDAE047814
:10309C0002C333CE33CED8F92422F58274023EF526
:1030AC0083121CE5000000009005CDE004F080B315
:1030BC00E49005CDF09005CDE0FFC3648094C05042
:1030CC0027EF3395E0FE74A22FF58274023EF58350
:1030DC0074FFF074A22FF58274013EF58374FFF037
:1030EC009005CDE004F080CD750A00750B64E4F515
:1030FC002375840F43A420125E6B75840F43A618AE
:10310C0053A6FE43A780125EB175840F43A505D26A
:10311C0090D29275840F125EA77F0A7E0012569988
:10312C00E4FB7D067F74125B657F0A7E0012569964
:10313C00E4FB7D027F74125B657F0A7E0012569958
:10314C007BFF7D077F74125B657F0A7E00125699A8
:10315C007C037D547B047A007F007E0612563990E6
:10316C000354E0FCA3E0FDA3E0FEA3E0FF9001E428
:10317C00121CD9900354A3A3E0FEA3E02414F50978
:10318C00EE34C3F508900545E0FEA3E0FF7C037D1B
:10319C00547B2C7A01125639C2AFE49005CDF090D5
:1031AC0005CDE0FFC3648094885050EF3395E0FE6A
:1031BC00EF25E0FFEE33FE745A2FF58274033EF5D3
:1031CC0083E0FCA3E0FD74922FF58274023EF5833C
:1031DC00ECF0A3EDF0745A2FF58274033EF583E006
:1031EC00FCA3E0FD74872FF58274013EF583ECF0AF
:1031FC00A3EDF09005CDE004F080A4E49005CDF0B3
:10320C009005CDE0FFFD3395E0FC74702DF58274D4
:10321C00033CF583E0FE74A22DF58274023CF58329
:10322C00EEF0EF3395E0FE74702FF58274033EF5EB
:10323C0083E0FD74A22FF58274013EF583EDF090CE
:10324C0005CDE004F0E0B440B790036AE05403FF0E
:10325C00A3E09001EECFF0A3EFF090036CA3E0900D
:10326C0001EDF0D2AF124C7F75840F43A50A758423
:10327C0002438880758903758401438880758903AE
:10328C007F017E00125EC47F027E00125EC4E49059
:10329C000351F0900351E0FFC39404505975F004AE
:1032AC00EFA42420F582E5F03404F583E0FCA3E0E0
:1032BC00FDA3E0FEA3E0FF121688AD07AC06ECFF01
:1032CC00C0078D49D048900351E02475F8E6FFE41F
:1032DC00F547F54A754B01754C01754D05754ECE8C
:1032EC007B037DE0123FED7F647E001256999003C4
:1032FC0051E004F0809DE4900351F0900351E0FF05
:10330C00C39404505975F004EFA42430F582E5F011
:10331C003404F583E0FCA3E0FDA3E0FEA3E0FF1280
:10332C001688AD07AC06ECFFC0078D49D04890035A
:10333C0051E02475F8E6FFE4F547F54A754B017545
:10334C004C01754D05754ECE7B037DE1123FED7F33
:10335C00647E00125699900351E004F0809DE4FFC6
:10336C00123E95E4F521F522F574F525F52490012E
:10337C00E8E521F0A3E522F09001ECE574F0900172
:10338C00EBE524F09001EA7480F090033E121CE50A
:10339C0000000000E49005CDF09005CDE0F9C36489
:1033AC008094884003023459E9FF3395E0FEEF78AE
:1033BC0002C333CE33CED8F9FBAA062442F582746D
:1033CC00023AF583121CE50000000074622BF582B2
:1033DC0074023AF583121CE500000000E9FF3395F6
:1033EC00E0FEEF7802C333CE33CED8F9FBAA062425
:1033FC00F2F58274023AF583121CE50000000074A9
:10340C00122BF58274033AF583121CE500000000C0
:10341C00E9FF3395E0FEEF7802C333CE33CED8F913
:10342C002422F58274023EF583121CE5C3000000D1
:10343C00900332121CE500000000900336121CE5CC
:10344C00000000009005CDE004F00233A543A680F7
:03345C0043A0800A
:01345F00224A
:104EA300151EA81EEFF69001EBE0F524A81EE6FF01
:104EB300B402129001EAE0F525302B099001A0E439
:104EC300F0A3740AF0EFB40505202602D21AA81E37
:104ED300E6B49002D21EA81EE6FFC3942F400AEF49
:104EE30094375005202602D21BEFC39437400AEFB4
:104EF30094775005202602D21CEFB4060520260223
:104F0300D21DEF6491704590033AA3A3A3E054012B
:104F1300FFEF24FF929790033AA3A3A3E05402FF69
:104F2300E4FEFDFC7801121C08EC4D4E4F24FF9269
:104F33009690033AA3A3A3E05404FFE4FEFDFC7898
:0F4F430002121C08EC4D4E4F24FF9295051E22C2
:055EBB008F3A7F002278
:105B38008B3A8A3B893C121945AB3DAA3EA93F12D4
:105B4800198BAB3AAA3BA93C90000112195EAB3DF8
:0D5B5800AA3EA93F90000112199D7F022274
:10007600D2A71257E1900346EEF0A3EFF0900001ED
:10008600E0FDFF3395E0FE90048475F00CEF121D41
:1000960016EE75F00CA42583F583A3E0FB7F1412FE
:1000A6005792900001E0FDFF3395E0FE90048475C1
:1000B600F00CEF121D16EE75F00CA42583F583A344
:1000C600E0F5477B017A0579E77F14124AE1EF7084
:1000D6000A9005E7121CE500000001900001E0FF10
:1000E6003395E0FE90048E75F00CEF121D16EE753A
:1000F600F00CA42583F583E0FEA3E0FBCAEECAEA72
:100106003395E0F9F89005E7E0FCA3E0FDA3E0FEF7
:10011600A3E0C39BFFEE9AFEED99FDEC98FC121648
:100126004AE4FBFA79A0783712142B9005D5121CF5
:10013600D99005D5E0FCA3E0FDA3E0FEA3E0FF9087
:100146000001E0FB3395E0FA90048A75F00CEB129F
:100156001D16EA75F00CA42583F583E0F8A3E0F9F3
:10016600A3E0FAA3E0FB12142B9005D5121CD9903C
:1001760005D5E0FCA3E0FDA3E0FEA3E0FFECC0E0B4
:10018600EDC0E0EEC0E0EFC0E0900001E0FF339587
:10019600E0FE90048875F00CEF121D16EE75F00C5B
:1001A600A42583F583E0FCA3E0FD90048475F00CA0
:1001B600EF121D16EE75F00CA42583F583E0FEA361
:1001C600E02DFDEE3CFC12164F8F498E488D478C74
:1001D600467F007E007D007C401243ADC8ECC8C956
:1001E600EDC9CAEECACBEFCBD0E0FFD0E0FED0E03F
:1001F600FDD0E0FC1215349005D5121CD9C2AF9083
:100206000001E0FF3395E0FE90048875F00CEF12D4
:100216001D16EE75F00CA42583F583E0FEA3E04ED3
:1002260070030202D29005D5E0FCA3E0FDA3E0FE38
:10023600A3E0FFECC0E0EDC0E0EEC0E0EFC0E09070
:100246000001E0FF3395E0FE90048675F00CEF1296
:100256001D16EE75F00CA42583F583E0FEA3E07869
:1002660002C333CE33CED8F92462F58274023EF54A
:1002760083D0E0FFD0E0FED0E0FDD0E0FC121CD938
:100286009005E7E0FCA3E0FDA3E0FEA3E0FFECC0E1
:10029600E0EDC0E0EEC0E0EFC0E0900001E0FF332B
:1002A60095E0FE90048675F00CEF121D16EE75F0C3
:1002B6000CA42583F583E0FEA3E07802C333CE3396
:1002C600CED8F92412F58274030203769005D5E0A0
:1002D600FCA3E0FDA3E0FEA3E0FFECC0E0EDC0E080
:1002E600EEC0E0EFC0E0900001E0FF3395E0FE9045
:1002F600048675F00CEF121D16EE75F00CA425831E
:10030600F583E0FEA3E07802C333CE33CED8F924DA
:1003160042F58274023EF583D0E0FFD0E0FED0E0E5
:10032600FDD0E0FC121CD99005E7E0FCA3E0FDA39C
:10033600E0FEA3E0FFECC0E0EDC0E0EEC0E0EFC001
:10034600E0900001E0FF3395E0FE90048675F00C26
:10035600EF121D16EE75F00CA42583F583E0FEA3BF
:10036600E07802C333CE33CED8F924F2F582740294
:100376003EF583D0E0FFD0E0FED0E0FDD0E0FC12F9
:100386001CD9D2AF900001E004F0E0FF75F0101226
:100396001923AFF0900001EFF0301A209001EDE044
:1003A6009005F4F07B017A0579F41253C49005F4B4
:1003B600E0F4FB7D027F74125B65C21A301D11905A
:1003C60001EEE0FAA3E0FB7D047F20125ADBC21D9A
:1003D60030282E9001EBE0F524E4F521F522C22623
:1003E600C2AFE524F09001E8E521F0A3E522F0D2C2
:1003F600AF7F01123E957F647E00125B91D218C2D8
:100406002820182D125E5E900480E0F8A3E0F9A380
:10041600E0FAA3E0FBC3EF9BFFEE9AFEED99FDEC3D
:1004260098FCE47B02FAF9F8C3121BF740030204B6
:10043600E1E4900351F0900351E0FFC394044003BC
:100446000204D874752FF8E6FF754702E4F548F5FF
:1004560049F54A754B01754C01754D05754ED17BB5
:1004660001FD123FEDEF705EC20D9003F4E0FCA3B8
:10047600E0FDA3E0FEA3E0FF9005D1E0F8A3E0F9DC
:10048600A3E0FAA3E0FB1215D160044002D2099062
:100496000351E075F004A42482F582E5F03402AF3E
:1004A60082FEEEC0E09005D1E0FCA3E0FDA3E0FEF5
:1004B600A3E0F5478E468D458C44A2099231D0E0E3
:1004C600FE125CD58003120026900351E004F00270
:1004D600043C125E5E900480121CD91254A32018AC
:1004E6002D125E5E900180E0F8A3E0F9A3E0FAA386
:1004F600E0FBC3EF9BFFEE9AFEED99FDEC98FCE462
:100506007B02FAF9F8C3121BF740030207CDE49009
:100516000351F0900351E0FFC3940440030205B673
:1005260074752FF8E6FF754702E4F548F549F54A74
:10053600754B01754C01754D05754ED17B017D01DD
:10054600123FEDEF705EC20D9003FCE0FCA3E0FDF0
:10055600A3E0FEA3E0FF9005D1E0F8A3E0F9A3E055
:10056600FAA3E0FB1215D160044002D20A900351AF
:10057600E075F008A42422F582E5F03402AF82FE8D
:10058600EEC0E09005D1E0FCA3E0FDA3E0FEA3E011
:10059600F5478E468D458C44A20A9231D0E0FE1274
:1005A6005CD58003120026900351E004F002051981
:1005B600E4900351F0900351E0FFC394044003021A
:1005C600065874752FF8E6FF754702E4F548F549B5
:1005D600F54A754B01754C01754D05754ED17B017C
:1005E6007D02123FEDEF705EC20D9003FCE0FCA3AE
:1005F600E0FDA3E0FEA3E0FF9005D1E0F8A3E0F95B
:10060600A3E0FAA3E0FB1215D160044002D20A90DF
:100616000351E075F008A42426F582E5F03402AF14
:1006260082FEEEC0E09005D1E0FCA3E0FDA3E0FE73
:10063600A3E0F5478E468D458C44A20A9231D0E060
:10064600FE125CD58003120026900351E004F002EE
:1006560005BB1254A39001EBE0F52420200302070A
:10066600C4C20C754702E4F548F549F54A754B02D4
:10067600754C01754D05754ED17B017D017F481284
:100686003FEDEF704FC20D9003F4E0FCA3E0FDA335
:10069600E0FEA3E0FF9005D1E0F8A3E0F9A3E0FABD
:1006A600A3E0FB1215D160044002D20C7E027F1A31
:1006B600EEC0E09005D1E0FCA3E0FDA3E0FEA3E0E0
:1006C600F5478E468D458C44A20C9231D0E0FE1241
:1006D6005CD58003120026754702E4F548F549F516
:1006E6004A754B02754C01754D05754ED17B017DE2
:1006F600027F48123FEDEF704FC20D9003F4E0FC0D
:10070600A3E0FDA3E0FEA3E0FF9005D1E0F8A3E09F
:10071600F9A3E0FAA3E0FB1215D160044002D20C63
:100726007E027F16EEC0E09005D1E0FCA3E0FDA3BB
:10073600E0FEA3E0F5478E468D458C44A20C92312F
:10074600D0E0FE125CD58003120026754702E4F560
:1007560048F549F54A754B02754C01754D05754EC0
:10076600D17B01FD7F48123FEDEF704FC20D900324
:10077600F4E0FCA3E0FDA3E0FEA3E0FF9005D1E0DA
:10078600F8A3E0F9A3E0FAA3E0FB1215D160044058
:1007960002D20C7E027F1EEEC0E09005D1E0FCA3E3
:1007A600E0FDA3E0FEA3E0F5478E468D458C44A20E
:1007B6000C9231D0E0FE125CD58003120026125E48
:1007C6005E900180121CD920182D125E5E90004C9E
:1007D600E0F8A3E0F9A3E0FAA3E0FBC3EF9BFFEE8A
:1007E6009AFEED99FDEC98FCE47B01FAF9F8C31248
:1007F6001BF74003020B1B7B017A0579F0E4F549F0
:10080600F548F547F546F54DF54CF54BF54AF54EE9
:100816007F081245D79005CD121CD97FF07EA77DA3
:10082600467CBF9005CDE0F8A3E0F9A3E0FAA3E08B
:10083600FB12133AE4FBFA797A784412142B7B3DC7
:100846007A0A793778401215349005D1121CD9E40A
:10085600FFFE7D207C419005D1E0F8A3E0F9A3E0FE
:10086600FAA3E0FB12142BE4FBFAF9783F12133AD1
:10087600121688CDEFCDCCEECCEC12164FE4FBFA77
:10088600792078411215349005D1121CD99003F0C5
:10089600E0FCA3E0FDA3E0FEA3E0FF9005D1E0F8B5
:1008A600A3E0F9A3E0FAA3E0FB1215D140239003DD
:1008B600F4E0FCA3E0FDA3E0FEA3E0FF9005D1E099
:1008C600F8A3E0F9A3E0FAA3E0FB1215D160044017
:1008D60002D2087E027F12EEC0E09005D1E0FCA3B2
:1008E600E0FDA3E0FEA3E0F5478E468D458C44A2CD
:1008F600089231D0E0FE125CD59005DD7401F0A3BC
:100906007401F0A374F2F09005ED7401F0A3740283
:10091600F0A374E2F0E4900351F0900351E0FEFF7F
:10092600EFC0E07B017A0579F0EE75F009A42403A7
:10093600F582E43400F583E0FCA3E0FDA3E0FEA32A
:10094600E0F5498E488D478C46900351E075F009D5
:10095600A42407F582E43400F583E0FCA3E0FDA3BC
:10096600E0FEA3E0F54D8E4C8D4B8C4A900351E092
:1009760075F009A42402F582E43400F583E0F54E0F
:10098600D0E0FF1245D79005CD121CD9C2AF900515
:10099600CDE0FCA3E0FDA3E0FEA3E0FF9005DDE0D3
:1009A600FBA3E0FAA3E0F9900351E075F004A4F587
:1009B6008285F083121C699005F0E0FEA3E0FF90AB
:1009C60005EDE0FBA3E0FAA3E0F9900351E0FD7525
:1009D600F002A4F58285F083EE8FF0121A89D2AF69
:1009E60074017E00C8EDC8088005C333CE33CED867
:1009F600F9FFEE3395E0FDFC9005E3121CD9900358
:100A060051E0FF703375F004EFA424B0F582E5F0F1
:100A16003403F583E0FCA3E0FDA3E0FEA3E0FF9032
:100A260005CDE0F8A3E0F9A3E0FAA3E0FB1215D1A7
:100A36005004C2218002D221900351E0FFD39401D9
:100A46005003020B0375F004EFA424B0F582E5F021
:100A56003403F583E0FCA3E0FDA3E0FEA3E0FF90F2
:100A660005CDE0F8A3E0F9A3E0FAA3E0FB1215D167
:100A76004032900351E075F004A424D0F582E5F0ED
:100A86003403F583E0FCA3E0FDA3E0FEA3E0FF90C2
:100A960005CDE0F8A3E0F9A3E0FAA3E0FB1215D137
:100AA600605B40599005E3A3A3E0FEA3E04222EE7B
:100AB60042217545FF75461E75479C9005CDE0FCA5
:100AC600A3E0FDA3E0FEA3E0F54B8E4A8D498C48DA
:100AD600900351E075F004A424B0F582E5F03403E8
:100AE600F583E0FCA3E0FDA3E0FEA3E0F54F8E4E08
:100AF6008D4D8C4C7B017A0579FA1234BC900351EA
:100B0600E004F0E0C394085003020920125E5E90F0
:100B1600004C121CD9E5215410FEE522545C4E60AF
:100B26000DC221C220E4FF123E95D2268011301854
:100B36000EC218C227C226D219D21CD21BD220122C
:100B46005DFB9001EBE0F524202003020C13201B33
:100B560003020C13E49005F9F09005F9E0FFC36475
:100B66008094884003020C11201930EF3395E0FE83
:100B7600EF25E0FFEE33FE74922FF58274023EF508
:100B860083E0FCA3E0FD74872FF58274013EF583B4
:100B9600E0FEA3E06D7002EE6C60679005F9E0FF81
:100BA600FD3395E0FC74972DF58274013CF583E0E6
:100BB600FDEF3395E0FEEF25E0FFEE33FE74922F56
:100BC600F58274023EF583E0FAA3E0FB7F03125D33
:100BD600B09005F9E0FFFD3395E0FC74A22DF58297
:100BE60074023CF583E0FDEF3395E0FEEF25E0FF70
:100BF600EE33FE74872FF58274013EF583E4F0A38D
:100C0600EDF09005F9E004F0020B5FC21B9001EBDA
:100C1600E0F524202003020CC1201C03020CC1E4D1
:100C26009005F6F09005F6E0FFC3648094C040039B
:100C3600020CBF20191FEF3395E0FE74A22FF58238
:100C460074023EF583E0FD74A22FF58274013EF531
:100C560083E06D605B9005F6E0FF75F008121923DE
:100C660004FE9005F7F0FBEF75F008121923AFF0BC
:100C7600EF04FF9005F8F09005F6E0FD3395E0FCF3
:100C860074A22DF58274023CF583E0FD124DF190BD
:100C960005F6E0FF3395E0FE74A22FF58274023E5E
:100CA600F583E0FD74A22FF58274013EF583EDF025
:100CB6009005F6E004F0020C2AC21CC219302F1B64
:100CC6009001EBE0F524D2277F021259E6E4FF12E9
:100CD6003E95C221C220C22F125E26302A123096BD
:100CE60004C2968002D296A2969222C22A125E264A
:100CF600201E03020DD8900336E0FCE4FFFEFDEC57
:100D0600543CFC7003020DC8900336E0FCA3E0FDE2
:100D1600A3E0FEA3E0FFC3EF940674809480500323
:100D2600020DB8900336A3A3A3E4FEFDFC7B04FAF0
:100D3600F9F8121AB67B0174542FF974033EFAEBD4
:100D46003D9005E0F0A3EAF0A3E9F0900336A3E0B6
:100D5600FDED5422FDED601E900332E0FCA3E0FDA4
:100D6600A3E0FEA3E0FF9005E0E0FBA3E0FAA3E02A
:100D7600F9121C4F805A900336A3E0FDE4FFFEED06
:100D86005411FDE4FCED601AC2AF9005E0E0FBA350
:100D9600E0FAA3E0F9121C2F900332121CD9D2AF4D
:100DA600802EC2AF900336121CE5FF000000D2AFC2
:100DB600801EC2AF900336121CE50000FF00D2AFC2
:100DC600800EC2AF900336121CE500FF0000D2AFC2
:100DD600C21E202C03020F0C900000E06003020EDE
:100DE600B99001EBE0F524E49005F2F0A3F090054C
:100DF600F2E0FEA3E0FFC39408EE94005035EF2521
:100E0600E0FFEE33FE74922FF58274023EF583E026
:100E1600FCA3E0FD745A2FF58274033EF583ECF0D3
:100E2600A3EDF09005F3E004F070C39005F2E00442
:100E3600F080BBE49005F2F0A3F09005F2E0FEA38B
:100E4600E0FFC39440EE9400502874A22FF582E48C
:100E56003402F583E0FE74702FF582E43403F583E3
:100E6600EEF09005F3E004F070D09005F2E004F0A7
:100E760080C89001EEE05403FFA3E090036ACFF030
:100E8600A3EFF09001EDE0FF90036CE4F0A3EFF028
:100E96009001ECE0540725E02445F582E43405F59D
:100EA60083E0FFA3E09005EBCFF0A3EFF0754003DE
:100EB6007541549005F57401F09005EBE0FEA3E052
:100EC600FF75470175482C9005F5E0F549754A010F
:100ED600754B00754C007B007A007940124A0090F1
:100EE6000186EFF0BF011AD224E4900000F0C22C74
:100EF6009001ECE0FF5407C43354E0FEEF4EF0805F
:100F060002C224125E26202D030210209001EBE07F
:100F1600F524A3E0540725E02445F582E43405F5DD
:100F260083E0FEA3E0FF7C037D547B2C7A011256FE
:100F360039900186EFF064016003021019D225C2D0
:100F4600AF9005F2F0A3F09005F2E0FEA3E0FFC338
:100F56009408EE94005046EF25E0FFEE33FE745AF7
:100F66002FF58274033EF583E0FCA3E0FD74872F22
:100F7600F58274013EF583ECF0FCA3EDF0FD74926E
:100F86002FF58274023EF583ECF0A3EDF09005F3A5
:100F9600E004F070B29005F2E004F080AAE4900557
:100FA600F2F0A3F09005F2E0FEA3E0FFC39440EE5A
:100FB60094005038CDEFCD74702DF582E43403F5EE
:100FC60083E0FC74A22DF582E43401F583ECF0FC99
:100FD60074A22FF582E43402F583ECF09005F3E079
:100FE60004F070C09005F2E004F080B890036AE067
:100FF6005403FFA3E09001EECFF0A3EFF090036C53
:10100600A3E09001EDF0D2AFD219D21CD21B124C44
:101016007F8002C225C22D125E26202B03021312E8
:101026009001A0E0FEA3E0FFEE6003021300EF24B0
:10103600F1605E24F1700302110F24F670030211B1
:101046004E24F6700302122E24F670030212E024D8
:101056003260030213009001EBE0F52430202230C9
:10106600211F9001EDE0B4FF18D223C2AF9001EB2F
:10107600E524F0D2AF9001A0E4F0A3740FF00213C0
:1010860000C224C22BC223E49001A0F0A3F00212F6
:10109600FD9001EEA3E0900350F09001EDE090008A
:1010A6004AF090036EE0FAA3E0FB7D047F20125A1B
:1010B600DBE4900352F0A3F0900352E0FEA3E0FFBE
:1010C600C39408EE64809480502AEF7802C333CE2E
:1010D60033CED8F92440F58274043EF583121CE51C
:1010E60000000000900353E004F070CC900352E03F
:1010F60004F080C49001A0E4F0A3741EF0125E5EBA
:10110600900348121CD9021300125E5E900348E059
:10111600F8A3E0F9A3E0FAA3E0FBC3EF9BFFEE9A86
:10112600FEED99FDEC98FCE47B0AFAF9F8C3121B74
:10113600F74003021300E49001E2F0A3F09001A04F
:10114600F0A37428F00213009001E2E0FCA3E0FD96
:10115600EC12164F90017CE0F8A3E0F9A3E0FAA3A5
:10116600E0FB1215D160025003021222900001E04A
:1011760060030213009001E3E004F070069001E2C0
:10118600E004F0E4900352F0A3F0900352E0FEA3D3
:10119600E0FFC39408EE648094804003021300EFDE
:1011A6007802C333CE33CED8F92440F58274043E98
:1011B600F583C083C082E0F8A3E0F9A3E0FAA3E0D8
:1011C600FBE8C0E0E9C0E0EAC0E0EBC0E090035213
:1011D600E0FEA3E07802C333CE33CED8F92412F56D
:1011E6008274033EF583E0FCA3E0FDA3E0FEA3E0EA
:1011F600FFEC12164AD0E0FBD0E0FAD0E0F9D0E0DE
:10120600F812133AD082D083121CD9900353E0040B
:10121600F07006900352E004F00211909001A0E4F1
:10122600F0A37432F0021300E4900352F0A3F0909E
:101236000352E0FEA3E0FFC39408EE64809480406E
:10124600030212D2EF7802C333CE33CED8F924404C
:10125600F58274043EF583E0FCA3E0FDA3E0FEA363
:10126600E0FF90017CE0F8A3E0F9A3E0FAA3E0FB3D
:101276001215349005D9121CD99005D9E0FCA3E0CB
:10128600FDA3E0FEA3E0FFECC0E0EDC0E0EEC0E0B1
:10129600EFC0E0900352E0FEA3E07802C333CE3302
:1012A600CED8F92440F58274043EF583D0E0FFD011
:1012B600E0FED0E0FDD0E0FC121CD9900353E00420
:1012C600F07006900352E004F0021235124C7F9043
:1012D60001A0E4F0A3743CF08020900350E0FB33BF
:1012E60095E0FA7D047F20125ADBC22BE49001A020
:1012F600F0A3F0C223D22C125E26C2AFE4F584AF6F
:10130600C1FCFDFE900342121CD9D2AFC2AF9003BE
:101316004CE0FCA3E0FDA3E0FEA3E0FF9003421235
:0D1326001CD9D2AFC2A77F0A7E00025B91E6
:0300000002509219
:1050920075EF02E5EF30E106438701858787787F68
:0A50A200E4F6D8FD7581A80250E77E
:101333000216F4E86480F8E933E83360110460F0DE
:10134300ED33EC337009E8FCE9FDEAFEEBFF220420
:1013530060DED3EB9FEA9EE99DE8C2E78CF0C2F71B
:1013630095F0400CE8CCF8E9CDF9EACEFAEBCFFBE7
:101373001216BF85D0F05804700320D5B3E804706B
:10138300075002B2D50216FE92D5EC0460F7E4CC06
:10139300C0E0C398F8603B94186008400DD0E0FBB0
:1013A3000216D6E4FBFAC9FC8028E830E406E4C957
:1013B300FBE4CAFCE830E305E4C9CACBFCE8540704
:1013C3006010F8C3E913F9EA13FAEB13FBEC13FC0F
:1013D300D8F130F52FC3E49CFCEF9BFFEE9AFEEDB2
:1013E30099FDD0E0FBEF4E4D4C701222DB03021649
:1013F300FBEC2CFCEF33FFEE33FEED33FDED30E77A
:10140300EB0216D6EF2BFFEE3AFEED39FDD0E0FBF3
:1014130050130BBB00030216FEED13FDEE13FEEF9C
:0814230013FFEC13FC0216D6C6
:10142B00EC4D6011E8497017ED33EC3304600DE4BB
:10143B00FCFFFEFD22E933E8330470F80216F412C8
:10144B0016BF58046009E4CC2481500628500902C9
:10145B0016FE2840030216FBC0E0EB4A7044B9802D
:10146B0006D0E0FB0216EAEF4E701CBD8008EBFFC6
:10147B00EAFEE9FD80EBE98DF0A4FEE5F002151420
:10148B00E9CDF9EAFEEBFFEF89F0A4FCE5F0CE899C
:10149B00F0A42EFFE435F0CD89F0A42DFEE435F059
:1014AB008067EF4E7005BD80D780C3EF8BF0A4AC87
:1014BB00F0EE8BF0A42CFCE435F0F8EF8AF0A42CC2
:1014CB00E5F038FCE433CB8DF0A42CFCE5F03BF8D5
:1014DB00EE8AF0A42CFCE5F038F8E433CF89F0A4C5
:1014EB002CFCE5F038CF3400CE89F0A42FFFE5F0CB
:1014FB003EFEE433C98DF0A42EFEE5F039CD8AF023
:10150B00A42FFFE5F03EFEE43DFD33D0E0FB50079A
:10151B000BBB000F0216FEEC2CFCEF33FFEE33FE81
:06152B00ED33FD0216D6AF
:101531000216FEEC5D046005E8590470030216F41E
:101541001216BF580460F6EC4860F2EC7004FDFE20
:10155100FF22C860DB2481C85009C398600250068D
:101561000216FB9850CAF582E9294B4A7005AB82F5
:101571000216EA75F0007C1A7880C3EF9BEE9AEDB3
:1015810099400DC3EF9BFFEE9AFEED99FDE842F005
:10159100DC23ACF0D0E0FFD0E0FED0E0FDAB822058
:1015A100E7101BEB60BAEC2CFCEF33FFEE33FEEDE2
:1015B10033FD0216D6E803F830E705C0F075F000F8
:1015C100EF2FFFEE33FEED33FD40B830E7C280AAC6
:1015D10074F8CC6480CCC86480C8F58204604FC3C1
:1015E100EB9FF5F0EA9E42F0E99D42F0E89C45F060
:1015F100603C501DE5825FFFE582D313CB5BCBF4EA
:101601002B5582FB50280ABA002409B90020088012
:101611001DE5825BFBE582D313CF5FCFF4C3132FAC
:101621005582FF50090EBE00050DBD00010CC3EB34
:101631009FF5F0EA9E42F0E99D42F0E89C45F0609A
:0916410007CC4820E701B3EC22BC
:10164A0075F020800E75F010800575F0087D007E1B
:10165A00007F003392D530D503121BD3EC334010F0
:10166A00EF33FFEE33FEED33FDEC33FCD5F0ED2224
:0E167A00E5F0247EA2D513CC92E7CDCEFF2260
:10168800EDD2E7CD33EC3392D524814006E4FFFE5A
:10169800FDFC22FCE4CFCECDCC24E0501174FF80B9
:1016A800EDC3CC13CCCD13CDCE13CECF13CF047056
:0716B800F030D5DE021BD368
:10346000E5592445F8E60559227842303802784576
:10347000E475F001121D220219452031EB7F2ED296
:10348000318018EF540F2490D43440D4FF30350BE2
:10349000EF24BFB41A0050032461FFE55A600215FF
:1034A0005A055DE55D7002055C30380D7842E475C3
:1034B000F001121D22EF02198B025C887403D238CE
:1034C0008003E4C238F5598B428A438944E4F55AB3
:1034D000F55CF55DE55A60077F2012349B80F57539
:1034E0005BFFC232C231C233C234C236C237C239C4
:1034F000123469FF700D3038057F001234ACAF5DB7
:10350000AE5C22B4255FC2D5C235123469FF24D027
:10351000B40A00501A75F00A785A30D50508B6FF7B
:103520000106C6A426F620D5047002D23480D92420
:10353000CFB41A00EF5004C2E5D235023799D23227
:1035400080C6D23180C0D23380BCD2D580BAD236C8
:1035500080B47F2012349B2033077401B55A004099
:10356000F1123460FF12349B0234D4D239D2378046
:1035700095123460FB123460FA123460F94A4B70D1
:103580000679907A387BFF20332EE55A602A7E0038
:103590008E8275830012195E60060EEE655B70F018
:1035A000C2D5EBC0E0EAC0E0E9C0E0EE1237F9D0E6
:1035B000E0F9D0E0FAD0E0FB121945FF60AAEBC0B9
:1035C000E0EAC0E0E9C0E012349BD0E02401F9D089
:1035D000E03400FAD0E0FBE55B0460DCD55BD98029
:1035E00087D23380A21237DC60F7E55B70010412EA
:1035F0001734A95B600DE55B600914F55B12388335
:10360000EF60F3EA30E702F404C3995077EAF42557
:103610005B0430E701E404F55B800D1237DC60C128
:10362000EA055B255B121734EA7858F630E701E4C7
:10363000255B04D55B04203601141237F9E4C0E0A1
:103640001238837858E6601320E70714F6123483A3
:10365000802204F6D0E014C0E07F00123483E55BE2
:10366000600712347A155B800B30360312347AD03F
:10367000E00234D4D0E00480C51237DC60A0E55B02
:10368000041217347858EAF6E55B2036026001042C
:0536900024041237F9CB
:1036950074FF04C0E0123883123483E55B203602E0
:1036A500600312347AD0E0B55BE87F4512348D783B
:1036B50058E67F2B30E7047F2DF404C0E012349BDD
:1036C500D0E075F00A84C0F0123484D0E01234845E
:1036D5000234D4791080027908C237C2398008D201
:1036E500D5790A8004790AC2D5E55B047002F55BD9
:1036F500E4FAFDFEFF123460FC7B0820321312341D
:1037050060FD7B1030310A123460FE123460FF7B9D
:1037150020EC3382D592D55013C3E43031069FFF98
:10372500E49EFEE42032039DFDE49CFCE4CBF8C25C
:1037350032EC700CCFCECDCCE824F8F870F38017BE
:10374500C3EF33FFEE33FEED33FDEC33FCEB33FB20
:10375500994002FB0FD8E9EB303205F8D0E0C448B8
:10376500B232C0E00AEC4D4E4F78207B0070C2EAC1
:10377500B55B0040BCC0E01237FBD0F0D0E0203292
:1037850004C4C0E0C4B232C0F0123484D0F0D5F025
:10379500EB0234D4121D6235715336D85835424C7C
:1037A500353E4236DC4F36E44436E4493557433638
:1037B500EA55361B4636794535E54738B050354626
:1037C5002D354A2E356D2B354E23356B2038992AEC
:1037D50035064800003565E55BB4FF03755B0612E9
:1037E5003460FC123460FD123460FE123460FF78E0
:1037F50051021763790AA2D5203414303609B9105D
:10380500020404B9080104A2D5203702500104209E
:1038150033689233B55A005034C0E07F20303419F4
:103825007F30A23372377236500F123852C233C20C
