:1026E1004645423634006C6F616465720004340003
:1026F100000053657269616C4E00010134013400C0
:102701000000436F6E74726F6C0001013801340078
:102711000000454550616765000001013901340041
:102721000000537461747573000001013A023400B2
:10273100000053747263537A650001013B0000008D
:0D274100000000000000000000000000008B
:101A4D0048012C0000020004000600612C01410039
:101A5D00000000006EFFFFFFFFFFFFFFFFFFFFFF16
:101A6D00FFFFFFFFFF000000000320FFFFFFFFFF50
:101A7D00FFFFFFFFFFFFFFFFFFFFFFFFFFFFFFFF69
:101A8D00FFFFFFFFFFFFFFFFFFFFFFFFFFFFFFFF59
:101A9D00FFFFFFFFFFFFFFFFFFFFFFFFFFFFFFFF49
:101AAD00FFFFFFFFFFFFFFFFFFFFFF41F000000003
:101ABD0000000040B0000040B00000C0D0000000A9
:101ACD000000000000000000000000429200003DF8
:101ADD00CCCCCD40D0000040D00000C0B000003EC6
:101AED004CCCCD3F4CCCCD3E4CCCCD4190000042AA
:101AFD004800004190000041F00000BF8000003F11
:101B0D00800000BDCCCCCD3F800000000000004225
:101B1D0092000000000000412000000000000000C5
:101B2D0000000000000000000000000000000000A8
:101B3D000000000000000000000000000000000098
:101B4D000000000000000000000000000000000088
:101B5D000000000000000000000000000000000078
:101B6D000000000000000000000000000000000068
:101B7D000000000000000000000000011F010275C0
:071B8D0000000377FF26EEC4
:0218E0008F3F38
:1018E200E49002F8F0A3F0A3F0A3F0A3F0E49001D7
:1018F20038F090013AF0A3F0A3F0C21B7549FF75CE
:101902004A26754BE1FB7A00790E12103743A78005
:1019120043A61853A6FE43A50843A4207F647E0075
:101922001228DF75840F122E0B7F0A7E001228DF29
:101932007BFF7D077F74122B287F0A7E001228DF2F
:101942007B017A0279F8754B017D017F741229D5EA
:101952007F0A7E001228DF9002F8E0FDFF3395E057
:10196200FEEFF4FFEEF4FEEF25E0FFEE335401FE4E
:10197200EF54F8FFA3EEF0A3EFF0ED5403FD33951F
:10198200E04EFEED4FFFA3EEF0A3EFF0BE010ABF63
:10199200F807E49002FBF0A3F09002FBE0F508A345
:1019A200E0F5097F2C7E01122D6EEF600AC2AF9026
:1019B200013A747FF0D2AF7B007A007940754B0018
:1019C200754C047F007E061228827B007A007944DF
:1019D200754B00754C027F047E06122882C2AFAF9F
:1019E20043AE42AD41AC4090013412070D90013B31
:1019F200E544F0A3E545F0D2AF90012CE0FEA3E070
:101A0200FF7B017A007900754B01754C2C122882FC
:101A1200E4FFFEFDFC9000A0E0F8A3E0F9A3E0FAE9
:101A2200A3E0FB120076700BC2AF90013A74FFF094
:101A3200D2AF2290012CE0FEA3E0FF7B017A017974
:0A1A420041754B01754C2C122882EF
:011A4C002277
:102DA800151EA81EEFF6A81EE6B40102D21B051ECA
:012DB80022F8
:052E01008F357F002267
:10003E008B358A36893712056DAB38AA39A93A1233
:10004E0005B3AB35AA36A937900001120586AB3839
:0D005E00AA39A93A9000011205C57F0222BF
:101BA200E4F53B201B03021CC0900134E0FCA3E0DF
:101BB200FDA3E0FEA3E0FF90014112070D90014555
:101BC2007401F0A3742CF07B017A017941FD7C0150
:101BD200121EE48F3BE53B7009C2AF90013A04F05C
:101BE200D2AF7B017A007900754B01754C2C7F00D6
:101BF2007E061228828F3BE53B702D900000E0FCB0
:101C0200A3E0FDA3E0FEA3E0FF900134E0F8A3E02F
:101C1200F9A3E0FAA3E0FBC31206A8700BC2AF90CF
:101C2200013AE04402F0D2AF90012CE0FEA3E0FFC3
:101C32007B017A01794175410175422CE4F5431229
:101C42001FB68F3BE53B700BC2AF90013AE04404F4
:101C5200F0D2AF90012CE0FEA3E0FF7B017A007985
:101C620000754B01754C2C1228828F3BE53B702D81
:101C7200900000E0FCA3E0FDA3E0FEA3E0FF9001E2
:101C820034E0F8A3E0F9A3E0FAA3E0FBC31206A84C
:101C9200700BC2AF90013AE04408F0D2AF90013A23
:101CA200E0B40F1AC2AFE4900138F0900004E0FFF4
:101CB200A3E090013BCFF0A3EFF0C21BD2AF7F01B4
:051CC2007E00022BBBB7
:102D6E008E468F47D2B712006BD3E5479400E546E7
:0D2D7E00940240037FFF22122DF87F0022F7
:0A2882008E468F478B488A49894A29
:10288C00E4F54DF54ED2A0122CD1C2B77F03122C19
:10289C005FAF47AE46122B63C3E54E954CE54D95A5
:1028AC004B5022122AE9AB48AA49A94AEF1205B3A8
:1028BC007401254AF54AE43549F549054EE54E7053
:1028CC00D7054D80D37F197E001228DFD2B7C2A066
:0228DC007F007B
:0128DE0022D7
:0A1EE4008B3C8A3D893E8C3F8D4007
:101EEE00754900754A20D2A0E4FF122CADE540AE34
:101EFE003F7805CEC313CE13D8F9F5488E47E4F5D7
:101F0E0041F542D3E5429548E54195474003021F0E
:101F1E00ACE542AE417805C333CE33CED8F92400BA
:101F2E00F546EE3406F545E542B5480EE541B547B2
:101F3E0009754900E540541FF54A122CD1C2B77FEE
:101F4E0002122C5FAF46AE45122B63E4F543F54407
:101F5E00C3E544954AE54395495022AB3CAA3DA9B9
:101F6E003E12056DFF122C5F7401253EF53EE435E1
:101F7E003DF53D0544E54470D7054380D37F197E7A
:101F8E00001228DFD2B77F197E001228DF122DF83B
:101F9E000542E5426003021F110541021F117F84B5
:071FAE00122CADC2A07F0060
:011FB5002209
:0A1FB6008E3C8F3D8B3E8A3F894030
:101FC000754A00754B20D2A0E542AE417805CEC3DC
:101FD00013CE13D8F9F5498E48E4F544F545D3E519
:101FE000459549E5449548400302207CE545AE44CB
:101FF0007805C333CE33CED8F9F53D8E3CE545B5F3
:10200000490EE544B54809754A00E542541FF54BB1
:10201000122CD1C2B77F02122C5FAF3DAE3C122B07
:1020200063E4F546F547C3E547954BE546954A50C9
:102030002DE543701AAB3EAA3FA94012056DFF1271
:102040002C5F74012540F540E4353FF53F8005E401
:10205000FF122C5F0547E54770CC054680C87F1905
:102060007E001228DFD2B77F197E001228DF122DE2
:10207000F80545E54570020544021FDEC2A07F0059
:01208000223D
:102CD100C2B77F0A7E001228DF7F06122C5F7F19A0
:102CE1007E001228DFD2B77F197E001228DF022D65
:012CF100F8EA
:102CAD008F4B122CD1C2B77F01122C5FAF4B122C60
:102CBD005F7F197E001228DFD2B77F197E001228A0
:042CCD00DF022DF8FD
:102D1200C2B77F05122C5F122AE98F4F7F197E00FE
:0E2D22001228DFD2B77F197E001228DFAF4FD4
:012D30002280
:082DF800122D12EF547170F866
:012E000022AF
:071B94004402FD0000000007
:0621FF007B007A007971FB
:082205008B4C8A4D894E8D4F70
:10220D00E4F550AB4CAA4DA94E12056D6014C3E513
:10221D0050648094E4500B05507F057E00122BBB5B
:10222D0080E1C3E550648094E4406DE4F584900250
:10223D00FD1206CC78101206B9C004C005C006C048
:10224D0007AF4FEF3395E0FEFDFC78181206B9D0BD
:10225D0003D002D001D000EF4BFFEE4AFEED49FD59
:10226D00EC48FCA804A905AA06AB07AFC2EFFE33E4
:10227D0095E0FDFCEA4EFAE94DF9E84CF8AFC1EBFB
:10228D004FFFEAFEE9FDE8FC90013D12070DAB4C56
:08229D00AA4DA94EE41205B39D
:0122A5002216
:032E0B00022B8F08
:102B28008F468D478B487F00122C0F7D031221FFA3
:102B3800757101C21A9002EDE546F09002F7740231
:102B4800F09002EFE547F0A3E548F0E49002EEF0DC
:0B2B5800F572F573F574F584D2C52208
:1029D5008F468D478B488A49894A7F00122C0F7D87
:1029E500071221FF757101C21A9002EDE546F090BC
:1029F50002F77401F09002EFE547F09002EEE54B27
:102A0500F0854872854973854A74E4F584D2C5FB1F
:092A15007A0079717D06022205A8
:10267000E4900301F012056DFF30E007900301E0E4
:102680004480F0EF30E107900301E04404F01205CC
:102690006D30E207900301E04410F012056DFF3049
:1026A000E307900301E04401F0EF30E407900301F9
:1026B000E04440F012056D30E507900301E0440866
:1026C000F012056DFF30E607900301E04420F0EFC3
:1026D00030E707900301E04402F0900301E00205B7
:0126E000B346
:101DDA00005EBCE2613FDD83C29C7E20A3FD1F4101
:101DEA009DC3217FFCA2401E5F01E3BD3E6082DCF1
:101DFA00237D9FC1421CFEA0E1BF5D0380DE3C62E1
:101E0A00BEE0025CDF81633D7C22C09E1D43A1FFD0
:101E1A004618FAA427799BC584DA3866E5BB5907C0
:101E2A00DB856739BAE406581947A5FB7826C49AB0
:101E3A00653BD987045AB8E6A7F91B45C6987A24A0
:101E4A00F8A6441A99C7257B3A6486D85B05E7B990
:101E5A008CD2306EEDB3510F4E10F2AC2F7193CD80
:101E6A00114FADF3702ECC92D38D6F31B2EC0E5070
:101E7A00AFF1134DCE90722C6D33D18F0C52B0EE60
:101E8A00326C8ED0530DEFB1F0AE4C1291CF2D7350
:101E9A00CA947628ABF517490856B4EA6937D58B40
:101EAA005709EBB536688AD495CB2977F4AA481630
:101EBA00E9B7550B88D6346A2B7597C94A14F6A820
:101ECA00742AC896154BA9F7B6E80A54D7896B3510
:0A1EDA00000000002B6096CBDDEE47
:031B9B0001630AD9
:1023E600151E151EA81EECF608EDF6151E151E1573
:1023F6001EA81EC6EBC608C6EAC608C6E9C6E51E7E
:0424060024FCF51E9F
:10240A00F80808E4F6A81EF608F6E51E2407F9A857
:10241A001EE6FE08E6FFC3099719E76480F8EE6432
:10242A0080985037E51E2404F8CBE6CB08E6FA0874
:10243A00E6F98F828E83120586A81E080866FFE5D4
:10244A001E2403F8EFF6E6901DDA93A81E0808F694
:10245A00A81E0806E61870B20680AFA81E0808E68D
:01246A00FF72
:07246B00E51E2409F51E2205
:07000300ED6F901DDA93FF81
:01000A0022D3
:102BE600EF7023F5847598D0F584759115F5847585
:102BF600C90875CBFFED901ED993F5CA75C804E4D4
:082C0600F584D2ACC2BCD2AFD0
:012C0E0022A3
:102A6600E4F569F568F567F566F56DF56CF56BF5F2
:102A76006A756264FFEF25E025E0247AF8E4F6EF54
:102A860025E025E0247BF8E4F6EF25E025E0247C2C
:102A9600F8E4F6EF25E025E0247DF8E4F60FBF0123
:012AA600D45B
:012AA700220C
:102D3100D2AFD2A9C2BBE4F584E589540F4401F5B1
:0F2D410089758E02758CAFE4F58AD28C022A66F2
:02234900151E5F
:10234B00A81EE4F6A81EE6FFC3940140030223E394
:10235B00EF25E025E0247DF8E6FFD394004052A85A
:10236B001EE625E025E0247BF8E67045EF30E0150E
:10237B00A81EE6FF25E025E0247DF8E6D394014076
:10238B00047D0080067D01A81EE6FF122AA8A81E68
:10239B00E6FF25E025E0247DF816E66014EF25E046
:1023AB0025E0247CF8E6FEEF25E025E0247BF8EE23
:1023BB00F6A81EE625E025E0247BF8E6600116A8CA
:1023CB001EE6FF25E025E0247DF8E670057D011271
:0823DB002AA8A81E0602234FE8
:0323E300051E22B2
:03000B000224FECE
:1024FE00C0E0C0F0C083C082C0D0E8C0E0E9C0E058
:10250E00EAC0E0EBC0E0ECC0E0EDC0E0EEC0E0EF12
:10251E00C0E0758CAFE5692401F569E43568F568AE
:10252E00E43567F567E43566F566D56218E56D2422
:10253E0001F56DE4356CF56CE4356BF56BE4356ADD
:10254E00F56A756264122349122CF2D0E0FFD0E0D6
:10255E00FED0E0FDD0E0FCD0E0FBD0E0FAD0E0F918
:0E256E00D0E0F8D0D0D082D083D0F0D0E032D0
:102C3800151EA81EEDF6151EA81EEFF6A81EE6FF27
:102C4800C39401500D08E6FEEF25E025E0247AF84C
:072C5800EEF6051E051E2229
:1025F700151E151EA81EEAF608EBF6151EA81EEDF9
:10260700F6151EA81EEFF6A81EE6FFC3940150524A
:10261700EF25E025E0247DF8E67047A81EE6FB25B8
:10262700E025E0247BF8E67039A81E08E625E004DB
:10263700FFA81EE6FA25E025E0247DF8EFF6A81EA0
:102647000808E6FE08E6FF7C007D0A1205F9EA2580
:10265700E025E0247CF8EFF6EB25E025E0247BF885
:09266700E4F6E51E2404F51E2230
:102AA800151EA81EEDF6151EA81EEFF6A81EE6FFB9
:102AB800C39401501CEF25E025E0247AF8E6601164
:102AC800A81E08E670047F0180027F00A81E08EF98
:102AD800F6A81EE6700608E624FF92A7051E051E46
:012AE80022CB
:0C2DC700C2AFAF69AE68AD67AC66D2AFBA
:012DD30022DD
:0C2DD400C2AFAF6DAE6CAD6BAC6AD2AF9D
:012DE00022D0
:102C0F00151EA81EEFF6A81EE67004F564F56530D4
:102C1F001C14E56375F064A4FFC3E5659FE5649537
:092C2F00F0500375FFA5051E22FB
:102D5000D21CE4F564F565EF6004F56380037563E8
:0E2D60000A75FF0775FFA5E4F58475EF0422E0
:0E2DB900C21CE4F564F56575FFDE75FFAD2202
:102CF2000565E56570020564301C14E56375F064D2
:102D0200A4FFC3E5659FE56495F0500375FFA52216
:042BBB008E518F5256
:102BBF00E4F553F554C3E5549552E553955150162A
:102BCF007FE87E031228DF7F01122C0F0554E55496
:062BDF0070E3055380DFE6
:012BE50022CD
:0428DF008E558F562D
:1028E300D3E55694FAE5559400500EEFD394004087
:1028F300407E1600DEFD1F80F2855557855658D35E
:10290300E55894FAE557940040157FFA7E001228A3
:10291300DF74062558F55874FF3557F55780E0D313
:10292300E5569400E55594004007AF58AE5712287A
:01293300DFC4
:012934002280
:1027B900754A00754B00754C447B007A0079427D5F
:0127C900020D
:0827CA008B468A4789488D49BE
:1027D2007F01122C0FAB4AAA4BA94C12062F2400E0
:1027E200FFE5F034E0FE85464D85474E85484FE4CF
:1027F200FDEDC39549501BEF2DF582E43EF583E4D0
:1028020093AB4DAA4EA94F8D827583001205C50D5B
:0F28120080DFAB4AAA4BA94CE48549F002065A75
:10214A00753D12753E3475450075460075473F7BEF
:07215A00007A00793D7D02CF
:082161008B418A4289438D4441
:102169007880E664F160030221FE122DB9C2AFE462
:10217900F58443B701758F01AB45AA46A9471206F5
:102189002F2400FFE5F034E07886F608EFF6AA423E
:10219900A943788AA64108C6EAC608C6E9C6E4780A
:1021A90088F67888E6C395445032788ACBE6CB081E
:1021B9000806E618CAE6CA70010614F912056D7810
:1021C90089F6E6FF78860806E618CCE6CC700106A3
:1021D90014F5828C83EFF078880680C6E4F58F5376
:1021E900B7F0AB45AA46A9478544F012065AD2AFC3
:0521F900E4FF122D506F
:0121FE0022BE
:102987007880E664F17046C2AF122DB9E4F584434E
:10299700B701758F03788776E008F67886F678872B
:1029A700E6FE08E6F5828E83E4F07F01122C0F78AD
:1029B70088E426F618740236F61806E6C39408402B
:0D29C700DDE4F58F53B7F0D2AFFF122D50B5
:0129D40022E0
:1022A600122987E4F53FF540F54575460075473F29
:1022B600FB7A0079087D1612216112214AE4F53C69
:1022C600E53CC3781F965073E4F53BAB77AA78A933
:1022D6007975F010E53BA4F58285F08312058660DA
:1022E60056E53B75F010A429F9EA35F0FA90000D91
:1022F6001207297894E6853CF0A429F9EA35F0FA24
:10230600EBC0E0EAC0E0E9C0E0AB77AA78A979754E
:10231600F010E53BA4F58285F083120586FD754530
:102326000075460075473FD0E0F9D0E0FAD0E0FBF3
:10233600122161053B8094053C808512214AE47890
:0223460080F61F
:012348002272
:03208100CCEFCCD5
:10208400E4F544F545F541F54A754B00754C44FBC0
:102094007A0079087D161227CA1227B9E5436434F9
:1020A4007004E54264127003434101EC70030221A1
:1020B40044E4F540E540C3781F965073E4F53FAB24
:1020C40077AA78A97975F010E53FA4F58285F083A5
:1020D4001205866056E53F75F010A429F9EA35F03B
:1020E400FA90000D1207297894E68540F0A429F9A6
:1020F400EA35F0FAEBC0E0EAC0E0E9C0E0AB77AA69
:1021040078A97975F010E53FA4F58285F08312056E
:1021140086FD754A00754B00754C44D0E0F9D0E05B
:10212400FAD0E0FB1227CA053F809405408085124F
:1021340027B9E54364347004E542641270058000F5
:05214400434102AF4120
:012149002273
:0C2DE100245265763A203433362024005A
:10144A00E47880F6122DB975840F75E104E4F5E2AB
:10145A0075E34475E105F5E275E34075A508C2B385
:10146A00F58475B7B075840F758A83F5974389013A
:10147A00758D01758F01758E04F53DF53E053EE5C6
:10148A003E7002053D640F453D70F2438902E4F562
:10149A003DF53EAE3DAF3EE4FCFD7B507AC3F9F824
:1014AA00D3120692400FE58920E40A053EE53E7014
:1014BA00E2053D80DE759702122D31E4F53DF53ED9
:1014CA007D01AF3E122C38053EE53E7002053DC354
:1014DA009401E53D940040E8E4F520C214C212C22A
:1014EA0018C217C2167880F6C28508F67890F618E0
:1014FA00F67895F6F53DF53E746D253EF582E434B1
:10150A0002F583E4F0053EE53E7002053D64404580
:10151A003D70E5E4F53DF53E74AD253EF582E434D3
:10152A0002F583E4F0053EE53E7002053D64404560
:10153A003D70E5E4F584E5EF20E10CE5EF5408D3CE
:10154A0094004003D38001C392037D08E4FF122B69
:10155A00E6E47894F6788DF6AB77AA78A979788D4F
:10156A00E6FF75F010A4F58285F083120586FE78F1
:10157A009426F6EE6005788D0680DDEFD394004060
:10158A0030AB77AA78A97990000D12072912056D58
:10159A00FF74551205B312056D64556002D21674B4
:1015AA00AA1205B312056D64AA6002D216EF1205DB
:1015BA00B3E4F584E5EF5402D3940040047F01803C
:1015CA0002E4FF1220818F3CE53C20E035C213740F
:1015DA00FFF508F509F50AF50B7E007F107D007B03
:1015EA00007A00790E12077F7542FF75432675440B
:1015FA00E77545007546107B007A00790E12293589
:10160A008002D213902DE8E493FF3395E0FEEF2495
:10161A00D0FFEE34FFFE7C007D641205E7AA06AB1C
:10162A0007902DE7E493FF3395E0FEEF24D0FFEE19
:10163A0034FFFE7C037DE81205E7EF2BFBEE3AFA56
:10164A00902DE9E493FF3395E0FEEF24D0FFEE34CA
:10165A00FFFE7C007D0A1205E7EF2BFFEE3AFEA3A0
:10166A00E493FD3395E0FCED24D0FDEC34FFCD2F5F
:10167A00F50DED3EF50CE53C30E103021736E4F5D5
:10168A003DF53EE53EC4F8540FC868FFE53DC45435
:10169A00F048FEAB77AA78A9798F82F5831205867E
:1016AA00700302172DE92FF9EA3EFA900004120599
:1016BA008620E264E4F53BE53BC3781F965059E582
:1016CA003EC4F8540FC868FFE53DC454F048AB77F0
:1016DA00AA78A9798F82F583120586FF7E00C00653
:1016EA00C0077D00E53EC4F8540FC868FFE53DC455
:1016FA0054F048FEE92FF9EA3EFA90000D12072944
:10170A007894E6853BF0A429F9EA35F0FAD007D0B7
:10171A000612077F053B809F053EE53E7002053DA8
:10172A0002168D7F011218E0C2158007E4FF121815
:10173A00E0D215E4F53DF53E7A007B967D03AF3E97
:10174A001225F7053EE53E7002053DC39401E53DCD
:04175A00940040E4D3
:01175E002268
:052E06007895E6FF22B3
:03002300021CC7F5
:101CC700C0E0C0F0C083C082C0D075D000C000C0E3
:101CD70001C002C003C004C005C006C00730993E5A
:101CE700C2997890067990E77881667015F67890B2
:011CF700F6F6
:0D1CF80075240A75251300D525FCD524F6AA
:041D0500C285801CF7
:0D1D090075241475251300D525FCD524F68E
:101D16007890E624ADF582E43402F583E0F5992067
:101D26009803021DBF209A08201405C298021DBB05
:101D3600C29A788FE606246DF582E43402F583E5CF
:101D460099F0C298E6FFB4011290026DE0FE7003AE
:101D5600F68066EE540724027896F6EFB4020D7804
:101D660096E6B4090790026EE02403F6788FE6FF44
:101D7600B4400476008042EFC3789696403B788F55
:101D8600E624FFFDE434FFFC7B017A02796D122321
:101D9600E6788FE6246CF582E43402F583E06F6022
:051DA60004760080142A
:0D1DAB0075241475251300D525FCD524F6EC
:101DB80012083D788F7600D007D006D005D004D021
:101DC80003D002D001D000D0D0D082D083D0F0D0C0
:021DD800E032F7
:10257C0090026EE075F010A4AB772579F9E578350B
:10258C00F0FA90000D1207297895E6FF18E68FF007
:10259C00A42528F582E435F0F583120586FF7B002F
:0425AC007A00792612
:1025B0008F358B368A378938E4F584EA494B601CBD
:1025C000AB36AA37A93812056DFFE535FD7C001240
:0C25D0000003AB36AA37A938EF1205B3A0
:0D25DC00753914753A1300D53AFCD539F65F
:0E25E9008535997F01122C0F3099FDC2992281
:092D8B00E4F5847881EFF6D285AD
:0D2D940075351475361300D536FCD535F6AF
:072DA1009002ADE0F599225C
:102A1E00C9EFC9E964017028EDC39B4034781FE605
:102A2E00FFEB2FFFE433FEEDC39FEE6480F874805E
:102A3E0098501ED214C3ED9B7895F67891760122AC
:102A4E00B90214ED6B700AD2147895F6789176026D
:082A5E0022C214E47891F62273
:10282100C9EFC9BAFF15BBFF12ED6B7002EC6A70FC
:1028310049D2147895F67891E9F622E96401702578
:10284100C3ED9BEC9A401C781FE62BFFE43AFEC3D4
:10285100ED9FEC9E500DD214C3ED9B7895F67891C7
:102861007601228015B90218ED6B7002EC6A700ACC
:10287100D2147895F67891760222C214E47891F612
:012881002234
:10083D0090026DE0FF54F8F527E4F584EF120759A7
:10084D00088A0908960A08A61008AF1108BF1208F1
:10085D00D31908E81A090A2009132809B2290AB47C
:10086D00330AE6370B15390B2F410B3A490B445020
:10087D000B8C610A7E700B849800000BBC90026E8D
:10088D00E0FDE509FB7F01802390026EE0FCA3E013
:10089D00FDAB09AA087F018027D214789176030257
:1008AD000BBC90026EE0FDE50BFB7F02122A1E02CF
:1008BD000BBC90026EE0FCA3E0FDAB0BAA0A7F021D
:1008CD00122821020BBC90026EE0FDE509FB7F01B1
:1008DD00122A1E201403020BBC801790026EE0FC3E
:1008ED00A3E0FDAB09AA087F011228212014030201
:1008FD000BBC9002AD7478F07F01020BB9E4F58466
:10090D0075EF10020BBCC2ACE4F526D285FB7A0064
:10091D0079267F7F1225B07B007A0079267F181209
:10092D0025B07B007A0079267F051225B0788DE6FB
:10093D001225A97B007A007926AF081225B07B001D
:10094D007A007926AF091225B07B007A007926AF9F
:10095D000A1225B07B007A007926AF0B1225B07BE9
:10096D00007A007926AF0C1225B07B007A0079262B
:10097D00AF0D1225B0E4F528740E2528F8E61225E2
:10098D00A90528E528C3941040EE7B007A00790074
:05099D00AF261225B099
:0D09A20075330A75341300D534FCD533F6D7
:1009AF00020A6990026EE0FFC3788D964003020A37
:1009BF0070EF75F010A42579F9E57835F08577306B
:1009CF00F5318932C2ACE4F526D285FB7A0079265F
:1009DF007F7F1225B07B007A0079267F0D1225B01C
:1009EF00AB30AA31A93212056D1225A9AB30AA314D
:1009FF00A9329000011225A6AB30AA31A93290007E
:100A0F00021225A6AB30AA31A9329000031225A6F7
:100A1F00AB30AA31A9329000041225A6E4F528AB19
:100A2F0030E5322405F9E43531FA7E00E92528F95D
:100A3F00EE3AFA12056D1225A90528E528C3940888
:0D0A4F0040DD7B007A007900AF261225B053
:0D0A5C0075330A75341300D534FCD533F61C
:100A6900C285D2AC020BBC9002AD7478F0E4A3F05D
:100A79007F02020BB9122DD478821207019002ADC0
:100A8900747CF07882E6A3F008E6A3F008E6A3F008
:100A990008E6A3F07C007D057B017A0279AD12237B
:100AA900E69002B2EFF07F06020BB990026EE0FF0A
:100AB900B4010BA3E0F508A3E0F509020B84EFB438
:100AC900020990026FE0F508020B8490026EE0B40F
:100AD9000308A3E0F50AA3E0F50B020B84E4F5286B
:100AE90090026EE0FFE528C39F501C746F2528F51E
:100AF90082E43402F583E0FF740E2528F8C6EFC6B8
:100B09000528E528B410D9E4F51D806F7A007B32F9
:100B19007D017895E6FF1225F790026EE0FDE4FF6E
:100B2900122BE6020BBC90026EE024FF9202020B2C
:100B3900BC90026EE024FF920180787895E660050A
:100B4900752A02800B201705752A038003752A016F
:100B59009002AD7479F0A3E52AF07C007D027B0157
:100B69007A0279AD1223E69002AFEFF07F03122DDE
:100B79008BE52A6401703CD2188002D21278807603
:100B8900F180307A007B327D017F001225F79002D7
:100B9900AD7479F090026EE09002AEF07C007D02B7
:100BA9007B017A0279AD1223E69002AFEFF07F0361
:100BB900122D8BE52764A06003020DCB90026DE036
:100BC90064A16003020CBBA3E0C3788D96400302C5
:100BD9000CB0AB77AA78A979E0FF75F010A4F5827B
:100BE90085F083120586F52AEF75F010A429F9EA34
:100BF90035F0FA90000412058630E23790026EE073
:100C0900122E018F2A9002AD747FF0A3E52AF024F9
:100C190002FDE433FC7B017A0279AD1223E674AF5D
:100C2900252AF582E43402F583EFF0E52A2403FF4F
:100C3900020DC890026EE0FF122E01C2ACE4F52647
:100C4900D285E52AD39406402B7B007A0079267F4A
:100C59007F1225B07B007A007926AF2A1225B0E4ED
:100C6900F528E528C3952A500712257C052880F226
:100C7900052A8018E52A24781225A9E4F528E5280B
:100C8900C3952A500712257C052880F27B007A003B
:070C99007900AF261225B01F
:0D0CA00075330A75341300D534FCD533F6D6
:100CAD00020DBA9002AD7478F07F01020DC890026A
:100CBD006DE064A26003020DCB788DE6FFA3E0FE2C
:100CCD00C39F4003020DC0A3E0FDC39F4003020D6F
:100CDD00C0EE9D4003020DC090026EE0F528E4F5D4
:100CED002EF52F90026FE0FFE528D39F5026AF28F9
:100CFD00122E01AB77AA78A97975F010E528A4F525
:100D0D008285F083120586252FF52FE4352EF52EDD
:100D1D00052880CFC2ACE4F526D285FB7A00792672
:100D2D007F7F1225B0C3E52F9480E52E94005002ED
:100D3D008007E52E44801225A9AF2F1225AA900217
:100D4D006EE0F52890026FE0FFE528D39F5046E452
:100D5D00F529AB77AA78A97975F010E528A4F58265
:100D6D0085F083120586FFE529C39F5024E528757C
:100D7D00F010A429F9EA35F0FA90000D1207297840
:100D8D0095E6FF18E68FF0A4252912259F052980E9
:100D9D00C1052880AF7B007A007900AF261225B0FF
:0D0DAD0075330A75341300D534FCD533F6C8
:100DBA00C285D2AC800B9002AD7478F07F01122DFF
:100DCA008BE5276458704DFA7B327D017895E6FFF2
:100DDA001225F7753801753902753AAE7B017A0228
:100DEA00796E12003E8F2AE52A24789002ADF0EF40
:100DFA002401FDE433FC7B017A0279AD1223E67407
:100E0A00AE252AF582E43402F583EFF0E52A2402BE
:100E1A00FF122D8BE52764806009E527648860034B
:100E2A00020FDA7891E6B4010F7A007B327D0178FD
:100E3A0095E6FF1225F7801AE4F528E528C3781FFE
:100E4A0096500F7A007B327D01AF281225F70528CC
:100E5A0080E990026DE05407F52AB4070A75290162
:100E6A00A3E0F52AA38006E4F52990026EE0F52BAB
:100E7A00152AE52BC3788D964003020FAEAB77AAED
:100E8A0078A97975F010E52BA4F58285F08312050F
:100E9A0086FFE52AD39F40028F2A7891E6B401099A
:100EAA007895E6F52DF52C8009E4F52C781FE614E3
:100EBA00F52D7895A62C7895E6D3952D4003020F4B
:100ECA00A2E4F528E528C3952A4003020F97E52BEB
:100EDA0075F010A4AB772579F9E57835F0FA90002A
:100EEA000412058630E203020F9290000112058671
:100EFA0064387041E52AD394044011E52925282451
:100F0A006FF582E43402F583E0FD805E788FE6C3F4
:100F1A009528FFE49400FE746B2FF58274023EF567
:100F2A0083E0FDE52B75F010A4AB772579F9E57818
:100F3A0035F0FA8035AB77AA78A97975F010E52BE8
:100F4A00A4F58285F083120586FFC3788FE69F2574
:100F5A00282529246CF582E43402F583E0FDE52B8B
:100F6A0075F010A429F9EA35F0FA90000D12072954
:100F7A007895E6FF18E68FF0A4FFE5282FF582E4BE
:100F8A0035F0F583ED1205C50528020ECEAF2B12FA
:100F9A002DA8789506020EC07895A62CE5276488B8
:100FAA00702E8010E52BB4FF2790026FE0F520E544
:100FBA0027B4881C9002AD7478F0788FE6246CF51B
:100FCA0082E43402F583E09002AEF07F02122D8BA8
:010FDA0022F4
:10D000007880E664F1600302D60CE4F540F54178DF
:04D0100081E6601F36
:0DD0140075460A75471300D547FCD546F652
:10D021000541E5417002054064107004E540642744
:10D0310070DCC2AF7584015398FC75FFDE75FFADDE
:10D04100E4F53CF53BE4F58420982EE4F540F54108
:0ED05100209822C3E5419488E54094135017BF
:0DD05F0075460A75471300D547FCD546F607
:10D06C000541E54170DF054080DBB2A780CF859993
:10D07C003BC298E53B641A600302D14CF540F54184
:0ED08C00209822C3E5419488E5409413501784
:0DD09A0075460A75471300D547FCD546F6CC
:10D0A7000541E54170DF054080DB30989285993C6A
:10D0B700C298E4F540F541209822C3E5419488E5FC
:05D0C700409413501716
:0DD0CC0075460A75471300D547FCD546F69A
:10D0D9000541E54170DF054080DB20980302D04619
:10D0E90085993CC298E4F540F541209822C3E54171
:08D0F9009488E54094135017E0
:0DD1010075460A75471300D547FCD546F664
:10D10E000541E54170DF054080DB20980302D046E3
:09D11E0085993CC298D285C299A2
:0DD1270075461475471300D547FCD546F634
:06D134007599783099FDA9
:0DD13A0075460A75471300D547FCD546F62B
:10D14700C28502D5FEE53B6450600302D1DCF540A1
:10D15700F541209822C3E5419488E5409413501780
:0DD1670075460A75471300D547FCD546F6FE
:10D174000541E54170DF054080DB20980302D0467D
:09D1840085993CC298D285C2993C
:0DD18D0075461475471300D547FCD546F6CE
:08D19A007599793099FDC299E5
:0DD1A20075461475471300D547FCD546F6B9
:08D1AF007599013099FDC29948
:0DD1B70075461475471300D547FCD546F6A4
:06D1C400E4F5993099FD2D
:0DD1CA0075460A75471300D547FCD546F69B
:0FD1D700C28502D5FEE53B6401703ED285C29948
:0DD1E60075461475471300D547FCD546F675
:08D1F3007599783099FDC2998D
:0DD1FB0075461475471300D547FCD546F660
:06D20800E4F5993099FDE8
:0DD20E0075460A75471300D547FCD546F656
:10D21B00C28502D5FEE53B6402600302D2E2F54013
:10D22B00F541209822C3E5419488E54094135017AB
:0DD23B0075460A75471300D547FCD546F629
:10D248000541E54170DF054080DB20980302D046A8
:10D2580085993CC298E4F53DE53C13B392A7E53CBB
:10D2680025E0FEC3E49400EE94D0502AE53C7F000C
:10D2780025E0FEC394E0501EE53C20E01FE4F58461
:10D2880043B701758F038E428F438F828E83F0538D
:10D29800B7F0F58F8003753DFFE4F584D285C29918
:0DD2A80075461475471300D547FCD546F6B2
:08D2B5007599783099FDC299CA
:0DD2BD0075461475471300D547FCD546F69D
:06D2CA00853D993099FD3D
:0DD2D00075460A75471300D547FCD546F694
:10D2DD00C28502D5FEE53B6403600302D42DF54003
:10D2ED00F541209822C3E5419488E54094135017E9
:0DD2FD0075460A75471300D547FCD546F667
:10D30A000541E54170DF054080DB20980302D046E5
:10D31A0085993CC298E4F540F541209822C3E5413D
:08D32A009488E54094135017AC
:0DD3320075460A75471300D547FCD546F631
:10D33F000541E54170DF054080DB20980302D046B0
:10D34F0085993EC298E53C1392A7E53C25E0FEC3C4
:10D35F00E49400EE94D0400302D046E53C7D0025D6
:10D36F00E0FCC394E0400302D046E4F58443B701E8
:10D37F00758F01E53E75F020A42DFFE5F03CF542D9
:10D38F008F43E4F584F53FE53FC394205048E4F51F
:10D39F0040F541209822C3E5419488E5409413500D
:01D3AF001766
:0DD3B00075460A75471300D547FCD546F6B3
:10D3BD000541E54170DF054080DB20980302D04632
:10D3CD000543E543AE427002054214F5828E83E5B6
:10D3DD0099F0C298053F80B1E4F58453B7F0F58F0D
:06D3ED00F584D285C2990F
:0DD3F30075461475471300D547FCD546F666
:08D400007599783099FDC2997D
:0DD4080075461475471300D547FCD546F650
:06D41500E4F5993099FDD9
:0DD41B0075460A75471300D547FCD546F647
:10D42800C28502D5FEE53B6404600302D4DDF54005
:10D43800F541209822C3E5419488E540941350179C
:0DD4480075460A75471300D547FCD546F61A
:10D455000541E54170DF054080DB20980302D04699
:10D4650085993CC298E53C25E0F544754500E4F511
:10D475003DF540F5410545E545AE447002054414CA
:10D48500F5828E83E493253DF53D0541E541700226
:0ED4950005407004E540640270DBD285C29948
:0DD4A30075461475471300D547FCD546F6B5
:08D4B0007599783099FDC299CD
:0DD4B80075461475471300D547FCD546F6A0
:06D4C500853D993099FD40
:0DD4CB0075460A75471300D547FCD546F697
:10D4D800C28502D5FEE53B6405600302D5F3F5403D
:10D4E800F541209822C3E5419488E54094135017EC
:0DD4F80075460A75471300D547FCD546F66A
:10D505000541E54170DF054080DB20980302D046E8
:10D5150085993CC298E4F540F541209822C3E54140
:08D525009488E54094135017AF
:0DD52D0075460A75471300D547FCD546F634
:10D53A000541E54170DF054080DB20980302D046B3
:09D54A0085993EC298D285C29970
:0DD5530075461475471300D547FCD546F604
:08D5600075997F3099FDC29915
:0DD5680075461475471300D547FCD546F6EF
:10D575007599203099FDE53C25E0FCE53E75F020E8
:10D58500A42400FFE5F03CF5448F45E4F53DF53F67
:02D59500C29939
:0DD5970075461475471300D547FCD546F6C0
:10D5A400854582854483E493F5993099FD0545E5E5
:10D5B40045AE447002054414F5828E83E493253D00
:0BD5C400F53D053FE53FB420C8C299CB
:0DD5CF0075461475471300D547FCD546F688
:06D5DC00853D993099FD28
:0DD5E20075460A75471300D547FCD546F67F
:10D5EF00C285800BE53BB40606E4F58475EF10E5C4
:0DD5FF003B6407600302D0467880F6D2AF8F
:01D60C0022FB
:10274E007F00122C0F20130B7A007B327D017F004D
:10275E001225F730160B7A007B1E7D017F001225A5
:10276E00F73012173017147A007B327D017895E618
:10277E00FF1225F7C2121222A6D21320150C301703
:10278E0009788076F11222A6D21530180830170576
:10279E00C21812D000201712122DC7E47B2C7A011A
:0B27AE00F9F8C31206A85002D217224F
:0B2DED0012144A12274E121BA280F89D
:06006B00E4F584D2A4229A
:10000E00E4F5847F32FE1228DFD2A37F327E001207
:05001E0028DFC2A3224F
:022C5F008F5094
:102C6100E4F584755107AF51E550A807088002C308
:102C710013D8FC1392A412000E1551C3E5516480C0
:042C8100948050E209
:012C8500222C
:042B63008E4F8F50B2
:102B6700E4F58475510FE550AE4FA851088005CEA6
:102B7700C313CE13D8F91392A412000E1551C3E54F
:072B8700516480948050DFCF
:012B8E002224
:102AE900E4F550F551F552F5847550077F327E00B3
:102AF9001228DFA2A1E433F551AF50A807088002DC
:102B0900C333D8FC4252D2A37F327E001228DFC2DF
:0E2B1900A31550C3E5506480948050D0AF5295
:012B2700228B
:031B9E00016E00D5
:102B8F00E56E7027756E01F571758401F5C8F5C98D
:102B9F00F5CAF5CBF5CCF5CD75C804F58475C043F2
:0B2BAF0043F60243E60243E701D2AF09
:012BBA0022F8
:03003B0002175F4A
:10175F00C0E0C083C082C0D075D000C000C001C03F
:0B176F0002C003C004C005C006C00794
:10177A00C208AFC1EF12075917A40817AA1017BD5C
:10178A001817DA2017E42818343018384018474850
:10179A00185450189158000018AF756F00757000F2
:1017AA009002EDE025E0FFA21AE4334FF5C2C2C56C
:1017BA000218B19002F7E0FFAD70ED3395E0FCC37B
:1017CA00ED9F7480F86C9850028025D2080218B1F7
:1017DA00301902806BD2080218B19002F7E0FFAD0F
:1017EA0070ED3395E0FCC3ED9F7480F86C98501946
:1017FA00AF700570EF3395E0FE74EF2FF582740237
:10180A003EF583E0F5C20218B19002EEE0FFAD6F3B
:10181A00ED3395E0FCC3ED9F7480F86C985009D2C3
:10182A001AC2C4D2C50218B18074D2C48079900297
:10183A00EEE0B40104C2C2806ED2C2806A301906D8
:10184A00D2C4D2C58061D208805D9002EEE0FF1456
:10185A00B56F04C2C28002D2C2AD6FED3395E0FC0F
:10186A00C3ED9F7480F86C985019AB72AA73A9746F
:10187A00AF6FEF3395E08F82F583E5C21205C50598
:10188A006F8024D2088020AB72AA73A974AF6FEF5D
:10189A003395E08F82F583E5C21205C5056FD2C480
:1018AA007571008002D20830081153C0BF43C0408E
:0D18BA00C2C5C2C4C2C2757100C208C2C35B
:1018C700D007D006D005D004D003D002D001D00075
:0918D700D0D0D082D083D0E032E1
:0300730002002662
:1000260075840053C0BF43C04075840153C87F75B3
:0300360071003224
:1000760074F8CC6480CCC86480C8F582046043C33D
:10008600EB9FF5F0EA9E42F0E99D42F0E89C45F0D0
:1000960060305018E5825FFFE582F42B5582FB50F5
:1000A600210ABA001D09B90019088016E5825BFB12
:1000B600E582F42F5582FF50090EBE00050DBD00E6
:1000C600010CC3EB9FF5F0EA9E42F0E99D42F0E891
:0D00D6009C45F06007CC4820E701B3EC2208
:100FDB00E55D2449F8E6055D227846301002784934
:100FEB00E475F00112071902056D2009EB7F2ED273
:100FFB00098018EF540F2490D43440D4FF300D0BDC
:10100B00EF24BFB41A0050032461FFE55E600215A4
:10101B005E0561E5617002056030100D7846E47580
:10102B00F001120719EF0205B3022C867403D210DC
:10103B008003E4C210F55D8B468A478948E4F55E70
:10104B00F560F561E55E60077F2012101680F5757F
:10105B005FFFC20AC209C20BC20CC20EC20FC21181
:10106B00120FE4FF700D3010057F00121027AF61D7
:10107B00AE6022B4255FC2D5C20D120FE4FF24D09F
:10108B00B40A00501A75F00A785E30D50508B6FF21
:10109B000106C6A426F620D5047002D20C80D924F2
:1010AB00CFB41A00EF5004C2E5D20D021314D20ACA
:1010BB0080C6D20980C0D20B80BCD2D580BAD20EEA
:1010CB0080B47F20121016200B077401B55E004010
:1010DB00F1120FDBFF12101602104FD211D20F803C
:1010EB0095120FDBFB120FDBFA120FDBF94A4B7079
:1010FB0006790B7A147BFF200B2EE55E602A7E00AF
:10110B008E8275830012058660060EEE655F70F0A9
:10111B00C2D5EBC0E0EAC0E0E9C0E0EE121374D038
:10112B00E0F9D0E0FAD0E0FB12056DFF60AAEBC04E
:10113B00E0EAC0E0E9C0E0121016D0E02401F9D0DB
:10114B00E03400FAD0E0FBE55F0460DCD55FD980CA
:10115B0087D20B80A212135760F7E55F7001041260
:10116B0000E3A95F600DE55F600914F55F1213FEE4
:10117B00EF60F3EA30E702F404C3995077EAF42501
:10118B005F0430E701E404F55F800D12135760C173
:10119B00EA055F255F1200E3EA785CF630E701E4CD
:1011AB00255F04D55F04200E0114121374E4C0E014
:1011BB001213FE785CE6601320E70714F6120FFE9D
:1011CB00802204F6D0E014C0E07F00120FFEE55F32
:1011DB006007120FF5155F800B300E03120FF5D061
:1011EB00E002104FD0E00480C512135760A0E55FFA
:1011FB00041200E3785CEAF6E55F200E026001045E
:05120B0024041213741D
:1012100074FF04C0E01213FE120FFEE55F200E0201
:101220006003120FF5D0E0B55FE87F451210087833
:101230005CE67F2B30E7047F2DF404C0E01210162B
:10124000D0E075F00A84C0F0120FFFD0E0120FFF5B
:1012500002104F791080027908C20FC2118008D2A3
:10126000D5790A8004790AC2D5E55F047002F55F7A
:10127000E4FAFDFEFF120FDBFC7B08200A13120FBD
:10128000DBFD7B1030090A120FDBFE120FDBFF7B48
:1012900020EC3382D592D55013C3E43009069FFF6A
:1012A000E49EFEE4200A039DFDE49CFCE4CBF8C22E
:1012B0000AEC700CCFCECDCCE824F8F870F3801790
:1012C000C3EF33FFEE33FEED33FDEC33FCEB33FBCA
:1012D000994002FB0FD8E9EB300A05F8D0E0C4488A
:1012E000B20AC0E00AEC4D4E4F78207B0070C2EA93
:1012F000B55F0040BCC0E0121376D0F0D0E0200A09
:1013000004C4C0E0C4B20AC0F0120FFFD0F0D5F0A0
:10131000EB02104F12075910EC5312535810BD4CEA
:1013200010B94212574F125F44125F4910D2431254
:10133000655511964611F445116047142B5010C1A4
:101340002D10C52E10E82B10C92310E62014142AE6
:10135000108148000010E0E55FB4FF03755F0612DE
:101360000FDBFC120FDBFD120FDBFE120FDBFF7831
:1013700055020112790AA2D5200C14300E09B910B9
:10138000020404B9080104A2D5200F025001042070
:101390000B68920BB55E005034C0E07F20300C1912
:1013A0007F30A20B720F720E500F1213CDC20BC200
:1013B0000FC20EC2117F30800F300E03E9C0E01261
:1013C0001016300E03D0E0F9D0E0B55ECC300E1729
:1013D0007F30B9100C1210167F58300D077F7880BF
:1013E00003B90803121016300B057F2D0210167F6B
:1013F000202011F87F2B200FF322920B80CF7F004B
:10140000B4070050052455F8E6FF22286E756C6C71
:101410002900D20A120FDB300AF8C20A785E30D5F2
:101420000108F60210812D50434958120FDB2403A6
:10143000B405004001E490142693121007743A1288
:0A1440001007D20C755E040212536F
:1000E300F920E72824F950037907E4F42402FB18E4
:1000F300DBFDE624FB5014E9600DE4F618E604F694
:0F010300B40A08E4F6D9F57401F60A22C2D5222F
:10011200ED33EC3392D5FA602AB4FF33EDC2E77BBC
:10012200FF60067A017937E4227A01794020D5040A
:100132007A01793B224E614E002B494E46002D49F1
:100142004E4600E47A08F608DAFC7B00740722E8DF
:10015200C0E0ECC0E0EDC0E0EEC0E0EFC0E0EA7568
:10016200F010A4CAABF075F04DA42BFBE435F0FC03
:10017200EA2410FAEB34C5FBEC34D9FCEDC2E7FFFC
:1001820075F056A4F42411C5F0F434C58FF0A42AF6
:10019200E5F03BE43CF620E7141204E3D0E0FFD0A4
:1001A200E0FED0E0FDD0E0FC1204168014F404124C
:1001B20004E3D0E0FFD0E0FED0E0FDD0E0FC12038B
:1001C2000DD0E0F8E6FAEDD2E7CD33EC332482FB32
:1001D200E4C3CF33CFCE33CECD33CD33DBF37B0786
:1001E20075F00A846004F6081B0AE5F0F6088FF041
:1001F200740AA4FFACF08EF0740AA42CFEACF0508A
:10020200010C8DF0740AA42CFDE435F0F608DBDE57
:030212007407224C
:10021500020558E86480F8E933E83360110460F0BA
:10022500ED33EC337009E8FCE9FDEAFEEBFF22044F
:1002350060DED3EB9FEA9EE99DE8C2E78CF0C2F74A
:1002450095F0400CE8CCF8E9CDF9EACEFAEBCFFB16
:1002550012052385D0F05804700320D5B3E8047047
:10026500075002B2D502056292D5EC0460F7E4CCE2
:10027500C0E0C398F8603B94186008400DD0E0FBDF
:1002850002053AE4FBFAC9FC8028E830E406E4C933
:10029500FBE4CAFCE830E305E4C9CACBFCE8540733
:1002A5006010F8C3E913F9EA13FAEB13FBEC13FC3E
:1002B500D8F130F52FC3E49CFCEF9BFFEE9AFEEDE1
:1002C50099FDD0E0FBEF4E4D4C701222DB03020589
:1002D5005FEC2CFCEF33FFEE33FEED33FDED30E745
:1002E500EB02053AEF2BFFEE3AFEED39FDD0E0FBD0
:1002F50050130BBB0003020562ED13FDEE13FEEF79
:0803050013FFEC13FC02053AA2
:10030D00EC4D6011E8497017ED33EC3304600DE4EA
:10031D00FCFFFEFD22E933E8330470F802055812A4
:10032D00052358046009E4CC2481500628500902A5
:10033D00056228400302055FC0E0EB4A7044B980B6
:10034D0006D0E0FB02054EEF4E701CBD8008EBFFA2
:10035D00EAFEE9FD80EBE98DF0A4FEE5F00203F67F
:10036D00E9CDF9EAFEEBFFEF89F0A4FCE5F0CE89CB
:10037D00F0A42EFFE435F0CD89F0A42DFEE435F088
:10038D008067EF4E7005BD80D780C3EF8BF0A4ACB6
:10039D00F0EE8BF0A42CFCE435F0F8EF8AF0A42CF1
:1003AD00E5F038FCE433CB8DF0A42CFCE5F03BF804
:1003BD00EE8AF0A42CFCE5F038F8E433CF89F0A4F4
:1003CD002CFCE5F038CF3400CE89F0A42FFFE5F0FA
:1003DD003EFEE433C98DF0A42EFEE5F039CD8AF052
:1003ED00A42FFFE5F03EFEE43DFD33D0E0FB5007CA
:1003FD000BBB000F020562EC2CFCEF33FFEE33FE5E
:06040D00ED33FD02053A8B
:10041300020562EC5D046005E859047003020558A7
:10042300120523580460F6EC4860F2EC7004FDFEFC
:10043300FF22C860DB2481C85009C39860025006BC
:1004430002055F9850CAF582E9294B4A7005AB82D1
:1004530002054E75F0007C1A7880C3EF9BEE9AED8F
:1004630099400DC3EF9BFFEE9AFEED99FDE842F034
:10047300DC23ACF0D0E0FFD0E0FED0E0FDAB822087
:10048300E7101BEB60BAEC2CFCEF33FFEE33FEED11
:1004930033FD02053AE803F830E705C0F075F000D4
:1004A300EF2FFFEE33FEED33FD40B830E7C280AAF5
:1004B3003F8000004120000042C80000447A000051
:1004C300461C400047C35000497424004B189680D3
:1004D3004CBEBC205A0E1BCA6753C21C749DC5AECA
:1004E300FB60065407601C2323120511EB5438608C
:1004F300091204FD12050C12030DECF8EDF9EEFAE6
:10050300EFCB22EB12050C80F1543803241C90042A
:10051300B3FE93FC0EEE93FD0EEE930ECE93FF22ED
:10052300E9D2E7C933E833F892D5EDD2E7CD33EC1E
:0705330033FC5002B2D52297
:10053A00EC30E7100FBF000C0EBE00080DBD000422
:10054A000BEB6014A2D5EB13FCED92E7FD2274FFCE
:10055A00FCFDFEFF22E480F8A2D574FF13FC7D8027
:03056A00E480EF3B
:0300000002247265
:0C247200787FE4F6D8FD7581960224B94D
:10056D00BB010689828A83E0225002E722BBFE028C
:09057D00E32289828A83E49322BF
:10058600BB010CE58229F582E5833AF583E022502A
:1005960006E92582F8E622BBFE06E92582F8E22274
:0D05A600E58229F582E5833AF583E493228E
:1005B300BB010689828A83F0225002F722BBFE0127
:0205C300F32221
:1005C500F8BB010DE58229F582E5833AF583E8F06C
:1005D500225006E92582C8F622BBFE05E92582C818
:0205E500F22200
:1005E700EF8DF0A4A8F0CF8CF0A428CE8DF0A42E28
:0205F700FE22E2
:1005F900C2D5EC30E709B2D5E4C39DFDE49CFCEE1D
:1006090030E715B2D5E4C39FFFE49EFE1207ABC3E2
:10061900E49DFDE49CFC80031207AB30D507C3E4DD
:060629009FFFE49EFE228B
:10062F00BB010A89828A83E0F5F0A3E02250068796
:10063F00F009E71922BBFE07E3F5F009E319228958
:0B064F00828A83E493F5F0740193228B
:10065A00BB010789828A83020800500B09C5F0276B
:10066A00F7C5F01937F722BBFE0D09F8E325F0F3B9
:10067A00C5F019E338F322F889828A837401932535
:08068A00F0C5F0F8E4933822FA
:10069200EB9FF5F0EA9E42F0E99D42F0EC6480C8DF
:0606A20064809845F0227F
:1006A800EB9FF5F0EA9E42F0E99D42F0E89C45F0A8
:0106B800221F
:1006B900E8600FEFC333FFEE33FEED33FDEC33FC9F
:0306C900D8F12243
:1006CC007401FF3395E0FEFDFCA3A3A3E0CF2FF054
:1006DC00E582158270021583E0CE3EF0E58215822C
:1006EC0070021583E0CD3DF0E58215827002158312
:0506FC00E0CC3CF022FF
:0C070100ECF608EDF608EEF608EFF62224
:0C070D00ECF0A3EDF0A3EEF0A3EFF0225F
:10071900FAE6FB0808E6F925F0F618E6CA3AF622E1
:10072900BB010DE58229F582E5833AF58302081FAD
:100739005007E92582F8020816BBFE07E92582F869
:10074900020828E58229F582E5833AF58302083112
:10075900D083D082F8E4937012740193700DA3A32F
:1007690093F8740193F5828883E473740293686043
:06077900EFA3A3A380DF43
:102C8600EFB40A07740D122C91740A309811A899A2
:102C9600B8130CC2983098FDA899C298B811F630AE
:072CA60099FDC299F5992286
:102935008B3F8A408941E4F547F548E5461546AEA3
:1029450045700215454E6033AB42AA43A9441205B2
:102955006DFFAB3FAA40A9410548E548AC47700269
:10296500054714F5828C83EF1205C5EF60CD740120
:102975002544F544E43543F54380C0AB3FAA40A95F
:022985004122ED
:10077F00EF4E6012EF60010EEDBB010B89828A8391
:10078F00F0A3DFFCDEFA2289F05007F709DFFCA99E
:0C079F00F022BBFEFCF309DFFCA9F022F5
:10247E00022DEDE493A3F8E493A34003F68001F25A
:10248E0008DFF48029E493A3F85407240CC8C3335F
:10249E00C4540F4420C8834004F456800146F6DF2E
:1024AE00E4800B0102040810204080901A4DE47E57
:1024BE00019360BCA3FF543F30E509541FFEE49323
:1024CE00A360010ECF54C025E060A840B8E493A3EA
:1024DE00FAE493A3F8E493A3C8C582C8CAC583CA15
:1024EE00F0A3C8C582C8CAC583CADFE9DEE780BECD
:011BA1000043
:1007AB00BC000BBE0029EF8DF084FFADF022E4CC32
:1007BB00F875F008EF2FFFEE33FEEC33FCEE9DECFB
:1007CB00984005FCEE9DFE0FD5F0E9E4CEFD22ED41
:1007DB00F8F5F0EE8420D21CFEADF075F008EF2F8B
:1007EB00FFED33FD4007985006D5F0F222C398FD7C
:0507FB000FD5F0EA2219
:10080000C5F0F8A3E028F0C5F0F8E5821582700283
:060810001583E038F02220
:09081600E6FB08E6FA08E6F92207
:09081F00E0FBA3E0FAA3E0F922DA
:09082800E2FB08E2FA08E2F92201
:0C083100E493FB740193FA740293F92223
:00000001FF
