:0C36E900245265763A203931312024004B
:10126E00E47880F612370075E10175E24075A490BE
:10127E0075B283E4F5A9123650E4F53BF53C7D01D9
:10128E00AF3C122F71053CE53C7002053BC3940246
:10129E00E53B940040E8E4F520C20AC208C20EC243
:1012AE000DC20C7880F6C28308F67885F618F678AB
:1012BE008AF6F53BF53C748C253CF8E4F6053CE5E6
:1012CE003C7002053B6414453B70EBE4F53BF53C8A
:1012DE0074A0253CF8E4F6053CE53C7002053B6441
:1012EE0008453B70EBE5EF20E10CE5EF5408D39495
:1012FE00004003D38001C392037D08E4FF122FBC8C
:10130E00E47889F67882F6AB71AA72A9737882E6D0
:10131E00FF75F010A4F58285F0831203D2FE788952
:10132E0026F6EE600578820680DDEFD3940040301D
:10133E00AB71AA72A97390000D1205E51203B9FFE5
:10134E0074551203FF1203B964556002D20C74AACD
:10135E001203FF1203B964AA6002D20CEF1203FF4C
:10136E00E5EF5402D3940040047F018002E4FF12A3
:10137E0023F68F3AE53A20E035C20974FFF508F5F9
:10138E0009F50AF50B7E007F107D007B007A00794F
:10139E000E12063B7540FF7541167542DF75430010
:1013AE007544107B007A00790E122BD98002D20977
:1013BE009036F0E493FF3395E0FEEF24D0FFEE3449
:1013CE00FFFE7C007D64120433AA06AB079036EF55
:1013DE00E493FF3395E0FEEF24D0FFEE34FFFE7C66
:1013EE00037DE8120433EF2BFBEE3AFA9036F1E46C
:1013FE0093FF3395E0FEEF24D0FFEE34FFFE7C002A
:10140E007D0A120433EF2BFFEE3AFEA3E493FD3375
:10141E0095E0FCED24D0FDEC34FFCD2FF50DED3E27
:10142E00F50CE53A30E1030214E6E4F53BF53CE554
:10143E003CC4F8540FC868FFE53BC454F048FEABFB
:10144E0071AA72A9738F82F5831203D270030214EC
:10145E00DDE92FF9EA3EFA9000041203D220E2648D
:10146E00E4F539E539C378B5965059E53CC4F854DE
:10147E000FC868FFE53BC454F048AB71AA72A9735C
:10148E008F82F5831203D2FF7E00C006C0077D0057
:10149E00E53CC4F8540FC868FFE53BC454F048FE61
:1014AE00E92FF9EA3EFA90000D1205E57889E685F6
:1014BE0039F0A429F9EA35F0FAD007D00612063B26
:1014CE000539809F053CE53C7002053B02143D7FCB
:1014DE000112150FC20B8007E4FF12150FD20BE499
:1014EE00F53BF53C7A007B967D03AF3C1228500508
:1014FE003CE53C7002053BC39402E53B940040E49E
:01150E0022BA
:05001D00788AE6FF22D5
:030023000220F2C6
:1020F200C0E0C0F0C083C082C0D075D000C000C0B4
:1021020001C002C003C004C005C006C00730993A2E
:10211200C2997885067985E77881667016F67885A2
:01212200F6C6
:0E21230075220A0075230300D523FCD522F592
:04213100C2838017CE
:0E2135007522140075230300D523FCD522F576
:102143007885E624A0F8E6F5992098030221DB20A0
:102153009A07200A04C298807BC29A7884E60624F0
:102163008CF8A699C2987884E6FFB40113788CE6BC
:10217300FE70057884F68060EE54072402788BF6AF
:10218300EFB4020E788BE6B40908788DE624037960
:102193008BF77884E6FFB414047600803BEFC378B2
:1021A3008B9640347884E624FFFDE434FFFC7B0007
:1021B3007A00798C1226BA7884E6248BF8E66F606D
:0321C30002801186
:0E21C6007522140075230300D523FCD522F5E5
:1021D4001207A178847600D007D006D005D004D0A9
:1021E40003D002D001D000D0D0D082D083D0F0D0A0
:0221F400E032D7
:1028C900788DE675F010A4AB712573F9E57235F0D2
:1028D900FA90000D1205E5788AE6FF18E68FF0A454
:1028E9002526F582E435F0F5831203D2FF7B007AC1
:0328F9000079243F
:1028FC008F338B348A358936EA494B60161203B90B
:10290C00FFE533FD7C00120003AB34AA35A936EF8A
:03291C001203FFA4
:0E291F007537140075380300D538FCD537F530
:0E292D008533997F01122F483099FDC29922FF
:06366B007881EFF6D28326
:0E3671007533140075340300D534FCD533F5E1
:06367F0078A0E6F5992297
:102CC900C9EFC9E964017028EDC39B403478B5E6C2
:102CD900FFEB2FFFE433FEEDC39FEE6480F87480B1
:102CE90098501ED20AC3ED9B788AF678867601221F
:102CF900B90214ED6B700AD20A788AF678867602E0
:082D090022C20AE47886F622DA
:102A7000C9EFC9BAFF15BBFF12ED6B7002EC6A70AB
:102A800049D20A788AF67886E9F622E96401702547
:102A9000C3ED9BEC9A401C78B5E62BFFE43AFEC3ED
:102AA000ED9FEC9E500DD20AC3ED9B788AF6788696
:102AB0007601228015B90218ED6B7002EC6A700A7B
:102AC000D20A788AF67886760222C20AE47886F6F6
:012AD00022E3
:1007A100788CE6FF54F8F525EF12061507EA0907DC
:1007B100F50A080410080D11081C12082F19084326
:1007C1001A0862200868280908290A0C330A3B37ED
:1007D1000A61390A7A410A83490A8C500AD06109AF
:1007E100D2700AC89800000AFB788DE6FDE509FB86
:1007F1007F018021788DE6FC08E6FDAB09AA087F20
:10080100018025D20A78867603020AFB788DE6FDFF
:10081100E50BFB7F02122CC9020AFB788DE6FC086E
:10082100E6FDAB0BAA0A7F02122A70020AFB788D41
:10083100E6FDE509FB7F01122CC9200A03020AFB30
:100841008016788DE6FC08E6FDAB09AA087F011247
:100851002A70200A03020AFB78A076787F01020A37
:10086100F875EF12020AFBC2ACE4F524D283FB7ADD
:100871000079247F7F1228FC7B007A0079247F187D
:100881001228FC7B007A0079247F051228FC7882EB
:10089100E61228F57B007A007924AF081228FC7B48
:1008A100007A007924AF091228FC7B007A007924B0
:1008B100AF0A1228FC7B007A007924AF0B1228FCC6
:1008C1007B007A007924AF0C1228FC7B007A007936
:1008D10024AF0D1228FCE4F526740E2526F8E61245
:1008E10028F50526E526C3941040EE7B007A0079B1
:0608F10000AF241228FCF8
:0E08F70075310A0075320300D532FCD531F59B
:100905000209BF788DE6FFC378829640030209C6C7
:10091500EF75F010A42573F9E57235F085712EF5A4
:100925002F8930C2ACE4F524D283FB7A0079247F89
:100935007F1228FC7B007A0079247F0D1228FCABFE
:100945002EAA2FA9301203B91228F5AB2EAA2FA96A
:10095500309000011228F2AB2EAA2FA93090000288
:100965001228F2AB2EAA2FA9309000031228F2AB61
:100975002EAA2FA9309000041228F2E4F526AB2EFA
:10098500E5302405F9E4352FFA7E00E92526F9EE50
:100995003AFA1203B91228F50526E526C39408404C
:0C09A500DD7B007A007900AF241228FCF2
:0E09B10075310A0075320300D532FCD531F5E0
:1009BF00C283D2AC020AFB78A07678E408F67F02F5
:1009CF00020AF81236DC78B612057678A0767C78B3
:1009DF00B6E678A1F678B7E678A2F678B8E678A307
:1009EF00F678B9E678A4F67C007D057B007A00796D
:1009FF00A01226BA78A5EFF67F06020AF8788DE6E0
:100A0F00FFB4010B08E6F50808E6F509020AC8EF7E
:100A1F00B40208788EE6F508020AC8788DE6B403AA
:100A2F000808E6F50A08E6F50B020AC8E4F526E51C
:100A3F0026C3788D965016748E2526F8E6FF740E11
:100A4F002526F8C6EFC60526E526B410E2E4F51D07
:100A5F0080677A007B327D01788AE6FF1228507812
:100A6F008DE6FDE4FF122FBC020AFB788DE624FF12
:100A7F0092028078788DE624FF9201806F788AE663
:100A8F006005752802800B200D05752803800375FE
:100A9F00280178A0767908A6287C007D027B007A51
:100AAF000079A01226BA78A2EFF67F0312366BE513
:100ABF002864017037D20E8002D208788076F180D8
:100ACF002B7A007B327D017F0012285078A0767937
:100ADF00788DE678A1F67C007D027B007A0079A004
:100AEF001226BA78A2EFF67F0312366BE52564A0C3
:100AFF006003020CF9788CE664A16003020BF379B2
:100B0F008DE7C37882964003020BEAAB71AA72A9F4
:100B1F0073788DE6FF75F010A4F58285F0831203CC
:100B2F00D2F528EF75F010A429F9EA35F0FA900004
:100B3F00041203D230E230788DE6FF12370A8F2885
:100B4F0078A0767F08A628E5282402FDE433FC7BF5
:100B5F00007A0079A01226BA74A22528F8EFF6E5DC
:100B6F00282403FF020CF6788DE6FF12370AC2AC79
:100B7F00E4F524D283E528D39406402B7B007A003A
:100B8F0079247F7F1228FC7B007A007924AF28120A
:100B9F0028FCE4F526E526C3952850071228C90539
:100BAF002680F205288018E52824781228F5E4F528
:100BBF0026E526C3952850071228C9052680F27B03
:0A0BCF00007A007900AF241228FC20
:0E0BD90075310A0075320300D532FCD531F5B6
:100BE700020CEA78A076787F01020CF6788CE6642E
:100BF700A26003020CF97882E6FF788DE6FEC39FB8
:100C07004003020CF008E6FDC39F4003020CF0EE20
:100C17009D4003020CF018E6F526E4F52CF52DE5CA
:100C270026D3788E965026AF2612370AAB71AA7252
:100C3700A97375F010E526A4F58285F0831203D217
:100C4700252DF52DE4352CF52C052680D2C2ACE4F4
:100C5700F524D283FB7A0079247F7F1228FCC3E531
:100C67002D9480E52C940050028007E52C448012D7
:100C770028F5AF2D1228F6788DE6F526E526D378E8
:100C87008E965046E4F527AB71AA72A97375F010DA
:100C9700E526A4F58285F0831203D2FFE527C39FDB
:100CA7005024E52675F010A429F9EA35F0FA9000EA
:100CB7000D1205E5788AE6FF18E68FF0A4252712BE
:100CC70028EB052780C1052680B27B007A007900D2
:050CD700AF241228FC0F
:0E0CDC0075310A0075320300D532FCD531F5B2
:100CEA00C283D2AC800978A076787F0112366BE590
:100CFA002564587047FA7B327D01788AE6FF12280C
:100D0A00507536007537007538A17B007A00798DE9
:100D1A00122EF08F28E528247878A0F6E5282401F9
:100D2A00FDE433FC7B007A0079A01226BA74A1256F
:100D3A0028F8EFF6E5282402FF12366BE5256480D1
:100D4A006009E52564886003020EE07886E6B4014E
:100D5A000F7A007B327D01788AE6FF122850801ACA
:100D6A00E4F526E526C378B596500F7A007B327DE6
:100D7A0001AF26122850052680E9788CE65407F53B
:100D8A0028B4070A75270108E6F528088005E4F55E
:100D9A0027788DE6F5291528E529C3788296400338
:100DAA00020EBEAB71AA72A97375F010E529A4F5FB
:100DBA008285F0831203D2FFE528D39F40028F2851
:100DCA007886E6B40109788AE6F52BF52A8009E4E3
:100DDA00F52A78B5E614F52B788AA62A788AE6D316
:100DEA00952B4003020EB2E4F526E526C39528406A
:100DFA0003020EA7E52975F010A4AB712573F9E576
:100E0A007235F0FA9000041203D230E203020EA205
:100E1A009000011203D264387031E528D39404405B
:100E2A000BE5272526248EF8E6FD804E7884E6C356
:100E3A009526FF748A2FF8E6FDE52975F010A4AB14
:100E4A00712573F9E57235F0FA802FAB71AA72A990
:100E5A007375F010E529A4F58285F0831203D2FF99
:100E6A00C37884E69F25262527248BF8E6FDE52905
:100E7A0075F010A429F9EA35F0FA90000D1205E58B
:100E8A00788AE6FF18E68FF0A4FFE5262FF582E4BC
:100E9A0035F0F583ED1204110526020DF4AF29127F
:100EAA003634788A06020DE6788AA62AE525648809
:100EBA007024800FE529B4FF1D788EE6F520E5251C
:100ECA00B4881378A076787884E6248BF8E678A13B
:060EDA00F67F0212366BE8
:010EE00022EF
:103000007880E664F16003023613E4F53EF53F781C
:0430100081E66020D5
:0E30140075440A0075450300D545FCD544F50A
:10302200053FE53F7002053E64107004E53E6427EB
:1030320070DBC2AFE4F5D9F53AF53920982FE4F503
:103042003EF53F209823C3E53F9488E53E94135014
:013052001865
:0E30530075440A0075450300D545FCD544F5CB
:10306100053FE53F70DE053E80DAB28680CE859968
:1030710039C298E539641A6003023146F53EF53FDD
:0E308100209823C3E53F9488E53E9413501831
:0E308F0075440A0075450300D545FCD544F58F
:10309D00053FE53F70DE053E80DA30989385993A1D
:1030AD00C298E4F53EF53F209823C3E53F9488E5AB
:0530BD003E94135018C1
:0E30C20075440A0075450300D545FCD544F55C
:1030D000053FE53F70DE053E80DA20980302303D73
:1030E00085993AC298E4F53EF53F209823C3E53F21
:0830F0009488E53E941350188A
:0E30F80075440A0075450300D545FCD544F526
:10310600053FE53F70DE053E80DA20980302303D3C
:0931160085993AC298D283C2994E
:0E311F007544140075450300D545FCD544F5F4
:06312D007599783099FD50
:0E31330075440A0075450300D545FCD544F5EA
:10314100C283023605E539645060030231DBF53E86
:10315100F53F209823C3E53F9488E53E941350182A
:0E31610075440A0075450300D545FCD544F5BC
:10316F00053FE53F70DE053E80DA20980302303DD3
:09317F0085993AC298D283C299E5
:0E3188007544140075450300D545FCD544F58B
:083196007599793099FDC29989
:0E319E007544140075450300D545FCD544F575
:0831AC007599013099FDC299EB
:0E31B4007544140075450300D545FCD544F55F
:0631C200E4F5993099FDCF
:0E31C80075440A0075450300D545FCD544F555
:0F31D600C283023605E53964017041D283C29984
:0E31E5007544140075450300D545FCD544F52E
:0831F3007599783099FDC2992D
:0E31FB007544140075450300D545FCD544F518
:06320900E4F5993099FD87
:0E320F0075440A0075450300D545FCD544F50D
:10321D00C283023605E539640260030232E2F53EEF
:10322D00F53F209823C3E53F9488E53E941350184D
:0E323D0075440A0075450300D545FCD544F5DF
:10324B00053FE53F70DE053E80DA20980302303DF6
:10325B0085993AC298E4F53BE53A13B39286E53A81
:10326B0025E0FEC3E49400EE94305027E53A7F004E
:10327B0025E0FEC3943A501B758F038E408F41752A
:10328B00B7A57880E6F5B7854182854083E4F0F5F4
:0A329B008F8003753BFFD283C299B8
:0E32A5007544140075450300D545FCD544F56D
:0832B3007599783099FDC2996C
:0E32BB007544140075450300D545FCD544F557
:0632C900853B993099FDE0
:0E32CF0075440A0075450300D545FCD544F54D
:1032DD00C283023605E5396403600302342CF53EE2
:1032ED00F53F209823C3E53F9488E53E941350188D
:0E32FD0075440A0075450300D545FCD544F51F
:10330B00053FE53F70DE053E80DA20980302303D35
:10331B0085993AC298E4F53EF53F209823C3E53FE3
:08332B009488E53E941350184C
:0E33330075440A0075450300D545FCD544F5E8
:10334100053FE53F70DE053E80DA20980302303DFF
:1033510085993CC298E53A139286E53A25E0FEC389
:10336100E49400EE9430400302303DE53A7D0025BF
:10337100E0FCC3943A400302303D758F01E53C7592
:10338100F020A42DFFE5F03CF5408F41E4F53DE54B
:103391003DC394205051E4F53EF53F209823C3E509
:0933A1003F9488E53E9413501896
:0E33AA0075440A0075450300D545FCD544F571
:1033B800053FE53F70DE053E80DA20980302303D88
:1033C80075B7A57880E6F5B70541E541AE407002CE
:1033D800054014F5828E83E599F0C298053D80A8D2
:0733E800E4F58FD283C299C6
:0E33EF007544140075450300D545FCD544F522
:0833FD007599783099FDC29921
:0E3405007544140075450300D545FCD544F50B
:06341300E4F5993099FD7B
:0E34190075440A0075450300D545FCD544F501
:10342700C283023605E539640460030234E0F53EE1
:10343700F53F209823C3E53F9488E53E9413501841
:0E34470075440A0075450300D545FCD544F5D3
:10345500053FE53F70DE053E80DA20980302303DEA
:1034650085993AC298E53A25E0F542754300E4F5B9
:103475003BF53EF53F0543E543AE42700205421478
:10348500F5828E83E493253BF53B053FE53F7002CE
:0E349500053E7004E53E640270DBD283C299EE
:0E34A3007544140075450300D545FCD544F56D
:0834B1007599783099FDC2996C
:0E34B9007544140075450300D545FCD544F557
:0634C700853B993099FDE0
:0E34CD0075440A0075450300D545FCD544F54D
:1034DB00C283023605E539640560030235FDF53E0E
:1034EB00F53F209823C3E53F9488E53E941350188D
:0E34FB0075440A0075450300D545FCD544F51F
:10350900053FE53F70DE053E80DA20980302303D35
:1035190085993AC298E4F53EF53F209823C3E53FE3
:083529009488E53E941350184C
:0E35310075440A0075450300D545FCD544F5E8
:10353F00053FE53F70DE053E80DA20980302303DFF
:09354F0085993CC298D283C2990F
:0E3558007544140075450300D545FCD544F5B7
:0835660075997F3099FDC299AF
:0E356E007544140075450300D545FCD544F5A1
:10357C007599203099FDE53A25E0FCE53C75F02085
:10358C00A42400FFE5F03CF5428F43E4F53BF53D08
:02359C00C299D2
:0E359E007544140075450300D545FCD544F571
:1035AC00854382854283E493F5993099FD0543E583
:1035BC0043AE427002054214F5828E83E493253BA0
:0B35CC00F53B053DE53DB420C7C2996A
:0E35D7007544140075450300D545FCD544F538
:0635E500853B993099FDC1
:0E35EB0075440A0075450300D545FCD544F52E
:1035F900C2838008E539B4060375EF12E53964071B
:0A360900600302303D7880F6D2AF76
:013613002294
:10293B007F00122F4820090B7A007B327D017F002C
:10294B00122850300C0B7A007B1E7D017F00122861
:10295B0050300817300D147A007B327D01788AE6EF
:10296B00FF122850C20812257BD209200B0C300D08
:10297B0009788076F112257BD20B300E08300D05CD
:10298B00C20E123000200D121236CFE47B2C7A01CE
:0B299B00F9F8C312050B5002D20D2208
:0B36F50012126E12293B120EE180F849
:101FE800005EBCE2613FDD83C29C7E20A3FD1F41F1
:101FF8009DC3217FFCA2401E5F01E3BD3E6082DCE1
:10200800237D9FC1421CFEA0E1BF5D0380DE3C62D0
:10201800BEE0025CDF81633D7C22C09E1D43A1FFC0
:102028004618FAA427799BC584DA3866E5BB5907B0
:10203800DB856739BAE406581947A5FB7826C49AA0
:10204800653BD987045AB8E6A7F91B45C6987A2490
:10205800F8A6441A99C7257B3A6486D85B05E7B980
:102068008CD2306EEDB3510F4E10F2AC2F7193CD70
:10207800114FADF3702ECC92D38D6F31B2EC0E5060
:10208800AFF1134DCE90722C6D33D18F0C52B0EE50
:10209800326C8ED0530DEFB1F0AE4C1291CF2D7340
:1020A800CA947628ABF517490856B4EA6937D58B30
:1020B8005709EBB536688AD495CB2977F4AA481620
:1020C800E9B7550B88D6346A2B7597C94A14F6A810
:1020D800742AC896154BA9F7B6E80A54D7896B3500
:0A20E8000000000000002B96B9DD97
:032E1D0001650A42
:1026BA00151E151EA81EECF608EDF6151E151E159C
:1026CA001EA81EC6EBC608C6EAC608C6E9C6E51EA7
:0426DA0024FCF51EC9
:1026DE00F80808E4F6A81EF608F6E51E2407F9A881
:1026EE001EE6FE08E6FFC3099719E76480F8EE645C
:1026FE0080985037E51E2404F8CBE6CB08E6FA089E
:10270E00E6F98F828E831203D2A81E080866FFE5B3
:10271E001E2403F8EFF6E6901FE893A81E0808F6AD
:10272E00A81E0806E61870B20680AFA81E0808E6B6
:01273E00FF9B
:07273F00E51E2409F51E222E
:07000300ED6F901FE893FF71
:01000A0022D3
:102FBC00EF701B7598D0E589540F4420F589438E2A
:102FCC0008ED9020E793F58DD28ED2ACC2BCD2AF77
:012FDC0022D2
:102D9D00E4F56BF56AF569F568F56FF56EF56DF5AA
:102DAD006C756464FFEF25E025E02476F8E4F6EF1A
:102DBD0025E025E02477F8E4F6EF25E025E02478FA
:102DCD00F8E4F6EF25E025E02479F8E4F60FBF02EC
:012DDD00D421
:012DDE0022D2
:10365000D2AFD2A9C2BBE589540F4401F589E4F584
:0B3660008E758CAFF58AD28C022D9D78
:02261E00151E87
:10262000A81EE4F6A81EE6FFC3940240030226B7E4
:10263000EF25E025E02479F8E6FFD394004052A886
:102640001EE625E025E02477F8E67045EF30E0153A
:10265000A81EE6FF25E025E02479F8E6D3940140A2
:10266000047D0180067D00A81EE6FF122C7CA81EBA
:10267000E6FF25E025E02479F816E66014EF25E072
:1026800025E02478F8E6FEEF25E025E02477F8EE53
:10269000F6A81EE625E025E02477F8E6600116A8F6
:1026A0001EE6FF25E025E02479F8E67004FD122CF3
:0726B0007CA81E060226248F
:0326B700051E22DB
:03000B000227D2F7
:1027D200C0E0C0F0C083C082C0D0E8C0E0E9C0E081
:1027E200EAC0E0EBC0E0ECC0E0EDC0E0EEC0E0EF3C
:1027F200C0E0758CAFE56B2401F56BE4356AF56AD0
:10280200E43569F569E43568F568D56418E56F243F
:1028120001F56FE4356EF56EE4356DF56DE4356CFA
:10282200F56C75646412261E123614D0E0FFD0E0F7
:10283200FED0E0FDD0E0FCD0E0FBD0E0FAD0E0F941
:0E284200D0E0F8D0D0D082D083D0F0D0E032F9
:102F7100151EA81EEDF6151EA81EEFF6A81EE6FFEB
:102F8100C39402500D08E6FEEF25E025E02476F813
:072F9100EEF6051E051E22ED
:10285000151E151EA81EEAF608EBF6151EA81EED9D
:10286000F6151EA81EEFF6A81EE6FFC394025052EE
:10287000EF25E025E02479F8E67047A81EE6FB2561
:10288000E025E02477F8E67039A81E08E625E00484
:10289000FFA81EE6FA25E025E02479F8EFF6A81E49
:1028A0000808E6FE08E6FF7C007D0A120445EA25DA
:1028B000E025E02478F8EFF6EB25E025E02477F832
:0928C000E4F6E51E2404F51E22D5
:102C7C00151EA81EEDF6151EA81EEFF6A81EE6FFE3
:102C8C00C39402501CEF25E025E02476F8E6601191
:102C9C00A81E08E670047F0180027F00A81E08EFC2
:102CAC00F6A81EE6700608E624FF9286A81EE6B477
:0D2CBC00010608E624FF92B1051E051E2248
:0C36CF00C2AFAF6BAE6AAD69AC68D2AFA1
:0136DB0022CC
:0C36DC00C2AFAF6FAE6EAD6DAC6CD2AF84
:0136E80022BF
:102F4800151EA81EEFF6A81EE67004F566F5673094
:102F58000F14E56575F064A4FFC3E5679FE5669502
:092F6800F05003E4F5FE051E2201
:102FDD00D20FE4F566F567EF6004F565800375655E
:102FED000AE4F5D975FDFF75D940F5FE75EF06229A
:0A370000C20FE4F566F567F5D92263
:103614000567E56770020566300F14E56575F064AB
:10362400A4FFC3E5679FE56695F05003E4F5FE2229
:042F1D008E3D8F3E18
:102F2100E4F53FF540C3E540953EE53F953D50163C
:102F31007FE87E03122B2D7F01122F480540E540CB
:062F410070E3053F80DF94
:012F47002267
:042B2D008E608F61C6
:102B3100D3E56194FAE5609400500FEFD39400401F
:102B410041007E0300DEFD1F80F1856062856163C7
:102B5100D3E56394FAE562940040157FFA7E001292
:102B61002B2D74062563F56374FF3562F56280E0F1
:102B7100D3E5619400E56094004007AF63AE621253
:022B81002B2DFA
:012B8300222F
:1029A600754800754900754A427B007A0079407D7A
:0129B600021E
:0829B7008B448A4589468D47D7
:1029BF007F01122F48AB48AA49A94A12047B240071
:1029CF00FFE5F0343AFE85444B85454C85464DE492
:1029DF00FDEDC39547501BEF2DF582E43EF583E4E3
:1029EF0093AB4BAA4CA94D8D827583001204110D28
:0F29FF0080DFAB48AA49A94AE48547F00204A645
:1024BF00753B12753C3475430075440075453D7B83
:0724CF00007A00793B7D0259
:0824D6008B3F8A4089418D42D1
:1024DE007880E664F1600302257A123700C2AF7588
:1024EE00EF06758F01AB43AA44A94512047B240065
:1024FE00FFE5F0343A78BAF608EFF6AA40A941782B
:10250E00BEA63F08C6EAC608C6E9C6E478BCF67899
:10251E00BCE6C39542503C78BECBE6CB080806E637
:10252E0018CAE6CA70010614F91203B978BDF67519
:10253E00B7A57880E6F5B778BDE6FF78BA0806E667
:10254E0018CCE6CC70010614F5828C83EFF078BCC3
:10255E000680BCE4F58F53B6F0AB43AA44A945857B
:0C256E0042F01204A6D2AFE4FF122FDDF1
:01257A00223E
:102B84007880E664F1704DC2AF12370075EF0675B8
:102B94008F0378BB763A087600E478BAF675B7A561
:102BA4007880E6F5B778BBE6FE08E6F5828E83E426
:102BB400F07F01122F4878BCE426F618740236F62A
:102BC4001806E6C3940140D5E4F58F53B6F0D2AFAE
:042BD400FF122FDDE0
:012BD80022DA
:10257B00122B84E4F53DF53EF54375440075453D5E
:10258B00FB7A0079087D161224D61224BFE4F53AA3
:10259B00E53AC378B5965073E4F539AB71AA72A9D5
:1025AB007375F010E539A4F58285F0831203D260C0
:1025BB0056E53975F010A429F9EA35F0FA90000DBB
:1025CB001205E57889E6853AF0A429F9EA35F0FA9F
:1025DB00EBC0E0EAC0E0E9C0E0AB71AA72A9737589
:1025EB00F010E539A4F58285F0831203D2FD754313
:1025FB000075440075453DD0E0F9D0E0FAD0E0FB22
:10260B001224D605398094053A80851224BFE478CC
:02261B0080F647
:01261D00229A
:0323F600CCEFCC5D
:1023F900E4F542F543F53FF548754900754A42FB56
:102409007A0079087D161229B71229A6E5416434A4
:102419007004E54064127003433F01EC7003022429
:10242900B9E4F53EE53EC378B5965073E4F53DABA6
:1024390071AA72A97375F010E53DA4F58285F08340
:102449001203D26056E53D75F010A429F9EA35F07A
:10245900FA90000D1205E57889E6853EF0A429F980
:10246900EA35F0FAEBC0E0EAC0E0E9C0E0AB71AAF6
:1024790072A97375F010E53DA4F58285F083120306
:10248900D2FD754800754900754A42D0E0F9D0E09F
:10249900FAD0E0FB1229B7053D8094053E808512EC
:1024A90029A6E54164347004E54064127005800092
:0524B900433F02AF3FAC
:0124BE0022FB
:032FFD0002370F89
:061B4F008F3A8D3B8B3C38
:101B550090025412058E000000007D00AF3A7E0011
:101B6500122E8EAD07AF3C7E00122E8EAD07AF3D17
:101B75007E00122E8EAD07AF3B7E00122E8E8F4853
:101B8500E53C6403701BFDAF3FFE122E8EAD07AF23
:101B95003E7E00122E8EAD07AF487E00122E8E8F30
:101BA50048754501754714E5457003021C9BE547DB
:101BB5007003021C9BAF41AE401236B7AF41AE4039
:101BC5001236B7AD41AC40AF3A122A0EAF41AE4026
:101BD5001236B7AD41AC40AF3C122A0EAD41AC4018
:101BE500AF3D122A0EE53C70028028AD41AC40AFF6
:101BF5003B122A0EE53BB4F6028018E53C640370FF
:101C050026AD41AC40AF3F122A0EAD41AC40AF3ED0
:101C1500122A0E85424D85434E85444FAB41AA405D
:101C25007DFFAF48021ED9E53C64017064E53D6463
:101C350002705EE545603C85424D85434E85444FC7
:101C4500AB41AA40E4FDAF48121ED98F46E5467068
:101C550022900254E0FCA3E0FDA3E0FEA3E0FFAB6D
:101C650042AA43A94412055612002D9002541205AA
:101C7500821545E545701A900254E0FCA3E0FDA3EA
:101C8500E0FEA3E0FFAB42AA43A94412053C7F0056
:081C9500221547021BACAF460B
:011C9D002224
:081ED9008F498D4A8A4B8B4CA6
:101EE100E4F552AF4CAE4B122D11E5496F60037F03
:101EF100FF22EFF4B549037FFD22E54AB4FF037FDA
:101F01000122E54A6003021FE5AF4CAE4B122D11D1
:101F11008F50AF4CAE4B122D118F51AF4CAE4B12B7
:101F21002D118F527D00AF507E00122E8EAD07AF66
:101F3100517E00122E8EEF655260037FFE22E55125
:101F410030E7096351FFE550F404F550E551FE7C9B
:101F510000E42550FFEC3EFE900258F0A3EFF0FDA7
:101F6100AC06EC120336E4FBFA79807842120227C0
:101F7100AB4DAA4EA94F12053CAB4DAA4EA94FC07D
:101F810003C002C00112051C7BCC7A5D795B783FEE
:101F9100120029D001D002D00312053CAB4DAA4E4C
:101FA100A94F12051CE4FBFA79C878421202C44019
:101FB10017AB4DAA4EA94F12051CE4FBFA79207804
:101FC100C11202C4600540037FFA22AB4DAA4EA99B
:101FD1004F12051C7BCC7A5D795B78BF1202C4700D
:061FE100037FFB227F00DC
:011FE70022D7
:1021F60000070E091C1B1215383F363124232A2DE1
:1022060070777E796C6B6265484F464154535A5DD0
:10221600E0E7EEE9FCFBF2F5D8DFD6D1C4C3CACDC0
:1022260090979E998C8B8285A8AFA6A1B4B3BABDB0
:10223600C7C0C9CEDBDCD5D2FFF8F1F6E3E4EDEAA0
:10224600B7B0B9BEABACA5A28F88818693949D9A90
:102256002720292E3B3C35321F18111603040D0A80
:102266005750595E4B4C45426F68616673747D7A70
:10227600898E878095929B9CB1B6BFB8ADAAA3A460
:10228600F9FEF7F0E5E2EBECC1C6CFC8DDDAD3D450
:10229600696E676075727B7C51565F584D4A434440
:1022A600191E171005020B0C21262F283D3A333430
:1022B6004E49404752555C5B7671787F6A6D646320
:1022C6003E39303722252C2B0601080F1A1D141310
:1022D600AEA9A0A7B2B5BCBB9691989F8A8D848300
:1022E600DED9D0D7C2C5CCCBE6E1E8EFFAFDF4F3F0
:102E8E00151EA81EA605151E151EA81EA60608A60A
:102E9E0007A81E0808E6FFA81EE6FE08E66F24F641
:102EAE00F58274213EF583E493FF051E051E051E73
:012EBE0022F1
:03370F0002000EA7
:0F000E00EF64014E7002C2B37F027E00022F1D0D
:10369F00EF64014E7011D2B37F0CFE122B2DC2B30B
:0836AF007F047E00122B2D2286
:1036B700EF64014E7011D2B37F04FE122B2DC2B3FB
:0836C7007F0C7E00122B2D2266
:102E5600EF64014E7031D2B37F01FE122B2DC2B347
:102E66007F087E00122B2DE59A5440C41313540399
:102E7600FFBF010A7F087E00122B2D7F01227F08EB
:082E86007E00122B2D7F0022BB
:062A0E008F498C4A8D4B3C
:102A1400E4900258F0A3F0A3F0900259F0A37407D5
:102A2400F0900259E0FEA3E0FFC3EE64809480407E
:102A34003AE549A807088002C313D8FC5401900260
:102A440058F07009AF4BAE4A1236B7800E90025858
:102A5400E0B40117AF4BAE4A12369F90025AE024FD
:0B2A6400FFF0900259E034FFF080B654
:012A6F002244
:042D11008E538F54FA
:102D1500E490025AF0A3F0A3F07407F0AF54AE5359
:102D2500122E5690025AEFF0A3E0FFA3E0FE9002A8
:102D35005AE0FDA806088002C333D8FC4F90025B19
:102D4500F0A3E014F0E0C36480948050CF90025B60
:022D5500E0FF9D
:012D57002259
:1022F60000316253C4F5A697B988DBEA7D4C1F2EE0
:102306004372211087B6E5D4FACB98A93E0F5C6DCF
:1023160086B7E4D5427320113F0E5D6CFBCA99A8BF
:10232600C5F4A796013063527C4D1E2FB889DAEBAF
:102336003D0C5F6EF9C89BAA84B5E6D7407122139F
:102346007E4F1C2DBA8BD8E9C7F6A594033261508F
:10235600BB8AD9E87F4E1D2C02336051C6F7A4957F
:10236600F8C99AAB3C0D5E6F4170231285B4E7D66F
:102376007A4B1829BE8FDCEDC3F2A190073665545F
:1023860039085B6AFDCC9FAE80B1E2D3447526174F
:10239600FCCD9EAF38095A6B4574271681B0E3D23F
:1023A600BF8EDDEC7B4A192806376455C2F3A0912F
:1023B6004776251483B2E1D0FECF9CAD3A0B58691F
:1023C60004356657C0F1A293BD8CDFEE79481B2A0F
:1023D600C1F0A3920534675678491A2BBC8DDEEFFF
:1023E60082B3E0D1467724153B0A5968FFCE9DACEF
:102EBF00151EA81EA605151E151EA81EA60608A6D9
:102ECF0007A81E0808E6FFA81EE6FE08E66F24F610
:102EDF00F58274223EF583E493FF051E051E051E41
:012EEF0022C0
:03371200022F98EB
:042F98008E5A8F5B63
:102F9C00E55B6401455A7004D296C290E4F55CAFCF
:0F2FAC005BAE5A123685055CE55CC3940940F0B4
:012FBB0022F3
:102DDF00EF64014E7037D2967F05FE122B2DD290E5
:102DEF007F057E00122B2DC2967F057E00122B2DA4
:102DFF00C2907F057E00122B2DD2907F057E001290
:0E2E0F002B2DD2967F057E00122B2DC2902215
:10368500EF64014E7013C2907F05FE122B2DD29070
:0A3695007F057E00122B2DC290224B
:062AD1008F5A8C5B8D5C46
:102AD700E55C6401455B70419002747407F09002F5
:102AE70074E0FFC364809480401DE55AA8070880FE
:102AF70002C313D8FC139296AF5CAE5B1236859077
:102B07000274E014F080D7D2967F0A7E00122B2D34
:102B1700AF5CAE5B123685D296900275E0B40103C6
:052B27007F00227F0188
:012B2C002286
:062C2B008F5A8C5B8D5CEA
:102C3100E4F55EF55FE55C6401455B703BD296753A
:102C41005D07A296E433F55FAF5CAE5B123685AFEC
:102C51005DE55FA807088002C333D8FC425E155DBD
:102C6100C3E55D6480948050D9E55A24FF9296AF04
:0A2C71005CAE5B123685D296AF5EB2
:012C7B002236
:0337150002371266
:061DC8008B3A8A3B893CC6
:101DCE00755201755302755462755501755602753B
:101DDE005763854C58854D597B017A02795E7D019A
:101DEE0012186E90025CEFF0755201755302755425
:101DFE0062755501755602755763854C58854D5958
:101E0E007B017A0279607D0212186E90025DEFF00E
:101E1E00900263E0AB49AA4AA94B1203FF900262FB
:101E2E00E0AB46AA47A9481203FF90025EE0FFA36B
:101E3E00E0AB3DAA3EA93FCF8FF01204DE900260C8
:101E4E00E0FFA3E0AB3AAA3BA93CCF8FF01204DE31
:101E5E00900260E0FCA3E0FDE412033690025412FF
:101E6E00058290025EE0FCA3E0FDE41203369002D0
:101E7E00581205827551017552027553587B017ABD
:101E8E00027954121C9E900254E0FCA3E0FDA3E0E4
:101E9E00FEA3E0FFAB40AA41A94212053C900258B6
:101EAE00E0FCA3E0FDA3E0FEA3E0FFAB43AA44A940
:101EBE004512053C90025CE06004A3E0700AAF4D51
:0A1ECE00AE4C122F987F00227F0116
:011ED80022E7
:08186E008B4E8A4F89508D5109
:101876009002657401F0E490026AF0A3F0A31205E9
:101886008E0000000090027012058E00000000AF6E
:1018960059AE58122DDFE55124FE601904702AADA9
:1018A60059AC587F03122AD1900265EFF09002647A
:1018B6007403F08014AD59AC587F05122AD19002FA
:1018C60065EFF09002647405F01236DC90026C123B
:1018D6000582E55964014558700F20960C900270F8
:1018E60012058E00000001802A1236DC90026CE0A0
:1018F600F8A3E0F9A3E0FAA3E0FBC3EF9BFFEE9A9F
:10190600FEED99FDEC98FCE47B02FAF9F8D312059A
:101916000B50BFE4FFFEFDFC900270E0F8A3E0F977
:10192600A3E0FAA3E0FBC312050B7002807EAD595B
:10193600AC58E4FF122C2B900268EFF0AD59AC586E
:10194600E4FF122C2B900269EFF0AD59AC58E4FF7E
:10195600122C2B900266EFF0122D58900266EFF0D3
:101966007D00900264E0FF7E00122EBFAD0790025C
:1019760068E0FF7E00122EBFAD07900269E0FF7E91
:1019860000122EBF900267EFF0900266E0AB55AAF8
:1019960056A9571203FFAB52AA53A954EF1203FFDD
:1019A600900267E0FF900266E06F600AAF59AE589A
:1019B600122F987F0022900268E0FEA3E0FDEDFF63
:1019C600A3EEF0A3EFF0E55190026AB40106E054ED
:1019D6003FF08004E0540FF090026AE0FFA3E0AB12
:1019E6004EAA4FA950CF8FF01204DE900265E0FF99
:0119F60022CE
:101C9E008B4E8A4F8950AB51AA52A95312051C7B09
:101CAE000A7AD77923783C12011E7BD77AA3791E44
:101CBE0078C212002DAB51AA52A95312053CAB4E5D
:101CCE00AA4FA95012051C7BA27AE7793B78B6126F
:101CDE00011EAB4EAA4FA95012055612011EC0048A
:101CEE00C005C006C007AB4EAA4FA95012051C7BFB
:101CFE00547AE37925783D12011ED003D002D0012B
:101D0E00D00012002DE4FBFA798078C012002DABC2
:101D1E004EAA4FA95012053CAB4EAA4FA950120520
:101D2E001C7BAC7AC579A7783812011E7B0A7AD74C
:101D3E007923783C12002DC004C005C006C007AB45
:101D4E0051AA52A95312051CE4FBFA79C878C112A4
:101D5E00002DD003D002D001D00012011EAB4EAA2E
:101D6E004FA95012055612002DAB4EAA4FA9501274
:101D7E00053CAB4EAA4FA95012051CE4FBFA79C8DC
:101D8E0078421202C4500DAB4EAA4FA9501205BF95
:101D9E0042C80000AB4EAA4FA95012051C7BCD7A4B
:101DAE00CC79CC783D1202C4600F400DAB4EAA4FD9
:0A1DBE00A9501205BF3DCCCCCD2288
:102D5800E4FE7D807C07EDC394104016EF5DFBA870
:102D680004088002C313D8FC4206EDC313FD1C1CE3
:102D780080E47D087C01EDC394014016EF5DFBA85B
:102D880004088002C333D8FC4206EDC313FD0C0CC3
:042D980080E4AF061E
:012D9C002214
:1016DF0047454E455249433331305F535354000110
:1016EF003400000053746174757300000101F6013A
:1016FF00340000004552524F520000000101F70420
:10170F0008000001496E7454656D70310101F804D1
:10171F0008000001496E7454656D70320101FC01BF
:10172F00340000006E636F756E74000001020004D8
:10173F000800000154656D703100000001020104C2
:10174F000800000154656D703200000001020504AD
:10175F000800000154656D70330000000102090498
:10176F000800000154656D703400000001020D0483
:10177F000800000141766754656D70310102110454
:10178F000800000141766754656D7032010215043F
:10179F000800000141766754656D7033010219042A
:1017AF000800000141766754656D703401021D0415
:1017BF000800000153485474656D70000102210444
:1017CF005A0000015248756D69640000010225023C
:1017DF00340000007253485474656D700102290281
:1017EF00340000007253485468756D6901022B0173
:1017FF00340000004643536F7269670001022D01E8
:10180F0034000000464353646576690001022E04DC
:10181F003400000165787430316F666601022F0461
:10182F003400000165787430326F6666010233044C
:10183F003400000165787431316F66660102370438
:10184F003400000165787431326F666601023B0027
:0F185F000000000000000000000000000000007A
:102E20000DA8245265763A20313037312024000134
:102E3000B5010274484A4401E1000000004101E08C
:102E4000004101E5004101E6004101E7000371FF97
:052E500016EE01700008
:10150F00EF6056E49001F6F0A3F090022112058EE1
:10151F000000000090022512058E00000000E490EC
:10152F000229F0A3F0A3F0A3F0A3F0A3F0A31205F8
:10153F008E0000000090023312058E000000009014
:10154F00023712058E0000000090023B12058E003C
:10155F00000000900200740AF0E478BAF678BAE658
:10156F00FFC364809484501774AE2FF9C3E764806F
:10157F0094B05006E624AEF8763078BA0680DE785E
:10158F00AFE6FF3395E0FEEF24D0FFEE34FFFE7C95
:10159F00007D64120433AA06AB0778AEE6FF3395DD
:1015AF00E0FEEF24D0FFEE34FFFE7C037DE8120453
:1015BF0033EF2BFBEE3AFA78B0E6FF3395E0FEEF10
:1015CF0024D0FFEE34FFFE7C007D0A120433EF2B94
:1015DF00FFEE3AFE78B1E6FD3395E0FCED24D0FD49
:1015EF00EC34FFCD2FF50DED3EF50C12001D9002E2
:1015FF0048EFF075F1FF75F2FF75F33F75F4FF7566
:10160F00A49075A63F75A718E4F5D1C287C2B4752B
:10161F009A80759E33759C0253A63F53F33F7F010B
:10162F00FE122FFD900200E0D36480949E4003745D
:10163F001EF0E478BBF6E478BAF678BAE6FFC36436
:10164F0080949E5041EF3395E0FEEF7802C333CE86
:10165F0033CED8F9FF78BBE6FD3395E0FC90000060
:10166F0075F078ED1205D9EC75F078A42583F58324
:10167F00E5822FF582E5833EF58312058EC3FA00CE
:10168F000078BA0680B478BB06E6B404A943A51562
:10169F00D292C2947F017E0012371590022112055B
:1016AF008E0000000090022512058E000000007EC3
:1016BF00007F087D007B017A0179F812063B7E00DE
:0F16CF007F207D007B017A02790112063BC286E3
:0116DE0022E9
:10363400151EA81EA6077A007BFA7D027F001228B9
:0C36440050A81EE67003757001051E22E0
:05370A008F337F002257
:102EF0008B338A3489351203B9AB36AA37A9381215
:102F000003FFAB33AA34A9359000011203D2AB36CC
:0D2F1000AA37A9389000011204117F022297
:0519F700753F008B406C
:1019FC00C004C005C006C0070540E540AE3F7002FC
:101A0C00053F147802C333CE33CED8F9FFAD3EED8B
:101A1C003395E0FC90000075F078ED1205D9EC756B
:101A2C00F078A42583F583E5822FF582E5833EF5D6
:101A3C0083D007D006D005D004120582E4F548F512
:101A4C0047F546F545F543F544F541F5429002005E
:101A5C00E0FF3395E0FEC3E5429FEE6480F8E5417C
:101A6C006480984003021B33E542AE417802C333D5
:101A7C00CE33CED8F9FFAD3EED3395E0FC900000AF
:101A8C0075F078ED1205D9EC75F078A42583F58303
:101A9C00E5822FF582E5833EF583E0FCA3E0FDA310
:101AAC00E0FEA3E0FFE4FBFA79FA78C31202C4600B
:101ABC0068AF48AE47AD46AC45C004C005C006C0D3
:101ACC0007E542AE417802C333CE33CED8F9FFAD31
:101ADC003EED3395E0FC90000075F078ED1205D9E1
:101AEC00EC75F078A42583F583E5822FF582E583E8
:101AFC003EF583E0F8A3E0F9A3E0FAA3E0FBD007FE
:101B0C00D006D005D00412002D8F488E478D468C00
:101B1C00450544E544700205430542E54260030275
:101B2C001A590541021A59AC43AD44EC120336A8BC
:101B3C0004A905AA06AB07AF48AE47AD46AC4512A3
:021B4C0002276E
:011B4E002274
:100EE1009001F6E004F0E4F53974742539F8E6FF71
:100EF100753D02E4F53EF53FF5407541017542014E
:100F010075430275444C7B01FD121B4FEF703FC2CC
:100F1100AF90024CE0FCA3E0FDA3E0FEA3E0FFC024
:100F210004C005C006C007AF39EF3395E0FEEF7886
:100F310002C333CE33CED8F924F8F58274013EF5DD
:100F410083D007D006D005D004120582D2AF05396F
:100F5100C3E539648094824090753D02E4F53EF525
:100F61003FF54075410175420175430275444C7B63
:100F7100017D01AF74121B4FEF70779001E0E0FF2C
:100F8100900200E0FEEF8EF084AFF09001E0EFF010
:100F9100FB90024CE0FCA3E0FDA3E0FEA3E0FFE434
:100FA100F53EF53F8B401219FC90025012058290DC
:100FB10001E0E004F0C2AF90022FE0FCA3E0FDA34A
:100FC100E0FEA3E0FF90024CE0F8A3E0F9A3E0FA11
:100FD100A3E0FB12002D900201120582900250E065
:100FE100FCA3E0FDA3E0FEA3E0FF90021112058245
:100FF100D2AF753D02E4F53EF53FF540754101750F
:10100100420175430275444C7B017D02AF74121B92
:101011004FEF70739001E5E0FF900200E0FEEF8E6C
:10102100F084AFF09001E5EFF0FB90024CE0FCA3FF
:10103100E0FDA3E0FEA3E0FF753E011219F7900267
:10104100501205829001E5E004F0C2AF900233E056
:10105100FCA3E0FDA3E0FEA3E0FF90024CE0F8A3B7
:10106100E0F9A3E0FAA3E0FB12002D9002051205BE
:1010710082900250E0FCA3E0FDA3E0FEA3E0FF901C
:101081000215120582D2AF753D02E4F53EF53FF53A
:101091004075410175420175430275444C7B017DE8
:1010A10001AF75121B4FEF70739001E6E0FF9002E4
:1010B10000E0FEEF8EF084AFF09001E6EFF0FB90E0
:1010C100024CE0FCA3E0FDA3E0FEA3E0FF753E02BD
:1010D1001219F79002501205829001E6E004F0C265
:1010E100AF900237E0FCA3E0FDA3E0FEA3E0FF9098
:1010F100024CE0F8A3E0F9A3E0FAA3E0FB12002D13
:10110100900209120582900250E0FCA3E0FDA3E0E9
:10111100FEA3E0FF900219120582D2AF753D02E4F1
:10112100F53EF53FF5407541017542017543027584
:10113100444C7B017D02AF75121B4FEF7073900120
:10114100E7E0FF900200E0FEEF8EF084AFF0900147
:10115100E7EFF0FB90024CE0FCA3E0FDA3E0FEA36F
:10116100E0FF753E031219F79002501205829001BB
:10117100E7E004F0C2AF90023BE0FCA3E0FDA3E096
:10118100FEA3E0FF90024CE0F8A3E0F9A3E0FAA38C
:10119100E0FB12002D90020D120582900250E0FC3E
:1011A100A3E0FDA3E0FEA3E0FF90021D120582D2A1
:1011B100AF1236DC9001E1E0F8A3E0F9A3E0FAA375
:1011C100E0FBC3EF9BFFEE9AFEED99FDEC98FCE48A
:1011D1007B01FAF9F8C312050B400302125C8B3D47
:1011E100753E02753F428B407541027542488B4303
:1011F1007544017545E88B4675470275483F8B4933
:10120100754A01754BED754C00754D017A027940B7
:10121100121DC8BF013CC2AF900248E0FCA3E0FD33
:10122100A3E0FEA3E0FF9002251205829001E8E011
:10123100FCA3E0FDA3E0FEA3E0FF900221120582E2
:1012410090023FE090022DF09001EDE090022EF02F
:10125100D2AF1236DC9001E11205827FC87E001206
:0D1261002F1D7A007B647D017F0102285063
:100026000203A4E86480F8E933E83360110460F061
:10003600ED33EC337009E8FCE9FDEAFEEBFF220440
:1000460060DED3EB9FEA9EE99DE8C2E78CF0C2F73B
:1000560095F0400CE8CCF8E9CDF9EACEFAEBCFFB07
:1000660012036F85D0F05804700320D5B3E80470EE
:10007600075002B2D50203AE92D5EC0460F7E4CC89
:10008600C0E0C398F8603B94186008400DD0E0FBD0
:10009600020386E4FBFAC9FC8028E830E406E4C9DA
:1000A600FBE4CAFCE830E305E4C9CACBFCE8540724
:1000B6006010F8C3E913F9EA13FAEB13FBEC13FC2F
:1000C600D8F130F52FC3E49CFCEF9BFFEE9AFEEDD2
:1000D60099FDD0E0FBEF4E4D4C701222DB0302037C
:1000E600ABEC2CFCEF33FFEE33FEED33FDED30E7EA
:1000F600EB020386EF2BFFEE3AFEED39FDD0E0FB77
:1001060050130BBB00030203AEED13FDEE13FEEF1F
:0801160013FFEC13FC02038649
:10011E00EC4D6011E8497017ED33EC3304600DE4DB
:10012E00FCFFFEFD22E933E8330470F80203A4124B
:10013E00036F58046009E4CC24815006285009024C
:10014E0003AE2840030203ABC0E0EB4A7044B98013
:10015E0006D0E0FB02039AEF4E701CBD8008EBFF49
:10016E00EAFEE9FD80EBE98DF0A4FEE5F002020760
:10017E00E9CDF9EAFEEBFFEF89F0A4FCE5F0CE89BC
:10018E00F0A42EFFE435F0CD89F0A42DFEE435F079
:10019E008067EF4E7005BD80D780C3EF8BF0A4ACA7
:1001AE00F0EE8BF0A42CFCE435F0F8EF8AF0A42CE2
:1001BE00E5F038FCE433CB8DF0A42CFCE5F03BF8F5
:1001CE00EE8AF0A42CFCE5F038F8E433CF89F0A4E5
:1001DE002CFCE5F038CF3400CE89F0A42FFFE5F0EB
:1001EE003EFEE433C98DF0A42EFEE5F039CD8AF043
:1001FE00A42FFFE5F03EFEE43DFD33D0E0FB5007BB
:10020E000BBB000F0203AEEC2CFCEF33FFEE33FE04
:06021E00ED33FD02038632
:100224000203AEEC5D046005E8590470030203A404
:1002340012036F580460F6EC4860F2EC7004FDFEA3
:10024400FF22C860DB2481C85009C39860025006AD
:100254000203AB9850CAF582E9294B4A7005AB8278
:1002640002039A75F0007C1A7880C3EF9BEE9AED36
:1002740099400DC3EF9BFFEE9AFEED99FDE842F025
:10028400DC23ACF0D0E0FFD0E0FED0E0FDAB822078
:10029400E7101BEB60BAEC2CFCEF33FFEE33FEED02
:1002A40033FD020386E803F830E705C0F075F0007B
:1002B400EF2FFFEE33FEED33FD40B830E7C280AAE6
:1002C40074F8CC6480CCC86480C8F582046043C3ED
:1002D400EB9FF5F0EA9E42F0E99D42F0E89C45F080
:1002E40060305018E5825FFFE582F42B5582FB50A5
:1002F400210ABA001D09B90019088016E5825BFBC2
:10030400E582F42F5582FF50090EBE00050DBD0095
:10031400010CC3EB9FF5F0EA9E42F0E99D42F0E840
:0D0324009C45F06007CC4820E701B3EC22B7
:1003310075F020800E75F010800575F0087D007E47
:10034100007F003392D530D5031204FDEC33401009
:10035100EF33FFEE33FEED33FDEC33FCD5F0ED2250
:0E036100E5F0247EA2D513CC92E7CDCEFF228C
:10036F00E9D2E7C933E833F892D5EDD2E7CD33ECD4
:07037F0033FC5002B2D5224D
:10038600EC30E7100FBF000C0EBE00080DBD0004D8
:100396000BEB6014A2D5EB13FCED92E7FD2274FF84
:1003A600FCFDFEFF22E480F8A2D574FF13FC7D80DD
:0303B600E480EFF1
:030000000227468E
:0C274600787FE4F6D8FD7581C002278D75
:1003B900BB010689828A83E0225002E722BBFE0242
:0903C900E32289828A83E4932275
:1003D200BB010CE58229F582E5833AF583E02250E0
:1003E20006E92582F8E622BBFE06E92582F8E2222A
:0D03F200E58229F582E5833AF583E4932244
:1003FF00BB010689828A83F0225002F722BBFE01DD
:02040F00F322D6
:10041100F8BB010DE58229F582E5833AF583E8F021
:10042100225006E92582C8F622BBFE05E92582C8CD
:02043100F222B5
:10043300EF8DF0A4A8F0CF8CF0A428CE8DF0A42EDD
:02044300FE2297
:10044500C2D5EC30E709B2D5E4C39DFDE49CFCEED2
:1004550030E715B2D5E4C39FFFE49EFE120667C3DD
:10046500E49DFDE49CFC800312066730D507C3E4D8
:060475009FFFE49EFE2241
:10047B00BB010A89828A83E0F5F0A3E0225006874C
:10048B00F009E71922BBFE07E3F5F009E31922890E
:0B049B00828A83E493F5F07401932241
:1004A600BB010789828A830206BC500B09C5F02767
:1004B600F7C5F01937F722BBFE0D09F8E325F0F36F
:1004C600C5F019E338F322F889828A8374019325EB
:0804D600F0C5F0F8E4933822B0
:1004DE00BB010A89828A83F0E5F0A3F0225006F769
:0F04EE0009A7F01922BBFE06F3E5F009F3192266
:0E04FD00C3E49FFFE49EFEE49DFDE49CFC2210
:10050B00EB9FF5F0EA9E42F0E99D42F0E89C45F046
:01051B0022BD
:10051C00BB010789828A830206DE5005E9F80206D0
:10052C00D2BBFE05E9F80206EA89828A830206F646
:10053C00BB010789828A830205825005E9F802050E
:0A054C0076BBFE05E9F802073C2229
:10055600BB010789828A830207135005E9F802075F
:1005660006BBFE05E9F802071F89828A8302072C6B
:0C057600ECF608EDF608EEF608EFF622B1
:0C058200ECF0A3EDF0A3EEF0A3EFF022EC
:10058E00A8828583F0D083D0821205A51205A5120C
:10059E0005A51205A5E473E493A3C583C5F0C58331
:1005AE00C8C582C8F0A3C583C5F0C583C8C582C8B7
:0105BE00221A
:1005BF00BB010789828A8302058E5005E9F802077D
:0A05CF0048BBFE05E9F802076122AF
:0C05D900A42582F582E5F03583F583222D
:1005E500BB010DE58229F582E5833AF58302078390
:1005F5005007E92582F802077ABBFE07E92582F84C
:1006050002078CE58229F582E5833AF58302079591
:10061500D083D082F8E4937012740193700DA3A374
:1006250093F8740193F5828883E473740293686088
:06063500EFA3A3A380DF88
:102BD9008B3D8A3E893FE4F545F546E5441544AE0B
:102BE90043700215434E6033AB40AA41A942120318
:102BF900B9FFAB3DAA3EA93F0546E546AC45700283
:102C0900054514F5828C83EF120411EF60CD740130
:102C19002542F542E43541F54180C0AB3DAA3EA9C4
:022C29003F2248
:10063B00EF4E6012EF60010EEDBB010B89828A83D6
:10064B00F0A3DFFCDEFA2289F05007F709DFFCA9E3
:0C065B00F022BBFEFCF309DFFCA9F0223A
:102752000236F5E493A3F8E493A34003F68001F272
:1027620008DFF48029E493A3F85407240CC8C33388
:10277200C4540F4420C8834004F456800146F6DF57
:10278200E4800B0102040810204080902E1DE47E9C
:10279200019360BCA3FF543F30E509541FFEE4934C
:1027A200A360010ECF54C025E060A840B8E493A313
:1027B200FAE493A3F8E493A3C8C582C8CAC583CA3E
:1027C200F0A3C8C582C8CAC583CADFE9DEE780BEF6
:012E5500007C
:10066700BC000BBE0029EF8DF084FFADF022E4CC77
:10067700F875F008EF2FFFEE33FEEC33FCEE9DEC40
:10068700984005FCEE9DFE0FD5F0E9E4CEFD22ED86
:10069700F8F5F0EE8420D21CFEADF075F008EF2FD0
:1006A700FFED33FD4007985006D5F0F222C398FDC1
:0506B7000FD5F0EA225E
:1006BC00C5F0F8A3E028F0C5F0F8E58215827002C9
:0606CC001583E038F02266
:0C06D200E6FC08E6FD08E6FE08E6FF2254
:0C06DE00E0FCA3E0FDA3E0FEA3E0FF228F
:0C06EA00E2FC08E2FD08E2FE08E2FF224C
:1006F600E493FC740193FD740293FE740393FF224A
:0D070600E6FB08E6F908E6FA08E6CBF82263
:0C071300E0F8A3E0F9A3E0FAA3E0FB2269
:0D071F00E2FB08E2F908E2FA08E2CBF8225A
:10072C00E493F8740193F9740293FA740393FB2223
:0C073C00ECF208EDF208EEF208EFF222F9
:10074800D083D082E493F608740193F60874029378
:09075800F608740393F6740473AF
:10076100D083D082E493F208740193F20874029367
:09077100F208740393F27404739E
:09077A00E6FB08E6FA08E6F922A4
:09078300E0FBA3E0FAA3E0F92277
:09078C00E2FB08E2FA08E2F9229E
:0C079500E493FB740193FA740293F922C0
:00000001FF
