:10141D0050304450530001340000004572726F7219
:10142D000000000100000134000000436F6E747273
:10143D006F6C00010001013400000053746174757C
:10144D0073000001000201340000004163746976ED
:10145D00650000010003013400000056355F4D6F3B
:10146D006E000001000401340000005631355F4D5F
:10147D006F6E00010005000000000000000000007C
:06148D0000000000000059
:1019E900016D010C61245265763A20313030202492
:0619F90000035EFF142351
:101858008F33E533B40F0E43900F7F647E0012166A
:10186800395390F022AF337401A807088002C333BC
:10187800D8FC42907F647E00121639AF337401A8F9
:0C18880007088002C333D8FCF452902201
:020E6B008F3DB9
:100E6D00E4900006F0900006E0FFC3648094845087
:100E7D001A74672FF9C3E7648094B05006E02467B5
:100E8D00F87630900006E004F080DA7868E6FF33FB
:100E9D0095E0FEEF24D0FFEE34FFFE7C007D641262
:100EAD000A81AA06AB077867E6FF3395E0FEEF24CB
:100EBD00D0FFEE34FFFE7C037DE8120A81EF2BFBA1
:100ECD00EE3AFA7869E6FF3395E0FEEF24D0FFEEB7
:100EDD0034FFFE7C007D0A120A81EF2BFFEE3AFEF5
:100EED00786AE6FD3395E0FCED24D0FDEC34FFCDC2
:100EFD002FF50DED3EF50C750A02750B5843A50F38
:100F0D00C293C292C291C29053A50FC297C296C20C
:100F1D0095C29453A6F0C2A3C2A2C2A1C2A053A669
:100F2D000FC2A7C2A6C2A5C2A453A4F6C280C28393
:0F0F3D00E4900000F0A3F0A3F0A3F0A3F0A3F062
:010F4C002282
:10173400151EA81EEFF6A81EE66401703D90000178
:10174400E0C3940F40047F0F802D900001E030E04F
:10175400057F01121858900001E030E1057F021264
:101764001858900001E030E2057F031218589000E9
:0D17740001E030E3057F04121858051E2225
:05001B008F337F00227D
:1018C5008B338A348935120A07AB36AA37A9381201
:1018D5000A4DAB33AA34A935900001120A20AB3664
:0D18E500AA37A938900001120A5F7F022285
:10189400E59054F0C4540FFFE5A0540FFEE5A054A6
:1018A400F0C4540FFDC2AF900004EFF0A3EEF0902B
:1018B4000003EDF0D2AF7A007BFA7D017F010213C1
:0118C400A47F
:0C1A2A00245265763A2037343620240020
:10076600E47880F6121A4175E10175E24075A450ED
:1007760075B287E4F5A91219CEE4F53BF53C7D0187
:10078600AF3C121946053CE53C7002053BC394029A
:10079600E53B940040E8E4F520C20AC208C20EC256
:1007A6000DC20C7880F6C28608F67885F618F678BB
:1007B6008AF6F53BF53C748C253CF8E4F6053CE5F9
:1007C6003C7002053B6414453B70EBE4F53BF53C9D
:1007D60074A0253CF8E4F6053CE53C7002053B6454
:1007E60008453B70EBE5EF20E10CE5EF5408D394A8
:1007F600004003D38001C392037D08E4FF12196D04
:10080600E47889F67882F6AB5EAA5FA9607882E61C
:10081600FF75F010A4F58285F083120A20FE788910
:1008260026F6EE600578820680DDEFD39400403030
:10083600AB5EAA5FA96090000D120B49120A07FF72
:100846007455120A4D120A0764556002D20C74AA36
:10085600120A4D120A0764AA6002D20CEF120A4D60
:10086600E5EF5402D3940040047F018002E4FF12B6
:100876000F4D8F3AE53A20E035C20974FFF508F5C9
:1008860009F50AF50B7E007F107D007B007A007962
:100896000E120B9F7540FF75411475421D7543007E
:1008A6007544107B007A00790E1216E28002D20996
:1008B600901A31E493FF3395E0FEEF24D0FFEE3437
:1008C600FFFE7C007D64120A81AA06AB07901A30EF
:1008D600E493FF3395E0FEEF24D0FFEE34FFFE7C79
:1008E600037DE8120A81EF2BFBEE3AFA901A32E406
:1008F60093FF3395E0FEEF24D0FFEE34FFFE7C003D
:100906007D0A120A81EF2BFFEE3AFEA3E493FD3334
:1009160095E0FCED24D0FDEC34FFCD2FF50DED3E3A
:10092600F50CE53A30E1030209DEE4F53BF53CE57A
:100936003CC4F8540FC868FFE53BC454F048FEAB0E
:100946005EAA5FA9608F82F583120A2070030209EE
:10095600D5E92FF9EA3EFA900004120A2020E26453
:10096600E4F539E539C3786D965059E53CC4F85439
:100976000FC868FFE53BC454F048AB5EAA5FA960A8
:100986008F82F583120A20FF7E00C006C0077D0015
:10099600E53CC4F8540FC868FFE53BC454F048FE74
:1009A600E92FF9EA3EFA90000D120B497889E6859F
:1009B60039F0A429F9EA35F0FAD007D006120B9FD0
:1009C6000539809F053CE53C7002053B0209357FF1
:1009D60001120E6BC20B8007E4FF120E6BD20BE402
:1009E600F53BF53C7A007B967D03AF3C1213A405DC
:1009F6003CE53C7002053BC39402E53B940040E4B1
:010A060022CD
:051A4B00788AE6FF228D
:03002300020D6764
:100D6700C0E0C0F0C083C082C0D075D000C000C052
:100D770001C002C003C004C005C006C00730993ACD
:100D8700C2997885067985E77881667016F6788541
:010D9700F665
:0E0D980075220A0075230300D523FCD522F531
:040DA600C28680176A
:0E0DAA007522140075230300D523FCD522F515
:100DB8007885E624A0F8E6F599209803020E5020DD
:100DC8009A07200A04C298807BC29A7884E606248F
:100DD8008CF8A699C2987884E6FFB40113788CE65B
:100DE800FE70057884F68060EE54072402788BF64E
:100DF800EFB4020E788BE6B40908788DE6240379FF
:100E08008BF77884E6FFB414047600803BEFC37850
:100E18008B9640347884E624FFFDE434FFFC7B00A5
:100E28007A00798C12120E7884E6248BF8E66F60CB
:030E380002801124
:0E0E3B007522140075230300D523FCD522F583
:100E490012002678847600D007D006D005D004D0C9
:100E590003D002D001D000D0D0D082D083D0F0D03E
:020E6900E03275
:10149300788DE675F010A4AB5E2560F9E55F35F055
:1014A300FA90000D120B49788AE6FF18E68FF0A434
:1014B3002526F582E435F0F583120A20FF7B007AB6
:0314C30000792489
:1014C6008F338B348A358936EA494B6016120A0700
:1014D600FFE533FD7C00120003AB34AA35A936EFD5
:0314E600120A4D9A
:0E14E9007537140075380300D538FCD537F57B
:0E14F7008533997F0112191D3099FDC299228B
:061A03007881EFF6D286A7
:0E1A09007533140075340300D534FCD533F565
:061A170078A0E6F599221B
:1017CE00C9EFC9E964017028EDC39B4034786DE61A
:1017DE00FFEB2FFFE433FEEDC39FEE6480F87480C1
:1017EE0098501ED20AC3ED9B788AF678867601222F
:1017FE00B90214ED6B700AD20A788AF678867602F0
:08180E0022C20AE47886F622EA
:1015D800C9EFC9BAFF15BBFF12ED6B7002EC6A7058
:1015E80049D20A788AF67886E9F622E964017025F4
:1015F800C3ED9BEC9A401C786DE62BFFE43AFEC3E2
:10160800ED9FEC9E500DD20AC3ED9B788AF6788642
:101618007601228015B90218ED6B7002EC6A700A27
:10162800D20A788AF67886760222C20AE47886F6A2
:01163800228F
:10002600788CE6FF54F8F525EF120B79006F09007E
:100036007A0A00891000921100A11200B41900C8B2
:100046001A00E72000ED28018D2902913302C037FE
:1000560002E63902FF4103084903115003556102C4
:100066005770034D9800000380788DE6FDE509FB87
:100076007F018021788DE6FC08E6FDAB09AA087FA2
:10008600018025D20A78867603020380788DE6FD04
:10009600E50BFB7F021217CE020380788DE6FC0883
:1000A600E6FDAB0BAA0A7F021215D8020380788DF3
:1000B600E6FDE509FB7F011217CE200A0302038045
:1000C6008016788DE6FC08E6FDAB09AA087F0112CA
:1000D60015D8200A0302038078A076787F010203F0
:1000E6007D75EF10020380C2ACE4F524D286FB7A5C
:1000F6000079247F7F1214C67B007A0079247F184A
:100106001214C67B007A0079247F051214C6788201
:10011600E61214BF7B007A007924AF081214C67B5E
:10012600007A007924AF091214C67B007A0079247C
:10013600AF0A1214C67B007A007924AF0B1214C6DC
:100146007B007A007924AF0C1214C67B007A007902
:1001560024AF0D1214C6E4F526740E2526F8E61211
:1001660014BF0526E526C3941040EE7B007A00797D
:0601760000AF241214C6C4
:0E017C0075310A0075320300D532FCD531F51D
:10018A00020244788DE6FFC3788296400302024B4E
:10019A00EF75F010A42560F9E55F35F0855E2EF560
:1001AA002F8930C2ACE4F524D286FB7A0079247F09
:1001BA007F1214C67B007A0079247F0D1214C6AB15
:1001CA002EAA2FA930120A071214BFAB2EAA2FA9E2
:1001DA00309000011214BCAB2EAA2FA93090000255
:1001EA001214BCAB2EAA2FA9309000031214BCAB78
:1001FA002EAA2FA9309000041214BCE4F526AB2EC7
:10020A00E5302405F9E4352FFA7E00E92526F9EED2
:10021A003AFA120A071214BF0526E526C3940840C3
:0C022A00DD7B007A007900AF241214C6BE
:0E02360075310A0075320300D532FCD531F562
:10024400C286D2AC02038078A07678E408F67F02F6
:1002540002037D121A1D786E120B3D78A0767C780D
:100264006EE678A1F6786FE678A2F67870E678A361
:10027400F67871E678A4F67C007D057B007A007937
:10028400A012120E78A5EFF67F0602037D788DE6A4
:10029400FFB4010B08E6F50808E6F50902034DEF83
:1002A400B40208788EE6F50802034D788DE6B403AF
:1002B4000808E6F50A08E6F50B02034DE4F526E521
:1002C40026C3788D965016748E2526F8E6FF740E94
:1002D4002526F8C6EFC60526E526B410E2E4F51D8A
:1002E40080677A007B327D01788AE6FF1213A47856
:1002F4008DE6FDE4FF12196D020380788DE624FF7C
:1003040092028078788DE624FF9201806F788AE6E5
:100314006005752802800B200D0575280380037580
:10032400280178A0767908A6287C007D027B007AD3
:100334000079A012120E78A2EFF67F03121A03E5D9
:100344002864017037D20E8002D208788076F1805A
:100354002B7A007B327D017F001213A478A076797A
:10036400788DE678A1F67C007D027B007A0079A086
:1003740012120E78A2EFF67F03121A03E52564A089
:10038400600302057E788CE664A160030204787938
:100394008DE7C3788296400302046FAB5EAA5FA91F
:1003A40060788DE6FF75F010A4F58285F083120A5B
:1003B40020F528EF75F010A429F9EA35F0FA900039
:1003C40004120A2030E230788DE6FF12001B8F28D9
:1003D40078A0767F08A628E5282402FDE433FC7B78
:1003E400007A0079A012120E74A22528F8EFF6E51F
:1003F400282403FF02057B788DE6FF12001BC2ACA4
:10040400E4F524D286E528D39406402B7B007A00B9
:1004140079247F7F1214C67B007A007924AF2812D6
:1004240014C6E4F526E526C395285007121493054F
:100434002680F205288018E52824781214BFE4F5F4
:1004440026E526C395285007121493052680F27BCF
:0A045400007A007900AF241214C6EC
:0E045E0075310A0075320300D532FCD531F538
:10046C0002056F78A076787F0102057B788CE664B4
:10047C00A2600302057E7882E6FF788DE6FEC39FBC
:10048C00400302057508E6FDC39F4003020575EEA7
:10049C009D400302057518E6F526E4F52CF52DE5CF
:1004AC0026D3788E965026AF2612001BAB5EAA5F21
:1004BC00A96075F010E526A4F58285F083120A2058
:1004CC00252DF52DE4352CF52C052680D2C2ACE477
:1004DC00F524D286FB7A0079247F7F1214C6C3E5FB
:1004EC002D9480E52C940050028007E52C4480125A
:1004FC0014BFAF2D1214C0788DE6F526E526D378FF
:10050C008E965046E4F527AB5EAA5FA96075F01095
:10051C00E526A4F58285F083120A20FFE527C39F08
:10052C005024E52675F010A429F9EA35F0FA90006C
:10053C000D120B49788AE6FF18E68FF0A4252712D6
:10054C0014B5052780C1052680B27B007A0079009E
:05055C00AF241214C6DB
:0E05610075310A0075320300D532FCD531F534
:10056F00C286D2AC800978A076787F01121A03E593
:10057F002564587047FA7B327D01788AE6FF1213A3
:10058F00A47536007537007538A17B007A00798D18
:10059F001218C58F28E528247878A0F6E5282401BD
:1005AF00FDE433FC7B007A0079A012120E74A125B2
:1005BF0028F8EFF6E5282402FF121A03E5256480D8
:1005CF006009E525648860030207657886E6B40153
:1005DF000F7A007B327D01788AE6FF1213A4801A0E
:1005EF00E4F526E526C3786D96500F7A007B327DB1
:1005FF0001AF261213A4052680E9788CE65407F57F
:10060F0028B4070A75270108E6F528088005E4F5E0
:10061F0027788DE6F5291528E529C37882964003BA
:10062F00020743AB5EAA5FA96075F010E529A4F538
:10063F008285F083120A20FFE528D39F40028F287E
:10064F007886E6B40109788AE6F52BF52A8009E465
:10065F00F52A786DE614F52B788AA62A788AE6D3E0
:10066F00952B4003020737E4F526E526C39528406E
:10067F000302072CE52975F010A4AB5E2560F9E5A0
:10068F005F35F0FA900004120A2030E203020727C8
:10069F00900001120A2064387031E528D394044089
:1006AF000BE5272526248EF8E6FD804E7884E6C3D9
:1006BF009526FF748A2FF8E6FDE52975F010A4AB97
:1006CF005E2560F9E55F35F0FA802FAB5EAA5FA972
:1006DF006075F010E529A4F58285F083120A20FFDA
:1006EF00C37884E69F25262527248BF8E6FDE52988
:1006FF0075F010A429F9EA35F0FA90000D120B49A4
:10070F00788AE6FF18E68FF0A4FFE5262FF582E43E
:10071F0035F0F583ED120A5F0526020679AF29122F
:10072F001734788A0602066B788AA62AE52564882C
:10073F007024800FE529B4FF1D788EE6F520E5259E
:10074F00B4881378A076787884E6248BF8E678A1BD
:06075F00F67F02121A03EE
:010765002271
:106800007880E664F16003026E13E4F53EF53F78AC
:0468100081E660209D
:0E68140075440A0075450300D545FCD544F5D2
:10682200053FE53F7002053E64107004E53E6427B3
:1068320070DBC2AFE4F5D9F53AF53920982FE4F5CB
:106842003EF53F209823C3E53F9488E53E941350DC
:01685200182D
:0E68530075440A0075450300D545FCD544F593
:10686100053FE53F70DE053E80DAB28280CE859934
:1068710039C298E539641A6003026946F53EF53F6D
:0E688100209823C3E53F9488E53E94135018F9
:0E688F0075440A0075450300D545FCD544F557
:10689D00053FE53F70DE053E80DA30989385993AE5
:1068AD00C298E4F53EF53F209823C3E53F9488E573
:0568BD003E9413501889
:0E68C20075440A0075450300D545FCD544F524
:1068D000053FE53F70DE053E80DA20980302683D03
:1068E00085993AC298E4F53EF53F209823C3E53FE9
:0868F0009488E53E9413501852
:0E68F80075440A0075450300D545FCD544F5EE
:10690600053FE53F70DE053E80DA20980302683DCC
:0969160085993AC298D286C29913
:0E691F007544140075450300D545FCD544F5BC
:06692D007599783099FD18
:0E69330075440A0075450300D545FCD544F5B2
:10694100C286026E05E539645060030269DBF53EDB
:10695100F53F209823C3E53F9488E53E94135018F2
:0E69610075440A0075450300D545FCD544F584
:10696F00053FE53F70DE053E80DA20980302683D63
:09697F0085993AC298D286C299AA
:0E6988007544140075450300D545FCD544F553
:086996007599793099FDC29951
:0E699E007544140075450300D545FCD544F53D
:0869AC007599013099FDC299B3
:0E69B4007544140075450300D545FCD544F527
:0669C200E4F5993099FD97
:0E69C80075440A0075450300D545FCD544F51D
:0F69D600C286026E05E53964017041D286C2990E
:0E69E5007544140075450300D545FCD544F5F6
:0869F3007599783099FDC299F5
:0E69FB007544140075450300D545FCD544F5E0
:066A0900E4F5993099FD4F
:0E6A0F0075440A0075450300D545FCD544F5D5
:106A1D00C286026E05E53964026003026AE2F53E44
:106A2D00F53F209823C3E53F9488E53E9413501815
:0E6A3D0075440A0075450300D545FCD544F5A7
:106A4B00053FE53F70DE053E80DA20980302683D86
:106A5B0085993AC298E4F53BE53A13B39282E53A4D
:106A6B0025E0FEC3E49400EE94685027E53A7F00DE
:106A7B0025E0FEC39460501B758F038E408F4175CC
:106A8B00B7A57880E6F5B7854182854083E4F0F5BC
:0A6A9B008F8003753BFFD286C2997D
:0E6AA5007544140075450300D545FCD544F535
:086AB3007599783099FDC29934
:0E6ABB007544140075450300D545FCD544F51F
:066AC900853B993099FDA8
:0E6ACF0075440A0075450300D545FCD544F515
:106ADD00C286026E05E53964036003026C2CF53E37
:106AED00F53F209823C3E53F9488E53E9413501855
:0E6AFD0075440A0075450300D545FCD544F5E7
:106B0B00053FE53F70DE053E80DA20980302683DC5
:106B1B0085993AC298E4F53EF53F209823C3E53FAB
:086B2B009488E53E9413501814
:0E6B330075440A0075450300D545FCD544F5B0
:106B4100053FE53F70DE053E80DA20980302683D8F
:106B510085993CC298E53A139282E53A25E0FEC355
:106B6100E49400EE9468400302683DE53A7D002517
:106B7100E0FCC39460400302683D758F01E53C75FC
:106B8100F020A42DFFE5F03CF5408F41E4F53DE513
:106B91003DC394205051E4F53EF53F209823C3E5D1
:096BA1003F9488E53E941350185E
:0E6BAA0075440A0075450300D545FCD544F539
:106BB800053FE53F70DE053E80DA20980302683D18
:106BC80075B7A57880E6F5B70541E541AE40700296
:106BD800054014F5828E83E599F0C298053D80A89A
:076BE800E4F58FD286C2998B
:0E6BEF007544140075450300D545FCD544F5EA
:086BFD007599783099FDC299E9
:0E6C05007544140075450300D545FCD544F5D3
:066C1300E4F5993099FD43
:0E6C190075440A0075450300D545FCD544F5C9
:106C2700C286026E05E53964046003026CE0F53E36
:106C3700F53F209823C3E53F9488E53E9413501809
:0E6C470075440A0075450300D545FCD544F59B
:106C5500053FE53F70DE053E80DA20980302683D7A
:106C650085993AC298E53A25E0F542754300E4F581
:106C75003BF53EF53F0543E543AE42700205421440
:106C8500F5828E83E493253BF53B053FE53F700296
:0E6C9500053E7004E53E640270DBD286C299B3
:0E6CA3007544140075450300D545FCD544F535
:086CB1007599783099FDC29934
:0E6CB9007544140075450300D545FCD544F51F
:066CC700853B993099FDA8
:0E6CCD0075440A0075450300D545FCD544F515
:106CDB00C286026E05E53964056003026DFDF53E63
:106CEB00F53F209823C3E53F9488E53E9413501855
:0E6CFB0075440A0075450300D545FCD544F5E7
:106D0900053FE53F70DE053E80DA20980302683DC5
:106D190085993AC298E4F53EF53F209823C3E53FAB
:086D29009488E53E9413501814
:0E6D310075440A0075450300D545FCD544F5B0
:106D3F00053FE53F70DE053E80DA20980302683D8F
:096D4F0085993CC298D286C299D4
:0E6D58007544140075450300D545FCD544F57F
:086D660075997F3099FDC29977
:0E6D6E007544140075450300D545FCD544F569
:106D7C007599203099FDE53A25E0FCE53C75F0204D
:106D8C00A42400FFE5F03CF5428F43E4F53BF53DD0
:026D9C00C2999A
:0E6D9E007544140075450300D545FCD544F539
:106DAC00854382854283E493F5993099FD0543E54B
:106DBC0043AE427002054214F5828E83E493253B68
:0B6DCC00F53B053DE53DB420C7C29932
:0E6DD7007544140075450300D545FCD544F500
:066DE500853B993099FD89
:0E6DEB0075440A0075450300D545FCD544F5F6
:106DF900C2868008E539B4060375EF10E5396407E2
:0A6E0900600302683D7880F6D2AF06
:016E1300225C
:101505007F0012191D20090B7A007B327D017F00B7
:101515001213A4300C0B7A007B1E7D017F00121381
:10152500A4300817300D147A007B327D01788AE6E5
:10153500FF1213A4C2081210CFD209200B0C300DD4
:1015450009788076F11210CFD20B300E08300D05D8
:10155500C20E126800200D1212000EE47B2C7A01D7
:0B156500F9F8C3120B2C5002D20D222B
:0B1A360012076612150512189480F8C4
:100C5D00005EBCE2613FDD83C29C7E20A3FD1F418F
:100C6D009DC3217FFCA2401E5F01E3BD3E6082DC7F
:100C7D00237D9FC1421CFEA0E1BF5D0380DE3C626F
:100C8D00BEE0025CDF81633D7C22C09E1D43A1FF5F
:100C9D004618FAA427799BC584DA3866E5BB59074F
:100CAD00DB856739BAE406581947A5FB7826C49A3F
:100CBD00653BD987045AB8E6A7F91B45C6987A242F
:100CCD00F8A6441A99C7257B3A6486D85B05E7B91F
:100CDD008CD2306EEDB3510F4E10F2AC2F7193CD0F
:100CED00114FADF3702ECC92D38D6F31B2EC0E50FF
:100CFD00AFF1134DCE90722C6D33D18F0C52B0EEEF
:100D0D00326C8ED0530DEFB1F0AE4C1291CF2D73DE
:100D1D00CA947628ABF517490856B4EA6937D58BCE
:100D2D005709EBB536688AD495CB2977F4AA4816BE
:100D3D00E9B7550B88D6346A2B7597C94A14F6A8AE
:100D4D00742AC896154BA9F7B6E80A54D7896B359E
:0A0D5D000000000000002B96B9DD35
:0319FF00014F0A8B
:10120E00151E151EA81EECF608EDF6151E151E155C
:10121E001EA81EC6EBC608C6EAC608C6E9C6E51E67
:04122E0024FCF51E89
:10123200F80808E4F6A81EF608F6E51E2407F9A841
:101242001EE6FE08E6FFC3099719E76480F8EE641C
:1012520080985037E51E2404F8CBE6CB08E6FA085E
:10126200E6F98F828E83120A20A81E080866FFE51F
:101272001E2403F8EFF6E6900C5D93A81E0808F60C
:10128200A81E0806E61870B20680AFA81E0808E677
:01129200FF5C
:07129300E51E2409F51E22EF
:07000300ED6F900C5D93FF0F
:01000A0022D3
:10196D00EF701B7598D0E589540F4420F589438E8F
:10197D0008ED900D5C93F58DD28ED2ACC2BCD2AF7A
:01198D002237
:10181600E4F555F554F553F552F559F558F557F5E0
:1018260056754E64FFEF25E025E024A8F8E4F6EFB0
:1018360025E025E024A9F8E4F6EF25E025E024AA32
:10184600F8E4F6EF25E025E024ABF8E4F60FBF0256
:01185600D4BD
:01185700226E
:1019CE00D2AFD2A9C2BBE589540F4401F589E4F523
:0B19DE008E758CAFF58AD28C021816B3
:02117200151E48
:10117400A81EE4F6A81EE6FFC39402400302120B65
:10118400EF25E025E024ABF8E6FFD394004052A815
:101194001EE625E025E024A9F8E67045EF30E015C9
:1011A400A81EE6FF25E025E024ABF8E6D394014031
:1011B400047D0180067D00A81EE6FF121781A81E8B
:1011C400E6FF25E025E024ABF816E66014EF25E001
:1011D40025E024AAF8E6FEEF25E025E024A9F8EEB0
:1011E400F6A81EE625E025E024A9F8E6600116A885
:1011F4001EE6FF25E025E024ABF8E67004FD121797
:0712040081A81E060211780B
:03120B00051E229B
:03000B00021326B7
:10132600C0E0C0F0C083C082C0D0E8C0E0E9C0E041
:10133600EAC0E0EBC0E0ECC0E0EDC0E0EEC0E0EFFC
:10134600C0E0758CAFE5552401F555E43554F554E8
:10135600E43553F553E43552F552D54E18E5592484
:1013660001F559E43558F558E43557F557E435563F
:10137600F556754E641211721219AED0E0FFD0E028
:10138600FED0E0FDD0E0FCD0E0FBD0E0FAD0E0F902
:0E139600D0E0F8D0D0D082D083D0F0D0E032BA
:10194600151EA81EEDF6151EA81EEFF6A81EE6FF2C
:10195600C39402500D08E6FEEF25E025E024A8F822
:07196600EEF6051E051E222E
:1013A400151E151EA81EEAF608EBF6151EA81EED5E
:1013B400F6151EA81EEFF6A81EE6FFC394025052AF
:1013C400EF25E025E024ABF8E67047A81EE6FB25F0
:1013D400E025E024A9F8E67039A81E08E625E00413
:1013E400FFA81EE6FA25E025E024ABF8EFF6A81ED8
:1013F4000808E6FE08E6FF7C007D0A120A93EA2547
:10140400E025E024AAF8EFF6EB25E025E024A9F88E
:09141400E4F6E51E2404F51E2295
:10178100151EA81EEDF6151EA81EEFF6A81EE6FFF3
:10179100C39402501CEF25E025E024A8F8E660116F
:1017A100A81E08E670047F0180027F00A81E08EFD2
:1017B100F6A81EE6700608E624FF9282A81EE6B48B
:0D17C100010608E624FF9287051E051E2282
:0C000E00C2AFAF55AE54AD53AC52D2AFF0
:01001A0022C3
:0C1A1D00C2AFAF59AE58AD57AC56D2AFB7
:011A2900229A
:10191D00151EA81EEFF6A81EE67004F550F5513001
:10192D000F14E54F75F064A4FFC3E5519FE5509585
:09193D00F05003E4F5D3051E226D
:10198E00D20FE4F550F551EF6004F54F8003754F1B
:10199E000AE4F5D975D2FF75D940F5D375EF062255
:0A1A4100C20FE4F550F551F5D9226B
:1019AE000551E55170020550300F14E54F75F06486
:1019BE00A4FFC3E5519FE55095F05003E4F5D32203
:0418F2008E5A8F5B20
:1018F600E4F55CF55DC3E55D955BE55C955A5016D0
:101906007FE87E031216397F0112191D055DE55D1C
:0619160070E3055C80DFB8
:01191C0022A8
:041639008E348F3527
:10163D00D3E53594FAE5349400500FEFD394004080
:10164D0041007E0300DEFD1F80F185343685353780
:10165D00D3E53794FAE536940040157FFA7E0012F3
:10166D00163974062537F53774FF3536F53680E0B3
:10167D00D3E5359400E53494004007AF37AE36120C
:02168D0016390C
:01168F002238
:10157000754800754900754A427B007A0079407DC4
:011580000268
:081581008B448A4589468D4721
:101589007F0112191DAB48AA49A94A120AC92400A8
:10159900FFE5F03460FE85444B85454C85464DE4B6
:1015A900FDEDC39547501BEF2DF582E43EF583E42D
:1015B90093AB4BAA4CA94D8D82758300120A5F0D1E
:0F15C90080DFAB48AA49A94AE48547F0020AF43B
:10101600753B12753C3475430075440075453D7B40
:07102600007A00793B7D0216
:08102D008B3F8A4089418D428E
:101035007880E664F160030210CE121A41C2AF75E2
:101045008F01AB43AA44A945120AC92400FFE5F064
:1010550034607872F608EFF6AA40A9417876A63F83
:1010650008C6EAC608C6E9C6E47874F67874E6C325
:101075009542503C7876CBE6CB080806E618CAE6DA
:10108500CA70010614F9120A077875F675B7A578BE
:1010950080E6F5B77875E6FF78720806E618CCE6BF
:1010A500CC70010614F5828C83EFF078740680BC51
:1010B500E4F58F53B6F0AB43AA44A9458542F01237
:0910C5000AF4D2AFE4FF12198E07
:0110CE0022FF
:101690007880E664F1704AC2AF121A41758F037800
:1016A000737660087600E47872F675B7A57880E600
:1016B000F5B77873E6FE08E6F5828E83E4F07F01E5
:1016C00012191D7874E426F618740236F61806E628
:1016D000C3940240D5E4F58F53B6F0D2AFFF121990
:0116E0008E7B
:0116E10022E6
:1010CF00121690E4F53DF53EF54375440075453D28
:1010DF00FB7A0079087D1612102D121016E4F53ADE
:1010EF00E53AC3786D965073E4F539AB5EAA5FA904
:1010FF006075F010E539A4F58285F083120A20603F
:10110F0056E53975F010A429F9EA35F0FA90000D7B
:10111F00120B497889E6853AF0A429F9EA35F0FAF5
:10112F00EBC0E0EAC0E0E9C0E0AB5EAA5FA9607582
:10113F00F010E539A4F58285F083120A20FD75437E
:10114F000075440075453DD0E0F9D0E0FAD0E0FBE2
:10115F0012102D05398094053A8085121016E47807
:02116F0080F608
:01117100225B
:030F4D00CCEFCC1A
:100F5000E4F542F543F53FF548754900754A42FB13
:100F60007A0079087D16121581121570E5416434F6
:100F70007004E54064127003433F01EC70030210FB
:100F800010E4F53EE53EC3786D965073E4F53DAB55
:100F90005EAA5FA96075F010E53DA4F58285F08337
:100FA000120A206056E53D75F010A429F9EA35F0E3
:100FB000FA90000D120B497889E6853EF0A429F9D4
:100FC000EA35F0FAEBC0E0EAC0E0E9C0E0AB5EAAC7
:100FD0005FA96075F010E53DA4F58285F083120AE3
:100FE00020FD754800754900754A42D0E0F9D0E00F
:100FF000FAD0E0FB121581053D8094053E808512F4
:101000001570E54164347004E54064127005800099
:05101000433F02AF3F69
:0110150022B8
:0300000002129A4F
:0C129A00787FE4F6D8FD7581AF0212E108
:100A0700BB010689828A83E0225002E722BBFE02ED
:090A1700E32289828A83E4932220
:100A2000BB010CE58229F582E5833AF583E022508B
:100A300006E92582F8E622BBFE06E92582F8E222D5
:0D0A4000E58229F582E5833AF583E49322EF
:100A4D00BB010689828A83F0225002F722BBFE0188
:020A5D00F32282
:100A5F00F8BB010DE58229F582E5833AF583E8F0CD
:100A6F00225006E92582C8F622BBFE05E92582C879
:020A7F00F22261
:100A8100EF8DF0A4A8F0CF8CF0A428CE8DF0A42E89
:020A9100FE2243
:100A9300C2D5EC30E709B2D5E4C39DFDE49CFCEE7E
:100AA30030E715B2D5E4C39FFFE49EFE120BCBC320
:100AB300E49DFDE49CFC8003120BCB30D507C3E41B
:060AC3009FFFE49EFE22ED
:100AC900BB010A89828A83E0F5F0A3E022500687F8
:100AD900F009E71922BBFE07E3F5F009E3192289BA
:0B0AE900828A83E493F5F074019322ED
:100AF400BB010789828A83020C20500B09C5F027A9
:100B0400F7C5F01937F722BBFE0D09F8E325F0F31A
:100B1400C5F019E338F322F889828A837401932596
:080B2400F0C5F0F8E49338225B
:100B2C00EB9FF5F0EA9E42F0E99D42F0E89C45F01F
:010B3C002296
:0C0B3D00ECF608EDF608EEF608EFF622E4
:100B4900BB010DE58229F582E5833AF583020C3F65
:100B59005007E92582F8020C36BBFE07E92582F821
:100B6900020C48E58229F582E5833AF583020C51A6
:100B7900D083D082F8E4937012740193700DA3A30B
:100B890093F8740193F5828883E47374029368601F
:060B9900EFA3A3A380DF1F
:1016E2008B3D8A3E893FE4F545F546E5441544AE17
:1016F20043700215434E6033AB40AA41A942120A1D
:1017020007FFAB3DAA3EA93F0546E546AC45700240
:10171200054514F5828C83EF120A5FEF60CD7401E8
:101722002542F542E43541F54180C0AB3DAA3EA9D0
:021732003F2254
:100B9F00EF4E6012EF60010EEDBB010B89828A836D
:100BAF00F0A3DFFCDEFA2289F05007F709DFFCA97A
:0C0BBF00F022BBFEFCF309DFFCA9F022D1
:1012A600021A36E493A3F8E493A34003F68001F20E
:1012B60008DFF48029E493A3F85407240CC8C33349
:1012C600C4540F4420C8834004F456800146F6DF18
:1012D600E4800B01020408102040809019E9E47EA6
:1012E600019360BCA3FF543F30E509541FFEE4930D
:1012F600A360010ECF54C025E060A840B8E493A3D4
:10130600FAE493A3F8E493A3C8C582C8CAC583CAFE
:10131600F0A3C8C582C8CAC583CADFE9DEE780BEB6
:011A020000E3
:100BCB00BC000BBE0029EF8DF084FFADF022E4CC0E
:100BDB00F875F008EF2FFFEE33FEEC33FCEE9DECD7
:100BEB00984005FCEE9DFE0FD5F0E9E4CEFD22ED1D
:100BFB00F8F5F0EE8420D21CFEADF075F008EF2F67
:100C0B00FFED33FD4007985006D5F0F222C398FD57
:050C1B000FD5F0EA22F4
:100C2000C5F0F8A3E028F0C5F0F8E582158270025F
:060C30001583E038F022FC
:090C3600E6FB08E6FA08E6F922E3
:090C3F00E0FBA3E0FAA3E0F922B6
:090C4800E2FB08E2FA08E2F922DD
:0C0C5100E493FB740193FA740293F922FF
:00000001FF
