:10162500005EBCE2613FDD83C29C7E20A3FD1F41BD
:101635009DC3217FFCA2401E5F01E3BD3E6082DCAD
:10164500237D9FC1421CFEA0E1BF5D0380DE3C629D
:10165500BEE0025CDF81633D7C22C09E1D43A1FF8D
:101665004618FAA427799BC584DA3866E5BB59077D
:10167500DB856739BAE406581947A5FB7826C49A6D
:10168500653BD987045AB8E6A7F91B45C6987A245D
:10169500F8A6441A99C7257B3A6486D85B05E7B94D
:1016A5008CD2306EEDB3510F4E10F2AC2F7193CD3D
:1016B500114FADF3702ECC92D38D6F31B2EC0E502D
:1016C500AFF1134DCE90722C6D33D18F0C52B0EE1D
:1016D500326C8ED0530DEFB1F0AE4C1291CF2D730D
:1016E500CA947628ABF517490856B4EA6937D58BFD
:1016F5005709EBB536688AD495CB2977F4AA4816ED
:10170500E9B7550B88D6346A2B7597C94A14F6A8DC
:10171500742AC896154BA9F7B6E80A54D7896B35CC
:0A172500000000002B6096CBDDEE03
:031AED0001550A96
:101CCB00151E151EA81EECF608EDF6151E151E1595
:101CDB001EA81EC6EBC608C6EAC608C6E9C6E51EA0
:041CEB0024FCF51EC2
:101CEF00F80808E4F6A81EF608F6E51E2407F9A87A
:101CFF001EE6FE08E6FFC3099719E76480F8EE6455
:101D0F0080985037E51E2404F8CBE6CB08E6FA0896
:101D1F00E6F98F828E831208D3A81E080866FFE5A6
:101D2F001E2403F8EFF6E690162593A81E0808F672
:101D3F00A81E0806E61870B20680AFA81E0808E6AF
:011D4F00FF94
:071D5000E51E2409F51E2227
:07000300ED6F90162593FF3D
:01000A0022D3
:10236C00EF7023F5847598D0F584759115F5847507
:10237C00C90875CBFFED90172493F5CA75C804E412
:08238C00F584D2ACC2BCD2AF53
:012394002226
:10222400E4F55BF55AF559F558F55FF55EF55DF59E
:102234005C755464FFEF25E025E02477F8E4F6EFBD
:1022440025E025E02478F8E4F6EF25E025E024797C
:10225400F8E4F6EF25E025E0247AF8E4F60FBF0170
:01226400D4A5
:012265002256
:10249A00D2AFD2A9C2BBE4F584E589540F4401F551
:0F24AA0089758E02758CAFE4F58AD28C022224DC
:021C2E00151E81
:101C3000A81EE4F6A81EE6FFC394014003021CC8D8
:101C4000EF25E025E0247AF8E6FFD394004052A87F
:101C50001EE625E025E02478F8E67045EF30E01533
:101C6000A81EE6FF25E025E0247AF8E6D39401409B
:101C7000047D0080067D01A81EE6FF122266A81ED4
:101C8000E6FF25E025E0247AF816E66014EF25E06B
:101C900025E02479F8E6FEEF25E025E02478F8EE4B
:101CA000F6A81EE625E025E02478F8E6600116A8EF
:101CB0001EE6FF25E025E0247AF8E670057D011296
:081CC0002266A81E06021C3476
:031CC800051E22D4
:03000B00021DE3F0
:101DE300C0E0C0F0C083C082C0D0E8C0E0E9C0E07A
:101DF300EAC0E0EBC0E0ECC0E0EDC0E0EEC0E0EF35
:101E0300C0E0758CAFE55B2401F55BE4355AF55A08
:101E1300E43559F559E43558F558D55418E55F2498
:101E230001F55FE4355EF55EE4355DF55DE4355C53
:101E3300F55C755464121C2E12247AD0E0FFD0E0B6
:101E4300FED0E0FDD0E0FCD0E0FBD0E0FAD0E0F93A
:0E1E5300D0E0F8D0D0D082D083D0F0D0E032F2
:1023E700151EA81EEDF6151EA81EEFF6A81EE6FF81
:1023F700C39401500D08E6FEEF25E025E02477F8A9
:07240700EEF6051E051E2282
:101EDC00151E151EA81EEAF608EBF6151EA81EED1B
:101EEC00F6151EA81EEFF6A81EE6FFC3940150526D
:101EFC00EF25E025E0247AF8E67047A81EE6FB25DE
:101F0C00E025E02478F8E67039A81E08E625E00400
:101F1C00FFA81EE6FA25E025E0247AF8EFF6A81EC5
:101F2C000808E6FE08E6FF7C007D0A120946EA2551
:101F3C00E025E02479F8EFF6EB25E025E02478F8AD
:091F4C00E4F6E51E2404F51E2252
:10226600151EA81EEDF6151EA81EEFF6A81EE6FF03
:10227600C39401501CEF25E025E02477F8E66011B1
:10228600A81E08E670047F0180027F00A81E08EFE2
:10229600F6A81EE6700608E624FF9284051E051EB3
:0122A6002215
:0C255000C2AFAF5BAE5AAD59AC58D2AF71
:01255C00225C
:0C255D00C2AFAF5FAE5EAD5DAC5CD2AF54
:01256900224F
:10239500151EA81EEFF6A81EE67004F556F5573073
:1023A5001814E55575F064A4FFC3E5579FE55695E8
:0923B500F0500375FFA5051E227E
:1024D800D218E4F556F557EF6004F55580037555A5
:0E24E8000A75FF0775FFA5E4F58475EF042261
:0E254200C218E4F556F55775FFDE75FFAD22A1
:10247A000557E55770020556301814E55575F0648E
:10248A00A4FFC3E5579FE55695F0500375FFA522B3
:042341008E3C8F3D02
:10234500E4F53EF53FC3E53F953DE53E953C50162A
:102355007FE87E031220E67F01122395053FE53FC6
:0623650070E3053E80DF7D
:01236B00224F
:0420E6008E508F5138
:1020EA00D3E55194FAE5509400500EEFD394004092
:1020FA00407E1600DEFD1F80F2855052855153D373
:10210A00E55394FAE552940040157FFA7E001220B6
:10211A00E674062553F55374FF3552F55280E0D321
:10212A00E5519400E55094004007AF53AE52122097
:01213A00E6BE
:01213B002281
:101FC000754A00754B00754C447B007A0079427D60
:011FD000020E
:081FD1008B468A4789488D49BF
:101FD9007F01122395AB4AAA4BA94C12097C240014
:101FE900FFE5F034E0FE85464D85474E85484FE4D0
:101FF900FDEDC39549501BEF2DF582E43EF583E4D1
:1020090093AB4DAA4EA94F8D827583001209120D0B
:0F20190080DFAB4AAA4BA94CE48549F00209A726
:10199500753D12753E3475450075460075473F7BAC
:0719A500007A00793D7D028C
:0819AC008B418A4289438D44FE
:1019B4007880E664F16003021A49122542C2AFE45A
:1019C400F58443B701758F01AB45AA46A9471209AF
:1019D4007C2400FFE5F034E07870F608EFF6AA42C4
:1019E400A9437874A64108C6EAC608C6E9C6E478DD
:1019F40072F67872E6C3954450327874CBE6CB081D
:101A04000806E618CAE6CA70010614F91208BA787C
:101A140073F6E6FF78700806E618CCE6CC7001068B
:101A240014F5828C83EFF078720680C6E4F58F5348
:101A3400B7F0AB45AA46A9478544F01209A7D2AF2F
:051A4400E4FF1224D8AC
:011A4900227A
:10218E007880E664F17046C2AF122542E4F58443CE
:10219E00B701758F03787176E008F67870F678716E
:1021AE00E6FE08E6F5828E83E4F07F011223957831
:1021BE0072E426F618740236F61806E6C394084042
:0D21CE00DDE4F58F53B7F0D2AFFF1224D837
:0121DB0022E1
:101A4A0012218EE4F53FF540F54575460075473F8E
:101A5A00FB7A0079087D161219AC121995E4F53C47
:101A6A00E53CC3781F965073E4F53BAB66AA67A9B9
:101A7A006875F010E53BA4F58285F0831208D360FF
:101A8A0056E53B75F010A429F9EA35F0FA90000DF5
:101A9A00120A3E7889E6853CF0A429F9EA35F0FA7B
:101AAA00EBC0E0EAC0E0E9C0E0AB66AA67A96875E6
:101ABA00F010E53BA4F58285F0831208D3FD754545
:101ACA000075460075473FD0E0F9D0E0FAD0E0FB58
:101ADA001219AC053B8094053C8085121995E4786F
:021AEA0080F684
:011AEC0022D7
:0318CC00CCEFCC92
:1018CF00E4F544F545F541F54A754B00754C44FB7D
:1018DF007A0079087D16121FD1121FC0E5436434B8
:1018EF007004E54264127003434101EC7003021966
:1018FF008FE4F540E540C3781F965073E4F53FAB96
:10190F0066AA67A96875F010E53FA4F58285F08394
:10191F001208D36056E53F75F010A429F9EA35F0A7
:10192F00FA90000D120A3E7889E68540F0A429F955
:10193F00EA35F0FAEBC0E0EAC0E0E9C0E0AB66AA36
:10194F0067A96875F010E53FA4F58285F08312084A
:10195F00D3FD754A00754B00754C44D0E0F9D0E0CB
:10196F00FAD0E0FB121FD1053F809405408085120D
:10197F001FC0E54364347004E542641270058000B3
:05198F00434102AF41DD
:011994002230
:0C256A00245265763A20373436202400D5
:100EBE00E47880F612254275840F75E104E4F5E2BC
:100ECE0075E34475E104F5E275E34075A508C28546
:100EDE00F58475B7B075840F758A83F597438901CC
:100EEE00758D01758F01758E04F53DF53E053EE558
:100EFE003E7002053D640F453D70F2438902E4F5F4
:100F0E003DF53EAE3DAF3EE4FCFD7B507AC3F9F8B5
:100F1E00D31209DF400FE58920E40A053EE53E7055
:100F2E00E2053D80DE75970212249AE4F53DF53E0A
:100F3E007D01AF3E1223E7053EE53E7002053DC33F
:100F4E009401E53D940040E8E4F520C213C211C2BD
:100F5E0017C216C2157880F6C28508F67885F6187F
:100F6E00F6788AF6F53DF53E7487253EF582E43433
:100F7E0001F583E4F0053EE53E7002053D64404513
:100F8E003D70E5E4F53DF53E74C7253EF582E4344B
:100F9E0001F583E4F0053EE53E7002053D644045F3
:100FAE003D70E5E4F584E5EF20E10CE5EF5408D360
:100FBE0094004003D38001C392037D08E4FF122303
:100FCE006CE47889F67882F6AB66AA67A9687882AF
:100FDE00E6FF75F010A4F58285F0831208D3FE7833
:100FEE008926F6EE600578820680DDEFD394004008
:100FFE0030AB66AA67A96890000D120A3E1208BAB5
:10100E00FF74551209001208BA64556002D21574A5
:10101E00AA1209001208BA64AA6002D215EF1209C8
:10102E0000E4F584E5EF5402D3940040047F018080
:10103E0002E4FF1218CC8F3CE53C20E035C212745E
:10104E00FFF508F509F50AF50B7E007F107D007B94
:10105E00007A00790E120A947542FF75431B75448F
:10106E00937545007546107B007A00790E12213C6F
:10107E008002D212902571E493FF3395E0FEEF24A7
:10108E00D0FFEE34FFFE7C007D64120934AA06AB5D
:10109E0007902570E493FF3395E0FEEF24D0FFEE2A
:1010AE0034FFFE7C037DE8120934EF2BFBEE3AFA97
:1010BE00902572E493FF3395E0FEEF24D0FFEE34DB
:1010CE00FFFE7C007D0A120934EF2BFFEE3AFEA3E1
:1010DE00E493FD3395E0FCED24D0FDEC34FFCD2FF1
:1010EE00F50DED3EF50CE53C30E1030211AAE4F5F9
:1010FE003DF53EE53EC4F8540FC868FFE53DC454C7
:10110E00F048FEAB66AA67A9688F82F5831208D3F2
:10111E0070030211A1E92FF9EA3EFA9000041208B9
:10112E00D320E264E4F53BE53BC3781F965059E5C6
:10113E003EC4F8540FC868FFE53DC454F048AB6692
:10114E00AA67A9688F82F5831208D3FF7E00C006B6
:10115E00C0077D00E53EC4F8540FC868FFE53DC4E6
:10116E0054F048FEE92FF9EA3EFA90000D120A3EBD
:10117E007889E6853BF0A429F9EA35F0FAD007D054
:10118E0006120A94053B809F053EE53E7002053D22
:10119E000211017F011213C2C2148007E4FF121361
:1011AE00C2D214E4F53DF53E7A007B967D03AF3E48
:1011BE00121EDC053EE53E7002053DC39401E53D81
:0411CE00940040E465
:0111D20022FA
:05259000788AE6FF223D
:03002300021512B1
:10151200C0E0C0F0C083C082C0D075D000C000C09F
:1015220001C002C003C004C005C006C00730993E16
:10153200C2997885067985E77881667015F678858F
:01154200F6B2
:0D15430075240A75251300D525FCD524F666
:04155000C285801CB4
:0D15540075241475251300D525FCD524F64B
:101561007885E624C7F582E43401F583E0F5992016
:10157100980302160A209A08201305C2980216063B
:10158100C29A7884E6062487F582E43401F583E57E
:1015910099F0C298E6FFB40112900187E0FE700352
:1015A100F68066EE54072402788BF6EFB4020D78CC
:1015B1008BE6B40907900188E02403F67884E6FFFE
:1015C100B4400476008042EFC3788B96403B788428
:1015D100E624FFFDE434FFFC7B017A017987121CCC
:1015E100CB7884E62486F582E43401F583E06F60EC
:0515F1000476008014E7
:0D15F60075241475251300D525FCD524F6A9
:1016030012002678847600D007D006D005D004D007
:1016130003D002D001D000D0D0D082D083D0F0D07C
:02162300E032B3
:101E6100900188E075F010A4AB662568F9E5673547
:101E7100F0FA90000D120A3E788AE6FF18E68FF01C
:101E8100A42528F582E435F0F5831208D3FF7B0001
:041E91007A00792634
:101E95008F358B368A378938E4F584EA494B601CDF
:101EA500AB36AA37A9381208BAFFE535FD7C001212
:0C1EB5000003AB36AA37A938EF12090071
:0D1EC100753914753A1300D53AFCD539F681
:0E1ECE008535997F011223953099FDC2992226
:0924F600E4F5847881EFF6D2854B
:0D24FF0075351475361300D536FCD535F64D
:07250C009001C7E0F59922E0
:1021DC00C9EFC9E964017028EDC39B4034781FE650
:1021EC00FFEB2FFFE433FEEDC39FEE6480F87480A9
:1021FC0098501ED213C3ED9B788AF678867601220E
:10220C00B90214ED6B700AD213788AF678867602CE
:08221C0022C213E47886F622C9
:10202800C9EFC9BAFF15BBFF12ED6B7002EC6A70FD
:1020380049D213788AF67886E9F622E96401702590
:10204800C3ED9BEC9A401C781FE62BFFE43AFEC3D5
:10205800ED9FEC9E500DD213C3ED9B788AF67886DF
:102068007601228015B90218ED6B7002EC6A700ACD
:10207800D213788AF67886760222C213E47886F636
:012088002235
:10002600900187E0FF54F8F527E4F584EF120A6E95
:10003600007309007F0A008F1000981100A81200B3
:10004600BC1900D11A00F32000FC28019B29029D4F
:100056003302CF3702FE39031841032349032D50DB
:10006600037561026770036D98000003A59001880F
:10007600E0FDE509FB7F018023900188E0FCA3E019
:10008600FDAB09AA087F018027D213788676030282
:1000960003A5900188E0FDE50BFB7F021221DC023F
:1000A60003A5900188E0FCA3E0FDAB0BAA0A7F0242
:1000B6001220280203A5900188E0FDE509FB7F01D7
:1000C6001221DC2013030203A58017900188E0FCAF
:1000D600A3E0FDAB09AA087F011220282013030222
:1000E60003A59001C77478F07F010203A2E4F584AA
:1000F60075EF100203A5C2ACE4F526D285FB7A00A3
:1001060079267F7F121E957B007A0079267F18124A
:100116001E957B007A0079267F05121E957882E669
:10012600121E8E7B007A007926AF08121E957B0080
:100136007A007926AF09121E957B007A007926AFE0
:100146000A121E957B007A007926AF0B121E957B4C
:10015600007A007926AF0C121E957B007A0079266C
:10016600AF0D121E95E4F528740E2528F8E6121E2A
:100176008E0528E528C3941040EE7B007A007900AE
:05018600AF26121E95DA
:0D018B0075330A75341300D534FCD533F6F6
:10019800020252900188E0FFC3788296400302026F
:1001A80059EF75F010A42568F9E56735F0856630D4
:1001B800F5318932C2ACE4F526D285FB7A0079267E
:1001C8007F7F121E957B007A0079267F0D121E957F
:1001D800AB30AA31A9321208BA121E8EAB30AA313E
:1001E800A932900001121E8BAB30AA31A9329000BF
:1001F80002121E8BAB30AA31A932900003121E8B5B
:10020800AB30AA31A932900004121E8BE4F528AB5A
:1002180030E5322405F9E43531FA7E00E92528F97C
:10022800EE3AFA1208BA121E8E0528E528C3940879
:0D02380040DD7B007A007900AF26121E9594
:0D02450075330A75341300D534FCD533F63B
:10025200C285D2AC0203A59001C77478F0E4A3F082
:100262007F020203A212255D786C120A269001C752
:10027200747CF0786CE6A3F008E6A3F008E6A3F03D
:1002820008E6A3F07C007D057B017A0179C7121C88
:10029200CB9001CCEFF07F060203A2900188E0FF31
:1002A200B4010BA3E0F508A3E0F50902036DEFB476
:1002B2000209900189E0F50802036D900188E0B41B
:1002C2000308A3E0F50AA3E0F50B02036DE4F528A9
:1002D200900188E0FFE528C39F501C74892528F50A
:1002E20082E43401F583E0FF740E2528F8C6EFC6D8
:1002F2000528E528B410D9E4F51D806F7A007B3219
:100302007D01788AE6FF121EDC900188E0FDE4FFA1
:1003120012236C0203A5900188E024FF92020203DB
:10032200A5900188E024FF92018078788AE6600532
:10033200752A02800B201605752A038003752A018F
:100342009001C77479F0A3E52AF07C007D027B015D
:100352007A0179C7121CCB9001C9EFF07F031224F6
:10036200F6E52A6401703CD2178002D211788076B9
:10037200F180307A007B327D017F00121EDC900119
:10038200C77479F0900188E09001C8F07C007D028A
:100392007B017A0179C7121CCB9001C9EFF07F0370
:1003A2001224F6E52764A060030205B4900187E0F9
:1003B20064A160030204A4A3E0C37882964003020E
:1003C2000499AB66AA67A968E0FF75F010A4F582EC
:1003D20085F0831208D3F52AEF75F010A429F9EA03
:1003E20035F0FA9000041208D330E237900188E029
:1003F2001225958F2A9001C7747FF0A3E52AF02475
:1004020002FDE433FC7B017A0179C7121CCB74C96B
:10041200252AF582E43401F583EFF0E52A2403FF6F
:100422000205B1900188E0FF122595C2ACE4F526E1
:10043200D285E52AD39406402B7B007A0079267F69
:100442007F121E957B007A007926AF2A121E95E450
:10045200F528E528C3952A5007121E61052880F267
:10046200052A8018E52A2478121E8EE4F528E5284C
:10047200C3952A5007121E61052880F27B007A007C
:070482007900AF26121E9560
:0D04890075330A75341300D534FCD533F6F5
:100496000205A39001C77478F07F010205B19001AF
:1004A60087E064A260030205B47882E6FFA3E0FE5B
:1004B600C39F40030205A9A3E0FDC39F40030205B5
:1004C600A9EE9D40030205A9900188E0F528E4F510
:1004D6002EF52F900189E0FFE528D39F5026AF28FF
:1004E600122595AB66AA67A96875F010E528A4F5EC
:1004F6008285F0831208D3252FF52FE4352EF52EAD
:10050600052880CFC2ACE4F526D285FB7A00792691
:100516007F7F121E95C3E52F9480E52E940050022E
:100526008007E52E4480121E8EAF2F121E8F90017B
:1005360088E0F528900189E0FFE528D39F5046E43E
:10054600F529AB66AA67A96875F010E528A4F582B7
:1005560085F0831208D3FFE529C39F5024E528754B
:10056600F010A429F9EA35F0FA90000D120A3E7847
:100576008AE6FF18E68FF0A42529121E8405298035
:10058600C1052880AF7B007A007900AF26121E9540
:0D05960075330A75341300D534FCD533F6E7
:1005A300C285D2AC800B9001C77478F07F0112240E
:1005B300F6E5276458704DFA7B327D01788AE6FFB1
:1005C300121EDC753801753901753AC87B017A0151
:1005D30079881223148F2AE52A24789001C7F0EF33
:1005E3002401FDE433FC7B017A0179C7121CCB742F
:1005F300C8252AF582E43401F583EFF0E52A2402C5
:10060300FF1224F6E52764806009E5276488600308
:100613000207C37886E6B4010F7A007B327D017846
:100623008AE6FF121EDC801AE4F528E528C3781F4A
:1006330096500F7A007B327D01AF28121EDC05280D
:1006430080E9900187E05407F52AB4070A75290168
:10065300A3E0F52AA38006E4F529900188E0F52BB1
:10066300152AE52BC37882964003020797AB66AA47
:1006730067A96875F010E52BA4F58285F08312084D
:10068300D3FFE52AD39F40028F2A7886E6B4010977
:10069300788AE6F52DF52C8009E4F52C781FE6140D
:1006A300F52D788AA62C788AE6D3952D4003020788
:1006B3008BE4F528E528C3952A4003020780E52B40
:1006C30075F010A4AB662568F9E56735F0FA90007C
:1006D300041208D330E20302077B9000011208D30F
:1006E30064387041E52AD394044011E52925282470
:1006F30089F582E43401F583E0FD805E7884E6C306
:100703009528FFE49400FE74852FF58274013EF56D
:1007130083E0FDE52B75F010A4AB662568F9E5676A
:1007230035F0FA8035AB66AA67A96875F010E52B3A
:10073300A4F58285F0831208D3FFC37884E69F254E
:100743002825292486F582E43401F583E0FDE52B91
:1007530075F010A429F9EA35F0FA90000D120A3E5B
:10076300788AE6FF18E68FF0A4FFE5282FF582E4E8
:1007730035F0F583ED12091205280206B7AF2B12E7
:100783002530788A060206A9788AA62CE52764888C
:10079300702E8010E52BB4FF27900189E0F520E54A
:1007A30027B4881C9001C77478F07884E62486F512
:1007B30082E43401F583E09001C8F07F021224F64D
:0107C3002213
:10D000007880E664F1600302D60CE4F540F54178DF
:04D0100081E6601F36
:0DD0140075460A75471300D547FCD546F652
:10D021000541E5417002054064107004E540642744
:10D0310070DCC2AF7584015398FC75FFDE75FFADDE
:10D04100E4F53CF53BE4F58420982EE4F540F54108
:0ED05100209822C3E5419488E54094135017BF
:0DD05F0075460A75471300D547FCD546F607
:10D06C000541E54170DF054080DBB28480CF8599B6
:10D07C003BC298E53B641A600302D14CF540F54184
:0ED08C00209822C3E5419488E5409413501784
:0DD09A0075460A75471300D547FCD546F6CC
:10D0A7000541E54170DF054080DB30989285993C6A
:10D0B700C298E4F540F541209822C3E5419488E5FC
:05D0C700409413501716
:0DD0CC0075460A75471300D547FCD546F69A
:10D0D9000541E54170DF054080DB20980302D04619
:10D0E90085993CC298E4F540F541209822C3E54171
:08D0F9009488E54094135017E0
:0DD1010075460A75471300D547FCD546F664
:10D10E000541E54170DF054080DB20980302D046E3
:09D11E0085993CC298D285C299A2
:0DD1270075461475471300D547FCD546F634
:06D134007599783099FDA9
:0DD13A0075460A75471300D547FCD546F62B
:10D14700C28502D5FEE53B6450600302D1DCF540A1
:10D15700F541209822C3E5419488E5409413501780
:0DD1670075460A75471300D547FCD546F6FE
:10D174000541E54170DF054080DB20980302D0467D
:09D1840085993CC298D285C2993C
:0DD18D0075461475471300D547FCD546F6CE
:08D19A007599793099FDC299E5
:0DD1A20075461475471300D547FCD546F6B9
:08D1AF007599013099FDC29948
:0DD1B70075461475471300D547FCD546F6A4
:06D1C400E4F5993099FD2D
:0DD1CA0075460A75471300D547FCD546F69B
:0FD1D700C28502D5FEE53B6401703ED285C29948
:0DD1E60075461475471300D547FCD546F675
:08D1F3007599783099FDC2998D
:0DD1FB0075461475471300D547FCD546F660
:06D20800E4F5993099FDE8
:0DD20E0075460A75471300D547FCD546F656
:10D21B00C28502D5FEE53B6402600302D2E2F54013
:10D22B00F541209822C3E5419488E54094135017AB
:0DD23B0075460A75471300D547FCD546F629
:10D248000541E54170DF054080DB20980302D046A8
:10D2580085993CC298E4F53DE53C13B39284E53CDE
:10D2680025E0FEC3E49400EE94D0502AE53C7F000C
:10D2780025E0FEC394E0501EE53C20E01FE4F58461
:10D2880043B701758F038E428F438F828E83F0538D
:10D29800B7F0F58F8003753DFFE4F584D285C29918
:0DD2A80075461475471300D547FCD546F6B2
:08D2B5007599783099FDC299CA
:0DD2BD0075461475471300D547FCD546F69D
:06D2CA00853D993099FD3D
:0DD2D00075460A75471300D547FCD546F694
:10D2DD00C28502D5FEE53B6403600302D42DF54003
:10D2ED00F541209822C3E5419488E54094135017E9
:0DD2FD0075460A75471300D547FCD546F667
:10D30A000541E54170DF054080DB20980302D046E5
:10D31A0085993CC298E4F540F541209822C3E5413D
:08D32A009488E54094135017AC
:0DD3320075460A75471300D547FCD546F631
:10D33F000541E54170DF054080DB20980302D046B0
:10D34F0085993EC298E53C139284E53C25E0FEC3E7
:10D35F00E49400EE94D0400302D046E53C7D0025D6
:10D36F00E0FCC394E0400302D046E4F58443B701E8
:10D37F00758F01E53E75F020A42DFFE5F03CF542D9
:10D38F008F43E4F584F53FE53FC394205048E4F51F
:10D39F0040F541209822C3E5419488E5409413500D
:01D3AF001766
:0DD3B00075460A75471300D547FCD546F6B3
:10D3BD000541E54170DF054080DB20980302D04632
:10D3CD000543E543AE427002054214F5828E83E5B6
:10D3DD0099F0C298053F80B1E4F58453B7F0F58F0D
:06D3ED00F584D285C2990F
:0DD3F30075461475471300D547FCD546F666
:08D400007599783099FDC2997D
:0DD4080075461475471300D547FCD546F650
:06D41500E4F5993099FDD9
:0DD41B0075460A75471300D547FCD546F647
:10D42800C28502D5FEE53B6404600302D4DDF54005
:10D43800F541209822C3E5419488E540941350179C
:0DD4480075460A75471300D547FCD546F61A
:10D455000541E54170DF054080DB20980302D04699
:10D4650085993CC298E53C25E0F544754500E4F511
:10D475003DF540F5410545E545AE447002054414CA
:10D48500F5828E83E493253DF53D0541E541700226
:0ED4950005407004E540640270DBD285C29948
:0DD4A30075461475471300D547FCD546F6B5
:08D4B0007599783099FDC299CD
:0DD4B80075461475471300D547FCD546F6A0
:06D4C500853D993099FD40
:0DD4CB0075460A75471300D547FCD546F697
:10D4D800C28502D5FEE53B6405600302D5F3F5403D
:10D4E800F541209822C3E5419488E54094135017EC
:0DD4F80075460A75471300D547FCD546F66A
:10D505000541E54170DF054080DB20980302D046E8
:10D5150085993CC298E4F540F541209822C3E54140
:08D525009488E54094135017AF
:0DD52D0075460A75471300D547FCD546F634
:10D53A000541E54170DF054080DB20980302D046B3
:09D54A0085993EC298D285C29970
:0DD5530075461475471300D547FCD546F604
:08D5600075997F3099FDC29915
:0DD5680075461475471300D547FCD546F6EF
:10D575007599203099FDE53C25E0FCE53E75F020E8
:10D58500A42400FFE5F03CF5448F45E4F53DF53F67
:02D59500C29939
:0DD5970075461475471300D547FCD546F6C0
:10D5A400854582854483E493F5993099FD0545E5E5
:10D5B40045AE447002054414F5828E83E493253D00
:0BD5C400F53D053FE53FB420C8C299CB
:0DD5CF0075461475471300D547FCD546F688
:06D5DC00853D993099FD28
:0DD5E20075460A75471300D547FCD546F67F
:10D5EF00C285800BE53BB40606E4F58475EF10E5C4
:0DD5FF003B6407600302D0467880F6D2AF8F
:01D60C0022FB
:101F55007F0012239520120B7A007B327D017F00D2
:101F6500121EDC30150B7A007B1E7D017F00121ED0
:101F7500DC3011173016147A007B327D01788AE641
:101F8500FF121EDCC211121A4AD21220140C30168E
:101F950009788076F1121A4AD214301708301605DE
:101FA500C21712D000201612122550E47B2C7A019C
:0B1FB500F9F8C31209F55002D2162201
:0B257600120EBE121F551211D380F888
:06258A00E4F584D2A42256
:10000E00E4F5847F32FE1220E6D2A37F327E001208
:05001E0020E6C2A32250
:0223BE008F4D41
:1023C000E4F584754E07AF4EE54DA807088002C3BB
:1023D00013D8FC1392A412000E154EC3E54E648070
:0623E000948050E2C2A44B
:0123E60022D4
:0422E6008E4C8F4D3E
:1022EA00E4F584754E0FE54DAE4CA84E088005CE38
:1022FA00C313CE13D8F91392A412000E154EC3E5D8
:09230A004E6480948050DFC2A4EF
:0123130022A7
:1022A700E4F54DF54EF54FF584754D077F327E0009
:1022B7001220E6A2A1E433F54EAF4DA8070880022D
:1022C700C333D8FC424FD2A37F327E001220E6C22E
:0E22D700A3154DC3E54D6480948050D0AF4FE9
:0122E50022D6
:102513008E408F41D29212258AD3E5419400E54043
:0D252300940240037FFF221225817F0022D9
:0A2089008E408F418B428A43894448
:10209300E4F547F548D2A0122459C2927F031223D4
:1020A300BEAF41AE401222E6C3E5489546E54795EB
:1020B3004550221222A7AB42AA43A944EF120900BA
:1020C30074012544F544E43543F5430548E5487078
:1020D300D7054780D37F197E001220E6D292C2A093
:0220E3007F007C
:0120E50022D8
:0A172F008B3C8A3D893E8C3F8D40C3
:10173900754900754A20D2A0E4FF122435E540AE70
:101749003F7805CEC313CE13D8F9F5488E47E4F593
:1017590041F542D3E5429548E541954740030217D3
:10176900F7E542AE417805C333CE33CED8F924002C
:10177900F546EE3406F545E542B5480EE541B5476F
:1017890009754900E540541FF54A122459C2927F50
:10179900021223BEAF46AE451222E6E4F543F544F4
:1017A900C3E544954AE54395495022AB3CAA3DA976
:1017B9003E1208BAFF1223BE7401253EF53EE435F8
:1017C9003DF53D0544E54470D7054380D37F197E37
:1017D900001220E6D2927F197E001220E61225819E
:1017E9000542E542600302175C054102175C7F84EC
:0717F900122435C2A07F009D
:0118000022C5
:0A1801008E3C8F3D8B3E8A3F8940EC
:10180B00754A00754B20D2A0E542AE417805CEC398
:10181B0013CE13D8F9F5498E48E4F544F545D3E5D5
:10182B00459549E544954840030218C7E545AE4444
:10183B007805C333CE33CED8F9F53D8E3CE545B5AF
:10184B00490EE544B54809754A00E542541FF54B6E
:10185B00122459C2927F021223BEAF3DAE3C12221C
:10186B00E6E4F546F547C3E547954BE546954A5003
:10187B002DE543701AAB3EAA3FA9401208BAFF12DE
:10188B0023BE74012540F540E4353FF53F8005E468
:10189B00FF1223BE0547E54770CC054680C87F196C
:1018AB007E001220E6D2927F197E001220E61225CE
:1018BB00810545E54570020544021829C2A07F0049
:0118CB0022FA
:10245900C2927F0A7E001220E67F061223BE7F19F0
:102469007E001220E6D2927F197E001220E6022514
:0124790081E1
:102435008F4B122459C2927F011223BEAF4B122338
:10244500BE7F197E001220E6D2927F197E001220EF
:04245500E6022581F5
:1024B900C2927F051223BE1222A78F4C7F197E007C
:0E24C9001220E6D2927F197E001220E6AF4C60
:0124D70022E2
:082581001224B9EF547170F847
:01258900222F
:101B8F004C5042006C6F61646572000434000000B9
:101B9F0053657269616C4E000100FC013400000056
:101BAF00436F6E74726F6C0001010001340000000E
:101BBF0045455061676500000101010134000000D7
:101BCF005374617475730000010102043400000046
:101BDF00534E577000000000010103023400000053
:101BEF0053747263537A5770010107043400000075
:101BFF00534E3000000000000101090234000000C4
:101C0F0053747263537A653001010D0000000000B8
:0F1C1F00000000000000000000000000000000B6
:101AF00048007C00000200040006006078010F002E
:101B000000000000000000000000000000000000D5
:101B100000000000000000000000000000000000C5
:101B2000000000000000000000000040B000003D88
:101B3000CCCCCD40B0000000000000000000000050
:101B40000000000000000040C0000040D000003E47
:101B5000CCCCCD40D000003F19999A3E4CCCCD3F23
:101B60000000003E4CCCCD41200000424800004126
:101B70002000004248000044000000000000011F57
:0E1B80000102600000026A00000366FF1B9A6B
:0213C2008F3F5B
:1013C400E4900207F0A3F0A3F0A3F0A3F0E49001EB
:1013D40000F0900102F090010DF0A3F0F56975435F
:1013E400FF75441B75458FFB7A00790E120BBE7591
:1013F400840F43A61875A7FF53A6FE43A50443A470
:101404002053E3FB900207E5B0F0E0FF3395E0FEE4
:10141400EFF4FFEEF4FEEF25E0FFEE335401FEEFB0
:1014240054F84405FF90020AEEF0A3EFF08E08F59D
:10143400097F787E00122513EF600AC2AF90010283
:10144400747FF0D2AFE4F564F565FF7EAB7D877CF5
:1014540004901C2A120A16D31209F5401A7F007E42
:10146400E07D937C04901C2A120A16C31209F550DD
:10147400067564007565017B017A00798475450001
:101484007546787F007E06122089C2AF900084E002
:10149400FCA3E0FDA3E0FEA3E0FF900103120A32E7
:1014A4009000FC120A32900088E0FFA3E09001074C
:1014B400CFF0A3EFF0D2AF90007CE0FEA3E0FF7B7F
:1014C400017A007904754500754678122089C2AF07
:1014D400900004E0FCA3E0FDA3E0FEA3E0FF900184
:1014E40009120A32900008E0FEA3E0FF90010DEE1D
:1014F400F0A3EFF0D2AF756200756301900113E0C1
:0D1504006E7003A3E06F6005E4F562F5630F
:0115110022B7
:10253000151EA81EEFF6A81EE6B401037569010575
:022540001E2259
:052595008F357F0022DC
:102314008B358A3689371208BAAB38AA39A93A12EA
:102324000900AB35AA36A9379000011208D3AB389F
:0D233400AA39A93A9000011209127F022275
:1011D300E4F53B12255D900000E0F8A3E0F9A3E0FD
:1011E300FAA3E0FBC3EF9BFFEE9AFEED99FDEC98AB
:1011F300FCE47B01FAF9F8C31209F55009E56545EA
:10120300646003756901E56970030213BBE56B450F
:101213006A60030213BBE56545646017901C2A12DC
:101223000A0690010F120A32901C2A120A06900035
:10123300FC8053900100E0FB30E01D9000FCE0FCDB
:10124300A3E0FDA3E0FEA3E0FF90010F120A32909A
:101253000113E4F0A37478F0EB30E12DE56345620C
:101263006027780F7C017D017B017A0079047E0081
:101273007F781208949000FCE0FCA3E0FDA3E0FE5D
:10128300A3E0FF90010F120A327E007F787D007B7E
:10129300017A007984120A947B017A01790F7D78AF
:1012A3007C0012172F8F3BE53B7009C2AF90010200
:1012B30004F0D2AF7B017A007984754500754678D6
:1012C3007F007E061220898F3B900088E0FFA3E019
:1012D300900107CFF0A3EFF0E53B702D900084E081
:1012E300FCA3E0FDA3E0FEA3E0FF9000FCE0F8A375
:1012F300E0F9A3E0FAA3E0FBC31209F5700BC2AF58
:10130300900102E04402F0D2AF90007CE0FEA3E043
:10131300FF7B017A01790F754100754278E4F5434B
:101323001218018F3BE53B700BC2AF900102E04402
:1013330004F0D2AF7E007F787D007B017A00798450
:10134300120A9490007CE0FEA3E0FF7B017A00790F
:10135300847545007546781220898F3B900088E09C
:10136300FFA3E0900107CFF0A3EFF0E53B702D90D2
:101373000084E0FCA3E0FDA3E0FEA3E0FF9000FCFB
:10138300E0F8A3E0F9A3E0FAA3E0FBC31209F570C8
:101393000BC2AF900102E04408F0D2AF900102E02B
:1013A300B40F0BC2AFE4900100F0F569D2AFE4F5DE
:0F13B30064F565F56A756B017FF47E01022341D5
:03000000021D5787
:0C1D5700787FE4F6D8FD75818B021D9E9C
:1007C400E709F608DFFA8046E709F208DFFA803E17
:1007D40088828C83E709F0A3DFFA8032E309F60804
:1007E400DFFA8078E309F208DFFA807088828C836C
:1007F400E309F0A3DFFA806489828A83E0A3F60820
:10080400DFFA805889828A83E0A3F208DFFA804CF9
:1008140080D280FA80C680D4806980F280338010D0
:1008240080A680EA809A80A880DA80E280CA803339
:1008340089828A83ECFAE493A3C8C582C8CCC583B1
:10084400CCF0A3C8C582C8CCC583CCDFE9DEE78081
:100854000D89828A83E493A3F608DFF9ECFAA9F000
:10086400EDFB2289828A83ECFAE0A3C8C582C8CC56
:10087400C583CCF0A3C8C582C8CCC583CCDFEADE6F
:10088400E880DB89828A83E493A3F208DFF980CCD1
:1008940088F0EF60010E4E60C388F0ED2402B404CA
:1008A4000050B9F582EB2402B4040050AF23234571
:0608B4008223900814737A
:1008BA00BB010689828A83E0225002E722BBFE023C
:0908CA00E32289828A83E493226F
:1008D300BB010CE58229F582E5833AF583E02250DA
:1008E30006E92582F8E622BBFE06E92582F8E22224
:0D08F300E58229F582E5833AF583E493223E
:10090000BB010689828A83F0225002F722BBFE01D6
:02091000F322D0
:10091200F8BB010DE58229F582E5833AF583E8F01B
:10092200225006E92582C8F622BBFE05E92582C8C7
:02093200F222AF
:10093400EF8DF0A4A8F0CF8CF0A428CE8DF0A42ED7
:02094400FE2291
:10094600C2D5EC30E709B2D5E4C39DFDE49CFCEECC
:1009560030E715B2D5E4C39FFFE49EFE120AC0C37A
:10096600E49DFDE49CFC8003120AC030D507C3E475
:060976009FFFE49EFE223B
:10097C00BB010A89828A83E0F5F0A3E02250068746
:10098C00F009E71922BBFE07E3F5F009E319228908
:0B099C00828A83E493F5F0740193223B
:1009A700BB010789828A83020B15500B09C5F02703
:1009B700F7C5F01937F722BBFE0D09F8E325F0F369
:1009C700C5F019E338F322F889828A8374019325E5
:0809D700F0C5F0F8E4933822AA
:1009DF00EB9FF5F0EA9E42F0E99D42F0EC6480C88F
:0609EF0064809845F0222F
:1009F500EB9FF5F0EA9E42F0E99D42F0E89C45F058
:010A050022CE
:100A0600E493FC740193FD740293FE740393FF2236
:100A1600E493F8740193F9740293FA740393FB2236
:0C0A2600ECF608EDF608EEF608EFF622FC
:0C0A3200ECF0A3EDF0A3EEF0A3EFF02237
:100A3E00BB010DE58229F582E5833AF583020B446D
:100A4E005007E92582F8020B2BBBFE07E92582F839
:100A5E00020B4DE58229F582E5833AF583020B56AA
:100A6E00D083D082F8E4937012740193700DA3A317
:100A7E0093F8740193F5828883E47374029368602B
:060A8E00EFA3A3A380DF2B
:100B6200E54F2443F8E6054F227840300F027843E0
:100B7200E475F001120B340208BA2008EB7F2ED282
:100B8200088018EF540F2490D43440D4FF300C0B5B
:100B9200EF24BFB41A0050032461FFE55060021530
:100BA200500553E55370020552300F0D7840E4753D
:100BB200F001120B34EF02090002240E7403D20F6B
:100BC2008003E4C20FF54F8B408A418942E4F5501D
:100BD200F552F553E55060077F20120B9D80F575A5
:100BE20051FFC209C208C20AC20BC20DC20EC21014
:100BF200120B6BFF700D300F057F00120BAEAF535F
:100C0200AE5222B4255FC2D5C20C120B6BFF24D0A8
:100C1200B40A00501A75F00A785030D50508B6FFAC
:100C22000106C6A426F620D5047002D20B80D92470
:100C3200CFB41A00EF5004C2E5D20C020DAED209B5
:100C420080C6D20880C0D20A80BCD2D580BAD20D6A
:100C520080B47F20120B9D200A077401B55000401A
:100C6200F1120B62FF120B9D020BD6D210D20E8034
:100C720095120B62FB120B62FA120B62F94A4B706D
:100C820006797F7A0E7BFF200A2EE550602A7E00CD
:100C92008E827583001208D360060EEE655170F0E5
:100CA200C2D5EBC0E0EAC0E0E9C0E0EE120DF5D03B
:100CB200E0F9D0E0FAD0E0FB1208BAFF60AAEBC07C
:100CC200E0EAC0E0E9C0E0120B9DD0E02401F9D0D7
:100CD200E03400FAD0E0FBE5510460DCD551D98064
:100CE200877BFF7A0D79F1D20A809C791080027994
:100CF20008C20EC2108008D2D5790A8004790AC2CD
:100D0200D5E551047002F551E4FAFDFEFF120B62C3
:100D1200FC7B08200913120B62FD7B1030080A12BB
:100D22000B62FE120B62FF7B20EC3382D592D55010
:100D320013C3E43008069FFFE49EFEE42009039DEE
:100D4200FDE49CFCE4CBF8C209EC700CCFCECDCC18
:100D5200E824F8F870F38017C3EF33FFEE33FEEDAB
:100D620033FDEC33FCEB33FB994002FB0FD8E9EB8C
:100D7200300905F8D0E0C448B209C0E00AEC4D4E93
:100D82004F78207B0070C2EAB5510040BCC0E0122F
:100D92000DF7D0F0D0E0200904C4C0E0C4B209C00D
:100DA200F0120B86D0F0D5F0EB020BD6120A6E0CC5
:100DB20073530CED580C444C0C40420CF14F0CF99F
:0F0DC200440CF9490C59430CFF550CE3460CE364
:100DD100450CE3470E9F500C482D0C4C2E0C6F2BED
:100DE1000C50230C6D200E882A0C084800000C675B
:100DF1003F3F3F00790AA2D5200B14300D09B910ED
:100E0100020404B9080104A2D5200E0250010420F5
:100E11000A68920AB550005034C0E07F20300B19A7
:100E21007F30A20A720E720D500F120E4EC20AC20C
:100E31000EC20DC2107F30800F300D03E9C0E012E9
:100E41000B9D300D03D0E0F9D0E0B550CC300D173B
:100E51007F30B9100C120B9D7F58300C077F7880C2
:100E610003B90803120B9D300A057F2D020B9D7FEC
:100E7100202010F87F2B200EF322920A80CF286EBB
:100E8100756C6C2900D209120B623009F8C209781D
:100E91005030D50108F6020C082D50434958120B69
:100EA100622403B405004001E4900E9A93120B8E64
:0D0EB100743A120B8ED20B755004020CED3A
:10213C008B3F8A408941E4F547F548E5461546AEA4
:10214C0045700215454E6033AB42AA43A9441208B0
:10215C00BAFFAB3FAA40A9410548E548AC4770021D
:10216C00054714F5828C83EF120912EF60CD7401D0
:10217C002544F544E43543F54380C0AB3FAA40A960
:02218C004122EE
:100A9400EF4E6012EF60010EEDBB010B89828A8379
:100AA400F0A3DFFCDEFA2289F05007F709DFFCA986
:0C0AB400F022BBFEFCF309DFFCA9F022DD
:101D6300022576E493A3F8E493A34003F68001F2FB
:101D730008DFF48029E493A3F85407240CC8C33381
:101D8300C4540F4420C8834004F456800146F6DF50
:101D9300E4800B0102040810204080901AEDE47ED9
:101DA300019360BCA3FF543F30E509541FFEE49345
:101DB300A360010ECF54C025E060A840B8E493A30C
:101DC300FAE493A3F8E493A3C8C582C8CAC583CA37
:101DD300F0A3C8C582C8CAC583CADFE9DEE780BEEF
:011B8E000056
:100AC000BC000BBE0029EF8DF084FFADF022E4CC1A
:100AD000F875F008EF2FFFEE33FEEC33FCEE9DECE3
:100AE000984005FCEE9DFE0FD5F0E9E4CEFD22ED29
:100AF000F8F5F0EE8420D21CFEADF075F008EF2F73
:100B0000FFED33FD4007985006D5F0F222C398FD63
:050B10000FD5F0EA2200
:100B1500C5F0F8A3E028F0C5F0F8E582158270026B
:060B25001583E038F02208
:090B2B00E6FB08E6FA08E6F922EF
:100B3400FAE6FB0808E6F925F0F618E6CA3AF622C2
:090B4400E0FBA3E0FAA3E0F922B2
:090B4D00E2FB08E2FA08E2F922D9
:0C0B5600E493FB740193FA740293F922FB
:10240E00EFB40A07740D122419740A309811A899A2
:10241E00B8130CC2983098FDA899C298B811F6302E
:07242E0099FDC299F5992206
:00000001FF
