:101E9B004C5042006C6F61646572000434000000AA
:101EAB0053657269616C4E000100960134000000AD
:101EBB00436F6E74726F6C0001009A013400000066
:101ECB00454550616765000001009B01340000002F
:101EDB00537461747573000001009C0234000000A0
:101EEB0053747263537A650001009D00000000007B
:0B1EFB000000000000000000000000DC
:10003E0048008E00000200040006004E009F0000E3
:10004E00000000000000000000000000011F01037E
:04005E0072FF1EA669
:021911008F3F06
:10191300E49000B8F0A3F0A3F0A3F0A3F0E49000E8
:101923009AF090009CF0A3F0A3F01225F175080043
:101933008F09C21B75840F7543FF75441E75459B44
:101943007B007A00790E120870E4F5A743A61853BA
:10195300A6FE43A50443A4207F0EFE122553EF6089
:101963000AC2AF90009C74FFF0D2AF7B017A00797A
:101973009F7545007546047F007E0612203AC2AF6C
:1019830090009FE0FCA3E0FDA3E0FEA3E0FF900036
:101993009612101B9000A3E0FEA3E0FF90009DEEC3
:1019A300F0A3EFF0D2AF640E4E600AC2AF90009C7A
:0519B30074FFF0D2AF4B
:0119B800220C
:10258D00151EA81EEFF6A81EE6B40102D21B051EED
:01259D00221B
:0525EC008F357F002285
:10231B008B358A368937120E7BAB38AA39A93A121C
:10232B000EC1AB35AA36A937900001120E94AB380B
:0D233B00AA39A93A900001120ED37F0222A8
:1013DF00E4F53B201B030214E5900096E0FCA3E02C
:1013EF00FDA3E0FEA3E0FF90009F12101B7B017A8C
:1013FF0000799F7D0E7C001215F68F3BE53B70093F
:10140F00C2AF90009C04F0D2AF7B017A0079807557
:10141F00450075460E7F007E0612203A8F3BE53B56
:10142F00702D900080E0FCA3E0FDA3E0FEA3E0FFA1
:10143F00900096E0F8A3E0F9A3E0FAA3E0FBC31253
:10144F000FB6700BC2AF90009CE04402F0D2AF9089
:10145F00008EE0FEA3E0FF7B017A00799F754100CB
:10146F0075420EE4F5431216C88F3BE53B700BC275
:10147F00AF90009CE04404F0D2AF90008EE0FEA34A
:10148F00E0FF7B017A00798075450075460E1220CA
:10149F003A8F3BE53B702D900080E0FCA3E0FDA36D
:1014AF00E0FEA3E0FF900096E0F8A3E0F9A3E0FAD6
:1014BF00A3E0FBC3120FB6700BC2AF90009CE044C9
:1014CF0008F0D2AF90009CE0B40F0BC2AFE49000D5
:0D14DF009AF0C21BD2AF7F017E000223A055
:102553008E408F41D2B71225E6D3E5419400E54082
:0D256300940640037FFF221225DD7F002239
:0A203A008E408F418B428A43894497
:10204400E4F547F548D2A01224B6C2B77F031224A0
:1020540044AF41AE40122348C3E5489546E5479551
:102064004550221222A1AB42AA43A944EF120EC149
:1020740074012544F544E43543F5430548E54870C7
:10208400D7054780D37F197E00122097D2B7C2A00C
:022094007F00CB
:012096002227
:0A15F6008B3C8A3D893E8C3F8D40FE
:10160000754900754A20D2A0E4FF122492E540AE4D
:101610003F7805CEC313CE13D8F9F5488E47E4F5CD
:1016200041F542D3E5429548E5419547400302160E
:10163000BEE542AE417805C333CE33CED8F924009F
:10164000F546EE3406F545E542B5480EE541B547A9
:1016500009754900E540541FF54A1224B6C2B77F08
:1016600002122444AF46AE45122348E4F543F54444
:10167000C3E544954AE54395495022AB3CAA3DA9B0
:101680003E120E7BFF1224447401253EF53EE435E4
:101690003DF53D0544E54470D7054380D37F197E71
:1016A00000122097D2B77F197E001220971225DDF5
:1016B0000542E542600302162305410216237F849A
:0716C000122492C2A07F007A
:0116C7002200
:0A16C8008E3C8F3D8B3E8A3F894027
:1016D200754A00754B20D2A0E542AE417805CEC3D3
:1016E20013CE13D8F9F5498E48E4F544F545D3E510
:1016F200459549E5449548400302178EE545AE44B9
:101702007805C333CE33CED8F9F53D8E3CE545B5E9
:10171200490EE544B54809754A00E542541FF54BA8
:101722001224B6C2B77F02122444AF3DAE3C12234C
:1017320048E4F546F547C3E547954BE546954A50DB
:101742002DE543701AAB3EAA3FA940120E7BFF1251
:10175200244474012540F540E4353FF53F8005E41B
:10176200FF1224440547E54770CC054680C87F191F
:101772007E00122097D2B77F197E00122097122581
:10178200DD0545E545700205440216F0C2A07F0062
:011792002234
:1024B600C2B77F0A7E001220977F061224447F1936
:1024C6007E00122097D2B77F197E00122097022530
:0124D600DD28
:102492008F4B1224B6C2B77F01122444AF4B1224D1
:1024A200447F197E00122097D2B77F197E00122036
:0424B200970225DD8B
:1024F700C2B77F051224441222A18F4C7F197E0098
:0E250700122097D2B77F197E00122097AF4C9A
:0125150022A3
:0825DD001224F7EF547170F8AD
:0125E50022D3
:070062004400BD0000000096
:0619B9007B007A00796357
:0819BF008B6D8A6E896F8D703B
:1019C700E4F571AB6DAA6EA96F120E7B6014C3E5C7
:1019D70071648094E4500B05717F057E001223A08B
:1019E70080E1C3E571648094E4406DE4F584900080
:1019F700BD120FDA7810120FC7C004C005C006C0A9
:101A070007AF70EF3395E0FEFDFC7818120FC7D0D3
:101A170003D002D001D000EF4BFFEE4AFEED49FDA7
:101A2700EC48FCA804A905AA06AB07AFC2EFFE3332
:101A370095E0FDFCEA4EFAE94DF9E84CF8AFC1EB49
:101A47004FFFEAFEE9FDE8FC90000012101BAB6DAA
:081A5700AA6EA96FE4120EC192
:011A5F002264
:03007000022374F4
:1022E0008F758D768B777F001223F47D031219B9D9
:1022F000756301C21A9000ADE575F09000B77402E5
:10230000F09000AFE576F0A3E577F0E49000AEF052
:0B231000F564F565F566F584D2C52282
:10218D008F678D688B698A6A896B7F001223F47D56
:10219D00071219B9756301C21A9000ADE567F09089
:1021AD0000B77401F09000AFE568F09000AEE56CFB
:1021BD00F0856964856A65856B66E4F584D2C5FB37
:0921CD007A0079637D060219BF56
:101E2A00E49000C1F0120E7BFF30E0079000C1E0A1
:101E3A004480F0EF30E1079000C1E04404F0120E54
:101E4A007B30E2079000C1E04410F0120E7BFF30B5
:101E5A00E3079000C1E04401F0EF30E4079000C1CD
:101E6A00E04440F0120E7B30E5079000C1E04408E0
:101E7A00F0120E7BFF30E6079000C1E04420F0EF3D
:101E8A0030E7079000C1E04402F09000C1E0020E82
:011E9A00C186
:1014EC00005EBCE2613FDD83C29C7E20A3FD1F41F8
:1014FC009DC3217FFCA2401E5F01E3BD3E6082DCE8
:10150C00237D9FC1421CFEA0E1BF5D0380DE3C62D7
:10151C00BEE0025CDF81633D7C22C09E1D43A1FFC7
:10152C004618FAA427799BC584DA3866E5BB5907B7
:10153C00DB856739BAE406581947A5FB7826C49AA7
:10154C00653BD987045AB8E6A7F91B45C6987A2497
:10155C00F8A6441A99C7257B3A6486D85B05E7B987
:10156C008CD2306EEDB3510F4E10F2AC2F7193CD77
:10157C00114FADF3702ECC92D38D6F31B2EC0E5067
:10158C00AFF1134DCE90722C6D33D18F0C52B0EE57
:10159C00326C8ED0530DEFB1F0AE4C1291CF2D7347
:1015AC00CA947628ABF517490856B4EA6937D58B37
:1015BC005709EBB536688AD495CB2977F4AA481627
:1015CC00E9B7550B88D6346A2B7597C94A14F6A817
:1015DC00742AC896154BA9F7B6E80A54D7896B3507
:0A15EC00000000002B6096CBDDEE3E
:0300690001550A34
:101BA000151E151EA81EECF608EDF6151E151E15C1
:101BB0001EA81EC6EBC608C6EAC608C6E9C6E51ECC
:041BC00024FCF51EEE
:101BC400F80808E4F6A81EF608F6E51E2407F9A8A6
:101BD4001EE6FE08E6FFC3099719E76480F8EE6481
:101BE40080985037E51E2404F8CBE6CB08E6FA08C3
:101BF400E6F98F828E83120E94A81E080866FFE50C
:101C04001E2403F8EFF6E69014EC93A81E0808F6D9
:101C1400A81E0806E61870B20680AFA81E0808E6DB
:011C2400FFC0
:071C2500E51E2409F51E2253
:07000300ED6F9014EC93FF78
:01000A0022D3
:1023CB00EF7023F5847598D0F584759115F58475A8
:1023DB00C90875CBFFED9015EB93F5CA75C804E4EE
:0823EB00F584D2ACC2BCD2AFF4
:0123F30022C7
:10221E00E4F55BF55AF559F558F55FF55EF55DF5A4
:10222E005C755464FFEF25E025E02478F8E4F6EFC2
:10223E0025E025E02479F8E4F6EF25E025E0247A80
:10224E00F8E4F6EF25E025E0247BF8E4F60FBF0175
:01225E00D4AB
:01225F00225C
:10251600D2AFD2A9C2BBE4F584E589540F4401F5D4
:0F25260089758E02758CAFE4F58AD28C02221E65
:021B0300151EAD
:101B0500A81EE4F6A81EE6FFC394014003021B9D30
:101B1500EF25E025E0247BF8E6FFD394004052A8AA
:101B25001EE625E025E02479F8E67045EF30E0155E
:101B3500A81EE6FF25E025E0247BF8E6D3940140C6
:101B4500047D0080067D01A81EE6FF122260A81E06
:101B5500E6FF25E025E0247BF816E66014EF25E096
:101B650025E0247AF8E6FEEF25E025E02479F8EE75
:101B7500F6A81EE625E025E02479F8E6600116A81A
:101B85001EE6FF25E025E0247BF8E670057D0112C1
:081B95002260A81E06021B09D4
:031B9D00051E2200
:03000B00021CB81C
:101CB800C0E0C0F0C083C082C0D0E8C0E0E9C0E0A6
:101CC800EAC0E0EBC0E0ECC0E0EDC0E0EEC0E0EF61
:101CD800C0E0758CAFE55B2401F55BE4355AF55A35
:101CE800E43559F559E43558F558D55418E55F24C5
:101CF80001F55FE4355EF55EE4355DF55DE4355C80
:101D0800F55C755464121B031224D7D0E0FFD0E0B1
:101D1800FED0E0FDD0E0FCD0E0FBD0E0FAD0E0F966
:0E1D2800D0E0F8D0D0D082D083D0F0D0E0321E
:10241D00151EA81EEDF6151EA81EEFF6A81EE6FF4A
:10242D00C39401500D08E6FEEF25E025E02478F871
:07243D00EEF6051E051E224C
:101DB100151E151EA81EEAF608EBF6151EA81EED47
:101DC100F6151EA81EEFF6A81EE6FFC39401505299
:101DD100EF25E025E0247BF8E67047A81EE6FB2509
:101DE100E025E02479F8E67039A81E08E625E0042C
:101DF100FFA81EE6FA25E025E0247BF8EFF6A81EF1
:101E01000808E6FE08E6FF7C007D0A120F07EA25B6
:101E1100E025E0247AF8EFF6EB25E025E02479F8D7
:091E2100E4F6E51E2404F51E227E
:10226000151EA81EEDF6151EA81EEFF6A81EE6FF09
:10227000C39401501CEF25E025E02478F8E66011B6
:10228000A81E08E670047F0180027F00A81E08EFE8
:10229000F6A81EE6700608E624FF9292051E051EAB
:0122A000221B
:0C25AC00C2AFAF5BAE5AAD59AC58D2AF15
:0125B8002200
:0C25B900C2AFAF5FAE5EAD5DAC5CD2AFF8
:0125C50022F3
:1023F400151EA81EEFF6A81EE67004F556F5573014
:102404001C14E55575F064A4FFC3E5579FE5569584
:09241400F0500375FFA5051E221E
:10253500D21CE4F556F557EF6004F5558003755543
:0E2545000A75FF0775FFA5E4F58475EF042203
:0E259E00C21CE4F556F55775FFDE75FFAD2241
:1024D7000557E55770020556301C14E55575F0642D
:1024E700A4FFC3E5579FE55695F0500375FFA52256
:0423A0008E3C8F3DA3
:1023A400E4F53EF53FC3E53F953DE53E953C5016CB
:1023B4007FE87E031220977F011223F4053FE53F57
:0623C40070E3053E80DF1E
:0123CA0022F0
:042097008E508F5187
:10209B00D3E55194FAE5509400500EEFD3940040E1
:1020AB00407E1600DEFD1F80F2855052855153D3C2
:1020BB00E55394FAE552940040157FFA7E00122006
:1020CB009774062553F55374FF3552F55280E0D3C0
:1020DB00E5519400E55094004007AF53AE521220E7
:0120EB00975D
:0120EC0022D1
:101F7100754A00754B00754C447B007A0079427DAF
:011F8100025D
:081F82008B468A4789488D490E
:101F8A007F011223F4AB4AAA4BA94C120F3D24003D
:101F9A00FFE5F034E0FE85464D85474E85484FE41F
:101FAA00FDEDC39549501BEF2DF582E43EF583E420
:101FBA0093AB4DAA4EA94F8D82758300120ED30D95
:0F1FCA0080DFAB4AAA4BA94CE48549F0020F68AF
:10185C00753D12753E3475450075460075473F7BE6
:07186C00007A00793D7D02C6
:081873008B418A4289438D4438
:10187B007880E664F1600302191012259EC2AFE472
:10188B00F58443B701758F01AB45AA46A947120FE3
:10189B003D2400FFE5F034E07886F608EFF6AA4227
:1018AB00A943788AA64108C6EAC608C6E9C6E47801
:1018BB0088F67888E6C395445032788ACBE6CB0815
:1018CB000806E618CAE6CA70010614F9120E7B78F0
:1018DB0089F6E6FF78860806E618CCE6CC7001069A
:1018EB0014F5828C83EFF078880680C6E4F58F536D
:1018FB00B7F0AB45AA46A9478544F0120F68D2AFA3
:05190B00E4FF12253588
:0119100022B4
:10213F007880E664F17046C2AF12259EE4F58443C1
:10214F00B701758F03788776E008F67886F678877B
:10215F00E6FE08E6F5828E83E4F07F011223F47821
:10216F0088E426F618740236F61806E6C39408407B
:0D217F00DDE4F58F53B7F0D2AFFF12253528
:01218C002230
:101A600012213FE4F53FF540F54575460075473FC7
:101A7000FB7A0079087D1612187312185CE4F53CA5
:101A8000E53CC3781F965073E4F53BAB72AA73A98B
:101A90007475F010E53BA4F58285F083120E946016
:101AA00056E53B75F010A429F9EA35F0FA90000DDF
:101AB0001210277894E6853CF0A429F9EA35F0FA6B
:101AC000EBC0E0EAC0E0E9C0E0AB72AA73A97475AC
:101AD000F010E53BA4F58285F083120E94FD754568
:101AE0000075460075473FD0E0F9D0E0FAD0E0FB42
:101AF000121873053B8094053C808512185CE478CD
:021B000080F66D
:011B020022C0
:03179300CCEFCCCC
:10179600E4F544F545F541F54A754B00754C44FBB7
:1017A6007A0079087D16121F82121F71E543643490
:1017B6007004E54264127003434101EC70030218A1
:1017C60056E4F540E540C3781F965073E4F53FAB09
:1017D60072AA73A97475F010E53FA4F58285F083AB
:1017E600120E946056E53F75F010A429F9EA35F01B
:1017F600FA90000D1210277894E68540F0A429F996
:10180600EA35F0FAEBC0E0EAC0E0E9C0E0AB72AA64
:1018160073A97475F010E53FA4F58285F083120E66
:1018260094FD754A00754B00754C44D0E0F9D0E044
:10183600FAD0E0FB121F82053F8094054080851296
:101846001F71E54364347004E5426412700580003C
:05185600434102AF4117
:01185B00226A
:0C25C600245265763A203433362024007D
:100B7000E47880F612259E75840F75E105E4F5E2B0
:100B800075E34075A508F58475B7B075840F758A4F
:100B900083F597438901758D01758F01758E04F575
:100BA0003DF53E053EE53E7002053D640F453D7056
:100BB000F2438902E4F53DF53EAE3DAF3EE4FCFD77
:100BC0007B507AC3F9F8D3120FA0400FE58920E4D7
:100BD0000A053EE53E70E2053D80DE75970212256E
:100BE00016E4F53DF53E7D01AF3E12241D053EE5C0
:100BF0003E7002053DC39401E53D940040E8E4F5F4
:100C000020C214C212C218C217C2167880F6C2855A
:100C100008F67890F618F67895F6F53DF53E7400EE
:100C2000253EF582E43400F583E4F0053EE53E70B0
:100C300002053D6440453D70E5E4F53DF53E7440F8
:100C4000253EF582E43400F583E4F0053EE53E7090
:100C500002053D6440453D70E5E4F584E5EF20E1A3
:100C60000CE5EF5408D394004003D38001C39203F2
:100C70007D08E4FF1223CBE47894F6788DF6AB720E
:100C8000AA73A974788DE6FF75F010A4F58285F03B
:100C900083120E94FE789426F6EE6005788D068019
:100CA000DDEFD394004030AB72AA73A97490000DAD
:100CB000121027120E7BFF7455120EC1120E7B64A8
:100CC000556002D21674AA120EC1120E7B64AA607D
:100CD00002D216EF120EC1E4F584E5EF5402D3946C
:100CE0000040047F018002E4FF1217938F3CE53C33
:100CF00020E035C21374FFF508F509F50AF50B7EFF
:100D0000007F107D007B007A00790E12107D754205
:100D1000FF75431E75449F7545007546107B007A2C
:100D200000790E1220ED8002D2139025CDE493FFBE
:100D30003395E0FEEF24D0FFEE34FFFE7C007D64AF
:100D4000120EF5AA06AB079025CCE493FF3395E08D
:100D5000FEEF24D0FFEE34FFFE7C037DE8120EF59B
:100D6000EF2BFBEE3AFA9025CEE493FF3395E0FEAD
:100D7000EF24D0FFEE34FFFE7C007D0A120EF5EF6B
:100D80002BFFEE3AFEA3E493FD3395E0FCED24D077
:100D9000FDEC34FFCD2FF50DED3EF50CE53C30E1DB
:100DA00003020E52E4F53DF53EE53EC4F8540FC88B
:100DB00068FFE53DC454F048FEAB72AA73A9748F76
:100DC00082F583120E947003020E49E92FF9EA3E70
:100DD000FA900004120E9420E264E4F53BE53BC374
:100DE000781F965059E53EC4F8540FC868FFE53D9A
:100DF000C454F048AB72AA73A9748F82F583120EA3
:100E000094FF7E00C006C0077D00E53EC4F8540F85
:100E1000C868FFE53DC454F048FEE92FF9EA3EFA00
:100E200090000D1210277894E6853BF0A429F9EA8A
:100E300035F0FAD007D00612107D053B809F053EA5
:100E4000E53E7002053D020DA97F01121911C21580
:100E50008007E4FF121911D215E4F53DF53E7A0042
:100E60007B967D03AF3E121DB1053EE53E70020547
:0A0E70003DC39401E53D940040E409
:010E7A002255
:0525F1007895E6FF22D1
:030023000212CCFA
:1012CC00C0E0C0F0C083C082C0D075D000C000C0E8
:1012DC0001C002C003C004C005C006C00730993E5F
:1012EC00C2997890067990E77881667015F67890B7
:0112FC00F6FB
:0D12FD0075240A75251300D525FCD524F6AF
:04130A00C285801CFC
:0D130E0075241475251300D525FCD524F693
:10131B007890E62440F582E43400F583E0F59920DB
:10132B0098030213C4209A08201405C2980213C014
:10133B00C29A788FE6062400F582E43400F583E543
:10134B0099F0C298E6FFB40112900000E0FE700322
:10135B00F68066EE540724027896F6EFB4020D7809
:10136B0096E6B40907900001E02403F6788FE6FFB8
:10137B00B4400476008042EFC3789696403B788F5A
:10138B00E624FFFDE434FFFC7B017A007900121B9D
:10139B00A0788FE624FFF582E434FFF583E06F60DD
:0513AB0004760080142F
:0D13B00075241475251300D525FCD524F6F1
:1013BD00120076788F7600D007D006D005D004D0F5
:1013CD0003D002D001D000D0D0D082D083D0F0D0C5
:0213DD00E032FC
:101D3600900001E075F010A4AB722574F9E57335D7
:101D4600F0FA90000D1210277895E6FF18E68FF04E
:101D5600A42528F582E435F0F583120E94FF7B0066
:041D66007A00792660
:101D6A008F358B368A378938E4F584EA494B601C0B
:101D7A00AB36AA37A938120E7BFFE535FD7C001277
:0C1D8A000003AB36AA37A938EF120EC1D7
:0D1D9600753914753A1300D53AFCD539F6AD
:0E1DA3008535997F011223F43099FDC29922F3
:09257000E4F5847881EFF6D285D0
:0D25790075351475361300D536FCD535F6D2
:07258600900040E0F59922EE
:1021D600C9EFC9E964017028EDC39B4034781FE656
:1021E600FFEB2FFFE433FEEDC39FEE6480F87480AF
:1021F60098501ED214C3ED9B7895F67891760122FD
:10220600B90214ED6B700AD2147895F678917602BD
:0822160022C214E47891F622C3
:101FD900C9EFC9BAFF15BBFF12ED6B7002EC6A704D
:101FE90049D2147895F67891E9F622E964017025C9
:101FF900C3ED9BEC9A401C781FE62BFFE43AFEC325
:10200900ED9FEC9E500DD214C3ED9B7895F6789117
:102019007601228015B90218ED6B7002EC6A700A1C
:10202900D2147895F67891760222C214E47891F662
:012039002284
:10007600900000E0FF54F8F527E4F584EF121057DE
:1000860000C30900CF0A00DF1000E81100F81201D2
:100096000C1901211A014320014C2801EB2902ED1C
:1000A60033031F37034E39036841037349037D50F9
:1000B60003C56102B77003BD98000003F590000107
:1000C600E0FDE509FB7F018023900001E0FCA3E051
:1000D600FDAB09AA087F018027D214789176030226
:1000E60003F5900001E0FDE50BFB7F021221D6022D
:1000F60003F5900001E0FCA3E0FDAB0BAA0A7F022A
:10010600121FD90203F5900001E0FDE509FB7F010E
:100116001221D62014030203F58017900001E0FC9B
:10012600A3E0FDAB09AA087F01121FD92014030220
:1001360003F59000407478F07F010203F2E4F58441
:1001460075EF100203F5C2ACE4F526D285FB7A0002
:1001560079267F7F121D6A7B007A0079267F181226
:100166001D6A7B007A0079267F05121D6A788DE666
:10017600121D637B007A007926AF08121D6A7B0088
:100186007A007926AF09121D6A7B007A007926AFBC
:100196000A121D6A7B007A007926AF0B121D6A7B54
:1001A600007A007926AF0C121D6A7B007A00792648
:1001B600AF0D121D6AE4F528740E2528F8E6121D07
:1001C600630528E528C3941040EE7B007A00790089
:0501D600AF26121D6AB6
:0D01DB0075330A75341300D534FCD533F6A6
:1001E8000202A2900001E0FFC3788D96400302024C
:1001F800A9EF75F010A42574F9E57335F085723010
:10020800F5318932C2ACE4F526D285FB7A0079262D
:100218007F7F121D6A7B007A0079267F0D121D6A86
:10022800AB30AA31A932120E7B121D63AB30AA3152
:10023800A932900001121D60AB30AA31A93290009A
:1002480002121D60AB30AA31A932900003121D6062
:10025800AB30AA31A932900004121D60E4F528AB36
:1002680030E5322405F9E43531FA7E00E92528F92C
:10027800EE3AFA120E7B121D630528E528C394088E
:0D02880040DD7B007A007900AF26121D6A70
:0D02950075330A75341300D534FCD533F6EB
:1002A200C285D2AC0203F59000407478F0E4A3F06A
:1002B2007F020203F21225B9788212100F900040D9
:1002C200747CF07882E6A3F008E6A3F008E6A3F0D7
:1002D20008E6A3F07C007D057B017A007940121BC1
:1002E200A0900045EFF07F060203F2900001E0FFCC
:1002F200B4010BA3E0F508A3E0F5090203BDEFB4D6
:100302000209900002E0F5080203BD900001E0B48A
:100312000308A3E0F50AA3E0F50B0203BDE4F52808
:10032200900001E0FFE528C39F501C74022528F5C8
:1003320082E43400F583E0FF740E2528F8C6EFC688
:100342000528E528B410D9E4F51D806F7A007B32C8
:100352007D017895E6FF121DB1900001E0FDE4FFFA
:100362001223CB0203F5900001E024FF9202020364
:10037200F5900001E024FF920180787895E660050F
:10038200752A02800B201705752A038003752A013E
:100392009000407479F0A3E52AF07C007D027B0195
:1003A2007A007940121BA0900042EFF07F031225E1
:1003B20070E52A6401703CD2188002D212788076ED
:1003C200F180307A007B327D017F00121DB19000F6
:1003D200407479F0900001E0900041F07C007D02D1
:1003E2007B017A007940121BA0900042EFF07F035C
:1003F200122570E52764A06003020604900000E065
:1004020064A160030204F4A3E0C3788D9640030262
:1004120004E9AB72AA73A974E0FF75F010A4F58227
:1004220085F083120E94F52AEF75F010A429F9EAEB
:1004320035F0FA900004120E9430E237900001E099
:100442001225EC8F2A900040747FF0A3E52AF02455
:1004520002FDE433FC7B017A007940121BA0744256
:10046200252AF582E43400F583EFF0E52A2403FF20
:10047200020601900001E0FF1225ECC2ACE4F52671
:10048200D285E52AD39406402B7B007A0079267F19
:100492007F121D6A7B007A007926AF2A121D6AE458
:1004A200F528E528C3952A5007121D36052880F243
:1004B200052A8018E52A2478121D63E4F528E52828
:1004C200C3952A5007121D36052880F27B007A0058
:0704D2007900AF26121D6A3C
:0D04D90075330A75341300D534FCD533F6A5
:1004E6000205F39000407478F07F01020601900047
:1004F60000E064A26003020604788DE6FFA3E0FE36
:10050600C39F40030205F9A3E0FDC39F4003020514
:10051600F9EE9D40030205F9900001E0F528E4F5A7
:100526002EF52F900002E0FFE528D39F5026AF2836
:100536001225ECAB72AA73A97475F010E528A4F520
:100546008285F083120E94252FF52FE4352EF52E95
:10055600052880CFC2ACE4F526D285FB7A00792641
:100566007F7F121D6AC3E52F9480E52E940050020A
:100576008007E52E4480121D63AF2F121D64900084
:1005860001E0F528900002E0FFE528D39F5046E4FD
:10059600F529AB72AA73A97475F010E528A4F58243
:1005A60085F083120E94FFE529C39F5024E5287534
:1005B600F010A429F9EA35F0FA90000D1210277808
:1005C60095E6FF18E68FF0A42529121D5905298006
:1005D600C1052880AF7B007A007900AF26121D6A1C
:0D05E60075330A75341300D534FCD533F697
:1005F300C285D2AC800B9000407478F07F01122545
:1006030070E5276458704DFA7B327D017895E6FFDB
:10061300121DB1753801753900753A417B017A00B5
:10062300790112231B8F2AE52A2478900040F0EFEA
:100633002401FDE433FC7B017A007940121BA07492
:1006430041252AF582E43400F583EFF0E52A2402FC
:10065300FF122570E52764806009E527648860033D
:100663000208137891E6B4010F7A007B327D01789A
:1006730095E6FF121DB1801AE4F528E528C3781F1B
:1006830096500F7A007B327D01AF28121DB10528E9
:1006930080E9900000E05407F52AB4070A752901A0
:1006A300A3E0F52AA38006E4F529900001E0F52BE9
:1006B300152AE52BC3788D9640030207E7AB72AA90
:1006C30073A97475F010E52BA4F58285F083120EDF
:1006D30094FFE52AD39F40028F2A7891E6B401095B
:1006E3007895E6F52DF52C8009E4F52C781FE614B2
:1006F300F52D7895A62C7895E6D3952D4003020722
:10070300DBE4F528E528C3952A40030207D0E52B4F
:1007130075F010A4AB722574F9E57335F0FA900007
:1007230004120E9430E2030207CB900001120E94E0
:1007330064387041E52AD394044011E5292528241F
:1007430002F582E43400F583E0FD805E788FE6C332
:100753009528FFE49400FE74FE2FF58274FF3EF5A6
:1007630083E0FDE52B75F010A4AB722574F9E573F6
:1007730035F0FA8035AB72AA73A97475F010E52BC6
:10078300A4F58285F083120E94FFC3788FE69F252C
:1007930028252924FFF582E434FFF583E0FDE52BCA
:1007A30075F010A429F9EA35F0FA90000D1210271C
:1007B3007895E6FF18E68FF0A4FFE5282FF582E48D
:1007C30035F0F583ED120ED30528020707AF2B1280
:1007D300258D7895060206F97895A62CE527648879
:1007E300702E8010E52BB4FF27900002E0F520E582
:1007F30027B4881C9000407478F0788FE624FFF5C6
:1008030082E434FFF583E0900041F07F021225700B
:0108130022C2
:10D000007880E664F1600302D60CE4F540F54178DF
:04D0100081E6601F36
:0DD0140075460A75471300D547FCD546F652
:10D021000541E5417002054064107004E540642744
:10D0310070DCC2AF7584015398FC75FFDE75FFADDE
:10D04100E4F53CF53BE4F58420982EE4F540F54108
:0ED05100209822C3E5419488E54094135017BF
:0DD05F0075460A75471300D547FCD546F607
:10D06C000541E54170DF054080DBB29280CF8599A8
:10D07C003BC298E53B641A600302D14CF540F54184
:0ED08C00209822C3E5419488E5409413501784
:0DD09A0075460A75471300D547FCD546F6CC
:10D0A7000541E54170DF054080DB30989285993C6A
:10D0B700C298E4F540F541209822C3E5419488E5FC
:05D0C700409413501716
:0DD0CC0075460A75471300D547FCD546F69A
:10D0D9000541E54170DF054080DB20980302D04619
:10D0E90085993CC298E4F540F541209822C3E54171
:08D0F9009488E54094135017E0
:0DD1010075460A75471300D547FCD546F664
:10D10E000541E54170DF054080DB20980302D046E3
:09D11E0085993CC298D285C299A2
:0DD1270075461475471300D547FCD546F634
:06D134007599783099FDA9
:0DD13A0075460A75471300D547FCD546F62B
:10D14700C28502D5FEE53B6450600302D1DCF540A1
:10D15700F541209822C3E5419488E5409413501780
:0DD1670075460A75471300D547FCD546F6FE
:10D174000541E54170DF054080DB20980302D0467D
:09D1840085993CC298D285C2993C
:0DD18D0075461475471300D547FCD546F6CE
:08D19A007599793099FDC299E5
:0DD1A20075461475471300D547FCD546F6B9
:08D1AF007599013099FDC29948
:0DD1B70075461475471300D547FCD546F6A4
:06D1C400E4F5993099FD2D
:0DD1CA0075460A75471300D547FCD546F69B
:0FD1D700C28502D5FEE53B6401703ED285C29948
:0DD1E60075461475471300D547FCD546F675
:08D1F3007599783099FDC2998D
:0DD1FB0075461475471300D547FCD546F660
:06D20800E4F5993099FDE8
:0DD20E0075460A75471300D547FCD546F656
:10D21B00C28502D5FEE53B6402600302D2E2F54013
:10D22B00F541209822C3E5419488E54094135017AB
:0DD23B0075460A75471300D547FCD546F629
:10D248000541E54170DF054080DB20980302D046A8
:10D2580085993CC298E4F53DE53C13B39292E53CD0
:10D2680025E0FEC3E49400EE94D0502AE53C7F000C
:10D2780025E0FEC394E0501EE53C20E01FE4F58461
:10D2880043B701758F038E428F438F828E83F0538D
:10D29800B7F0F58F8003753DFFE4F584D285C29918
:0DD2A80075461475471300D547FCD546F6B2
:08D2B5007599783099FDC299CA
:0DD2BD0075461475471300D547FCD546F69D
:06D2CA00853D993099FD3D
:0DD2D00075460A75471300D547FCD546F694
:10D2DD00C28502D5FEE53B6403600302D42DF54003
:10D2ED00F541209822C3E5419488E54094135017E9
:0DD2FD0075460A75471300D547FCD546F667
:10D30A000541E54170DF054080DB20980302D046E5
:10D31A0085993CC298E4F540F541209822C3E5413D
:08D32A009488E54094135017AC
:0DD3320075460A75471300D547FCD546F631
:10D33F000541E54170DF054080DB20980302D046B0
:10D34F0085993EC298E53C139292E53C25E0FEC3D9
:10D35F00E49400EE94D0400302D046E53C7D0025D6
:10D36F00E0FCC394E0400302D046E4F58443B701E8
:10D37F00758F01E53E75F020A42DFFE5F03CF542D9
:10D38F008F43E4F584F53FE53FC394205048E4F51F
:10D39F0040F541209822C3E5419488E5409413500D
:01D3AF001766
:0DD3B00075460A75471300D547FCD546F6B3
:10D3BD000541E54170DF054080DB20980302D04632
:10D3CD000543E543AE427002054214F5828E83E5B6
:10D3DD0099F0C298053F80B1E4F58453B7F0F58F0D
:06D3ED00F584D285C2990F
:0DD3F30075461475471300D547FCD546F666
:08D400007599783099FDC2997D
:0DD4080075461475471300D547FCD546F650
:06D41500E4F5993099FDD9
:0DD41B0075460A75471300D547FCD546F647
:10D42800C28502D5FEE53B6404600302D4DDF54005
:10D43800F541209822C3E5419488E540941350179C
:0DD4480075460A75471300D547FCD546F61A
:10D455000541E54170DF054080DB20980302D04699
:10D4650085993CC298E53C25E0F544754500E4F511
:10D475003DF540F5410545E545AE447002054414CA
:10D48500F5828E83E493253DF53D0541E541700226
:0ED4950005407004E540640270DBD285C29948
:0DD4A30075461475471300D547FCD546F6B5
:08D4B0007599783099FDC299CD
:0DD4B80075461475471300D547FCD546F6A0
:06D4C500853D993099FD40
:0DD4CB0075460A75471300D547FCD546F697
:10D4D800C28502D5FEE53B6405600302D5F3F5403D
:10D4E800F541209822C3E5419488E54094135017EC
:0DD4F80075460A75471300D547FCD546F66A
:10D505000541E54170DF054080DB20980302D046E8
:10D5150085993CC298E4F540F541209822C3E54140
:08D525009488E54094135017AF
:0DD52D0075460A75471300D547FCD546F634
:10D53A000541E54170DF054080DB20980302D046B3
:09D54A0085993EC298D285C29970
:0DD5530075461475471300D547FCD546F604
:08D5600075997F3099FDC29915
:0DD5680075461475471300D547FCD546F6EF
:10D575007599203099FDE53C25E0FCE53E75F020E8
:10D58500A42400FFE5F03CF5448F45E4F53DF53F67
:02D59500C29939
:0DD5970075461475471300D547FCD546F6C0
:10D5A400854582854483E493F5993099FD0545E5E5
:10D5B40045AE447002054414F5828E83E493253D00
:0BD5C400F53D053FE53FB420C8C299CB
:0DD5CF0075461475471300D547FCD546F688
:06D5DC00853D993099FD28
:0DD5E20075460A75471300D547FCD546F67F
:10D5EF00C285800BE53BB40606E4F58475EF10E5C4
:0DD5FF003B6407600302D0467880F6D2AF8F
:01D60C0022FB
:101F06007F001223F420130B7A007B327D017F00C1
:101F1600121DB130160B7A007B1E7D017F00121D4B
:101F2600B13012173017147A007B327D017895E6AE
:101F3600FF121DB1C212121A60D21320150C3017EF
:101F460009788076F1121A60D21530180830170514
:101F5600C21812D0002017121225ACE47B2C7A018D
:0B1F6600F9F8C3120FB65002D2172288
:0B25D200120B70121F061213DF80F8BE
:0625E600E4F584D2A422FA
:10000E00E4F5847F32FE122097D2A37F327E001257
:05001E002097C2A3229F
:022444008F4DBA
:10244600E4F584754E07AF4EE54DA807088002C334
:1024560013D8FC1392A412000E154EC3E54E6480E9
:04246600948050E22C
:01246A00224F
:042348008E4C8F4DDB
:10234C00E4F584754E0FE54DAE4CA84E088005CED5
:10235C00C313CE13D8F91392A412000E154EC3E575
:07236C004E6480948050DFF5
:012373002247
:1022A100E4F54DF54EF54FF584754D077F327E000F
:1022B100122097A2A1E433F54EAF4DA80708800282
:1022C100C333D8FC424FD2A37F327E00122097C283
:0E22D100A3154DC3E54D6480948050D0AF4FEF
:0122DF0022DC
:03006C0001600030
:10237400E5607027756001F563758401F5C8F5C9DA
:10238400F5CAF5CBF5CCF5CD75C804F58475C04315
:0B23940043F60243E60243E701D2AF2C
:01239F00221B
:03003B0002114B64
:10114B00C0E0C083C082C0D075D000C000C001C059
:0B115B0002C003C004C005C006C007AE
:10116600C208AFC1EF12105711900811961011A9BD
:101176001811C62011D028122030122440123348EC
:10118600124050127D580000129B75610075620076
:101196009000ADE025E0FFA21AE4334FF5C2C2C5C8
:1011A60002129D9000B7E0FFAD62ED3395E0FCC3FF
:1011B600ED9F7480F86C9850028025D20802129D2B
:1011C600301902806BD20802129D9000B7E0FFAD85
:1011D60062ED3395E0FCC3ED9F7480F86C9850196E
:1011E600AF620562EF3395E0FE74AF2FF5827400AF
:1011F6003EF583E0F5C202129D9000AEE0FFAD61C0
:10120600ED3395E0FCC3ED9F7480F86C985009D2DD
:101216001AC2C4D2C502129D8074D2C480799000CD
:10122600AEE0B40104C2C2806ED2C2806A30190632
:10123600D2C4D2C58061D208805D9000AEE0FF14B2
:10124600B56104C2C28002D2C2AD61ED3395E0FC45
:10125600C3ED9F7480F86C985019AB64AA65A966B3
:10126600AF61EF3395E08F82F583E5C2120ED305A9
:10127600618024D2088020AB64AA65A966AF61EFBD
:101286003395E08F82F583E5C2120ED30561D2C491
:101296007563008002D20830081153C0BF43C040B6
:0D12A600C2C5C2C4C2C2756300C208C2C383
:1012B300D007D006D005D004D003D002D001D0008F
:0912C300D0D0D082D083D0E032FB
:0300730002002662
:1000260075840053C0BF43C04075840153C87F75B3
:0300360063003232
:03000000021C2CB3
:0C1C2C00787FE4F6D8FD758196021C73E9
:100E7B00BB010689828A83E0225002E722BBFE0275
:090E8B00E32289828A83E49322A8
:100E9400BB010CE58229F582E5833AF583E0225013
:100EA40006E92582F8E622BBFE06E92582F8E2225D
:0D0EB400E58229F582E5833AF583E4932277
:100EC100BB010689828A83F0225002F722BBFE0110
:020ED100F3220A
:100ED300F8BB010DE58229F582E5833AF583E8F055
:100EE300225006E92582C8F622BBFE05E92582C801
:020EF300F222E9
:100EF500EF8DF0A4A8F0CF8CF0A428CE8DF0A42E11
:020F0500FE22CA
:100F0700C2D5EC30E709B2D5E4C39DFDE49CFCEE05
:100F170030E715B2D5E4C39FFFE49EFE1210A9C3C4
:100F2700E49DFDE49CFC80031210A930D507C3E4BF
:060F37009FFFE49EFE2274
:100F3D00BB010A89828A83E0F5F0A3E0225006877F
:100F4D00F009E71922BBFE07E3F5F009E319228941
:0B0F5D00828A83E493F5F07401932274
:100F6800BB010789828A830210FE500B09C5F0274E
:100F7800F7C5F01937F722BBFE0D09F8E325F0F3A2
:100F8800C5F019E338F322F889828A83740193251E
:080F9800F0C5F0F8E4933822E3
:100FA000EB9FF5F0EA9E42F0E99D42F0EC6480C8C8
:060FB00064809845F02268
:100FB600EB9FF5F0EA9E42F0E99D42F0E89C45F091
:010FC6002208
:100FC700E8600FEFC333FFEE33FEED33FDEC33FC88
:030FD700D8F1222C
:100FDA007401FF3395E0FEFDFCA3A3A3E0CF2FF03D
:100FEA00E582158270021583E0CE3EF0E582158215
:100FFA0070021583E0CD3DF0E582158270021583FB
:05100A00E0CC3CF022E7
:0C100F00ECF608EDF608EEF608EFF6220D
:0C101B00ECF0A3EDF0A3EEF0A3EFF02248
:10102700BB010DE58229F582E5833AF58302112D8F
:101037005007E92582F8021114BBFE07E92582F85B
:10104700021136E58229F582E5833AF58302113FDD
:10105700D083D082F8E4937012740193700DA3A328
:1010670093F8740193F5828883E47374029368603C
:06107700EFA3A3A380DF3C
:10081400E54F2443F8E6054F227840301002784330
:10082400E475F00112111D020E7B2009EB7F2ED21C
:10083400098018EF540F2490D43440D4FF300D0BAA
:10084400EF24BFB41A0050032461FFE55060021581
:10085400500553E5537002055230100D7840E4758D
:10086400F00112111DEF020EC102246B7403D210A9
:100874008003E4C210F54F8B408A418942E4F5506D
:10088400F552F553E55060077F2012084F80F57547
:1008940051FFC20AC209C20BC20CC20EC20FC2115E
:1008A40012081DFF700D3010057F00120860AF5351
:1008B400AE5222B4255FC2D5C20D12081DFF24D04A
:1008C400B40A00501A75F00A785030D50508B6FFFE
:1008D4000106C6A426F620D5047002D20C80D924C1
:1008E400CFB41A00EF5004C2E5D20D020A60D20A56
:1008F40080C6D20980C0D20B80BCD2D580BAD20EB9
:1009040080B47F2012084F200B077401B5500040BB
:10091400F1120814FF12084F020888D211D20F8076
:1009240095120814FB120814FA120814F94A4B70B1
:100934000679317A0B7BFF200B2EE550602A7E006E
:100944008E82758300120E9460060EEE655170F06F
:10095400C2D5EBC0E0EAC0E0E9C0E0EE120AA7D0DD
:10096400E0F9D0E0FAD0E0FB120E7BFF60AAEBC006
:10097400E0EAC0E0E9C0E012084FD0E02401F9D079
:10098400E03400FAD0E0FBE5510460DCD551D980B5
:10099400877BFF7A0A79A3D20B809C791080027935
:1009A40008C20FC2118008D2D5790A8004790AC21C
:1009B400D5E551047002F551E4FAFDFEFF12081466
:1009C400FC7B08200A13120814FD7B1030090A125C
:1009D4000814FE120814FF7B20EC3382D592D55004
:1009E40013C3E43009069FFFE49EFEE4200A039D3E
:1009F400FDE49CFCE4CBF8C20AEC700CCFCECDCC69
:100A0400E824F8F870F38017C3EF33FFEE33FEEDFC
:100A140033FDEC33FCEB33FB994002FB0FD8E9EBDD
:100A2400300A05F8D0E0C448B20AC0E00AEC4D4EE2
:100A34004F78207B0070C2EAB5510040BCC0E01280
:100A44000AA9D0F0D0E0200A04C4C0E0C4B20AC0AD
:100A5400F0120838D0F0D5F0EB02088812105709CC
:100A64002553099F5808F64C08F24209A34F09ABD5
:0F0A74004409AB49090B4309B15509954609954A
:100A8300450995470B515008FA2D08FE2E09212BD5
:100A9300090223091F200B3A2A08BA480000091942
:100AA3003F3F3F00790AA2D5200C14300E09B9103C
:100AB300020404B9080104A2D5200F025001042046
:100AC3000B68920BB550005034C0E07F20300C19F6
:100AD3007F30A20B720F720E500F120B00C20BC2AB
:100AE3000FC20EC2117F30800F300E03E9C0E01237
:100AF300084F300E03D0E0F9D0E0B550CC300E17DC
:100B03007F30B9100C12084F7F58300D077F788063
:100B130003B9080312084F300B057F2D02084F7FDE
:100B2300202011F87F2B200FF322920B80CF286E09
:100B3300756C6C2900D20A120814300AF8C20A78BC
:100B43005030D50108F60208BA2D5043495812080F
:100B5300142403B405004001E4900B4C93120840A5
:0D0B6300743A120840D20C75500402099F2C
:1020ED008B3F8A408941E4F547F548E5461546AEF4
:1020FD0045700215454E6033AB42AA43A944120EFA
:10210D007BFFAB3FAA40A9410548E548AC477002AB
:10211D00054714F5828C83EF120ED3EF60CD740159
:10212D002544F544E43543F54380C0AB3FAA40A9AF
:02213D0041223D
:10107D00EF4E6012EF60010EEDBB010B89828A838A
:10108D00F0A3DFFCDEFA2289F05007F709DFFCA997
:0C109D00F022BBFEFCF309DFFCA9F022EE
:101C38000225D2E493A3F8E493A34003F68001F2CB
:101C480008DFF48029E493A3F85407240CC8C333AD
:101C5800C4540F4420C8834004F456800146F6DF7C
:101C6800E4800B010204081020408090003EE47ECE
:101C7800019360BCA3FF543F30E509541FFEE49371
:101C8800A360010ECF54C025E060A840B8E493A338
:101C9800FAE493A3F8E493A3C8C582C8CAC583CA63
:101CA800F0A3C8C582C8CAC583CADFE9DEE780BE1B
:01006F000090
:1010A900BC000BBE0029EF8DF084FFADF022E4CC2B
:1010B900F875F008EF2FFFEE33FEEC33FCEE9DECF4
:1010C900984005FCEE9DFE0FD5F0E9E4CEFD22ED3A
:1010D900F8F5F0EE8420D21CFEADF075F008EF2F84
:1010E900FFED33FD4007985006D5F0F222C398FD75
:0510F9000FD5F0EA2212
:1010FE00C5F0F8A3E028F0C5F0F8E582158270027D
:06110E001583E038F02219
:09111400E6FB08E6FA08E6F92200
:10111D00FAE6FB0808E6F925F0F618E6CA3AF622D3
:09112D00E0FBA3E0FAA3E0F922C3
:09113600E2FB08E2FA08E2F922EA
:0C113F00E493FB740193FA740293F9220C
:10246B00EFB40A07740D122476740A309811A899E8
:10247B00B8130CC2983098FDA899C298B811F630D1
:07248B0099FDC299F59922A9
:00000001FF
