:0340200002402338
:062446008F418D428B4323
:10244C009001CC120749000000007D00AF417E00D6
:10245C00123C12AD07AF437E00123C12AD07AF44E5
:10246C007E00123C12AD07AF427E00123C128F4F21
:10247C00E5436403701BFDAF46FE123C12AD07AF83
:10248C00457E00123C12AD07AF4F7E00123C128FFE
:10249C004F754C01754E14E54C7003022592E54EB8
:1024AC007003022592AF48AE47123F2DAF48AE479E
:1024BC00123F2DAD48AC47AF411235E7AF48AE47A0
:1024CC00123F2DAD48AC47AF431235E7AD48AC4792
:1024DC00AF441235E7E54370028028AD48AC47AFF6
:1024EC00421235E7E542B4F6028018E54364037006
:1024FC0026AD48AC47AF461235E7AD48AC47AF45C3
:10250C001235E7854954854A55854B56AB48AA4741
:10251C007DFFAF4F022A06E54364017064E5446415
:10252C0002705EE54C603C854954854A55854B5696
:10253C00AB48AA47E4FDAF4F122A068F4DE54D700C
:10254C00229001CCE0FCA3E0FDA3E0FEA3E0FFABF6
:10255C0049AA4AA94B12071112002D9001CC12075F
:10256C003D154CE54C701A9001CCE0FCA3E0FDA3AA
:10257C00E0FEA3E0FFAB49AA4AA94B1206B37F00C9
:08258C0022154E0224A3AF4DFD
:012594002224
:082A06008F508D518A528B5351
:102A0E00E4F559AF53AE5212399EE5506F60037F15
:102A1E00FF22EFF4B550037FFD22E551B4FF037F93
:102A2E000122E5516003022B12AF53AE5212399EB2
:102A3E008F57AF53AE5212399E8F58AF53AE5212BC
:102A4E00399E8F597D00AF577E00123C12AD07AFF5
:102A5E00587E00123C12EF655960037FFE22E55846
:102A6E0030E7096358FFE557F404F557E558FE7C47
:102A7E0000E42557FFEC3EFE9001D0F0A3EFF0FDF1
:102A8E00AC06EC120336E4FBFA7980784212022788
:102A9E00AB54AA55A9561206B3AB54AA55A956C0A3
:102AAE0003C002C0011206937BCC7A5D795B783F3E
:102ABE00120029D001D002D0031206B3AB54AA558E
:102ACE00A956120693E4FBFA79C878421202C44062
:102ADE0017AB54AA55A956120693E4FBFA7920783F
:102AEE00C11202C4600540037FFA22AB54AA55A955
:102AFE00561206937BCC7A5D795B78BF1202C47056
:062B0E00037FFB227F00A3
:012B1400229E
:102C1F0000070E091C1B1215383F363124232A2DAD
:102C2F0070777E796C6B6265484F464154535A5D9D
:102C3F00E0E7EEE9FCFBF2F5D8DFD6D1C4C3CACD8D
:102C4F0090979E998C8B8285A8AFA6A1B4B3BABD7D
:102C5F00C7C0C9CEDBDCD5D2FFF8F1F6E3E4EDEA6D
:102C6F00B7B0B9BEABACA5A28F88818693949D9A5D
:102C7F002720292E3B3C35321F18111603040D0A4D
:102C8F005750595E4B4C45426F68616673747D7A3D
:102C9F00898E878095929B9CB1B6BFB8ADAAA3A42D
:102CAF00F9FEF7F0E5E2EBECC1C6CFC8DDDAD3D41D
:102CBF00696E676075727B7C51565F584D4A43440D
:102CCF00191E171005020B0C21262F283D3A3334FD
:102CDF004E49404752555C5B7671787F6A6D6463ED
:102CEF003E39303722252C2B0601080F1A1D1413DD
:102CFF00AEA9A0A7B2B5BCBB9691989F8A8D8483CD
:102D0F00DED9D0D7C2C5CCCBE6E1E8EFFAFDF4F3BC
:103C1200151EA81EA605151E151EA81EA60608A678
:103C220007A81E0808E6FFA81EE6FE08E66F241F86
:103C3200F582742C3EF583E493FF051E051E051ED6
:013C4200225F
:03402300023F84D5
:0F3F8400EF64014E7002C2907F027E00023D008A
:103F1500EF64014E7011D2907F0CFE1237BDC29036
:083F25007F047E001237BD226B
:103F2D00EF64014E7011D2907F04FE1237BDC29026
:083F3D007F0C7E001237BD224B
:103BA400EF64014E7034D2907F01FE1237BDC29093
:103BB4007F087E001237BD758402E5885440C41323
:103BC400135403FFBF010A7F087E001237BD7F0133
:0B3BD400227F087E001237BD7F002218
:0635E7008F508C518D5243
:1035ED00E49001D0F0A3F0A3F09001D1F0A3740703
:1035FD00F09001D1E0FEA3E0FFC3EE648094804023
:10360D003AE550A807088002C313D8FC5401900175
:10361D00D0F07009AF52AE51123F2D800E9001D0F7
:10362D00E0B40117AF52AE51123F159001D2E02414
:0B363D00FFF09001D1E034FFF080B6F8
:01364800225F
:04399E008E5A8F5B53
:1039A200E49001D2F0A3F0A3F07407F0AF5BAE5A3B
:1039B200123BA49001D2EFF0A3E0FFA3E0FE90013E
:1039C200D2E0FDA806088002C333D8FC4F9001D391
:1039D200F0A3E014F0E0C36480948050CF9001D350
:0239E200E0FF04
:0139E40022C0
:0C3FE500245265763A2039313120240046
:101D3500E47880F6123FA275840F75E104E4F5E2BC
:101D450075E344F58475B7B075840F758A83F59787
:101D5500438901758D01758F01758E04F541F54235
:101D65000542E54270020541640F454170F2438921
:101D750002E4F541F542AE41AF42E4FCFD7B507A09
:101D8500C3F9F8D312066C400FE58920E40A054231
:101D9500E54270E2054180DE759702123E82E4F568
:101DA50041F5427D01AF42123DD00542E542700248
:101DB5000541C39401E541940040E8E4F520C232B1
:101DC500C230C236C235C2347880F6C28508F6788C
:101DD5009EF618F678A3F6F541F54274352542F5D9
:101DE50082E43401F583E4F00542E54270020541E1
:101DF5006440454170E5E4F541F54274752542F5C9
:101E050082E43401F583E4F00542E54270020541C0
:101E15006440454170E5E4F584E5EF20E10CE5EF2C
:101E25005408D394004003D38001C392037D08E492
:101E3500FF123D55E478A2F6789BF6AB79AA7AA90C
:101E45007B789BE6FF75F010A4F58285F08312047C
:101E550009FE78A226F6EE6005789B0680DDEFD3B5
:101E650094004030AB79AA7AA97B90000D1207A0A7
:101E75001203F0FF74551204361203F06455600224
:101E8500D23474AA1204361203F064AA6002D23462
:101E9500EF120436E4F584E5EF5402D394004004D0
:101EA5007F018002E4FF122F008F40E54020E035DE
:101EB500C23174FFF508F509F50AF50B7E007F10B0
:101EC5007D007B007A00790E1207F67546FF75478F
:101ED5001A754811754900754A107B007A00790E0C
:101EE5001238138002D231903FECE493FF3395E032
:101EF500FEEF24D0FFEE34FFFE7C007D6412046A01
:101F0500AA06AB07903FEBE493FF3395E0FEEF2481
:101F1500D0FFEE34FFFE7C037DE812046AEF2BFB55
:101F2500EE3AFA903FEDE493FF3395E0FEEF24D0CF
:101F3500FFEE34FFFE7C007D0A12046AEF2BFFEEF4
:101F45003AFEA3E493FD3395E0FCED24D0FDEC349B
:101F5500FFCD2FF50DED3EF50CE54030E1030220F8
:101F650014E4F541F542E542C4F8540FC868FFE5AD
:101F750041C454F048FEAB79AA7AA97B8F82F583D8
:101F8500120409700302200BE92FF9EA3EFA9000CA
:101F95000412040920E264E4F53FE53FC3788F9617
:101FA5005059E542C4F8540FC868FFE541C454F0E0
:101FB50048AB79AA7AA97B8F82F583120409FF7E43
:101FC50000C006C0077D00E542C4F8540FC868FF8D
:101FD500E541C454F048FEE92FF9EA3EFA90000DB8
:101FE5001207A078A2E6853FF0A429F9EA35F0FAB0
:101FF500D007D0061207F6053F809F0542E54270DF
:10200500020541021F6B7F0112203DC2338007E4A8
:10201500FF12203DD233E4F541F5427A007B967DEF
:1020250003AF4212349B0542E54270020541C39459
:0720350001E541940040E4C5
:01203C002281
:05400D0078A3E6FF228C
:030023000227E2CF
:1027E200C0E0C0F0C083C082C0D075D000C000C0BD
:1027F20001C002C003C004C005C006C00730993E34
:10280200C299789E06799EE77881667015F6789E61
:01281200F6CF
:0D28130075280A75291300D529FCD528F673
:04282000C285801CD1
:0D28240075281475291300D529FCD528F658
:10283100789EE62475F582E43401F583E0F599206C
:1028410098030228DA209A08203205C2980228D675
:10285100C29A789DE6062435F582E43401F583E5D4
:1028610099F0C298E6FFB40112900135E0FE7003C1
:10287100F68066EE5407240278A4F6EFB4020D78D0
:10288100A4E6B40907900136E02403F6789DE6FF3B
:10289100B4400476008042EFC378A496403B789D13
:1028A100E624FFFDE434FFFC7B017A017935123324
:1028B10016789DE62434F582E43401F583E06F60F7
:0528C100047600801404
:0D28C60075281475291300D529FCD528F6B6
:1028D300121233789D7600D007D006D005D004D0ED
:1028E30003D002D001D000D0D0D082D083D0F0D09A
:0228F300E032D1
:10342000900136E075F010A4AB79257BF9E57A358B
:10343000F0FA90000D1207A078A3E6FF18E68FF0CF
:10344000A4252CF582E435F0F583120409FF7B00F6
:043450007A00792A5B
:103454008F398B3A8A3B893CE4F584EA494B601CFA
:10346400AB3AAA3BA93C1203F0FFE539FD7C0012FC
:0C3474000003AB3AAA3BA93CEF1204365F
:0D348000753D14753E1300D53EFCD53DF69C
:0E348D008539997F01123D7E3099FDC299224A
:093EDE00E4F5847881EFF6D28549
:0D3EE700753914753A1300D53AFCD539F63B
:073EF400900175E0F5992231
:10395600C9EFC9E964017028EDC39B4034788FE64E
:10396600FFEB2FFFE433FEEDC39FEE6480F8748017
:1039760098501ED232C3ED9B78A3F6789F7601222B
:10398600B90214ED6B700AD23278A3F6789F7602EC
:0839960022C232E4789FF62200
:10364900C9EFC9BAFF15BBFF12ED6B7002EC6A70C6
:1036590049D23278A3F6789FE9F622E96401702508
:10366900C3ED9BEC9A401C788FE62BFFE43AFEC32E
:10367900ED9FEC9E500DD232C3ED9B78A3F6789F57
:103689007601228015B90218ED6B7002EC6A700A96
:10369900D23278A3F6789F760222C232E4789FF676
:0136A90022FE
:10123300900135E0FF54F8F52BE4F584EF1207D065
:10124300128009128C0A129C1012A51112B51212E7
:10125300C91912DE1A13002013092813A82914AA86
:101263003314DC37150B39152541153049153A5020
:10127300158261147470157A98000015B2900136C6
:10128300E0FDE509FB7F018023900136E0FCA3E04C
:10129300FDAB09AA087F018027D232789F7603022B
:1012A30015B2900136E0FDE50BFB7F0212395602C1
:1012B30015B2900136E0FCA3E0FDAB0BAA0A7F0256
:1012C3001236490215B2900136E0FDE509FB7F01B4
:1012D3001239562032030215B28017900136E0FC12
:1012E300A3E0FDAB09AA087F0112364920320302AD
:1012F30015B29001757478F07F010215AFE4F5849F
:1013030075EF120215B2C2ACE4F52AD285FB7A005E
:10131300792A7F7F1234547B007A00792A7F18124E
:1013230034547B007A00792A7F05123454789BE683
:1013330012344D7B007A00792AAF081234547B00B3
:101343007A00792AAF091234547B007A00792AAFE4
:101353000A1234547B007A00792AAF0B1234547B7F
:10136300007A00792AAF0C1234547B007A00792A70
:10137300AF0D123454E4F52C740E252CF8E6123418
:101383004D052CE52CC3941040EE7B007A007900C8
:05139300AF2A123454E2
:0D13980075370A75381300D538FCD537F6C7
:1013A50002145F900136E0FFC3789B964003021458
:1013B50066EF75F010A4257BF9E57A35F08579346B
:1013C500F5358936C2ACE4F52AD285FB7A00792A4F
:1013D5007F7F1234547B007A00792A7F0D123454B2
:1013E500AB34AA35A9361203F012344DAB34AA3505
:1013F500A93690000112344AAB34AA35A9369000BB
:101405000212344AAB34AA35A93690000312344A85
:10141500AB34AA35A93690000412344AE4F52CAB56
:1014250034E5362405F9E43535FA7E00E9252CF94D
:10143500EE3AFA1203F012344D052CE52CC394084C
:0D14450040DD7B007A007900AF2A1234549C
:0D14520075370A75381300D538FCD537F60C
:10145F00C285D2AC0215B29001757478F0E4A3F096
:10146F007F020215AF123FCB7890120731900175B2
:10147F00747CF07890E6A3F008E6A3F008E6A3F0FA
:10148F0008E6A3F07C007D057B017A0179751233A4
:10149F001690017AEFF07F060215AF900136E0FF4C
:1014AF00B4010BA3E0F508A3E0F50902157AEFB438
:1014BF000209900137E0F50802157A900136E0B481
:1014CF000308A3E0F50AA3E0F50B02157AE4F52C67
:1014DF00900136E0FFE52CC39F501C7437252CF587
:1014EF0082E43401F583E0FF740E252CF8C6EFC6B5
:1014FF00052CE52CB410D9E4F51D806F7A007B32F2
:10150F007D0178A3E6FF12349B900136E0FDE4FFE6
:10151F00123D550215B2900136E024FF92020215DA
:10152F00B2900136E024FF9201807878A3E660053F
:10153F00752E02800B203505752E038003752E0145
:10154F009001757479F0A3E52EF07C007D027B018C
:10155F007A017975123316900177EFF07F03123EFF
:10156F00DEE52E6401703CD2368002D23078807670
:10157F00F180307A007B327D017F0012349B900125
:10158F00757479F0900136E0900176F07C007D0261
:10159F007B017A017975123316900177EFF07F0393
:1015AF00123EDEE52B64A060030217C1900135E007
:1015BF0064A160030216B1A3E0C3789B96400302B7
:1015CF0016A6AB79AA7AA97BE0FF75F010A4F58275
:1015DF0085F083120409F52EEF75F010A429F9EAAE
:1015EF0035F0FA90000412040930E237900136E02A
:1015FF001240178F2E900175747FF0A3E52EF02403
:10160F0002FDE433FC7B017A01797512331674778E
:10161F00252EF582E43401F583EFF0E52E2403FF48
:10162F000217BE900136E0FF124017C2ACE4F52A54
:10163F00D285E52ED39406402B7B007A00792A7F42
:10164F007F1234547B007A00792AAF2E123454E47F
:10165F00F52CE52CC3952E5007123420052C80F263
:10166F00052E8018E52E247812344DE4F52CE52C48
:10167F00C3952E5007123420052C80F27B007A0080
:07168F007900AF2A12345468
:0D16960075370A75381300D538FCD537F6C6
:1016A3000217B09001757478F07F010217BE9001A4
:1016B30035E064A260030217C1789BE6FFA3E0FE56
:1016C300C39F40030217B6A3E0FDC39F4003021765
:1016D300B6EE9D40030217B6900136E0F52CE4F513
:1016E30032F533900137E0FFE52CD39F5026AF2C22
:1016F300124017AB79AA7AA97B75F010E52CA4F5F3
:101703008285F0831204092533F533E43532F5324B
:10171300052C80CFC2ACE4F52AD285FB7A00792A66
:101723007F7F123454C3E5339480E5329400500232
:101733008007E532448012344DAF3312344E9001AA
:1017430036E0F52C900137E0FFE52CD39F5046E4BB
:10175300F52DAB79AA7AA97B75F010E52CA4F58257
:1017630085F083120409FFE52DC39F5024E52C75F2
:10177300F010A429F9EA35F0FA90000D1207A078C9
:10178300A3E6FF18E68FF0A4252D123443052D8020
:10179300C1052C80AF7B007A007900AF2A12345444
:0D17A30075370A75381300D538FCD537F6B8
:1017B000C285D2AC800B9001757478F07F01123E27
:1017C000DEE52B6458704DFA7B327D0178A3E6FF8D
:1017D00012349B753C01753D01753E767B017A01A3
:1017E0007936123CD38F2EE52E2478900175F0EFD8
:1017F0002401FDE433FC7B017A0179751233167400
:1018000076252EF582E43401F583EFF0E52E2402EF
:10181000FF123EDEE52B64806009E52B64886003DF
:101820000219D0789FE6B4010F7A007B327D0178EF
:10183000A3E6FF12349B801AE4F52CE52CC3788FC5
:1018400096500F7A007B327D01AF2C12349B052C11
:1018500080E9900135E05407F52EB4070A752D0193
:10186000A3E0F52EA38006E4F52D900136E0F52FD8
:10187000152EE52FC3789B9640030219A4AB79AAD5
:101880007AA97B75F010E52FA4F58285F083120408
:1018900009FFE52ED39F40028F2E789FE6B4010901
:1018A00078A3E6F531F5308009E4F530788FE61459
:1018B000F53178A3A63078A3E6D395314003021919
:1018C00098E4F52CE52CC3952E400302198DE52FE5
:1018D00075F010A4AB79257BF9E57A35F0FA900024
:1018E0000412040930E2030219889000011204096D
:1018F00064387041E52ED394044011E52D252C2445
:1019000037F582E43401F583E0FD805E789DE6C31F
:10191000952CFFE49400FE74332FF58274013EF59C
:1019200083E0FDE52F75F010A4AB79257BF9E57A0E
:1019300035F0FA8035AB79AA7AA97B75F010E52FDE
:10194000A4F58285F083120409FFC3789DE69F25E4
:101950002C252D2434F582E43401F583E0FDE52FB8
:1019600075F010A429F9EA35F0FA90000D1207A0DD
:1019700078A3E6FF18E68FF0A4FFE52C2FF582E4AC
:1019800035F0F583ED120448052C0218C4AF2F1270
:101990003BDF78A3060218B678A3A630E52B64884F
:1019A000702E8010E52FB4FF27900137E0F520E579
:1019B0002BB4881C9001757478F0789DE62434F57A
:1019C00082E43401F583E0900176F07F02123EDE7E
:0119D00022F4
:10D000007880E664F1600302D60CE4F54BF54C78C9
:04D0100081E6601F36
:0DD0140075510A75521300D552FCD551F626
:10D02100054CE54C7002054B64107004E54B642718
:10D0310070DCC2AF7584015398FC75FFDE75FFADDE
:10D04100E4F547F546E4F58420982EE4F54BF54CDC
:0ED05100209822C3E54C9488E54B94135017A9
:0DD05F0075510A75521300D552FCD551F6DB
:10D06C00054CE54C70DF054B80DBB28480CF859995
:10D07C0046C298E546641A600302D14CF54BF54C58
:0ED08C00209822C3E54C9488E54B941350176E
:0DD09A0075510A75521300D552FCD551F6A0
:10D0A700054CE54C70DF054B80DB3098928599473E
:10D0B700C298E4F54BF54C209822C3E54C9488E5DB
:05D0C7004B941350170B
:0DD0CC0075510A75521300D552FCD551F66E
:10D0D900054CE54C70DF054B80DB20980302D046F8
:10D0E900859947C298E4F54BF54C209822C3E54C45
:08D0F9009488E54B94135017D5
:0DD1010075510A75521300D552FCD551F638
:10D10E00054CE54C70DF054B80DB20980302D046C2
:09D11E00859947C298D285C29997
:0DD1270075511475521300D552FCD551F608
:06D134007599783099FDA9
:0DD13A0075510A75521300D552FCD551F6FF
:10D14700C28502D5FEE5466450600302D1DCF54B8B
:10D15700F54C209822C3E54C9488E54B941350175F
:0DD1670075510A75521300D552FCD551F6D2
:10D17400054CE54C70DF054B80DB20980302D0465C
:09D18400859947C298D285C29931
:0DD18D0075511475521300D552FCD551F6A2
:08D19A007599793099FDC299E5
:0DD1A20075511475521300D552FCD551F68D
:08D1AF007599013099FDC29948
:0DD1B70075511475521300D552FCD551F678
:06D1C400E4F5993099FD2D
:0DD1CA0075510A75521300D552FCD551F66F
:0FD1D700C28502D5FEE5466401703ED285C2993D
:0DD1E60075511475521300D552FCD551F649
:08D1F3007599783099FDC2998D
:0DD1FB0075511475521300D552FCD551F634
:06D20800E4F5993099FDE8
:0DD20E0075510A75521300D552FCD551F62A
:10D21B00C28502D5FEE5466402600302D2E2F54BFD
:10D22B00F54C209822C3E54C9488E54B941350178A
:0DD23B0075510A75521300D552FCD551F6FD
:10D24800054CE54C70DF054B80DB20980302D04687
:10D25800859947C298E4F548E54713B39284E547B2
:10D2680025E0FEC3E49400EE94D0502AE5477F0001
:10D2780025E0FEC394E0501EE54720E01FE4F58456
:10D2880043B701758F038E4D8F4E8F828E83F05377
:10D29800B7F0F58F80037548FFE4F584D285C2990D
:0DD2A80075511475521300D552FCD551F686
:08D2B5007599783099FDC299CA
:0DD2BD0075511475521300D552FCD551F671
:06D2CA008548993099FD32
:0DD2D00075510A75521300D552FCD551F668
:10D2DD00C28502D5FEE5466403600302D42DF54BED
:10D2ED00F54C209822C3E54C9488E54B94135017C8
:0DD2FD0075510A75521300D552FCD551F63B
:10D30A00054CE54C70DF054B80DB20980302D046C4
:10D31A00859947C298E4F54BF54C209822C3E54C11
:08D32A009488E54B94135017A1
:0DD3320075510A75521300D552FCD551F605
:10D33F00054CE54C70DF054B80DB20980302D0468F
:10D34F00859949C298E547139284E54725E0FEC3C6
:10D35F00E49400EE94D0400302D046E5477D0025CB
:10D36F00E0FCC394E0400302D046E4F58443B701E8
:10D37F00758F01E54975F020A42DFFE5F03CF54DC3
:10D38F008F4EE4F584F54AE54AC394205048E4F5FE
:10D39F004BF54C209822C3E54C9488E54B941350E1
:01D3AF001766
:0DD3B00075510A75521300D552FCD551F687
:10D3BD00054CE54C70DF054B80DB20980302D04611
:10D3CD00054EE54EAE4D7002054D14F5828E83E58A
:10D3DD0099F0C298054A80B1E4F58453B7F0F58F02
:06D3ED00F584D285C2990F
:0DD3F30075511475521300D552FCD551F63A
:08D400007599783099FDC2997D
:0DD4080075511475521300D552FCD551F624
:06D41500E4F5993099FDD9
:0DD41B0075510A75521300D552FCD551F61B
:10D42800C28502D5FEE5466404600302D4DDF54BEF
:10D43800F54C209822C3E54C9488E54B941350177B
:0DD4480075510A75521300D552FCD551F6EE
:10D45500054CE54C70DF054B80DB20980302D04678
:10D46500859947C298E54725E0F54F755000E4F5E5
:10D4750048F54BF54C0550E550AE4F7002054F147D
:10D48500F5828E83E4932548F548054CE54C7002FA
:0ED49500054B7004E54B640270DBD285C29932
:0DD4A30075511475521300D552FCD551F689
:08D4B0007599783099FDC299CD
:0DD4B80075511475521300D552FCD551F674
:06D4C5008548993099FD35
:0DD4CB0075510A75521300D552FCD551F66B
:10D4D800C28502D5FEE5466405600302D5F3F54B27
:10D4E800F54C209822C3E54C9488E54B94135017CB
:0DD4F80075510A75521300D552FCD551F63E
:10D50500054CE54C70DF054B80DB20980302D046C7
:10D51500859947C298E4F54BF54C209822C3E54C14
:08D525009488E54B94135017A4
:0DD52D0075510A75521300D552FCD551F608
:10D53A00054CE54C70DF054B80DB20980302D04692
:09D54A00859949C298D285C29965
:0DD5530075511475521300D552FCD551F6D8
:08D5600075997F3099FDC29915
:0DD5680075511475521300D552FCD551F6C3
:10D575007599203099FDE54725E0FCE54975F020D2
:10D58500A42400FFE5F03CF54F8F50E4F548F54A3B
:02D59500C29939
:0DD5970075511475521300D552FCD551F694
:10D5A400855082854F83E493F5993099FD0550E5C4
:10D5B40050AE4F7002054F14F5828E83E4932548D4
:0BD5C400F548054AE54AB420C8C299AA
:0DD5CF0075511475521300D552FCD551F65C
:06D5DC008548993099FD1D
:0DD5E20075510A75521300D552FCD551F653
:10D5EF00C285800BE546B40606E4F58475EF12E5B7
:0DD5FF00466407600302D0467880F6D2AF84
:01D60C0022FB
:103514007F00123D7E20310B7A007B327D017F00DB
:1035240012349B30340B7A007B1E7D017F001234F1
:103534009B3030173035147A007B327D0178A3E656
:10354400FF12349BC23012313CD23120330C30355F
:1035540009788076F112313CD233303608303505A3
:10356400C23612D000203512123FBEE47B2C7A0101
:0B357400F9F8C31206825002D2352283
:0B3FF100121D3512351412093C80F837
:102B1500005EBCE2613FDD83C29C7E20A3FD1F41B8
:102B25009DC3217FFCA2401E5F01E3BD3E6082DCA8
:102B3500237D9FC1421CFEA0E1BF5D0380DE3C6298
:102B4500BEE0025CDF81633D7C22C09E1D43A1FF88
:102B55004618FAA427799BC584DA3866E5BB590778
:102B6500DB856739BAE406581947A5FB7826C49A68
:102B7500653BD987045AB8E6A7F91B45C6987A2458
:102B8500F8A6441A99C7257B3A6486D85B05E7B948
:102B95008CD2306EEDB3510F4E10F2AC2F7193CD38
:102BA500114FADF3702ECC92D38D6F31B2EC0E5028
:102BB500AFF1134DCE90722C6D33D18F0C52B0EE18
:102BC500326C8ED0530DEFB1F0AE4C1291CF2D7308
:102BD500CA947628ABF517490856B4EA6937D58BF8
:102BE5005709EBB536688AD495CB2977F4AA4816E8
:102BF500E9B7550B88D6346A2B7597C94A14F6A8D8
:102C0500742AC896154BA9F7B6E80A54D7896B35C7
:0A2C1500000000002B6096CBDDEEFE
:032FC900016C0A8E
:10331600151E151EA81EECF608EDF6151E151E1533
:103326001EA81EC6EBC608C6EAC608C6E9C6E51E3E
:0433360024FCF51E60
:10333A00F80808E4F6A81EF608F6E51E2407F9A818
:10334A001EE6FE08E6FFC3099719E76480F8EE64F3
:10335A0080985037E51E2404F8CBE6CB08E6FA0835
:10336A00E6F98F828E83120409A81E080866FFE513
:10337A001E2403F8EFF6E6902B1593A81E0808F60C
:10338A00A81E0806E61870B20680AFA81E0808E64E
:01339A00FF33
:07339B00E51E2409F51E22C6
:07000300ED6F902B1593FF38
:01000A0022D3
:103D5500EF7023F5847598D0F584759115F5847504
:103D6500C90875CBFFED902C1493F5CA75C804E40A
:083D7500F584D2ACC2BCD2AF50
:013D7D002223
:103A2A00E4F572F571F570F56FF576F575F574F5DF
:103A3A0073756B64FFEF25E025E024A5F8E4F6EF43
:103A4A0025E025E024A6F8E4F6EF25E025E024A702
:103A5A00F8E4F6EF25E025E024A8F8E4F60FBF0124
:013A6A00D487
:013A6B002238
:103E8200D2AFD2A9C2BBE4F584E589540F4401F54F
:0F3E920089758E02758CAFE4F58AD28C023A2ABC
:0231DF00151EBB
:1031E100A81EE4F6A81EE6FFC3940140030232794B
:1031F100EF25E025E024A8F8E6FFD394004052A88B
:103201001EE625E025E024A6F8E67045EF30E0153E
:10321100A81EE6FF25E025E024A8F8E6D3940140A6
:10322100047D0080067D01A81EE6FF123A6CA81EEF
:10323100E6FF25E025E024A8F816E66014EF25E076
:1032410025E024A7F8E6FEEF25E025E024A6F8EE28
:10325100F6A81EE625E025E024A6F8E6600116A8FA
:103261001EE6FF25E025E024A8F8E670057D0112A1
:083271003A6CA81E060231E5CB
:03327900051E220D
:03000B000233A21B
:1033A200C0E0C0F0C083C082C0D0E8C0E0E9C0E0A5
:1033B200EAC0E0EBC0E0ECC0E0EDC0E0EEC0E0EF60
:1033C200C0E0758CAFE5722401F572E43571F571D8
:1033D200E43570F570E4356FF56FD56B18E576243A
:1033E20001F576E43575F575E43574F574E43573F5
:1033F200F573756B641231DF123E62D0E0FFD0E0EC
:10340200FED0E0FDD0E0FCD0E0FBD0E0FAD0E0F965
:0E341200D0E0F8D0D0D082D083D0F0D0E0321D
:103DD000151EA81EEDF6151EA81EEFF6A81EE6FF7E
:103DE000C39401500D08E6FEEF25E025E024A5F878
:073DF000EEF6051E051E2280
:10349B00151E151EA81EEAF608EBF6151EA81EED46
:1034AB00F6151EA81EEFF6A81EE6FFC39401505298
:1034BB00EF25E025E024A8F8E67047A81EE6FB25DB
:1034CB00E025E024A6F8E67039A81E08E625E004FE
:1034DB00FFA81EE6FA25E025E024A8F8EFF6A81EC3
:1034EB000808E6FE08E6FF7C007D0A12047CEA254C
:1034FB00E025E024A7F8EFF6EB25E025E024A6F87D
:09350B00E4F6E51E2404F51E227D
:103A6C00151EA81EEDF6151EA81EEFF6A81EE6FFE5
:103A7C00C39401501CEF25E025E024A5F8E6601165
:103A8C00A81E08E670047F0180027F00A81E08EFC4
:103A9C00F6A81EE6700608E624FF9284051E051E95
:013AAC0022F7
:0C3FBE00C2AFAF72AE71AD70AC6FD2AF8D
:013FCA0022D4
:0C3FCB00C2AFAF76AE75AD74AC73D2AF70
:013FD70022C7
:103D7E00151EA81EEFF6A81EE67004F56DF56E3042
:103D8E003714E56C75F064A4FFC3E56E9FE56D9581
:093D9E00F0500375FFA5051E227B
:103EC000D237E4F56DF56EEF6004F56C8003756C28
:0E3ED0000A75FF0775FFA5E4F58475EF06225D
:0E3FA200C237E4F56DF56E75FFDE75FFAD22DA
:103E6200056EE56E7002056D303714E56C75F06411
:103E7200A4FFC3E56E9FE56D95F0500375FFA52283
:043D00008E438F441B
:103D0400E4F545F546C3E5469544E5459543501627
:103D14007FE87E031237BD7F01123D7E0546E546EE
:063D240070E3054580DF9D
:013D2A002276
:0437BD008E678F681C
:1037C100D3E56894FAE5679400500EEFD394004076
:1037D100407E1600DEFD1F80F285676985686AD329
:1037E100E56A94FAE569940040157FFA7E00123784
:1037F100BD7406256AF56A74FF3569F56980E0D301
:10380100E5689400E56794004007AF6AAE69123736
:01381100BDF9
:013812002293
:10357F00754E00754F007550487B007A0079467D77
:01358F000239
:083590008B4A8A4B894C8D4DDA
:103598007F01123D7EAB4EAA4FA9501204B22400FF
:1035A800FFE5F034E0FE854A51854B52854C53E4E3
:1035B800FDEDC3954D501BEF2DF582E43EF583E4F8
:1035C80093AB51AA52A9538D827583001204480DFA
:0F35D80080DFAB4EAA4FA950E4854DF00204DD11
:1030840075481275493475500075510075524A7B64
:07309400007A0079487D027B
:08309B008B4C8A4D894E8D4FCC
:1030A3007880E664F1600302313B123FA2C2AFE4D1
:1030B300F58475EF0643B701758F01AB50AA51A98B
:1030C300521204B22400FFE5F034E07894F608EFDE
:1030D300F6AA4DA94E7898A64C08C6EAC608C6E9D2
:1030E300C6E47896F67896E6C3954F50327898CB37
:1030F300E6CB080806E618CAE6CA70010614F912F8
:1031030003F07897F6E6FF78940806E618CCE6CC49
:1031130070010614F5828C83EFF078960680C6E47E
:10312300F58F53B7F0AB50AA51A952854FF0120453
:08313300DDD2AFE4FF123EC043
:01313B002271
:103865007880E664F17049C2AF123FA2E4F5847531
:10387500EF0643B701758F03789576E008F67894DF
:10388500F67895E6FE08E6F5828E83E4F07F011270
:103895003D7E7896E426F618740236F61806E6C3D9
:1038A500940840DDE4F58F53B7F0D2AFFF123EC068
:0138B50022F0
:10313C00123865E4F54AF54BF55075510075524A55
:10314C00FB7A0079087D1612309B123084E4F54727
:10315C00E547C3788F965073E4F546AB79AA7AA904
:10316C007B75F010E546A4F58285F08312040960A6
:10317C0056E54675F010A429F9EA35F0FA90000DE1
:10318C001207A078A2E68547F0A429F9EA35F0FAEF
:10319C00EBC0E0EAC0E0E9C0E0AB79AA7AA97B75A4
:1031AC00F010E546A4F58285F083120409FD7550F4
:1031BC000075510075524AD0E0F9D0E0FAD0E0FB2E
:1031CC0012309B0546809405478085123084E47844
:0231DC0080F67B
:0131DE0022CE
:032F0000CCEFCC47
:102F0300E4F548F549F545F54E754F00755048FB16
:102F13007A0079087D1612359012357FE5476434BF
:102F23007004E54664127003434501EC7003022FFD
:102F3300C3E4F544E544C3788F965073E4F543AB9B
:102F430079AA7AA97B75F010E543A4F58285F0830D
:102F53001204096056E54375F010A429F9EA35F027
:102F6300FA90000D1207A078A2E68544F0A429F98F
:102F7300EA35F0FAEBC0E0EAC0E0E9C0E0AB79AAD9
:102F83007AA97B75F010E543A4F58285F0831204DA
:102F930009FD754E00754F00755048D0E0F9D0E03B
:102FA300FAD0E0FB123590054380940544808512E6
:102FB300357FE54764347004E5466412700580008C
:052FC300434502AF458B
:012FC80022E6
:0D3FD800E4F58475E8C075BC8075D1072242
:103C4300E4F584EF540FF5BBE5BC54F84DF5BCE443
:103C5300F5BAC2AFC2EDD2ECC2EDD2EC20ECFDD28C
:103C6300AFE5BF5403FEADBE7C00E42DFFEC3EFE8A
:013C7300222E
:06400700E4F584D2A422BE
:10000E00E4F5847F32FE1237BDD2A37F327E00121A
:05001E0037BDC2A32262
:023DA7008F5932
:103DA900E4F584755A07AF5AE559A807088002C394
:103DB90013D8FC1392A412000E155AC3E55A648055
:063DC900948050E2C2A448
:013DCF0022D1
:043CA5008E588F594D
:103CA900E4F584755A0FE559AE58A85A088005CE2F
:103CB900C313CE13D8F91392A412000E155AC3E5F3
:093CC9005A6480948050DFC2A40B
:013CD20022CF
:103AAD00E4F559F55AF55BF5847559077F327E00BB
:103ABD001237BDA2A1E433F55AAF59A80708800209
:103ACD00C333D8FC425BD2A37F327E001237BDC216
:0E3ADD00A31559C3E5596480948050D0AF5BA7
:013AEB0022B8
:05401200D292024007FC
:0C36AA008E438F448C458D468A478B4828
:1036B600E4F549F54AD2A0123D2BBF03037F03224E
:1036C600C2927F03123DA7AF44AE43123CA5C3E5A9
:1036D6004A9548E5499547501D123AAD854682857B
:1036E6004583EFF00546E54670020545054AE54A7D
:1036F60070DC054980D87F197E001237BDD292C290
:03370600A07F01A0
:01370900229D
:042E1F008E418F420F
:102E23007554007555201204B285F056F557E542E6
:102E33002547E5413546C3940640037F0222D2A0CD
:102E4300E547AE467805CEC313CE13D8F9F5538EB6
:102E530052E4F54CF54DD3E54D9553E54C95524071
:102E630003022EFBE54DAE4C7805C333CE33CED8EB
:102E7300F92542F551E5413EF550E54DB5530EE5D3
:102E83004CB55209755400E547541FF555123D2BB7
:102E9300C2927F02123DA7AF51AE50123CA5E4F59A
:102EA3004EF54FC3E54F9555E54E95545029E548EA
:102EB300B40115855782855683E0FF123DA7055758
:102EC300E557700905568005E4FF123DA7054FE558
:102ED3004F70D0054E80CC7F197E001237BDD29241
:102EE3007F197E001237BD123FB0054DE54D6003DB
:0C2EF300022E59054C022E59C2A07F018E
:012EFF0022B0
:103D2B00C2927F197E001237BD7F06123DA77F1905
:103D3B007E001237BDD2927F197E001237BD123F23
:0A3D4B00B0BF03037F03227F0122B3
:103EA100C2927F05123DA7123AAD8F587F197E004D
:0E3EB1001237BDD2927F197E001237BDAF5876
:013EBF0022E0
:0D3FB000123EA1EF547160037F03227F01D8
:013FBD0022E1
:102D1F0000316253C4F5A697B988DBEA7D4C1F2EAC
:102D2F004372211087B6E5D4FACB98A93E0F5C6D9C
:102D3F0086B7E4D5427320113F0E5D6CFBCA99A88C
:102D4F00C5F4A796013063527C4D1E2FB889DAEB7C
:102D5F003D0C5F6EF9C89BAA84B5E6D7407122136C
:102D6F007E4F1C2DBA8BD8E9C7F6A594033261505C
:102D7F00BB8AD9E87F4E1D2C02336051C6F7A4954C
:102D8F00F8C99AAB3C0D5E6F4170231285B4E7D63C
:102D9F007A4B1829BE8FDCEDC3F2A190073665542C
:102DAF0039085B6AFDCC9FAE80B1E2D3447526171C
:102DBF00FCCD9EAF38095A6B4574271681B0E3D20C
:102DCF00BF8EDDEC7B4A192806376455C2F3A091FC
:102DDF004776251483B2E1D0FECF9CAD3A0B5869EC
:102DEF0004356657C0F1A293BD8CDFEE79481B2ADC
:102DFF00C1F0A3920534675678491A2BBC8DDEEFCC
:102E0F0082B3E0D1467724153B0A5968FFCE9DACBB
:103C7400151EA81EA605151E151EA81EA60608A616
:103C840007A81E0808E6FFA81EE6FE08E66F241F24
:103C9400F582742D3EF583E493FF051E051E051E73
:013CA40022FD
:03402600023E1D3A
:043E1D008E618F62C1
:103E2100E562640145617004D294C295E4F563AF23
:0F3E310062AE61123EFB0563E563C3940940F086
:013E4000225F
:103AEC00EF64014E7037D2947F05FE1237BDD2952C
:103AFC007F057E001237BDC2947F057E001237BD54
:103B0C00C2957F057E001237BDD2957F057E0012CF
:0E3B1C0037BDD2947F057E001237BDC29522C0
:103EFB00EF64014E7013C2957F05FE1237BDD2954C
:0A3F0B007F057E001237BDC295222B
:06370A008F618C628D63EB
:10371000E5636401456270419001EC7407F090012B
:10372000ECE0FFC364809480401DE561A807088039
:1037300002C313D8FC139294AF63AE62123EFB90A7
:1037400001ECE014F080D7D2947F0A7E001237BDDE
:10375000AF63AE62123EFBD2949001EDE0B4010380
:053760007F00227F0143
:013765002241
:0638B6008F618C628D633E
:1038BC00E4F565F566E56364014562703BD2947589
:1038CC006407A294E433F566AF63AE62123EFBAFBD
:1038DC0064E566A807088002C333D8FC426515640A
:1038EC00C3E5646480948050D9E56124FF9294AF61
:0A38FC0063AE62123EFBD294AF658A
:01390600229E
:034029000240262C
:0628F5008B418A42894379
:1028FB00755901755A01755BDA755C01755D01756A
:10290B005EDB85535F8554607B017A0179D67D014F
:10291B001222BD9001D4EFF0755901755A01755B08
:10292B00DA755C01755D01755EDB85535F855460FF
:10293B007B017A0179D87D021222BD9001D5EFF08F
:10294B009001DBE0AB50AA51A9521204369001DA88
:10295B00E0AB4DAA4EA94F1204369001D6E0FFA36F
:10296B00E0AB44AA45A946CF8FF01205159001D8CC
:10297B00E0FFA3E0AB41AA42A943CF8FF0120515AC
:10298B009001D8E0FCA3E0FDE41203369001CC12D9
:10299B00073D9001D6E0FCA3E0FDE4120336900165
:1029AB00D012073D755801755901755AD07B017AC4
:1029BB000179CC1225959001CCE0FCA3E0FDA3E0BE
:1029CB00FEA3E0FFAB47AA48A9491206B39001D07A
:1029DB00E0FCA3E0FDA3E0FEA3E0FFAB4AAA4BA9FA
:1029EB004C1206B39001D4E06004A3E0700AAF541C
:0A29FB00AE53123E1D7F00227F0143
:012A050022AE
:0822BD008B558A5689578D5894
:1022C5009001DD7401F0E49001E2F0A3F0A31207A0
:1022D50049000000009001E812074900000000AF26
:1022E50060AE5F123AECE55824FE601904702AAD21
:1022F50060AC5F7F0312370A9001DDEFF09001DCDF
:102305007403F08014AD60AC5F7F0512370A90014D
:10231500DDEFF09001DC7405F0123FCB9001E41283
:10232500073DE5606401455F700F20940C9001E85E
:1023350012074900000001802A123FCB9001E4E01A
:10234500F8A3E0F9A3E0FAA3E0FBC3EF9BFFEE9A45
:10235500FEED99FDEC98FCE47B02FAF9F8D3120640
:102365008250BFE4FFFEFDFC9001E8E0F8A3E0F930
:10237500A3E0FAA3E0FBC31206827002807EAD6083
:10238500AC5FE4FF1238B69001E0EFF0AD60AC5FF2
:10239500E4FF1238B69001E1EFF0AD60AC5FE4FF09
:1023A5001238B69001DEEFF01239E59001DEEFF05C
:1023B5007D009001DCE0FF7E00123C74AD079001CA
:1023C500E0E0FF7E00123C74AD079001E1E0FF7E86
:1023D50000123C749001DFEFF09001DEE0AB5CAAE7
:1023E5005DA95E120436AB59AA5AA95BEF120436F1
:1023F5009001DFE0FF9001DEE06F600AAF60AE5F45
:10240500123E1D7F00229001E0E0FEA3E0FDEDFFFE
:10241500A3EEF0A3EFF0E5589001E2B40106E05415
:102425003FF08004E0540FF09001E2E0FFA3E0AB41
:1024350055AA56A957CF8FF01205159001DDE0FF7B
:012445002274
:102595008B558A568957AB58AA59A95A1206937B67
:1025A5000A7AD77923783C12011E7BD77AA3791E44
:1025B50078C212002DAB58AA59A95A1206B3AB55C9
:1025C500AA56A9571206937BA27AE7793B78B612E9
:1025D500011EAB55AA56A95712071112011EC004B8
:1025E500C005C006C007AB55AA56A9571206937B6E
:1025F500547AE37925783D12011ED003D002D0012B
:10260500D00012002DE4FBFA798078C012002DABC2
:1026150055AA56A9571206B3AB55AA56A95712067D
:10262500937BAC7AC579A7783812011E7B0A7AD7D5
:102635007923783C12002DC004C005C006C007AB45
:1026450058AA59A95A120693E4FBFA79C878C11217
:10265500002DD003D002D001D00012011EAB55AA27
:1026650056A95712071112002DAB55AA56A9571294
:1026750006B3AB55AA56A957120693E4FBFA79C8D7
:1026850078421202C4500DAB55AA56A95712077AC3
:1026950042C80000AB55AA56A9571206937BCD7ABE
:1026A500CC79CC783D1202C4600F400DAB55AA56CB
:0A26B500A95712077A3DCCCCCD22C4
:1039E500E4FE7D807C07EDC394104016EF5DFBA8D7
:1039F50004088002C313D8FC4206EDC313FD1C1C4A
:103A050080E47D087C01EDC394014016EF5DFBA8C1
:103A150004088002C333D8FC4206EDC313FD0C0C29
:043A250080E4AF0684
:013A2900227A
:0B3FFC00BF0102D282BF0202D283226A
:103B2A008D42C2A3E542B40102C282E542B4020256
:103B3A00C283EFC454F04BFF123DA7E545C4F854C5
:103B4A000FC868FFE544C454F048FE123CA5E5429C
:0D3B5A00B40102D282E542B40202D28322FD
:0300000002327C4D
:10327C0075EF02E5EF30E106438701858787787F9C
:0A328C00E4F6D8FD7581A80232D1E6
:04401C00E4F5842221
:103F71007F327E001237BDD2877F327E001237BD7D
:033F8100C28722D2
:023DF7008F41FA
:103DF900754207AF42E541A807088002C313D8FC02
:103E0900139286123F711542C3E542648094805033
:033E1900E2C2867C
:013E1C002283
:103B6700E4F541F542F5437541077F327E00123790
:103B7700BDA2A7E433F542AF41A807088002C333CB
:103B8700D8FC4243D2877F327E001237BDC28715E9
:0C3B970041C3E5416480948050D0AF43EE
:013BA30022FF
:1019D1004093AE144048B4393DCCCCCD4048B439E5
:1019E1003ECCCCCD3ECCCCCD3E4CCCCD3C23D70A4D
:1019F10000000000000000000000000000000000E6
:101A010000000000000000000000000000000000D5
:101A11004C504200043400000053657269616C4E01
:101A21000001002502340000004572726F7200004F
:101A3100000100290134000000436F6E74726F6C65
:101A41000001002B013400000053746174757300B0
:101A51000001002C013400000065657061676500BC
:101A61000001002D01340000005370617265000017
:101A71000001002E023400000044656C6179000011
:101A81000001002F0418000001443241736866749C
:101A91000001003104180000017044567363000016
:101AA1000001003504060000017044497363000021
:101AB100000100390418000001704456360000008E
:101AC1000001003D04060000017044493600000099
:101AD1000001004104060000017044493500000086
:101AE100000100450406FD00017044493333000044
:101AF100000100490406FD0001704449313800002D
:101B01000001004D0408000001754354656D70002B
:101B1100000100510408000001496E7454656D70A4
:101B210000010055040800000154656D703538004E
:101B310000010059040800000154656D7033330041
:101B41000001005D040800000153485474656D7084
:101B510000010061045A0000015248756D6964007A
:101B6100000100650234000000726461633000000E
:101B710000010069023400000072646163340000F6
:101B81000001006B023400000072646163380000E0
:101B91000001006D023400000072646163313200A3
:101BA1000001006F0234000000726461633136008D
:101BB1000001007102340000007264616332300080
:101BC100000100730234000000726461633234006A
:101BD1000001007502340000007264616332380054
:101BE1000001007702340000007264616333320047
:101BF1000001007902340000007264616333360031
:101C01000001007B02340000007264616334300023
:101C11000001007D0234000000726461633434000D
:101C21000001007F023400000072646163343800F7
:101C310000010081023400000072646163353200EA
:101C410000010083023400000072646163353600D4
:101C5100000100850234000000726461637370004A
:101C6100000100870234000000724432417368664B
:101C710074010089023400000072704456736300DD
:101C81000001008B0234000000727044497363004C
:101C91000001008D023400000072704456360000CD
:101CA1000001008F023400000072704449360000C8
:101CB10000010091023400000072704449350000B7
:101CC1000001009302340000007270444933330074
:101CD100000100950234000000727044493138005F
:101CE10000010097023400000072534854656D7082
:101CF100000100990234000000725248756D696458
:101D01000001009B043400000165657056616C752B
:101D11006501009D043400000065654374725365DC
:101D2100740100A10000000000000000000000009C
:041D310000000000AE
:102FCC0048012D0000020004000600607800AF00EC
:102FDC0000000000000000000000000000000000E5
:102FEC0000000000000000000000000000000000D5
:102FFC000000000000000000000000406000003DE8
:10300C00CCCCCD40B000000000000000000000005F
:10301C000000000000000040C0000040B000003E76
:10302C0099999A40D000003FE666663DCCCCCD3FE6
:10303C000000003E4CCCCD41200000424800004135
:10304C00200000424800000D82245265763A20315F
:10305C00303739202400018F01440010000000009B
:10306C00440006000000004400A8000000004100DD
:07307C0004000379FF1A159F
:0F3F9300C2AF90002BE525F0A3E522F0D2AF22BC
:043F5C00A21D9238D8
:103F6000C2AFD238900029E523F0A3E524F0D2AF08
:013F7000222E
:103F450090002BE525F0A3E522F0900029E523F06C
:073F5500A3E524F0D2AF2226
:103E41008F828E83C2AFAF46AE45AD44AC431207FD
:103E51003D30380A900029E523F0A3E524F0D2AFE4
:013E6100223E
:0826BF008F418B428A438944DC
:1026C7009001D412074900000000E49001CCF0A368
:1026D700F0AD45AF41123C439001D2EEF0A3EFF0CD
:1026E700A3E0F8A3E0F9A3E0FAA3E0FB9001D2E0AE
:1026F700FEA3E0FFE4FCFDEB2FFFEA3EFEED39FD14
:10270700EC38FCA312073D1235149001CDE004F01C
:1027170070069001CCE004F0C39001CDE0940A90DC
:1027270001CCE0940040AAE47B0AFAF9F89001D4BE
:10273700E0FCA3E0FDA3E0FEA3E0FF1205BFAB4270
:10274700AA43A944EE8FF0120515AB42AA43A94448
:102757001204B2FDACF0E41203369001CE12073D2D
:10276700E4FBFA798078449001CEE0FCA3E0FDA376
:10277700E0FEA3E0FF120227E4FBFA79207840127B
:10278700011E9001CE12073DE5416408603EE54118
:1027970025E025E024D1F582E43419F5831206F10A
:1027A7009001CEE0F8A3E0F9A3E0FAA3E0FB120161
:1027B7001EE54125E025E024F1F582E43419F5838F
:1027C70012070112002D9001CE12073D9001CEE0B5
:0A27D700FCA3E0FDA3E0FEA3E0FF79
:0127E10022D5
:10376600D28412401C90002FE054034480FF123D87
:10377600F790002FA3E0FF123DF7C2847F647E001E
:103786001237BDD28412401C123B678F77123B67FB
:103796008F78C2847F647E001237BDC2AFE5777F23
:1037A60000FE90002FF0A3EFF0E578FF90002FEEDB
:0737B600F0A3EFF0D2AF22F7
:10390700EF6401703A75840FD293D2A6D2A543A46F
:10391700CC9001CCF09001CCE0FEC3648094905031
:103927001BEEFD3395E0FC74142DF58274003CF515
:10393700837401F09001CCE004F080D9D20B22EF20
:0E394700700C75840FC293C2A6C2A553A433A0
:01395500224F
:10203D00E49001B6F0A3F0A3F0A3F0A3F0EF600BD2
:10204D0012400D9001B7E4F0A3EFF0E49001B5F06C
:10205D009001B5E0FFC39404501A74882FF9C3E7BB
:10206D00648094B05006E02488F876309001B5E095
:10207D0004F080DC7889E6FF3395E0FEEF24D0FF95
:10208D00EE34FFFE7C007D6412046AAA06AB07786D
:10209D0088E6FF3395E0FEEF24D0FFEE34FFFE7CA3
:1020AD00037DE812046AEF2BFBEE3AFA788AE6FF1D
:1020BD003395E0FEEF24D0FFEE34FFFE7C007D0A69
:1020CD0012046AEF2BFFEE3AFE788BE6FD3395E0B6
:1020DD00FCED24D0FDEC34FFCD2FF50DED3EF50CD0
:1020ED00750A01750BF47E007F807D007B017A00FF
:1020FD0079251207F6E4F522F525C20CC20B75847D
:10210D000F43A42053E3FB75840FC2A6C2A5C2934F
:10211D0043A50853A5BF43A6E0FF123907123FD8C8
:10212D0075840F43A5017584024388807589037FEB
:10213D00017E0012402075840FD2A143A618C2A3C0
:10214D00C2A475840F43A60143A604D2A243A504DD
:10215D00124012900133E0FEA3E0FF7C007DAF7BC7
:10216D00047A001236AA9000AFE0FCA3E0FDA3E0D4
:10217D00FEA3E0FF90002512073D7E007F787D00D5
:10218D007B017A0079AF1207F690012DE0FEA3E0F6
:10219D00FF7C007DAF7B787A001236AAC2AFE49047
:1021AD0001B5F09001B5E0FF25E024B7F582E434E8
:1021BD0000F583E0FCA3E0FDEF25E02469F582E462
:1021CD003400F583ECF0A3EDF09001B5E004F0E000
:1021DD00B410D09000B5E0FFA3E090002FCFF0A396
:1021ED00EFF0D2AF75840F43A5207F017E00124022
:1021FD002990006112074900000000900065120748
:10220D004900000000E4900099F0A3F0A3F0A3F0C2
:10221D0075840F75A7FF9001B6E5B0F0E0F4FFE40B
:10222D00F4FEEF25E0FFEE335401FEEF54F84405C4
:10223D00FF9001B9EEF0A3EFF08E08F509E49001DF
:10224D00B5F09001B5E0FF25E024B7F582E4340048
:10225D00F583E0FCA3E0FDEF25E02469F582E4348D
:10226D0000F583ECF0A3EDF09001B5E0FF25E0243F
:10227D00B7F582E43400F583A3E0FE74142FF582E4
:10228D00E43400F583EEF09001B5E004F0E0B41015
:10229D00B17F01123FFC7F02123FFC75840F43A4F6
:0F22AD008043A44053A67F43A41043A640D2A66B
:0122BC0022FF
:103BDF00151EA81EEFF6A81EE6FFC394154007EFAB
:103BEF0094255002D20BEFB4020690002BE0F5257E
:103BFF00A81EE6B40602D20DA81EE6B43002D20CFF
:033C0F00051E226D
:054017008F397F00223B
:103CD3008B398A3A893B1203F0AB3CAA3DA93E12C9
:103CE3000436AB39AA3AA93B900001120409AB3C54
:0D3CF300AA3DA93E9000011204487F022264
:10093C00301008300D05123766C20D302B189000A0
:10094C002CE0F522301306C2A6D2138004D2A6C224
:10095C0013C22B123F9330283090002CE0F522E488
:10096C00F523F524C216C2AFE522F0900029E52349
:10097C00F0A3E524F0D2AF7F01123907D208123F61
:10098C00CB9000A812073DC228302F1490002CE009
:10099C00F522D217E4FF123907C210C22F123F936F
:1009AC0090002CE0F522201003020A66200B0302B3
:1009BC000A66E49001C2F09001C2E0FFC3941040BB
:1009CC0003020A62200923E0FE2414F582E43400B9
:1009DC00F583E0FDEE25E02469F582E43400F5832F
:1009EC00E0FAA3E06D7001EA6063EFD39407400472
:1009FC007F0280027F019001C3EFF09001C2E0BF43
:100A0C00020524F8FF8001FF9001C4EFF0FB900178
:100A1C00C2E025E02469F582E43400F583E0F54476
:100A2C00A3E0F5459001C3E0FD7F03123B2A900142
:100A3C00C2E0FF25E02469F582E43400F583A3E0ED
:100A4C00FE74142FF582E43400F583EEF09001C2AD
:100A5C00E004F00209C3C209C20B300803020D0105
:100A6C00123FCB900010E0F8A3E0F9A3E0FAA3E06A
:100A7C00FBC3EF9BFFEE9AFEED99FDEC98FCE47B3B
:100A8C0002FAF9F8C31206824003020D0175440202
:100A9C00E4F545F546F5477548011B8B49754A0148
:100AAC00754BB9FD7F4C122446EF7070C21D90013E
:100ABC0017E0FCA3E0FDA3E0FEA3E0FF9001B9E08A
:100ACC00F8A3E0F9A3E0FAA3E0FB1202C4402390E0
:100ADC00011BE0FCA3E0FDA3E0FEA3E0FF9001B945
:100AEC00E0F8A3E0F9A3E0FAA3E0FB1202C460046F
:100AFC004002D21C7E007F55EEC0E09001B9E0FCB4
:100B0C00A3E0FDA3E0FEA3E0F5468E458D448C43A7
:100B1C00A21C9238D0E0FE123E418003123F5C755D
:100B2C004402E4F545F546F54775480175490175EC
:100B3C004A01754BB97B017D017F4C122446EF7045
:100B4C0070C21D90011FE0FCA3E0FDA3E0FEA3E03A
:100B5C00FF9001B9E0F8A3E0F9A3E0FAA3E0FB12DF
:100B6C0002C44023900123E0FCA3E0FDA3E0FEA31C
:100B7C00E0FF9001B9E0F8A3E0F9A3E0FAA3E0FBF1
:100B8C001202C460044002D21C7E007F59EEC0E009
:100B9C009001B9E0FCA3E0FDA3E0FEA3E0F5468ED6
:100BAC00458D448C43A21C9238D0E0FE123E41800D
:100BBC0003123F5C754402E4F545F546F54775486C
:100BCC0001754901754A01754BB97B017D027F4C5A
:100BDC00122446EF7070C21D90011FE0FCA3E0FDD3
:100BEC00A3E0FEA3E0FF9001B9E0F8A3E0F9A3E0D5
:100BFC00FAA3E0FB1202C44023900123E0FCA3E023
:100C0C00FDA3E0FEA3E0FF9001B9E0F8A3E0F9A397
:100C1C00E0FAA3E0FB1202C460044002D21C7E0086
:100C2C007F5DEEC0E09001B9E0FCA3E0FDA3E0FE27
:100C3C00A3E0F5468E458D448C43A21C9238D0E03F
:100C4C00FE123E418003123F5C9000AEE070030246
:100C5C000CF87544017545007546AC75470175482F
:100C6C0001754929754A01754B00754C0A754D0182
:100C7C00754E00754FA57550017551007552247550
:100C8C0053007554017B017A0079A61228F5900166
:100C9C00C1EFF0BF01509000AE7405F0C2AF9000F0
:100CAC00ACE0FFA3E0900099CFF0A3EFF09000A68A
:100CBC00E0FFA3E090009BCFF0A3EFF0900129E0C0
:100CCC00FCA3E0FDA3E0FEA3E0FF90006512073D4E
:100CDC0090000AE0FCA3E0FDA3E0FEA3E0FF90007F
:100CEC006112073DD2AF9000AEE014F0123FCB90F2
:100CFC00001012073D309603C38001D3921F2008C9
:100D0C002D123FCB900006E0F8A3E0F9A3E0FAA384
:100D1C00E0FBC3EF9BFFEE9AFEED99FDEC98FCE433
:100D2C007B01FAF9F8C31206824003020F5C7B01C7
:100D3C007A0179BDE4F5457F081226BF9001B51202
:100D4C00073D7FF07EA77D467CBF9001B5E0F8A300
:100D5C00E0F9A3E0FAA3E0FB12002DE4FBFA797AA8
:100D6C00784412011E7B3D7A0A79377840120227AB
:100D7C009001B912073DE4FFFE7D207C419001B942
:100D8C00E0F8A3E0F9A3E0FAA3E0FB12011EE4FBF8
:100D9C00FAF9783F12002D12036FCDEFCDCCEECCCB
:100DAC00EC120336E4FBFA79207841120227900109
:100DBC00B912073D900117E0FCA3E0FDA3E0FEA3F0
:100DCC00E0FF9001B9E0F8A3E0F9A3E0FAA3E0FB9F
:100DDC001202C4402390011BE0FCA3E0FDA3E0FE43
:100DEC00A3E0FF9001B9E0F8A3E0F9A3E0FAA3E0D7
:100DFC00FB1202C460044002D2277E007F51EEC079
:100E0C00E09001B9E0FCA3E0FDA3E0FEA3E0F54611
:100E1C008E458D448C43A2279238D0E0FE123E4181
:100E2C009001C57401F0A37400F0A37431F0753F08
:100E3C0000754089E4F57C7B017A0179BDE4F545C8
:100E4C00AF7C1226BF9001B512073DC2AF9001B521
:100E5C00E0FCA3E0FDA3E0FEA3E0FF9001C5E0FBF6
:100E6C00A3E0FAA3E0F975F004E57CA4F58285F023
:100E7C00831206CD9001BDE0FEA3E0FF8540828584
:100E8C003F8375F002E57C120794EEF0A3EFF0D2ED
:100E9C00AFE57C7003020F4714FF74017E00C8EFAE
:100EAC00C8088005C333CE33CED8F9FFEE3395E0B6
:100EBC00FDFC9001C812073DE57C25E025E024D718
:100ECC00F582E43400F583E0FCA3E0FDA3E0FEA38F
:100EDC00E0FF9001B5E0F8A3E0F9A3E0FAA3E0FB92
:100EEC001202C4402FE57C25E025E024F7F582E4CE
:100EFC003400F583E0FCA3E0FDA3E0FEA3E0FF904B
:100F0C0001B5E0F8A3E0F9A3E0FAA3E0FB1202C4F8
:100F1C00601240109001C8A3A3E0FEA3E04224EEAF
:100F2C00422380179001C8E0FCA3E0FDA3E0FEA3E0
:100F3C00E0FF120651EF5224EE5223057CE57CC3F0
:100F4C0094085003020E43123FCB90000612073D4B
:100F5C00123FCB9000A8E0F8A3E0F9A3E0FAA3E0DD
:100F6C00FBC3EF9BFFEE9AFEED99FDEC98FCE47B46
:100F7C0001FAF9F8C3120682502B301017E52354EE
:100F8C0086FEE52454854E600BC210E4FF1239072F
:100F9C00D216801130080EC208C217C216D210D257
:100FAC0009D20BD20D123F45200C03021096900073
:100FBC00A1E0FCE4FFFEFDEC543CFC700302108647
:100FCC009000A1E0FCA3E0FDA3E0FEA3E0FFC3EFD3
:100FDC00940A7480948050030210769000A1A3A30D
:100FEC00A3E4FEFDFC7B04FAF9F81205347B0174D2
:100FFC00AF2FF974003EFAEB3D900000F0A3EAF03D
:10100C00A3E9F09000A1A3E0FDED5422FDED601EDC
:10101C0090009DE0FCA3E0FDA3E0FEA3E0FF9000A8
:10102C0000E0FBA3E0FAA3E0F91206B3805A9000AB
:10103C00A1A3E0FDE4FFFEED5411FDE4FCED601A0C
:10104C00C2AF900000E0FBA3E0FAA3E0F912069314
:10105C0090009D12073DD2AF802EC2AF9000A1121E
:10106C000749FF000000D2AF801EC2AF9000A11252
:10107C0007490000FF00D2AF800EC2AF9000A11252
:10108C00074900FF0000D2AFC20C202C0302117CD8
:10109C00900004E0600302112990002CE0F522E49A
:1010AC009001BFF0A3F09001BFE0FEA3E0FFC3945A
:1010BC0010EE94005035EF25E0FFEE33FE74692FEF
:1010CC00F58274003EF583E0FCA3E0FD74B72FF5C8
:1010DC008274003EF583ECF0A3EDF09001C0E004C7
:1010EC00F070C39001BFE004F080BB90002FE0FFD4
:1010FC00A3E09000B5CFF0A3EFF090002DE05407E3
:10110C0025E0242DF582E43401F583E0FFA3E09083
:10111C000127CFF0A3EFF0757D00757EAF90000F27
:10112C007401F0900127E0FEA3E0FF7546007547BF
:10113C007890000FE0F548754901754A00754B042D
:10114C007B007A00797D122E1F9001C1EFF0BF0158
:10115C001AD214E4900004F0C22C90002DE0FF543D
:10116C0007C43354E0FEEF4EF08002C214123F93DA
:10117C00202D0302122C90002CE0F522A3E0540742
:10118C0025E0242DF582E43401F583E0FEA3E0FF95
:10119C00900127EEF0A3EFF0757D00757EAF7B78A4
:1011AC007A00AD7EAC7D1236AA8F7CE57C64017032
:1011BC0068D215C2AF9001BFF0A3F09001BFE0FE62
:1011CC00A3E0FFC39410EE94005035EF25E0FFEE42
:1011DC0033FE74B72FF58274003EF583E0FCA3E078
:1011EC00FD74692FF58274003EF583ECF0A3EDF0ED
:1011FC009001C0E004F070C39001BFE004F080BB2C
:10120C009000B5E0FFA3E090002FCFF0A3EFF0D259
:10121C00AFD209D20BD20D8002C215C22D123F9350
:07122C007F0A7E00023D0075
:100026000203DBE86480F8E933E83360110460F02A
:10003600ED33EC337009E8FCE9FDEAFEEBFF220440
:1000460060DED3EB9FEA9EE99DE8C2E78CF0C2F73B
:1000560095F0400CE8CCF8E9CDF9EACEFAEBCFFB07
:100066001203A685D0F05804700320D5B3E80470B7
:10007600075002B2D50203E592D5EC0460F7E4CC52
:10008600C0E0C398F8603B94186008400DD0E0FBD0
:100096000203BDE4FBFAC9FC8028E830E406E4C9A3
:1000A600FBE4CAFCE830E305E4C9CACBFCE8540724
:1000B6006010F8C3E913F9EA13FAEB13FBEC13FC2F
:1000C600D8F130F52FC3E49CFCEF9BFFEE9AFEEDD2
:1000D60099FDD0E0FBEF4E4D4C701222DB0302037C
:1000E600E2EC2CFCEF33FFEE33FEED33FDED30E7B3
:1000F600EB0203BDEF2BFFEE3AFEED39FDD0E0FB40
:1001060050130BBB00030203E5ED13FDEE13FEEFE8
:0801160013FFEC13FC0203BD12
:10011E00EC4D6011E8497017ED33EC3304600DE4DB
:10012E00FCFFFEFD22E933E8330470F80203DB1214
:10013E0003A658046009E4CC248150062850090215
:10014E0003E52840030203E2C0E0EB4A7044B980A5
:10015E0006D0E0FB0203D1EF4E701CBD8008EBFF12
:10016E00EAFEE9FD80EBE98DF0A4FEE5F002020760
:10017E00E9CDF9EAFEEBFFEF89F0A4FCE5F0CE89BC
:10018E00F0A42EFFE435F0CD89F0A42DFEE435F079
:10019E008067EF4E7005BD80D780C3EF8BF0A4ACA7
:1001AE00F0EE8BF0A42CFCE435F0F8EF8AF0A42CE2
:1001BE00E5F038FCE433CB8DF0A42CFCE5F03BF8F5
:1001CE00EE8AF0A42CFCE5F038F8E433CF89F0A4E5
:1001DE002CFCE5F038CF3400CE89F0A42FFFE5F0EB
:1001EE003EFEE433C98DF0A42EFEE5F039CD8AF043
:1001FE00A42FFFE5F03EFEE43DFD33D0E0FB5007BB
:10020E000BBB000F0203E5EC2CFCEF33FFEE33FECD
:06021E00ED33FD0203BDFB
:100224000203E5EC5D046005E8590470030203DB96
:100234001203A6580460F6EC4860F2EC7004FDFE6C
:10024400FF22C860DB2481C85009C39860025006AD
:100254000203E29850CAF582E9294B4A7005AB8241
:100264000203D175F0007C1A7880C3EF9BEE9AEDFF
:1002740099400DC3EF9BFFEE9AFEED99FDE842F025
:10028400DC23ACF0D0E0FFD0E0FED0E0FDAB822078
:10029400E7101BEB60BAEC2CFCEF33FFEE33FEED02
:1002A40033FD0203BDE803F830E705C0F075F00044
:1002B400EF2FFFEE33FEED33FD40B830E7C280AAE6
:1002C40074F8CC6480CCC86480C8F582046043C3ED
:1002D400EB9FF5F0EA9E42F0E99D42F0E89C45F080
:1002E40060305018E5825FFFE582F42B5582FB50A5
:1002F400210ABA001D09B90019088016E5825BFBC2
:10030400E582F42F5582FF50090EBE00050DBD0095
:10031400010CC3EB9FF5F0EA9E42F0E99D42F0E840
:0D0324009C45F06007CC4820E701B3EC22B7
:1003310075F020800E75F010800575F0087D007E47
:10034100007F003392D530D50312065EEC334010A6
:10035100EF33FFEE33FEED33FDEC33FCD5F0ED2250
:0E036100E5F0247EA2D513CC92E7CDCEFF228C
:10036F00EDD2E7CD33EC3392D524814006E4FFFE86
:10037F00FDFC22FCE4CFCECDCC24E0501174FF80E5
:10038F00EDC3CC13CCCD13CDCE13CECF13CF047082
:07039F00F030D5DE02065E1E
:1003A600E9D2E7C933E833F892D5EDD2E7CD33EC9D
:0703B60033FC5002B2D52216
:1003BD00EC30E7100FBF000C0EBE00080DBD0004A1
:1003CD000BEB6014A2D5EB13FCED92E7FD2274FF4D
:1003DD00FCFDFEFF22E480F8A2D574FF13FC7D80A6
:0303ED00E480EFBA
:10329600023FF1E493A3F8E493A34003F68001F21E
:1032A60008DFF48029E493A3F85407240CC8C33339
:1032B600C4540F4420C8834004F456800146F6DF08
:1032C600E4800B0102040810204080902FC9E47EA0
:1032D600019360BCA3FF543F30E509541FFEE493FD
:1032E600A360010ECF54C025E060A840B8E493A3C4
:1032F600FAE493A3F8E493A3C8C582C8CAC583CAEF
:10330600F0A3C8C582C8CAC583CADFE9DEE780BEA6
:01308300004C
:1003F000BB010689828A83E0225002E722BBFE020B
:09040000E32289828A83E493223D
:10040900BB010CE58229F582E5833AF583E02250A8
:1004190006E92582F8E622BBFE06E92582F8E222F2
:0D042900E58229F582E5833AF583E493220C
:10043600BB010689828A83F0225002F722BBFE01A5
:02044600F3229F
:10044800F8BB010DE58229F582E5833AF583E8F0EA
:10045800225006E92582C8F622BBFE05E92582C896
:02046800F2227E
:10046A00EF8DF0A4A8F0CF8CF0A428CE8DF0A42EA6
:02047A00FE2260
:10047C00C2D5EC30E709B2D5E4C39DFDE49CFCEE9B
:10048C0030E715B2D5E4C39FFFE49EFE120822C3E9
:10049C00E49DFDE49CFC800312082230D507C3E4E4
:0604AC009FFFE49EFE220A
:1004B200BB010A89828A83E0F5F0A3E02250068715
:1004C200F009E71922BBFE07E3F5F009E3192289D7
:0B04D200828A83E493F5F0740193220A
:1004DD00BB010789828A83020877500B09C5F02773
:1004ED00F7C5F01937F722BBFE0D09F8E325F0F338
:1004FD00C5F019E338F322F889828A8374019325B4
:08050D00F0C5F0F8E493382278
:10051500BB010A89828A83F0E5F0A3F0225006F731
:0F05250009A7F01922BBFE06F3E5F009F319222E
:10053400E88FF0A4CC8BF0A42CFCE98EF0A42CFC66
:100544008AF0EDA42CFCEA8EF0A4CDA8F08BF0A4E4
:100554002DCC3825F0FDE98FF0A42CCD35F0FCEB43
:100564008EF0A4FEA9F0EB8FF0A4CFC5F02ECD3908
:0F057400FEE43CFCEAA42DCE35F0FDE43CFC2275
:1005830075F008758200EF2FFFEE33FECD33CDCC2F
:1005930033CCC58233C5829BED9AEC99E5829840B2
:1005A3000CF582EE9BFEED9AFDEC99FC0FD5F0D68F
:1005B300E4CEFBE4CDFAE4CCF9A88222B800C1B9B9
:1005C3000059BA002DEC8BF084CFCECDFCE5F0CBF7
:1005D300F97818EF2FFFEE33FEED33FDEC33FCEB30
:1005E30033FB10D703994004EB99FB0FD8E5E4F9EB
:1005F300FA227818EF2FFFEE33FEED33FDEC33FCD8
:10060300C933C910D7059BE99A4007EC9BFCE99ACB
:10061300F90FD8E0E4C9FAE4CCFB2275F010EF2F10
:10062300FFEE33FEED33FDCC33CCC833C810D70710
:100633009BEC9AE899400AED9BFDEC9AFCE899F84B
:0E0643000FD5F0DAE4CDFBE4CCFAE4C8F922DE
:0D065100CFF4CFCEF4CECDF4CDCCF4CC223E
:0E065E00C3E49FFFE49EFEE49DFDE49CFC22AD
:10066C00EB9FF5F0EA9E42F0E99D42F0EC6480C805
:06067C0064809845F022A5
:10068200EB9FF5F0EA9E42F0E99D42F0E89C45F0CE
:010692002245
:10069300BB010789828A830208995005E9F8020899
:1006A3008DBBFE05E9F80208A589828A830206F15B
:1006B300BB010789828A8302073D5005E9F80207D7
:0A06C30031BBFE05E9F80208D7225A
:1006CD00BB010DE58229F582E5833AF58302073DED
:1006DD005007E92582F8020731BBFE07E92582F8AC
:0406ED000208D72206
:1006F100E493FC740193FD740293FE740393FF224F
:10070100E493F8740193F9740293FA740393FB224E
:10071100BB010789828A830208BE5005E9F80208F5
:10072100B1BBFE05E9F80208CA89828A8302070182
:0C073100ECF608EDF608EEF608EFF622F4
:0C073D00ECF0A3EDF0A3EEF0A3EFF0222F
:10074900A8828583F0D083D08212076012076012D5
:100759000760120760E473E493A3C583C5F0C583FA
:10076900C8C582C8F0A3C583C5F0C583C8C582C8FA
:01077900225D
:10077A00BB010789828A830207495005E9F8020802
:0A078A00E3BBFE05E9F80208FC22BB
:0C079400A42582F582E5F03583F5832270
:1007A000BB010DE58229F582E5833AF58302091E36
:1007B0005007E92582F8020915BBFE07E92582F8F2
:1007C000020927E58229F582E5833AF5830209309B
:1007D000D083D082F8E4937012740193700DA3A3B8
:1007E00093F8740193F5828883E4737402936860CC
:0607F000EFA3A3A380DFCC
:103813008B438A448945E4F54BF54CE54A154AAE9A
:1038230049700215494E6033AB46AA47A9481203B3
:10383300F0FFAB43AA44A945054CE54CAC4B7002E1
:10384300054B14F5828C83EF120448EF60CD7401AD
:103853002548F548E43547F54780C0AB43AA44A95A
:023863004522FC
:1007F600EF4E6012EF60010EEDBB010B89828A831A
:10080600F0A3DFFCDEFA2289F05007F709DFFCA926
:0C081600F022BBFEFCF309DFFCA9F0227D
:10082200BC000BBE0029EF8DF084FFADF022E4CCBA
:10083200F875F008EF2FFFEE33FEEC33FCEE9DEC83
:10084200984005FCEE9DFE0FD5F0E9E4CEFD22EDC9
:10085200F8F5F0EE8420D21CFEADF075F008EF2F13
:10086200FFED33FD4007985006D5F0F222C398FD04
:050872000FD5F0EA22A1
:10087700C5F0F8A3E028F0C5F0F8E582158270020C
:060887001583E038F022A9
:0C088D00E6FC08E6FD08E6FE08E6FF2297
:0C089900E0FCA3E0FDA3E0FEA3E0FF22D2
:0C08A500E2FC08E2FD08E2FE08E2FF228F
:0D08B100E6FB08E6F908E6FA08E6CBF822B7
:0C08BE00E0F8A3E0F9A3E0FAA3E0FB22BD
:0D08CA00E2FB08E2F908E2FA08E2CBF822AE
:0C08D700ECF208EDF208EEF208EFF2225D
:1008E300D083D082E493F608740193F608740293DC
:0908F300F608740393F674047313
:1008FC00D083D082E493F208740193F208740293CB
:09090C00F208740393F274047301
:09091500E6FB08E6FA08E6F92207
:09091E00E0FBA3E0FAA3E0F922DA
:09092700E2FB08E2FA08E2F92201
:0C093000E493FB740193FA740293F92223
:00000001FF
