:0340170002401A4A
:06242F008F418D428B433A
:102435009001CC120749000000007D00AF417E00ED
:10244500123C09AD07AF437E00123C09AD07AF440E
:102455007E00123C09AD07AF427E00123C09900197
:10246500CBEFF0E54364037021FDAF46FE123C0956
:10247500AD07AF457E00123C09AD079001CBE0FFEB
:102485007E00123C099001CBEFF0754C01754E149E
:10249500E54C700302258AE54E700302258AAF4894
:1024A500AE47123F24AF48AE47123F24AD48AC4774
:1024B500AF411235DEAF48AE47123F24AD48AC47B9
:1024C500AF431235DEAD48AC47AF441235DEE543C8
:1024D50070028028AD48AC47AF421235DEE542B404
:1024E500F6028018E54364037029AD48AC47AF4652
:1024F5001235DEAD48AC47AF451235DE9001CBE075
:10250500FF854953854A54854B55AB48AA477DFFFE
:102515000229FEE54364017067E54464027061E5E4
:102525004C603F9001CBE0FF854953854A54854B6C
:1025350055AB48AA47E4FD1229FE8F4DE54D7022A3
:102545009001CCE0FCA3E0FDA3E0FEA3E0FFAB49D6
:10255500AA4AA94B12071112002D9001CC12073D72
:10256500154CE54C701A9001CCE0FCA3E0FDA3E00E
:10257500FEA3E0FFAB49AA4AA94B1206B37F00228E
:07258500154E022495AF4D35
:01258C00222C
:0829FE008F4F8D508A518B525E
:102A0600E4F558AF52AE51123995E54F6F60037F2A
:102A1600FF22EFF4B54F037FFD22E550B4FF037F9D
:102A26000122E5506003022B0AAF52AE51123995CE
:102A36008F56AF52AE511239958F57AF52AE5112D3
:102A460039958F587D00AF567E00123C09AD07AF11
:102A5600577E00123C09EF655860037FFE22E5575A
:102A660030E7096357FFE556F404F556E557FE7C53
:102A760000E42556FFEC3EFE9001D0F0A3EFF0FDFA
:102A8600AC06EC120336E4FBFA7980784212022790
:102A9600AB53AA54A9551206B3AB53AA54A955C0B1
:102AA60003C002C0011206937BCC7A5D795B783F46
:102AB600120029D001D002D0031206B3AB53AA5498
:102AC600A955120693E4FBFA79C878421202C4406B
:102AD60017AB53AA54A955120693E4FBFA7920784A
:102AE600C11202C4600540037FFA22AB53AA54A95F
:102AF600551206937BCC7A5D795B78BF1202C4705F
:062B0600037FFB227F00AB
:012B0C0022A6
:102C170000070E091C1B1215383F363124232A2DB5
:102C270070777E796C6B6265484F464154535A5DA5
:102C3700E0E7EEE9FCFBF2F5D8DFD6D1C4C3CACD95
:102C470090979E998C8B8285A8AFA6A1B4B3BABD85
:102C5700C7C0C9CEDBDCD5D2FFF8F1F6E3E4EDEA75
:102C6700B7B0B9BEABACA5A28F88818693949D9A65
:102C77002720292E3B3C35321F18111603040D0A55
:102C87005750595E4B4C45426F68616673747D7A45
:102C9700898E878095929B9CB1B6BFB8ADAAA3A435
:102CA700F9FEF7F0E5E2EBECC1C6CFC8DDDAD3D425
:102CB700696E676075727B7C51565F584D4A434415
:102CC700191E171005020B0C21262F283D3A333405
:102CD7004E49404752555C5B7671787F6A6D6463F5
:102CE7003E39303722252C2B0601080F1A1D1413E5
:102CF700AEA9A0A7B2B5BCBB9691989F8A8D8483D5
:102D0700DED9D0D7C2C5CCCBE6E1E8EFFAFDF4F3C4
:103C0900151EA81EA605151E151EA81EA60608A681
:103C190007A81E0808E6FFA81EE6FE08E66F241797
:103C2900F582742C3EF583E493FF051E051E051EDF
:013C39002268
:03401A00023F7BE7
:0F3F7B00EF64014E7002C2907F027E00023CF79D
:103F0C00EF64014E7011D2907F0CFE1237B4C29048
:083F1C007F047E001237B4227D
:103F2400EF64014E7011D2907F04FE1237B4C29038
:083F34007F0C7E001237B4225D
:103B9B00EF64014E7034D2907F01FE1237B4C290A5
:103BAB007F087E001237B4758402E5885440C41335
:103BBB00135403FFBF010A7F087E001237B47F0145
:0B3BCB00227F087E001237B47F00222A
:0635DE008F4F8C508D514F
:1035E400E49001D0F0A3F0A3F09001D1F0A374070C
:1035F400F09001D1E0FEA3E0FFC3EE64809480402C
:103604003AE54FA807088002C313D8FC540190017F
:10361400D0F07009AF51AE50123F24800E9001D00B
:10362400E0B40117AF51AE50123F0C9001D2E02428
:0B363400FFF09001D1E034FFF080B601
:01363F002268
:043995008E598F5A5E
:10399900E49001D2F0A3F0A3F07407F0AF5AAE5946
:1039A900123B9B9001D2EFF0A3E0FFA3E0FE900150
:1039B900D2E0FDA806088002C333D8FC4F9001D39A
:1039C900F0A3E014F0E0C36480948050CF9001D359
:0239D900E0FF0D
:0139DB0022C9
:0C3FDC00245265763A203931312024004F
:101D2000E47880F6123F9975840F75E104E4F5E2DA
:101D300075E344F58475B7B075840F758A83F5979C
:101D4000438901758D01758F01758E04F541F5424A
:101D50000542E54270020541640F454170F2438936
:101D600002E4F541F542AE41AF42E4FCFD7B507A1E
:101D7000C3F9F8D312066C400FE58920E40A054246
:101D8000E54270E2054180DE759702123E79E4F586
:101D900041F5427D01AF42123DC70542E542700266
:101DA0000541C39401E541940040E8E4F520C232C6
:101DB000C230C236C235C2347880F6C28508F678A1
:101DC0009DF618F678A2F6F541F54274342542F5F1
:101DD00082E43401F583E4F00542E54270020541F6
:101DE0006440454170E5E4F541F54274742542F5DF
:101DF00082E43401F583E4F00542E54270020541D6
:101E00006440454170E5E4F584E5EF20E10CE5EF41
:101E10005408D394004003D38001C392037D08E4A7
:101E2000FF123D4CE478A1F6789AF6AB79AA7AA92C
:101E30007B789AE6FF75F010A4F58285F083120492
:101E400009FE78A126F6EE6005789A0680DDEFD3CC
:101E500094004030AB79AA7AA97B90000D1207A0BC
:101E60001203F0FF74551204361203F06455600239
:101E7000D23474AA1204361203F064AA6002D23477
:101E8000EF120436E4F584E5EF5402D394004004E5
:101E90007F018002E4FF122EF88F40E54020E035FC
:101EA000C23174FFF508F509F50AF50B7E007F10C5
:101EB0007D007B007A00790E1207F67546FF7547A4
:101EC000197548FC754900754A107B007A00790E37
:101ED00012380A8002D231903FE3E493FF3395E059
:101EE000FEEF24D0FFEE34FFFE7C007D6412046A16
:101EF000AA06AB07903FE2E493FF3395E0FEEF24A0
:101F0000D0FFEE34FFFE7C037DE812046AEF2BFB6A
:101F1000EE3AFA903FE4E493FF3395E0FEEF24D0ED
:101F2000FFEE34FFFE7C007D0A12046AEF2BFFEE09
:101F30003AFEA3E493FD3395E0FCED24D0FDEC34B0
:101F4000FFCD2FF50DED3EF50CE54030E103021F0E
:101F5000FFE4F541F542E542C4F8540FC868FFE5D7
:101F600041C454F048FEAB79AA7AA97B8F82F583ED
:101F70001204097003021FF6E92FF9EA3EFA9000F5
:101F80000412040920E264E4F53FE53FC3788E962D
:101F90005059E542C4F8540FC868FFE541C454F0F5
:101FA00048AB79AA7AA97B8F82F583120409FF7E58
:101FB00000C006C0077D00E542C4F8540FC868FFA2
:101FC000E541C454F048FEE92FF9EA3EFA90000DCD
:101FD0001207A078A1E6853FF0A429F9EA35F0FAC6
:101FE000D007D0061207F6053F809F0542E54270F4
:101FF000020541021F567F01122028C2338007E4E8
:10200000FF122028D233E4F541F5427A007B967D19
:1020100003AF421234920542E54270020541C39477
:0720200001E541940040E4DA
:012027002296
:0540040078A2E6FF2296
:030023000227DAD7
:1027DA00C0E0C0F0C083C082C0D075D000C000C0C5
:1027EA0001C002C003C004C005C006C00730993E3C
:1027FA00C299789D06799DE77881667015F6789D6D
:01280A00F6D7
:0D280B0075280A75291300D529FCD528F67B
:04281800C285801CD9
:0D281C0075281475291300D529FCD528F660
:10282900789DE62474F582E43401F583E0F5992076
:1028390098030228D2209A08203205C2980228CE8D
:10284900C29A789CE6062434F582E43401F583E5DE
:1028590099F0C298E6FFB40112900134E0FE7003CA
:10286900F68066EE5407240278A3F6EFB4020D78D9
:10287900A3E6B40907900135E02403F6789CE6FF46
:10288900B4400476008042EFC378A396403B789C1D
:10289900E624FFFDE434FFFC7B017A01793412332D
:1028A9000D789CE62433F582E43401F583E06F600A
:0528B90004760080140C
:0D28BE0075281475291300D529FCD528F6BE
:1028CB0012121E789C7600D007D006D005D004D00B
:1028DB0003D002D001D000D0D0D082D083D0F0D0A2
:0228EB00E032D9
:10341700900135E075F010A4AB79257BF9E57A3595
:10342700F0FA90000D1207A078A2E6FF18E68FF0D9
:10343700A4252CF582E435F0F583120409FF7B00FF
:043447007A00792A64
:10344B008F398B3A8A3B893CE4F584EA494B601C03
:10345B00AB3AAA3BA93C1203F0FFE539FD7C001205
:0C346B000003AB3AAA3BA93CEF12043668
:0D347700753D14753E1300D53EFCD53DF6A5
:0E3484008539997F01123D753099FDC299225C
:093ED500E4F5847881EFF6D28552
:0D3EDE00753914753A1300D53AFCD539F644
:073EEB00900174E0F599223B
:10394D00C9EFC9E964017028EDC39B4034788EE658
:10395D00FFEB2FFFE433FEEDC39FEE6480F8748020
:10396D0098501ED232C3ED9B78A2F6789E76012236
:10397D00B90214ED6B700AD23278A2F6789E7602F7
:08398D0022C232E4789EF6220A
:10364000C9EFC9BAFF15BBFF12ED6B7002EC6A70CF
:1036500049D23278A2F6789EE9F622E96401702513
:10366000C3ED9BEC9A401C788EE62BFFE43AFEC338
:10367000ED9FEC9E500DD232C3ED9B78A2F6789E62
:103680007601228015B90218ED6B7002EC6A700A9F
:10369000D23278A2F6789E760222C232E4789EF682
:0136A0002207
:10121E00900134E0FF54F8F52BE4F584EF1207D07B
:10122E00126B0912770A12871012901112A0121265
:10123E00B41912C91A12EB2012F42813932914951B
:10124E003314C73714F639151041151B491525509F
:10125E00156D61145F701565980000159D90013530
:10126E00E0FDE509FB7F018023900135E0FCA3E062
:10127E00FDAB09AA087F018027D232789E76030241
:10128E00159D900135E0FDE50BFB7F0212394D02F5
:10129E00159D900135E0FCA3E0FDAB0BAA0A7F0281
:1012AE0012364002159D900135E0FDE509FB7F01E8
:1012BE0012394D20320302159D8017900135E0FC46
:1012CE00A3E0FDAB09AA087F0112364020320302CB
:1012DE00159D9001747478F07F0102159AE4F584DF
:1012EE0075EF1202159DC2ACE4F52AD285FB7A0089
:1012FE00792A7F7F12344B7B007A00792A7F18126D
:10130E00344B7B007A00792A7F0512344B789AE6AB
:10131E001234447B007A00792AAF0812344B7B00DA
:10132E007A00792AAF0912344B7B007A00792AAF02
:10133E000A12344B7B007A00792AAF0B12344B7BA6
:10134E00007A00792AAF0C12344B7B007A00792A8E
:10135E00AF0D12344BE4F52C740E252CF8E6123436
:10136E0044052CE52CC3941040EE7B007A007900E6
:05137E00AF2A12344B00
:0D13830075370A75381300D538FCD537F6DC
:1013900002144A900135E0FFC3789A964003021484
:1013A00051EF75F010A4257BF9E57A35F085793495
:1013B000F5358936C2ACE4F52AD285FB7A00792A64
:1013C0007F7F12344B7B007A00792A7F0D12344BD9
:1013D000AB34AA35A9361203F0123444AB34AA3523
:1013E000A936900001123441AB34AA35A9369000D9
:1013F00002123441AB34AA35A936900003123441AD
:10140000AB34AA35A936900004123441E4F52CAB74
:1014100034E5362405F9E43535FA7E00E9252CF962
:10142000EE3AFA1203F0123444052CE52CC394086A
:0D14300040DD7B007A007900AF2A12344BBA
:0D143D0075370A75381300D538FCD537F621
:10144A00C285D2AC02159D9001747478F0E4A3F0C1
:10145A007F0202159A123FC2788F120731900174E7
:10146A00747CF0788FE6A3F008E6A3F008E6A3F010
:10147A0008E6A3F07C007D057B017A0179741233BA
:10148A000D900179EFF07F0602159A900135E0FF81
:10149A00B4010BA3E0F508A3E0F509021565EFB462
:1014AA000209900136E0F508021565900135E0B4AD
:1014BA000308A3E0F50AA3E0F50B021565E4F52C91
:1014CA00900135E0FFE52CC39F501C7436252CF59E
:1014DA0082E43401F583E0FF740E252CF8C6EFC6CA
:1014EA00052CE52CB410D9E4F51D806F7A007B3207
:1014FA007D0178A2E6FF123492900135E0FDE4FF07
:10150A00123D4C02159D900135E024FF920202150E
:10151A009D900135E024FF9201807878A2E660056B
:10152A00752E02800B203505752E038003752E015A
:10153A009001747479F0A3E52EF07C007D027B01A2
:10154A007A01797412330D900176EFF07F03123E1F
:10155A00D5E52E6401703CD2368002D2307880768E
:10156A00F180307A007B327D017F00123492900143
:10157A00747479F0900135E0900175F07C007D0279
:10158A007B017A01797412330D900176EFF07F03B3
:10159A00123ED5E52B64A060030217AC900134E03B
:1015AA0064A1600302169CA3E0C3789A96400302E2
:1015BA001691AB79AA7AA97BE0FF75F010A4F5829F
:1015CA0085F083120409F52EEF75F010A429F9EAC3
:1015DA0035F0FA90000412040930E237900135E040
:1015EA001240098F2E900174747FF0A3E52EF02427
:1015FA0002FDE433FC7B017A01797412330D7476AF
:10160A00252EF582E43401F583EFF0E52E2403FF5D
:10161A000217A9900135E0FF124009C2ACE4F52A8D
:10162A00D285E52ED39406402B7B007A00792A7F57
:10163A007F12344B7B007A00792AAF2E12344BE4A6
:10164A00F52CE52CC3952E5007123417052C80F281
:10165A00052E8018E52E2478123444E4F52CE52C66
:10166A00C3952E5007123417052C80F27B007A009E
:07167A007900AF2A12344B86
:0D16810075370A75381300D538FCD537F6DB
:10168E0002179B9001747478F07F010217A99001E4
:10169E0034E064A260030217AC789AE6FFA3E0FE82
:1016AE00C39F40030217A1A3E0FDC39F400302178F
:1016BE00A1EE9D40030217A1900135E0F52CE4F553
:1016CE0032F533900136E0FFE52CD39F5026AF2C38
:1016DE00124009AB79AA7AA97B75F010E52CA4F516
:1016EE008285F0831204092533F533E43532F53261
:1016FE00052C80CFC2ACE4F52AD285FB7A00792A7C
:10170E007F7F12344BC3E5339480E5329400500250
:10171E008007E5324480123444AF331234459001D1
:10172E0035E0F52C900136E0FFE52CD39F5046E4D2
:10173E00F52DAB79AA7AA97B75F010E52CA4F5826C
:10174E0085F083120409FFE52DC39F5024E52C7507
:10175E00F010A429F9EA35F0FA90000D1207A078DE
:10176E00A2E6FF18E68FF0A4252D12343A052D803F
:10177E00C1052C80AF7B007A007900AF2A12344B62
:0D178E0075370A75381300D538FCD537F6CD
:10179B00C285D2AC800B9001747478F07F01123E3D
:1017AB00D5E52B6458704DFA7B327D0178A2E6FFAC
:1017BB00123492753C01753D01753E757B017A01C2
:1017CB007935123CCA8F2EE52E2478900174F0EFF8
:1017DB002401FDE433FC7B017A01797412330D741F
:1017EB0075252EF582E43401F583EFF0E52E240206
:1017FB00FF123ED5E52B64806009E52B64886003FE
:10180B000219BB789EE6B4010F7A007B327D01781A
:10181B00A2E6FF123492801AE4F52CE52CC3788EE5
:10182B0096500F7A007B327D01AF2C123492052C2F
:10183B0080E9900134E05407F52EB4070A752D01A9
:10184B00A3E0F52EA38006E4F52D900135E0F52FEE
:10185B00152EE52FC3789A96400302198FAB79AA00
:10186B007AA97B75F010E52FA4F58285F08312041D
:10187B0009FFE52ED39F40028F2E789EE6B4010917
:10188B0078A2E6F531F5308009E4F530788EE61470
:10189B00F53178A2A63078A2E6D395314003021930
:1018AB0083E4F52CE52CC3952E4003021978E52F24
:1018BB0075F010A4AB79257BF9E57A35F0FA900039
:1018CB000412040930E20302197390000112040997
:1018DB0064387041E52ED394044011E52D252C245A
:1018EB0036F582E43401F583E0FD805E789CE6C337
:1018FB00952CFFE49400FE74322FF58274013EF5B3
:10190B0083E0FDE52F75F010A4AB79257BF9E57A23
:10191B0035F0FA8035AB79AA7AA97B75F010E52FF3
:10192B00A4F58285F083120409FFC3789CE69F25FA
:10193B002C252D2433F582E43401F583E0FDE52FCE
:10194B0075F010A429F9EA35F0FA90000D1207A0F2
:10195B0078A2E6FF18E68FF0A4FFE52C2FF582E4C2
:10196B0035F0F583ED120448052C0218AFAF2F129A
:10197B003BD678A2060218A178A2A630E52B648884
:10198B00702E8010E52FB4FF27900136E0F520E58F
:10199B002BB4881C9001747478F0789CE62433F592
:1019AB0082E43401F583E0900175F07F02123ED59D
:0119BB002209
:10D000007880E664F1600302D60CE4F54BF54C78C9
:04D0100081E6601F36
:0DD0140075510A75521300D552FCD551F626
:10D02100054CE54C7002054B64107004E54B642718
:10D0310070DCC2AF7584015398FC75FFDE75FFADDE
:10D04100E4F547F546E4F58420982EE4F54BF54CDC
:0ED05100209822C3E54C9488E54B94135017A9
:0DD05F0075510A75521300D552FCD551F6DB
:10D06C00054CE54C70DF054B80DBB28480CF859995
:10D07C0046C298E546641A600302D14CF54BF54C58
:0ED08C00209822C3E54C9488E54B941350176E
:0DD09A0075510A75521300D552FCD551F6A0
:10D0A700054CE54C70DF054B80DB3098928599473E
:10D0B700C298E4F54BF54C209822C3E54C9488E5DB
:05D0C7004B941350170B
:0DD0CC0075510A75521300D552FCD551F66E
:10D0D900054CE54C70DF054B80DB20980302D046F8
:10D0E900859947C298E4F54BF54C209822C3E54C45
:08D0F9009488E54B94135017D5
:0DD1010075510A75521300D552FCD551F638
:10D10E00054CE54C70DF054B80DB20980302D046C2
:09D11E00859947C298D285C29997
:0DD1270075511475521300D552FCD551F608
:06D134007599783099FDA9
:0DD13A0075510A75521300D552FCD551F6FF
:10D14700C28502D5FEE5466450600302D1DCF54B8B
:10D15700F54C209822C3E54C9488E54B941350175F
:0DD1670075510A75521300D552FCD551F6D2
:10D17400054CE54C70DF054B80DB20980302D0465C
:09D18400859947C298D285C29931
:0DD18D0075511475521300D552FCD551F6A2
:08D19A007599793099FDC299E5
:0DD1A20075511475521300D552FCD551F68D
:08D1AF007599013099FDC29948
:0DD1B70075511475521300D552FCD551F678
:06D1C400E4F5993099FD2D
:0DD1CA0075510A75521300D552FCD551F66F
:0FD1D700C28502D5FEE5466401703ED285C2993D
:0DD1E60075511475521300D552FCD551F649
:08D1F3007599783099FDC2998D
:0DD1FB0075511475521300D552FCD551F634
:06D20800E4F5993099FDE8
:0DD20E0075510A75521300D552FCD551F62A
:10D21B00C28502D5FEE5466402600302D2E2F54BFD
:10D22B00F54C209822C3E54C9488E54B941350178A
:0DD23B0075510A75521300D552FCD551F6FD
:10D24800054CE54C70DF054B80DB20980302D04687
:10D25800859947C298E4F548E54713B39284E547B2
:10D2680025E0FEC3E49400EE94D0502AE5477F0001
:10D2780025E0FEC394E0501EE54720E01FE4F58456
:10D2880043B701758F038E4D8F4E8F828E83F05377
:10D29800B7F0F58F80037548FFE4F584D285C2990D
:0DD2A80075511475521300D552FCD551F686
:08D2B5007599783099FDC299CA
:0DD2BD0075511475521300D552FCD551F671
:06D2CA008548993099FD32
:0DD2D00075510A75521300D552FCD551F668
:10D2DD00C28502D5FEE5466403600302D42DF54BED
:10D2ED00F54C209822C3E54C9488E54B94135017C8
:0DD2FD0075510A75521300D552FCD551F63B
:10D30A00054CE54C70DF054B80DB20980302D046C4
:10D31A00859947C298E4F54BF54C209822C3E54C11
:08D32A009488E54B94135017A1
:0DD3320075510A75521300D552FCD551F605
:10D33F00054CE54C70DF054B80DB20980302D0468F
:10D34F00859949C298E547139284E54725E0FEC3C6
:10D35F00E49400EE94D0400302D046E5477D0025CB
:10D36F00E0FCC394E0400302D046E4F58443B701E8
:10D37F00758F01E54975F020A42DFFE5F03CF54DC3
:10D38F008F4EE4F584F54AE54AC394205048E4F5FE
:10D39F004BF54C209822C3E54C9488E54B941350E1
:01D3AF001766
:0DD3B00075510A75521300D552FCD551F687
:10D3BD00054CE54C70DF054B80DB20980302D04611
:10D3CD00054EE54EAE4D7002054D14F5828E83E58A
:10D3DD0099F0C298054A80B1E4F58453B7F0F58F02
:06D3ED00F584D285C2990F
:0DD3F30075511475521300D552FCD551F63A
:08D400007599783099FDC2997D
:0DD4080075511475521300D552FCD551F624
:06D41500E4F5993099FDD9
:0DD41B0075510A75521300D552FCD551F61B
:10D42800C28502D5FEE5466404600302D4DDF54BEF
:10D43800F54C209822C3E54C9488E54B941350177B
:0DD4480075510A75521300D552FCD551F6EE
:10D45500054CE54C70DF054B80DB20980302D04678
:10D46500859947C298E54725E0F54F755000E4F5E5
:10D4750048F54BF54C0550E550AE4F7002054F147D
:10D48500F5828E83E4932548F548054CE54C7002FA
:0ED49500054B7004E54B640270DBD285C29932
:0DD4A30075511475521300D552FCD551F689
:08D4B0007599783099FDC299CD
:0DD4B80075511475521300D552FCD551F674
:06D4C5008548993099FD35
:0DD4CB0075510A75521300D552FCD551F66B
:10D4D800C28502D5FEE5466405600302D5F3F54B27
:10D4E800F54C209822C3E54C9488E54B94135017CB
:0DD4F80075510A75521300D552FCD551F63E
:10D50500054CE54C70DF054B80DB20980302D046C7
:10D51500859947C298E4F54BF54C209822C3E54C14
:08D525009488E54B94135017A4
:0DD52D0075510A75521300D552FCD551F608
:10D53A00054CE54C70DF054B80DB20980302D04692
:09D54A00859949C298D285C29965
:0DD5530075511475521300D552FCD551F6D8
:08D5600075997F3099FDC29915
:0DD5680075511475521300D552FCD551F6C3
:10D575007599203099FDE54725E0FCE54975F020D2
:10D58500A42400FFE5F03CF54F8F50E4F548F54A3B
:02D59500C29939
:0DD5970075511475521300D552FCD551F694
:10D5A400855082854F83E493F5993099FD0550E5C4
:10D5B40050AE4F7002054F14F5828E83E4932548D4
:0BD5C400F548054AE54AB420C8C299AA
:0DD5CF0075511475521300D552FCD551F65C
:06D5DC008548993099FD1D
:0DD5E20075510A75521300D552FCD551F653
:10D5EF00C285800BE546B40606E4F58475EF12E5B7
:0DD5FF00466407600302D0467880F6D2AF84
:01D60C0022FB
:10350B007F00123D7520310B7A007B327D017F00ED
:10351B0012349230340B7A007B1E7D017F00123403
:10352B00923030173035147A007B327D0178A2E669
:10353B00FF123492C230123133D23120330C30357A
:10354B0009788076F1123133D233303608303505B5
:10355B00C23612D000203512123FB5E47B2C7A0113
:0B356B00F9F8C31206825002D235228C
:0B3FE800121D2012350B12093C80F85E
:102B0D00005EBCE2613FDD83C29C7E20A3FD1F41C0
:102B1D009DC3217FFCA2401E5F01E3BD3E6082DCB0
:102B2D00237D9FC1421CFEA0E1BF5D0380DE3C62A0
:102B3D00BEE0025CDF81633D7C22C09E1D43A1FF90
:102B4D004618FAA427799BC584DA3866E5BB590780
:102B5D00DB856739BAE406581947A5FB7826C49A70
:102B6D00653BD987045AB8E6A7F91B45C6987A2460
:102B7D00F8A6441A99C7257B3A6486D85B05E7B950
:102B8D008CD2306EEDB3510F4E10F2AC2F7193CD40
:102B9D00114FADF3702ECC92D38D6F31B2EC0E5030
:102BAD00AFF1134DCE90722C6D33D18F0C52B0EE20
:102BBD00326C8ED0530DEFB1F0AE4C1291CF2D7310
:102BCD00CA947628ABF517490856B4EA6937D58B00
:102BDD005709EBB536688AD495CB2977F4AA4816F0
:102BED00E9B7550B88D6346A2B7597C94A14F6A8E0
:102BFD00742AC896154BA9F7B6E80A54D7896B35D0
:0A2C0D00000000002B6096CBDDEE06
:032FC100016C0A96
:10330D00151E151EA81EECF608EDF6151E151E153C
:10331D001EA81EC6EBC608C6EAC608C6E9C6E51E47
:04332D0024FCF51E69
:10333100F80808E4F6A81EF608F6E51E2407F9A821
:103341001EE6FE08E6FFC3099719E76480F8EE64FC
:1033510080985037E51E2404F8CBE6CB08E6FA083E
:10336100E6F98F828E83120409A81E080866FFE51C
:103371001E2403F8EFF6E6902B0D93A81E0808F61D
:10338100A81E0806E61870B20680AFA81E0808E657
:01339100FF3C
:07339200E51E2409F51E22CF
:07000300ED6F902B0D93FF40
:01000A0022D3
:103D4C00EF7023F5847598D0F584759115F584750D
:103D5C00C90875CBFFED902C0C93F5CA75C804E41B
:083D6C00F584D2ACC2BCD2AF59
:013D7400222C
:103A2100E4F572F571F570F56FF576F575F574F5E8
:103A310073756B64FFEF25E025E024A4F8E4F6EF4D
:103A410025E025E024A5F8E4F6EF25E025E024A60D
:103A5100F8E4F6EF25E025E024A7F8E4F60FBF012E
:013A6100D490
:013A62002241
:103E7900D2AFD2A9C2BBE4F584E589540F4401F558
:0F3E890089758E02758CAFE4F58AD28C023A21CE
:0231D600151EC4
:1031D800A81EE4F6A81EE6FFC3940140030232705D
:1031E800EF25E025E024A7F8E6FFD394004052A895
:1031F8001EE625E025E024A5F8E67045EF30E01549
:10320800A81EE6FF25E025E024A7F8E6D3940140B0
:10321800047D0080067D01A81EE6FF123A63A81E01
:10322800E6FF25E025E024A7F816E66014EF25E080
:1032380025E024A6F8E6FEEF25E025E024A5F8EE33
:10324800F6A81EE625E025E024A5F8E6600116A804
:103258001EE6FF25E025E024A7F8E670057D0112AB
:083268003A63A81E060231DCE6
:03327000051E2216
:03000B0002339924
:10339900C0E0C0F0C083C082C0D0E8C0E0E9C0E0AE
:1033A900EAC0E0EBC0E0ECC0E0EDC0E0EEC0E0EF69
:1033B900C0E0758CAFE5722401F572E43571F571E1
:1033C900E43570F570E4356FF56FD56B18E5762443
:1033D90001F576E43575F575E43574F574E43573FE
:1033E900F573756B641231D6123E59D0E0FFD0E007
:1033F900FED0E0FDD0E0FCD0E0FBD0E0FAD0E0F96F
:0E340900D0E0F8D0D0D082D083D0F0D0E03226
:103DC700151EA81EEDF6151EA81EEFF6A81EE6FF87
:103DD700C39401500D08E6FEEF25E025E024A4F882
:073DE700EEF6051E051E2289
:10349200151E151EA81EEAF608EBF6151EA81EED4F
:1034A200F6151EA81EEFF6A81EE6FFC394015052A1
:1034B200EF25E025E024A7F8E67047A81EE6FB25E5
:1034C200E025E024A5F8E67039A81E08E625E00408
:1034D200FFA81EE6FA25E025E024A7F8EFF6A81ECD
:1034E2000808E6FE08E6FF7C007D0A12047CEA2555
:1034F200E025E024A6F8EFF6EB25E025E024A5F888
:09350200E4F6E51E2404F51E2286
:103A6300151EA81EEDF6151EA81EEFF6A81EE6FFEE
:103A7300C39401501CEF25E025E024A4F8E660116F
:103A8300A81E08E670047F0180027F00A81E08EFCD
:103A9300F6A81EE6700608E624FF9284051E051E9E
:013AA3002200
:0C3FB500C2AFAF72AE71AD70AC6FD2AF96
:013FC10022DD
:0C3FC200C2AFAF76AE75AD74AC73D2AF79
:013FCE0022D0
:103D7500151EA81EEFF6A81EE67004F56DF56E304B
:103D85003714E56C75F064A4FFC3E56E9FE56D958A
:093D9500F0500375FFA5051E2284
:103EB700D237E4F56DF56EEF6004F56C8003756C31
:0E3EC7000A75FF0775FFA5E4F58475EF062266
:0E3F9900C237E4F56DF56E75FFDE75FFAD22E3
:103E5900056EE56E7002056D303714E56C75F0641A
:103E6900A4FFC3E56E9FE56D95F0500375FFA5228C
:043CF7008E438F4425
:103CFB00E4F545F546C3E5469544E5459543501631
:103D0B007FE87E031237B47F01123D750546E54609
:063D1B0070E3054580DFA6
:013D2100227F
:0437B4008E678F6825
:1037B800D3E56894FAE5679400500EEFD39400407F
:1037C800407E1600DEFD1F80F285676985686AD332
:1037D800E56A94FAE569940040157FFA7E0012378D
:1037E800B47406256AF56A74FF3569F56980E0D313
:1037F800E5689400E56794004007AF6AAE69123740
:01380800B40B
:01380900229C
:10357600754E00754F007550487B007A0079467D80
:013586000242
:083587008B4A8A4B894C8D4DE3
:10358F007F01123D75AB4EAA4FA9501204B2240011
:10359F00FFE5F034E0FE854A51854B52854C53E4EC
:1035AF00FDEDC3954D501BEF2DF582E43EF583E401
:1035BF0093AB51AA52A9538D827583001204480D03
:0F35CF0080DFAB4EAA4FA950E4854DF00204DD1A
:10307B0075481275493475500075510075524A7B6D
:07308B00007A0079487D0284
:083092008B4C8A4D894E8D4FD5
:10309A007880E664F16003023132123F99C2AFE4EC
:1030AA00F58475EF0643B701758F01AB50AA51A994
:1030BA00521204B22400FFE5F034E07893F608EFE8
:1030CA00F6AA4DA94E7897A64C08C6EAC608C6E9DC
:1030DA00C6E47895F67895E6C3954F50327897CB43
:1030EA00E6CB080806E618CAE6CA70010614F91201
:1030FA0003F07896F6E6FF78930806E618CCE6CC55
:10310A0070010614F5828C83EFF078950680C6E488
:10311A00F58F53B7F0AB50AA51A952854FF012045C
:08312A00DDD2AFE4FF123EB755
:01313200227A
:10385C007880E664F17049C2AF123F99E4F5847543
:10386C00EF0643B701758F03789476E008F67893EA
:10387C00F67894E6FE08E6F5828E83E4F07F01127A
:10388C003D757895E426F618740236F61806E6C3EC
:10389C00940840DDE4F58F53B7F0D2AFFF123EB77A
:0138AC0022F9
:1031330012385CE4F54AF54BF55075510075524A67
:10314300FB7A0079087D1612309212307BE4F54742
:10315300E547C3788E965073E4F546AB79AA7AA90E
:103163007B75F010E546A4F58285F08312040960AF
:1031730056E54675F010A429F9EA35F0FA90000DEA
:103183001207A078A1E68547F0A429F9EA35F0FAF9
:10319300EBC0E0EAC0E0E9C0E0AB79AA7AA97B75AD
:1031A300F010E546A4F58285F083120409FD7550FD
:1031B3000075510075524AD0E0F9D0E0FAD0E0FB37
:1031C300123092054680940547808512307BE4785F
:0231D30080F684
:0131D50022D7
:032EF800CCEFCC50
:102EFB00E4F548F549F545F54E754F00755048FB1F
:102F0B007A0079087D16123587123576E5476434D9
:102F1B007004E54664127003434501EC7003022F05
:102F2B00BBE4F544E544C3788E965073E4F543ABAC
:102F3B0079AA7AA97B75F010E543A4F58285F08315
:102F4B001204096056E54375F010A429F9EA35F02F
:102F5B00FA90000D1207A078A1E68544F0A429F998
:102F6B00EA35F0FAEBC0E0EAC0E0E9C0E0AB79AAE1
:102F7B007AA97B75F010E543A4F58285F0831204E2
:102F8B0009FD754E00754F00755048D0E0F9D0E043
:102F9B00FAD0E0FB123587054380940544808512F7
:102FAB003576E54764347004E5466412700580009D
:052FBB00434502AF4593
:012FC00022EE
:1019BC004093AE144048B4393ECCCCCD4048B439F9
:1019CC003ECCCCCD3ECCCCCD3ECCCCCD3ECCCCCD7F
:1019DC0000000000000000000000000000000000FB
:1019EC0000000000000000000000000000000000EB
:1019FC004C504200043400000053657269616C4E17
:101A0C000001002502340000004572726F72000064
:101A1C00000100290134000000436F6E74726F6C7A
:101A2C000001002B013400000053746174757300C5
:101A3C000001002C013400000065657061676500D1
:101A4C000001002D0134000000537061726500002C
:101A5C000001002E023400000044656C6179000026
:101A6C000001002F041800000144324173686674B1
:101A7C00000100310418000001704456736300002B
:101A8C000001003504060000017044497363000036
:101A9C0000010039041800000170445636000000A3
:101AAC000001003D040600000170444936000000AE
:101ABC00000100410406000001704449350000009B
:101ACC000001004504060000017044493333000056
:101ADC00000100490406000001704449313800003F
:101AEC000001004D0408000001754354656D700041
:101AFC00000100510408000001496E7454656D70BA
:101B0C0000010055040800000154656D7035380063
:101B1C0000010059040800000154656D7033330056
:101B2C000001005D040800000153485474656D7099
:101B3C0000010061045A0000015248756D6964008F
:101B4C000001006502340000007264616330000023
:101B5C00000100690234000000726461633400000B
:101B6C000001006B023400000072646163380000F5
:101B7C000001006D023400000072646163313200B8
:101B8C000001006F023400000072646163313600A2
:101B9C000001007102340000007264616332300095
:101BAC00000100730234000000726461633234007F
:101BBC000001007502340000007264616332380069
:101BCC00000100770234000000726461633332005C
:101BDC000001007902340000007264616333360046
:101BEC000001007B02340000007264616334300039
:101BFC000001007D02340000007264616334340023
:101C0C000001007F0234000000726461633438000C
:101C1C0000010081023400000072646163353200FF
:101C2C0000010083023400000072646163353600E9
:101C3C00000100850234000000726461637370005F
:101C4C000001008702340000007244324173686660
:101C5C0074010089023400000072704456736300F2
:101C6C000001008B02340000007270444973630061
:101C7C000001008D023400000072704456360000E2
:101C8C000001008F023400000072704449360000DD
:101C9C0000010091023400000072704449350000CC
:101CAC000001009302340000007270444933330089
:101CBC000001009502340000007270444931380074
:101CCC0000010097023400000072534854656D7097
:101CDC00000100990234000000725248756D69646D
:101CEC000001009B043400000165657056616C7541
:101CFC006501009D043400000065654374725365F2
:101D0C00740100A1000000000000000000000000B1
:041D1C0000000000C3
:102FC40048012C0000020004000600607800AE00F6
:102FD40000000000000000000000000000000000ED
:102FE40000000000000000000000000000000000DD
:102FF4000000000000000000000000406000003DF0
:10300400CCCCCD40B0000000000000000000000067
:103014000000000000000040C0000040B000003E7E
:103024004CCCCD40D000003FE666663DCCCCCD3FD5
:103034000000003E4CCCCD4120000042480000413D
:10304400200000424800000C82245265763A203960
:103054003933202400018E01440010000000004494
:103064000006000000004400A80000000041000425
:06307400000379FF1A00C1
:0F3F8A00C2AF90002BE525F0A3E522F0D2AF22C5
:04000E00A21D923865
:10001200C2AFD238900029E523F0A3E524F0D2AF95
:0100220022BB
:103F3C0090002BE525F0A3E522F0900029E523F075
:073F4C00A3E524F0D2AF222F
:103E38008F828E83C2AFAF46AE45AD44AC43120706
:103E48003D30380A900029E523F0A3E524F0D2AFED
:013E58002247
:0826B7008F418B428A438944E4
:1026BF009001D312074900000000E49001CBF0A372
:1026CF00F0AD45AF41123C3A9001D1EEF0A3EFF0DF
:1026DF00A3E0F8A3E0F9A3E0FAA3E0FB9001D1E0B7
:1026EF00FEA3E0FFE4FCFDEB2FFFEA3EFEED39FD1C
:1026FF00EC38FCA312073D12350B9001CCE004F02F
:10270F0070069001CBE004F0C39001CCE0940A90E6
:10271F0001CBE0940040AAE47B0AFAF9F89001D3C8
:10272F00E0FCA3E0FDA3E0FEA3E0FF1205BFAB4278
:10273F00AA43A944EE8FF0120515AB42AA43A94450
:10274F001204B2FDACF0E41203369001CD12073D36
:10275F00E4FBFA798078449001CDE0FCA3E0FDA37F
:10276F00E0FEA3E0FF120227E4FBFA792078401283
:10277F00011E9001CD12073DE5416408603EE54121
:10278F0025E025E024BCF582E43419F5831206F127
:10279F009001CDE0F8A3E0F9A3E0FAA3E0FB12016A
:1027AF001EE54125E025E024DCF582E43419F583AC
:1027BF0012070112002D9001CD12073D9001CDE0BF
:0A27CF00FCA3E0FDA3E0FEA3E0FF81
:0127D90022DD
:10375D00D28412401390002FE054034480FF123D99
:10376D00EE90002FA3E0FF123DEEC2847F647E0039
:10377D001237B4D284124013123B5E8F77123B5E28
:10378D008F78C2847F647E001237B4C2AFE5777F35
:10379D0000FE90002FF0A3EFF0E578FF90002FEEE4
:0737AD00F0A3EFF0D2AF2200
:1038FE00EF6401703A75840FD293D2A6D2A543A479
:10390E00CC9001CBF09001CBE0FEC364809490503C
:10391E001BEEFD3395E0FC74142DF58274003CF51E
:10392E00837401F09001CBE004F080D9D20B22EF2A
:0E393E00700C75840FC293C2A6C2A553A433A9
:01394C002258
:10202800E49001B5F0A3F0A3F0A3F0A3F0EF600BE8
:102038001240049001B6E4F0A3EFF0E49001B4F08C
:102048009001B4E0FFC39404501A74882FF9C3E7D1
:10205800648094B05006E02488F876309001B4E0AB
:1020680004F080DC7889E6FF3395E0FEEF24D0FFAA
:10207800EE34FFFE7C007D6412046AAA06AB077882
:1020880088E6FF3395E0FEEF24D0FFEE34FFFE7CB8
:10209800037DE812046AEF2BFBEE3AFA788AE6FF32
:1020A8003395E0FEEF24D0FFEE34FFFE7C007D0A7E
:1020B80012046AEF2BFFEE3AFE788BE6FD3395E0CB
:1020C800FCED24D0FDEC34FFCD2FF50DED3EF50CE5
:1020D800750A01750BF47E007F807D007B017A0014
:1020E80079251207F6E4F522F525C20CC20B758492
:1020F8000F43A42053E3FB75840FC2A6C2A5C29365
:1021080043A50853A5BF43A6E0FF1238FE123FCFF0
:1021180075840F43A5017584024388807589037F00
:10212800017E0012401775840FD2A143A618C2A3DE
:10213800C2A475840F43A60143A604D2A243A504F2
:1021480012400E900132E0FEA3E0FF7C007DAE7BE2
:10215800047A001236A19000AEE0FCA3E0FDA3E0F3
:10216800FEA3E0FF90002512073D7E007F787D00EA
:102178007B017A0079AE1207F690012CE0FEA3E00D
:10218800FF7C007DAE7B787A001236A1C2AFE49066
:1021980001B4F09001B4E0FF25E024B6F582E43400
:1021A80000F583E0FCA3E0FDEF25E02469F582E477
:1021B8003400F583ECF0A3EDF09001B4E004F0E016
:1021C800B410D09000B4E0FFA3E090002FCFF0A3AC
:1021D800EFF0D2AF75840F43A5207F017E00124037
:1021E8002090006112074900000000900065120766
:1021F8004900000000E4900099F0A3F0A3F0A3F0D8
:1022080075840F75A7FF9001B5E5B0F0E0F4FFE421
:10221800F4FEEF25E0FFEE335401FEEF54F84405D9
:10222800FF9001B8EEF0A3EFF08E08F509E49001F5
:10223800B4F09001B4E0FF25E024B6F582E4340060
:10224800F583E0FCA3E0FDEF25E02469F582E434A2
:1022580000F583ECF0A3EDF09001B4E0FF25E02455
:10226800B6F582E43400F583A3E0FE74142FF582FA
:10227800E43400F583EEF09001B4E004F0E0B4102B
:10228800B17F01123FF37F02123FF375840F43A41D
:0D2298008043A44053A67F43A41043A640FA
:0122A5002216
:103BD600151EA81EEFF6A81EE6FFC394154007EFB4
:103BE60094255002D20BEFB4020690002BE0F52587
:103BF600A81EE6B40602D20DA81EE6B43002D20C08
:033C0600051E2276
:054009008F397F002249
:103CCA008B398A3A893B1203F0AB3CAA3DA93E12D2
:103CDA000436AB39AA3AA93B900001120409AB3C5D
:0D3CEA00AA3DA93E9000011204487F02226D
:10093C00301008300D0512375DC20D302B189000A9
:10094C002CE0F522301306C213C2A68004D213D2B7
:10095C00A6C22B123F8A30283090002CE0F522E4FE
:10096C00F523F524C216C2AFE522F0900029E52349
:10097C00F0A3E524F0D2AF7F011238FED208123F6B
:10098C00C29000A812073DC228302F1490002CE012
:10099C00F522D217E4FF1238FEC210C22F123F8A82
:1009AC0090002CE0F522201003020A66200B0302B3
:1009BC000A66E49001C1F09001C1E0FFC3941040BD
:1009CC0003020A62200923E0FE2414F582E43400B9
:1009DC00F583E0FDEE25E02469F582E43400F5832F
:1009EC00E0FAA3E06D7001EA6063EFD39407400472
:1009FC007F0280027F019001C2EFF09001C1E0BF45
:100A0C00020524F8FF8001FF9001C3EFF0FB900179
:100A1C00C1E025E02469F582E43400F583E0F54477
:100A2C00A3E0F5459001C2E0FD7F03123B2190014C
:100A3C00C1E0FF25E02469F582E43400F583A3E0EE
:100A4C00FE74142FF582E43400F583EEF09001C1AE
:100A5C00E004F00209C3C209C20B300803020CEC1B
:100A6C00123FC2900010E0F8A3E0F9A3E0FAA3E073
:100A7C00FBC3EF9BFFEE9AFEED99FDEC98FCE47B3B
:100A8C0002FAF9F8C31206824003020CEC75440218
:100A9C00E4F545F546F5477548011B8B49754A0148
:100AAC00754BB8FD7F4C12242FEF7070C21D900156
:100ABC0016E0FCA3E0FDA3E0FEA3E0FF9001B8E08C
:100ACC00F8A3E0F9A3E0FAA3E0FB1202C4402390E0
:100ADC00011AE0FCA3E0FDA3E0FEA3E0FF9001B847
:100AEC00E0F8A3E0F9A3E0FAA3E0FB1202C460046F
:100AFC004002D21C7E007F55EEC0E09001B8E0FCB5
:100B0C00A3E0FDA3E0FEA3E0F5468E458D448C43A7
:100B1C00A21C9238D0E0FE123E38800312000E75F3
:100B2C004402E4F545F546F54775480175490175EC
:100B3C004A01754BB87B017D017F4C12242FEF705D
:100B4C0070C21D90011EE0FCA3E0FDA3E0FEA3E03B
:100B5C00FF9001B8E0F8A3E0F9A3E0FAA3E0FB12E0
:100B6C0002C44023900122E0FCA3E0FDA3E0FEA31D
:100B7C00E0FF9001B8E0F8A3E0F9A3E0FAA3E0FBF2
:100B8C001202C460044002D21C7E007F59EEC0E009
:100B9C009001B8E0FCA3E0FDA3E0FEA3E0F5468ED7
:100BAC00458D448C43A21C9238D0E0FE123E388016
:100BBC000312000E754402E4F545F546F5477548F9
:100BCC0001754901754A01754BB87B017D027F4C5B
:100BDC0012242FEF7070C21D90011EE0FCA3E0FDEB
:100BEC00A3E0FEA3E0FF9001B8E0F8A3E0F9A3E0D6
:100BFC00FAA3E0FB1202C44023900122E0FCA3E024
:100C0C00FDA3E0FEA3E0FF9001B8E0F8A3E0F9A398
:100C1C00E0FAA3E0FB1202C460044002D21C7E0086
:100C2C007F5DEEC0E09001B8E0FCA3E0FDA3E0FE28
:100C3C00A3E0F5468E458D448C43A21C9238D0E03F
:100C4C00FE123E38800312000E7544017545007586
:100C5C0046AC754701754801754928754A01754BB5
:100C6C0000754C0A754D01754E00754FA5755001F8
:100C7C007551007552247553007554017B017A002F
:100C8C0079A61228ED9001C0EFF0BF014AC2AF90D7
:100C9C0000ACE0FFA3E0900099CFF0A3EFF0900040
:100CAC00A6E0FFA3E090009BCFF0A3EFF09001280B
:100CBC00E0FCA3E0FDA3E0FEA3E0FF9000651207BB
:100CCC003D90000AE0FCA3E0FDA3E0FEA3E0FF9052
:100CDC00006112073DD2AF123FC290001012073DC7
:100CEC00309603C38001D3921F20082D123FC2906F
:100CFC000006E0F8A3E0F9A3E0FAA3E0FBC3EF9B46
:100D0C00FFEE9AFEED99FDEC98FCE47B01FAF9F804
:100D1C00C31206824003020F477B017A0179BCE4BF
:100D2C00F5457F081226B79001B412073D7FF07E7F
:100D3C00A77D467CBF9001B4E0F8A3E0F9A3E0FAEC
:100D4C00A3E0FB12002DE4FBFA797A784412011E21
:100D5C007B3D7A0A793778401202279001B8120746
:100D6C003DE4FFFE7D207C419001B8E0F8A3E0F962
:100D7C00A3E0FAA3E0FB12011EE4FBFAF9783F12A0
:100D8C00002D12036FCDEFCDCCEECCEC120336E47C
:100D9C00FBFA792078411202279001B812073D9096
:100DAC000116E0FCA3E0FDA3E0FEA3E0FF9001B878
:100DBC00E0F8A3E0F9A3E0FAA3E0FB1202C440239D
:100DCC0090011AE0FCA3E0FDA3E0FEA3E0FF90017C
:100DDC00B8E0F8A3E0F9A3E0FAA3E0FB1202C460C8
:100DEC00044002D2277E007F51EEC0E09001B8E0B3
:100DFC00FCA3E0FDA3E0FEA3E0F5468E458D448CFC
:100E0C0043A2279238D0E0FE123E389001C4740100
:100E1C00F0A37400F0A37431F0753F00754089E4C1
:100E2C00F57C7B017A0179BCE4F545AF7C1226B7E1
:100E3C009001B412073DC2AF9001B4E0FCA3E0FDF9
:100E4C00A3E0FEA3E0FF9001C4E0FBA3E0FAA3E063
:100E5C00F975F004E57CA4F58285F0831206CD903B
:100E6C0001BCE0FEA3E0FF854082853F8375F00264
:100E7C00E57C120794EEF0A3EFF0D2AFE57C7003A3
:100E8C00020F3214FF74017E00C8EFC8088005C33E
:100E9C0033CE33CED8F9FFEE3395E0FDFC9001C78D
:100EAC0012073DE57C25E025E024D6F582E43400EC
:100EBC00F583E0FCA3E0FDA3E0FEA3E0FF9001B40A
:100ECC00E0F8A3E0F9A3E0FAA3E0FB1202C4402F80
:100EDC00E57C25E025E024F6F582E43400F583E09A
:100EEC00FCA3E0FDA3E0FEA3E0FF9001B4E0F8A3B7
:100EFC00E0F9A3E0FAA3E0FB1202C46012401090E8
:100F0C0001C7A3A3E0FEA3E04224EE422380179086
:100F1C0001C7E0FCA3E0FDA3E0FEA3E0FF12065135
:100F2C00EF5224EE5223057CE57CC3940850030257
:100F3C000E2E123FC290000612073D123FC29000C7
:100F4C00A8E0F8A3E0F9A3E0FAA3E0FBC3EF9BFF52
:100F5C00EE9AFEED99FDEC98FCE47B01FAF9F8C3EE
:100F6C00120682502B301017E5235486FEE52454CC
:100F7C00854E600BC210E4FF1238FED21680113081
:100F8C00080EC208C217C216D210D209D20BD20D4B
:100F9C00123F3C200C030210819000A1E0FCE4FF06
:100FAC00FEFDEC543CFC70030210719000A1E0FCBF
:100FBC00A3E0FDA3E0FEA3E0FFC3EF940A748094CA
:100FCC008050030210619000A1A3A3A3E4FEFDFCDA
:100FDC007B04FAF9F81205347B0174AE2FF9740016
:100FEC003EFAEB3D900000F0A3EAF0A3E9F090008C
:100FFC00A1A3E0FDED5422FDED601E90009DE0FCF0
:10100C00A3E0FDA3E0FEA3E0FF900000E0FBA3E063
:10101C00FAA3E0F91206B3805A9000A1A3E0FDE414
:10102C00FFFEED5411FDE4FCED601AC2AF90000020
:10103C00E0FBA3E0FAA3E0F912069390009D1207DF
:10104C003DD2AF802EC2AF9000A1120749FF000025
:10105C0000D2AF801EC2AF9000A11207490000FF62
:10106C0000D2AF800EC2AF9000A112074900FF0062
:10107C0000D2AFC20C202C03021167900004E06078
:10108C000302111490002CE0F522E49001BEF0A3B1
:10109C00F09001BEE0FEA3E0FFC39410EE9400506C
:1010AC0035EF25E0FFEE33FE74692FF58274003EB8
:1010BC00F583E0FCA3E0FD74B62FF58274003EF5D9
:1010CC0083ECF0A3EDF09001BFE004F070C390014D
:1010DC00BEE004F080BB90002FE0FFA3E09000B4D2
:1010EC00CFF0A3EFF090002DE0540725E0242CF571
:1010FC0082E43401F583E0FFA3E0900126CFF0A356
:10110C00EFF0757D00757EAE90000F7401F09001CC
:10111C0026E0FEA3E0FF75460075477890000FE0CF
:10112C00F548754901754A00754B047B007A0079C6
:10113C007D122E179001C0EFF0BF011AD214E4906B
:10114C000004F0C22C90002DE0FF5407C43354E08F
:10115C00FEEF4EF08002C214123F8A202D030212C1
:10116C001790002CE0F522A3E0540725E0242CF581
:10117C0082E43401F583E0FEA3E0FF900126EEF05B
:10118C00A3EFF0757D00757EAE7B787A00AD7EACFA
:10119C007D1236A18F7CE57C64017068D215C2AFDC
:1011AC009001BEF0A3F09001BEE0FEA3E0FFC3945B
:1011BC0010EE94005035EF25E0FFEE33FE74B62FA1
:1011CC00F58274003EF583E0FCA3E0FD74692FF515
:1011DC008274003EF583ECF0A3EDF09001BFE004C7
:1011EC00F070C39001BEE004F080BB9000B4E0FF4F
:1011FC00A3E090002FCFF0A3EFF0D2AFD209D20B27
:10120C00D20D8002C215C22D123F8A7F0A7E0002C7
:02121C003CF79D
:0D3FCF00E4F58475E8C075BC8075D107224B
:103C3A00E4F584EF540FF5BBE5BC54F84DF5BCE44C
:103C4A00F5BAC2AFC2EDD2ECC2EDD2EC20ECFDD295
:103C5A00AFE5BF5403FEADBE7C00E42DFFEC3EFE93
:013C6A002237
:063FFE00E4F584D2A422C8
:103F5300E4F5847F32FE1237B4D2A37F327E00129F
:053F630037B4C2A322E7
:023D9E008F593B
:103DA000E4F584755A07AF5AE559A807088002C39D
:103DB00013D8FC1392A4123F53155AC3E55A6480DA
:063DC000948050E2C2A451
:013DC60022DA
:043C9C008E588F5956
:103CA000E4F584755A0FE559AE58A85A088005CE38
:103CB000C313CE13D8F91392A4123F53155AC3E578
:093CC0005A6480948050DFC2A414
:013CC90022D8
:103AA400E4F559F55AF55BF5847559077F327E00C4
:103AB4001237B4A2A1E433F55AAF59A8070880021B
:103AC400C333D8FC425BD2A37F327E001237B4C228
:0E3AD400A31559C3E5596480948050D0AF5BB0
:013AE20022C1
:05400E00D292023FFE0A
:0C36A1008E438F448C458D468A478B4831
:1036AD00E4F549F54AD2A0123D22BF03037F032260
:1036BD00C2927F03123D9EAF44AE43123C9CC3E5C4
:1036CD004A9548E5499547501D123AA4854682858D
:1036DD004583EFF00546E54670020545054AE54A86
:1036ED0070DC054980D87F197E001237B4D292C2A2
:0336FD00A07F01AA
:0137000022A6
:042E17008E418F4217
:102E1B007554007555201204B285F056F557E542EE
:102E2B002547E5413546C3940640037F0222D2A0D5
:102E3B00E547AE467805CEC313CE13D8F9F5538EBE
:102E4B0052E4F54CF54DD3E54D9553E54C95524079
:102E5B0003022EF3E54DAE4C7805C333CE33CED8FB
:102E6B00F92542F551E5413EF550E54DB5530EE5DB
:102E7B004CB55209755400E547541FF555123D22C8
:102E8B00C2927F02123D9EAF51AE50123C9CE4F5B4
:102E9B004EF54FC3E54F9555E54E95545029E548F2
:102EAB00B40115855782855683E0FF123D9E055769
:102EBB00E557700905568005E4FF123D9E054FE569
:102ECB004F70D0054E80CC7F197E001237B4D29252
:102EDB007F197E001237B4123FA7054DE54D6003F5
:0C2EEB00022E51054C022E51C2A07F01A6
:012EF70022B8
:103D2200C2927F197E001237B47F06123D9E7F1920
:103D32007E001237B4D2927F197E001237B4123F3E
:0A3D4200A7BF03037F03227F0122C5
:103E9800C2927F05123D9E123AA48F587F197E0068
:0E3EA8001237B4D2927F197E001237B4AF5891
:013EB60022E9
:0D3FA700123E98EF547160037F03227F01EA
:013FB40022EA
:102D170000316253C4F5A697B988DBEA7D4C1F2EB4
:102D27004372211087B6E5D4FACB98A93E0F5C6DA4
:102D370086B7E4D5427320113F0E5D6CFBCA99A894
:102D4700C5F4A796013063527C4D1E2FB889DAEB84
:102D57003D0C5F6EF9C89BAA84B5E6D74071221374
:102D67007E4F1C2DBA8BD8E9C7F6A5940332615064
:102D7700BB8AD9E87F4E1D2C02336051C6F7A49554
:102D8700F8C99AAB3C0D5E6F4170231285B4E7D644
:102D97007A4B1829BE8FDCEDC3F2A1900736655434
:102DA70039085B6AFDCC9FAE80B1E2D34475261724
:102DB700FCCD9EAF38095A6B4574271681B0E3D214
:102DC700BF8EDDEC7B4A192806376455C2F3A09104
:102DD7004776251483B2E1D0FECF9CAD3A0B5869F4
:102DE70004356657C0F1A293BD8CDFEE79481B2AE4
:102DF700C1F0A3920534675678491A2BBC8DDEEFD4
:102E070082B3E0D1467724153B0A5968FFCE9DACC3
:103C6B00151EA81EA605151E151EA81EA60608A61F
:103C7B0007A81E0808E6FFA81EE6FE08E66F241735
:103C8B00F582742D3EF583E493FF051E051E051E7C
:013C9B002206
:03401D00023E144C
:043E14008E618F62CA
:103E1800E562640145617004D294C295E4F563AF2C
:0F3E280062AE61123EF20563E563C3940940F098
:013E37002268
:103AE300EF64014E7037D2947F05FE1237B4D2953E
:103AF3007F057E001237B4C2947F057E001237B46F
:103B0300C2957F057E001237B4D2957F057E0012E1
:0E3B130037B4D2947F057E001237B4C29522DB
:103EF200EF64014E7013C2957F05FE1237B4D2955E
:0A3F02007F057E001237B4C295223D
:063701008F618C628D63F4
:10370700E5636401456270419001EB7407F0900135
:10371700EBE0FFC364809480401DE561A807088043
:1037270002C313D8FC139294AF63AE62123EF290B9
:1037370001EBE014F080D7D2947F0A7E001237B4F1
:10374700AF63AE62123EF2D2949001ECE0B4010393
:053757007F00227F014C
:01375C00224A
:0638AD008F618C628D6347
:1038B300E4F565F566E56364014562703BD2947592
:1038C3006407A294E433F566AF63AE62123EF2AFCF
:1038D30064E566A807088002C333D8FC4265156413
:1038E300C3E5646480948050D9E56124FF9294AF6A
:0A38F30063AE62123EF2D294AF659C
:0138FD0022A8
:0340200002401D3E
:0628ED008B418A42894381
:1028F300755901755A01755BD9755C01755D017573
:102903005EDA85535F8554607B017A0179D57D0159
:102913001222A69001D3EFF0755901755A01755B28
:10292300D9755C01755D01755EDA85535F85546009
:102933007B017A0179D77D021222A69001D4EFF0B0
:102943009001DAE0AB50AA51A9521204369001D992
:10295300E0AB4DAA4EA94F1204369001D5E0FFA378
:10296300E0AB44AA45A946CF8FF01205159001D7D5
:10297300E0FFA3E0AB41AA42A943CF8FF0120515B4
:102983009001D7E0FCA3E0FDE41203369001CB12E3
:10299300073D9001D5E0FCA3E0FDE412033690016E
:1029A300CF12073D755801755901755ACF7B017ACE
:1029B3000179CB12258D9001CBE0FCA3E0FDA3E0D0
:1029C300FEA3E0FFAB47AA48A9491206B39001CF83
:1029D300E0FCA3E0FDA3E0FEA3E0FFAB4AAA4BA902
:1029E3004C1206B39001D3E06004A3E0700AAF5425
:0A29F300AE53123E147F00227F0154
:0129FD0022B7
:0822A6008B558A5689578D58AB
:1022AE009001DC7401F0E49001E1F0A3F0A31207B9
:1022BE0049000000009001E712074900000000AF3E
:1022CE0060AE5F123AE3E55824FE601904702AAD41
:1022DE0060AC5F7F031237019001DCEFF09001DB01
:1022EE007403F08014AD60AC5F7F0512370190016E
:1022FE00DCEFF09001DB7405F0123FC29001E312A7
:10230E00073DE5606401455F700F20940C9001E776
:10231E0012074900000001802A123FC29001E3E03B
:10232E00F8A3E0F9A3E0FAA3E0FBC3EF9BFFEE9A5C
:10233E00FEED99FDEC98FCE47B02FAF9F8D3120657
:10234E008250BFE4FFFEFDFC9001E7E0F8A3E0F948
:10235E00A3E0FAA3E0FBC31206827002807EAD609A
:10236E00AC5FE4FF1238AD9001DFEFF0AD60AC5F13
:10237E00E4FF1238AD9001E0EFF0AD60AC5FE4FF2A
:10238E001238AD9001DDEFF01239DC9001DDEFF087
:10239E007D009001DBE0FF7E00123C6BAD079001EB
:1023AE00DFE0FF7E00123C6BAD079001E0E0FF7EA8
:1023BE0000123C6B9001DEEFF09001DDE0AB5CAA09
:1023CE005DA95E120436AB59AA5AA95BEF12043608
:1023DE009001DEE0FF9001DDE06F600AAF60AE5F5E
:1023EE00123E147F00229001DFE0FEA3E0FDEDFF20
:1023FE00A3EEF0A3EFF0E5589001E1B40106E0542E
:10240E003FF08004E0540FF09001E1E0FFA3E0AB59
:10241E0055AA56A957CF8FF01205159001DCE0FF93
:01242E00228B
:10258D008B558A568957AB58AA59A95A1206937B6F
:10259D000A7AD77923783C12011E7BD77AA3791E4C
:1025AD0078C212002DAB58AA59A95A1206B3AB55D1
:1025BD00AA56A9571206937BA27AE7793B78B612F1
:1025CD00011EAB55AA56A95712071112011EC004C0
:1025DD00C005C006C007AB55AA56A9571206937B76
:1025ED00547AE37925783D12011ED003D002D00133
:1025FD00D00012002DE4FBFA798078C012002DABCB
:10260D0055AA56A9571206B3AB55AA56A957120685
:10261D00937BAC7AC579A7783812011E7B0A7AD7DD
:10262D007923783C12002DC004C005C006C007AB4D
:10263D0058AA59A95A120693E4FBFA79C878C1121F
:10264D00002DD003D002D001D00012011EAB55AA2F
:10265D0056A95712071112002DAB55AA56A957129C
:10266D0006B3AB55AA56A957120693E4FBFA79C8DF
:10267D0078421202C4500DAB55AA56A95712077ACB
:10268D0042C80000AB55AA56A9571206937BCD7AC6
:10269D00CC79CC783D1202C4600F400DAB55AA56D3
:0A26AD00A95712077A3DCCCCCD22CC
:1039DC00E4FE7D807C07EDC394104016EF5DFBA8E0
:1039EC0004088002C313D8FC4206EDC313FD1C1C53
:1039FC0080E47D087C01EDC394014016EF5DFBA8CB
:103A0C0004088002C333D8FC4206EDC313FD0C0C32
:043A1C0080E4AF068D
:013A20002283
:0B3FF300BF0102D282BF0202D2832273
:103B21008D42C2A3E542B40102C282E542B402025F
:103B3100C283EFC454F04BFF123D9EE545C4F854D7
:103B41000FC868FFE544C454F048FE123C9CE542AE
:0D3B5100B40102D282E542B40202D2832206
:0300000002327356
:1032730075EF02E5EF30E106438701858787787FA5
:0A328300E4F6D8FD7581A70232C8F9
:04401300E4F584222A
:103F68007F327E001237B4D2877F327E001237B498
:033F7800C28722DB
:023DEE008F4103
:103DF000754207AF42E541A807088002C313D8FC0B
:103E0000139286123F681542C3E542648094805045
:033E1000E2C28685
:013E1300228C
:103B5E00E4F541F542F5437541077F327E00123799
:103B6E00B4A2A7E433F542AF41A807088002C333DD
:103B7E00D8FC4243D2877F327E001237B4C28715FB
:0C3B8E0041C3E5416480948050D0AF43F7
:013B9A002208
:100026000203DBE86480F8E933E83360110460F02A
:10003600ED33EC337009E8FCE9FDEAFEEBFF220440
:1000460060DED3EB9FEA9EE99DE8C2E78CF0C2F73B
:1000560095F0400CE8CCF8E9CDF9EACEFAEBCFFB07
:100066001203A685D0F05804700320D5B3E80470B7
:10007600075002B2D50203E592D5EC0460F7E4CC52
:10008600C0E0C398F8603B94186008400DD0E0FBD0
:100096000203BDE4FBFAC9FC8028E830E406E4C9A3
:1000A600FBE4CAFCE830E305E4C9CACBFCE8540724
:1000B6006010F8C3E913F9EA13FAEB13FBEC13FC2F
:1000C600D8F130F52FC3E49CFCEF9BFFEE9AFEEDD2
:1000D60099FDD0E0FBEF4E4D4C701222DB0302037C
:1000E600E2EC2CFCEF33FFEE33FEED33FDED30E7B3
:1000F600EB0203BDEF2BFFEE3AFEED39FDD0E0FB40
:1001060050130BBB00030203E5ED13FDEE13FEEFE8
:0801160013FFEC13FC0203BD12
:10011E00EC4D6011E8497017ED33EC3304600DE4DB
:10012E00FCFFFEFD22E933E8330470F80203DB1214
:10013E0003A658046009E4CC248150062850090215
:10014E0003E52840030203E2C0E0EB4A7044B980A5
:10015E0006D0E0FB0203D1EF4E701CBD8008EBFF12
:10016E00EAFEE9FD80EBE98DF0A4FEE5F002020760
:10017E00E9CDF9EAFEEBFFEF89F0A4FCE5F0CE89BC
:10018E00F0A42EFFE435F0CD89F0A42DFEE435F079
:10019E008067EF4E7005BD80D780C3EF8BF0A4ACA7
:1001AE00F0EE8BF0A42CFCE435F0F8EF8AF0A42CE2
:1001BE00E5F038FCE433CB8DF0A42CFCE5F03BF8F5
:1001CE00EE8AF0A42CFCE5F038F8E433CF89F0A4E5
:1001DE002CFCE5F038CF3400CE89F0A42FFFE5F0EB
:1001EE003EFEE433C98DF0A42EFEE5F039CD8AF043
:1001FE00A42FFFE5F03EFEE43DFD33D0E0FB5007BB
:10020E000BBB000F0203E5EC2CFCEF33FFEE33FECD
:06021E00ED33FD0203BDFB
:100224000203E5EC5D046005E8590470030203DB96
:100234001203A6580460F6EC4860F2EC7004FDFE6C
:10024400FF22C860DB2481C85009C39860025006AD
:100254000203E29850CAF582E9294B4A7005AB8241
:100264000203D175F0007C1A7880C3EF9BEE9AEDFF
:1002740099400DC3EF9BFFEE9AFEED99FDE842F025
:10028400DC23ACF0D0E0FFD0E0FED0E0FDAB822078
:10029400E7101BEB60BAEC2CFCEF33FFEE33FEED02
:1002A40033FD0203BDE803F830E705C0F075F00044
:1002B400EF2FFFEE33FEED33FD40B830E7C280AAE6
:1002C40074F8CC6480CCC86480C8F582046043C3ED
:1002D400EB9FF5F0EA9E42F0E99D42F0E89C45F080
:1002E40060305018E5825FFFE582F42B5582FB50A5
:1002F400210ABA001D09B90019088016E5825BFBC2
:10030400E582F42F5582FF50090EBE00050DBD0095
:10031400010CC3EB9FF5F0EA9E42F0E99D42F0E840
:0D0324009C45F06007CC4820E701B3EC22B7
:1003310075F020800E75F010800575F0087D007E47
:10034100007F003392D530D50312065EEC334010A6
:10035100EF33FFEE33FEED33FDEC33FCD5F0ED2250
:0E036100E5F0247EA2D513CC92E7CDCEFF228C
:10036F00EDD2E7CD33EC3392D524814006E4FFFE86
:10037F00FDFC22FCE4CFCECDCC24E0501174FF80E5
:10038F00EDC3CC13CCCD13CDCE13CECF13CF047082
:07039F00F030D5DE02065E1E
:1003A600E9D2E7C933E833F892D5EDD2E7CD33EC9D
:0703B60033FC5002B2D52216
:1003BD00EC30E7100FBF000C0EBE00080DBD0004A1
:1003CD000BEB6014A2D5EB13FCED92E7FD2274FF4D
:1003DD00FCFDFEFF22E480F8A2D574FF13FC7D80A6
:0303ED00E480EFBA
:10328D00023FE8E493A3F8E493A34003F68001F230
:10329D0008DFF48029E493A3F85407240CC8C33342
:1032AD00C4540F4420C8834004F456800146F6DF11
:1032BD00E4800B0102040810204080902FC1E47EB1
:1032CD00019360BCA3FF543F30E509541FFEE49306
:1032DD00A360010ECF54C025E060A840B8E493A3CD
:1032ED00FAE493A3F8E493A3C8C582C8CAC583CAF8
:1032FD00F0A3C8C582C8CAC583CADFE9DEE780BEB0
:01307A000055
:1003F000BB010689828A83E0225002E722BBFE020B
:09040000E32289828A83E493223D
:10040900BB010CE58229F582E5833AF583E02250A8
:1004190006E92582F8E622BBFE06E92582F8E222F2
:0D042900E58229F582E5833AF583E493220C
:10043600BB010689828A83F0225002F722BBFE01A5
:02044600F3229F
:10044800F8BB010DE58229F582E5833AF583E8F0EA
:10045800225006E92582C8F622BBFE05E92582C896
:02046800F2227E
:10046A00EF8DF0A4A8F0CF8CF0A428CE8DF0A42EA6
:02047A00FE2260
:10047C00C2D5EC30E709B2D5E4C39DFDE49CFCEE9B
:10048C0030E715B2D5E4C39FFFE49EFE120822C3E9
:10049C00E49DFDE49CFC800312082230D507C3E4E4
:0604AC009FFFE49EFE220A
:1004B200BB010A89828A83E0F5F0A3E02250068715
:1004C200F009E71922BBFE07E3F5F009E3192289D7
:0B04D200828A83E493F5F0740193220A
:1004DD00BB010789828A83020877500B09C5F02773
:1004ED00F7C5F01937F722BBFE0D09F8E325F0F338
:1004FD00C5F019E338F322F889828A8374019325B4
:08050D00F0C5F0F8E493382278
:10051500BB010A89828A83F0E5F0A3F0225006F731
:0F05250009A7F01922BBFE06F3E5F009F319222E
:10053400E88FF0A4CC8BF0A42CFCE98EF0A42CFC66
:100544008AF0EDA42CFCEA8EF0A4CDA8F08BF0A4E4
:100554002DCC3825F0FDE98FF0A42CCD35F0FCEB43
:100564008EF0A4FEA9F0EB8FF0A4CFC5F02ECD3908
:0F057400FEE43CFCEAA42DCE35F0FDE43CFC2275
:1005830075F008758200EF2FFFEE33FECD33CDCC2F
:1005930033CCC58233C5829BED9AEC99E5829840B2
:1005A3000CF582EE9BFEED9AFDEC99FC0FD5F0D68F
:1005B300E4CEFBE4CDFAE4CCF9A88222B800C1B9B9
:1005C3000059BA002DEC8BF084CFCECDFCE5F0CBF7
:1005D300F97818EF2FFFEE33FEED33FDEC33FCEB30
:1005E30033FB10D703994004EB99FB0FD8E5E4F9EB
:1005F300FA227818EF2FFFEE33FEED33FDEC33FCD8
:10060300C933C910D7059BE99A4007EC9BFCE99ACB
:10061300F90FD8E0E4C9FAE4CCFB2275F010EF2F10
:10062300FFEE33FEED33FDCC33CCC833C810D70710
:100633009BEC9AE899400AED9BFDEC9AFCE899F84B
:0E0643000FD5F0DAE4CDFBE4CCFAE4C8F922DE
:0D065100CFF4CFCEF4CECDF4CDCCF4CC223E
:0E065E00C3E49FFFE49EFEE49DFDE49CFC22AD
:10066C00EB9FF5F0EA9E42F0E99D42F0EC6480C805
:06067C0064809845F022A5
:10068200EB9FF5F0EA9E42F0E99D42F0E89C45F0CE
:010692002245
:10069300BB010789828A830208995005E9F8020899
:1006A3008DBBFE05E9F80208A589828A830206F15B
:1006B300BB010789828A8302073D5005E9F80207D7
:0A06C30031BBFE05E9F80208D7225A
:1006CD00BB010DE58229F582E5833AF58302073DED
:1006DD005007E92582F8020731BBFE07E92582F8AC
:0406ED000208D72206
:1006F100E493FC740193FD740293FE740393FF224F
:10070100E493F8740193F9740293FA740393FB224E
:10071100BB010789828A830208BE5005E9F80208F5
:10072100B1BBFE05E9F80208CA89828A8302070182
:0C073100ECF608EDF608EEF608EFF622F4
:0C073D00ECF0A3EDF0A3EEF0A3EFF0222F
:10074900A8828583F0D083D08212076012076012D5
:100759000760120760E473E493A3C583C5F0C583FA
:10076900C8C582C8F0A3C583C5F0C583C8C582C8FA
:01077900225D
:10077A00BB010789828A830207495005E9F8020802
:0A078A00E3BBFE05E9F80208FC22BB
:0C079400A42582F582E5F03583F5832270
:1007A000BB010DE58229F582E5833AF58302091E36
:1007B0005007E92582F8020915BBFE07E92582F8F2
:1007C000020927E58229F582E5833AF5830209309B
:1007D000D083D082F8E4937012740193700DA3A3B8
:1007E00093F8740193F5828883E4737402936860CC
:0607F000EFA3A3A380DFCC
:10380A008B438A448945E4F54BF54CE54A154AAEA3
:10381A0049700215494E6033AB46AA47A9481203BC
:10382A00F0FFAB43AA44A945054CE54CAC4B7002EA
:10383A00054B14F5828C83EF120448EF60CD7401B6
:10384A002548F548E43547F54780C0AB43AA44A963
:02385A00452205
:1007F600EF4E6012EF60010EEDBB010B89828A831A
:10080600F0A3DFFCDEFA2289F05007F709DFFCA926
:0C081600F022BBFEFCF309DFFCA9F0227D
:10082200BC000BBE0029EF8DF084FFADF022E4CCBA
:10083200F875F008EF2FFFEE33FEEC33FCEE9DEC83
:10084200984005FCEE9DFE0FD5F0E9E4CEFD22EDC9
:10085200F8F5F0EE8420D21CFEADF075F008EF2F13
:10086200FFED33FD4007985006D5F0F222C398FD04
:050872000FD5F0EA22A1
:10087700C5F0F8A3E028F0C5F0F8E582158270020C
:060887001583E038F022A9
:0C088D00E6FC08E6FD08E6FE08E6FF2297
:0C089900E0FCA3E0FDA3E0FEA3E0FF22D2
:0C08A500E2FC08E2FD08E2FE08E2FF228F
:0D08B100E6FB08E6F908E6FA08E6CBF822B7
:0C08BE00E0F8A3E0F9A3E0FAA3E0FB22BD
:0D08CA00E2FB08E2F908E2FA08E2CBF822AE
:0C08D700ECF208EDF208EEF208EFF2225D
:1008E300D083D082E493F608740193F608740293DC
:0908F300F608740393F674047313
:1008FC00D083D082E493F208740193F208740293CB
:09090C00F208740393F274047301
:09091500E6FB08E6FA08E6F92207
:09091E00E0FBA3E0FAA3E0F922DA
:09092700E2FB08E2FA08E2F92201
:0C093000E493FB740193FA740293F92223
:00000001FF
