:033E9B00023E9E46
:06237D008F418D428B43ED
:102383009001C9120749000000007D00AF417E00A3
:10239300123ACAAD07AF437E00123ACAAD07AF4443
:1023A3007E00123ACAAD07AF427E00123ACA9001CC
:1023B300C8EFF0E54364037021FDAF46FE123ACA4D
:1023C300AD07AF457E00123ACAAD079001C8E0FFE2
:1023D3007E00123ACA9001C8EFF0754C01754E1495
:1023E300E54C70030224D8E54E70030224D8AF48AD
:1023F300AE47123DBFAF48AE47123DBFAD48AC47F5
:10240300AF41123520AF48AE47123DBFAD48AC4790
:10241300AF43123520AD48AC47AF44123520E543F6
:1024230070028028AD48AC47AF42123520E542B474
:10243300F6028018E54364037029AD48AC47AF4604
:10244300123520AD48AC47AF451235209001C8E0A6
:10245300FF854953854A54854B55AB48AA477DFFB1
:1024630002294CE54364017067E54464027061E549
:102473004C603F9001C8E0FF854953854A54854B22
:1024830055AB48AA47E4FD12294C8F4DE54D702208
:102493009001C9E0FCA3E0FDA3E0FEA3E0FFAB498C
:1024A300AA4AA94B12071112002D9001C912073D28
:1024B300154CE54C701A9001C9E0FCA3E0FDA3E0C4
:1024C300FEA3E0FFAB49AA4AA94B1206B37F002241
:0724D300154E0223E3AF4D9B
:0124DA0022DF
:08294C008F4F8D508A518B5210
:10295400E4F558AF52AE51123884E54F6F60037FEF
:10296400FF22EFF4B54F037FFD22E550B4FF037F50
:102974000122E5506003022A58AF52AE5112388446
:102984008F56AF52AE511238848F57AF52AE511298
:1029940038848F587D00AF567E00123ACAAD07AF17
:1029A400577E00123ACAEF655860037FFE22E5574E
:1029B40030E7096357FFE556F404F556E557FE7C06
:1029C40000E42556FFEC3EFE9001CDF0A3EFF0FDB0
:1029D400AC06EC120336E4FBFA7980784212022743
:1029E400AB53AA54A9551206B3AB53AA54A955C064
:1029F40003C002C0011206937BCC7A5D795B783FF9
:102A0400120029D001D002D0031206B3AB53AA544A
:102A1400A955120693E4FBFA79C878421202C4401D
:102A240017AB53AA54A955120693E4FBFA792078FC
:102A3400C11202C4600540037FFA22AB53AA54A911
:102A4400551206937BCC7A5D795B78BF1202C47011
:062A5400037FFB227F005E
:012A5A002259
:102B650000070E091C1B1215383F363124232A2D68
:102B750070777E796C6B6265484F464154535A5D58
:102B8500E0E7EEE9FCFBF2F5D8DFD6D1C4C3CACD48
:102B950090979E998C8B8285A8AFA6A1B4B3BABD38
:102BA500C7C0C9CEDBDCD5D2FFF8F1F6E3E4EDEA28
:102BB500B7B0B9BEABACA5A28F88818693949D9A18
:102BC5002720292E3B3C35321F18111603040D0A08
:102BD5005750595E4B4C45426F68616673747D7AF8
:102BE500898E878095929B9CB1B6BFB8ADAAA3A4E8
:102BF500F9FEF7F0E5E2EBECC1C6CFC8DDDAD3D4D8
:102C0500696E676075727B7C51565F584D4A4344C7
:102C1500191E171005020B0C21262F283D3A3334B7
:102C25004E49404752555C5B7671787F6A6D6463A7
:102C35003E39303722252C2B0601080F1A1D141397
:102C4500AEA9A0A7B2B5BCBB9691989F8A8D848387
:102C5500DED9D0D7C2C5CCCBE6E1E8EFFAFDF4F377
:103ACA00151EA81EA605151E151EA81EA60608A6C2
:103ADA0007A81E0808E6FFA81EE6FE08E66F24658A
:103AEA00F582742B3EF583E493FF051E051E051E21
:013AFA0022A9
:033E9E00023E03DE
:0F3E0300EF64014E7002C2907F027E00023BB856
:103DA700EF64014E7011D2907F0CFE12369FC290C5
:083DB7007F047E0012369F22FA
:103DBF00EF64014E7011D2907F04FE12369FC290B5
:083DCF007F0C7E0012369F22DA
:103A8F00EF64014E7034D2907F01FE12369FC290C8
:103A9F007F087E0012369F758402E5885440C41358
:103AAF00135403FFBF010A7F087E0012369F7F0168
:0B3ABF00227F087E0012369F7F00224D
:063520008F4F8C508D510D
:10352600E49001CDF0A3F0A3F09001CEF0A37407D0
:10353600F09001CEE0FEA3E0FFC3EE6480948040ED
:103546003AE54FA807088002C313D8FC540190013E
:10355600CDF07009AF51AE50123DBF800E9001CD37
:10356600E0B40117AF51AE50123DA79001CFE02451
:0B357600FFF09001CEE034FFF080B6C3
:013581002227
:043884008E598F5A70
:10388800E49001CFF0A3F0A3F07407F0AF5AAE595B
:10389800123A8F9001CFEFF0A3E0FFA3E0FE900172
:1038A800CFE0FDA806088002C333D8FC4F9001D0B2
:1038B800F0A3E014F0E0C36480948050CF9001D06E
:0238C800E0FF1F
:0138CA0022DB
:0C3E6400245265763A20393131202400C8
:101C9200E47880F6123E2175840F75E104E4F5E2E2
:101CA20075E344F58475B7B075840F758A83F5972B
:101CB200438901758D01758F01758E04F541F542D9
:101CC2000542E54270020541640F454170F24389C5
:101CD20002E4F541F542AE41AF42E4FCFD7B507AAD
:101CE200C3F9F8D312066C400FE58920E40A0542D5
:101CF200E54270E2054180DE759702123D14E4F57B
:101D020041F5427D01AF42123C880542E542700234
:101D12000541C39401E541940040E8E4F520C23254
:101D2200C230C236C235C2347880F6C28508F6782F
:101D32009DF618F678A2F6F541F54274312542F582
:101D420082E43401F583E4F00542E5427002054184
:101D52006440454170E5E4F541F54274712542F570
:101D620082E43401F583E4F00542E5427002054164
:101D72006440454170E5E4F584E5EF20E10CE5EFD0
:101D82005408D394004003D38001C392037D08E436
:101D9200FF123C0DE478A1F6789AF6AB77AA78A9FF
:101DA20079789AE6FF75F010A4F58285F083120423
:101DB20009FE78A126F6EE6005789A0680DDEFD35B
:101DC20094004030AB77AA78A97990000D1207A051
:101DD2001203F0FF74551204361203F064556002C8
:101DE200D23474AA1204361203F064AA6002D23406
:101DF200EF120436E4F584E5EF5402D39400400474
:101E02007F018002E4FF122E418F40E54020E03541
:101E1200C23174FFF508F509F50AF50B7E007F1053
:101E22007D007B007A00790E1207F67546FF754732
:101E32001975485E754900754A107B007A00790E63
:101E42001237488002D231903E6BE493FF3395E023
:101E5200FEEF24D0FFEE34FFFE7C007D6412046AA4
:101E6200AA06AB07903E6AE493FF3395E0FEEF24A7
:101E7200D0FFEE34FFFE7C037DE812046AEF2BFBF9
:101E8200EE3AFA903E6CE493FF3395E0FEEF24D0F5
:101E9200FFEE34FFFE7C007D0A12046AEF2BFFEE98
:101EA2003AFEA3E493FD3395E0FCED24D0FDEC343F
:101EB200FFCD2FF50DED3EF50CE54030E103021F9D
:101EC20071E4F541F542E542C4F8540FC868FFE5F4
:101ED20041C454F048FEAB77AA78A9798F82F58382
:101EE2001204097003021F68E92FF9EA3EFA900012
:101EF2000412040920E264E4F53FE53FC3788E96BC
:101F02005059E542C4F8540FC868FFE541C454F083
:101F120048AB77AA78A9798F82F583120409FF7EEC
:101F220000C006C0077D00E542C4F8540FC868FF30
:101F3200E541C454F048FEE92FF9EA3EFA90000D5B
:101F42001207A078A1E6853FF0A429F9EA35F0FA54
:101F5200D007D0061207F6053F809F0542E5427082
:101F6200020541021EC87F01121F9AC2338007E494
:101F7200FF121F9AD233E4F541F5427A007B967D37
:101F820003AF421233D40542E54270020541C394C5
:071F920001E541940040E469
:011F99002225
:053E8C0078A2E6FF2210
:0300230002272889
:10272800C0E0C0F0C083C082C0D075D000C000C077
:1027380001C002C003C004C005C006C00730993EEE
:10274800C299789D06799DE77881667015F6789D1F
:01275800F68A
:0D27590075280A75291300D529FCD528F62E
:04276600C285801C8C
:0D276A0075281475291300D529FCD528F613
:10277700789DE62471F582E43401F583E0F599202C
:102787009803022820209A08203205C29802281CA4
:10279700C29A789CE6062431F582E43401F583E594
:1027A70099F0C298E6FFB40112900131E0FE700380
:1027B700F68066EE5407240278A3F6EFB4020D788C
:1027C700A3E6B40907900132E02403F6789CE6FFFC
:1027D700B4400476008042EFC378A396403B789CD0
:1027E700E624FFFDE434FFFC7B017A0179311232E4
:1027F7004F789CE62430F582E43401F583E06F607E
:052807000476008014BE
:0D280C0075281475291300D529FCD528F670
:10281900121180789C7600D007D006D005D004D05C
:1028290003D002D001D000D0D0D082D083D0F0D054
:02283900E0328B
:10335900900132E075F010A4AB772579F9E578355D
:10336900F0FA90000D1207A078A2E6FF18E68FF098
:10337900A4252CF582E435F0F583120409FF7B00BE
:043389007A00792A23
:10338D008F398B3A8A3B893CE4F584EA494B601CC2
:10339D00AB3AAA3BA93C1203F0FFE539FD7C0012C4
:0C33AD000003AB3AAA3BA93CEF12043627
:0D33B900753D14753E1300D53EFCD53DF664
:0E33C6008539997F01123C363099FDC299225B
:093D7000E4F5847881EFF6D285B8
:0D3D7900753914753A1300D53AFCD539F6AA
:073D8600900171E0F59922A4
:10383C00C9EFC9E964017028EDC39B4034788EE66A
:10384C00FFEB2FFFE433FEEDC39FEE6480F8748032
:10385C0098501ED232C3ED9B78A2F6789E76012248
:10386C00B90214ED6B700AD23278A2F6789E760209
:08387C0022C232E4789EF6221C
:10358200C9EFC9BAFF15BBFF12ED6B7002EC6A708E
:1035920049D23278A2F6789EE9F622E964017025D2
:1035A200C3ED9BEC9A401C788EE62BFFE43AFEC3F7
:1035B200ED9FEC9E500DD232C3ED9B78A2F6789E21
:1035C2007601228015B90218ED6B7002EC6A700A5E
:1035D200D23278A2F6789E760222C232E4789EF641
:0135E20022C6
:10118000900131E0FF54F8F52BE4F584EF1207D01D
:1011900011CD0911D90A11E91011F211120212121E
:1011A0001619122B1A124D2012562812F52913F770
:1011B00033142937145839147241147D4914875057
:1011C00014CF6113C17014C798000014FF9001324E
:1011D000E0FDE509FB7F018023900132E0FCA3E004
:1011E000FDAB09AA087F018027D232789E760302E0
:1011F00014FF900132E0FDE50BFB7F0212383C0248
:1012000014FF900132E0FCA3E0FDAB0BAA0A7F02C1
:101210001235820214FF900132E0FDE509FB7F01E7
:1012200012383C2032030214FF8017900132E0FC98
:10123000A3E0FDAB09AA087F011235822032030228
:1012400014FF9001717478F07F010214FCE4F584BE
:1012500075EF120214FFC2ACE4F52AD285FB7A00C6
:10126000792A7F7F12338D7B007A00792A7F1812CA
:10127000338D7B007A00792A7F0512338D789AE6C8
:101280001233867B007A00792AAF0812338D7B00F7
:101290007A00792AAF0912338D7B007A00792AAF60
:1012A0000A12338D7B007A00792AAF0B12338D7BC3
:1012B000007A00792AAF0C12338D7B007A00792AEC
:1012C000AF0D12338DE4F52C740E252CF8E6123395
:1012D00086052CE52CC3941040EE7B007A00790043
:0512E000AF2A12338D5E
:0D12E50075370A75381300D538FCD537F67B
:1012F2000213AC900132E0FFC3789A9640030213C6
:10130200B3EF75F010A42579F9E57835F0857734D7
:10131200F5358936C2ACE4F52AD285FB7A00792A02
:101322007F7F12338D7B007A00792A7F0D12338DF5
:10133200AB34AA35A9361203F0123386AB34AA3580
:10134200A936900001123383AB34AA35A936900036
:1013520002123383AB34AA35A936900003123383C9
:10136200AB34AA35A936900004123383E4F52CABD2
:1013720034E5362405F9E43535FA7E00E9252CF901
:10138200EE3AFA1203F0123386052CE52CC39408C8
:0D13920040DD7B007A007900AF2A12338D18
:0D139F0075370A75381300D538FCD537F6C0
:1013AC00C285D2AC0214FF9001717478F0E4A3F002
:1013BC007F020214FC123E4A788F120731900171A1
:1013CC00747CF0788FE6A3F008E6A3F008E6A3F0AF
:1013DC0008E6A3F07C007D057B017A01797112325D
:1013EC004F900176EFF07F060214FC900132E0FF83
:1013FC00B4010BA3E0F508A3E0F5090214C7EFB4A0
:10140C000209900133E0F5080214C7900132E0B4F0
:10141C000308A3E0F50AA3E0F50B0214C7E4F52CCE
:10142C00900132E0FFE52CC39F501C7433252CF542
:10143C0082E43401F583E0FF740E252CF8C6EFC668
:10144C00052CE52CB410D9E4F51D806F7A007B32A5
:10145C007D0178A2E6FF1233D4900132E0FDE4FF67
:10146C00123C0D0214FF900132E024FF9202021490
:10147C00FF900132E024FF9201807878A2E66005AB
:10148C00752E02800B203505752E038003752E01F9
:10149C009001717479F0A3E52EF07C007D027B0144
:1014AC007A01797112324F900173EFF07F03123D84
:1014BC0070E52E6401703CD2368002D23078807692
:1014CC00F180307A007B327D017F001233D49001A1
:1014DC00717479F0900132E0900172F07C007D0221
:1014EC007B017A01797112324F900173EFF07F0317
:1014FC00123D70E52B64A0600302170E900131E0E1
:10150C0064A160030215FEA3E0C3789A964003021F
:10151C0015F3AB77AA78A979E0FF75F010A4F582E2
:10152C0085F083120409F52EEF75F010A429F9EA61
:10153C0035F0FA90000412040930E237900132E0E1
:10154C00123E918F2E900171747FF0A3E52EF02442
:10155C0002FDE433FC7B017A01797112324F747312
:10156C00252EF582E43401F583EFF0E52E2403FFFC
:10157C0002170B900132E0FF123E91C2ACE4F52A47
:10158C00D285E52ED39406402B7B007A00792A7FF6
:10159C007F12338D7B007A00792AAF2E12338DE4C3
:1015AC00F52CE52CC3952E5007123359052C80F2DF
:1015BC00052E8018E52E2478123386E4F52CE52CC4
:1015CC00C3952E5007123359052C80F27B007A00FC
:0715DC007900AF2A12338DE4
:0D15E30075370A75381300D538FCD537F67A
:1015F0000216FD9001717478F07F0102170B9001C3
:1016000031E064A2600302170E789AE6FFA3E0FEC1
:10161000C39F4003021703A3E0FDC39F40030217CB
:1016200003EE9D4003021703900132E0F52CE4F530
:1016300032F533900133E0FFE52CD39F5026AF2CD9
:10164000123E91AB77AA78A97975F010E52CA4F534
:101650008285F0831204092533F533E43532F532FF
:10166000052C80CFC2ACE4F52AD285FB7A00792A1A
:101670007F7F12338DC3E5339480E53294005002AE
:101680008007E5324480123386AF331233879001EE
:1016900032E0F52C900133E0FFE52CD39F5046E477
:1016A000F52DAB77AA78A97975F010E52CA4F58211
:1016B00085F083120409FFE52DC39F5024E52C75A6
:1016C000F010A429F9EA35F0FA90000D1207A0787D
:1016D000A2E6FF18E68FF0A4252D12337C052D809D
:1016E000C1052C80AF7B007A007900AF2A12338DC0
:0D16F00075370A75381300D538FCD537F66C
:1016FD00C285D2AC800B9001717478F07F01123DE0
:10170D0070E52B6458704DFA7B327D0178A2E6FFAF
:10171D001233D4753C01753D01753E727B017A0122
:10172D007932123B8B8F2EE52E2478900171F0EFDC
:10173D002401FDE433FC7B017A01797112324F747F
:10174D0072252EF582E43401F583EFF0E52E2402A7
:10175D00FF123D70E52B64806009E52B6488600302
:10176D0002191D789EE6B4010F7A007B327D017857
:10177D00A2E6FF1233D4801AE4F52CE52CC3788E43
:10178D0096500F7A007B327D01AF2C1233D4052C8D
:10179D0080E9900131E05407F52EB4070A752D014B
:1017AD00A3E0F52EA38006E4F52D900132E0F52F90
:1017BD00152EE52FC3789A9640030218F1AB77AA40
:1017CD0078A97975F010E52FA4F58285F0831204C0
:1017DD0009FFE52ED39F40028F2E789EE6B40109B6
:1017ED0078A2E6F531F5308009E4F530788EE6140F
:1017FD00F53178A2A63078A2E6D3953140030218D0
:10180D00E5E4F52CE52CC3952E40030218DAE52FFF
:10181D0075F010A4AB772579F9E57835F0FA9000DD
:10182D000412040930E2030218D5900001120409D4
:10183D0064387041E52ED394044011E52D252C24F8
:10184D0033F582E43401F583E0FD805E789CE6C3D8
:10185D00952CFFE49400FE742F2FF58274013EF554
:10186D0083E0FDE52F75F010A4AB772579F9E578C8
:10187D0035F0FA8035AB77AA78A97975F010E52F98
:10188D00A4F58285F083120409FFC3789CE69F2599
:10189D002C252D2430F582E43401F583E0FDE52F70
:1018AD0075F010A429F9EA35F0FA90000D1207A091
:1018BD0078A2E6FF18E68FF0A4FFE52C2FF582E461
:1018CD0035F0F583ED120448052C021811AF2F12D7
:1018DD00395278A20602180378A2A630E52B648847
:1018ED00702E8010E52FB4FF27900133E0F520E531
:1018FD002BB4881C9001717478F0789CE62430F537
:10190D0082E43401F583E0900172F07F02123D70A4
:01191D0022A7
:10D000007880E664F1600302D60CE4F54BF54C78C9
:04D0100081E6601F36
:0DD0140075510A75521300D552FCD551F626
:10D02100054CE54C7002054B64107004E54B642718
:10D0310070DCC2AF7584015398FC75FFDE75FFADDE
:10D04100E4F547F546E4F58420982EE4F54BF54CDC
:0ED05100209822C3E54C9488E54B94135017A9
:0DD05F0075510A75521300D552FCD551F6DB
:10D06C00054CE54C70DF054B80DBB28480CF859995
:10D07C0046C298E546641A600302D14CF54BF54C58
:0ED08C00209822C3E54C9488E54B941350176E
:0DD09A0075510A75521300D552FCD551F6A0
:10D0A700054CE54C70DF054B80DB3098928599473E
:10D0B700C298E4F54BF54C209822C3E54C9488E5DB
:05D0C7004B941350170B
:0DD0CC0075510A75521300D552FCD551F66E
:10D0D900054CE54C70DF054B80DB20980302D046F8
:10D0E900859947C298E4F54BF54C209822C3E54C45
:08D0F9009488E54B94135017D5
:0DD1010075510A75521300D552FCD551F638
:10D10E00054CE54C70DF054B80DB20980302D046C2
:09D11E00859947C298D285C29997
:0DD1270075511475521300D552FCD551F608
:06D134007599783099FDA9
:0DD13A0075510A75521300D552FCD551F6FF
:10D14700C28502D5FEE5466450600302D1DCF54B8B
:10D15700F54C209822C3E54C9488E54B941350175F
:0DD1670075510A75521300D552FCD551F6D2
:10D17400054CE54C70DF054B80DB20980302D0465C
:09D18400859947C298D285C29931
:0DD18D0075511475521300D552FCD551F6A2
:08D19A007599793099FDC299E5
:0DD1A20075511475521300D552FCD551F68D
:08D1AF007599013099FDC29948
:0DD1B70075511475521300D552FCD551F678
:06D1C400E4F5993099FD2D
:0DD1CA0075510A75521300D552FCD551F66F
:0FD1D700C28502D5FEE5466401703ED285C2993D
:0DD1E60075511475521300D552FCD551F649
:08D1F3007599783099FDC2998D
:0DD1FB0075511475521300D552FCD551F634
:06D20800E4F5993099FDE8
:0DD20E0075510A75521300D552FCD551F62A
:10D21B00C28502D5FEE5466402600302D2E2F54BFD
:10D22B00F54C209822C3E54C9488E54B941350178A
:0DD23B0075510A75521300D552FCD551F6FD
:10D24800054CE54C70DF054B80DB20980302D04687
:10D25800859947C298E4F548E54713B39284E547B2
:10D2680025E0FEC3E49400EE94D0502AE5477F0001
:10D2780025E0FEC394E0501EE54720E01FE4F58456
:10D2880043B701758F038E4D8F4E8F828E83F05377
:10D29800B7F0F58F80037548FFE4F584D285C2990D
:0DD2A80075511475521300D552FCD551F686
:08D2B5007599783099FDC299CA
:0DD2BD0075511475521300D552FCD551F671
:06D2CA008548993099FD32
:0DD2D00075510A75521300D552FCD551F668
:10D2DD00C28502D5FEE5466403600302D42DF54BED
:10D2ED00F54C209822C3E54C9488E54B94135017C8
:0DD2FD0075510A75521300D552FCD551F63B
:10D30A00054CE54C70DF054B80DB20980302D046C4
:10D31A00859947C298E4F54BF54C209822C3E54C11
:08D32A009488E54B94135017A1
:0DD3320075510A75521300D552FCD551F605
:10D33F00054CE54C70DF054B80DB20980302D0468F
:10D34F00859949C298E547139284E54725E0FEC3C6
:10D35F00E49400EE94D0400302D046E5477D0025CB
:10D36F00E0FCC394E0400302D046E4F58443B701E8
:10D37F00758F01E54975F020A42DFFE5F03CF54DC3
:10D38F008F4EE4F584F54AE54AC394205048E4F5FE
:10D39F004BF54C209822C3E54C9488E54B941350E1
:01D3AF001766
:0DD3B00075510A75521300D552FCD551F687
:10D3BD00054CE54C70DF054B80DB20980302D04611
:10D3CD00054EE54EAE4D7002054D14F5828E83E58A
:10D3DD0099F0C298054A80B1E4F58453B7F0F58F02
:06D3ED00F584D285C2990F
:0DD3F30075511475521300D552FCD551F63A
:08D400007599783099FDC2997D
:0DD4080075511475521300D552FCD551F624
:06D41500E4F5993099FDD9
:0DD41B0075510A75521300D552FCD551F61B
:10D42800C28502D5FEE5466404600302D4DDF54BEF
:10D43800F54C209822C3E54C9488E54B941350177B
:0DD4480075510A75521300D552FCD551F6EE
:10D45500054CE54C70DF054B80DB20980302D04678
:10D46500859947C298E54725E0F54F755000E4F5E5
:10D4750048F54BF54C0550E550AE4F7002054F147D
:10D48500F5828E83E4932548F548054CE54C7002FA
:0ED49500054B7004E54B640270DBD285C29932
:0DD4A30075511475521300D552FCD551F689
:08D4B0007599783099FDC299CD
:0DD4B80075511475521300D552FCD551F674
:06D4C5008548993099FD35
:0DD4CB0075510A75521300D552FCD551F66B
:10D4D800C28502D5FEE5466405600302D5F3F54B27
:10D4E800F54C209822C3E54C9488E54B94135017CB
:0DD4F80075510A75521300D552FCD551F63E
:10D50500054CE54C70DF054B80DB20980302D046C7
:10D51500859947C298E4F54BF54C209822C3E54C14
:08D525009488E54B94135017A4
:0DD52D0075510A75521300D552FCD551F608
:10D53A00054CE54C70DF054B80DB20980302D04692
:09D54A00859949C298D285C29965
:0DD5530075511475521300D552FCD551F6D8
:08D5600075997F3099FDC29915
:0DD5680075511475521300D552FCD551F6C3
:10D575007599203099FDE54725E0FCE54975F020D2
:10D58500A42400FFE5F03CF54F8F50E4F548F54A3B
:02D59500C29939
:0DD5970075511475521300D552FCD551F694
:10D5A400855082854F83E493F5993099FD0550E5C4
:10D5B40050AE4F7002054F14F5828E83E4932548D4
:0BD5C400F548054AE54AB420C8C299AA
:0DD5CF0075511475521300D552FCD551F65C
:06D5DC008548993099FD1D
:0DD5E20075510A75521300D552FCD551F653
:10D5EF00C285800BE546B40606E4F58475EF12E5B7
:0DD5FF00466407600302D0467880F6D2AF84
:01D60C0022FB
:10344D007F00123C3620310B7A007B327D017F00EC
:10345D001233D430340B7A007B1E7D017F00123382
:10346D00D43030173035147A007B327D0178A2E6E6
:10347D00FF1233D4C230123075D23120330C3035B7
:10348D0009788076F1123075D23330360830350533
:10349D00C23612D000203512123E3DE47B2C7A014B
:0B34AD00F9F8C31206825002D235224B
:0B3E7000121C9212344D12093C80F825
:102A5B00005EBCE2613FDD83C29C7E20A3FD1F4173
:102A6B009DC3217FFCA2401E5F01E3BD3E6082DC63
:102A7B00237D9FC1421CFEA0E1BF5D0380DE3C6253
:102A8B00BEE0025CDF81633D7C22C09E1D43A1FF43
:102A9B004618FAA427799BC584DA3866E5BB590733
:102AAB00DB856739BAE406581947A5FB7826C49A23
:102ABB00653BD987045AB8E6A7F91B45C6987A2413
:102ACB00F8A6441A99C7257B3A6486D85B05E7B903
:102ADB008CD2306EEDB3510F4E10F2AC2F7193CDF3
:102AEB00114FADF3702ECC92D38D6F31B2EC0E50E3
:102AFB00AFF1134DCE90722C6D33D18F0C52B0EED3
:102B0B00326C8ED0530DEFB1F0AE4C1291CF2D73C2
:102B1B00CA947628ABF517490856B4EA6937D58BB2
:102B2B005709EBB536688AD495CB2977F4AA4816A2
:102B3B00E9B7550B88D6346A2B7597C94A14F6A892
:102B4B00742AC896154BA9F7B6E80A54D7896B3582
:0A2B5B00000000002B6096CBDDEEB9
:032FC200016C0A95
:10324F00151E151EA81EECF608EDF6151E151E15FB
:10325F001EA81EC6EBC608C6EAC608C6E9C6E51E06
:04326F0024FCF51E28
:10327300F80808E4F6A81EF608F6E51E2407F9A8E0
:103283001EE6FE08E6FFC3099719E76480F8EE64BB
:1032930080985037E51E2404F8CBE6CB08E6FA08FD
:1032A300E6F98F828E83120409A81E080866FFE5DB
:1032B3001E2403F8EFF6E6902A5B93A81E0808F68F
:1032C300A81E0806E61870B20680AFA81E0808E616
:0132D300FFFB
:0732D400E51E2409F51E228E
:07000300ED6F902A5B93FFF3
:01000A0022D3
:103C0D00EF7023F5847598D0F584759115F584754D
:103C1D00C90875CBFFED902B5A93F5CA75C804E40E
:083C2D00F584D2ACC2BCD2AF99
:013C3500226C
:10391000E4F572F571F570F56FF576F575F574F5FA
:1039200073756B64FFEF25E025E024A4F8E4F6EF5F
:1039300025E025E024A5F8E4F6EF25E025E024A61F
:10394000F8E4F6EF25E025E024A7F8E4F60FBF0140
:01395000D4A2
:013951002253
:103D1400D2AFD2A9C2BBE4F584E589540F4401F5BE
:0F3D240089758E02758CAFE4F58AD28C02391046
:02311800151E82
:10311A00A81EE4F6A81EE6FFC3940140030231B2DA
:10312A00EF25E025E024A7F8E6FFD394004052A853
:10313A001EE625E025E024A5F8E67045EF30E01507
:10314A00A81EE6FF25E025E024A7F8E6D39401406F
:10315A00047D0080067D01A81EE6FF123994A81E90
:10316A00E6FF25E025E024A7F816E66014EF25E03F
:10317A0025E024A6F8E6FEEF25E025E024A5F8EEF2
:10318A00F6A81EE625E025E024A5F8E6600116A8C3
:10319A001EE6FF25E025E024A7F8E670057D01126A
:0831AA003994A81E0602311E33
:0331B200051E22D5
:03000B000232DBE3
:1032DB00C0E0C0F0C083C082C0D0E8C0E0E9C0E06D
:1032EB00EAC0E0EBC0E0ECC0E0EDC0E0EEC0E0EF28
:1032FB00C0E0758CAFE5722401F572E43571F571A0
:10330B00E43570F570E4356FF56FD56B18E5762401
:10331B0001F576E43575F575E43574F574E43573BC
:10332B00F573756B64123118123CF4D0E0FFD0E0EA
:10333B00FED0E0FDD0E0FCD0E0FBD0E0FAD0E0F92D
:0E334B00D0E0F8D0D0D082D083D0F0D0E032E5
:103C8800151EA81EEDF6151EA81EEFF6A81EE6FFC7
:103C9800C39401500D08E6FEEF25E025E024A4F8C2
:073CA800EEF6051E051E22C9
:1033D400151E151EA81EEAF608EBF6151EA81EED0E
:1033E400F6151EA81EEFF6A81EE6FFC39401505260
:1033F400EF25E025E024A7F8E67047A81EE6FB25A4
:10340400E025E024A5F8E67039A81E08E625E004C6
:10341400FFA81EE6FA25E025E024A7F8EFF6A81E8B
:103424000808E6FE08E6FF7C007D0A12047CEA2513
:10343400E025E024A6F8EFF6EB25E025E024A5F846
:09344400E4F6E51E2404F51E2245
:10399400151EA81EEDF6151EA81EEFF6A81EE6FFBE
:1039A400C39401501CEF25E025E024A4F8E660113F
:1039B400A81E08E670047F0180027F00A81E08EF9D
:1039C400F6A81EE6700608E624FF9284051E051E6E
:0139D40022D0
:0C3E3D00C2AFAF72AE71AD70AC6FD2AF0F
:013E49002256
:0C3E4A00C2AFAF76AE75AD74AC73D2AFF2
:013E56002249
:103C3600151EA81EEFF6A81EE67004F56DF56E308B
:103C46003714E56C75F064A4FFC3E56E9FE56D95CA
:093C5600F0500375FFA5051E22C4
:103D5200D237E4F56DF56EEF6004F56C8003756C97
:0E3D62000A75FF0775FFA5E4F58475EF0622CC
:0E3E2100C237E4F56DF56E75FFDE75FFAD225C
:103CF400056EE56E7002056D303714E56C75F06481
:103D0400A4FFC3E56E9FE56D95F0500375FFA522F2
:043BB8008E438F4465
:103BBC00E4F545F546C3E5469544E5459543501671
:103BCC007FE87E0312369F7F01123C360546E546A0
:063BDC0070E3054580DFE7
:013BE20022C0
:04369F008E678F683B
:1036A300D3E56894FAE5679400500EEFD394004095
:1036B300407E1600DEFD1F80F285676985686AD348
:1036C300E56A94FAE569940040157FFA7E001236A4
:1036D3009F7406256AF56A74FF3569F56980E0D33E
:1036E300E5689400E56794004007AF6AAE69123657
:0136F3009F37
:0136F40022B3
:1034B800754E00754F007550487B007A0079467D3F
:0134C8000201
:0834C9008B4A8A4B894C8D4DA2
:1034D1007F01123C36AB4EAA4FA9501204B2240010
:1034E100FFE5F034E0FE854A51854B52854C53E4AB
:1034F100FDEDC3954D501BEF2DF582E43EF583E4C0
:1035010093AB51AA52A9538D827583001204480DC1
:0F35110080DFAB4EAA4FA950E4854DF00204DDD8
:102F0A0075481275493475500075510075524A7BDF
:072F1A00007A0079487D02F6
:082F21008B4C8A4D894E8D4F47
:102F29007880E664F16003022FC1123E21C2AFE44A
:102F3900F58475EF0643B701758F01AB50AA51A906
:102F4900521204B22400FFE5F034E07893F608EF5A
:102F5900F6AA4DA94E7897A64C08C6EAC608C6E94E
:102F6900C6E47895F67895E6C3954F50327897CBB5
:102F7900E6CB080806E618CAE6CA70010614F91273
:102F890003F07896F6E6FF78930806E618CCE6CCC7
:102F990070010614F5828C83EFF078950680C6E4FB
:102FA900F58F53B7F0AB50AA51A952854FF01204CF
:082FB900DDD2AFE4FF123D522E
:012FC10022ED
:10379A007880E664F17049C2AF123E21E4F584757F
:1037AA00EF0643B701758F03789476E008F67893AD
:1037BA00F67894E6FE08E6F5828E83E4F07F01123D
:1037CA003C367895E426F618740236F61806E6C3EF
:1037DA00940840DDE4F58F53B7F0D2AFFF123D52A3
:0137EA0022BC
:1030750012379AE4F54AF54BF55075510075524AE9
:10308500FB7A0079087D16122F21122F0AE4F547E5
:10309500E547C3788E965073E4F546AB77AA78A9D1
:1030A5007975F010E546A4F58285F0831204096070
:1030B50056E54675F010A429F9EA35F0FA90000DA9
:1030C5001207A078A1E68547F0A429F9EA35F0FAB8
:1030D500EBC0E0EAC0E0E9C0E0AB77AA78A9797572
:1030E500F010E546A4F58285F083120409FD7550BC
:1030F5000075510075524AD0E0F9D0E0FAD0E0FBF6
:10310500122F210546809405478085122F0AE47801
:0231150080F642
:013117002295
:032E4100CCEFCC07
:102E4400E4F548F549F545F54E754F00755048FBD6
:102E54007A0079087D161234C91234B8E54764340F
:102E64007004E54664127003434501EC7003022FBD
:102E740004E4F544E544C3788E965073E4F543AB1B
:102E840077AA78A97975F010E543A4F58285F083D3
:102E94001204096056E54375F010A429F9EA35F0E7
:102EA400FA90000D1207A078A1E68544F0A429F950
:102EB400EA35F0FAEBC0E0EAC0E0E9C0E0AB77AA9B
:102EC40078A97975F010E543A4F58285F08312049E
:102ED40009FD754E00754F00755048D0E0F9D0E0FB
:102EE400FAD0E0FB1234C90543809405448085126E
:102EF40034B8E54764347004E54664127005800014
:052F0400434502AF454A
:012F090022A5
:10191E004093AE144048B4393ECCCCCD4048B43997
:10192E003ECCCCCD3ECCCCCD3ECCCCCD3ECCCCCD1D
:10193E000000000000000000000000000000000099
:10194E000000000000000000000000000000000089
:10195E004C504200043400000053657269616C4EB5
:10196E000001002502340000004572726F72000003
:10197E00000100290134000000436F6E74726F6C19
:10198E000001002B01340000005374617475730064
:10199E000001002C01340000006565706167650070
:1019AE000001002D013400000044656C61790000D7
:1019BE000001002E04180000014432417368667461
:1019CE000001002F041800000170445673630000DC
:1019DE0000010033040600000170444973630000E7
:1019EE000001003704180000017044563600000054
:1019FE000001003B0406000001704449360000005F
:101A0E000001003F0406000001704449350000004B
:101A1E000001004304060000017044493333000006
:101A2E0000010047040600000170444931380000EF
:101A3E000001004B0408000001754354656D7000F1
:101A4E000001004F0408000001496E7454656D706A
:101A5E0000010053040800000154656D7035380014
:101A6E0000010057040800000154656D7033330007
:101A7E000001005B040800000153485474656D704A
:101A8E000001005F045A0000015248756D69640040
:101A9E0000010063023400000072646163300000D4
:101AAE0000010067023400000072646163340000BC
:101ABE0000010069023400000072646163380000A6
:101ACE000001006B02340000007264616331320069
:101ADE000001006D02340000007264616331360053
:101AEE000001006F02340000007264616332300046
:101AFE000001007102340000007264616332340030
:101B0E000001007302340000007264616332380019
:101B1E00000100750234000000726461633332000C
:101B2E0000010077023400000072646163333600F6
:101B3E0000010079023400000072646163343000E9
:101B4E000001007B023400000072646163343400D3
:101B5E000001007D023400000072646163343800BD
:101B6E000001007F023400000072646163353200B0
:101B7E00000100810234000000726461633536009A
:101B8E000001008302340000007264616373700010
:101B9E000001008502340000007244324173686611
:101BAE0074010087023400000072704456736300A3
:101BBE000001008902340000007270444973630012
:101BCE000001008B02340000007270445636000093
:101BDE000001008D0234000000727044493600008E
:101BEE000001008F0234000000727044493500007D
:101BFE00000100910234000000727044493333003A
:101C0E000001009302340000007270444931380024
:101C1E0000010095023400000072534854656D7047
:101C2E00000100970234000000725248756D69641D
:101C3E000001009901340000007761746368646FDD
:101C4E006701009B02340000007370617265320000
:101C5E000001009C043400000165657056616C75CE
:101C6E006501009E0434000000656543747253657F
:101C7E00740100A20000000000000000000000003F
:041C8E000000000052
:102FC5004801290000020004000600607800AB00FB
:102FD50000000000000000000000000000000000EC
:102FE50000000000000000000000000000000000DC
:102FF5000000000000000000000000406000003DEF
:10300500CCCCCD40B0000000000000000000000066
:103015000000000000000040C0000040B000003E7D
:103025004CCCCD40D000003FE666663DCCCCCD3FD4
:103035000000003E4CCCCD4120000042480000413C
:10304500200000424800000C82245265763A203860
:103055003832202400018E01440010000000004495
:0F306500000600000000410004000377FF19621D
:0F3E1200C2AF90002BE525F0A3E522F0D2AF223E
:04000E00A21D923865
:10001200C2AFD238900029E523F0A3E524F0D2AF95
:0100220022BB
:103DD70090002BE525F0A3E522F0900029E523F0DC
:073DE700A3E524F0D2AF2296
:103CD3008F828E83C2AFAF46AE45AD44AC4312076D
:103CE3003D30380A900029E523F0A3E524F0D2AF54
:013CF30022AE
:082605008F418B428A43894496
:10260D009001D012074900000000E49001C8F0A32A
:10261D00F0AD45AF41123AFB9001CEEEF0A3EFF0D5
:10262D00A3E0F8A3E0F9A3E0FAA3E0FB9001CEE06C
:10263D00FEA3E0FFE4FCFDEB2FFFEA3EFEED39FDCE
:10264D00EC38FCA312073D12344D9001C9E004F0A3
:10265D0070069001C8E004F0C39001C9E0940A909F
:10266D0001C8E0940040AAE47B0AFAF9F89001D081
:10267D00E0FCA3E0FDA3E0FEA3E0FF1205BFAB422B
:10268D00AA43A944EE8FF0120515AB42AA43A94403
:10269D001204B2FDACF0E41203369001CA12073DEC
:1026AD00E4FBFA798078449001CAE0FCA3E0FDA335
:1026BD00E0FEA3E0FF120227E4FBFA792078401236
:1026CD00011E9001CA12073DE5416408603EE541D7
:1026DD0025E025E0241EF582E43419F5831206F178
:1026ED009001CAE0F8A3E0F9A3E0FAA3E0FB120120
:1026FD001EE54125E025E0243EF582E43419F583FD
:10270D0012070112002D9001CA12073D9001CAE077
:0A271D00FCA3E0FDA3E0FEA3E0FF33
:01272700228F
:1036F500EF6401703C75840FD293D2A7D2A6D2A5F0
:1037050043A4CC9001C8F09001C8E0FEC364809446
:1037150090501BEEFD3395E0FC74142DF58274007A
:103725003CF5837401F09001C8E004F080D9D20B18
:1037350022EF700E75840FC293C2A7C2A6C2A5530D
:02374500A433AB
:01374700225F
:101F9A00E49001B2F0A3F0A3F0A3F0A3F0EF600B7A
:101FAA00123E8C9001B3E4F0A3EFF0E49001B1F09B
:101FBA009001B1E0FFC39404501A74882FF9C3E763
:101FCA00648094B05006E02488F876309001B1E03D
:101FDA0004F080DC7889E6FF3395E0FEEF24D0FF39
:101FEA00EE34FFFE7C007D6412046AAA06AB077811
:101FFA0088E6FF3395E0FEEF24D0FFEE34FFFE7C47
:10200A00037DE812046AEF2BFBEE3AFA788AE6FFC0
:10201A003395E0FEEF24D0FFEE34FFFE7C007D0A0C
:10202A0012046AEF2BFFEE3AFE788BE6FD3395E059
:10203A00FCED24D0FDEC34FFCD2FF50DED3EF50C73
:10204A00750A01750BF4900053120749000000004D
:10205A009000571207490000000090005B120749E0
:10206A0000000000E4900029F0A3F0900025120778
:10207A004900000000E490002BF0A3F090009BF0D0
:10208A00A3F0A3F0F525F522C20BC20C75840F4309
:10209A00A42053E3FB123E5775840F43A5017584B0
:1020AA00024388807589037F017E00123E9B7584F6
:1020BA000FD2A143A618C2A3C2A475840F43A601D6
:1020CA0043A604D2A243A504123E9690012FE0FE35
:1020DA00A3E0FF7C007DAB7B047A001235E390001D
:1020EA00ABE0FCA3E0FDA3E0FEA3E0FF9000251215
:1020FA00073D900129E0FEA3E0FF7C007DAB7B78E1
:10210A007A001235E3C2AF75840F43A5207F017EA2
:10211A0000123EA490005F120749000000009000E0
:10212A006312074900000000E4900097F0A3F0A3AF
:10213A00F0A3F090002EF075840F75A7FF9001B2FE
:10214A00E5B0F0E0F4FFE4F4FEEF25E0FFEE3354EF
:10215A0001FEEF54F84405FF9001B5EEF0A3EFF04D
:10216A008E08F509E49001B1F09001B1E0FF25E095
:10217A0024B3F582E43400F583E0FCA3E0FDEF2507
:10218A00E02467F582E43400F583ECF0A3EDF090E7
:10219A0001B1E0FF25E024B3F582E43400F583A31E
:1021AA00E0FE74142FF582E43400F583EEF090011A
:1021BA00B1E004F0E0B410B175840FC2A7C2A6C2A0
:1021CA00A5C29343A50853A5BF43A6E0E4FF123670
:1021DA00F50F123E7B7F02123E7BE490009BF07566
:0921EA00840F43A4C0C287C28621
:0121F30022C9
:10395200151EA81EEFF6A81EE6FFC394144007EF3B
:1039620094245002D20BEFB4020690002BE0F5250E
:10397200A81EE6B4051190002EE0FF139286EF54C4
:1039820002C31324FF9287A81EE6B43102D20C05AB
:023992001E22F3
:053E91008F397F0022C3
:103B8B008B398A3A893B1203F0AB3CAA3DA93E1212
:103B9B000436AB39AA3AA93B900001120409AB3C9D
:0D3BAB00AA3DA93E9000011204487F0222AD
:10093C00C2AF90009BE004F0D2AF30282E90002C78
:10094C00E0F522E4F523F524C216C2AFE522F090BF
:10095C000029E523F0A3E524F0D2AF7F011236F590
:10096C007FE87E03123BB8D208C228302F149000C7
:10097C002CE0F522D217E4FF1236F5C210C22F126A
:10098C003E1290002CE0F522201003020A46200BA8
:10099C0003020A46E49001BEF09001BEE0FFC3944E
:1009AC00104003020A44200923E0FE2414F582E4DB
:1009BC003400F583E0FDEE25E02467F582E4340095
:1009CC00F583E0FAA3E06D7001EA6063EFD394075E
:1009DC0040047F0280027F019001BFEFF09001BEC6
:1009EC00E0BF020524F8FF8001FF9001C0EFF0FB8F
:1009FC009001BEE025E02467F582E43400F583E045
:100A0C00F544A3E0F5459001BFE0FD7F03123A5297
:100A1C009001BEE0FF25E02467F582E43400F58305
:100A2C00A3E0FE74142FF582E43400F583EEF0900D
:100A3C0001BEE004F00209A5C20B123E4A90001060
:100A4C00E0F8A3E0F9A3E0FAA3E0FBC3EF9BFFEE11
:100A5C009AFEED99FDEC98FCE47B02FAF9F8C312CE
:100A6C0006824003020B041B8B447545007546A996
:100A7C008B477548017549258B4A754B00754C0A97
:100A8C008B4D754E00754FA68B50755100755224C9
:100A9C007553007554017A0079A712283B90000E0B
:100AAC00EFF0BF014AC2AF9000A9E0FFA3E09000B5
:100ABC0097CFF0A3EFF09000A7E0FFA3E090009990
:100ACC00CFF0A3EFF0900125E0FCA3E0FDA3E0FE46
:100ADC00A3E0FF90006312073D90000AE0FCA3E046
:100AEC00FDA3E0FEA3E0FF90005F12073DD2AF1222
:100AFC003E4A90001012073D754402E4F545F54658
:100B0C00F547754801754901754A01754BB57B016F
:100B1C00FD7F4C12237DEF7070C21D900113E0FC21
:100B2C00A3E0FDA3E0FEA3E0FF9001B5E0F8A3E095
:100B3C00F9A3E0FAA3E0FB1202C44023900117E0F2
:100B4C00FCA3E0FDA3E0FEA3E0FF9001B5E0F8A359
:100B5C00E0F9A3E0FAA3E0FB1202C460044002D265
:100B6C001C7E007F53EEC0E09001B5E0FCA3E0FDDD
:100B7C00A3E0FEA3E0F5468E458D448C43A21C9267
:100B8C0038D0E0FE123CD3800312000E754402E410
:100B9C00F545F546F547754801754901754A0175E6
:100BAC004BB57B017D017F4C12237DEF7070C21D14
:100BBC0090011BE0FCA3E0FDA3E0FEA3E0FF90018D
:100BCC00B5E0F8A3E0F9A3E0FAA3E0FB1202C440FD
:100BDC002390011FE0FCA3E0FDA3E0FEA3E0FF9047
:100BEC0001B5E0F8A3E0F9A3E0FAA3E0FB1202C41C
:100BFC0060044002D21C7E007F57EEC0E09001B52D
:100C0C00E0FCA3E0FDA3E0FEA3E0F5468E458D4499
:100C1C008C43A21C9238D0E0FE123CD3800312000D
:100C2C000E754402E4F545F546F5477548017549DE
:100C3C0001754A01754BB57B017D027F4C12237DFA
:100C4C00EF7070C21D90011BE0FCA3E0FDA3E0FE61
:100C5C00A3E0FF9001B5E0F8A3E0F9A3E0FAA3E06C
:100C6C00FB1202C4402390011FE0FCA3E0FDA3E0B3
:100C7C00FEA3E0FF9001B5E0F8A3E0F9A3E0FAA32E
:100C8C00E0FB1202C460044002D21C7E007F5BEECB
:100C9C00C0E09001B5E0FCA3E0FDA3E0FEA3E0F50D
:100CAC00468E458D448C43A21C9238D0E0FE123CFB
:100CBC00D3800312000E309603C38001D3921F2001
:100CCC00082D123E4A900006E0F8A3E0F9A3E0FAE2
:100CDC00A3E0FBC3EF9BFFEE9AFEED99FDEC98FCB5
:100CEC00E47B01FAF9F8C31206824003020F137B6E
:100CFC00017A0179B9E4F5457F081226059001B116
:100D0C0012073D7FF07EA77D467CBF9001B1E0F8D5
:100D1C00A3E0F9A3E0FAA3E0FB12002DE4FBFA79BF
:100D2C007A784412011E7B3D7A0A79377840120298
:100D3C00279001B512073DE4FFFE7D207C41900118
:100D4C00B5E0F8A3E0F9A3E0FAA3E0FB12011EE47E
:100D5C00FBFAF9783F12002D12036FCDEFCDCCEEDC
:100D6C00CCEC120336E4FBFA79207841120227907E
:100D7C0001B512073D900113E0FCA3E0FDA3E0FEDA
:100D8C00A3E0FF9001B5E0F8A3E0F9A3E0FAA3E03B
:100D9C00FB1202C44023900117E0FCA3E0FDA3E08A
:100DAC00FEA3E0FF9001B5E0F8A3E0F9A3E0FAA3FD
:100DBC00E0FB1202C460044002D2277E007F4FEE9B
:100DCC00C0E09001B5E0FCA3E0FDA3E0FEA3E0F5DC
:100DDC00468E458D448C43A2279238D0E0FE123CBF
:100DEC00D39001C17401F0A37400F0A3742FF075BB
:100DFC003F00754087E4F57A7B017A0179B9E4F517
:100E0C0045AF7A1226059001B112073DC2AF900191
:100E1C00B1E0FCA3E0FDA3E0FEA3E0FF9001C1E084
:100E2C00FBA3E0FAA3E0F975F004E57AA4F582855A
:100E3C00F0831206CD9001B9E0FEA3E0FF8540825D
:100E4C00853F8375F002E57A120794EEF0A3EFF07C
:100E5C00D2AF74017E00A87A088005C333CE33CE9E
:100E6C00D8F9FFEE3395E0FDFC9001C412073DE587
:100E7C007A25E025E024D3F582E43400F583E0FC08
:100E8C00A3E0FDA3E0FEA3E0FF9001B1E0F8A3E036
:100E9C00F9A3E0FAA3E0FB1202C4402FE57A25E0A7
:100EAC0025E024F3F582E43400F583E0FCA3E0FDB7
:100EBC00A3E0FEA3E0FF9001B1E0F8A3E0F9A3E00A
:100ECC00FAA3E0FB1202C4601240109001C4A3A369
:100EDC00E0FEA3E04224EE422380179001C4E0FC24
:100EEC00A3E0FDA3E0FEA3E0FF120651EF5224EEB7
:100EFC005223057AE57AC394085003020E04123E7D
:100F0C004A90000612073DE5235487FEE5245484DD
:100F1C004E600BC210E4FF1236F5D216800D30086D
:100F2C000AC208C217C216D209D210123DD7200C21
:100F3C000302101C9000A2E0FCE4FFFEFDEC543C0C
:100F4C00FC700302100C9000A2E0FCA3E0FDA3E0F7
:100F5C00FEA3E0FFC3EF940A748094805003020F49
:100F6C00FC9000A2A3A3A3E4FEFDFC7B04FAF9F819
:100F7C001205347B0174AB2FF974003EFAEB3D90F3
:100F8C000000F0A3EAF0A3E9F09000A2A3E0FDEDCD
:100F9C005422FDED601E90009EE0FCA3E0FDA3E05A
:100FAC00FEA3E0FF900000E0FBA3E0FAA3E0F9123F
:100FBC0006B3805A9000A2A3E0FDE4FFFEED5411AD
:100FCC00FDE4FCED601AC2AF900000E0FBA3E0FA78
:100FDC00A3E0F912069390009E12073DD2AF802E2B
:100FEC00C2AF9000A2120749FF000000D2AF801ED2
:100FFC00C2AF9000A21207490000FF00D2AF800ED2
:10100C00C2AF9000A212074900FF0000D2AFC20C81
:10101C00202C030210F0900004E0707590002CE07E
:10102C00F522E49001BBF0A3F09001BBE0FEA3E03D
:10103C00FFC39410EE94005035EF25E0FFEE33FE25
:10104C0074672FF58274003EF583E0FCA3E0FD7419
:10105C00B32FF58274003EF583ECF0A3EDF0900114
:10106C00BCE004F070C39001BBE004F080BB9000C6
:10107C002DE0540725E02429F582E43401F583E0C2
:10108C00FFA3E0900123CFF0A3EFF0757B00757CFC
:10109C00AB90000F7401F0900123E0FEA3E0FF750C
:1010AC00460075477890000FE0F548754901754A80
:1010BC0000754B047B007A00797B122D659001BD85
:1010CC00EFF0BF011AD214E4900004F0C22C90008F
:1010DC002DE0FF5407C43354E0FEEF4EF08002C203
:1010EC0014123E12202D0302117F90002CE0F522E9
:1010FC00A3E0540725E02429F582E43401F583E0CC
:10110C00FEA3E0FF7C007DAB7B787A001235E38F89
:10111C007AE57A64017055D215C2AF9001BBF0A389
:10112C00F09001BBE0FEA3E0FFC39410EE940050DE
:10113C0035EF25E0FFEE33FE74B32FF58274003EDD
:10114C00F583E0FCA3E0FD74672FF58274003EF597
:10115C0083ECF0A3EDF09001BCE004F070C39001BF
:10116C00BBE004F080BBD2AFD2098002C215C22D05
:03117C00123E120E
:01117F00224D
:0D3E5700E4F58475E8C075BC8075D10722C4
:103AFB00E4F584EF540FF5BBE5BC54F84DF5BCE48D
:103B0B00F5BAC2AFC2EDD2ECC2EDD2EC20ECFDD2D5
:103B1B00AFE5BF5403FEADBE7C00E42DFFEC3EFED3
:013B2B002277
:063E8600E4F584D2A42241
:103DEE00E4F5847F32FE12369FD2A37F327E00121C
:053DFE00369FC2A32264
:023C5F008F577D
:103C6100E4F584755807AF58E557A807088002C3E3
:103C710013D8FC1392A4123DEE1558C3E558648085
:063C8100948050E2C2A491
:013C8700221A
:043B5D008E568F579A
:103B6100E4F58475580FE557AE56A858088005CE80
:103B7100C313CE13D8F91392A4123DEE1558C3E521
:093B8100586480948050DFC2A456
:013B8A002218
:1039D500E4F557F558F559F5847557077F327E009C
:1039E50012369FA2A1E433F558AF57A80708800205
:1039F500C333D8FC4259D2A37F327E0012369FC210
:0E3A0500A31557C3E5576480948050D0AF5985
:013A13002290
:053E9600D292023E86FD
:0C35E3008E438F448C458D468A478B48F0
:1035EF00E4F549F54AD2A0123BE3BF03037F032260
:1035FF00C2927F03123C5FAF44AE43123B5DC3E503
:10360F004A9548E5499547501D1239D5854682851B
:10361F004583EFF00546E54670020545054AE54A44
:10362F0070DC054980D87F197E0012369FD292C276
:03363F00A07F0168
:013642002265
:042D65008E418F42CA
:102D69007552007553201204B285F054F555E542A9
:102D79002547E5413546C3940640037F0222D2A088
:102D8900E547AE467805CEC313CE13D8F9F5518E73
:102D990050E4F54CF54DD3E54D9551E54C95504032
:102DA90003022E3CE54DAE4C7805C333CE33CED865
:102DB900F9F5428E41E54DB5510EE54CB550097511
:102DC9005200E547541FF553123BE3C2927F0212AA
:102DD9003C5FAF42AE41123B5DE4F54EF54FC3E5B2
:102DE9004F9553E54E95525029E548B4011585553F
:102DF90082855483E0FF123C5F0555E5557009054E
:102E0900548005E4FF123C5F054FE54F70D0054E35
:102E190080CC7F197E0012369FD2927F197E0012D4
:102E2900369F123E2F054DE54D6003022D9F054C3F
:072E3900022D9FC2A07F01E2
:012E4000226F
:103BE300C2927F197E0012369F7F06123C5F7F19B7
:103BF3007E0012369FD2927F197E0012369F123EAC
:0A3C03002FBF03037F03227F01227D
:103D3300C2927F05123C5F1239D58F567F197E00E0
:0E3D430012369FD2927F197E0012369FAF5625
:013D5100224F
:0D3E2F00123D33EF547160037F03227F01C9
:013E3C002263
:102C650000316253C4F5A697B988DBEA7D4C1F2E67
:102C75004372211087B6E5D4FACB98A93E0F5C6D57
:102C850086B7E4D5427320113F0E5D6CFBCA99A847
:102C9500C5F4A796013063527C4D1E2FB889DAEB37
:102CA5003D0C5F6EF9C89BAA84B5E6D74071221327
:102CB5007E4F1C2DBA8BD8E9C7F6A5940332615017
:102CC500BB8AD9E87F4E1D2C02336051C6F7A49507
:102CD500F8C99AAB3C0D5E6F4170231285B4E7D6F7
:102CE5007A4B1829BE8FDCEDC3F2A19007366554E7
:102CF50039085B6AFDCC9FAE80B1E2D344752617D7
:102D0500FCCD9EAF38095A6B4574271681B0E3D2C6
:102D1500BF8EDDEC7B4A192806376455C2F3A091B6
:102D25004776251483B2E1D0FECF9CAD3A0B5869A6
:102D350004356657C0F1A293BD8CDFEE79481B2A96
:102D4500C1F0A3920534675678491A2BBC8DDEEF86
:102D550082B3E0D1467724153B0A5968FFCE9DAC76
:103B2C00151EA81EA605151E151EA81EA60608A65F
:103B3C0007A81E0808E6FFA81EE6FE08E66F246527
:103B4C00F582742C3EF583E493FF051E051E051EBD
:013B5C002246
:033EA100023CAF31
:043CAF008E618F6231
:103CB300E562640145617004D294C295E4F563AF93
:0F3CC30062AE61123D8D0563E563C3940940F065
:013CD20022CF
:103A1400EF64014E7037D2947F05FE12369FD29523
:103A24007F057E0012369FC2947F057E0012369F6A
:103A3400C2957F057E0012369FD2957F057E0012C7
:0E3A4400369FD2947F057E0012369FC29522D7
:103D8D00EF64014E7013C2957F05FE12369FD295DA
:0A3D9D007F057E0012369FC29522BA
:063643008F618C628D63B3
:10364900E5636401456270419001E87407F09001F7
:10365900E8E0FFC364809480401DE561A807088005
:1036690002C313D8FC139294AF63AE62123D8D90DE
:1036790001E8E014F080D7D2947F0A7E0012369FC9
:10368900AF63AE62123D8DD2949001E9E0B40103BB
:053699007F00227F010B
:01369E002209
:0637EB008F618C628D630A
:1037F100E4F565F566E56364014562703BD2947555
:103801006407A294E433F566AF63AE62123D8DAFF7
:1038110064E566A807088002C333D8FC42651564D5
:10382100C3E5646480948050D9E56124FF9294AF2C
:0A38310063AE62123D8DD294AF65C4
:01383B00226A
:033EA400023EA13A
:06283B008B418A42894333
:10284100755901755A01755BD6755C01755D017528
:102851005ED785535F8554607B017A0179D27D0112
:102861001221F49001D0EFF0755901755A01755B91
:10287100D6755C01755D01755ED785535F855460C2
:102881007B017A0179D47D021221F49001D1EFF01C
:102891009001D7E0AB50AA51A9521204369001D64B
:1028A100E0AB4DAA4EA94F1204369001D2E0FFA32E
:1028B100E0AB44AA45A946CF8FF01205159001D48B
:1028C100E0FFA3E0AB41AA42A943CF8FF012051567
:1028D1009001D4E0FCA3E0FDE41203369001C8129C
:1028E100073D9001D2E0FCA3E0FDE4120336900124
:1028F100CC12073D755801755901755ACC7B017A87
:102901000179C81224DB9001C8E0FCA3E0FDA3E03B
:10291100FEA3E0FFAB47AA48A9491206B39001CC38
:10292100E0FCA3E0FDA3E0FEA3E0FFAB4AAA4BA9B4
:102931004C1206B39001D0E06004A3E0700AAF54DA
:0A294100AE53123CAF7F00227F016D
:01294B002269
:0821F4008B558A5689578D585E
:1021FC009001D97401F0E49001DEF0A3F0A3120772
:10220C0049000000009001E412074900000000AFF3
:10221C0060AE5F123A14E55824FE601904702AADC2
:10222C0060AC5F7F031236439001D9EFF09001D878
:10223C007403F08014AD60AC5F7F051236439001DF
:10224C00D9EFF09001D87405F0123E4A9001E012DB
:10225C00073DE5606401455F700F20940C9001E42C
:10226C0012074900000001802A123E4A9001E0E06A
:10227C00F8A3E0F9A3E0FAA3E0FBC3EF9BFFEE9A0F
:10228C00FEED99FDEC98FCE47B02FAF9F8D312060A
:10229C008250BFE4FFFEFDFC9001E4E0F8A3E0F9FE
:1022AC00A3E0FAA3E0FBC31206827002807EAD604D
:1022BC00AC5FE4FF1237EB9001DCEFF0AD60AC5F8C
:1022CC00E4FF1237EB9001DDEFF0AD60AC5FE4FFA3
:1022DC001237EB9001DAEFF01238CB9001DAEFF015
:1022EC007D009001D8E0FF7E00123B2CAD079001E1
:1022FC00DCE0FF7E00123B2CAD079001DDE0FF7EA1
:10230C0000123B2C9001DBEFF09001DAE0AB5CAA01
:10231C005DA95E120436AB59AA5AA95BEF120436BA
:10232C009001DBE0FF9001DAE06F600AAF60AE5F16
:10233C00123CAF7F00229001DCE0FEA3E0FDEDFF3C
:10234C00A3EEF0A3EFF0E5589001DEB40106E054E3
:10235C003FF08004E0540FF09001DEE0FFA3E0AB0F
:10236C0055AA56A957CF8FF01205159001D9E0FF49
:01237C00223E
:1024DB008B558A568957AB58AA59A95A1206937B22
:1024EB000A7AD77923783C12011E7BD77AA3791EFF
:1024FB0078C212002DAB58AA59A95A1206B3AB5584
:10250B00AA56A9571206937BA27AE7793B78B612A3
:10251B00011EAB55AA56A95712071112011EC00472
:10252B00C005C006C007AB55AA56A9571206937B28
:10253B00547AE37925783D12011ED003D002D001E5
:10254B00D00012002DE4FBFA798078C012002DAB7D
:10255B0055AA56A9571206B3AB55AA56A957120638
:10256B00937BAC7AC579A7783812011E7B0A7AD790
:10257B007923783C12002DC004C005C006C007AB00
:10258B0058AA59A95A120693E4FBFA79C878C112D2
:10259B00002DD003D002D001D00012011EAB55AAE2
:1025AB0056A95712071112002DAB55AA56A957124F
:1025BB0006B3AB55AA56A957120693E4FBFA79C892
:1025CB0078421202C4500DAB55AA56A95712077A7E
:1025DB0042C80000AB55AA56A9571206937BCD7A79
:1025EB00CC79CC783D1202C4600F400DAB55AA5686
:0A25FB00A95712077A3DCCCCCD227F
:1038CB00E4FE7D807C07EDC394104016EF5DFBA8F2
:1038DB0004088002C313D8FC4206EDC313FD1C1C65
:1038EB0080E47D087C01EDC394014016EF5DFBA8DD
:1038FB0004088002C333D8FC4206EDC313FD0C0C45
:04390B0080E4AF069F
:01390F002295
:0B3E7B00BF0102D282BF0202D28322EC
:103A52008D42C2A3E542B40102C282E542B402022F
:103A6200C283EFC454F04BFF123C5FE545C4F854E7
:103A72000FC868FFE544C454F048FE123B5DE542BE
:0D3A8200B40102D282E542B40202D28322D6
:030000000231B515
:1031B50075EF02E5EF30E106438701858787787F64
:0A31C500E4F6D8FD7581A702320A76
:100026000203DBE86480F8E933E83360110460F02A
:10003600ED33EC337009E8FCE9FDEAFEEBFF220440
:1000460060DED3EB9FEA9EE99DE8C2E78CF0C2F73B
:1000560095F0400CE8CCF8E9CDF9EACEFAEBCFFB07
:100066001203A685D0F05804700320D5B3E80470B7
:10007600075002B2D50203E592D5EC0460F7E4CC52
:10008600C0E0C398F8603B94186008400DD0E0FBD0
:100096000203BDE4FBFAC9FC8028E830E406E4C9A3
:1000A600FBE4CAFCE830E305E4C9CACBFCE8540724
:1000B6006010F8C3E913F9EA13FAEB13FBEC13FC2F
:1000C600D8F130F52FC3E49CFCEF9BFFEE9AFEEDD2
:1000D60099FDD0E0FBEF4E4D4C701222DB0302037C
:1000E600E2EC2CFCEF33FFEE33FEED33FDED30E7B3
:1000F600EB0203BDEF2BFFEE3AFEED39FDD0E0FB40
:1001060050130BBB00030203E5ED13FDEE13FEEFE8
:0801160013FFEC13FC0203BD12
:10011E00EC4D6011E8497017ED33EC3304600DE4DB
:10012E00FCFFFEFD22E933E8330470F80203DB1214
:10013E0003A658046009E4CC248150062850090215
:10014E0003E52840030203E2C0E0EB4A7044B980A5
:10015E0006D0E0FB0203D1EF4E701CBD8008EBFF12
:10016E00EAFEE9FD80EBE98DF0A4FEE5F002020760
:10017E00E9CDF9EAFEEBFFEF89F0A4FCE5F0CE89BC
:10018E00F0A42EFFE435F0CD89F0A42DFEE435F079
:10019E008067EF4E7005BD80D780C3EF8BF0A4ACA7
:1001AE00F0EE8BF0A42CFCE435F0F8EF8AF0A42CE2
:1001BE00E5F038FCE433CB8DF0A42CFCE5F03BF8F5
:1001CE00EE8AF0A42CFCE5F038F8E433CF89F0A4E5
:1001DE002CFCE5F038CF3400CE89F0A42FFFE5F0EB
:1001EE003EFEE433C98DF0A42EFEE5F039CD8AF043
:1001FE00A42FFFE5F03EFEE43DFD33D0E0FB5007BB
:10020E000BBB000F0203E5EC2CFCEF33FFEE33FECD
:06021E00ED33FD0203BDFB
:100224000203E5EC5D046005E8590470030203DB96
:100234001203A6580460F6EC4860F2EC7004FDFE6C
:10024400FF22C860DB2481C85009C39860025006AD
:100254000203E29850CAF582E9294B4A7005AB8241
:100264000203D175F0007C1A7880C3EF9BEE9AEDFF
:1002740099400DC3EF9BFFEE9AFEED99FDE842F025
:10028400DC23ACF0D0E0FFD0E0FED0E0FDAB822078
:10029400E7101BEB60BAEC2CFCEF33FFEE33FEED02
:1002A40033FD0203BDE803F830E705C0F075F00044
:1002B400EF2FFFEE33FEED33FD40B830E7C280AAE6
:1002C40074F8CC6480CCC86480C8F582046043C3ED
:1002D400EB9FF5F0EA9E42F0E99D42F0E89C45F080
:1002E40060305018E5825FFFE582F42B5582FB50A5
:1002F400210ABA001D09B90019088016E5825BFBC2
:10030400E582F42F5582FF50090EBE00050DBD0095
:10031400010CC3EB9FF5F0EA9E42F0E99D42F0E840
:0D0324009C45F06007CC4820E701B3EC22B7
:1003310075F020800E75F010800575F0087D007E47
:10034100007F003392D530D50312065EEC334010A6
:10035100EF33FFEE33FEED33FDEC33FCD5F0ED2250
:0E036100E5F0247EA2D513CC92E7CDCEFF228C
:10036F00EDD2E7CD33EC3392D524814006E4FFFE86
:10037F00FDFC22FCE4CFCECDCC24E0501174FF80E5
:10038F00EDC3CC13CCCD13CDCE13CECF13CF047082
:07039F00F030D5DE02065E1E
:1003A600E9D2E7C933E833F892D5EDD2E7CD33EC9D
:0703B60033FC5002B2D52216
:1003BD00EC30E7100FBF000C0EBE00080DBD0004A1
:1003CD000BEB6014A2D5EB13FCED92E7FD2274FF4D
:1003DD00FCFDFEFF22E480F8A2D574FF13FC7D80A6
:0303ED00E480EFBA
:1031CF00023E70E493A3F8E493A34003F68001F268
:1031DF0008DFF48029E493A3F85407240CC8C33301
:1031EF00C4540F4420C8834004F456800146F6DFD0
:1031FF00E4800B0102040810204080902FC2E47E6F
:10320F00019360BCA3FF543F30E509541FFEE493C4
:10321F00A360010ECF54C025E060A840B8E493A38B
:10322F00FAE493A3F8E493A3C8C582C8CAC583CAB6
:10323F00F0A3C8C582C8CAC583CADFE9DEE780BE6E
:01307400005B
:1003F000BB010689828A83E0225002E722BBFE020B
:09040000E32289828A83E493223D
:10040900BB010CE58229F582E5833AF583E02250A8
:1004190006E92582F8E622BBFE06E92582F8E222F2
:0D042900E58229F582E5833AF583E493220C
:10043600BB010689828A83F0225002F722BBFE01A5
:02044600F3229F
:10044800F8BB010DE58229F582E5833AF583E8F0EA
:10045800225006E92582C8F622BBFE05E92582C896
:02046800F2227E
:10046A00EF8DF0A4A8F0CF8CF0A428CE8DF0A42EA6
:02047A00FE2260
:10047C00C2D5EC30E709B2D5E4C39DFDE49CFCEE9B
:10048C0030E715B2D5E4C39FFFE49EFE120822C3E9
:10049C00E49DFDE49CFC800312082230D507C3E4E4
:0604AC009FFFE49EFE220A
:1004B200BB010A89828A83E0F5F0A3E02250068715
:1004C200F009E71922BBFE07E3F5F009E3192289D7
:0B04D200828A83E493F5F0740193220A
:1004DD00BB010789828A83020877500B09C5F02773
:1004ED00F7C5F01937F722BBFE0D09F8E325F0F338
:1004FD00C5F019E338F322F889828A8374019325B4
:08050D00F0C5F0F8E493382278
:10051500BB010A89828A83F0E5F0A3F0225006F731
:0F05250009A7F01922BBFE06F3E5F009F319222E
:10053400E88FF0A4CC8BF0A42CFCE98EF0A42CFC66
:100544008AF0EDA42CFCEA8EF0A4CDA8F08BF0A4E4
:100554002DCC3825F0FDE98FF0A42CCD35F0FCEB43
:100564008EF0A4FEA9F0EB8FF0A4CFC5F02ECD3908
:0F057400FEE43CFCEAA42DCE35F0FDE43CFC2275
:1005830075F008758200EF2FFFEE33FECD33CDCC2F
:1005930033CCC58233C5829BED9AEC99E5829840B2
:1005A3000CF582EE9BFEED9AFDEC99FC0FD5F0D68F
:1005B300E4CEFBE4CDFAE4CCF9A88222B800C1B9B9
:1005C3000059BA002DEC8BF084CFCECDFCE5F0CBF7
:1005D300F97818EF2FFFEE33FEED33FDEC33FCEB30
:1005E30033FB10D703994004EB99FB0FD8E5E4F9EB
:1005F300FA227818EF2FFFEE33FEED33FDEC33FCD8
:10060300C933C910D7059BE99A4007EC9BFCE99ACB
:10061300F90FD8E0E4C9FAE4CCFB2275F010EF2F10
:10062300FFEE33FEED33FDCC33CCC833C810D70710
:100633009BEC9AE899400AED9BFDEC9AFCE899F84B
:0E0643000FD5F0DAE4CDFBE4CCFAE4C8F922DE
:0D065100CFF4CFCEF4CECDF4CDCCF4CC223E
:0E065E00C3E49FFFE49EFEE49DFDE49CFC22AD
:10066C00EB9FF5F0EA9E42F0E99D42F0EC6480C805
:06067C0064809845F022A5
:10068200EB9FF5F0EA9E42F0E99D42F0E89C45F0CE
:010692002245
:10069300BB010789828A830208995005E9F8020899
:1006A3008DBBFE05E9F80208A589828A830206F15B
:1006B300BB010789828A8302073D5005E9F80207D7
:0A06C30031BBFE05E9F80208D7225A
:1006CD00BB010DE58229F582E5833AF58302073DED
:1006DD005007E92582F8020731BBFE07E92582F8AC
:0406ED000208D72206
:1006F100E493FC740193FD740293FE740393FF224F
:10070100E493F8740193F9740293FA740393FB224E
:10071100BB010789828A830208BE5005E9F80208F5
:10072100B1BBFE05E9F80208CA89828A8302070182
:0C073100ECF608EDF608EEF608EFF622F4
:0C073D00ECF0A3EDF0A3EEF0A3EFF0222F
:10074900A8828583F0D083D08212076012076012D5
:100759000760120760E473E493A3C583C5F0C583FA
:10076900C8C582C8F0A3C583C5F0C583C8C582C8FA
:01077900225D
:10077A00BB010789828A830207495005E9F8020802
:0A078A00E3BBFE05E9F80208FC22BB
:0C079400A42582F582E5F03583F5832270
:1007A000BB010DE58229F582E5833AF58302091E36
:1007B0005007E92582F8020915BBFE07E92582F8F2
:1007C000020927E58229F582E5833AF5830209309B
:1007D000D083D082F8E4937012740193700DA3A3B8
:1007E00093F8740193F5828883E4737402936860CC
:0607F000EFA3A3A380DFCC
:103748008B438A448945E4F54BF54CE54A154AAE66
:1037580049700215494E6033AB46AA47A94812037F
:10376800F0FFAB43AA44A945054CE54CAC4B7002AD
:10377800054B14F5828C83EF120448EF60CD740179
:103788002548F548E43547F54780C0AB43AA44A926
:023798004522C8
:1007F600EF4E6012EF60010EEDBB010B89828A831A
:10080600F0A3DFFCDEFA2289F05007F709DFFCA926
:0C081600F022BBFEFCF309DFFCA9F0227D
:10082200BC000BBE0029EF8DF084FFADF022E4CCBA
:10083200F875F008EF2FFFEE33FEEC33FCEE9DEC83
:10084200984005FCEE9DFE0FD5F0E9E4CEFD22EDC9
:10085200F8F5F0EE8420D21CFEADF075F008EF2F13
:10086200FFED33FD4007985006D5F0F222C398FD04
:050872000FD5F0EA22A1
:10087700C5F0F8A3E028F0C5F0F8E582158270020C
:060887001583E038F022A9
:0C088D00E6FC08E6FD08E6FE08E6FF2297
:0C089900E0FCA3E0FDA3E0FEA3E0FF22D2
:0C08A500E2FC08E2FD08E2FE08E2FF228F
:0D08B100E6FB08E6F908E6FA08E6CBF822B7
:0C08BE00E0F8A3E0F9A3E0FAA3E0FB22BD
:0D08CA00E2FB08E2F908E2FA08E2CBF822AE
:0C08D700ECF208EDF208EEF208EFF2225D
:1008E300D083D082E493F608740193F608740293DC
:0908F300F608740393F674047313
:1008FC00D083D082E493F208740193F208740293CB
:09090C00F208740393F274047301
:09091500E6FB08E6FA08E6F92207
:09091E00E0FBA3E0FAA3E0F922DA
:09092700E2FB08E2FA08E2F92201
:0C093000E493FB740193FA740293F92223
:00000001FF
