:1017570074656D7033360004340000005365726998
:10176700616C4E000110F802340000004572726F80
:10177700720000000110FC0134000000436F6E741A
:10178700726F6C000110FE01340000005374617425
:10179700757300000110FF013400000045455061DA
:1017A7006765000001110002340000004E61766792
:1017B700650000000111010134000000544530317B
:1017C7002D30380001110301340000005445303931
:1017D7002D31360001110401340000005445313722
:1017E7002D32340001110501340000005445323513
:1017F7002D33320001110601340000005445333304
:101807002D333600011107040800000154656D707F
:1018170030310000011108040800000154656D70A3
:101827003032000001110C040800000154656D708E
:1018370030330000011110040800000154656D7079
:1018470030340000011114040800000154656D7064
:1018570030350000011118040800000154656D704F
:101867003036000001111C040800000154656D703A
:1018770030370000011120040800000154656D7025
:1018870030380000011124040800000154656D7010
:1018970030390000011128040800000154656D70FB
:1018A7003130000001112C040800000154656D70EF
:1018B70031310000011130040800000154656D70DA
:1018C70031320000011134040800000154656D70C5
:1018D70031330000011138040800000154656D70B0
:1018E7003134000001113C040800000154656D709B
:1018F70031350000011140040800000154656D7086
:1019070031360000011144040800000154656D7070
:1019170031370000011148040800000154656D705B
:101927003138000001114C040800000154656D7046
:1019370031390000011150040800000154656D7031
:1019470032300000011154040800000154656D7025
:1019570032310000011158040800000154656D7010
:101967003232000001115C040800000154656D70FB
:1019770032330000011160040800000154656D70E6
:1019870032340000011164040800000154656D70D1
:1019970032350000011168040800000154656D70BC
:1019A7003236000001116C040800000154656D70A7
:1019B70032370000011170040800000154656D7092
:1019C70032380000011174040800000154656D707D
:1019D70032390000011178040800000154656D7068
:1019E7003330000001117C040800000154656D705C
:1019F70033310000011180040800000154656D7047
:101A070033320000011184040800000154656D7031
:101A170033330000011188040800000154656D701C
:101A27003334000001118C040800000154656D7007
:101A370033350000011190040800000154656D70F2
:101A47003336000001119404080000015245460096
:101A57000000000001119804080000015461766736
:101A67003031000001119C040800000154617667C1
:101A7700303200000111A0040800000154617667AC
:101A8700303300000111A404080000015461766797
:101A9700303400000111A804080000015461766782
:101AA700303500000111AC0408000001546176676D
:101AB700303600000111B004080000015461766758
:101AC700303700000111B404080000015461766743
:101AD700303800000111B80408000001546176672E
:101AE700303900000111BC04080000015461766719
:101AF700313000000111C00408000001546176670D
:101B0700313100000111C4040800000154617667F7
:101B1700313200000111C8040800000154617667E2
:101B2700313300000111CC040800000154617667CD
:101B3700313400000111D0040800000154617667B8
:101B4700313500000111D4040800000154617667A3
:101B5700313600000111D80408000001546176678E
:101B6700313700000111DC04080000015461766779
:101B7700313800000111E004080000015461766764
:101B8700313900000111E40408000001546176674F
:101B9700323000000111E804080000015461766743
:101BA700323100000111EC0408000001546176672E
:101BB700323200000111F004080000015461766719
:101BC700323300000111F404080000015461766704
:101BD700323400000111F8040800000154617667EF
:101BE700323500000111FC040800000154617667DA
:101BF70032360000011200040800000154617667C4
:101C070032370000011204040800000154617667AE
:101C17003238000001120804080000015461766799
:101C27003239000001120C04080000015461766784
:101C37003330000001121004080000015461766778
:101C47003331000001121404080000015461766763
:101C5700333200000112180408000001546176674E
:101C67003333000001121C04080000015461766739
:101C77003334000001122004080000015461766724
:101C8700333500000112240408000001546176670F
:101C970033360000011228043400000865657056C9
:101CA700616C756501122C04340000086565437486
:101CB70072536574011230040800000953485474C4
:101CC700656D7000011234040A0000095348546816
:101CD700756D6900011238040800000953485474EF
:101CE700656D703201123C040A00000953485468BC
:101CF700756D6932011240023400000844414330D7
:101D0700000000000112440234000008444143313E
:101D1700000000000112460234000008444143322B
:101D27000000000001124802340000084441433318
:101D37000000000001124A02340000084441433405
:101D47000000000001124C023400000844414335F2
:101D57000000000001124E023400000844414336DF
:101D670000000000011250023400000844414337CC
:101D770000000000011252000000000000000000F7
:071D87000000000000000055
:102E37004912C048494A4B4C4D4E4F50480003FE7B
:102E4700FDFBF7EFDFBF7F48125E01020408102089
:102E570040804812C90000020004000600605012BA
:102E67006A00000000006E000A0020003000200009
:102E770020001000100030001000000010000000BB
:102E8700000010002000100020FFF000200030009C
:102E970020003000400040002000300040000000CB
:102EA700100010002000300030002000200010002B
:102EB700200191010C82245265763A20393137205E
:102EC70024004100010041000F00018E000372FF42
:022ED700175E84
:0F3B1000C2AF9010FEE522F0A3E523F0D2AF2262
:103AFF00C2AFD2339010FCE520F0A3E521F0D2AF96
:013B0F002293
:103AE8009010FEE522F0A3E523F09010FCE520F00D
:073AF800A3E521F0D2AF228B
:08274B008F418E408D3F8C3E52
:10275300E4F546F547E547AE467803C333CE33CEBB
:10276300D8F9249CF58274113EF583E0F8A3E0F9CF
:10277300A3E0FAA3E0FBAF41AE40AD3FAC3E120F86
:10278300FD8F458E448D438C42E4FBFA798078407B
:102793001210F28F458E448D438C42E4FFFE7D8000
:1027A3007C41AB45AA44A943A8421210F212134339
:1027B300AD07AC06E54725E0FFE54633FE74962FEB
:1027C300F58274123EF583ECF0A3EDF0E547AE46D7
:1027D3007803C333CE33CED8F924A0F58274113EE7
:1027E300F583E0F8A3E0F9A3E0FAA3E0FBAF41AE81
:1027F30040AD3FAC3E120FFD8F458E448D438C425E
:10280300E4FBFA798078401210F28F458E448D43B1
:102813008C42E4FFFE7D807C41AB45AA44A943A8DA
:10282300421210F2121343AC06AD07E54725E0FF51
:10283300E54633FE74722FF58274123EF583ECF095
:10284300A3EDF00547E5477002054664124546606F
:0428530003022758FD
:01285700225E
:103A1A00EF20E00AEEC313FEEF1324168008EEC36C
:0E3A2A0013FEEF132404FDE43EFCAF05AE04D2
:013A3800226B
:0220BD008F4250
:1020BF00E47896F67896E6FFC39404501774882F49
:1020CF00F9C3E7648094B05006E62488F876307838
:1020DF00960680E07889E6FF3395E0FEEF24D0FF87
:1020EF00EE34FFFE7C007D6412143EAA06AB077827
:1020FF0088E6FF3395E0FEEF24D0FFEE34FFFE7C41
:10210F00037DE812143EEF2BFBEE3AFA788AE6FFD6
:10211F003395E0FEEF24D0FFEE34FFFE7C007D0A06
:10212F0012143EEF2BFFEE3AFE788BE6FD3395E06F
:10213F00FCED24D0FDEC34FFCD2FF50DED3EF50C6D
:10214F0075840F43A63153A6FB123B837C127D6A25
:10215F007B507A007F007E06123514C2AF90126A50
:10216F00E0FCA3E0FDA3E0FEA3E0FF9010F8121542
:10217F009CD2AF9012C9E0FEA3E0FF7C127D6A7B78
:10218F00507A00123514C2AF901270E0FFA3E090A6
:10219F001101CFF0A3EFF0D2AF75840F43A41875E0
:1021AF00840243888075890375840143888075890B
:1021BF00037F017E00123B887F027E00123B88E482
:1021CF00788FF6788FE6FD25E02496F582E43412B9
:1021DF00F583E0FAA3E0FBEAFF8B488F4774C02D2D
:1021EF00F582E43412F583E0FFE4F546F549754ACC
:1021FF0001754B01754C10754DF27B037DE1122378
:10220F00DA7F647E001233FB788F06E6C3940940B1
:10221F00B27F2C7E011233FB788F7609788FE6FD23
:10222F0025E02496F582E43412F583E0FAA3E0FB6F
:10223F00EAFF8B488F4774B72DF582E43412F5838C
:10224F00E0FFE4F546F549754A02754B01754C10F0
:10225F00754DF27B037DE11223DA7F647E0012332A
:10226F00FB788F06E6C3941240B27F2C7E011233A7
:10227F00FBE4788FF6788FE6FD25E02472F582E493
:10228F003412F583E0FAA3E0FBEAFF8B488F477423
:10229F00C02DF582E43412F583E0FFE4F546F549ED
:1022AF00754A01754B01754C10754DF27B037DE03E
:1022BF001223DA7F647E001233FB788F06E6C39415
:1022CF000940B27F2C7E011233FB788F7609788F0D
:1022DF00E6FD25E02472F582E43412F583E0FAA3DB
:1022EF00E0FBEAFF8B488F4774B72DF582E4341279
:1022FF00F583E0FFE4F546F549754A02754B017524
:10230F004C10754DF27B037DE01223DA7F647E0063
:10231F001233FB788F06E6C3941240B27F2C7E01F6
:10232F001233FBC2AFE4901103F0A3F0A3F0A3F0BC
:10233F00A3F09010FFF09012341215A800000000C7
:10234F009012381215A80000000090123C1215A828
:10235F00000000009012401215A800000000E47861
:10236F0096F67896E6FFC39424501B75F004EFA4FD
:10237F002408F582E5F03411F5831215A80000004A
:10238F000078960680DCE4901100F0A3F0A374149B
:10239F00F0E47896F67896E6FFC39424501B75F018
:1023AF0004EFA4249CF582E5F03411F5831215A8EF
:1023BF000000000078960680DC9011981215A80096
:0A23CF00000000D2AFC230E4F52395
:0123D90022E1
:10390400151EA81EA607A81EE6FFB402069010FE08
:10391400E0F522EFB45502D230A81EE6B40508E45F
:0A39240090000FF0788EF6051E22C9
:053B79008F387F0022DF
:1038AC008B388A39893A1213C4AB3BAA3CA93D1216
:1038BC00140AAB38AA39A93A9000011213DDAB3BBC
:0D38CC00AA3CA93D90000112141C7F0222AD
:10081700E4788FF6788FE6FFC3940940030209470F
:1008270074C02FF582E43412F583E0FF754602E4C5
:10083700F547F548F549754A01754B01754C107533
:100847004DF27B017D021223DAEF60030208DAC260
:10085700AF9010F2E0FCA3E0FDA3E0FEA3E0FF7879
:100867008FE6FB75F008A42408F582E5F03411F54E
:100877008312159CEBC39404501B901103E0FFEB0C
:1008870025E02403F582E43400F583E0FEEF5E9073
:100897001103F0803AEBC39408501B901104E0FF5A
:1008A700EB25E024FBF582E434FFF583E0FEEF5E01
:1008B700901104F08019901105E0FFEB25E024F377
:1008C700F582E434FFF583E0FEEF5E901105F0D288
:1008D700AF8067C2AF788FE6FFC39404501B9011B7
:1008E70003E0FEEF25E0245EF582E43412F583E0B1
:1008F700FFEE4F901103F0803F788FE6FFC3940817
:10090700501B901104E0FEEF25E02456F582E434F5
:1009170012F583E0FFEE4F901104F0801B90110554
:10092700E0FF788FE625E0244EF582E43412F58364
:10093700E0FEEF4E901105F0D2AF788F0602081B4C
:10094700122C07788F7609788FE6FFC3941240033D
:10095700020A7A74B72FF582E43412F583E0FF7543
:100967004602E4F547F548F549754A02754B0175A6
:100977004C10754DF27B017D021223DAEF60030202
:100987000A0DC2AF9010F2E0FCA3E0FDA3E0FEA3C6
:10099700E0FF788FE6FB75F008A42408F582E5F000
:1009A7003411F58312159CEBC3940C501B90110561
:1009B700E0FFEB25E024F3F582E434FFF583E0FE66
:1009C700EF5E901105F0803AEBC39410501B901125
:1009D70006E0FFEB25E024EBF582E434FFF583E046
:1009E700FEEF5E901106F08019901107E0FFEB25EE
:1009F700E024E3F582E434FFF583E0FEEF5E901137
:100A070007F0D2AF8067C2AF788FE6FFC3940C5070
:100A17001B901105E0FEEF25E0244EF582E4341229
:100A2700F583E0FFEE4F901105F0803F788FE6FFEA
:100A3700C39410501B901106E0FEEF25E02446F505
:100A470082E43412F583E0FFEE4F901106F0801B2D
:100A5700901107E0FF788FE625E0243EF582E43425
:100A670012F583E0FEEF4E901107F0D2AF788F06B4
:100A770002094E122C07E4788FF6788FE6FFC394AD
:100A8700094003020BAD74C02FF582E43412F583DD
:100A9700E0FF754602E4F547F548F549754A0175E3
:100AA7004B01754C10754DF27B017D011223DAEF76
:100AB7006003020B40C2AF9010F2E0FCA3E0FDA37D
:100AC700E0FEA3E0FF788FE6FB75F008A4240CF5A1
:100AD70082E5F03411F58312159CEBC39404501B87
:100AE700901103E0FFEB25E02404F582E43400F5E0
:100AF70083E0FEEF5E901103F0803AEBC394085059
:100B07001B901104E0FFEB25E024FCF582E434FFA1
:100B1700F583E0FEEF5E901104F08019901105E077
:100B2700FFEB25E024F4F582E434FFF583E0FEEFE4
:100B37005E901105F0D2AF8067C2AF788FE6FFC332
:100B47009404501B901103E0FEEF25E0245FF5822B
:100B5700E43412F583E0FFEE4F901103F0803F7805
:100B67008FE6FFC39408501B901104E0FEEF25E0C9
:100B77002457F582E43412F583E0FFEE4F90110419
:100B8700F0801B901105E0FF788FE625E0244FF5F4
:100B970082E43412F583E0FEEF4E901105F0D2AFF8
:100BA700788F06020A81122C07788F7609788FE6EC
:100BB700FFC394124003020CE074B72FF582E434AC
:100BC70012F583E0FF754602E4F547F548F54975E8
:100BD7004A02754B01754C10754DF27B017D011270
:100BE70023DAEF6003020C73C2AF9010F2E0FCA3AC
:100BF700E0FDA3E0FEA3E0FF788FE6FB75F008A415
:100C0700240CF582E5F03411F58312159CEBC3949F
:100C17000C501B901105E0FFEB25E024F4F582E46E
:100C270034FFF583E0FEEF5E901105F0803AEBC3E9
:100C37009410501B901106E0FFEB25E024ECF582A1
:100C4700E434FFF583E0FEEF5E901106F080199023
:100C57001107E0FFEB25E024E4F582E434FFF58398
:100C6700E0FEEF5E901107F0D2AF8067C2AF788FDA
:100C7700E6FFC3940C501B901105E0FEEF25E0241E
:100C87004FF582E43412F583E0FFEE4F901105F043
:100C9700803F788FE6FFC39410501B901106E0FE4B
:100CA700EF25E02447F582E43412F583E0FFEE4FA9
:100CB700901106F0801B901107E0FF788FE625E082
:100CC700243FF582E43412F583E0FEEF4E901107DE
:100CD700F0D2AF788F06020BB4122C07901101E007
:100CE700FEA3E0FFD3941EEE94004003020E33EF01
:100CF7004E7003020E3390000FE0FF7E009011014B
:100D0700E0FCA3E0FDB5070CEEB5040890000F74F6
:100D170001F0801190000FE004F0788EE66D70010D
:100D2700EC6002E0F6E4788FF6788FE6FBC3942454
:100D37004003020E3375F004EBA42408F582E5F0B6
:100D47003411F583E0FCA3E0FDA3E0FEA3E0FF750B
:100D5700F078EBA4240EF582E5F03400F583C08328
:100D6700C08290000FE0D082D08375F0041215D9AD
:100D770012159C9012661215A800000000E47890E6
:100D8700F67990E7C3788E96503F901266E0FCA301
:100D9700E0FDA3E0FEA3E0FF08E675F078A42412C7
:100DA700F582E5F03400F58308E675F0041215D9ED
:100DB700E0F8A3E0F9A3E0FAA3E0FB121001901218
:100DC7006612159C78900680B8901266E0FCA3E046
:100DD700FDA3E0FEA3E0FFC004C005C006C007787E
:100DE7008EE6FCE412130FA804A905AA06AB07D0E8
:100DF70007D006D005D0041211FB90126612159C7D
:100E0700C2AF901266E0FCA3E0FDA3E0FEA3E0FF03
:100E1700788FE675F004A4249CF582E5F03411F58B
:100E27008312159CD2AF788F06020D302030030253
:100E37000EFD901230E0FCE4FFFEFDEC543CFC702C
:100E470003020EED901230E0FCA3E0FDA3A3E0FF48
:100E5700E4FEC3EF942474809480507A123A1AEF18
:100E670025E0FFEE33FEEF246AF571EE3412F570DC
:100E7700901230A3E0FDE4FEED5422FDE4FCED60AA
:100E87001690122CA3A3E0FFA3E0857182857083DF
:100E9700CFF0A3EFF0805D901230A3E0FDE4FFFEFA
:100EA700ED5411FDE4FCED601DC2AF8571828570C4
:100EB70083E0FEA3E0FFEE3395E0FDFC90122C12D9
:100EC700159CD2AF802EC2AF9012301215A8FF002A
:100ED7000000D2AF801EC2AF9012301215A80000DA
:100EE700FF00D2AF800EC2AF9012301215A800FFDC
:100EF7000000D2AFC230201403020F8D900001E032
:100F070070279010FFE0F523A3E0540725E024C9DC
:100F1700F582E43412F583E0FFA3E09012BECFF030
:100F2700A3EFF075751275766A301607E490001115
:100F3700F080069000117401F09012BEE0FEA3E06D
:100F4700FF754300754450900011E0F54575460163
:100F57007547007548017B007A007975122A6290FF
:100F67000010EFF0BF0118D21CE4900001F09011BF
:100F770000E0FF5407C43354E0FEEF4EF08002C296
:100F87001CC214123B103015379010FFE0F523A355
:100F9700E0540725E024C9F582E43412F583E0FE26
:100FA700A3E0FF7C127D6A7B507A00123514788F9C
:100FB700EFF6BF0104D21D8002C21DC215123B10FD
:100FC700301125901198E0FCA3E0FDA3E0FEA3E01B
:100FD700FF12274BD219C211C2AF9010FFE523F0C1
:100FE7009010FEE522F0D2AF7A007B967D017F005C
:030FF70002323B88
:0C3B5500245265763A20393131202400DA
:101D8E00E47880F6123B1F75840F75E104E4F5E2EA
:101D9E0075E34475E104F5E275E34075840F758AC9
:101DAE0081F597F58475B7B075840F758A83F597AD
:101DBE00438901758D01758F01758E04F540F541CE
:101DCE000541E54170020540640F454070F24389BC
:101DDE0002E4F540F541AE40AF41E4FCFD7B507AA4
:101DEE00C3F9F8D31214F7400FE58920E40A054130
:101DFE00E54170E2054080DE759702123A39E4F54E
:101E0E0040F5417D01AF411239D30541E5417002E4
:101E1E000540C39402E540940040E8E4F524C22A4C
:101E2E00C228C22EC22DC22C7880F6C22F75840F06
:101E3E0043A46043A610123B6C7DA57F90123AB26C
:101E4E00C282E47881F678A0F618F678A5F6F54009
:101E5E00F54174E12541F582E43412F583E4F00591
:101E6E0041E541700205406440454070E5E4F540AF
:101E7E00F54174212541F582E43413F583E4F00530
:101E8E0041E541700205406440454070E5E4F5844B
:101E9E00E5EF20E10CE5EF5408D394004003D38026
:101EAE0001C392237D08E4FF123958E478A4F67832
:101EBE009DF6AB72AA73A974789DE6FF75F010A417
:101ECE00F58285F0831213DDFE78A426F6EE60050A
:101EDE00789D0680DDEFD394004030AB72AA73A9D3
:101EEE007490000D1215E51213C4FF745512140AE6
:101EFE001213C464556002D22C74AA12140A12135F
:101F0E00C464AA6002D22CEF12140AE4F584E5EF41
:101F1E005402D3940040047F018002E4FF122B3E52
:101F2E008F3FE53F20E035C22974FFF508F509F52E
:101F3E000AF50B7E007F107D007B007A00790E1271
:101F4E00163B7545FF754617754757754800754919
:101F5E00107B007A00790E1235748002D229903BE4
:101F6E005CE493FF3395E0FEEF24D0FFEE34FFFEEA
:101F7E007C007D6412143EAA06AB07903B5BE49393
:101F8E00FF3395E0FEEF24D0FFEE34FFFE7C037DA1
:101F9E00E812143EEF2BFBEE3AFA903B5DE493FF12
:101FAE003395E0FEEF24D0FFEE34FFFE7C007D0A79
:101FBE0012143EEF2BFFEE3AFEA3E493FD3395E0B1
:101FCE00FCED24D0FDEC34FFCD2FF50DED3EF50CE0
:101FDE00E53F30E103022094E4F540F541E541C4CC
:101FEE00F8540FC868FFE540C454F048FEAB72AA1F
:101FFE0073A9748F82F5831213DD700302208BE9AF
:10200E002FF9EA3EFA9000041213DD20E264E4F5A3
:10201E003EE53EC37891965059E541C4F8540FC839
:10202E0068FFE540C454F048AB72AA73A9748F825E
:10203E00F5831213DDFF7E00C006C0077D00E5416B
:10204E00C4F8540FC868FFE540C454F048FEE92FA9
:10205E00F9EA3EFA90000D1215E578A4E6853EF0F9
:10206E00A429F9EA35F0FAD007D00612163B053E40
:10207E00809F0541E54170020540021FEB7F011272
:10208E0020BDC22B8007E4FF1220BDD22BE4F54009
:10209E00F5417A007B967D03AF4112323B0541E557
:0E20AE004170020540C39402E540940040E4F6
:0120BC002201
:053B7E0078A5E6FF221E
:030023000225298A
:10252900C0E0C0F0C083C082C0D075D000C000C078
:1025390001C002C003C004C005C006C00730993EEF
:10254900C29978A00679A0E77881667015F678A017
:01255900F68B
:0D255A0075270A75281300D528FCD527F633
:04256700C282801C90
:0D256B0075271475281300D528FCD527F618
:1025780078A0E62421F582E43413F583E0F5992068
:102588009803022621209A08202A05C29802261DAF
:10259800C29A789FE60624E1F582E43412F583E5D1
:1025A80099F0C298E6FFB401129012E1E0FE7003C0
:1025B800F68066EE5407240278A6F6EFB4020D788A
:1025C800A6E6B409079012E2E02403F6789FE6FF36
:1025D800B4400476008042EFC378A696403B789FCB
:1025E800E624FFFDE434FFFC7B017A1279E1123026
:1025F800B6789FE624E0F582E43412F583E06F6054
:052608000476008014BF
:0D260D0075271475281300D528FCD527F675
:10261A00120026789F7600D007D006D005D004D0C5
:10262A0003D002D001D000D0D0D082D083D0F0D055
:02263A00E0328C
:1031C0009012E2E075F010A4AB722574F9E5733546
:1031D000F0FA90000D1215E578A5E6FF18E68FF0DD
:1031E000A4252BF582E435F0F5831213DDFF7B0077
:0431F0007A007929BF
:1031F4008F388B398A3A893BE4F584EA494B601C61
:10320400AB39AA3AA93B1213C4FFE538FD7C00127E
:0C3214000003AB39AA3AA93BEF12140AE0
:0D322000753C14753D1300D53DFCD53CF602
:0E322D008538997F011239813099FDC29922AE
:093A9500E4F5847881EFF6D28299
:0D3A9E0075381475391300D539FCD538F68C
:073AAB00901321E0F59922C0
:10366400C9EFC9E964017028EDC39B40347891E641
:10367400FFEB2FFFE433FEEDC39FEE6480F874800C
:1036840098501ED22AC3ED9B78A5F678A176012224
:10369400B90214ED6B700AD22A78A5F678A17602E5
:0836A40022C22AE478A1F622FB
:1034B300C9EFC9BAFF15BBFF12ED6B7002EC6A705E
:1034C30049D22A78A5F678A1E9F622E964017025A4
:1034D300C3ED9BEC9A401C7891E62BFFE43AFEC3C4
:1034E300ED9FEC9E500DD22AC3ED9B78A5F678A1F3
:1034F3007601228015B90218ED6B7002EC6A700A2E
:10350300D22A78A5F678A1760222C22AE478A1F617
:013513002295
:100026009012E1E0FF54F8F52AE4F584EF12161574
:1000360000760900820A009210009B1100AB1200A4
:10004600BF1900D41A00F62000FF2801B92902BB07
:100056003302ED37031D39033741034249034D4E41
:1000660003805003C86102857003C098000003F83E
:100076009012E2E0FDE509FB7F0180239012E2E0A9
:10008600FCA3E0FDAB09AA087F018027D22A78A14C
:1000960076030203F89012E2E0FDE50BFB7F021205
:1000A60036640203F89012E2E0FCA3E0FDAB0BAA73
:1000B6000A7F021234B30203F89012E2E0FDE5096A
:1000C600FB7F01123664202A030203F88017901280
:1000D600E2E0FCA3E0FDAB09AA087F011234B320DD
:1000E6002A030203F89013217478F07F010203F5C6
:1000F600E4F58475EF120203F8C2ACE4F529D28266
:10010600FB7A0079297F7F1231F47B007A00792906
:100116007F1E1231F47B007A0079297F051231F4B3
:10012600789DE61231ED7B007A007929AF0812310D
:10013600F47B007A007929AF091231F47B007A004A
:100146007929AF0A1231F47B007A007929AF0B12B4
:1001560031F47B007A007929AF0C1231F47B007AF6
:10016600007929AF0D1231F4E4F52B740E252BF826
:10017600E61231ED052BE52BC3941040EEE4F52B8A
:1001860074D1252BF582E43412F583E01231ED05A6
:100196002BE52BC3940640E87B007A007900AF2953
:0301A6001231F41F
:0D01A90075360A75371300D537FCD536F6CC
:1001B6000202709012E2E0FFC3789D9640030202AD
:1001C60077EF75F010A42574F9E57335F085723371
:1001D600F5348935C2ACE4F529D282FB7A00792957
:1001E6007F7F1231F47B007A0079297F0D1231F47A
:1001F600AB33AA34A9351213C41231EDAB33AA348A
:10020600A9359000011231EAAB33AA34A935900022
:10021600021231EAAB33AA34A9359000031231EA4F
:10022600AB33AA34A9359000041231EAE4F52BABBE
:1002360033E5352405F9E43534FA7E00E9252BF952
:10024600EE3AFA1213C41231ED052BE52BC39408CE
:0D02560040DD7B007A007900AF291231F401
:0D02630075360A75371300D537FCD536F611
:10027000C282D2AC0203F89013217478F0E4A3F0A8
:100280007F020203F5123B487892121590901321D9
:10029000747CF07892E6A3F008E6A3F008E6A3F0F9
:1002A00008E6A3F07C007D057B017A1379211230EA
:1002B000B6901326EFF07F060203F59012E2E0FFFE
:1002C000B4010BA3E0F508A3E0F5090203C0EFB405
:1002D00002099012E3E0F5080203C09012E2E0B4D4
:1002E0000308A3E0F50AA3E0F50B0203C0E4F52B35
:1002F0009012E2E0FFE52BC39F501C74E3252BF521
:1003000082E43412F583E0FF740E252BF8C6EFC6A5
:10031000052BE52BB410D9E4F51D0203C07A007B50
:10032000327D0178A5E6FF12323B9012E2E0FDE457
:10033000FF1239580203F89012E2E024FF922202E1
:1003400003F89012E2E024FF92210203F87A007B86
:10035000327D017F0012323BE4F52B74E2252BF550
:1003600082E43412F583E0FF74D7252BF582E43460
:1003700012F583EFF0052BE52BB406DFD22F807842
:1003800078A5E66005752D02800B202D05752D03DF
:100390008003752D019013217479F0A3E52DF07C75
:1003A000007D027B017A1379211230B6901323EF7E
:1003B000F07F03123A95E52D6401703CD22E800245
:1003C000D228788076F180307A007B327D017F0000
:1003D00012323B9013217479F09012E2E0901322D4
:1003E000F07C007D027B017A1379211230B69013E4
:1003F00023EFF07F03123A95E52A64A0600302061A
:10040000079012E1E064A160030204F7A3E0C3785F
:100410009D9640030204ECAB72AA73A974E0FF75C9
:10042000F010A4F58285F0831213DDF52DEF75F041
:1004300010A429F9EA35F0FA9000041213DD30E235
:10044000379012E2E0123B798F2D901321747FF0E8
:10045000A3E52DF02402FDE433FC7B017A1379211E
:100460001230B67423252DF582E43413F583EFF0B2
:10047000E52D2403FF0206049012E2E0FF123B790F
:10048000C2ACE4F529D282E52DD39406402B7B0043
:100490007A0079297F7F1231F47B007A007929AFC5
:1004A0002D1231F4E4F52BE52BC3952D50071231B5
:1004B000C0052B80F2052D8018E52D24781231ED32
:1004C000E4F52BE52BC3952D50071231C0052B8089
:0C04D000F27B007A007900AF291231F4B1
:0D04DC0075360A75371300D537FCD536F696
:1004E9000205F69013217478F07F01020604901238
:1004F900E1E064A26003020607789DE6FFA3E0FE3F
:10050900C39F40030205FCA3E0FDC39F400302050E
:10051900FCEE9D40030205FC9012E2E0F52BE4F5A8
:1005290031F5329012E3E0FFE52BD39F5026AF2B34
:10053900123B79AB72AA73A97475F010E52BA4F577
:100549008285F0831213DD2532F532E43531F53138
:10055900052B80CFC2ACE4F529D282FB7A00792938
:100569007F7F1231F4C3E5329480E5319400500263
:100579008007E53144801231EDAF321231EE90122D
:10058900E2E0F52B9012E3E0FFE52BD39F5046E420
:10059900F52CAB72AA73A97475F010E52BA4F5823A
:1005A90085F0831213DDFFE52CC39F5024E52B75DD
:1005B900F010A429F9EA35F0FA90000D1215E57842
:1005C900A5E6FF18E68FF0A4252C1231E3052C804F
:1005D900C1052B80AF7B007A007900AF291231F475
:0D05E90075360A75371300D537FCD536F688
:1005F600C282D2AC800B9013217478F07F01123A3C
:1006060095E52A6458704DFA7B327D0178A5E6FFA0
:1006160012323B753B01753C13753D227B017A1204
:1006260079E21238AC8F2DE52D2478901321F0EF66
:100636002401FDE433FC7B017A1379211230B67470
:1006460022252DF582E43413F583EFF0E52D2402FF
:10065600FF123A95E52A64806009E52A64886003FA
:1006660002081678A1E6B4010F7A007B327D017884
:10067600A5E6FF12323B801AE4F52BE52BC37891F1
:1006860096500F7A007B327D01AF2B12323B052B41
:1006960080E99012E1E05407F52DB4070A752C01A4
:1006A600A3E0F52DA38006E4F52C9012E2E0F52EEA
:1006B600152DE52EC3789D9640030207EAAB72AA74
:1006C60073A97475F010E52EA4F58285F0831213D4
:1006D600DDFFE52DD39F40028F2D78A1E6B40109F9
:1006E60078A5E6F530F52F8009E4F52F7891E61424
:1006F600F53078A5A62F78A5E6D3953040030207F6
:10070600DEE4F52BE52BC3952D40030207D3E52E3A
:1007160075F010A4AB722574F9E57335F0FA900004
:10072600041213DD30E2030207CE9000011213DD3E
:1007360064387041E52DD394044011E52C252B2413
:10074600E3F582E43412F583E0FD805E789FE6C32C
:10075600952BFFE49400FE74DF2FF58274123EF5AC
:1007660083E0FDE52E75F010A4AB722574F9E573F0
:1007760035F0FA8035AB72AA73A97475F010E52EC0
:10078600A4F58285F0831213DDFFC3789FE69F25CB
:100796002B252C24E0F582E43412F583E0FDE52ECA
:1007A60075F010A429F9EA35F0FA90000D1215E556
:1007B60078A5E6FF18E68FF0A4FFE52B2FF582E477
:1007C60035F0F583ED12141C052B02070AAF2E1225
:1007D600390478A5060206FC78A5A62FE52A6488C2
:1007E600702E8010E52EB4FF279012E3E0F524E585
:1007F6002AB4881C9013217478F0789FE624E0F5DB
:1008060082E43412F583E0901322F07F02123A95C7
:0108160022BF
:10D000007880E664F1600302D60CE4F543F54478D9
:04D0100081E6601F36
:0DD0140075490A754A1300D54AFCD549F646
:10D021000544E5447002054364107004E543642738
:10D0310070DCC2AF7584015398FC75FFDE75FFADDE
:10D04100E4F53FF53EE4F58420982EE4F543F544FC
:0ED05100209822C3E5449488E54394135017B9
:0DD05F0075490A754A1300D54AFCD549F6FB
:10D06C000544E54470DF054380DBB2A780CF85998A
:10D07C003EC298E53E641A600302D14CF543F54478
:0ED08C00209822C3E5449488E543941350177E
:0DD09A0075490A754A1300D54AFCD549F6C0
:10D0A7000544E54470DF054380DB30989285993F5E
:10D0B700C298E4F543F544209822C3E5449488E5F3
:05D0C700439413501713
:0DD0CC0075490A754A1300D54AFCD549F68E
:10D0D9000544E54470DF054380DB20980302D04610
:10D0E90085993FC298E4F543F544209822C3E54465
:08D0F9009488E54394135017DD
:0DD1010075490A754A1300D54AFCD549F658
:10D10E000544E54470DF054380DB20980302D046DA
:09D11E0085993FC298D282C299A2
:0DD12700754914754A1300D54AFCD549F628
:06D134007599783099FDA9
:0DD13A0075490A754A1300D54AFCD549F61F
:10D14700C28202D5FEE53E6450600302D1DCF5439E
:10D15700F544209822C3E5449488E5439413501777
:0DD1670075490A754A1300D54AFCD549F6F2
:10D174000544E54470DF054380DB20980302D04674
:09D1840085993FC298D282C2993C
:0DD18D00754914754A1300D54AFCD549F6C2
:08D19A007599793099FDC299E5
:0DD1A200754914754A1300D54AFCD549F6AD
:08D1AF007599013099FDC29948
:0DD1B700754914754A1300D54AFCD549F698
:06D1C400E4F5993099FD2D
:0DD1CA0075490A754A1300D54AFCD549F68F
:0FD1D700C28202D5FEE53E6401703ED282C2994B
:0DD1E600754914754A1300D54AFCD549F669
:08D1F3007599783099FDC2998D
:0DD1FB00754914754A1300D54AFCD549F654
:06D20800E4F5993099FDE8
:0DD20E0075490A754A1300D54AFCD549F64A
:10D21B00C28202D5FEE53E6402600302D2E2F54310
:10D22B00F544209822C3E5449488E54394135017A2
:0DD23B0075490A754A1300D54AFCD549F61D
:10D248000544E54470DF054380DB20980302D0469F
:10D2580085993FC298E4F540E53F13B392A7E53FAF
:10D2680025E0FEC3E49400EE94D0502AE53F7F0009
:10D2780025E0FEC394E0501EE53F20E01FE4F5845E
:10D2880043B701758F038E458F468F828E83F05387
:10D29800B7F0F58F80037540FFE4F584D282C29918
:0DD2A800754914754A1300D54AFCD549F6A6
:08D2B5007599783099FDC299CA
:0DD2BD00754914754A1300D54AFCD549F691
:06D2CA008540993099FD3A
:0DD2D00075490A754A1300D54AFCD549F688
:10D2DD00C28202D5FEE53E6403600302D42DF54300
:10D2ED00F544209822C3E5449488E54394135017E0
:0DD2FD0075490A754A1300D54AFCD549F65B
:10D30A000544E54470DF054380DB20980302D046DC
:10D31A0085993FC298E4F543F544209822C3E54431
:08D32A009488E54394135017A9
:0DD3320075490A754A1300D54AFCD549F625
:10D33F000544E54470DF054380DB20980302D046A7
:10D34F00859941C298E53F1392A7E53F25E0FEC3BB
:10D35F00E49400EE94D0400302D046E53F7D0025D3
:10D36F00E0FCC394E0400302D046E4F58443B701E8
:10D37F00758F01E54175F020A42DFFE5F03CF545D3
:10D38F008F46E4F584F542E542C394205048E4F516
:10D39F0043F544209822C3E5449488E54394135001
:01D3AF001766
:0DD3B00075490A754A1300D54AFCD549F6A7
:10D3BD000544E54470DF054380DB20980302D04629
:10D3CD000546E546AE457002054514F5828E83E5AA
:10D3DD0099F0C298054280B1E4F58453B7F0F58F0A
:06D3ED00F584D282C29912
:0DD3F300754914754A1300D54AFCD549F65A
:08D400007599783099FDC2997D
:0DD40800754914754A1300D54AFCD549F644
:06D41500E4F5993099FDD9
:0DD41B0075490A754A1300D54AFCD549F63B
:10D42800C28202D5FEE53E6404600302D4DDF54302
:10D43800F544209822C3E5449488E5439413501793
:0DD4480075490A754A1300D54AFCD549F60E
:10D455000544E54470DF054380DB20980302D04690
:10D4650085993FC298E53F25E0F547754800E4F505
:10D4750040F543F5440548E548AE477002054714B5
:10D48500F5828E83E4932540F5400544E54470021A
:0ED4950005437004E543640270DBD282C29945
:0DD4A300754914754A1300D54AFCD549F6A9
:08D4B0007599783099FDC299CD
:0DD4B800754914754A1300D54AFCD549F694
:06D4C5008540993099FD3D
:0DD4CB0075490A754A1300D54AFCD549F68B
:10D4D800C28202D5FEE53E6405600302D5F3F5433A
:10D4E800F544209822C3E5449488E54394135017E3
:0DD4F80075490A754A1300D54AFCD549F65E
:10D505000544E54470DF054380DB20980302D046DF
:10D5150085993FC298E4F543F544209822C3E54434
:08D525009488E54394135017AC
:0DD52D0075490A754A1300D54AFCD549F628
:10D53A000544E54470DF054380DB20980302D046AA
:09D54A00859941C298D282C29970
:0DD55300754914754A1300D54AFCD549F6F8
:08D5600075997F3099FDC29915
:0DD56800754914754A1300D54AFCD549F6E3
:10D575007599203099FDE53F25E0FCE54175F020E2
:10D58500A42400FFE5F03CF5478F48E4F540F5425B
:02D59500C29939
:0DD59700754914754A1300D54AFCD549F6B4
:10D5A400854882854783E493F5993099FD0548E5DC
:10D5B40048AE477002054714F5828E83E4932540F4
:0BD5C400F5400542E542B420C8C299C2
:0DD5CF00754914754A1300D54AFCD549F67C
:06D5DC008540993099FD25
:0DD5E20075490A754A1300D54AFCD549F673
:10D5EF00C282800BE53EB40606E4F58475EF12E5C2
:0DD5FF003E6407600302D0467880F6D2AF8C
:01D60C0022FB
:102C07007F0012398120290B7A007B327D017F00FA
:102C170012323B302C0B7A007B1E7D017F00123273
:102C27003B302817302D147A007B327D0178A5E6DA
:102C3700FF12323BC228122EDDD229202B0C302D59
:102C470009788076F1122EDDD22B302E08302D0533
:102C5700C22E12D000302F0B7B017A1279D7123394
:102C67008AC22F123B3BC8ECC8C9EDC9CAEECACB12
:102C7700EFCB9012DD121558EF245AFFE43EFEE425
:102C87003DFDE43CFCD312150D500F123B3B901257
:102C9700DD121564D312150D4012123B3B9012DD65
:102CA70012159C7B017A1279D1122D81202D1212D7
:102CB7003B3BE47B2C7A01F9F8C312150D5002D285
:022CC7002D22BC
:0B3B6100121D8E122C0712081780F8AE
:10285800005EBCE2613FDD83C29C7E20A3FD1F4178
:102868009DC3217FFCA2401E5F01E3BD3E6082DC68
:10287800237D9FC1421CFEA0E1BF5D0380DE3C6258
:10288800BEE0025CDF81633D7C22C09E1D43A1FF48
:102898004618FAA427799BC584DA3866E5BB590738
:1028A800DB856739BAE406581947A5FB7826C49A28
:1028B800653BD987045AB8E6A7F91B45C6987A2418
:1028C800F8A6441A99C7257B3A6486D85B05E7B908
:1028D8008CD2306EEDB3510F4E10F2AC2F7193CDF8
:1028E800114FADF3702ECC92D38D6F31B2EC0E50E8
:1028F800AFF1134DCE90722C6D33D18F0C52B0EED8
:10290800326C8ED0530DEFB1F0AE4C1291CF2D73C7
:10291800CA947628ABF517490856B4EA6937D58BB7
:102928005709EBB536688AD495CB2977F4AA4816A7
:10293800E9B7550B88D6346A2B7597C94A14F6A897
:10294800742AC896154BA9F7B6E80A54D7896B3587
:0A295800000000002B6096CBDDEEBE
:032ED90001650A86
:1030B600151E151EA81EECF608EDF6151E151E1596
:1030C6001EA81EC6EBC608C6EAC608C6E9C6E51EA1
:0430D60024FCF51EC3
:1030DA00F80808E4F6A81EF608F6E51E2407F9A87B
:1030EA001EE6FE08E6FFC3099719E76480F8EE6456
:1030FA0080985037E51E2404F8CBE6CB08E6FA0898
:10310A00E6F98F828E831213DDA81E080866FFE592
:10311A001E2403F8EFF6E690285893A81E0808F62E
:10312A00A81E0806E61870B20680AFA81E0808E6B0
:01313A00FF95
:07313B00E51E2409F51E2228
:07000300ED6F90285893FFF8
:01000A0022D3
:10395800EF7023F5847598D0F584759115F5847505
:10396800C90875CBFFED90295793F5CA75C804E4CB
:08397800F584D2ACC2BCD2AF51
:013980002224
:10373A00E4F56BF56AF569F568F56FF56EF56DF503
:10374A006C756464FFEF25E025E02478F8E4F6EF71
:10375A0025E025E02479F8E4F6EF25E025E0247A4F
:10376A00F8E4F6EF25E025E0247BF8E4F60FBF0243
:01377A00D47A
:01377B00222B
:103A3900D2AFD2A9C2BBE4F584E589540F4401F59C
:0F3A490089758E02758CAFE4F58AD28C02373AFC
:022F8000151E1C
:102F8200A81EE4F6A81EE6FFC3940240030230190D
:102F9200EF25E025E0247BF8E6FFD394004052A819
:102FA2001EE625E025E02479F8E67045EF30E015CD
:102FB200A81EE6FF25E025E0247BF8E6D394014035
:102FC200047D0180067D00A81EE6FF123617A81EAA
:102FD200E6FF25E025E0247BF816E66014EF25E005
:102FE20025E0247AF8E6FEEF25E025E02479F8EEE4
:102FF200F6A81EE625E025E02479F8E6600116A889
:103002001EE6FF25E025E0247BF8E67004FD12367B
:0730120017A81E06022F861D
:03301900051E226F
:03000B000231427D
:10314200C0E0C0F0C083C082C0D0E8C0E0E9C0E007
:10315200EAC0E0EBC0E0ECC0E0EDC0E0EEC0E0EFC2
:10316200C0E0758CAFE56B2401F56BE4356AF56A56
:10317200E43569F569E43568F568D56418E56F24C6
:1031820001F56FE4356EF56EE4356DF56DE4356C81
:10319200F56C756464122F801239FAD0E0FFD0E02A
:1031A200FED0E0FDD0E0FCD0E0FBD0E0FAD0E0F9C8
:0E31B200D0E0F8D0D0D082D083D0F0D0E03280
:1039D300151EA81EEDF6151EA81EEFF6A81EE6FF7F
:1039E300C39402500D08E6FEEF25E025E02478F8A5
:0739F300EEF6051E051E2281
:10323B00151E151EA81EEAF608EBF6151EA81EEDA8
:10324B00F6151EA81EEFF6A81EE6FFC394025052F9
:10325B00EF25E025E0247BF8E67047A81EE6FB256A
:10326B00E025E02479F8E67039A81E08E625E0048D
:10327B00FFA81EE6FA25E025E0247BF8EFF6A81E52
:10328B000808E6FE08E6FF7C007D0A121450EA25CA
:10329B00E025E0247AF8EFF6EB25E025E02479F839
:0932AB00E4F6E51E2404F51E22E0
:10361700151EA81EEDF6151EA81EEFF6A81EE6FF3E
:10362700C39402501CEF25E025E02478F8E66011EA
:10363700A81E08E670047F0180027F00A81E08EF1D
:10364700F6A81EE6700608E624FF92A7A81EE6B4B1
:0D365700010608E624FF92A6051E051E22AE
:0C3B3B00C2AFAF6BAE6AAD69AC68D2AF30
:013B4700225B
:0C3B4800C2AFAF6FAE6EAD6DAC6CD2AF13
:013B5400224E
:10398100151EA81EEFF6A81EE67004F566F5673051
:103991003414E56575F064A4FFC3E5679FE566959A
:0939A100F0500375FFA5051E227C
:103A7700D234E4F566F567EF6004F5658003756594
:0E3A87000A75FF0775FFA5E4F58475EF0622AA
:0E3B1F00C234E4F566F56775FFDE75FFAD2272
:1039FA000567E56770020566303414E56575F0649D
:103A0A00A4FFC3E5679FE56695F0500375FFA522FD
:0438D9008E438F4447
:1038DD00E4F545F546C3E5469544E5459543501653
:1038ED007FE87E031233FB7F011239810546E546E1
:0638FD0070E3054580DFC9
:0139030022A1
:0C33EF0075840F53A4BFD2867F0A7E00B5
:0433FB008E608F61F0
:1033FF00D3E56194FAE5609400500EEFD39400404A
:10340F00407E1600DEFD1F80F2856062856163D30A
:10341F00E56394FAE562940040157FFA7E0012335B
:10342F00FB74062563F56374FF3562F56280E0D3A4
:10343F00E5619400E56094004007AF63AE6212331C
:01344F00FB81
:013450002259
:10332200754D00754E00754F477B007A0079457DDB
:013332000298
:083333008B498A4A894B8D4C3D
:10333B007F01123981AB4DAA4EA94F12148624007E
:10334B00FFE5F034E0FE854950854A51854B52E448
:10335B00FDEDC3954C501BEF2DF582E43EF583E458
:10336B0093AB50AA51A9528D8275830012141C0D78
:0F337B0080DFAB4DAA4EA94FE4854CF00214B190
:102CC900754012754134754800754900754A427B53
:072CD900007A0079407D0242
:082CE0008B448A4589468D47AB
:102CE8007880E664F16003022D80123B1FC2AFE4D6
:102CF800F58475EF0643B701758F01AB48AA49A95A
:102D08004A1214862400FFE5F034E07896F608EFBE
:102D1800F6AA45A946789AA64408C6EAC608C6E9A6
:102D2800C6E47898F67898E6C395475032789ACBF7
:102D3800E6CB080806E618CAE6CA70010614F912B6
:102D480013C47899F6E6FF78960806E618CCE6CC20
:102D580070010614F5828C83EFF078980680C6E43B
:102D6800F58F53B7F0AB48AA49A94A8547F0121422
:082D7800B1D2AFE4FF123A777B
:012D80002230
:1035C6007880E664F17049C2AF123B1FE4F584755A
:1035D600EF0643B701758F03789776E008F678967D
:1035E600F67897E6FE08E6F5828E83E4F07F011210
:1035F60039817898E426F618740236F61806E6C37A
:10360600940840DDE4F58F53B7F0D2AFFF123A7756
:013616002291
:102EDD001235C6E4F542F543F548754900754A4289
:102EED00FB7A0079087D16122CE0122CC9E4F53F0F
:102EFD00E53FC37891965073E4F53EAB72AA73A982
:102F0D007475F010E53EA4F58285F0831213DD6033
:102F1D0056E53E75F010A429F9EA35F0FA90000D4A
:102F2D001215E578A4E6853FF0A429F9EA35F0FA03
:102F3D00EBC0E0EAC0E0E9C0E0AB72AA73A974751A
:102F4D00F010E53EA4F58285F0831213DDFD754882
:102F5D0000754900754A42D0E0F9D0E0FAD0E0FBA7
:102F6D00122CE0053E8094053F8085122CC9E47833
:022F7D0080F6DC
:012F7F00222F
:032B3E00CCEFCC0D
:102B4100E4F547F548F544F54D754E00754F47FBE3
:102B51007A0079087D16123333123322E546643444
:102B61007004E54564127003434401EC7003022CC8
:102B710001E4F543E543C37891965073E4F542AB24
:102B810072AA73A97475F010E542A4F58285F083E9
:102B91001213DD6056E54275F010A429F9EA35F00B
:102BA100FA90000D1215E578A4E68543F0A429F901
:102BB100EA35F0FAEBC0E0EAC0E0E9C0E0AB72AAA6
:102BC10073A97475F010E542A4F58285F0831213A0
:102BD100DDFD754D00754E00754F47D0E0F9D0E031
:102BE100FAD0E0FB1233330542809405438085120D
:102BF1003322E54664347004E545641270058000B3
:052C0100434402AF4452
:012C060022AB
:0A385000AB3EAA3FA9401213DDFFB2
:02385A008F439A
:10385C00E4F544E5431392861233F7D2A41233F7FE
:10386C00C2A4E543C313F5430544E544C39408409F
:01387C00E269
:01387D002228
:1036AC00C2A4D28575840F43A44012385A1233EF4A
:1036BC00E478A8F618F678A9760130860778A8E69B
:1036CC0079A947F6D2A41233F7C2A41233F778A91A
:1036DC00E625E0F678A706E6C3940840DD75840F6E
:0636EC00C28578A8E6FF8C
:0136F20022B5
:062D81008B3E8A3F8940F1
:102D8700C2A475840FD28575840F43A4407FBF12F8
:102D9700385A1233EFE47897F6E47898F67896F68F
:102DA700789976013086077898E6799947F6D2A41C
:102DB7001233F7C2A41233F77899E625E0F678962E
:102DC70006E6C3940840DD7897E6FFC394035019DD
:102DD70008E6FEEFFDC374059DFDE49400AB3EAA33
:102DE7003FA9408D82F583801E7897E6FFC394053F
:102DF700501808E6FEEF7C0024FDF582EC34FFF561
:102E070083AB3EAA3FA940EE80117897E6B4060E41
:102E170008E6AB3EAA3FA94090000212141C78971F
:0F2E270006E6C394075003022DA075840FC285E1
:012E36002279
:103AB2008D42C2A475840FD28575840F43A440122F
:0D3AC200385AAF4212385A75840FC285225F
:10338A008B3E8A3F8940C2A475840FD28575840F0B
:10339A0043A4407FBE12385A90000512385090005C
:1033AA0004123850AB3EAA3FA94090000312385687
:1033BA00AB3EAA3FA9401213C4FF12385AAB3EAA29
:1033CA003FA9409000011238567F0112385AAB3E8D
:1033DA00AA3FA940900002123856E4FF12385A75E3
:0533EA00840FC28522E2
:073B6C00E4FD7F8E023AB276
:033B8800023B8B72
:0623DA008F438D448B458A
:1023E0009013611215A8000000007D00AF437E002D
:1023F00012381FAD07AF457E0012381FAD07AF463C
:102400007E0012381FAD07AF447E0012381F8F5177
:10241000E5456403701BFDAF48FE12381FAD07AFE2
:10242000477E0012381FAD07AF517E0012381F8F54
:1024300051754E01755014E54E7003022526E55086
:102440007003022526AF4AAE491237EDAF4AAE49B6
:102450001237EDAD4AAC49AF43123451AF4AAE49E1
:102460001237EDAD4AAC49AF45123451AD4AAC49D3
:10247000AF46123451E54570028028AD4AAC49AFF1
:1024800044123451E544B4F6028018E54564037003
:1024900026AD4AAC49AF48123451AD4AAC49AF47BA
:1024A000123451854B56854C57854D58AB4AAA4935
:1024B0007DFFAF5102263CE54564017064E546644A
:1024C00002705EE54E603C854B56854C57854D58F5
:1024D000AB4AAA49E4FDAF5112263C8F4FE54F703D
:1024E00022901361E0FCA3E0FDA3E0FEA3E0FFABBC
:1024F0004BAA4CA94D1215701210019013611215C0
:102500009C154EE54E701A901361E0FCA3E0FDA30C
:10251000E0FEA3E0FFAB4BAA4CA94D12153E7F0095
:08252000221550022437AF4FD1
:012528002290
:08263C008F528D538A548B5517
:10264400E4F55BAF55AE541236F3E5526F60037F89
:10265400FF22EFF4B552037FFD22E553B4FF037F5D
:102664000122E5536003022748AF55AE541236F3F6
:102674008F59AF55AE541236F38F5AAF55AE54122C
:1026840036F38F5B7D00AF597E0012381FAD07AF64
:102694005A7E0012381FEF655B60037FFE22E55A05
:1026A40030E709635AFFE559F404F559E55AFE7C0D
:1026B40000E42559FFEC3EFE901365F0A3EFF0FD16
:1026C400AC06EC12130AE4FBFA798078421211FB8F
:1026D400AB56AA57A95812153EAB56AA57A958C0CB
:1026E40003C002C00112151E7BCC7A5D795B783F72
:1026F400120FFDD001D002D00312153EAB56AA57DB
:10270400A95812151EE4FBFA79C8784212129840AF
:1027140017AB56AA57A95812151EE4FBFA7920786C
:10272400C1121298600540037FFA22AB56AA57A93A
:102734005812151E7BCC7A5D795B78BF12129870A3
:06274400037FFB227F0071
:01274A00226C
:053B8300D2A0023B731B
:0C3514008E438F448C458D468A478B48BF
:10352000E4F549F54AD2A212392EBF03037F0322E4
:10353000C2A07F031239AAAF44AE4312387EC3E55E
:103540004A9548E5499547501D12377C8546828546
:103550004583EFF00546E54670020545054AE54A14
:1035600070DC054980D87F197E001233FBD2A0C2DF
:03357000A27F0136
:013573002235
:042A62008E3E8F3FD6
:102A6600754F0075502012148685F051F552E53FDA
:102A76002544E53E3543C3940640037F0222D2A295
:102A8600E544AE437805CEC313CE13D8F9F54E8E82
:102A96004DE4F549F54AD3E54A954EE549954D404D
:102AA60003022B39E54AAE497805C333CE33CED877
:102AB600F9F53F8E3EE54AB54E0EE549B54D097529
:102AC6004F00E544541FF55012392EC2A07F021262
:102AD60039AAAF3FAE3E12387EE4F54BF54CC3E55E
:102AE6004C9550E54B954F5029E545B40115855257
:102AF60082855183E0FF1239AA0552E55270090515
:102B0600518005E4FF1239AA054CE54C70D0054BFF
:102B160080CC7F197E001233FBD2A07F197E001273
:102B260033FB123B2D054AE54A6003022A9C054900
:072B3600022A9CC2A27F01EC
:012B3D002275
:10392E00C2A07F197E001233FB7F061239AA7F19BF
:10393E007E001233FBD2A07F197E001233FB123BA6
:0A394E002DBF03037F03227F012237
:103A5800C2A07F051239AA12377C8F537F197E00C6
:0E3A68001233FBD2A07F197E001233FBAF5346
:013A7600222D
:0D3B2D00123A58EF547160037F03227F01AC
:013B3A002268
:1029620000070E091C1B1215383F363124232A2D6D
:1029720070777E796C6B6265484F464154535A5D5D
:10298200E0E7EEE9FCFBF2F5D8DFD6D1C4C3CACD4D
:1029920090979E998C8B8285A8AFA6A1B4B3BABD3D
:1029A200C7C0C9CEDBDCD5D2FFF8F1F6E3E4EDEA2D
:1029B200B7B0B9BEABACA5A28F88818693949D9A1D
:1029C2002720292E3B3C35321F18111603040D0A0D
:1029D2005750595E4B4C45426F68616673747D7AFD
:1029E200898E878095929B9CB1B6BFB8ADAAA3A4ED
:1029F200F9FEF7F0E5E2EBECC1C6CFC8DDDAD3D4DD
:102A0200696E676075727B7C51565F584D4A4344CC
:102A1200191E171005020B0C21262F283D3A3334BC
:102A22004E49404752555C5B7671787F6A6D6463AC
:102A32003E39303722252C2B0601080F1A1D14139C
:102A4200AEA9A0A7B2B5BCBB9691989F8A8D84838C
:102A5200DED9D0D7C2C5CCCBE6E1E8EFFAFDF4F37C
:10381F00151EA81EA605151E151EA81EA60608A66F
:10382F0007A81E0808E6FFA81EE6FE08E66F24623A
:10383F00F58274293EF583E493FF051E051E051ED0
:01384F002256
:033B8B00023ACF2C
:103ACF00EF64014E7004C2838008EF64024E7002EF
:093ADF00C2847F027E000238D986
:1037BB008E558F56E55664014555700CD2837F0CA0
:1037CB00FE1233FBC2838012E5566402455570111D
:1037DB00D2847F0CFE1233FBC2847F047E00123333
:0237EB00FB22BF
:1037ED008E558F56E55664014555700CD2837F0476
:1037FD00FE1233FBC2838012E556640245557011EB
:10380D00D2847F04FE1233FBC2847F0C7E00123300
:02381D00FB228C
:1032B4008E5E8F5FE55F6401455E7025D2837F017A
:1032C400FE1233FBC2837F087E001233FB75840138
:1032D400E5885440C413135403FFBF0102802B80BC
:1032E40033E55F6402455E7034D2847F01FE12339D
:1032F400FBC2847F087E001233FB758402E5885488
:1033040040C413135403FFBF010A7F087E00123325
:0E331400FB7F01227F087E001233FB7F002228
:063451008F528C538D54D4
:10345700E4901365F0A3F0A3F0901366F0A374074C
:10346700F0901366E0FEA3E0FFC3EE648094804013
:103477003AE552A807088002C313D8FC54019013F9
:1034870065F07009AF54AE531237ED800E90136597
:10349700E0B40117AF54AE531237BB901367E02463
:0B34A700FFF0901366E034FFF080B6E9
:0134B20022F7
:0436F3008E5C8F5DFD
:1036F700E4901367F0A3F0A3F07407F0AF5DAE5C3E
:103707001232B4901367EFF0A3E0FFA3E0FE90132B
:1037170067E0FDA806088002C333D8FC4F90136802
:10372700F0A3E014F0E0C36480948050CF90136856
:02373700E0FFB1
:01373900226D
:063B7300E4F584D2A52256
:10000E00E4F5847F32FE1233FBD2A47F327E0012DF
:05001E0033FBC2A42227
:0239AA008F5438
:1039AC00E4F584755507AF55E554A807088002C3A4
:1039BC0013D8FC1392A512000E1555C3E55564805F
:0639CC00948050E2C2A548
:0139D20022D2
:04387E008E538F5482
:10388200E4F58475550FE554AE53A855088005CE6E
:10389200C313CE13D8F91392A512000E1555C3E522
:0938A200556480948050DFC2A53A
:0138AB0022FA
:10377C00E4F554F555F556F5847554077F327E0003
:10378C001233FBA2A1E433F555AF54A8070880020D
:10379C00C333D8FC4256D2A47F327E001233FBC214
:0E37AC00A41554C3E5546480948050D0AF56E9
:0137BA0022EC
:0300000002301CAF
:10301C0075EF02E5EF30E106438701858787787FFE
:0A302C00E4F6D8FD7581A9023071A9
:100FFA000213AFE86480F8E933E83360110460F063
:10100A00ED33EC337009E8FCE9FDEAFEEBFF22045C
:10101A0060DED3EB9FEA9EE99DE8C2E78CF0C2F757
:10102A0095F0400CE8CCF8E9CDF9EACEFAEBCFFB23
:10103A0012137A85D0F05804700320D5B3E80470EF
:10104A00075002B2D50213B992D5EC0460F7E4CC8A
:10105A00C0E0C398F8603B94186008400DD0E0FBEC
:10106A00021391E4FBFAC9FC8028E830E406E4C9DB
:10107A00FBE4CAFCE830E305E4C9CACBFCE8540740
:10108A006010F8C3E913F9EA13FAEB13FBEC13FC4B
:10109A00D8F130F52FC3E49CFCEF9BFFEE9AFEEDEE
:1010AA0099FDD0E0FBEF4E4D4C701222DB03021388
:1010BA00B6EC2CFCEF33FFEE33FEED33FDED30E7FB
:1010CA00EB021391EF2BFFEE3AFEED39FDD0E0FB78
:1010DA0050130BBB00030213B9ED13FDEE13FEEF21
:0810EA0013FFEC13FC0213914B
:1010F200EC4D6011E8497017ED33EC3304600DE4F8
:10110200FCFFFEFD22E933E8330470F80213AF124C
:10111200137A58046009E4CC24815006285009024D
:1011220013B92840030213B6C0E0EB4A7044B980F9
:1011320006D0E0FB0213A5EF4E701CBD8008EBFF4A
:10114200EAFEE9FD80EBE98DF0A4FEE5F00211DB99
:10115200E9CDF9EAFEEBFFEF89F0A4FCE5F0CE89D8
:10116200F0A42EFFE435F0CD89F0A42DFEE435F095
:101172008067EF4E7005BD80D780C3EF8BF0A4ACC3
:10118200F0EE8BF0A42CFCE435F0F8EF8AF0A42CFE
:10119200E5F038FCE433CB8DF0A42CFCE5F03BF811
:1011A200EE8AF0A42CFCE5F038F8E433CF89F0A401
:1011B2002CFCE5F038CF3400CE89F0A42FFFE5F007
:1011C2003EFEE433C98DF0A42EFEE5F039CD8AF05F
:1011D200A42FFFE5F03EFEE43DFD33D0E0FB5007D7
:1011E2000BBB000F0213B9EC2CFCEF33FFEE33FE06
:0611F200ED33FD02139134
:1011F8000213B9EC5D046005E8590470030213AFEB
:1012080012137A580460F6EC4860F2EC7004FDFEA4
:10121800FF22C860DB2481C85009C39860025006C9
:101228000213B69850CAF582E9294B4A7005AB8279
:101238000213A575F0007C1A7880C3EF9BEE9AED37
:1012480099400DC3EF9BFFEE9AFEED99FDE842F041
:10125800DC23ACF0D0E0FFD0E0FED0E0FDAB822094
:10126800E7101BEB60BAEC2CFCEF33FFEE33FEED1E
:1012780033FD021391E803F830E705C0F075F0007C
:10128800EF2FFFEE33FEED33FD40B830E7C280AA02
:1012980074F8CC6480CCC86480C8F582046043C309
:1012A800EB9FF5F0EA9E42F0E99D42F0E89C45F09C
:1012B80060305018E5825FFFE582F42B5582FB50C1
:1012C800210ABA001D09B90019088016E5825BFBDE
:1012D800E582F42F5582FF50090EBE00050DBD00B2
:1012E800010CC3EB9FF5F0EA9E42F0E99D42F0E85D
:0D12F8009C45F06007CC4820E701B3EC22D4
:1013050075F020800E75F010800575F0087D007E63
:10131500007F003392D530D5031214E9EC33401029
:10132500EF33FFEE33FEED33FDEC33FCD5F0ED226C
:0E133500E5F0247EA2D513CC92E7CDCEFF22A8
:10134300EDD2E7CD33EC3392D524814006E4FFFEA2
:10135300FDFC22FCE4CFCECDCC24E0501174FF8001
:10136300EDC3CC13CCCD13CDCE13CECF13CF04709E
:07137300F030D5DE0214E9A1
:10137A00E9D2E7C933E833F892D5EDD2E7CD33ECB9
:07138A0033FC5002B2D52232
:10139100EC30E7100FBF000C0EBE00080DBD0004BD
:1013A1000BEB6014A2D5EB13FCED92E7FD2274FF69
:1013B100FCFDFEFF22E480F8A2D574FF13FC7D80C2
:0313C100E480EFD6
:10303600023B61E493A3F8E493A34003F68001F214
:1030460008DFF48029E493A3F85407240CC8C3339B
:10305600C4540F4420C8834004F456800146F6DF6A
:10306600E4800B0102040810204080902E37E47E95
:10307600019360BCA3FF543F30E509541FFEE4935F
:10308600A360010ECF54C025E060A840B8E493A326
:10309600FAE493A3F8E493A3C8C582C8CAC583CA51
:1030A600F0A3C8C582C8CAC583CADFE9DEE780BE09
:012EDC0000F5
:1013C400BB010689828A83E0225002E722BBFE0227
:0913D400E32289828A83E493225A
:1013DD00BB010CE58229F582E5833AF583E02250C5
:1013ED0006E92582F8E622BBFE06E92582F8E2220F
:0D13FD00E58229F582E5833AF583E4932229
:10140A00BB010689828A83F0225002F722BBFE01C1
:02141A00F322BB
:10141C00F8BB010DE58229F582E5833AF583E8F006
:10142C00225006E92582C8F622BBFE05E92582C8B2
:02143C00F2229A
:10143E00EF8DF0A4A8F0CF8CF0A428CE8DF0A42EC2
:02144E00FE227C
:10145000C2D5EC30E709B2D5E4C39DFDE49CFCEEB7
:1014600030E715B2D5E4C39FFFE49EFE121667C3B2
:10147000E49DFDE49CFC800312166730D507C3E4AD
:061480009FFFE49EFE2226
:10148600BB010A89828A83E0F5F0A3E02250068731
:10149600F009E71922BBFE07E3F5F009E3192289F3
:0B14A600828A83E493F5F07401932226
:1014B100BB010789828A830216BC500B09C5F0273C
:1014C100F7C5F01937F722BBFE0D09F8E325F0F354
:1014D100C5F019E338F322F889828A8374019325D0
:0814E100F0C5F0F8E493382295
:0E14E900C3E49FFFE49EFEE49DFDE49CFC2214
:1014F700EB9FF5F0EA9E42F0E99D42F0EC6480C86C
:0615070064809845F0220B
:10150D00EB9FF5F0EA9E42F0E99D42F0E89C45F034
:01151D0022AB
:10151E00BB010789828A830215585005E9F8021625
:10152E00D2BBFE05E9F80216DE89828A830216EA2C
:10153E00BB010789828A8302159C5005E9F80215C2
:0A154E0090BBFE05E9F80217242205
:0C155800E0FCA3E0FDA3E0FEA3E0FF2206
:0C156400E0F8A3E0F9A3E0FAA3E0FB220A
:10157000BB010789828A830215645005E9F80216C7
:10158000FABBFE05E9F802170789828A830217145D
:0C159000ECF608EDF608EEF608EFF62287
:0C159C00ECF0A3EDF0A3EEF0A3EFF022C2
:1015A800A8828583F0D083D0821215BF1215BF128E
:1015B80015BF1215BFE473E493A3C583C5F0C583B3
:1015C800C8C582C8F0A3C583C5F0C583C8C582C88D
:0115D80022F0
:0C15D900A42582F582E5F03583F583221D
:1015E500BB010DE58229F582E5833AF583021739BA
:1015F5005007E92582F8021730BBFE07E92582F876
:10160500021742E58229F582E5833AF58302174BF5
:10161500D083D082F8E4937012740193700DA3A364
:1016250093F8740193F5828883E473740293686078
:06163500EFA3A3A380DF78
:103574008B428A438944E4F54AF54BE5491549AE43
:1035840048700215484E6033AB45AA46A94712134A
:10359400C4FFAB42AA43A944054BE54BAC4A7002B5
:1035A400054A14F5828C83EF12141CEF60CD74016C
:1035B4002547F547E43546F54680C0AB42AA43A902
:0235C40044229F
:10163B00EF4E6012EF60010EEDBB010B89828A83C6
:10164B00F0A3DFFCDEFA2289F05007F709DFFCA9D3
:0C165B00F022BBFEFCF309DFFCA9F0222A
:10166700BC000BBE0029EF8DF084FFADF022E4CC67
:10167700F875F008EF2FFFEE33FEEC33FCEE9DEC30
:10168700984005FCEE9DFE0FD5F0E9E4CEFD22ED76
:10169700F8F5F0EE8420D21CFEADF075F008EF2FC0
:1016A700FFED33FD4007985006D5F0F222C398FDB1
:0516B7000FD5F0EA224E
:1016BC00C5F0F8A3E028F0C5F0F8E58215827002B9
:0616CC001583E038F02256
:0C16D200E6FC08E6FD08E6FE08E6FF2244
:0C16DE00E2FC08E2FD08E2FE08E2FF2248
:1016EA00E493FC740193FD740293FE740393FF2246
:0D16FA00E6FB08E6F908E6FA08E6CBF82260
:0D170700E2FB08E2F908E2FA08E2CBF82262
:10171400E493F8740193F9740293FA740393FB222B
:0C172400ECF208EDF208EEF208EFF22201
:09173000E6FB08E6FA08E6F922DE
:09173900E0FBA3E0FAA3E0F922B1
:09174200E2FB08E2FA08E2F922D8
:0C174B00E493FB740193FA740293F922FA
:00000001FF
