:10120000505752535749544348000134000000538B
:10121000687574646F776E0100000134000000434C
:101220006F6E74726F6C0001000101340000005396
:1012300074617475730000010002041800000169F4
:101240006E20566F6C7431010003041800000169B0
:101250006E20566F6C74320100070418000001699B
:101260006E20566F6C743301000B04180000016F80
:101270007574566F6C743101000F04180000016F13
:101280007574566F6C743201001304180000016FFE
:101290007574566F6C743301001704180000016FE9
:1012A0007574566F6C743401001B04180000016FD4
:1012B0007574566F6C743501001F04180000016FBF
:1012C0007574566F6C743601002304060000016FBC
:1012D0007574637572310001002704060000016F08
:1012E0007574437572320001002B04060000016F13
:1012F0007574437572330001002F04060000016FFE
:101300007574437572340001003304060000016FE8
:101310007574437572350001003704060000016FD3
:101320007574437572360001003B040800000154D7
:10133000656D703100000001003F04080000015499
:10134000656D703200000001004304080000015484
:10135000656D70330000000100470408000001546F
:10136000656D703400000001004B0408000001545A
:10137000656D703500000001004F04080000015445
:10138000656D70360000000100530408000001691B
:101390006E54656D7031000100570408000001694A
:1013A0006E54656D70320001005B04080000016935
:1013B0006E54656D70330001005F04080000014C3D
:1013C00054656D7031000001006304080000014C99
:1013D00054656D7032000001006704080000014C84
:1013E00054656D7033000001006B04080000014C6F
:1013F00054656D7034000001006F04080000014C5A
:1014000054656D7035000001007304080000014C44
:1014100054656D7036000001007700000000000088
:10142000000000000000000000000C0D140001028C
:10143000030405060708090A0B40000000400000ED
:10144000004000000040000000400000004000009C
:101450000040000000400000004000000040A000EC
:101460000040A0000040A0000040A0000040A000FC
:101470000040A0000000000000000000000000008C
:10148000000000000000000000000000000000005C
:10149000000000000000000000000000000000004C
:1014A000000000000000000000000000000000003C
:0114B000003B
:1029C1000C6F245265763A20373334202400017B82
:0C29D1000143007B48494A036CFF120AD6
:02175700A907E0
:10175900E478ACF678ACE6FFC364809484501974DD
:10176900752FF8E6C3648094B0500878ACE6247508
:10177900F8763078AC0680DC7876E6FF3395E0FEC3
:10178900EF24D0FFEE34FFFE7C007D64120433AAFF
:1017990006AB077875E6FF3395E0FEEF24D0FFEE40
:1017A90034FFFE7C037DE8120433EF2BFBEE3AFA9B
:1017B9007877E6FF3395E0FEEF24D0FFEE34FFFEA5
:1017C9007C007D0A120433EF2BFFEE3AFE7878E6AF
:1017D900FD3395E0FCED24D0FDEC34FFCD2FF50D64
:1017E900ED3EF50CE96044E4900000F0A3F0A3F0AD
:1017F900122ACB7508008F09E478ACF678ACE6FFBD
:10180900C3648094865024EF3395E0FEEF7802C3D9
:1018190033CE33CED8F92463F58274003EF58312B2
:10182900064D4248000078AC0680D175A4FFE4F566
:10183900F275F3C075F40F75A706759A80759E3316
:10184900759C02122AC17F017E00122AD3E478AC6A
:10185900F678ACE6FFC36480948F5024EF3395E0AB
:10186900FEEF7802C333CE33CED8F92403F5827460
:10187900003EF58312064D0000000078AC0680D1C9
:10188900E478ACF678ACE6FFC3648094865024EF24
:101899003395E0FEEF7802C333CE33CED8F9243F37
:1018A900F58274003EF58312064D0000000078AC05
:1018B9000680D1E478ACF678ACE6FFC36480948303
:1018C9005024EF3395E0FEEF7802C333CE33CED800
:1018D900F9243FF58274003EF58312064D0000009D
:1018E9000078AC0680D1E4900001F0A3F0900000EC
:0118F900F0FE
:0118FA0022CB
:1027F900151EA81EA607A81EE664017030900001E8
:10280900E0FF13B39287EFA2E1B39286A2E2B392FB
:1028190082A2E3B39281A2E4B39280A2E5B392B11A
:10282900A3F0E4900001F0900000F0F520051E22CD
:05001D008F347F00227A
:1028D1008B348A3589361203B9AB37AA38A9391234
:1028E10003FFAB34AA35A9369000011203D2AB37EE
:0D28F100AA38A9399000011204117F0222BB
:021E76008F409B
:101E78009000C412064D00000000E49000BAF0A3E0
:101E8800F0AF401229799000C2EEF0A3EFF0A3E082
:101E9800F8A3E0F9A3E0FAA3E0FB9000C2E0FEA3F8
:101EA800E0FFE4FCFDEB2FFFEA3EFEED39FDEC38E8
:101EB800FCA31206411224B39000BBE004F07006A4
:101EC8009000BAE004F0C39000BBE0940A9000BA16
:101ED800E0940040ACE47B0AFAF9F89000C4E0FC16
:101EE800A3E0FDA3E0FEA3E0FF12051A9000BCEEFC
:101EF800F0A3EFF0FDAC06E41203369000BE120624
:101F080041E4FBFA798078449000BEE0FCA3E0FD50
:101F1800A3E0FEA3E0FF1202277B837AC079527800
:101F28004012011E9000BE120641E540640E602A70
:101F3800AF44AE43AD42AC419000BEE0F8A3E0F937
:101F4800A3E0FAA3E0FB12011EAB48AA47A946A8E2
:101F58004512002D9000BE1206419000BEE0FCA381
:081F6800E0FDA3E0FEA3E0FF91
:011F7000224E
:100F3800E4F53AF53BF53CF53D747B253DF582E457
:100F48003400F583E0FFC007754302E4F544F54536
:100F5800F546754701E53BAE3A7802C333CE33CE4A
:100F6800D8F9243FF974003E754801F549894AD0FB
:100F7800077B017D011218FB747B253DF582E43463
:100F880000F583E0FFC007754302E4F544F545F535
:100F980046754701E53BAE3A7802C333CE33CED827
:100FA800F92443F974003E754801F549894AD00788
:100FB8007B017D021218FB7402253BF53BE4353AB0
:100FC800F53A053DE53D7002053CC39403E53C94C4
:100FD800005003020F41E4F53AF53BE53BAE3A78A1
:100FE80002C333CE33CED8F92463F58274003EF5BC
:100FF80083E0FCA3E0FDA3E0FEA3E0FFC004C0057E
:10100800C006C007E53BAE3A7802C333CE33CED82C
:10101800F9243FF58274003EF583E0F8A3E0F9A3D4
:10102800E0FAA3E0FBD007D006D005D0041202C432
:1010380060484046E53BAE3A7802C333CE33CED85B
:10104800F9243FF58274003EF583E0FCA3E0FDA39C
:10105800E0FEA3E0FFE4FBFA794878431202C4609B
:10106800194017E53B2402FFE53BAE3AA807088084
:1010780005C333CE33CED8F94220053BE53B700299
:10108800053A6406453A6003020FE3E4F53AF53B96
:10109800747B253BF582E43400F583E0FFC00775D7
:1010A8004302E4F544F545F546754701E53BAE3A9C
:1010B8007802C333CE33CED8F92457F974003E757D
:1010C8004801F549894AD0077B01E4FD1218FB0560
:1010D8003BE53B7002053AC39403E53A940040B0FF
:1010E800E4F53EF53FE53F90142A93FFC007E53F3E
:1010F800AE3E7802C333CE33CED8F9FBAA062439E4
:10110800F58274143AF5831206058F448E438D4296
:101118008C4174752BF58274143AF5831206058F89
:10112800488E478D468C45D007121E76C004C005F0
:10113800C006C007E53FAE3E7802C333CE33CED8F3
:10114800F9247EF58274003EF583D007D006D005D9
:10115800D004120641053FE53F7002053EC3940FD7
:10116800E53E940050030210EDC2AFE4F53EF53FB2
:10117800E53FAE3E7802C333CE33CED8F9247EF5B0
:101188008274003EF583E0FCA3E0FDA3E0FEA3E04B
:10119800FFC004C005C006C007E53FAE3E7802C3E5
:1011A80033CE33CED8F92403F58274003EF583D0CC
:1011B80007D006D005D004120641053FE53F70026E
:1011C800053E6410453E70A8D2AF20B3047F01806D
:1011D800027F00EF4220C2AF900000E520F0D2AFBE
:1011E8006015D280D2B1D282D281D287D286C2AFE4
:0711F800E4900002F0D2AF09
:0111FF0022CD
:0C2AA000245265763A2036343820240099
:1014B100E47880F6122AB775E10175A49075E240CF
:1014C10075B283E4F5A9122A21E4FF1229E1E4F5BA
:1014D1003CF53D7D01AF3D122952053DE53D7002D0
:1014E100053CC39401E53C940040E8E4F521C212B7
:1014F100C210C216C215C2147880F6C28308F678EB
:1015010085F618F6788AF6F53CF53D748C253DF89C
:10151100E4F6053DE53D7002053C6414453C70EB85
:10152100E4F53CF53D74A0253DF8E4F6053DE53DC7
:101531007002053C6408453C70EBE5EF20E10CE5E9
:10154100EF5408D394004003D38001C3920B7D086C
:10155100E4FF1229A0E47889F67882F6AB6CAA6DD3
:10156100A96E7882E6FF75F010A4F58285F08312EA
:1015710003D2FE788926F6EE600578820680DDEFDB
:10158100D394004030AB6CAA6DA96E90000D120689
:101591007E1203B9FF74551203FF1203B96455603B
:1015A10002D21474AA1203FF1203B964AA6002D210
:1015B10014EF1203FFE5EF5402D3940040047F01BE
:1015C1008002E4FF121F718F3BE53B20E035C21121
:1015D10074FFF508F509F50AF50B7E007F107D0013
:1015E1007B007A00790E1206D47541FF754212759F
:1015F10043007544007545107B007A00790E122670
:10160100908002D211902AA7E493FF3395E0FEEF78
:1016110024D0FFEE34FFFE7C007D64120433AA0661
:10162100AB07902AA6E493FF3395E0FEEF24D0FFA9
:10163100EE34FFFE7C037DE8120433EF2BFBEE3A20
:10164100FA902AA8E493FF3395E0FEEF24D0FFEE51
:1016510034FFFE7C007D0A120433EF2BFFEE3AFECD
:10166100A3E493FD3395E0FCED24D0FDEC34FFCDF4
:101671002FF50DED3EF50CE53B30E10302172EE4AD
:10168100F53CF53DE53DC4F8540FC868FFE53CC4A1
:1016910054F048FEAB6CAA6DA96E8F82F5831203DC
:1016A100D27003021725E92FF9EA3EFA90000412DD
:1016B10003D220E264E4F53AE53AC3787B965059C7
:1016C100E53DC4F8540FC868FFE53CC454F048AB8D
:1016D1006CAA6DA96E8F82F5831203D2FF7E00C0C2
:1016E10006C0077D00E53DC4F8540FC868FFE53C1E
:1016F100C454F048FEE92FF9EA3EFA90000D1206B3
:101701007E7889E6853AF0A429F9EA35F0FAD0071E
:10171100D0061206D4053A809F053DE53D700205CD
:101721003C0216857F01121757C2138007E4FF128E
:101731001757D213E4F53CF53D7A007B967D03AF54
:101741003D1223C8053DE53D7002053CC39401E50A
:051751003C940040E49F
:011756002270
:052ACB00788AE6FF22FD
:03002300021C724A
:101C7200C0E0C0F0C083C082C0D075D000C000C038
:101C820001C002C003C004C005C006C00730993AB3
:101C9200C2997885067985E77881667016F6788527
:011CA200F64B
:0E1CA30075230A0075240300D524FCD523F513
:041CB100C283801753
:0E1CB5007523140075240300D524FCD523F5F7
:101CC3007885E624A0F8E6F599209803021D5B20A9
:101CD3009A07201204C298807BC29A7884E606246D
:101CE3008CF8A699C2987884E6FFB40113788CE641
:101CF300FE70057884F68060EE54072402788BF634
:101D0300EFB4020E788BE6B40908788DE6240379E4
:101D13008BF77884E6FFB414047600803BEFC37836
:101D23008B9640347884E624FFFDE434FFFC7B008B
:101D33007A00798C1222327884E6248BF8E66F607D
:031D43000280110A
:0E1D46007523140075240300D524FCD523F565
:101D54001207F878847600D007D006D005D004D0D6
:101D640003D002D001D000D0D0D082D083D0F0D024
:021D7400E0325B
:10244100788DE675F010A4AB6C256EF9E56D35F06D
:10245100FA90000D12067E788AE6FF18E68FF0A446
:102461002527F582E435F0F5831203D2FF7B007A4C
:03247100007925CA
:102474008F348B358A368937EA494B60161203B993
:10248400FFE534FD7C00120003AB35AA36A937EF13
:032494001203FF31
:0E2497007538140075390300D539FCD538F5B9
:0E24A5008534997F011229293099FDC29922B0
:062A3C007881EFF6D28361
:0E2A42007534140075350300D535FCD534F518
:062A500078A0E6F59922D2
:10272E00C9EFC9E964017028EDC39B4034787BE69C
:10273E00FFEB2FFFE433FEEDC39FEE6480F8748051
:10274E0098501ED212C3ED9B788AF67886760122B7
:10275E00B90214ED6B700AD212788AF67886760278
:08276E0022C212E47886F62273
:10258600C9EFC9BAFF15BBFF12ED6B7002EC6A709A
:1025960049D212788AF67886E9F622E9640170252E
:1025A600C3ED9BEC9A401C787BE62BFFE43AFEC316
:1025B600ED9FEC9E500DD212C3ED9B788AF678867D
:1025C6007601228015B90218ED6B7002EC6A700A6A
:1025D600D212788AF67886760222C212E47886F6D5
:0125E60022D2
:1007F800788CE6FF54F8F526EF1206AE0841090892
:100808004C0A085B10086411087312088619089AC4
:100818001A08B92008BF28095F290A63330A9237E2
:100828000AB8390AD1410ADA490AE3500B27610AA2
:1008380029700B1F9800000B52788DE6FDE509FB27
:100848007F018021788DE6FC08E6FDAB09AA087FC8
:10085800018025D21278867603020B52788DE6FD48
:10086800E50BFB7F0212272E020B52788DE6FC085F
:10087800E6FDAB0BAA0A7F02122586020B52788D81
:10088800E6FDE509FB7F0112272E201203020B5219
:100898008016788DE6FC08E6FDAB09AA087F0112F0
:1008A8002586201203020B5278A076787F01020B6E
:1008B8004F75EF10020B52C2ACE4F525D283FB7AD8
:1008C8000079257F7F1224747B007A0079257F18B0
:1008D8001224747B007A0079257F051224747882AB
:1008E800E612246D7B007A007925AF081224747B08
:1008F800007A007925AF091224747B007A007925E3
:10090800AF0A1224747B007A007925AF0B12247485
:100918007B007A007925AF0C1224747B007A007969
:1009280025AF0D122474E4F527740E2527F8E61276
:10093800246D0527E527C3941040EE7B007A0079E3
:0609480000AF251224742B
:0E094E0075320A0075330300D533FCD532F53F
:10095C00020A16788DE6FFC37882964003020A1DC0
:10096C00EF75F010A4256EF9E56D35F0856C2FF55B
:10097C00308931C2ACE4F525D283FB7A0079257F2E
:10098C007F1224747B007A0079257F0D122474ABBE
:10099C002FAA30A9311203B912246DAB2FAA30A99A
:1009AC003190000112246AAB2FAA30A931900002B9
:1009BC0012246AAB2FAA30A93190000312246AAB1F
:1009CC002FAA30A93190000412246AE4F527AB2F2A
:1009DC00E5312405F9E43530FA7E00E92527F9EEF6
:1009EC003AFA1203B912246D0527E527C39408407F
:0C09FC00DD7B007A007900AF2512247426
:0E0A080075320A0075330300D533FCD532F584
:100A1600C283D2AC020B5278A07678E408F67F0245
:100A2600020B4F122A9378A812063578A0767C78A6
:100A3600A8E678A1F678A9E678A2F678AAE678A3D9
:100A4600F678ABE678A4F67C007D057B007A007923
:100A5600A012223278A5EFF67F06020B4F788DE6BC
:100A6600FFB4010B08E6F50808E6F509020B1FEFCF
:100A7600B40208788EE6F508020B1F788DE6B403FB
:100A86000808E6F50A08E6F50B020B1FE4F527E56C
:100A960027C3788D965016748E2527F8E6FF740EB8
:100AA6002527F8C6EFC60527E527B410E2E4F51DAD
:100AB60080677A007B327D01788AE6FF1223C87848
:100AC6008DE6FDE4FF1229A0020B52788DE624FF85
:100AD600920A8078788DE624FF9209806F788AE6FC
:100AE6006005752902800B2015057529038003759D
:100AF600290178A0767908A6297C007D027B007AF8
:100B06000079A012223278A2EFF67F03122A3CE582
:100B16002964017037D2168002D210788076F1806F
:100B26002B7A007B327D017F001223C878A076796C
:100B3600788DE678A1F67C007D027B007A0079A0AC
:100B460012223278A2EFF67F03122A3CE52664A031
:100B56006003020D50788CE664A16003020C4A79AA
:100B66008DE7C37882964003020C41AB6CAA6DA94F
:100B76006E788DE6FF75F010A4F58285F08312037A
:100B8600D2F529EF75F010A429F9EA35F0FA9000AC
:100B9600041203D230E230788DE6FF12001D8F2951
:100BA60078A0767F08A629E5292402FDE433FC7B9C
:100BB600007A0079A012223274A22529F8EFF6E510
:100BC600292403FF020D4D788DE6FF12001DC2ACED
:100BD600E4F525D283E529D39406402B7B007A00E1
:100BE60079257F7F1224747B007A007925AF29123C
:100BF6002474E4F527E527C39529500712244105F7
:100C06002780F205298018E529247812246DE4F559
:100C160027E527C395295007122441052780F27B33
:0A0C2600007A007900AF2512247453
:0E0C300075320A0075330300D533FCD532F55A
:100C3E00020D4178A076787F01020D4D788CE66426
:100C4E00A26003020D507882E6FF788DE6FEC39F08
:100C5E004003020D4708E6FDC39F4003020D47EE19
:100C6E009D4003020D4718E6F527E4F52DF52EE518
:100C7E0027D3788E965026AF2712001DAB6CAA6D27
:100C8E00A96E75F010E527A4F58285F0831203D2C4
:100C9E00252EF52EE4352DF52D052780D2C2ACE498
:100CAE00F525D283FB7A0079257F7F122474C3E564
:100CBE002E9480E52D940050028007E52D4480127D
:100CCE00246DAF2E12246E788DE6F527E527D378A6
:100CDE008E965046E4F528AB6CAA6DA96E75F01091
:100CEE00E527A4F58285F0831203D2FFE528C39F82
:100CFE005024E52775F010A429F9EA35F0FA900092
:100D0E000D12067E788AE6FF18E68FF0A4252812CB
:100D1E002463052880C1052780B27B007A00790004
:050D2E00AF2512247442
:0E0D330075320A0075330300D533FCD532F556
:100D4100C283D2AC800978A076787F01122A3CE573
:100D51002664587047FA7B327D01788AE6FF1223B8
:100D6100C87537007538007539A17B007A00798D17
:100D71001228D18F29E529247878A0F6E5292401C4
:100D8100FDE433FC7B007A0079A012223274A125A4
:100D910029F8EFF6E5292402FF122A3CE5266480B2
:100DA1006009E52664886003020F377886E6B4019E
:100DB1000F7A007B327D01788AE6FF1223C8801A00
:100DC100E4F527E527C3787B96500F7A007B327DC7
:100DD10001AF271223C8052780E9788CE65407F56F
:100DE10029B4070A75280108E6F529088005E4F504
:100DF10028788DE6F52A1529E52AC37882964003DD
:100E0100020F15AB6CAA6DA96E75F010E52AA4F559
:100E11008285F0831203D2FFE529D39F40028F29F7
:100E21007886E6B40109788AE6F52CF52B8009E489
:100E3100F52B787BE614F52C788AA62B788AE6D3F5
:100E4100952C4003020F09E4F527E527C3952940B6
:100E510003020EFEE52A75F010A4AB6C256EF9E5D0
:100E61006D35F0FA9000041203D230E203020EF95C
:100E71009000011203D264387031E529D394044003
:100E81000BE5282527248EF8E6FD804E7884E6C3FD
:100E91009527FF748A2FF8E6FDE52A75F010A4ABBB
:100EA1006C256EF9E56D35F0FA802FAB6CAA6DA952
:100EB1006E75F010E52AA4F58285F0831203D2FF46
:100EC100C37884E69F25272528248BF8E6FDE52AAB
:100ED10075F010A429F9EA35F0FA90000D12067E9A
:100EE100788AE6FF18E68FF0A4FFE5272FF582E464
:100EF10035F0F583ED1204110527020E4BAF2A12CE
:100F010027F9788A06020E3D788AA62BE5266488A1
:100F11007024800FE52AB4FF1D788EE6F521E526C1
:100F2100B4881378A076787884E6248BF8E678A1E3
:060F3100F67F02122A3CCB
:010F37002297
:103000007880E664F16003023613E4F54EF54F78FC
:0430100081E66020D5
:0E30140075540A0075550300D555FCD554F5CA
:10302200054FE54F7002054E64107004E54E6427AB
:1030320070DBC2AFE4F5D9F54AF54920982FE4F5E3
:103042004EF54F209823C3E54F9488E54E941350D4
:013052001865
:0E30530075540A0075550300D555FCD554F58B
:10306100054FE54F70DE054E80DAB2B080CE85990E
:1030710049C298E549641A6003023146F54EF54F9D
:0E308100209823C3E54F9488E54E9413501811
:0E308F0075540A0075550300D555FCD554F54F
:10309D00054FE54F70DE054E80DA30989385994ADD
:1030AD00C298E4F54EF54F209823C3E54F9488E57B
:0530BD004E94135018B1
:0E30C20075540A0075550300D555FCD554F51C
:1030D000054FE54F70DE054E80DA20980302303D43
:1030E00085994AC298E4F54EF54F209823C3E54FE1
:0830F0009488E54E941350187A
:0E30F80075540A0075550300D555FCD554F5E6
:10310600054FE54F70DE054E80DA20980302303D0C
:0931160085994AC298D283C2993E
:0E311F007554140075550300D555FCD554F5B4
:06312D007599783099FD50
:0E31330075540A0075550300D555FCD554F5AA
:10314100C283023605E549645060030231DBF54E66
:10315100F54F209823C3E54F9488E54E94135018FA
:0E31610075540A0075550300D555FCD554F57C
:10316F00054FE54F70DE054E80DA20980302303DA3
:09317F0085994AC298D283C299D5
:0E3188007554140075550300D555FCD554F54B
:083196007599793099FDC29989
:0E319E007554140075550300D555FCD554F535
:0831AC007599013099FDC299EB
:0E31B4007554140075550300D555FCD554F51F
:0631C200E4F5993099FDCF
:0E31C80075540A0075550300D555FCD554F515
:0F31D600C283023605E54964017041D283C29974
:0E31E5007554140075550300D555FCD554F5EE
:0831F3007599783099FDC2992D
:0E31FB007554140075550300D555FCD554F5D8
:06320900E4F5993099FD87
:0E320F0075540A0075550300D555FCD554F5CD
:10321D00C283023605E549640260030232E2F54ECF
:10322D00F54F209823C3E54F9488E54E941350181D
:0E323D0075540A0075550300D555FCD554F59F
:10324B00054FE54F70DE054E80DA20980302303DC6
:10325B0085994AC298E4F54BE54A13B392B0E54A17
:10326B0025E0FEC3E49400EE94305027E54A7F003E
:10327B0025E0FEC3943A501B758F038E508F51750A
:10328B00B7A57880E6F5B7855182855083E4F0F5D4
:0A329B008F8003754BFFD283C299A8
:0E32A5007554140075550300D555FCD554F52D
:0832B3007599783099FDC2996C
:0E32BB007554140075550300D555FCD554F517
:0632C900854B993099FDD0
:0E32CF0075540A0075550300D555FCD554F50D
:1032DD00C283023605E5496403600302342CF54EC2
:1032ED00F54F209823C3E54F9488E54E941350185D
:0E32FD0075540A0075550300D555FCD554F5DF
:10330B00054FE54F70DE054E80DA20980302303D05
:10331B0085994AC298E4F54EF54F209823C3E54FA3
:08332B009488E54E941350183C
:0E33330075540A0075550300D555FCD554F5A8
:10334100054FE54F70DE054E80DA20980302303DCF
:1033510085994CC298E54A1392B0E54A25E0FEC32F
:10336100E49400EE9430400302303DE54A7D0025AF
:10337100E0FCC3943A400302303D758F01E54C7582
:10338100F020A42DFFE5F03CF5508F51E4F54DE51B
:103391004DC394205051E4F54EF54F209823C3E5D9
:0933A1004F9488E54E9413501876
:0E33AA0075540A0075550300D555FCD554F531
:1033B800054FE54F70DE054E80DA20980302303D58
:1033C80075B7A57880E6F5B70551E551AE5070029E
:1033D800055014F5828E83E599F0C298054D80A8B2
:0733E800E4F58FD283C299C6
:0E33EF007554140075550300D555FCD554F5E2
:0833FD007599783099FDC29921
:0E3405007554140075550300D555FCD554F5CB
:06341300E4F5993099FD7B
:0E34190075540A0075550300D555FCD554F5C1
:10342700C283023605E549640460030234E0F54EC1
:10343700F54F209823C3E54F9488E54E9413501811
:0E34470075540A0075550300D555FCD554F593
:10345500054FE54F70DE054E80DA20980302303DBA
:1034650085994AC298E54A25E0F552755300E4F579
:103475004BF54EF54F0553E553AE52700205521408
:10348500F5828E83E493254BF54B054FE54F70028E
:0E349500054E7004E54E640270DBD283C299CE
:0E34A3007554140075550300D555FCD554F52D
:0834B1007599783099FDC2996C
:0E34B9007554140075550300D555FCD554F517
:0634C700854B993099FDD0
:0E34CD0075540A0075550300D555FCD554F50D
:1034DB00C283023605E549640560030235FDF54EEE
:1034EB00F54F209823C3E54F9488E54E941350185D
:0E34FB0075540A0075550300D555FCD554F5DF
:10350900054FE54F70DE054E80DA20980302303D05
:1035190085994AC298E4F54EF54F209823C3E54FA3
:083529009488E54E941350183C
:0E35310075540A0075550300D555FCD554F5A8
:10353F00054FE54F70DE054E80DA20980302303DCF
:09354F0085994CC298D283C299FF
:0E3558007554140075550300D555FCD554F577
:0835660075997F3099FDC299AF
:0E356E007554140075550300D555FCD554F561
:10357C007599203099FDE54A25E0FCE54C75F02065
:10358C00A42400FFE5F03CF5528F53E4F54BF54DC8
:02359C00C299D2
:0E359E007554140075550300D555FCD554F531
:1035AC00855382855283E493F5993099FD0553E553
:1035BC0053AE527002055214F5828E83E493254B60
:0B35CC00F54B054DE54DB420C7C2993A
:0E35D7007554140075550300D555FCD554F5F8
:0635E500854B993099FDB1
:0E35EB0075540A0075550300D555FCD554F5EE
:1035F900C2838008E549B4060375EF10E5496407FD
:0A360900600302303D7880F6D2AF76
:013613002294
:1024B3007F0012292920110B7A007B327D017F00D6
:1024C3001223C830140B7A007B1E7D017F00122378
:1024D300C83010173015147A007B327D01788AE6F4
:1024E300FF1223C8C2101220F3D21120130C30158F
:1024F30009788076F11220F3D213301608301505CF
:10250300C216123000201512122A86E47B2C7A019F
:0B251300F9F8C31205BA5002D21522DD
:0B2AAC001214B11224B3120F3880F88E
:101B6800005EBCE2613FDD83C29C7E20A3FD1F4175
:101B78009DC3217FFCA2401E5F01E3BD3E6082DC65
:101B8800237D9FC1421CFEA0E1BF5D0380DE3C6255
:101B9800BEE0025CDF81633D7C22C09E1D43A1FF45
:101BA8004618FAA427799BC584DA3866E5BB590735
:101BB800DB856739BAE406581947A5FB7826C49A25
:101BC800653BD987045AB8E6A7F91B45C6987A2415
:101BD800F8A6441A99C7257B3A6486D85B05E7B905
:101BE8008CD2306EEDB3510F4E10F2AC2F7193CDF5
:101BF800114FADF3702ECC92D38D6F31B2EC0E50E5
:101C0800AFF1134DCE90722C6D33D18F0C52B0EED4
:101C1800326C8ED0530DEFB1F0AE4C1291CF2D73C4
:101C2800CA947628ABF517490856B4EA6937D58BB4
:101C38005709EBB536688AD495CB2977F4AA4816A4
:101C4800E9B7550B88D6346A2B7597C94A14F6A894
:101C5800742AC896154BA9F7B6E80A54D7896B3584
:0A1C68000000000000002B96B9DD1B
:0329DD0001610A8B
:10223200151E151EA81EECF608EDF6151E151E1528
:102242001EA81EC6EBC608C6EAC608C6E9C6E51E33
:0422520024FCF51E55
:10225600F80808E4F6A81EF608F6E51E2407F9A80D
:102266001EE6FE08E6FFC3099719E76480F8EE64E8
:1022760080985037E51E2404F8CBE6CB08E6FA082A
:10228600E6F98F828E831203D2A81E080866FFE540
:102296001E2403F8EFF6E6901B6893A81E0808F6BE
:1022A600A81E0806E61870B20680AFA81E0808E643
:0122B600FF28
:0722B700E51E2409F51E22BB
:07000300ED6F901B6893FFF5
:01000A0022D3
:1029A000EF701B7598D0E589540F4420F589438E4C
:1029B00008ED901C6793F58DD28ED2ACC2BCD2AF1D
:0129C00022F4
:10277600E4F567F566F565F564F56BF56AF569F5F3
:1027860068756064FFEF25E025E0247CF8E4F6EF49
:1027960025E025E0247DF8E4F6EF25E025E0247E1B
:1027A600F8E4F6EF25E025E0247FF8E4F60FBF0114
:0127B600D44E
:0127B70022FF
:102A2100D2AFD2A9C2BBE589540F4401F589E4F5BF
:0B2A31008E758CAFF58AD28C022776E0
:02219600151E14
:10219800A81EE4F6A81EE6FFC39401400302222FFE
:1021A800EF25E025E0247FF8E6FFD394004052A80D
:1021B8001EE625E025E0247DF8E67045EF30E015C1
:1021C800A81EE6FF25E025E0247FF8E6D394014029
:1021D800047D0180067D00A81EE6FF1227B8A81E10
:1021E800E6FF25E025E0247FF816E66014EF25E0F9
:1021F80025E0247EF8E6FEEF25E025E0247DF8EED4
:10220800F6A81EE625E025E0247DF8E6600116A87C
:102218001EE6FF25E025E0247FF8E67004FD12277E
:07222800B8A81E0602219C6C
:03222F00051E2267
:03000B0002234A83
:10234A00C0E0C0F0C083C082C0D0E8C0E0E9C0E00D
:10235A00EAC0E0EBC0E0ECC0E0EDC0E0EEC0E0EFC8
:10236A00C0E0758CAFE5672401F567E43566F5666C
:10237A00E43565F565E43564F564D56018E56B24E4
:10238A0001F56BE4356AF56AE43569F569E435689F
:10239A00F568756064122196122A01D0E0FFD0E038
:1023AA00FED0E0FDD0E0FCD0E0FBD0E0FAD0E0F9CE
:0E23BA00D0E0F8D0D0D082D083D0F0D0E03286
:10295200151EA81EEDF6151EA81EEFF6A81EE6FF10
:10296200C39401500D08E6FEEF25E025E0247CF833
:07297200EEF6051E051E2212
:1023C800151E151EA81EEAF608EBF6151EA81EED2A
:1023D800F6151EA81EEFF6A81EE6FFC3940150527C
:1023E800EF25E025E0247FF8E67047A81EE6FB25E8
:1023F800E025E0247DF8E67039A81E08E625E0040B
:10240800FFA81EE6FA25E025E0247FF8EFF6A81ECF
:102418000808E6FE08E6FF7C007D0A120445EA2566
:10242800E025E0247EF8EFF6EB25E025E0247DF8B2
:09243800E4F6E51E2404F51E2261
:1027B800151EA81EEDF6151EA81EEFF6A81EE6FFAC
:1027C800C39401501CEF25E025E0247CF8E6601155
:1027D800A81E08E670047F0180027F00A81E08EF8B
:1027E800F6A81EE6700608E624FF92B0051E051E30
:0127F80022BE
:0C2A8600C2AFAF67AE66AD65AC64D2AF06
:012A92002221
:0C2A9300C2AFAF6BAE6AAD69AC68D2AFE9
:012A9F002214
:10292900151EA81EEFF6A81EE67004F562F56330C1
:102939001714E56175F064A4FFC3E5639FE562952B
:09294900F05003E4F5FE051E2226
:1029E100D217E4F562F563EF6004F5618003756168
:1029F1000AE4F5D975FDFF75D940F5FE75EF06229C
:0A2AB700C217E4F562F563F5D922B9
:102A01000563E56370020562301714E56175F064D2
:102A1100A4FFC3E5639FE56295F05003E4F5FE2250
:0428FE008E3E8F3F3C
:10290200E4F540F541C3E541953FE540953E50165B
:102912007FE87E031225E77F011229290541E5415F
:0629220070E3054080DFB8
:01292800228C
:0425E7008E5C8F5D1A
:1025EB00D3E55D94FAE55C9400500FEFD394004073
:1025FB0041007E0300DEFD1F80F1855C5E855D5F23
:10260B00D3E55F94FAE55E940040157FFA7E0012E5
:10261B0025E77406255FF55F74FF355EF55E80E098
:10262B00D3E55D9400E55C94004007AF5FAE5E12AE
:02263B0025E791
:01263D00227A
:10251E00754900754A00754B437B007A0079417D01
:01252E0002AA
:08252F008B458A4689478D485F
:102537007F01122929AB49AA4AA94B12047B24001F
:10254700FFE5F0343AFE85454C85464D85474EE418
:10255700FDEDC39548501BEF2DF582E43EF583E46E
:1025670093AB4CAA4DA94E8D827583001204110DB1
:0F25770080DFAB49AA4AA94BE48548F00204A6CD
:10203A00754B12754C3475530075540075554D7BAC
:07204A00007A00794B7D02D2
:082051008B4F8A5089518D521A
:102059007880E664F160030220F2122AB7C2AF75F4
:102069008F01AB53AA54A95512047B2400FFE5F054
:10207900343A78ACF608EFF6AA50A95178B0A64FD1
:1020890008C6EAC608C6E9C6E478AEF678AEE6C37D
:102099009552503C78B0CBE6CB080806E618CAE65C
:1020A900CA70010614F91203B978AFF675B7A578A5
:1020B90080E6F5B778AFE6FF78AC0806E618CCE617
:1020C900CC70010614F5828C83EFF078AE0680BCE3
:1020D900E4F58F53B6F0AB53AA54A9558552F012C3
:0920E90004A6D2AFE4FF1229E1C4
:0120F20022CB
:10263E007880E664F1704AC2AF122AB7758F0378BC
:10264E00AD763A087600E478ACF675B7A57880E6F4
:10265E00F5B778ADE6FE08E6F5828E83E4F07F01ED
:10266E0012292978AEE426F618740236F61806E614
:10267E00C3940140D5E4F58F53B6F0D2AFFF1229C3
:01268E00E16A
:01268F002228
:1020F30012263EE4F54DF54EF55375540075554DD6
:10210300FB7A0079087D1612205112203AE4F54A31
:10211300E54AC3787B965073E4F549AB6CAA6DA985
:102123006E75F010E549A4F58285F0831203D26041
:1021330056E54975F010A429F9EA35F0FA90000D37
:1021430012067E7889E6854AF0A429F9EA35F0FA81
:10215300EBC0E0EAC0E0E9C0E0AB6CAA6DA96E7524
:10216300F010E549A4F58285F0831203D2FD75537F
:102173000075540075554DD0E0F9D0E0FAD0E0FB7E
:1021830012205105498094054A808512203AE4784B
:0221930080F6D4
:012195002227
:031F7100CCEFCCE6
:101F7400E4F543F544F540F549754A00754B43FBD8
:101F84007A0079087D1612252F12251EE542643445
:101F94007004E54164127003434001EC70030220B5
:101FA40034E4F53FE53FC3787B965073E4F53EABEC
:101FB4006CAA6DA96E75F010E53EA4F58285F083D8
:101FC4001203D26056E53E75F010A429F9EA35F003
:101FD400FA90000D12067E7889E6853FF0A429F96F
:101FE400EA35F0FAEBC0E0EAC0E0E9C0E0AB6CAA85
:101FF4006DA96E75F010E53EA4F58285F083120399
:10200400D2FD754900754A00754B43D0E0F9D0E024
:10201400FAD0E0FB12252F053E8094053F808512FF
:10202400251EE54264347004E541641270058000A5
:05203400434002AF4033
:012039002284
:101D760000070E091C1B1215383F363124232A2D65
:101D860070777E796C6B6265484F464154535A5D55
:101D9600E0E7EEE9FCFBF2F5D8DFD6D1C4C3CACD45
:101DA60090979E998C8B8285A8AFA6A1B4B3BABD35
:101DB600C7C0C9CEDBDCD5D2FFF8F1F6E3E4EDEA25
:101DC600B7B0B9BEABACA5A28F88818693949D9A15
:101DD6002720292E3B3C35321F18111603040D0A05
:101DE6005750595E4B4C45426F68616673747D7AF5
:101DF600898E878095929B9CB1B6BFB8ADAAA3A4E5
:101E0600F9FEF7F0E5E2EBECC1C6CFC8DDDAD3D4D4
:101E1600696E676075727B7C51565F584D4A4344C4
:101E2600191E171005020B0C21262F283D3A3334B4
:101E36004E49404752555C5B7671787F6A6D6463A4
:101E46003E39303722252C2B0601080F1A1D141394
:101E5600AEA9A0A7B2B5BCBB9691989F8A8D848384
:101E6600DED9D0D7C2C5CCCBE6E1E8EFFAFDF4F374
:10287100151EA81EA605151E151EA81EA60608A62D
:1028810007A81E0808E6FFA81EE6FE08E66F2476E4
:10289100F582741D3EF583E493FF051E051E051E9A
:0128A1002214
:032AD00002000EF3
:0F000E00EF64014E7002C2A67F027E000228FE40
:102A5600EF64014E7011D2A67F0CFE1225E7C2A6C6
:082A66007F047E001225E72227
:102A6E00EF64014E7011D2A67F04FE1225E7C2A6B6
:082A7E007F0C7E001225E72207
:10283900EF64014E7031D2A67F01FE1225E7C2A6D0
:102849007F087E001225E7E59A5440C41313540308
:10285900FFBF010A7F087E001225E77F01227F085A
:082869007E001225E77F00222A
:0626E2008F4E8C4F8D505D
:1026E800E4F551F552F553F552755307AF53E54EDE
:1026F800A807088002C313D8FC5401F5517009AF2C
:1027080050AE4F122A6E800CE551B40118AF50AE8E
:102718004F122A56E553155370021552C3E55264F9
:0527280080948050C701
:01272D002289
:0428A2008E588F5964
:1028A600E4F55AF55B755B07AF59AE58122839AE99
:1028B6005BEFA806088002C333D8FC425A155BC3F7
:0A28C600E55B6480948050E0AF5A97
:0128D00022E5
:0A2AC10075E8C075BC8075D10E22C7
:10297900EF541FF5BB75BAFFC2AFC2EDD2ECC2ED81
:10298900D2EC20ECFDD2AFE5BE5403FEADBD7C0018
:07299900E42DFFEC3EFE22DD
:032AD300022AD004
:0618FB008F408D418B427D
:101901009000BB12064D000000007D00AF407E003C
:10191100122871AD07AF427E00122871AD07AF43A7
:101921007E00122871AD07AF417E00122871900030
:10193100BAEFF0E54264037021FDAF45FE12287154
:10194100AD07AF447E00122871AD079000BAE0FFE9
:101951007E001228719000BAEFF0754B01754D149D
:10196100E54B7003021A56E54D7003021A56AF4754
:10197100AE46122A6EAF47AE46122A6EAD47AC464E
:10198100AF401226E2AF47AE46122A6EAD47AC46D3
:10199100AF421226E2AD47AC46AF431226E2E54222
:1019A10070028028AD47AC46AF411226E2E541B452
:1019B100F6028018E54264037029AD47AC46AF4595
:1019C1001226E2AD47AC46AF441226E29000BAE0DF
:1019D100FF854852854953854A54AB47AA467DFF46
:1019E100021A59E54264017067E54364027061E5DA
:1019F1004B603F9000BAE0FF854852854953854AC4
:101A010054AB47AA46E4FD121A598F4CE54C70229B
:101A11009000BBE0FCA3E0FDA3E0FEA3E0FFAB4828
:101A2100AA49A94A12061512002D9000BB120641BF
:101A3100154BE54B701A9000BBE0FCA3E0FDA3E061
:101A4100FEA3E0FFAB48AA49A94A1205EB7F002299
:071A5100154D021961AF4CB5
:011A5800226B
:081A59008F4E8D4F8A508B5116
:101A6100E4F557AF51AE501228A2E54E6F60037FE7
:101A7100FF22EFF4B54E037FFD22E54FB4FF037F54
:101A81000122E54F6003021B65AF51AE501228A23F
:101A91008F55AF51AE501228A28F56AF51AE501292
:101AA10028A28F577D00AF557E00122871AD07AF78
:101AB100567E00122871EF655760037FFE22E556BE
:101AC10030E7096356FFE555F404F555E556FE7C0C
:101AD10000E42555FFEC3EFE9000BFF0A3EFF0FDC2
:101AE100AC06EC120336E4FBFA7980784212022745
:101AF100AB52AA53A9541205EBAB52AA53A954C035
:101B010003C002C0011205CB7BCC7A5D795B783FC3
:101B1100120029D001D002D0031205EBAB52AA5317
:101B2100A9541205CBE4FBFA79C878421202C440E9
:101B310017AB52AA53A9541205CBE4FBFA792078CA
:101B4100C11202C4600540037FFA22AB52AA53A915
:101B5100541205CB7BCC7A5D795B78BF1202C470DD
:061B6100037FFB227F0060
:011B6700225B
:100026000203A4E86480F8E933E83360110460F061
:10003600ED33EC337009E8FCE9FDEAFEEBFF220440
:1000460060DED3EB9FEA9EE99DE8C2E78CF0C2F73B
:1000560095F0400CE8CCF8E9CDF9EACEFAEBCFFB07
:1000660012036F85D0F05804700320D5B3E80470EE
:10007600075002B2D50203AE92D5EC0460F7E4CC89
:10008600C0E0C398F8603B94186008400DD0E0FBD0
:10009600020386E4FBFAC9FC8028E830E406E4C9DA
:1000A600FBE4CAFCE830E305E4C9CACBFCE8540724
:1000B6006010F8C3E913F9EA13FAEB13FBEC13FC2F
:1000C600D8F130F52FC3E49CFCEF9BFFEE9AFEEDD2
:1000D60099FDD0E0FBEF4E4D4C701222DB0302037C
:1000E600ABEC2CFCEF33FFEE33FEED33FDED30E7EA
:1000F600EB020386EF2BFFEE3AFEED39FDD0E0FB77
:1001060050130BBB00030203AEED13FDEE13FEEF1F
:0801160013FFEC13FC02038649
:10011E00EC4D6011E8497017ED33EC3304600DE4DB
:10012E00FCFFFEFD22E933E8330470F80203A4124B
:10013E00036F58046009E4CC24815006285009024C
:10014E0003AE2840030203ABC0E0EB4A7044B98013
:10015E0006D0E0FB02039AEF4E701CBD8008EBFF49
:10016E00EAFEE9FD80EBE98DF0A4FEE5F002020760
:10017E00E9CDF9EAFEEBFFEF89F0A4FCE5F0CE89BC
:10018E00F0A42EFFE435F0CD89F0A42DFEE435F079
:10019E008067EF4E7005BD80D780C3EF8BF0A4ACA7
:1001AE00F0EE8BF0A42CFCE435F0F8EF8AF0A42CE2
:1001BE00E5F038FCE433CB8DF0A42CFCE5F03BF8F5
:1001CE00EE8AF0A42CFCE5F038F8E433CF89F0A4E5
:1001DE002CFCE5F038CF3400CE89F0A42FFFE5F0EB
:1001EE003EFEE433C98DF0A42EFEE5F039CD8AF043
:1001FE00A42FFFE5F03EFEE43DFD33D0E0FB5007BB
:10020E000BBB000F0203AEEC2CFCEF33FFEE33FE04
:06021E00ED33FD02038632
:100224000203AEEC5D046005E8590470030203A404
:1002340012036F580460F6EC4860F2EC7004FDFEA3
:10024400FF22C860DB2481C85009C39860025006AD
:100254000203AB9850CAF582E9294B4A7005AB8278
:1002640002039A75F0007C1A7880C3EF9BEE9AED36
:1002740099400DC3EF9BFFEE9AFEED99FDE842F025
:10028400DC23ACF0D0E0FFD0E0FED0E0FDAB822078
:10029400E7101BEB60BAEC2CFCEF33FFEE33FEED02
:1002A40033FD020386E803F830E705C0F075F0007B
:1002B400EF2FFFEE33FEED33FD40B830E7C280AAE6
:1002C40074F8CC6480CCC86480C8F582046043C3ED
:1002D400EB9FF5F0EA9E42F0E99D42F0E89C45F080
:1002E40060305018E5825FFFE582F42B5582FB50A5
:1002F400210ABA001D09B90019088016E5825BFBC2
:10030400E582F42F5582FF50090EBE00050DBD0095
:10031400010CC3EB9FF5F0EA9E42F0E99D42F0E840
:0D0324009C45F06007CC4820E701B3EC22B7
:1003310075F020800E75F010800575F0087D007E47
:10034100007F003392D530D5031205ACEC33401059
:10035100EF33FFEE33FEED33FDEC33FCD5F0ED2250
:0E036100E5F0247EA2D513CC92E7CDCEFF228C
:10036F00E9D2E7C933E833F892D5EDD2E7CD33ECD4
:07037F0033FC5002B2D5224D
:10038600EC30E7100FBF000C0EBE00080DBD0004D8
:100396000BEB6014A2D5EB13FCED92E7FD2274FF84
:1003A600FCFDFEFF22E480F8A2D574FF13FC7D80DD
:0303B600E480EFF1
:030000000222BE1B
:0C22BE00787FE4F6D8FD7581B20223059C
:1003B900BB010689828A83E0225002E722BBFE0242
:0903C900E32289828A83E4932275
:1003D200BB010CE58229F582E5833AF583E02250E0
:1003E20006E92582F8E622BBFE06E92582F8E2222A
:0D03F200E58229F582E5833AF583E4932244
:1003FF00BB010689828A83F0225002F722BBFE01DD
:02040F00F322D6
:10041100F8BB010DE58229F582E5833AF583E8F021
:10042100225006E92582C8F622BBFE05E92582C8CD
:02043100F222B5
:10043300EF8DF0A4A8F0CF8CF0A428CE8DF0A42EDD
:02044300FE2297
:10044500C2D5EC30E709B2D5E4C39DFDE49CFCEED2
:1004550030E715B2D5E4C39FFFE49EFE120700C343
:10046500E49DFDE49CFC800312070030D507C3E43E
:060475009FFFE49EFE2241
:10047B00BB010A89828A83E0F5F0A3E0225006874C
:10048B00F009E71922BBFE07E3F5F009E31922890E
:0B049B00828A83E493F5F07401932241
:1004A600BB010789828A83020755500B09C5F027CD
:1004B600F7C5F01937F722BBFE0D09F8E325F0F36F
:1004C600C5F019E338F322F889828A8374019325EB
:0804D600F0C5F0F8E4933822B0
:1004DE0075F008758200EF2FFFEE33FECD33CDCCD5
:1004EE0033CCC58233C5829BED9AEC99E582984058
:1004FE000CF582EE9BFEED9AFDEC99FC0FD5F0D635
:10050E00E4CEFBE4CDFAE4CCF9A88222B800C1B95E
:10051E000059BA002DEC8BF084CFCECDFCE5F0CB9C
:10052E00F97818EF2FFFEE33FEED33FDEC33FCEBD5
:10053E0033FB10D703994004EB99FB0FD8E5E4F990
:10054E00FA227818EF2FFFEE33FEED33FDEC33FC7D
:10055E00C933C910D7059BE99A4007EC9BFCE99A71
:10056E00F90FD8E0E4C9FAE4CCFB2275F010EF2FB6
:10057E00FFEE33FEED33FDCC33CCC833C810D707B6
:10058E009BEC9AE899400AED9BFDEC9AFCE899F8F1
:0E059E000FD5F0DAE4CDFBE4CCFAE4C8F92284
:0E05AC00C3E49FFFE49EFEE49DFDE49CFC2260
:1005BA00EB9FF5F0EA9E42F0E99D42F0E89C45F097
:0105CA00220E
:1005CB00BB010789828A830207775005E9F8020786
:1005DB006BBBFE05E9F802078389828A8302060555
:1005EB00BB010789828A830206415005E9F802069E
:0A05FB0035BBFE05E9F80207C52232
:10060500E493FC740193FD740293FE740393FF223B
:10061500BB010789828A8302079C5005E9F8020716
:100625008FBBFE05E9F80207A889828A830207B510
:0C063500ECF608EDF608EEF608EFF622F1
:0C064100ECF0A3EDF0A3EEF0A3EFF0222C
:10064D00A8828583F0D083D08212066412066412CC
:10065D000664120664E473E493A3C583C5F0C583F1
:10066D00C8C582C8F0A3C583C5F0C583C8C582C8F7
:01067D00225A
:10067E00BB010DE58229F582E5833AF5830207DA9F
:10068E005007E92582F80207D1BBFE07E92582F85B
:10069E000207E3E58229F582E5833AF5830207EC4A
:1006AE00D083D082F8E4937012740193700DA3A3DB
:1006BE0093F8740193F5828883E4737402936860EF
:0606CE00EFA3A3A380DFEF
:102690008B3E8A3F8940E4F546F547E5451545AE52
:1026A00044700215444E6033AB41AA42A943120361
:1026B000B9FFAB3EAA3FA9400547E547AC467002CB
:1026C000054614F5828C83EF120411EF60CD74017E
:1026D0002543F543E43542F54280C0AB3EAA3FA90D
:0226E000402296
:1006D400EF4E6012EF60010EEDBB010B89828A833D
:1006E400F0A3DFFCDEFA2289F05007F709DFFCA94A
:0C06F400F022BBFEFCF309DFFCA9F022A1
:1022CA00022AACE493A3F8E493A34003F68001F254
:1022DA0008DFF48029E493A3F85407240CC8C33315
:1022EA00C4540F4420C8834004F456800146F6DFE4
:1022FA00E4800B01020408102040809029C1E47E8A
:10230A00019360BCA3FF543F30E509541FFEE493D8
:10231A00A360010ECF54C025E060A840B8E493A39F
:10232A00FAE493A3F8E493A3C8C582C8CAC583CACA
:10233A00F0A3C8C582C8CAC583CADFE9DEE780BE82
:0129E00000F6
:10070000BC000BBE0029EF8DF084FFADF022E4CCDD
:10071000F875F008EF2FFFEE33FEEC33FCEE9DECA6
:10072000984005FCEE9DFE0FD5F0E9E4CEFD22EDEC
:10073000F8F5F0EE8420D21CFEADF075F008EF2F36
:10074000FFED33FD4007985006D5F0F222C398FD27
:050750000FD5F0EA22C4
:10075500C5F0F8A3E028F0C5F0F8E582158270022F
:060765001583E038F022CC
:0C076B00E6FC08E6FD08E6FE08E6FF22BA
:0C077700E0FCA3E0FDA3E0FEA3E0FF22F5
:0C078300E2FC08E2FD08E2FE08E2FF22B2
:0D078F00E6FB08E6F908E6FA08E6CBF822DA
:0C079C00E0F8A3E0F9A3E0FAA3E0FB22E0
:0D07A800E2FB08E2F908E2FA08E2CBF822D1
:1007B500E493F8740193F9740293FA740393FB229A
:0C07C500ECF208EDF208EEF208EFF22270
:0907D100E6FB08E6FA08E6F9224D
:0907DA00E0FBA3E0FAA3E0F92220
:0907E300E2FB08E2FA08E2F92247
:0C07EC00E493FB740193FA740293F92269
:00000001FF
