:1011FB005057525357495443480001340000005391
:10120B00687574646F776E01000001340000004351
:10121B006F6E74726F6C000100010134000000539B
:10122B0074617475730000010002041800000169F9
:10123B006E20566F6C7431010003041800000169B5
:10124B006E20566F6C7432010007041800000169A0
:10125B006E20566F6C743301000B04180000016F85
:10126B007574566F6C743101000F04180000016F18
:10127B007574566F6C743201001304180000016F03
:10128B007574566F6C743301001704180000016FEE
:10129B007574566F6C743401001B04180000016FD9
:1012AB007574566F6C743501001F04180000016FC4
:1012BB007574566F6C743601002304060000016FC1
:1012CB007574637572310001002704060000016F0D
:1012DB007574437572320001002B04060000016F18
:1012EB007574437572330001002F04060000016F03
:1012FB007574437572340001003304060000016FEE
:10130B007574437572350001003704060000016FD8
:10131B007574437572360001003B040800000154DC
:10132B00656D703100000001003F0408000001549E
:10133B00656D703200000001004304080000015489
:10134B00656D703300000001004704080000015474
:10135B00656D703400000001004B0408000001545F
:10136B00656D703500000001004F0408000001544A
:10137B00656D703600000001005304080000016920
:10138B006E54656D7031000100570408000001694F
:10139B006E54656D70320001005B0408000001693A
:1013AB006E54656D70330001005F04080000014C42
:1013BB0054656D7031000001006304080000014C9E
:1013CB0054656D7032000001006704080000014C89
:1013DB0054656D7033000001006B04080000014C74
:1013EB0054656D7034000001006F04080000014C5F
:1013FB0054656D7035000001007304080000014C4A
:10140B0054656D703600000100770000000000008D
:10141B00000000000000000000000C0D1400010291
:10142B00030405060708090A0B40000000400000F2
:10143B0000400000004000000040000000400000A1
:10144B000040000000400000004000000040A000F1
:10145B000040A0000040A0000040A0000040A00001
:10146B000040A00000000000000000000000000091
:10147B000000000000000000000000000000000061
:10148B000000000000000000000000000000000051
:10149B000000000000000000000000000000000041
:0114AB000040
:1029BC000C6F245265763A20373433202400017B87
:0C29CC000143007B48494A036CFF1205E0
:02175200A907E5
:10175400E478ACF678ACE6FFC364809484501974E2
:10176400752FF8E6C3648094B0500878ACE624750D
:10177400F8763078AC0680DC7876E6FF3395E0FEC8
:10178400EF24D0FFEE34FFFE7C007D64120433AA04
:1017940006AB077875E6FF3395E0FEEF24D0FFEE45
:1017A40034FFFE7C037DE8120433EF2BFBEE3AFAA0
:1017B4007877E6FF3395E0FEEF24D0FFEE34FFFEAA
:1017C4007C007D0A120433EF2BFFEE3AFE7878E6B4
:1017D400FD3395E0FCED24D0FDEC34FFCD2FF50D69
:1017E400ED3EF50CE96044E4900000F0A3F0A3F0B2
:1017F400122AC67508008F09E478ACF678ACE6FFC7
:10180400C3648094865024EF3395E0FEEF7802C3DE
:1018140033CE33CED8F92463F58274003EF58312B7
:10182400064D4248000078AC0680D175A4FFE4F56B
:10183400F275F3C075F40F75A706759A80759E331B
:10184400759C02122ABC7F017E00122ACEE478AC79
:10185400F678ACE6FFC36480948F5024EF3395E0B0
:10186400FEEF7802C333CE33CED8F92403F5827465
:10187400003EF58312064D0000000078AC0680D1CE
:10188400E478ACF678ACE6FFC3648094865024EF29
:101894003395E0FEEF7802C333CE33CED8F9243F3C
:1018A400F58274003EF58312064D0000000078AC0A
:1018B4000680D1E478ACF678ACE6FFC36480948308
:1018C4005024EF3395E0FEEF7802C333CE33CED805
:1018D400F9243FF58274003EF58312064D000000A2
:1018E4000078AC0680D1E4900001F0A3F0900000F1
:0118F400F003
:0118F50022D0
:1027F400151EA81EA607A81EE664017030900001ED
:10280400E0FF13B39287EFA2E1B39286A2E2B39200
:1028140082A2E3B39281A2E4B39280A2E5B392B11F
:10282400A3F0E4900001F0900000F0F520051E22D2
:05001D008F347F00227A
:1028CC008B348A3589361203B9AB37AA38A9391239
:1028DC0003FFAB34AA35A9369000011203D2AB37F3
:0D28EC00AA38A9399000011204117F0222C0
:021E71008F40A0
:101E73009000C412064D00000000E49000BAF0A3E5
:101E8300F0AF401229749000C2EEF0A3EFF0A3E08C
:101E9300F8A3E0F9A3E0FAA3E0FB9000C2E0FEA3FD
:101EA300E0FFE4FCFDEB2FFFEA3EFEED39FDEC38ED
:101EB300FCA31206411224AE9000BBE004F07006AE
:101EC3009000BAE004F0C39000BBE0940A9000BA1B
:101ED300E0940040ACE47B0AFAF9F89000C4E0FC1B
:101EE300A3E0FDA3E0FEA3E0FF12051A9000BCEE01
:101EF300F0A3EFF0FDAC06E41203369000BE120629
:101F030041E4FBFA798078449000BEE0FCA3E0FD55
:101F1300A3E0FEA3E0FF1202277B837AC079527805
:101F23004012011E9000BE120641E540640E602A75
:101F3300AF44AE43AD42AC419000BEE0F8A3E0F93C
:101F4300A3E0FAA3E0FB12011EAB48AA47A946A8E7
:101F53004512002D9000BE1206419000BEE0FCA386
:081F6300E0FDA3E0FEA3E0FF96
:011F6B002253
:100F3800E4F53AF53BF53CF53D747B253DF582E457
:100F48003400F583E0FFC007754302E4F544F54536
:100F5800F546754701E53BAE3A7802C333CE33CE4A
:100F6800D8F9243FF974003E754801F549894AD0FB
:100F7800077B017D011218F6747B253DF582E43468
:100F880000F583E0FFC007754302E4F544F545F535
:100F980046754701E53BAE3A7802C333CE33CED827
:100FA800F92443F974003E754801F549894AD00788
:100FB8007B017D021218F67402253BF53BE4353AB5
:100FC800F53A053DE53D7002053CC39403E53C94C4
:100FD800005003020F41E4F53AF53BE53BAE3A78A1
:100FE80002C333CE33CED8F92463F58274003EF5BC
:100FF80083E0FCA3E0FDA3E0FEA3E0FFC004C0057E
:10100800C006C007E53BAE3A7802C333CE33CED82C
:10101800F9243FF58274003EF583E0F8A3E0F9A3D4
:10102800E0FAA3E0FBD007D006D005D0041202C432
:1010380060434041E53BAE3A7802C333CE33CED865
:10104800F9243FF58274003EF583E0FCA3E0FDA39C
:10105800E0FEA3E0FFE4FBFA794878431202C4609B
:10106800144012E53B2402FF7401A807088002C35C
:1010780033D8FC4220053BE53B7002053A6406453F
:101088003A6003020FE3E4F53AF53B747B253BF540
:1010980082E43400F583E0FFC007754302E4F544B9
:1010A800F545F546754701E53BAE3A7802C333CEC0
:1010B80033CED8F92457F974003E754801F54989AB
:1010C8004AD0077B01E4FD1218F6053BE53B7002A8
:1010D800053AC39403E53A940040B0E4F53EF53F81
:1010E800E53F90142593FFC007E53FAE3E7802C365
:1010F80033CE33CED8F9FBAA062434F58274143AD9
:10110800F5831206058F448E438D428C4174702BF3
:10111800F58274143AF5831206058F488E478D467A
:101128008C45D007121E71C004C005C006C007E573
:101138003FAE3E7802C333CE33CED8F9247EF58253
:1011480074003EF583D007D006D005D004120641BE
:10115800053FE53F7002053EC3940FE53E940050FD
:10116800030210E8C2AFE4F53EF53FE53FAE3E7836
:1011780002C333CE33CED8F9247EF58274003EF50F
:1011880083E0FCA3E0FDA3E0FEA3E0FFC004C005EC
:10119800C006C007E53FAE3E7802C333CE33CED893
:1011A800F92403F58274003EF583D007D006D005F4
:1011B800D004120641053FE53F7002053E64104524
:1011C8003E70A8D2AF20B3047F0180027F00EF42B7
:1011D80020C2AF900000E520F0D2AF6015D280D2D7
:1011E800B1D282D281D287D286C2AFE4900002F017
:0211F800D2AF74
:0111FA0022D2
:0C2A9B00245265763A203634382024009E
:1014AC00E47880F6122AB275E10175A49075E240D9
:1014BC0075B283E4F5A9122A1CE4FF1229DCE4F5C9
:1014CC003CF53D7D01AF3D12294D053DE53D7002DA
:1014DC00053CC39401E53C940040E8E4F521C212BC
:1014EC00C210C216C215C2147880F6C28308F678F0
:1014FC0085F618F6788AF6F53CF53D748C253DF8A2
:10150C00E4F6053DE53D7002053C6414453C70EB8A
:10151C00E4F53CF53D74A0253DF8E4F6053DE53DCC
:10152C007002053C6408453C70EBE5EF20E10CE5EE
:10153C00EF5408D394004003D38001C3920B7D0871
:10154C00E4FF12299BE47889F67882F6AB6CAA6DDD
:10155C00A96E7882E6FF75F010A4F58285F08312EF
:10156C0003D2FE788926F6EE600578820680DDEFE0
:10157C00D394004030AB6CAA6DA96E90000D12068E
:10158C007E1203B9FF74551203FF1203B964556040
:10159C0002D21474AA1203FF1203B964AA6002D215
:1015AC0014EF1203FFE5EF5402D3940040047F01C3
:1015BC008002E4FF121F6C8F3BE53B20E035C2112B
:1015CC0074FFF508F509F50AF50B7E007F107D0018
:1015DC007B007A00790E1206D47541FF75421175A5
:1015EC0043FB7544007545107B007A00790E12267A
:1015FC008B8002D211902AA2E493FF3395E0FEEF88
:10160C0024D0FFEE34FFFE7C007D64120433AA0666
:10161C00AB07902AA1E493FF3395E0FEEF24D0FFB3
:10162C00EE34FFFE7C037DE8120433EF2BFBEE3A25
:10163C00FA902AA3E493FF3395E0FEEF24D0FFEE5B
:10164C0034FFFE7C007D0A120433EF2BFFEE3AFED2
:10165C00A3E493FD3395E0FCED24D0FDEC34FFCDF9
:10166C002FF50DED3EF50CE53B30E103021729E4B7
:10167C00F53CF53DE53DC4F8540FC868FFE53CC4A6
:10168C0054F048FEAB6CAA6DA96E8F82F5831203E1
:10169C00D27003021720E92FF9EA3EFA90000412E7
:1016AC0003D220E264E4F53AE53AC3787B965059CC
:1016BC00E53DC4F8540FC868FFE53CC454F048AB92
:1016CC006CAA6DA96E8F82F5831203D2FF7E00C0C7
:1016DC0006C0077D00E53DC4F8540FC868FFE53C23
:1016EC00C454F048FEE92FF9EA3EFA90000D1206B8
:1016FC007E7889E6853AF0A429F9EA35F0FAD00724
:10170C00D0061206D4053A809F053DE53D700205D2
:10171C003C0216807F01121752C2138007E4FF129D
:10172C001752D213E4F53CF53D7A007B967D03AF5E
:10173C003D1223C3053DE53D7002053CC39401E514
:05174C003C940040E4A4
:011751002275
:052AC600788AE6FF2202
:03002300021C6D4F
:101C6D00C0E0C0F0C083C082C0D075D000C000C03D
:101C7D0001C002C003C004C005C006C00730993AB8
:101C8D00C2997885067985E77881667016F678852C
:011C9D00F650
:0E1C9E0075230A0075240300D524FCD523F518
:041CAC00C283801758
:0E1CB0007523140075240300D524FCD523F5FC
:101CBE007885E624A0F8E6F599209803021D5620B3
:101CCE009A07201204C298807BC29A7884E6062472
:101CDE008CF8A699C2987884E6FFB40113788CE646
:101CEE00FE70057884F68060EE54072402788BF639
:101CFE00EFB4020E788BE6B40908788DE6240379EA
:101D0E008BF77884E6FFB414047600803BEFC3783B
:101D1E008B9640347884E624FFFDE434FFFC7B0090
:101D2E007A00798C12222D7884E6248BF8E66F6087
:031D3E000280110F
:0E1D41007523140075240300D524FCD523F56A
:101D4F001207F878847600D007D006D005D004D0DB
:101D5F0003D002D001D000D0D0D082D083D0F0D029
:021D6F00E03260
:10243C00788DE675F010A4AB6C256EF9E56D35F072
:10244C00FA90000D12067E788AE6FF18E68FF0A44B
:10245C002527F582E435F0F5831203D2FF7B007A51
:03246C00007925CF
:10246F008F348B358A368937EA494B60161203B998
:10247F00FFE534FD7C00120003AB35AA36A937EF18
:03248F001203FF36
:0E2492007538140075390300D539FCD538F5BE
:0E24A0008534997F011229243099FDC29922BA
:062A37007881EFF6D28366
:0E2A3D007534140075350300D535FCD534F51D
:062A4B0078A0E6F59922D7
:10272900C9EFC9E964017028EDC39B4034787BE6A1
:10273900FFEB2FFFE433FEEDC39FEE6480F8748056
:1027490098501ED212C3ED9B788AF67886760122BC
:10275900B90214ED6B700AD212788AF6788676027D
:0827690022C212E47886F62278
:10258100C9EFC9BAFF15BBFF12ED6B7002EC6A709F
:1025910049D212788AF67886E9F622E96401702533
:1025A100C3ED9BEC9A401C787BE62BFFE43AFEC31B
:1025B100ED9FEC9E500DD212C3ED9B788AF6788682
:1025C1007601228015B90218ED6B7002EC6A700A6F
:1025D100D212788AF67886760222C212E47886F6DA
:0125E10022D7
:1007F800788CE6FF54F8F526EF1206AE0841090892
:100808004C0A085B10086411087312088619089AC4
:100818001A08B92008BF28095F290A63330A9237E2
:100828000AB8390AD1410ADA490AE3500B27610AA2
:1008380029700B1F9800000B52788DE6FDE509FB27
:100848007F018021788DE6FC08E6FDAB09AA087FC8
:10085800018025D21278867603020B52788DE6FD48
:10086800E50BFB7F02122729020B52788DE6FC0864
:10087800E6FDAB0BAA0A7F02122581020B52788D86
:10088800E6FDE509FB7F01122729201203020B521E
:100898008016788DE6FC08E6FDAB09AA087F0112F0
:1008A8002581201203020B5278A076787F01020B73
:1008B8004F75EF10020B52C2ACE4F525D283FB7AD8
:1008C8000079257F7F12246F7B007A0079257F18B5
:1008D80012246F7B007A0079257F0512246F7882B5
:1008E800E61224687B007A007925AF0812246F7B12
:1008F800007A007925AF0912246F7B007A007925E8
:10090800AF0A12246F7B007A007925AF0B12246F8F
:100918007B007A007925AF0C12246F7B007A00796E
:1009280025AF0D12246FE4F527740E2527F8E6127B
:1009380024680527E527C3941040EE7B007A0079E8
:0609480000AF2512246F30
:0E094E0075320A0075330300D533FCD532F53F
:10095C00020A16788DE6FFC37882964003020A1DC0
:10096C00EF75F010A4256EF9E56D35F0856C2FF55B
:10097C00308931C2ACE4F525D283FB7A0079257F2E
:10098C007F12246F7B007A0079257F0D12246FABC8
:10099C002FAA30A9311203B9122468AB2FAA30A99F
:1009AC0031900001122465AB2FAA30A931900002BE
:1009BC00122465AB2FAA30A931900003122465AB29
:1009CC002FAA30A931900004122465E4F527AB2F2F
:1009DC00E5312405F9E43530FA7E00E92527F9EEF6
:1009EC003AFA1203B91224680527E527C394084084
:0C09FC00DD7B007A007900AF2512246F2B
:0E0A080075320A0075330300D533FCD532F584
:100A1600C283D2AC020B5278A07678E408F67F0245
:100A2600020B4F122A8E78A812063578A0767C78AB
:100A3600A8E678A1F678A9E678A2F678AAE678A3D9
:100A4600F678ABE678A4F67C007D057B007A007923
:100A5600A012222D78A5EFF67F06020B4F788DE6C1
:100A6600FFB4010B08E6F50808E6F509020B1FEFCF
:100A7600B40208788EE6F508020B1F788DE6B403FB
:100A86000808E6F50A08E6F50B020B1FE4F527E56C
:100A960027C3788D965016748E2527F8E6FF740EB8
:100AA6002527F8C6EFC60527E527B410E2E4F51DAD
:100AB60080677A007B327D01788AE6FF1223C3784D
:100AC6008DE6FDE4FF12299B020B52788DE624FF8A
:100AD600920A8078788DE624FF9209806F788AE6FC
:100AE6006005752902800B2015057529038003759D
:100AF600290178A0767908A6297C007D027B007AF8
:100B06000079A012222D78A2EFF67F03122A37E58C
:100B16002964017037D2168002D210788076F1806F
:100B26002B7A007B327D017F001223C378A0767971
:100B3600788DE678A1F67C007D027B007A0079A0AC
:100B460012222D78A2EFF67F03122A37E52664A03B
:100B56006003020D50788CE664A16003020C4A79AA
:100B66008DE7C37882964003020C41AB6CAA6DA94F
:100B76006E788DE6FF75F010A4F58285F08312037A
:100B8600D2F529EF75F010A429F9EA35F0FA9000AC
:100B9600041203D230E230788DE6FF12001D8F2951
:100BA60078A0767F08A629E5292402FDE433FC7B9C
:100BB600007A0079A012222D74A22529F8EFF6E515
:100BC600292403FF020D4D788DE6FF12001DC2ACED
:100BD600E4F525D283E529D39406402B7B007A00E1
:100BE60079257F7F12246F7B007A007925AF291241
:100BF600246FE4F527E527C39529500712243C0501
:100C06002780F205298018E5292478122468E4F55E
:100C160027E527C39529500712243C052780F27B38
:0A0C2600007A007900AF2512246F58
:0E0C300075320A0075330300D533FCD532F55A
:100C3E00020D4178A076787F01020D4D788CE66426
:100C4E00A26003020D507882E6FF788DE6FEC39F08
:100C5E004003020D4708E6FDC39F4003020D47EE19
:100C6E009D4003020D4718E6F527E4F52DF52EE518
:100C7E0027D3788E965026AF2712001DAB6CAA6D27
:100C8E00A96E75F010E527A4F58285F0831203D2C4
:100C9E00252EF52EE4352DF52D052780D2C2ACE498
:100CAE00F525D283FB7A0079257F7F12246FC3E569
:100CBE002E9480E52D940050028007E52D4480127D
:100CCE002468AF2E122469788DE6F527E527D378B0
:100CDE008E965046E4F528AB6CAA6DA96E75F01091
:100CEE00E527A4F58285F0831203D2FFE528C39F82
:100CFE005024E52775F010A429F9EA35F0FA900092
:100D0E000D12067E788AE6FF18E68FF0A4252812CB
:100D1E00245E052880C1052780B27B007A00790009
:050D2E00AF2512246F47
:0E0D330075320A0075330300D533FCD532F556
:100D4100C283D2AC800978A076787F01122A37E578
:100D51002664587047FA7B327D01788AE6FF1223B8
:100D6100C37537007538007539A17B007A00798D1C
:100D71001228CC8F29E529247878A0F6E5292401C9
:100D8100FDE433FC7B007A0079A012222D74A125A9
:100D910029F8EFF6E5292402FF122A37E5266480B7
:100DA1006009E52664886003020F377886E6B4019E
:100DB1000F7A007B327D01788AE6FF1223C3801A05
:100DC100E4F527E527C3787B96500F7A007B327DC7
:100DD10001AF271223C3052780E9788CE65407F574
:100DE10029B4070A75280108E6F529088005E4F504
:100DF10028788DE6F52A1529E52AC37882964003DD
:100E0100020F15AB6CAA6DA96E75F010E52AA4F559
:100E11008285F0831203D2FFE529D39F40028F29F7
:100E21007886E6B40109788AE6F52CF52B8009E489
:100E3100F52B787BE614F52C788AA62B788AE6D3F5
:100E4100952C4003020F09E4F527E527C3952940B6
:100E510003020EFEE52A75F010A4AB6C256EF9E5D0
:100E61006D35F0FA9000041203D230E203020EF95C
:100E71009000011203D264387031E529D394044003
:100E81000BE5282527248EF8E6FD804E7884E6C3FD
:100E91009527FF748A2FF8E6FDE52A75F010A4ABBB
:100EA1006C256EF9E56D35F0FA802FAB6CAA6DA952
:100EB1006E75F010E52AA4F58285F0831203D2FF46
:100EC100C37884E69F25272528248BF8E6FDE52AAB
:100ED10075F010A429F9EA35F0FA90000D12067E9A
:100EE100788AE6FF18E68FF0A4FFE5272FF582E464
:100EF10035F0F583ED1204110527020E4BAF2A12CE
:100F010027F4788A06020E3D788AA62BE5266488A6
:100F11007024800FE52AB4FF1D788EE6F521E526C1
:100F2100B4881378A076787884E6248BF8E678A1E3
:060F3100F67F02122A37D0
:010F37002297
:103000007880E664F16003023613E4F54EF54F78FC
:0430100081E66020D5
:0E30140075540A0075550300D555FCD554F5CA
:10302200054FE54F7002054E64107004E54E6427AB
:1030320070DBC2AFE4F5D9F54AF54920982FE4F5E3
:103042004EF54F209823C3E54F9488E54E941350D4
:013052001865
:0E30530075540A0075550300D555FCD554F58B
:10306100054FE54F70DE054E80DAB2B080CE85990E
:1030710049C298E549641A6003023146F54EF54F9D
:0E308100209823C3E54F9488E54E9413501811
:0E308F0075540A0075550300D555FCD554F54F
:10309D00054FE54F70DE054E80DA30989385994ADD
:1030AD00C298E4F54EF54F209823C3E54F9488E57B
:0530BD004E94135018B1
:0E30C20075540A0075550300D555FCD554F51C
:1030D000054FE54F70DE054E80DA20980302303D43
:1030E00085994AC298E4F54EF54F209823C3E54FE1
:0830F0009488E54E941350187A
:0E30F80075540A0075550300D555FCD554F5E6
:10310600054FE54F70DE054E80DA20980302303D0C
:0931160085994AC298D283C2993E
:0E311F007554140075550300D555FCD554F5B4
:06312D007599783099FD50
:0E31330075540A0075550300D555FCD554F5AA
:10314100C283023605E549645060030231DBF54E66
:10315100F54F209823C3E54F9488E54E94135018FA
:0E31610075540A0075550300D555FCD554F57C
:10316F00054FE54F70DE054E80DA20980302303DA3
:09317F0085994AC298D283C299D5
:0E3188007554140075550300D555FCD554F54B
:083196007599793099FDC29989
:0E319E007554140075550300D555FCD554F535
:0831AC007599013099FDC299EB
:0E31B4007554140075550300D555FCD554F51F
:0631C200E4F5993099FDCF
:0E31C80075540A0075550300D555FCD554F515
:0F31D600C283023605E54964017041D283C29974
:0E31E5007554140075550300D555FCD554F5EE
:0831F3007599783099FDC2992D
:0E31FB007554140075550300D555FCD554F5D8
:06320900E4F5993099FD87
:0E320F0075540A0075550300D555FCD554F5CD
:10321D00C283023605E549640260030232E2F54ECF
:10322D00F54F209823C3E54F9488E54E941350181D
:0E323D0075540A0075550300D555FCD554F59F
:10324B00054FE54F70DE054E80DA20980302303DC6
:10325B0085994AC298E4F54BE54A13B392B0E54A17
:10326B0025E0FEC3E49400EE94305027E54A7F003E
:10327B0025E0FEC3943A501B758F038E508F51750A
:10328B00B7A57880E6F5B7855182855083E4F0F5D4
:0A329B008F8003754BFFD283C299A8
:0E32A5007554140075550300D555FCD554F52D
:0832B3007599783099FDC2996C
:0E32BB007554140075550300D555FCD554F517
:0632C900854B993099FDD0
:0E32CF0075540A0075550300D555FCD554F50D
:1032DD00C283023605E5496403600302342CF54EC2
:1032ED00F54F209823C3E54F9488E54E941350185D
:0E32FD0075540A0075550300D555FCD554F5DF
:10330B00054FE54F70DE054E80DA20980302303D05
:10331B0085994AC298E4F54EF54F209823C3E54FA3
:08332B009488E54E941350183C
:0E33330075540A0075550300D555FCD554F5A8
:10334100054FE54F70DE054E80DA20980302303DCF
:1033510085994CC298E54A1392B0E54A25E0FEC32F
:10336100E49400EE9430400302303DE54A7D0025AF
:10337100E0FCC3943A400302303D758F01E54C7582
:10338100F020A42DFFE5F03CF5508F51E4F54DE51B
:103391004DC394205051E4F54EF54F209823C3E5D9
:0933A1004F9488E54E9413501876
:0E33AA0075540A0075550300D555FCD554F531
:1033B800054FE54F70DE054E80DA20980302303D58
:1033C80075B7A57880E6F5B70551E551AE5070029E
:1033D800055014F5828E83E599F0C298054D80A8B2
:0733E800E4F58FD283C299C6
:0E33EF007554140075550300D555FCD554F5E2
:0833FD007599783099FDC29921
:0E3405007554140075550300D555FCD554F5CB
:06341300E4F5993099FD7B
:0E34190075540A0075550300D555FCD554F5C1
:10342700C283023605E549640460030234E0F54EC1
:10343700F54F209823C3E54F9488E54E9413501811
:0E34470075540A0075550300D555FCD554F593
:10345500054FE54F70DE054E80DA20980302303DBA
:1034650085994AC298E54A25E0F552755300E4F579
:103475004BF54EF54F0553E553AE52700205521408
:10348500F5828E83E493254BF54B054FE54F70028E
:0E349500054E7004E54E640270DBD283C299CE
:0E34A3007554140075550300D555FCD554F52D
:0834B1007599783099FDC2996C
:0E34B9007554140075550300D555FCD554F517
:0634C700854B993099FDD0
:0E34CD0075540A0075550300D555FCD554F50D
:1034DB00C283023605E549640560030235FDF54EEE
:1034EB00F54F209823C3E54F9488E54E941350185D
:0E34FB0075540A0075550300D555FCD554F5DF
:10350900054FE54F70DE054E80DA20980302303D05
:1035190085994AC298E4F54EF54F209823C3E54FA3
:083529009488E54E941350183C
:0E35310075540A0075550300D555FCD554F5A8
:10353F00054FE54F70DE054E80DA20980302303DCF
:09354F0085994CC298D283C299FF
:0E3558007554140075550300D555FCD554F577
:0835660075997F3099FDC299AF
:0E356E007554140075550300D555FCD554F561
:10357C007599203099FDE54A25E0FCE54C75F02065
:10358C00A42400FFE5F03CF5528F53E4F54BF54DC8
:02359C00C299D2
:0E359E007554140075550300D555FCD554F531
:1035AC00855382855283E493F5993099FD0553E553
:1035BC0053AE527002055214F5828E83E493254B60
:0B35CC00F54B054DE54DB420C7C2993A
:0E35D7007554140075550300D555FCD554F5F8
:0635E500854B993099FDB1
:0E35EB0075540A0075550300D555FCD554F5EE
:1035F900C2838008E549B4060375EF10E5496407FD
:0A360900600302303D7880F6D2AF76
:013613002294
:1024AE007F0012292420110B7A007B327D017F00E0
:1024BE001223C330140B7A007B1E7D017F00122382
:1024CE00C33010173015147A007B327D01788AE6FE
:1024DE00FF1223C3C2101220EED21120130C30159E
:1024EE0009788076F11220EED213301608301505D9
:1024FE00C216123000201512122A81E47B2C7A01AA
:0B250E00F9F8C31205BA5002D21522E2
:0B2AA7001214AC1224AE120F3880F89D
:101B6300005EBCE2613FDD83C29C7E20A3FD1F417A
:101B73009DC3217FFCA2401E5F01E3BD3E6082DC6A
:101B8300237D9FC1421CFEA0E1BF5D0380DE3C625A
:101B9300BEE0025CDF81633D7C22C09E1D43A1FF4A
:101BA3004618FAA427799BC584DA3866E5BB59073A
:101BB300DB856739BAE406581947A5FB7826C49A2A
:101BC300653BD987045AB8E6A7F91B45C6987A241A
:101BD300F8A6441A99C7257B3A6486D85B05E7B90A
:101BE3008CD2306EEDB3510F4E10F2AC2F7193CDFA
:101BF300114FADF3702ECC92D38D6F31B2EC0E50EA
:101C0300AFF1134DCE90722C6D33D18F0C52B0EED9
:101C1300326C8ED0530DEFB1F0AE4C1291CF2D73C9
:101C2300CA947628ABF517490856B4EA6937D58BB9
:101C33005709EBB536688AD495CB2977F4AA4816A9
:101C4300E9B7550B88D6346A2B7597C94A14F6A899
:101C5300742AC896154BA9F7B6E80A54D7896B3589
:0A1C63000000000000002B96B9DD20
:0329D80001610A90
:10222D00151E151EA81EECF608EDF6151E151E152D
:10223D001EA81EC6EBC608C6EAC608C6E9C6E51E38
:04224D0024FCF51E5A
:10225100F80808E4F6A81EF608F6E51E2407F9A812
:102261001EE6FE08E6FFC3099719E76480F8EE64ED
:1022710080985037E51E2404F8CBE6CB08E6FA082F
:10228100E6F98F828E831203D2A81E080866FFE545
:102291001E2403F8EFF6E6901B6393A81E0808F6C8
:1022A100A81E0806E61870B20680AFA81E0808E648
:0122B100FF2D
:0722B200E51E2409F51E22C0
:07000300ED6F901B6393FFFA
:01000A0022D3
:10299B00EF701B7598D0E589540F4420F589438E51
:1029AB0008ED901C6293F58DD28ED2ACC2BCD2AF27
:0129BB0022F9
:10277100E4F567F566F565F564F56BF56AF569F5F8
:1027810068756064FFEF25E025E0247CF8E4F6EF4E
:1027910025E025E0247DF8E4F6EF25E025E0247E20
:1027A100F8E4F6EF25E025E0247FF8E4F60FBF0119
:0127B100D453
:0127B2002204
:102A1C00D2AFD2A9C2BBE589540F4401F589E4F5C4
:0B2A2C008E758CAFF58AD28C022771EA
:02219100151E19
:10219300A81EE4F6A81EE6FFC39401400302222A08
:1021A300EF25E025E0247FF8E6FFD394004052A812
:1021B3001EE625E025E0247DF8E67045EF30E015C6
:1021C300A81EE6FF25E025E0247FF8E6D39401402E
:1021D300047D0180067D00A81EE6FF1227B3A81E1A
:1021E300E6FF25E025E0247FF816E66014EF25E0FE
:1021F30025E0247EF8E6FEEF25E025E0247DF8EED9
:10220300F6A81EE625E025E0247DF8E6600116A881
:102213001EE6FF25E025E0247FF8E67004FD122783
:07222300B3A81E060221977B
:03222A00051E226C
:03000B0002234588
:10234500C0E0C0F0C083C082C0D0E8C0E0E9C0E012
:10235500EAC0E0EBC0E0ECC0E0EDC0E0EEC0E0EFCD
:10236500C0E0758CAFE5672401F567E43566F56671
:10237500E43565F565E43564F564D56018E56B24E9
:1023850001F56BE4356AF56AE43569F569E43568A4
:10239500F5687560641221911229FCD0E0FFD0E048
:1023A500FED0E0FDD0E0FCD0E0FBD0E0FAD0E0F9D3
:0E23B500D0E0F8D0D0D082D083D0F0D0E0328B
:10294D00151EA81EEDF6151EA81EEFF6A81EE6FF15
:10295D00C39401500D08E6FEEF25E025E0247CF838
:07296D00EEF6051E051E2217
:1023C300151E151EA81EEAF608EBF6151EA81EED2F
:1023D300F6151EA81EEFF6A81EE6FFC39401505281
:1023E300EF25E025E0247FF8E67047A81EE6FB25ED
:1023F300E025E0247DF8E67039A81E08E625E00410
:10240300FFA81EE6FA25E025E0247FF8EFF6A81ED4
:102413000808E6FE08E6FF7C007D0A120445EA256B
:10242300E025E0247EF8EFF6EB25E025E0247DF8B7
:09243300E4F6E51E2404F51E2266
:1027B300151EA81EEDF6151EA81EEFF6A81EE6FFB1
:1027C300C39401501CEF25E025E0247CF8E660115A
:1027D300A81E08E670047F0180027F00A81E08EF90
:1027E300F6A81EE6700608E624FF92B0051E051E35
:0127F30022C3
:0C2A8100C2AFAF67AE66AD65AC64D2AF0B
:012A8D002226
:0C2A8E00C2AFAF6BAE6AAD69AC68D2AFEE
:012A9A002219
:10292400151EA81EEFF6A81EE67004F562F56330C6
:102934001714E56175F064A4FFC3E5639FE5629530
:09294400F05003E4F5FE051E222B
:1029DC00D217E4F562F563EF6004F561800375616D
:1029EC000AE4F5D975FDFF75D940F5FE75EF0622A1
:0A2AB200C217E4F562F563F5D922BE
:1029FC000563E56370020562301714E56175F064D8
:102A0C00A4FFC3E5639FE56295F05003E4F5FE2255
:0428F9008E3E8F3F41
:1028FD00E4F540F541C3E541953FE540953E501661
:10290D007FE87E031225E27F011229240541E5416E
:06291D0070E3054080DFBD
:012923002291
:0425E2008E5C8F5D1F
:1025E600D3E55D94FAE55C9400500FEFD394004078
:1025F60041007E0300DEFD1F80F1855C5E855D5F28
:10260600D3E55F94FAE55E940040157FFA7E0012EA
:1026160025E27406255FF55F74FF355EF55E80E0A2
:10262600D3E55D9400E55C94004007AF5FAE5E12B3
:0226360025E29B
:01263800227F
:10251900754900754A00754B437B007A0079417D06
:0125290002AF
:08252A008B458A4689478D4864
:102532007F01122924AB49AA4AA94B12047B240029
:10254200FFE5F0343AFE85454C85464D85474EE41D
:10255200FDEDC39548501BEF2DF582E43EF583E473
:1025620093AB4CAA4DA94E8D827583001204110DB6
:0F25720080DFAB49AA4AA94BE48548F00204A6D2
:10203500754B12754C3475530075540075554D7BB1
:07204500007A00794B7D02D7
:08204C008B4F8A5089518D521F
:102054007880E664F160030220ED122AB2C2AF7503
:102064008F01AB53AA54A95512047B2400FFE5F059
:10207400343A78ACF608EFF6AA50A95178B0A64FD6
:1020840008C6EAC608C6E9C6E478AEF678AEE6C382
:102094009552503C78B0CBE6CB080806E618CAE661
:1020A400CA70010614F91203B978AFF675B7A578AA
:1020B40080E6F5B778AFE6FF78AC0806E618CCE61C
:1020C400CC70010614F5828C83EFF078AE0680BCE8
:1020D400E4F58F53B6F0AB53AA54A9558552F012C8
:0920E40004A6D2AFE4FF1229DCCE
:0120ED0022D0
:102639007880E664F1704AC2AF122AB2758F0378C6
:10264900AD763A087600E478ACF675B7A57880E6F9
:10265900F5B778ADE6FE08E6F5828E83E4F07F01F2
:1026690012292478AEE426F618740236F61806E61E
:10267900C3940140D5E4F58F53B6F0D2AFFF1229C8
:01268900DC74
:01268A00222D
:1020EE00122639E4F54DF54EF55375540075554DE0
:1020FE00FB7A0079087D1612204C122035E4F54A41
:10210E00E54AC3787B965073E4F549AB6CAA6DA98A
:10211E006E75F010E549A4F58285F0831203D26046
:10212E0056E54975F010A429F9EA35F0FA90000D3C
:10213E0012067E7889E6854AF0A429F9EA35F0FA86
:10214E00EBC0E0EAC0E0E9C0E0AB6CAA6DA96E7529
:10215E00F010E549A4F58285F0831203D2FD755384
:10216E000075540075554DD0E0F9D0E0FAD0E0FB83
:10217E0012204C05498094054A8085122035E4785A
:02218E0080F6D9
:01219000222C
:031F6C00CCEFCCEB
:101F6F00E4F543F544F540F549754A00754B43FBDD
:101F7F007A0079087D1612252A122519E542643454
:101F8F007004E54164127003434001EC70030220BA
:101F9F002FE4F53FE53FC3787B965073E4F53EABF6
:101FAF006CAA6DA96E75F010E53EA4F58285F083DD
:101FBF001203D26056E53E75F010A429F9EA35F008
:101FCF00FA90000D12067E7889E6853FF0A429F974
:101FDF00EA35F0FAEBC0E0EAC0E0E9C0E0AB6CAA8A
:101FEF006DA96E75F010E53EA4F58285F08312039E
:101FFF00D2FD754900754A00754B43D0E0F9D0E02A
:10200F00FAD0E0FB12252A053E8094053F80851209
:10201F002519E54264347004E541641270058000AF
:05202F00434002AF4038
:012034002289
:101D710000070E091C1B1215383F363124232A2D6A
:101D810070777E796C6B6265484F464154535A5D5A
:101D9100E0E7EEE9FCFBF2F5D8DFD6D1C4C3CACD4A
:101DA10090979E998C8B8285A8AFA6A1B4B3BABD3A
:101DB100C7C0C9CEDBDCD5D2FFF8F1F6E3E4EDEA2A
:101DC100B7B0B9BEABACA5A28F88818693949D9A1A
:101DD1002720292E3B3C35321F18111603040D0A0A
:101DE1005750595E4B4C45426F68616673747D7AFA
:101DF100898E878095929B9CB1B6BFB8ADAAA3A4EA
:101E0100F9FEF7F0E5E2EBECC1C6CFC8DDDAD3D4D9
:101E1100696E676075727B7C51565F584D4A4344C9
:101E2100191E171005020B0C21262F283D3A3334B9
:101E31004E49404752555C5B7671787F6A6D6463A9
:101E41003E39303722252C2B0601080F1A1D141399
:101E5100AEA9A0A7B2B5BCBB9691989F8A8D848389
:101E6100DED9D0D7C2C5CCCBE6E1E8EFFAFDF4F379
:10286C00151EA81EA605151E151EA81EA60608A632
:10287C0007A81E0808E6FFA81EE6FE08E66F2471EE
:10288C00F582741D3EF583E493FF051E051E051E9F
:01289C002219
:032ACB0002000EF8
:0F000E00EF64014E7002C2A67F027E000228F945
:102A5100EF64014E7011D2A67F0CFE1225E2C2A6D0
:082A61007F047E001225E22231
:102A6900EF64014E7011D2A67F04FE1225E2C2A6C0
:082A79007F0C7E001225E22211
:10283400EF64014E7031D2A67F01FE1225E2C2A6DA
:102844007F087E001225E2E59A5440C41313540312
:10285400FFBF010A7F087E001225E27F01227F0864
:082864007E001225E27F002234
:0626DD008F4E8C4F8D5062
:1026E300E4F551F552F553F552755307AF53E54EE3
:1026F300A807088002C313D8FC5401F5517009AF31
:1027030050AE4F122A69800CE551B40118AF50AE98
:102713004F122A51E553155370021552C3E5526403
:0527230080948050C706
:01272800228E
:04289D008E588F5969
:1028A100E4F55AF55B755B07AF59AE58122834AEA3
:1028B1005BEFA806088002C333D8FC425A155BC3FC
:0A28C100E55B6480948050E0AF5A9C
:0128CB0022EA
:0A2ABC0075E8C075BC8075D10E22CC
:10297400EF541FF5BB75BAFFC2AFC2EDD2ECC2ED86
:10298400D2EC20ECFDD2AFE5BE5403FEADBD7C001D
:07299400E42DFFEC3EFE22E2
:032ACE00022ACB0E
:0618F6008F408D418B4282
:1018FC009000BB12064D000000007D00AF407E0042
:10190C0012286CAD07AF427E0012286CAD07AF43B6
:10191C007E0012286CAD07AF417E0012286C90003F
:10192C00BAEFF0E54264037021FDAF45FE12286C5E
:10193C00AD07AF447E0012286CAD079000BAE0FFF3
:10194C007E0012286C9000BAEFF0754B01754D14A7
:10195C00E54B7003021A51E54D7003021A51AF4763
:10196C00AE46122A69AF47AE46122A69AD47AC465D
:10197C00AF401226DDAF47AE46122A69AD47AC46E2
:10198C00AF421226DDAD47AC46AF431226DDE54231
:10199C0070028028AD47AC46AF411226DDE541B45C
:1019AC00F6028018E54264037029AD47AC46AF459A
:1019BC001226DDAD47AC46AF441226DD9000BAE0EE
:1019CC00FF854852854953854A54AB47AA467DFF4B
:1019DC00021A54E54264017067E54364027061E5E4
:1019EC004B603F9000BAE0FF854852854953854AC9
:1019FC0054AB47AA46E4FD121A548F4CE54C7022A6
:101A0C009000BBE0FCA3E0FDA3E0FEA3E0FFAB482D
:101A1C00AA49A94A12061512002D9000BB120641C4
:101A2C00154BE54B701A9000BBE0FCA3E0FDA3E066
:101A3C00FEA3E0FFAB48AA49A94A1205EB7F00229E
:071A4C00154D02195CAF4CBF
:011A53002270
:081A54008F4E8D4F8A508B511B
:101A5C00E4F557AF51AE5012289DE54E6F60037FF1
:101A6C00FF22EFF4B54E037FFD22E54FB4FF037F59
:101A7C000122E54F6003021B60AF51AE5012289D4E
:101A8C008F55AF51AE5012289D8F56AF51AE50129C
:101A9C00289D8F577D00AF557E0012286CAD07AF87
:101AAC00567E0012286CEF655760037FFE22E556C8
:101ABC0030E7096356FFE555F404F555E556FE7C11
:101ACC0000E42555FFEC3EFE9000BFF0A3EFF0FDC7
:101ADC00AC06EC120336E4FBFA798078421202274A
:101AEC00AB52AA53A9541205EBAB52AA53A954C03A
:101AFC0003C002C0011205CB7BCC7A5D795B783FC9
:101B0C00120029D001D002D0031205EBAB52AA531C
:101B1C00A9541205CBE4FBFA79C878421202C440EE
:101B2C0017AB52AA53A9541205CBE4FBFA792078CF
:101B3C00C11202C4600540037FFA22AB52AA53A91A
:101B4C00541205CB7BCC7A5D795B78BF1202C470E2
:061B5C00037FFB227F0065
:011B62002260
:100026000203A4E86480F8E933E83360110460F061
:10003600ED33EC337009E8FCE9FDEAFEEBFF220440
:1000460060DED3EB9FEA9EE99DE8C2E78CF0C2F73B
:1000560095F0400CE8CCF8E9CDF9EACEFAEBCFFB07
:1000660012036F85D0F05804700320D5B3E80470EE
:10007600075002B2D50203AE92D5EC0460F7E4CC89
:10008600C0E0C398F8603B94186008400DD0E0FBD0
:10009600020386E4FBFAC9FC8028E830E406E4C9DA
:1000A600FBE4CAFCE830E305E4C9CACBFCE8540724
:1000B6006010F8C3E913F9EA13FAEB13FBEC13FC2F
:1000C600D8F130F52FC3E49CFCEF9BFFEE9AFEEDD2
:1000D60099FDD0E0FBEF4E4D4C701222DB0302037C
:1000E600ABEC2CFCEF33FFEE33FEED33FDED30E7EA
:1000F600EB020386EF2BFFEE3AFEED39FDD0E0FB77
:1001060050130BBB00030203AEED13FDEE13FEEF1F
:0801160013FFEC13FC02038649
:10011E00EC4D6011E8497017ED33EC3304600DE4DB
:10012E00FCFFFEFD22E933E8330470F80203A4124B
:10013E00036F58046009E4CC24815006285009024C
:10014E0003AE2840030203ABC0E0EB4A7044B98013
:10015E0006D0E0FB02039AEF4E701CBD8008EBFF49
:10016E00EAFEE9FD80EBE98DF0A4FEE5F002020760
:10017E00E9CDF9EAFEEBFFEF89F0A4FCE5F0CE89BC
:10018E00F0A42EFFE435F0CD89F0A42DFEE435F079
:10019E008067EF4E7005BD80D780C3EF8BF0A4ACA7
:1001AE00F0EE8BF0A42CFCE435F0F8EF8AF0A42CE2
:1001BE00E5F038FCE433CB8DF0A42CFCE5F03BF8F5
:1001CE00EE8AF0A42CFCE5F038F8E433CF89F0A4E5
:1001DE002CFCE5F038CF3400CE89F0A42FFFE5F0EB
:1001EE003EFEE433C98DF0A42EFEE5F039CD8AF043
:1001FE00A42FFFE5F03EFEE43DFD33D0E0FB5007BB
:10020E000BBB000F0203AEEC2CFCEF33FFEE33FE04
:06021E00ED33FD02038632
:100224000203AEEC5D046005E8590470030203A404
:1002340012036F580460F6EC4860F2EC7004FDFEA3
:10024400FF22C860DB2481C85009C39860025006AD
:100254000203AB9850CAF582E9294B4A7005AB8278
:1002640002039A75F0007C1A7880C3EF9BEE9AED36
:1002740099400DC3EF9BFFEE9AFEED99FDE842F025
:10028400DC23ACF0D0E0FFD0E0FED0E0FDAB822078
:10029400E7101BEB60BAEC2CFCEF33FFEE33FEED02
:1002A40033FD020386E803F830E705C0F075F0007B
:1002B400EF2FFFEE33FEED33FD40B830E7C280AAE6
:1002C40074F8CC6480CCC86480C8F582046043C3ED
:1002D400EB9FF5F0EA9E42F0E99D42F0E89C45F080
:1002E40060305018E5825FFFE582F42B5582FB50A5
:1002F400210ABA001D09B90019088016E5825BFBC2
:10030400E582F42F5582FF50090EBE00050DBD0095
:10031400010CC3EB9FF5F0EA9E42F0E99D42F0E840
:0D0324009C45F06007CC4820E701B3EC22B7
:1003310075F020800E75F010800575F0087D007E47
:10034100007F003392D530D5031205ACEC33401059
:10035100EF33FFEE33FEED33FDEC33FCD5F0ED2250
:0E036100E5F0247EA2D513CC92E7CDCEFF228C
:10036F00E9D2E7C933E833F892D5EDD2E7CD33ECD4
:07037F0033FC5002B2D5224D
:10038600EC30E7100FBF000C0EBE00080DBD0004D8
:100396000BEB6014A2D5EB13FCED92E7FD2274FF84
:1003A600FCFDFEFF22E480F8A2D574FF13FC7D80DD
:0303B600E480EFF1
:030000000222B920
:0C22B900787FE4F6D8FD7581B2022300A6
:1003B900BB010689828A83E0225002E722BBFE0242
:0903C900E32289828A83E4932275
:1003D200BB010CE58229F582E5833AF583E02250E0
:1003E20006E92582F8E622BBFE06E92582F8E2222A
:0D03F200E58229F582E5833AF583E4932244
:1003FF00BB010689828A83F0225002F722BBFE01DD
:02040F00F322D6
:10041100F8BB010DE58229F582E5833AF583E8F021
:10042100225006E92582C8F622BBFE05E92582C8CD
:02043100F222B5
:10043300EF8DF0A4A8F0CF8CF0A428CE8DF0A42EDD
:02044300FE2297
:10044500C2D5EC30E709B2D5E4C39DFDE49CFCEED2
:1004550030E715B2D5E4C39FFFE49EFE120700C343
:10046500E49DFDE49CFC800312070030D507C3E43E
:060475009FFFE49EFE2241
:10047B00BB010A89828A83E0F5F0A3E0225006874C
:10048B00F009E71922BBFE07E3F5F009E31922890E
:0B049B00828A83E493F5F07401932241
:1004A600BB010789828A83020755500B09C5F027CD
:1004B600F7C5F01937F722BBFE0D09F8E325F0F36F
:1004C600C5F019E338F322F889828A8374019325EB
:0804D600F0C5F0F8E4933822B0
:1004DE0075F008758200EF2FFFEE33FECD33CDCCD5
:1004EE0033CCC58233C5829BED9AEC99E582984058
:1004FE000CF582EE9BFEED9AFDEC99FC0FD5F0D635
:10050E00E4CEFBE4CDFAE4CCF9A88222B800C1B95E
:10051E000059BA002DEC8BF084CFCECDFCE5F0CB9C
:10052E00F97818EF2FFFEE33FEED33FDEC33FCEBD5
:10053E0033FB10D703994004EB99FB0FD8E5E4F990
:10054E00FA227818EF2FFFEE33FEED33FDEC33FC7D
:10055E00C933C910D7059BE99A4007EC9BFCE99A71
:10056E00F90FD8E0E4C9FAE4CCFB2275F010EF2FB6
:10057E00FFEE33FEED33FDCC33CCC833C810D707B6
:10058E009BEC9AE899400AED9BFDEC9AFCE899F8F1
:0E059E000FD5F0DAE4CDFBE4CCFAE4C8F92284
:0E05AC00C3E49FFFE49EFEE49DFDE49CFC2260
:1005BA00EB9FF5F0EA9E42F0E99D42F0E89C45F097
:0105CA00220E
:1005CB00BB010789828A830207775005E9F8020786
:1005DB006BBBFE05E9F802078389828A8302060555
:1005EB00BB010789828A830206415005E9F802069E
:0A05FB0035BBFE05E9F80207C52232
:10060500E493FC740193FD740293FE740393FF223B
:10061500BB010789828A8302079C5005E9F8020716
:100625008FBBFE05E9F80207A889828A830207B510
:0C063500ECF608EDF608EEF608EFF622F1
:0C064100ECF0A3EDF0A3EEF0A3EFF0222C
:10064D00A8828583F0D083D08212066412066412CC
:10065D000664120664E473E493A3C583C5F0C583F1
:10066D00C8C582C8F0A3C583C5F0C583C8C582C8F7
:01067D00225A
:10067E00BB010DE58229F582E5833AF5830207DA9F
:10068E005007E92582F80207D1BBFE07E92582F85B
:10069E000207E3E58229F582E5833AF5830207EC4A
:1006AE00D083D082F8E4937012740193700DA3A3DB
:1006BE0093F8740193F5828883E4737402936860EF
:0606CE00EFA3A3A380DFEF
:10268B008B3E8A3F8940E4F546F547E5451545AE57
:10269B0044700215444E6033AB41AA42A943120366
:1026AB00B9FFAB3EAA3FA9400547E547AC467002D0
:1026BB00054614F5828C83EF120411EF60CD740183
:1026CB002543F543E43542F54280C0AB3EAA3FA912
:0226DB0040229B
:1006D400EF4E6012EF60010EEDBB010B89828A833D
:1006E400F0A3DFFCDEFA2289F05007F709DFFCA94A
:0C06F400F022BBFEFCF309DFFCA9F022A1
:1022C500022AA7E493A3F8E493A34003F68001F25E
:1022D50008DFF48029E493A3F85407240CC8C3331A
:1022E500C4540F4420C8834004F456800146F6DFE9
:1022F500E4800B01020408102040809029BCE47E94
:10230500019360BCA3FF543F30E509541FFEE493DD
:10231500A360010ECF54C025E060A840B8E493A3A4
:10232500FAE493A3F8E493A3C8C582C8CAC583CACF
:10233500F0A3C8C582C8CAC583CADFE9DEE780BE87
:0129DB0000FB
:10070000BC000BBE0029EF8DF084FFADF022E4CCDD
:10071000F875F008EF2FFFEE33FEEC33FCEE9DECA6
:10072000984005FCEE9DFE0FD5F0E9E4CEFD22EDEC
:10073000F8F5F0EE8420D21CFEADF075F008EF2F36
:10074000FFED33FD4007985006D5F0F222C398FD27
:050750000FD5F0EA22C4
:10075500C5F0F8A3E028F0C5F0F8E582158270022F
:060765001583E038F022CC
:0C076B00E6FC08E6FD08E6FE08E6FF22BA
:0C077700E0FCA3E0FDA3E0FEA3E0FF22F5
:0C078300E2FC08E2FD08E2FE08E2FF22B2
:0D078F00E6FB08E6F908E6FA08E6CBF822DA
:0C079C00E0F8A3E0F9A3E0FAA3E0FB22E0
:0D07A800E2FB08E2F908E2FA08E2CBF822D1
:1007B500E493F8740193F9740293FA740393FB229A
:0C07C500ECF208EDF208EEF208EFF22270
:0907D100E6FB08E6FA08E6F9224D
:0907DA00E0FBA3E0FAA3E0F92220
:0907E300E2FB08E2FA08E2F92247
:0C07EC00E493FB740193FA740293F92269
:00000001FF
